{
  "_format": "hh-sol-artifact-1",
  "contractName": "Exchange",
  "sourceName": "contracts/Exchange.sol",
  "abi": [
    {
      "inputs": [
        {
          "internalType": "address",
          "name": "_tokenIn",
          "type": "address"
        },
        {
          "internalType": "address",
          "name": "_tokenOut",
          "type": "address"
        },
        {
          "internalType": "uint256",
          "name": "_exchangeRate",
          "type": "uint256"
        }
      ],
      "stateMutability": "nonpayable",
      "type": "constructor"
    },
    {
      "anonymous": false,
      "inputs": [
        {
          "indexed": true,
          "internalType": "address",
          "name": "previousOwner",
          "type": "address"
        },
        {
          "indexed": true,
          "internalType": "address",
          "name": "newOwner",
          "type": "address"
        }
      ],
      "name": "OwnershipTransferred",
      "type": "event"
    },
    {
      "inputs": [
        {
          "internalType": "uint256",
          "name": "_exchangeRate",
          "type": "uint256"
        }
      ],
      "name": "adminSetExchangeRate",
      "outputs": [],
      "stateMutability": "nonpayable",
      "type": "function"
    },
    {
      "inputs": [
        {
          "internalType": "uint256",
          "name": "amount",
          "type": "uint256"
        }
      ],
      "name": "change",
      "outputs": [],
      "stateMutability": "nonpayable",
      "type": "function"
    },
    {
      "inputs": [],
      "name": "exchangeRate",
      "outputs": [
        {
          "internalType": "uint256",
          "name": "",
          "type": "uint256"
        }
      ],
      "stateMutability": "view",
      "type": "function"
    },
    {
      "inputs": [],
      "name": "owner",
      "outputs": [
        {
          "internalType": "address",
          "name": "",
          "type": "address"
        }
      ],
      "stateMutability": "view",
      "type": "function"
    },
    {
      "inputs": [],
      "name": "rateDenominator",
      "outputs": [
        {
          "internalType": "uint256",
          "name": "",
          "type": "uint256"
        }
      ],
      "stateMutability": "view",
      "type": "function"
    },
    {
      "inputs": [],
      "name": "renounceOwnership",
      "outputs": [],
      "stateMutability": "nonpayable",
      "type": "function"
    },
    {
      "inputs": [],
      "name": "tokenIn",
      "outputs": [
        {
          "internalType": "address",
          "name": "",
          "type": "address"
        }
      ],
      "stateMutability": "view",
      "type": "function"
    },
    {
      "inputs": [],
      "name": "tokenInReserve",
      "outputs": [
        {
          "internalType": "uint256",
          "name": "",
          "type": "uint256"
        }
      ],
      "stateMutability": "view",
      "type": "function"
    },
    {
      "inputs": [],
      "name": "tokenOut",
      "outputs": [
        {
          "internalType": "address",
          "name": "",
          "type": "address"
        }
      ],
      "stateMutability": "view",
      "type": "function"
    },
    {
      "inputs": [
        {
          "internalType": "address",
          "name": "newOwner",
          "type": "address"
        }
      ],
      "name": "transferOwnership",
      "outputs": [],
      "stateMutability": "nonpayable",
      "type": "function"
    }
  ],
  "bytecode": "0x608060405261271060045534801561001657600080fd5b5060405161086e38038061086e833981016040819052610035916100e2565b61003e33610076565b600180546001600160a01b039485166001600160a01b031991821617909155600280549390941692169190911790915560035561011e565b600080546001600160a01b038381166001600160a01b0319831681178455604051919092169283917f8be0079c531659141344cd1fd0a4f28419497f9722a3daafe3b4186f6b6457e09190a35050565b80516001600160a01b03811681146100dd57600080fd5b919050565b6000806000606084860312156100f757600080fd5b610100846100c6565b925061010e602085016100c6565b9150604084015190509250925092565b6107418061012d6000396000f3fe608060405234801561001057600080fd5b506004361061009e5760003560e01c806375322e471161006657806375322e4714610110578063865192f7146101235780638da5cb5b1461012c578063d0202d3b1461013d578063f2fde38b1461015057600080fd5b80630b91dda7146100a357806320876c50146100bf5780633ba0b9a9146100d45780636daf390b146100dd578063715018a614610108575b600080fd5b6100ac60055481565b6040519081526020015b60405180910390f35b6100d26100cd366004610601565b610163565b005b6100ac60035481565b6001546100f0906001600160a01b031681565b6040516001600160a01b0390911681526020016100b6565b6100d26101bc565b6100d261011e366004610601565b6101d0565b6100ac60045481565b6000546001600160a01b03166100f0565b6002546100f0906001600160a01b031681565b6100d261015e36600461061a565b6104de565b61016b610557565b600081116101b75760405162461bcd60e51b815260206004820152601460248201527365786368616e676552617465206973207a65726f60601b60448201526064015b60405180910390fd5b600355565b6101c4610557565b6101ce60006105b1565b565b6001546040516370a0823160e01b81523060048201526000916001600160a01b0316906370a0823190602401602060405180830381865afa158015610219573d6000803e3d6000fd5b505050506040513d601f19601f8201168201806040525081019061023d919061064a565b6001546040516323b872dd60e01b8152336004820152306024820152604481018590529192506001600160a01b0316906323b872dd906064016020604051808303816000875af1158015610295573d6000803e3d6000fd5b505050506040513d601f19601f820116820180604052508101906102b99190610663565b506001546040516370a0823160e01b8152306004820152839183916001600160a01b03909116906370a0823190602401602060405180830381865afa158015610306573d6000803e3d6000fd5b505050506040513d601f19601f8201168201806040525081019061032a919061064a565b610334919061069b565b10156103725760405162461bcd60e51b815260206004820152600d60248201526c1d1c985b9cd9995c8819985a5b609a1b60448201526064016101ae565b816005600082825461038491906106b2565b90915550506004546003546000919061039d90856106ca565b6103a791906106e9565b6002546040516370a0823160e01b815230600482015291925082916001600160a01b03909116906370a0823190602401602060405180830381865afa1580156103f4573d6000803e3d6000fd5b505050506040513d601f19601f82011682018060405250810190610418919061064a565b101561045d5760405162461bcd60e51b8152602060048201526014602482015273496e73756666696369656e742062616c616e636560601b60448201526064016101ae565b6002546040516323b872dd60e01b8152306004820152336024820152604481018390526001600160a01b03909116906323b872dd906064016020604051808303816000875af11580156104b4573d6000803e3d6000fd5b505050506040513d601f19601f820116820180604052508101906104d89190610663565b50505050565b6104e6610557565b6001600160a01b03811661054b5760405162461bcd60e51b815260206004820152602660248201527f4f776e61626c653a206e6577206f776e657220697320746865207a65726f206160448201526564647265737360d01b60648201526084016101ae565b610554816105b1565b50565b6000546001600160a01b031633146101ce5760405162461bcd60e51b815260206004820181905260248201527f4f776e61626c653a2063616c6c6572206973206e6f7420746865206f776e657260448201526064016101ae565b600080546001600160a01b038381166001600160a01b0319831681178455604051919092169283917f8be0079c531659141344cd1fd0a4f28419497f9722a3daafe3b4186f6b6457e09190a35050565b60006020828403121561061357600080fd5b5035919050565b60006020828403121561062c57600080fd5b81356001600160a01b038116811461064357600080fd5b9392505050565b60006020828403121561065c57600080fd5b5051919050565b60006020828403121561067557600080fd5b8151801515811461064357600080fd5b634e487b7160e01b600052601160045260246000fd5b6000828210156106ad576106ad610685565b500390565b600082198211156106c5576106c5610685565b500190565b60008160001904831182151516156106e4576106e4610685565b500290565b60008261070657634e487b7160e01b600052601260045260246000fd5b50049056fea26469706673582212207657819eaf8908dc3a4f7870ab2806394a0451b5e73ce994d99de97776e3a84964736f6c634300080b0033",
  "linkReferences": {},
  "deployedLinkReferences": {}
}