{
  "_format": "hh-sol-artifact-1",
  "contractName": "SumerOFTUpgradeable",
  "sourceName": "contracts/OFT-upgradable/SumerOFTUpgradeable.sol",
  "abi": [
    {
      "anonymous": false,
      "inputs": [
        {
          "indexed": true,
          "internalType": "address",
          "name": "owner",
          "type": "address"
        },
        {
          "indexed": true,
          "internalType": "address",
          "name": "spender",
          "type": "address"
        },
        {
          "indexed": false,
          "internalType": "uint256",
          "name": "value",
          "type": "uint256"
        }
      ],
      "name": "Approval",
      "type": "event"
    },
    {
      "anonymous": false,
      "inputs": [],
      "name": "EIP712DomainChanged",
      "type": "event"
    },
    {
      "anonymous": false,
      "inputs": [
        {
          "indexed": false,
          "internalType": "uint8",
          "name": "version",
          "type": "uint8"
        }
      ],
      "name": "Initialized",
      "type": "event"
    },
    {
      "anonymous": false,
      "inputs": [
        {
          "indexed": false,
          "internalType": "uint16",
          "name": "_srcChainId",
          "type": "uint16"
        },
        {
          "indexed": false,
          "internalType": "bytes",
          "name": "_srcAddress",
          "type": "bytes"
        },
        {
          "indexed": false,
          "internalType": "uint64",
          "name": "_nonce",
          "type": "uint64"
        },
        {
          "indexed": false,
          "internalType": "bytes",
          "name": "_payload",
          "type": "bytes"
        }
      ],
      "name": "MessageFailed",
      "type": "event"
    },
    {
      "anonymous": false,
      "inputs": [
        {
          "indexed": false,
          "internalType": "address",
          "name": "account",
          "type": "address"
        }
      ],
      "name": "Paused",
      "type": "event"
    },
    {
      "anonymous": false,
      "inputs": [
        {
          "indexed": true,
          "internalType": "uint16",
          "name": "_srcChainId",
          "type": "uint16"
        },
        {
          "indexed": true,
          "internalType": "address",
          "name": "_to",
          "type": "address"
        },
        {
          "indexed": false,
          "internalType": "uint256",
          "name": "_amount",
          "type": "uint256"
        }
      ],
      "name": "ReceiveFromChain",
      "type": "event"
    },
    {
      "anonymous": false,
      "inputs": [
        {
          "indexed": true,
          "internalType": "bytes32",
          "name": "role",
          "type": "bytes32"
        },
        {
          "indexed": true,
          "internalType": "bytes32",
          "name": "previousAdminRole",
          "type": "bytes32"
        },
        {
          "indexed": true,
          "internalType": "bytes32",
          "name": "newAdminRole",
          "type": "bytes32"
        }
      ],
      "name": "RoleAdminChanged",
      "type": "event"
    },
    {
      "anonymous": false,
      "inputs": [
        {
          "indexed": true,
          "internalType": "bytes32",
          "name": "role",
          "type": "bytes32"
        },
        {
          "indexed": true,
          "internalType": "address",
          "name": "account",
          "type": "address"
        },
        {
          "indexed": true,
          "internalType": "address",
          "name": "sender",
          "type": "address"
        }
      ],
      "name": "RoleGranted",
      "type": "event"
    },
    {
      "anonymous": false,
      "inputs": [
        {
          "indexed": true,
          "internalType": "bytes32",
          "name": "role",
          "type": "bytes32"
        },
        {
          "indexed": true,
          "internalType": "address",
          "name": "account",
          "type": "address"
        },
        {
          "indexed": true,
          "internalType": "address",
          "name": "sender",
          "type": "address"
        }
      ],
      "name": "RoleRevoked",
      "type": "event"
    },
    {
      "anonymous": false,
      "inputs": [
        {
          "indexed": true,
          "internalType": "uint16",
          "name": "_dstChainId",
          "type": "uint16"
        },
        {
          "indexed": true,
          "internalType": "address",
          "name": "_from",
          "type": "address"
        },
        {
          "indexed": false,
          "internalType": "bytes",
          "name": "_toAddress",
          "type": "bytes"
        },
        {
          "indexed": false,
          "internalType": "uint256",
          "name": "_amount",
          "type": "uint256"
        }
      ],
      "name": "SendToChain",
      "type": "event"
    },
    {
      "anonymous": false,
      "inputs": [
        {
          "indexed": false,
          "internalType": "uint16",
          "name": "_dstChainId",
          "type": "uint16"
        },
        {
          "indexed": false,
          "internalType": "uint16",
          "name": "_type",
          "type": "uint16"
        },
        {
          "indexed": false,
          "internalType": "uint256",
          "name": "_minDstGas",
          "type": "uint256"
        }
      ],
      "name": "SetMinDstGas",
      "type": "event"
    },
    {
      "anonymous": false,
      "inputs": [
        {
          "indexed": false,
          "internalType": "uint16",
          "name": "_dstChainId",
          "type": "uint16"
        },
        {
          "indexed": false,
          "internalType": "uint256",
          "name": "_type",
          "type": "uint256"
        },
        {
          "indexed": false,
          "internalType": "uint256",
          "name": "_dstGasAmount",
          "type": "uint256"
        }
      ],
      "name": "SetMinDstGasLookup",
      "type": "event"
    },
    {
      "anonymous": false,
      "inputs": [
        {
          "indexed": false,
          "internalType": "address",
          "name": "precrime",
          "type": "address"
        }
      ],
      "name": "SetPrecrime",
      "type": "event"
    },
    {
      "anonymous": false,
      "inputs": [
        {
          "indexed": false,
          "internalType": "uint16",
          "name": "_srcChainId",
          "type": "uint16"
        },
        {
          "indexed": false,
          "internalType": "bytes",
          "name": "_srcAddress",
          "type": "bytes"
        }
      ],
      "name": "SetTrustedRemote",
      "type": "event"
    },
    {
      "anonymous": false,
      "inputs": [
        {
          "indexed": false,
          "internalType": "uint16",
          "name": "_remoteChainId",
          "type": "uint16"
        },
        {
          "indexed": false,
          "internalType": "bytes",
          "name": "_remoteAddress",
          "type": "bytes"
        }
      ],
      "name": "SetTrustedRemoteAddress",
      "type": "event"
    },
    {
      "anonymous": false,
      "inputs": [
        {
          "indexed": false,
          "internalType": "bool",
          "name": "_useCustomAdapterParams",
          "type": "bool"
        }
      ],
      "name": "SetUseCustomAdapterParams",
      "type": "event"
    },
    {
      "anonymous": false,
      "inputs": [
        {
          "indexed": true,
          "internalType": "address",
          "name": "from",
          "type": "address"
        },
        {
          "indexed": true,
          "internalType": "address",
          "name": "to",
          "type": "address"
        },
        {
          "indexed": false,
          "internalType": "uint256",
          "name": "value",
          "type": "uint256"
        }
      ],
      "name": "Transfer",
      "type": "event"
    },
    {
      "anonymous": false,
      "inputs": [
        {
          "indexed": false,
          "internalType": "address",
          "name": "account",
          "type": "address"
        }
      ],
      "name": "Unpaused",
      "type": "event"
    },
    {
      "inputs": [],
      "name": "DEFAULT_ADMIN_ROLE",
      "outputs": [
        {
          "internalType": "bytes32",
          "name": "",
          "type": "bytes32"
        }
      ],
      "stateMutability": "view",
      "type": "function"
    },
    {
      "inputs": [],
      "name": "DEFAULT_PAYLOAD_SIZE_LIMIT",
      "outputs": [
        {
          "internalType": "uint256",
          "name": "",
          "type": "uint256"
        }
      ],
      "stateMutability": "view",
      "type": "function"
    },
    {
      "inputs": [],
      "name": "FUNCTION_TYPE_SEND",
      "outputs": [
        {
          "internalType": "uint256",
          "name": "",
          "type": "uint256"
        }
      ],
      "stateMutability": "view",
      "type": "function"
    },
    {
      "inputs": [],
      "name": "MINTER_ROLE",
      "outputs": [
        {
          "internalType": "bytes32",
          "name": "",
          "type": "bytes32"
        }
      ],
      "stateMutability": "view",
      "type": "function"
    },
    {
      "inputs": [],
      "name": "NO_EXTRA_GAS",
      "outputs": [
        {
          "internalType": "uint256",
          "name": "",
          "type": "uint256"
        }
      ],
      "stateMutability": "view",
      "type": "function"
    },
    {
      "inputs": [],
      "name": "PAUSER_ROLE",
      "outputs": [
        {
          "internalType": "bytes32",
          "name": "",
          "type": "bytes32"
        }
      ],
      "stateMutability": "view",
      "type": "function"
    },
    {
      "inputs": [],
      "name": "PERMIT_TYPEHASH",
      "outputs": [
        {
          "internalType": "bytes32",
          "name": "",
          "type": "bytes32"
        }
      ],
      "stateMutability": "view",
      "type": "function"
    },
    {
      "inputs": [
        {
          "internalType": "address",
          "name": "owner",
          "type": "address"
        },
        {
          "internalType": "address",
          "name": "spender",
          "type": "address"
        }
      ],
      "name": "allowance",
      "outputs": [
        {
          "internalType": "uint256",
          "name": "",
          "type": "uint256"
        }
      ],
      "stateMutability": "view",
      "type": "function"
    },
    {
      "inputs": [
        {
          "internalType": "address",
          "name": "spender",
          "type": "address"
        },
        {
          "internalType": "uint256",
          "name": "amount",
          "type": "uint256"
        }
      ],
      "name": "approve",
      "outputs": [
        {
          "internalType": "bool",
          "name": "",
          "type": "bool"
        }
      ],
      "stateMutability": "nonpayable",
      "type": "function"
    },
    {
      "inputs": [
        {
          "internalType": "address",
          "name": "account",
          "type": "address"
        }
      ],
      "name": "balanceOf",
      "outputs": [
        {
          "internalType": "uint256",
          "name": "",
          "type": "uint256"
        }
      ],
      "stateMutability": "view",
      "type": "function"
    },
    {
      "inputs": [
        {
          "internalType": "uint256",
          "name": "amount",
          "type": "uint256"
        }
      ],
      "name": "burn",
      "outputs": [],
      "stateMutability": "nonpayable",
      "type": "function"
    },
    {
      "inputs": [
        {
          "internalType": "address",
          "name": "account",
          "type": "address"
        },
        {
          "internalType": "uint256",
          "name": "amount",
          "type": "uint256"
        }
      ],
      "name": "burnFrom",
      "outputs": [],
      "stateMutability": "nonpayable",
      "type": "function"
    },
    {
      "inputs": [],
      "name": "cap",
      "outputs": [
        {
          "internalType": "uint256",
          "name": "",
          "type": "uint256"
        }
      ],
      "stateMutability": "view",
      "type": "function"
    },
    {
      "inputs": [],
      "name": "circulatingSupply",
      "outputs": [
        {
          "internalType": "uint256",
          "name": "",
          "type": "uint256"
        }
      ],
      "stateMutability": "view",
      "type": "function"
    },
    {
      "inputs": [],
      "name": "decimals",
      "outputs": [
        {
          "internalType": "uint8",
          "name": "",
          "type": "uint8"
        }
      ],
      "stateMutability": "view",
      "type": "function"
    },
    {
      "inputs": [
        {
          "internalType": "address",
          "name": "spender",
          "type": "address"
        },
        {
          "internalType": "uint256",
          "name": "subtractedValue",
          "type": "uint256"
        }
      ],
      "name": "decreaseAllowance",
      "outputs": [
        {
          "internalType": "bool",
          "name": "",
          "type": "bool"
        }
      ],
      "stateMutability": "nonpayable",
      "type": "function"
    },
    {
      "inputs": [],
      "name": "eip712Domain",
      "outputs": [
        {
          "internalType": "bytes1",
          "name": "fields",
          "type": "bytes1"
        },
        {
          "internalType": "string",
          "name": "name",
          "type": "string"
        },
        {
          "internalType": "string",
          "name": "version",
          "type": "string"
        },
        {
          "internalType": "uint256",
          "name": "chainId",
          "type": "uint256"
        },
        {
          "internalType": "address",
          "name": "verifyingContract",
          "type": "address"
        },
        {
          "internalType": "bytes32",
          "name": "salt",
          "type": "bytes32"
        },
        {
          "internalType": "uint256[]",
          "name": "extensions",
          "type": "uint256[]"
        }
      ],
      "stateMutability": "view",
      "type": "function"
    },
    {
      "inputs": [
        {
          "internalType": "uint16",
          "name": "_dstChainId",
          "type": "uint16"
        },
        {
          "internalType": "bytes",
          "name": "_toAddress",
          "type": "bytes"
        },
        {
          "internalType": "uint256",
          "name": "_amount",
          "type": "uint256"
        },
        {
          "internalType": "bool",
          "name": "_useZro",
          "type": "bool"
        },
        {
          "internalType": "bytes",
          "name": "_adapterParams",
          "type": "bytes"
        }
      ],
      "name": "estimateSendFee",
      "outputs": [
        {
          "internalType": "uint256",
          "name": "nativeFee",
          "type": "uint256"
        },
        {
          "internalType": "uint256",
          "name": "zroFee",
          "type": "uint256"
        }
      ],
      "stateMutability": "view",
      "type": "function"
    },
    {
      "inputs": [
        {
          "internalType": "uint16",
          "name": "",
          "type": "uint16"
        },
        {
          "internalType": "bytes",
          "name": "",
          "type": "bytes"
        },
        {
          "internalType": "uint64",
          "name": "",
          "type": "uint64"
        }
      ],
      "name": "failedMessages",
      "outputs": [
        {
          "internalType": "bytes32",
          "name": "",
          "type": "bytes32"
        }
      ],
      "stateMutability": "view",
      "type": "function"
    },
    {
      "inputs": [
        {
          "internalType": "uint16",
          "name": "_srcChainId",
          "type": "uint16"
        },
        {
          "internalType": "bytes",
          "name": "_srcAddress",
          "type": "bytes"
        }
      ],
      "name": "forceResumeReceive",
      "outputs": [],
      "stateMutability": "nonpayable",
      "type": "function"
    },
    {
      "inputs": [
        {
          "internalType": "uint16",
          "name": "_version",
          "type": "uint16"
        },
        {
          "internalType": "uint16",
          "name": "_chainId",
          "type": "uint16"
        },
        {
          "internalType": "address",
          "name": "",
          "type": "address"
        },
        {
          "internalType": "uint256",
          "name": "_configType",
          "type": "uint256"
        }
      ],
      "name": "getConfig",
      "outputs": [
        {
          "internalType": "bytes",
          "name": "",
          "type": "bytes"
        }
      ],
      "stateMutability": "view",
      "type": "function"
    },
    {
      "inputs": [
        {
          "internalType": "bytes32",
          "name": "role",
          "type": "bytes32"
        }
      ],
      "name": "getRoleAdmin",
      "outputs": [
        {
          "internalType": "bytes32",
          "name": "",
          "type": "bytes32"
        }
      ],
      "stateMutability": "view",
      "type": "function"
    },
    {
      "inputs": [
        {
          "internalType": "bytes32",
          "name": "role",
          "type": "bytes32"
        },
        {
          "internalType": "uint256",
          "name": "index",
          "type": "uint256"
        }
      ],
      "name": "getRoleMember",
      "outputs": [
        {
          "internalType": "address",
          "name": "",
          "type": "address"
        }
      ],
      "stateMutability": "view",
      "type": "function"
    },
    {
      "inputs": [
        {
          "internalType": "bytes32",
          "name": "role",
          "type": "bytes32"
        }
      ],
      "name": "getRoleMemberCount",
      "outputs": [
        {
          "internalType": "uint256",
          "name": "",
          "type": "uint256"
        }
      ],
      "stateMutability": "view",
      "type": "function"
    },
    {
      "inputs": [
        {
          "internalType": "uint16",
          "name": "_remoteChainId",
          "type": "uint16"
        }
      ],
      "name": "getTrustedRemoteAddress",
      "outputs": [
        {
          "internalType": "bytes",
          "name": "",
          "type": "bytes"
        }
      ],
      "stateMutability": "view",
      "type": "function"
    },
    {
      "inputs": [
        {
          "internalType": "bytes32",
          "name": "role",
          "type": "bytes32"
        },
        {
          "internalType": "address",
          "name": "account",
          "type": "address"
        }
      ],
      "name": "grantRole",
      "outputs": [],
      "stateMutability": "nonpayable",
      "type": "function"
    },
    {
      "inputs": [
        {
          "internalType": "bytes32",
          "name": "role",
          "type": "bytes32"
        },
        {
          "internalType": "address",
          "name": "account",
          "type": "address"
        }
      ],
      "name": "hasRole",
      "outputs": [
        {
          "internalType": "bool",
          "name": "",
          "type": "bool"
        }
      ],
      "stateMutability": "view",
      "type": "function"
    },
    {
      "inputs": [
        {
          "internalType": "address",
          "name": "spender",
          "type": "address"
        },
        {
          "internalType": "uint256",
          "name": "addedValue",
          "type": "uint256"
        }
      ],
      "name": "increaseAllowance",
      "outputs": [
        {
          "internalType": "bool",
          "name": "",
          "type": "bool"
        }
      ],
      "stateMutability": "nonpayable",
      "type": "function"
    },
    {
      "inputs": [
        {
          "internalType": "string",
          "name": "_name",
          "type": "string"
        },
        {
          "internalType": "string",
          "name": "_symbol",
          "type": "string"
        },
        {
          "internalType": "uint256",
          "name": "_initialSupply",
          "type": "uint256"
        },
        {
          "internalType": "address",
          "name": "_lzEndpoint",
          "type": "address"
        },
        {
          "internalType": "address",
          "name": "admin",
          "type": "address"
        }
      ],
      "name": "initialize",
      "outputs": [],
      "stateMutability": "nonpayable",
      "type": "function"
    },
    {
      "inputs": [
        {
          "internalType": "uint16",
          "name": "_srcChainId",
          "type": "uint16"
        },
        {
          "internalType": "bytes",
          "name": "_srcAddress",
          "type": "bytes"
        }
      ],
      "name": "isTrustedRemote",
      "outputs": [
        {
          "internalType": "bool",
          "name": "",
          "type": "bool"
        }
      ],
      "stateMutability": "view",
      "type": "function"
    },
    {
      "inputs": [],
      "name": "lzEndpoint",
      "outputs": [
        {
          "internalType": "contract ILayerZeroEndpointUpgradeable",
          "name": "",
          "type": "address"
        }
      ],
      "stateMutability": "view",
      "type": "function"
    },
    {
      "inputs": [
        {
          "internalType": "uint16",
          "name": "_srcChainId",
          "type": "uint16"
        },
        {
          "internalType": "bytes",
          "name": "_srcAddress",
          "type": "bytes"
        },
        {
          "internalType": "uint64",
          "name": "_nonce",
          "type": "uint64"
        },
        {
          "internalType": "bytes",
          "name": "_payload",
          "type": "bytes"
        }
      ],
      "name": "lzReceive",
      "outputs": [],
      "stateMutability": "nonpayable",
      "type": "function"
    },
    {
      "inputs": [
        {
          "internalType": "uint16",
          "name": "",
          "type": "uint16"
        },
        {
          "internalType": "uint256",
          "name": "",
          "type": "uint256"
        }
      ],
      "name": "minDstGasLookup",
      "outputs": [
        {
          "internalType": "uint256",
          "name": "",
          "type": "uint256"
        }
      ],
      "stateMutability": "view",
      "type": "function"
    },
    {
      "inputs": [
        {
          "internalType": "address",
          "name": "to",
          "type": "address"
        },
        {
          "internalType": "uint256",
          "name": "amount",
          "type": "uint256"
        }
      ],
      "name": "mint",
      "outputs": [],
      "stateMutability": "nonpayable",
      "type": "function"
    },
    {
      "inputs": [],
      "name": "name",
      "outputs": [
        {
          "internalType": "string",
          "name": "",
          "type": "string"
        }
      ],
      "stateMutability": "view",
      "type": "function"
    },
    {
      "inputs": [
        {
          "internalType": "uint16",
          "name": "_srcChainId",
          "type": "uint16"
        },
        {
          "internalType": "bytes",
          "name": "_srcAddress",
          "type": "bytes"
        },
        {
          "internalType": "uint64",
          "name": "_nonce",
          "type": "uint64"
        },
        {
          "internalType": "bytes",
          "name": "_payload",
          "type": "bytes"
        }
      ],
      "name": "nonblockingLzReceive",
      "outputs": [],
      "stateMutability": "nonpayable",
      "type": "function"
    },
    {
      "inputs": [
        {
          "internalType": "address",
          "name": "",
          "type": "address"
        }
      ],
      "name": "nonces",
      "outputs": [
        {
          "internalType": "uint256",
          "name": "",
          "type": "uint256"
        }
      ],
      "stateMutability": "view",
      "type": "function"
    },
    {
      "inputs": [],
      "name": "pause",
      "outputs": [],
      "stateMutability": "nonpayable",
      "type": "function"
    },
    {
      "inputs": [],
      "name": "paused",
      "outputs": [
        {
          "internalType": "bool",
          "name": "",
          "type": "bool"
        }
      ],
      "stateMutability": "view",
      "type": "function"
    },
    {
      "inputs": [
        {
          "internalType": "address",
          "name": "signer",
          "type": "address"
        },
        {
          "internalType": "address",
          "name": "spender",
          "type": "address"
        },
        {
          "internalType": "uint256",
          "name": "value",
          "type": "uint256"
        },
        {
          "internalType": "uint256",
          "name": "deadline",
          "type": "uint256"
        },
        {
          "internalType": "bytes",
          "name": "signature",
          "type": "bytes"
        }
      ],
      "name": "permit",
      "outputs": [
        {
          "internalType": "bool",
          "name": "",
          "type": "bool"
        }
      ],
      "stateMutability": "nonpayable",
      "type": "function"
    },
    {
      "inputs": [],
      "name": "precrime",
      "outputs": [
        {
          "internalType": "address",
          "name": "",
          "type": "address"
        }
      ],
      "stateMutability": "view",
      "type": "function"
    },
    {
      "inputs": [
        {
          "internalType": "bytes32",
          "name": "role",
          "type": "bytes32"
        },
        {
          "internalType": "address",
          "name": "account",
          "type": "address"
        }
      ],
      "name": "renounceRole",
      "outputs": [],
      "stateMutability": "nonpayable",
      "type": "function"
    },
    {
      "inputs": [
        {
          "internalType": "uint16",
          "name": "_srcChainId",
          "type": "uint16"
        },
        {
          "internalType": "bytes",
          "name": "_srcAddress",
          "type": "bytes"
        },
        {
          "internalType": "uint64",
          "name": "_nonce",
          "type": "uint64"
        },
        {
          "internalType": "bytes",
          "name": "_payload",
          "type": "bytes"
        }
      ],
      "name": "retryMessage",
      "outputs": [],
      "stateMutability": "payable",
      "type": "function"
    },
    {
      "inputs": [
        {
          "internalType": "bytes32",
          "name": "role",
          "type": "bytes32"
        },
        {
          "internalType": "address",
          "name": "account",
          "type": "address"
        }
      ],
      "name": "revokeRole",
      "outputs": [],
      "stateMutability": "nonpayable",
      "type": "function"
    },
    {
      "inputs": [
        {
          "internalType": "address",
          "name": "_from",
          "type": "address"
        },
        {
          "internalType": "uint16",
          "name": "_dstChainId",
          "type": "uint16"
        },
        {
          "internalType": "bytes",
          "name": "_toAddress",
          "type": "bytes"
        },
        {
          "internalType": "uint256",
          "name": "_amount",
          "type": "uint256"
        },
        {
          "internalType": "address payable",
          "name": "_refundAddress",
          "type": "address"
        },
        {
          "internalType": "address",
          "name": "_zroPaymentAddress",
          "type": "address"
        },
        {
          "internalType": "bytes",
          "name": "_adapterParams",
          "type": "bytes"
        }
      ],
      "name": "sendFrom",
      "outputs": [],
      "stateMutability": "payable",
      "type": "function"
    },
    {
      "inputs": [
        {
          "internalType": "address",
          "name": "account",
          "type": "address"
        }
      ],
      "name": "setBlackList",
      "outputs": [],
      "stateMutability": "nonpayable",
      "type": "function"
    },
    {
      "inputs": [
        {
          "internalType": "uint256",
          "name": "cap_",
          "type": "uint256"
        }
      ],
      "name": "setCap",
      "outputs": [],
      "stateMutability": "nonpayable",
      "type": "function"
    },
    {
      "inputs": [
        {
          "internalType": "uint16",
          "name": "_version",
          "type": "uint16"
        },
        {
          "internalType": "uint16",
          "name": "_chainId",
          "type": "uint16"
        },
        {
          "internalType": "uint256",
          "name": "_configType",
          "type": "uint256"
        },
        {
          "internalType": "bytes",
          "name": "_config",
          "type": "bytes"
        }
      ],
      "name": "setConfig",
      "outputs": [],
      "stateMutability": "nonpayable",
      "type": "function"
    },
    {
      "inputs": [
        {
          "internalType": "uint16",
          "name": "_dstChainId",
          "type": "uint16"
        },
        {
          "internalType": "uint16",
          "name": "_packetType",
          "type": "uint16"
        },
        {
          "internalType": "uint256",
          "name": "_minGas",
          "type": "uint256"
        }
      ],
      "name": "setMinDstGas",
      "outputs": [],
      "stateMutability": "nonpayable",
      "type": "function"
    },
    {
      "inputs": [
        {
          "internalType": "address",
          "name": "_precrime",
          "type": "address"
        }
      ],
      "name": "setPrecrime",
      "outputs": [],
      "stateMutability": "nonpayable",
      "type": "function"
    },
    {
      "inputs": [
        {
          "internalType": "uint16",
          "name": "_version",
          "type": "uint16"
        }
      ],
      "name": "setReceiveVersion",
      "outputs": [],
      "stateMutability": "nonpayable",
      "type": "function"
    },
    {
      "inputs": [
        {
          "internalType": "uint16",
          "name": "_version",
          "type": "uint16"
        }
      ],
      "name": "setSendVersion",
      "outputs": [],
      "stateMutability": "nonpayable",
      "type": "function"
    },
    {
      "inputs": [
        {
          "internalType": "uint16",
          "name": "_srcChainId",
          "type": "uint16"
        },
        {
          "internalType": "bytes",
          "name": "_path",
          "type": "bytes"
        }
      ],
      "name": "setTrustedRemote",
      "outputs": [],
      "stateMutability": "nonpayable",
      "type": "function"
    },
    {
      "inputs": [
        {
          "internalType": "uint16",
          "name": "_remoteChainId",
          "type": "uint16"
        },
        {
          "internalType": "bytes",
          "name": "_remoteAddress",
          "type": "bytes"
        }
      ],
      "name": "setTrustedRemoteAddress",
      "outputs": [],
      "stateMutability": "nonpayable",
      "type": "function"
    },
    {
      "inputs": [
        {
          "internalType": "bool",
          "name": "_useCustomAdapterParams",
          "type": "bool"
        }
      ],
      "name": "setUseCustomAdapterParams",
      "outputs": [],
      "stateMutability": "nonpayable",
      "type": "function"
    },
    {
      "inputs": [
        {
          "internalType": "bytes4",
          "name": "interfaceId",
          "type": "bytes4"
        }
      ],
      "name": "supportsInterface",
      "outputs": [
        {
          "internalType": "bool",
          "name": "",
          "type": "bool"
        }
      ],
      "stateMutability": "view",
      "type": "function"
    },
    {
      "inputs": [],
      "name": "symbol",
      "outputs": [
        {
          "internalType": "string",
          "name": "",
          "type": "string"
        }
      ],
      "stateMutability": "view",
      "type": "function"
    },
    {
      "inputs": [],
      "name": "token",
      "outputs": [
        {
          "internalType": "address",
          "name": "",
          "type": "address"
        }
      ],
      "stateMutability": "view",
      "type": "function"
    },
    {
      "inputs": [],
      "name": "totalSupply",
      "outputs": [
        {
          "internalType": "uint256",
          "name": "",
          "type": "uint256"
        }
      ],
      "stateMutability": "view",
      "type": "function"
    },
    {
      "inputs": [
        {
          "internalType": "address",
          "name": "to",
          "type": "address"
        },
        {
          "internalType": "uint256",
          "name": "amount",
          "type": "uint256"
        }
      ],
      "name": "transfer",
      "outputs": [
        {
          "internalType": "bool",
          "name": "",
          "type": "bool"
        }
      ],
      "stateMutability": "nonpayable",
      "type": "function"
    },
    {
      "inputs": [
        {
          "internalType": "address",
          "name": "from",
          "type": "address"
        },
        {
          "internalType": "address",
          "name": "to",
          "type": "address"
        },
        {
          "internalType": "uint256",
          "name": "amount",
          "type": "uint256"
        }
      ],
      "name": "transferFrom",
      "outputs": [
        {
          "internalType": "bool",
          "name": "",
          "type": "bool"
        }
      ],
      "stateMutability": "nonpayable",
      "type": "function"
    },
    {
      "inputs": [
        {
          "internalType": "uint16",
          "name": "",
          "type": "uint16"
        }
      ],
      "name": "trustedRemoteLookup",
      "outputs": [
        {
          "internalType": "bytes",
          "name": "",
          "type": "bytes"
        }
      ],
      "stateMutability": "view",
      "type": "function"
    },
    {
      "inputs": [],
      "name": "unpause",
      "outputs": [],
      "stateMutability": "nonpayable",
      "type": "function"
    },
    {
      "inputs": [],
      "name": "useCustomAdapterParams",
      "outputs": [
        {
          "internalType": "bool",
          "name": "",
          "type": "bool"
        }
      ],
      "stateMutability": "view",
      "type": "function"
    }
  ],
  "bytecode": "0x608060405234801561001057600080fd5b50614d3a806100206000396000f3fe6080604052600436106103c25760003560e01c80637e77c503116101f2578063b353aaa71161010d578063dd62ed3e116100a0578063eb8d72b71161006f578063eb8d72b714610ba5578063ed629c5c14610bc5578063f5ecbdbc14610be0578063fc0c546a14610c0057600080fd5b8063dd62ed3e14610b23578063df2a5b3b14610b43578063e63ab1e914610b63578063eab45d9c14610b8557600080fd5b8063cbed8b9c116100dc578063cbed8b9c14610a9c578063d1deba1f14610abc578063d539139314610acf578063d547741f14610b0357600080fd5b8063b353aaa714610a26578063baf3292d14610a46578063c446183414610a66578063ca15c87314610a7c57600080fd5b806395d89b4111610185578063a457c2d711610154578063a457c2d7146109b1578063a6c3d165146109d1578063a9059cbb146109f1578063af3fb21c14610a1157600080fd5b806395d89b411461095c5780639f38369a146109715780639fd5a6cf14610991578063a217fddf146106dc57600080fd5b80639010d07c116101c15780639010d07c146108cf57806391d14854146109075780639358928b14610927578063950c8a741461093c57600080fd5b80637e77c503146108445780637ecebe00146108645780638456cb591461089257806384b0196e146108a757600080fd5b806339509351116102e2578063519056361161027557806370a082311161024457806370a08231146107ad57806372700241146107e45780637533d7881461080457806379cc67901461082457600080fd5b806351905636146107115780635b8c41e6146107245780635c975abb1461077457806366ad5c8a1461078d57600080fd5b806342966c68116102b157806342966c681461069c57806342d65a8d146106bc57806344770515146106dc57806347786d37146106f157600080fd5b806339509351146106275780633d8b38f6146106475780633f4ba83a1461066757806340c10f191461067c57600080fd5b806323b872dd1161035a57806330adf81f1161032957806330adf81f146105a1578063313ce567146105d5578063355274ea146105f157806336568abe1461060757600080fd5b806323b872dd146104fc578063248a9ca31461051c5780632a205e3d1461054c5780632f2ff15d1461058157600080fd5b806307e0db171161039657806307e0db1714610486578063095ea7b3146104a657806310ddb137146104c657806318160ddd146104e657600080fd5b80621d3567146103c757806301ffc9a7146103e957806306fdde031461041e5780630781086714610440575b600080fd5b3480156103d357600080fd5b506103e76103e2366004613d51565b610c13565b005b3480156103f557600080fd5b50610409610404366004613de6565b610e2f565b60405190151581526020015b60405180910390f35b34801561042a57600080fd5b50610433610e6d565b6040516104159190613e60565b34801561044c57600080fd5b5061047861045b366004613e73565b60fc60209081526000928352604080842090915290825290205481565b604051908152602001610415565b34801561049257600080fd5b506103e76104a1366004613e9f565b610f00565b3480156104b257600080fd5b506104096104c1366004613ed1565b610f6f565b3480156104d257600080fd5b506103e76104e1366004613e9f565b610f87565b3480156104f257600080fd5b5061019654610478565b34801561050857600080fd5b50610409610517366004613eef565b610fc5565b34801561052857600080fd5b50610478610537366004613f30565b60009081526065602052604090206001015490565b34801561055857600080fd5b5061056c610567366004613f59565b610fe9565b60408051928352602083019190915201610415565b34801561058d57600080fd5b506103e761059c366004613ff8565b61109f565b3480156105ad57600080fd5b506104787f6e71edae12b1b97f4d1f60370fef10105fa2faae0126114a169c64845d6126c981565b3480156105e157600080fd5b5060405160128152602001610415565b3480156105fd57600080fd5b5061025e54610478565b34801561061357600080fd5b506103e7610622366004613ff8565b6110c9565b34801561063357600080fd5b50610409610642366004613ed1565b611147565b34801561065357600080fd5b50610409610662366004614028565b611169565b34801561067357600080fd5b506103e7611235565b34801561068857600080fd5b506103e7610697366004613ed1565b6112b7565b3480156106a857600080fd5b506103e76106b7366004613f30565b6113b0565b3480156106c857600080fd5b506103e76106d7366004614028565b6113bd565b3480156106e857600080fd5b50610478600081565b3480156106fd57600080fd5b506103e761070c366004613f30565b611429565b6103e761071f36600461407c565b61149a565b34801561073057600080fd5b5061047861073f366004614208565b61012e602090815260009384526040808520845180860184018051928152908401958401959095209452929052825290205481565b34801561078057600080fd5b5061022c5460ff16610409565b34801561079957600080fd5b506103e76107a8366004614267565b61151f565b3480156107b957600080fd5b506104786107c83660046142ed565b6001600160a01b03166000908152610194602052604090205490565b3480156107f057600080fd5b506103e76107ff3660046142ed565b61158f565b34801561081057600080fd5b5061043361081f366004613e9f565b611626565b34801561083057600080fd5b506103e761083f366004613ed1565b6116c0565b34801561085057600080fd5b506103e761085f36600461430a565b6116d5565b34801561087057600080fd5b5061047861087f3660046142ed565b6102606020526000908152604090205481565b34801561089e57600080fd5b506103e76117f0565b3480156108b357600080fd5b506108bc611870565b604051610415979695949392919061439e565b3480156108db57600080fd5b506108ef6108ea366004614434565b611910565b6040516001600160a01b039091168152602001610415565b34801561091357600080fd5b50610409610922366004613ff8565b61192f565b34801561093357600080fd5b5061047861195a565b34801561094857600080fd5b5060fd546108ef906001600160a01b031681565b34801561096857600080fd5b5061043361196b565b34801561097d57600080fd5b5061043361098c366004613e9f565b61197b565b34801561099d57600080fd5b506104096109ac366004614456565b611a8a565b3480156109bd57600080fd5b506104096109cc366004613ed1565b611bf9565b3480156109dd57600080fd5b506103e76109ec366004614028565b611c74565b3480156109fd57600080fd5b50610409610a0c366004613ed1565b611cff565b348015610a1d57600080fd5b50610478600181565b348015610a3257600080fd5b5060fa546108ef906001600160a01b031681565b348015610a5257600080fd5b506103e7610a613660046142ed565b611d0d565b348015610a7257600080fd5b5061047861271081565b348015610a8857600080fd5b50610478610a97366004613f30565b611d6c565b348015610aa857600080fd5b506103e7610ab73660046144cb565b611d83565b6103e7610aca366004614267565b611df3565b348015610adb57600080fd5b506104787f9f2df0fed2c77648de5860a4cc508cd0818c85b8b8a1ab4ceeef8d981c8956a681565b348015610b0f57600080fd5b506103e7610b1e366004613ff8565b611f47565b348015610b2f57600080fd5b50610478610b3e36600461453d565b611f6c565b348015610b4f57600080fd5b506103e7610b5e36600461456b565b611f98565b348015610b6f57600080fd5b50610478600080516020614ce583398151915281565b348015610b9157600080fd5b506103e7610ba036600461459b565b61204c565b348015610bb157600080fd5b506103e7610bc0366004614028565b612098565b348015610bd157600080fd5b50610161546104099060ff1681565b348015610bec57600080fd5b50610433610bfb3660046145b6565b6120f4565b348015610c0c57600080fd5b50306108ef565b60fa546001600160a01b0316336001600160a01b031614610c7b5760405162461bcd60e51b815260206004820152601e60248201527f4c7a4170703a20696e76616c696420656e64706f696e742063616c6c6572000060448201526064015b60405180910390fd5b61ffff8616600090815260fb602052604081208054610c9990614607565b80601f0160208091040260200160405190810160405280929190818152602001828054610cc590614607565b8015610d125780601f10610ce757610100808354040283529160200191610d12565b820191906000526020600020905b815481529060010190602001808311610cf557829003601f168201915b50505050509050805186869050148015610d2d575060008151115b8015610d55575080516020820120604051610d4b9088908890614641565b6040518091039020145b610db05760405162461bcd60e51b815260206004820152602660248201527f4c7a4170703a20696e76616c696420736f757263652073656e64696e6720636f6044820152651b9d1c9858dd60d21b6064820152608401610c72565b610e268787878080601f01602080910402602001604051908101604052809392919081815260200183838082843760009201919091525050604080516020601f8a018190048102820181019092528881528a93509150889088908190840183828082843760009201919091525061218792505050565b50505050505050565b60006001600160e01b031982161580610e5857506001600160e01b031982166336372b0760e01b145b80610e675750610e6782612279565b92915050565b60606101978054610e7d90614607565b80601f0160208091040260200160405190810160405280929190818152602001828054610ea990614607565b8015610ef65780601f10610ecb57610100808354040283529160200191610ef6565b820191906000526020600020905b815481529060010190602001808311610ed957829003601f168201915b5050505050905090565b610f0a600061229e565b60fa546040516307e0db1760e01b815261ffff831660048201526001600160a01b03909116906307e0db17906024015b600060405180830381600087803b158015610f5457600080fd5b505af1158015610f68573d6000803e3d6000fd5b5050505050565b600033610f7d8185856122a8565b5060019392505050565b610f91600061229e565b60fa546040516310ddb13760e01b815261ffff831660048201526001600160a01b03909116906310ddb13790602401610f3a565b600033610fd38582856123cd565b610fde858585612441565b506001949350505050565b600080600080898989604051602001611005949392919061467a565b60408051601f198184030181529082905260fa5463040a7bb160e41b83529092506001600160a01b0316906340a7bb109061104e908d90309086908c908c908c906004016146a8565b6040805180830381865afa15801561106a573d6000803e3d6000fd5b505050506040513d601f19601f8201168201806040525081019061108e91906146fe565b925092505097509795505050505050565b6000828152606560205260409020600101546110ba8161229e565b6110c483836125f9565b505050565b6001600160a01b03811633146111395760405162461bcd60e51b815260206004820152602f60248201527f416363657373436f6e74726f6c3a2063616e206f6e6c792072656e6f756e636560448201526e103937b632b9903337b91039b2b63360891b6064820152608401610c72565b611143828261261b565b5050565b600033610f7d81858561115a8383611f6c565b6111649190614738565b6122a8565b61ffff8316600090815260fb60205260408120805482919061118a90614607565b80601f01602080910402602001604051908101604052809291908181526020018280546111b690614607565b80156112035780601f106111d857610100808354040283529160200191611203565b820191906000526020600020905b8154815290600101906020018083116111e657829003601f168201915b50505050509050838360405161121a929190614641565b60405180910390208180519060200120149150509392505050565b61124d600080516020614ce58339815191523361192f565b6112ad5760405162461bcd60e51b81526020600482015260396024820152600080516020614cc583398151915260448201527f76652070617573657220726f6c6520746f20756e7061757365000000000000006064820152608401610c72565b6112b561263d565b565b6112e17f9f2df0fed2c77648de5860a4cc508cd0818c85b8b8a1ab4ceeef8d981c8956a63361192f565b61133a5760405162461bcd60e51b81526020600482015260366024820152600080516020614cc58339815191526044820152751d99481b5a5b9d195c881c9bdb19481d1bc81b5a5b9d60521b6064820152608401610c72565b61025e54156113a65761025e54816113526101965490565b61135c9190614738565b11156113a65760405162461bcd60e51b8152602060048201526019602482015278115490cc8c10d85c1c19590e8818d85c08195e18d959591959603a1b6044820152606401610c72565b6111438282612690565b6113ba338261275f565b50565b6113c7600061229e565b60fa546040516342d65a8d60e01b81526001600160a01b03909116906342d65a8d906113fb9086908690869060040161474b565b600060405180830381600087803b15801561141557600080fd5b505af1158015610e26573d6000803e3d6000fd5b61143460003361192f565b6114945760405162461bcd60e51b81526020600482015260396024820152600080516020614cc583398151915260448201527f7665206164666d696e20726f6c6520746f2073657420636170000000000000006064820152608401610c72565b61025e55565b611514898989898080601f01602080910402602001604051908101604052809392919081815260200183838082843760009201919091525050604080516020601f8a018190048102820181019092528881528c93508b92508a918a908a90819084018382808284376000920191909152506128a292505050565b505050505050505050565b33301461157d5760405162461bcd60e51b815260206004820152602660248201527f4e6f6e626c6f636b696e674c7a4170703a2063616c6c6572206d7573742062656044820152650204c7a4170760d41b6064820152608401610c72565b61158984848484612949565b50505050565b61159a60003361192f565b6115fc576040805162461bcd60e51b8152602060048201526024810191909152600080516020614cc583398151915260448201527f7665206164666d696e20726f6c6520746f2073657420626c61636b206c6973746064820152608401610c72565b6001600160a01b0316600090815261025f60205260409020805460ff19811660ff90911615179055565b60fb602052600090815260409020805461163f90614607565b80601f016020809104026020016040519081016040528092919081815260200182805461166b90614607565b80156116b85780601f1061168d576101008083540402835291602001916116b8565b820191906000526020600020905b81548152906001019060200180831161169b57829003601f168201915b505050505081565b6116cb8233836123cd565b611143828261275f565b600054610100900460ff16158080156116f55750600054600160ff909116105b8061170f5750303b15801561170f575060005460ff166001145b6117725760405162461bcd60e51b815260206004820152602e60248201527f496e697469616c697a61626c653a20636f6e747261637420697320616c72656160448201526d191e481a5b9a5d1a585b1a5e995960921b6064820152608401610c72565b6000805460ff191660011790558015611795576000805461ff0019166101001790555b6117a286868686866129b3565b80156117e8576000805461ff0019169055604051600181527f7f26b83ff96e1f2b6a682f133852f6798a09c465da95921460cefb38474024989060200160405180910390a15b505050505050565b611808600080516020614ce58339815191523361192f565b6118685760405162461bcd60e51b81526020600482015260376024820152600080516020614cc583398151915260448201527f76652070617573657220726f6c6520746f2070617573650000000000000000006064820152608401610c72565b6112b5612a18565b6000606080600080600060606101f8546000801b14801561189257506101f954155b6118d65760405162461bcd60e51b81526020600482015260156024820152741152540dcc4c8e88155b9a5b9a5d1a585b1a5e9959605a1b6044820152606401610c72565b6118de612a56565b6118e6612a66565b60408051600080825260208201909252600f60f81b9b939a50919850469750309650945092509050565b60008281526097602052604081206119289083612a76565b9392505050565b60009182526065602090815260408084206001600160a01b0393909316845291905290205460ff1690565b60006119666101965490565b905090565b60606101988054610e7d90614607565b61ffff8116600090815260fb602052604081208054606092919061199e90614607565b80601f01602080910402602001604051908101604052809291908181526020018280546119ca90614607565b8015611a175780601f106119ec57610100808354040283529160200191611a17565b820191906000526020600020905b8154815290600101906020018083116119fa57829003601f168201915b505050505090508051600003611a6f5760405162461bcd60e51b815260206004820152601d60248201527f4c7a4170703a206e6f20747275737465642070617468207265636f72640000006044820152606401610c72565b611928600060148351611a829190614769565b839190612a82565b600042831015611ac75760405162461bcd60e51b8152602060048201526008602482015267657870697265642160c01b6044820152606401610c72565b6001600160a01b03861660009081526102606020526040812080547f6e71edae12b1b97f4d1f60370fef10105fa2faae0126114a169c64845d6126c9918991899189919086611b158361477c565b909155506040805160208101969096526001600160a01b0394851690860152929091166060840152608083015260a082015260c0810185905260e0016040516020818303038152906040528051906020012090506000611b7482612b8f565b9050876001600160a01b0316611b8a8286612bbc565b6001600160a01b031614611be05760405162461bcd60e51b815260206004820152601960248201527f5065726d69743a20696e76616c6964207369676e6174757265000000000000006044820152606401610c72565b611beb8888886123cd565b506001979650505050505050565b60003381611c078286611f6c565b905083811015611c675760405162461bcd60e51b815260206004820152602560248201527f45524332303a2064656372656173656420616c6c6f77616e63652062656c6f77604482015264207a65726f60d81b6064820152608401610c72565b610fde82868684036122a8565b611c7e600061229e565b818130604051602001611c9393929190614795565b60408051601f1981840301815291815261ffff8516600090815260fb6020522090611cbe9082614801565b507f8c0400cfe2d1199b1a725c78960bcc2a344d869b80590d0f2bd005db15a572ce838383604051611cf29392919061474b565b60405180910390a1505050565b600033610f7d818585612441565b611d17600061229e565b60fd80546001600160a01b0319166001600160a01b0383169081179091556040519081527f5db758e995a17ec1ad84bdef7e8c3293a0bd6179bcce400dff5d4c3d87db726b906020015b60405180910390a150565b6000818152609760205260408120610e6790612be0565b611d8d600061229e565b60fa546040516332fb62e760e21b81526001600160a01b039091169063cbed8b9c90611dc590889088908890889088906004016148c0565b600060405180830381600087803b158015611ddf57600080fd5b505af1158015611514573d6000803e3d6000fd5b61ffff8416600090815261012e60205260408082209051611e159086906148f9565b90815260408051602092819003830190206001600160401b03861660009081529252902054905080611e955760405162461bcd60e51b815260206004820152602360248201527f4e6f6e626c6f636b696e674c7a4170703a206e6f2073746f726564206d65737360448201526261676560e81b6064820152608401610c72565b815160208301208114611ef45760405162461bcd60e51b815260206004820152602160248201527f4e6f6e626c6f636b696e674c7a4170703a20696e76616c6964207061796c6f616044820152601960fa1b6064820152608401610c72565b61ffff8516600090815261012e60205260408082209051611f169087906148f9565b90815260408051602092819003830190206001600160401b03871660009081529252902055610f6885858585612949565b600082815260656020526040902060010154611f628161229e565b6110c4838361261b565b6001600160a01b0391821660009081526101956020908152604080832093909416825291909152205490565b611fa2600061229e565b60008111611fea5760405162461bcd60e51b81526020600482015260156024820152744c7a4170703a20696e76616c6964206d696e47617360581b6044820152606401610c72565b61ffff838116600081815260fc602090815260408083209487168084529482529182902085905581519283528201929092529081018290527f9d5c7c0b934da8fefa9c7760c98383778a12dfbfc0c3b3106518f43fb9508ac090606001611cf2565b612056600061229e565b610161805460ff19168215159081179091556040519081527f1584ad594a70cbe1e6515592e1272a987d922b097ead875069cebe8b40c004a490602001611d61565b6120a2600061229e565b61ffff8316600090815260fb602052604090206120c0828483614915565b507ffa41487ad5d6728f0b19276fa1eddc16558578f5109fc39d2dc33c3230470dab838383604051611cf29392919061474b565b60fa54604051633d7b2f6f60e21b815261ffff808716600483015285166024820152306044820152606481018390526060916001600160a01b03169063f5ecbdbc90608401600060405180830381865afa158015612156573d6000803e3d6000fd5b505050506040513d6000823e601f3d908101601f1916820160405261217e9190810190614a21565b95945050505050565b604051633356ae4560e11b815230906366ad5c8a906121b0908790879087908790600401614a55565b600060405180830381600087803b1580156121ca57600080fd5b505af19250505080156121db575060015b61158957808051906020012061012e60008661ffff1661ffff1681526020019081526020016000208460405161221191906148f9565b9081526040805191829003602090810183206001600160401b0387166000908152915220919091557fe6f254030bcb01ffd20558175c13fcaed6d1520be7becee4c961b65f79243b0d9061226c908690869086908690614a55565b60405180910390a1611589565b60006001600160e01b03198216635a05180f60e01b1480610e675750610e6782612bea565b6113ba8133612c1f565b6001600160a01b03831661230a5760405162461bcd60e51b8152602060048201526024808201527f45524332303a20617070726f76652066726f6d20746865207a65726f206164646044820152637265737360e01b6064820152608401610c72565b6001600160a01b03821661236b5760405162461bcd60e51b815260206004820152602260248201527f45524332303a20617070726f766520746f20746865207a65726f206164647265604482015261737360f01b6064820152608401610c72565b6001600160a01b038381166000818152610195602090815260408083209487168084529482529182902085905590518481527f8c5be1e5ebec7d5bd14f71427d1e84f3dd0314c0f7b2291e5b200ac8c7c3b925910160405180910390a3505050565b60006123d98484611f6c565b9050600019811461158957818110156124345760405162461bcd60e51b815260206004820152601d60248201527f45524332303a20696e73756666696369656e7420616c6c6f77616e63650000006044820152606401610c72565b61158984848484036122a8565b6001600160a01b0383166124a55760405162461bcd60e51b815260206004820152602560248201527f45524332303a207472616e736665722066726f6d20746865207a65726f206164604482015264647265737360d81b6064820152608401610c72565b6001600160a01b0382166125075760405162461bcd60e51b815260206004820152602360248201527f45524332303a207472616e7366657220746f20746865207a65726f206164647260448201526265737360e81b6064820152608401610c72565b612512838383612c78565b6001600160a01b038316600090815261019460205260409020548181101561258b5760405162461bcd60e51b815260206004820152602660248201527f45524332303a207472616e7366657220616d6f756e7420657863656564732062604482015265616c616e636560d01b6064820152608401610c72565b6001600160a01b038085166000818152610194602052604080822086860390559286168082529083902080548601905591517fddf252ad1be2c89b69c2b068fc378daa952ba7f163c4a11628f55a4df523b3ef906125ec9086815260200190565b60405180910390a3611589565b6126038282612e0a565b60008281526097602052604090206110c49082612e90565b6126258282612ea5565b60008281526097602052604090206110c49082612f0c565b612645612f21565b61022c805460ff191690557f5db9ee0a495bf2e6ff9c91a7834c1ba4fdd244a5e8aa4e537bd38aeae4b073aa335b6040516001600160a01b03909116815260200160405180910390a1565b6001600160a01b0382166126e65760405162461bcd60e51b815260206004820152601f60248201527f45524332303a206d696e7420746f20746865207a65726f2061646472657373006044820152606401610c72565b6126f260008383612c78565b8061019660008282546127059190614738565b90915550506001600160a01b038216600081815261019460209081526040808320805486019055518481527fddf252ad1be2c89b69c2b068fc378daa952ba7f163c4a11628f55a4df523b3ef910160405180910390a35050565b6001600160a01b0382166127bf5760405162461bcd60e51b815260206004820152602160248201527f45524332303a206275726e2066726f6d20746865207a65726f206164647265736044820152607360f81b6064820152608401610c72565b6127cb82600083612c78565b6001600160a01b03821660009081526101946020526040902054818110156128405760405162461bcd60e51b815260206004820152602260248201527f45524332303a206275726e20616d6f756e7420657863656564732062616c616e604482015261636560f01b6064820152608401610c72565b6001600160a01b038316600081815261019460209081526040808320868603905561019680548790039055518581529192917fddf252ad1be2c89b69c2b068fc378daa952ba7f163c4a11628f55a4df523b3ef910160405180910390a3505050565b6128b0866000836000612f6b565b60006128be88888888612fe6565b905060008087836040516020016128d793929190614a93565b60405160208183030381529060405290506128f6888287878734613018565b886001600160a01b03168861ffff167f39a4c66499bcf4b56d79f0dde8ed7a9d4925a0df55825206b2b8531e202be0d08985604051612936929190614abf565b60405180910390a3505050505050505050565b602081015161ffff811660000361296b5761296685858585613196565b610f68565b60405162461bcd60e51b815260206004820152601c60248201527f4f4654436f72653a20756e6b6e6f776e207061636b65742074797065000000006044820152606401610c72565b600054610100900460ff166129da5760405162461bcd60e51b8152600401610c7290614ae1565b6129e685858484613220565b612a0c8560405180604001604052806004815260200163076312e360e41b81525061325b565b610f688585858561328c565b612a206132bd565b61022c805460ff191660011790557f62e78cea01bee320cd4e420270b5ea74000d11b0c9f74754ebdbfc544b05a2586126733390565b60606101fa8054610e7d90614607565b60606101fb8054610e7d90614607565b60006119288383613304565b606081612a9081601f614738565b1015612acf5760405162461bcd60e51b815260206004820152600e60248201526d736c6963655f6f766572666c6f7760901b6044820152606401610c72565b612ad98284614738565b84511015612b1d5760405162461bcd60e51b8152602060048201526011602482015270736c6963655f6f75744f66426f756e647360781b6044820152606401610c72565b606082158015612b3c5760405191506000825260208201604052612b86565b6040519150601f8416801560200281840101858101878315602002848b0101015b81831015612b75578051835260209283019201612b5d565b5050858452601f01601f1916604052505b50949350505050565b6000610e67612b9c61332e565b8360405161190160f01b8152600281019290925260228201526042902090565b6000806000612bcb8585613338565b91509150612bd88161337d565b509392505050565b6000610e67825490565b60006001600160e01b03198216637965db0b60e01b1480610e6757506301ffc9a760e01b6001600160e01b0319831614610e67565b612c29828261192f565b61114357612c36816134c7565b612c418360206134d9565b604051602001612c52929190614b2c565b60408051601f198184030181529082905262461bcd60e51b8252610c7291600401613e60565b6001600160a01b038316600090815261025f602052604090205460ff16158015612cbc57506001600160a01b038216600090815261025f602052604090205460ff16155b612d185760405162461bcd60e51b815260206004820152602760248201527f45524332305061757361626c653a206163636f756e7420697320696e20626c6160448201526618dac81b1a5cdd60ca1b6064820152608401610c72565b61022c5460ff1615612d7f5760405162461bcd60e51b815260206004820152602a60248201527f45524332305061757361626c653a20746f6b656e207472616e736665722077686044820152691a5b19481c185d5cd95960b21b6064820152608401610c72565b6001600160a01b0383166110c45761025e541580612dc25750600061025e54118015612dc2575061025e5481612db56101965490565b612dbf9190614738565b11155b6110c45760405162461bcd60e51b8152602060048201526019602482015278115490cc8c10d85c1c19590e8818d85c08195e18d959591959603a1b6044820152606401610c72565b612e14828261192f565b6111435760008281526065602090815260408083206001600160a01b03851684529091529020805460ff19166001179055612e4c3390565b6001600160a01b0316816001600160a01b0316837f2f8788117e7eff1d82e926ec794901d17c78024a50270940304540a733656f0d60405160405180910390a45050565b6000611928836001600160a01b038416613674565b612eaf828261192f565b156111435760008281526065602090815260408083206001600160a01b0385168085529252808320805460ff1916905551339285917ff6391f5c32d9c69d2a47ea670b442974b53935d1edc7fd64eb21e047a839171b9190a45050565b6000611928836001600160a01b0384166136c3565b61022c5460ff166112b55760405162461bcd60e51b815260206004820152601460248201527314185d5cd8589b194e881b9bdd081c185d5cd95960621b6044820152606401610c72565b6101615460ff1615612f8857612f83848484846137b6565b611589565b8151156115895760405162461bcd60e51b815260206004820152602660248201527f4f4654436f72653a205f61646170746572506172616d73206d7573742062652060448201526532b6b83a3c9760d11b6064820152608401610c72565b6000336001600160a01b0386168114613004576130048682856123cd565b61300e868461275f565b5090949350505050565b61ffff8616600090815260fb60205260408120805461303690614607565b80601f016020809104026020016040519081016040528092919081815260200182805461306290614607565b80156130af5780601f10613084576101008083540402835291602001916130af565b820191906000526020600020905b81548152906001019060200180831161309257829003601f168201915b5050505050905080516000036131205760405162461bcd60e51b815260206004820152603060248201527f4c7a4170703a2064657374696e6174696f6e20636861696e206973206e6f742060448201526f61207472757374656420736f7572636560801b6064820152608401610c72565b60fa5460405162c5803160e81b81526001600160a01b039091169063c580310090849061315b908b9086908c908c908c908c90600401614ba1565b6000604051808303818588803b15801561317457600080fd5b505af1158015613188573d6000803e3d6000fd5b505050505050505050505050565b600080828060200190518101906131ad9190614bfb565b9093509150600090506131c08382613895565b90506131cd8782846138fa565b9150806001600160a01b03168761ffff167fbf551ec93859b170f9b2141bd9298bf3f64322c6f7beb2543a0cb669834118bf8460405161320f91815260200190565b60405180910390a350505050505050565b600054610100900460ff166132475760405162461bcd60e51b8152600401610c7290614ae1565b613251848461390d565b611589828261394f565b600054610100900460ff166132825760405162461bcd60e51b8152600401610c7290614ae1565b6111438282613980565b600054610100900460ff166132b35760405162461bcd60e51b8152600401610c7290614ae1565b6115893383612690565b61022c5460ff16156112b55760405162461bcd60e51b815260206004820152601060248201526f14185d5cd8589b194e881c185d5cd95960821b6044820152606401610c72565b600082600001828154811061331b5761331b614c54565b9060005260206000200154905092915050565b60006119666139d3565b600080825160410361336e5760208301516040840151606085015160001a61336287828585613a47565b94509450505050613376565b506000905060025b9250929050565b600081600481111561339157613391614c6a565b036133995750565b60018160048111156133ad576133ad614c6a565b036133fa5760405162461bcd60e51b815260206004820152601860248201527f45434453413a20696e76616c6964207369676e617475726500000000000000006044820152606401610c72565b600281600481111561340e5761340e614c6a565b0361345b5760405162461bcd60e51b815260206004820152601f60248201527f45434453413a20696e76616c6964207369676e6174757265206c656e677468006044820152606401610c72565b600381600481111561346f5761346f614c6a565b036113ba5760405162461bcd60e51b815260206004820152602260248201527f45434453413a20696e76616c6964207369676e6174757265202773272076616c604482015261756560f01b6064820152608401610c72565b6060610e676001600160a01b03831660145b606060006134e8836002614c80565b6134f3906002614738565b6001600160401b0381111561350a5761350a614145565b6040519080825280601f01601f191660200182016040528015613534576020820181803683370190505b509050600360fc1b8160008151811061354f5761354f614c54565b60200101906001600160f81b031916908160001a905350600f60fb1b8160018151811061357e5761357e614c54565b60200101906001600160f81b031916908160001a90535060006135a2846002614c80565b6135ad906001614738565b90505b6001811115613625576f181899199a1a9b1b9c1cb0b131b232b360811b85600f16601081106135e1576135e1614c54565b1a60f81b8282815181106135f7576135f7614c54565b60200101906001600160f81b031916908160001a90535060049490941c9361361e81614c97565b90506135b0565b5083156119285760405162461bcd60e51b815260206004820181905260248201527f537472696e67733a20686578206c656e67746820696e73756666696369656e746044820152606401610c72565b60008181526001830160205260408120546136bb57508154600181810184556000848152602080822090930184905584548482528286019093526040902091909155610e67565b506000610e67565b600081815260018301602052604081205480156137ac5760006136e7600183614769565b85549091506000906136fb90600190614769565b905081811461376057600086600001828154811061371b5761371b614c54565b906000526020600020015490508087600001848154811061373e5761373e614c54565b6000918252602080832090910192909255918252600188019052604090208390555b855486908061377157613771614cae565b600190038181906000526020600020016000905590558560010160008681526020019081526020016000206000905560019350505050610e67565b6000915050610e67565b60006137c183613b0b565b61ffff808716600090815260fc60209081526040808320938916835292905290812054919250906137f3908490614738565b9050600081116138455760405162461bcd60e51b815260206004820152601a60248201527f4c7a4170703a206d696e4761734c696d6974206e6f74207365740000000000006044820152606401610c72565b808210156117e85760405162461bcd60e51b815260206004820152601b60248201527f4c7a4170703a20676173206c696d697420697320746f6f206c6f7700000000006044820152606401610c72565b60006138a2826014614738565b835110156138ea5760405162461bcd60e51b8152602060048201526015602482015274746f416464726573735f6f75744f66426f756e647360581b6044820152606401610c72565b500160200151600160601b900490565b60006139068383612690565b5092915050565b600054610100900460ff166139345760405162461bcd60e51b8152600401610c7290614ae1565b6101976139418382614801565b506101986110c48282614801565b600054610100900460ff166139765760405162461bcd60e51b8152600401610c7290614ae1565b6111438282613b67565b600054610100900460ff166139a75760405162461bcd60e51b8152600401610c7290614ae1565b6101fa6139b48382614801565b506101fb6139c28282614801565b505060006101f88190556101f95550565b60007f8b73c3c69bb8fe3d512ecc4cf759cc79239f7b179b0ffacaa9a75d522b39400f6139fe613b98565b613a06613bf2565b60408051602081019490945283019190915260608201524660808201523060a082015260c00160405160208183030381529060405280519060200120905090565b6000807f7fffffffffffffffffffffffffffffff5d576e7357a4501ddfe92f46681b20a0831115613a7e5750600090506003613b02565b6040805160008082526020820180845289905260ff881692820192909252606081018690526080810185905260019060a0016020604051602081039080840390855afa158015613ad2573d6000803e3d6000fd5b5050604051601f1901519150506001600160a01b038116613afb57600060019250925050613b02565b9150600090505b94509492505050565b6000602282511015613b5f5760405162461bcd60e51b815260206004820152601c60248201527f4c7a4170703a20696e76616c69642061646170746572506172616d73000000006044820152606401610c72565b506022015190565b600054610100900460ff16613b8e5760405162461bcd60e51b8152600401610c7290614ae1565b6111438282613c24565b600080613ba3612a56565b805190915015613bba578051602090910120919050565b6101f8548015613bca5792915050565b7fc5d2460186f7233c927e7db2dcc703c0e500b653ca82273b7bfad8045d85a4709250505090565b600080613bfd612a66565b805190915015613c14578051602090910120919050565b6101f9548015613bca5792915050565b600054610100900460ff16613c4b5760405162461bcd60e51b8152600401610c7290614ae1565b60fa80546001600160a01b0319166001600160a01b03841617905561114381600054610100900460ff16613c915760405162461bcd60e51b8152600401610c7290614ae1565b613c9c600082613cda565b613cc67f9f2df0fed2c77648de5860a4cc508cd0818c85b8b8a1ab4ceeef8d981c8956a682613cda565b6113ba600080516020614ce5833981519152825b61114382826125f9565b61ffff811681146113ba57600080fd5b60008083601f840112613d0657600080fd5b5081356001600160401b03811115613d1d57600080fd5b60208301915083602082850101111561337657600080fd5b80356001600160401b0381168114613d4c57600080fd5b919050565b60008060008060008060808789031215613d6a57600080fd5b8635613d7581613ce4565b955060208701356001600160401b0380821115613d9157600080fd5b613d9d8a838b01613cf4565b9097509550859150613db160408a01613d35565b94506060890135915080821115613dc757600080fd5b50613dd489828a01613cf4565b979a9699509497509295939492505050565b600060208284031215613df857600080fd5b81356001600160e01b03198116811461192857600080fd5b60005b83811015613e2b578181015183820152602001613e13565b50506000910152565b60008151808452613e4c816020860160208601613e10565b601f01601f19169290920160200192915050565b6020815260006119286020830184613e34565b60008060408385031215613e8657600080fd5b8235613e9181613ce4565b946020939093013593505050565b600060208284031215613eb157600080fd5b813561192881613ce4565b6001600160a01b03811681146113ba57600080fd5b60008060408385031215613ee457600080fd5b8235613e9181613ebc565b600080600060608486031215613f0457600080fd5b8335613f0f81613ebc565b92506020840135613f1f81613ebc565b929592945050506040919091013590565b600060208284031215613f4257600080fd5b5035919050565b80358015158114613d4c57600080fd5b600080600080600080600060a0888a031215613f7457600080fd5b8735613f7f81613ce4565b965060208801356001600160401b0380821115613f9b57600080fd5b613fa78b838c01613cf4565b909850965060408a01359550869150613fc260608b01613f49565b945060808a0135915080821115613fd857600080fd5b50613fe58a828b01613cf4565b989b979a50959850939692959293505050565b6000806040838503121561400b57600080fd5b82359150602083013561401d81613ebc565b809150509250929050565b60008060006040848603121561403d57600080fd5b833561404881613ce4565b925060208401356001600160401b0381111561406357600080fd5b61406f86828701613cf4565b9497909650939450505050565b600080600080600080600080600060e08a8c03121561409a57600080fd5b89356140a581613ebc565b985060208a01356140b581613ce4565b975060408a01356001600160401b03808211156140d157600080fd5b6140dd8d838e01613cf4565b909950975060608c0135965060808c013591506140f982613ebc565b90945060a08b01359061410b82613ebc565b90935060c08b0135908082111561412157600080fd5b5061412e8c828d01613cf4565b915080935050809150509295985092959850929598565b634e487b7160e01b600052604160045260246000fd5b604051601f8201601f191681016001600160401b038111828210171561418357614183614145565b604052919050565b60006001600160401b038211156141a4576141a4614145565b50601f01601f191660200190565b600082601f8301126141c357600080fd5b81356141d66141d18261418b565b61415b565b8181528460208386010111156141eb57600080fd5b816020850160208301376000918101602001919091529392505050565b60008060006060848603121561421d57600080fd5b833561422881613ce4565b925060208401356001600160401b0381111561424357600080fd5b61424f868287016141b2565b92505061425e60408501613d35565b90509250925092565b6000806000806080858703121561427d57600080fd5b843561428881613ce4565b935060208501356001600160401b03808211156142a457600080fd5b6142b0888389016141b2565b94506142be60408801613d35565b935060608701359150808211156142d457600080fd5b506142e1878288016141b2565b91505092959194509250565b6000602082840312156142ff57600080fd5b813561192881613ebc565b600080600080600060a0868803121561432257600080fd5b85356001600160401b038082111561433957600080fd5b61434589838a016141b2565b9650602088013591508082111561435b57600080fd5b50614368888289016141b2565b94505060408601359250606086013561438081613ebc565b9150608086013561439081613ebc565b809150509295509295909350565b60ff60f81b881681526000602060e0818401526143be60e084018a613e34565b83810360408501526143d0818a613e34565b606085018990526001600160a01b038816608086015260a0850187905284810360c0860152855180825283870192509083019060005b8181101561442257835183529284019291840191600101614406565b50909c9b505050505050505050505050565b6000806040838503121561444757600080fd5b50508035926020909101359150565b600080600080600060a0868803121561446e57600080fd5b853561447981613ebc565b9450602086013561448981613ebc565b9350604086013592506060860135915060808601356001600160401b038111156144b257600080fd5b6144be888289016141b2565b9150509295509295909350565b6000806000806000608086880312156144e357600080fd5b85356144ee81613ce4565b945060208601356144fe81613ce4565b93506040860135925060608601356001600160401b0381111561452057600080fd5b61452c88828901613cf4565b969995985093965092949392505050565b6000806040838503121561455057600080fd5b823561455b81613ebc565b9150602083013561401d81613ebc565b60008060006060848603121561458057600080fd5b833561458b81613ce4565b92506020840135613f1f81613ce4565b6000602082840312156145ad57600080fd5b61192882613f49565b600080600080608085870312156145cc57600080fd5b84356145d781613ce4565b935060208501356145e781613ce4565b925060408501356145f781613ebc565b9396929550929360600135925050565b600181811c9082168061461b57607f821691505b60208210810361463b57634e487b7160e01b600052602260045260246000fd5b50919050565b8183823760009101908152919050565b81835281816020850137506000828201602090810191909152601f909101601f19169091010190565b60ff85168152606060208201526000614697606083018587614651565b905082604083015295945050505050565b61ffff871681526001600160a01b038616602082015260a0604082018190526000906146d690830187613e34565b851515606084015282810360808401526146f1818587614651565b9998505050505050505050565b6000806040838503121561471157600080fd5b505080516020909101519092909150565b634e487b7160e01b600052601160045260246000fd5b80820180821115610e6757610e67614722565b61ffff8416815260406020820152600061217e604083018486614651565b81810381811115610e6757610e67614722565b60006001820161478e5761478e614722565b5060010190565b8284823760609190911b6bffffffffffffffffffffffff19169101908152601401919050565b601f8211156110c457600081815260208120601f850160051c810160208610156147e25750805b601f850160051c820191505b818110156117e8578281556001016147ee565b81516001600160401b0381111561481a5761481a614145565b61482e816148288454614607565b846147bb565b602080601f831160018114614863576000841561484b5750858301515b600019600386901b1c1916600185901b1785556117e8565b600085815260208120601f198616915b8281101561489257888601518255948401946001909101908401614873565b50858210156148b05787850151600019600388901b60f8161c191681555b5050505050600190811b01905550565b600061ffff8088168352808716602084015250846040830152608060608301526148ee608083018486614651565b979650505050505050565b6000825161490b818460208701613e10565b9190910192915050565b6001600160401b0383111561492c5761492c614145565b6149408361493a8354614607565b836147bb565b6000601f841160018114614974576000851561495c5750838201355b600019600387901b1c1916600186901b178355610f68565b600083815260209020601f19861690835b828110156149a55786850135825560209485019460019092019101614985565b50868210156149c25760001960f88860031b161c19848701351681555b505060018560011b0183555050505050565b600082601f8301126149e557600080fd5b81516149f36141d18261418b565b818152846020838601011115614a0857600080fd5b614a19826020830160208701613e10565b949350505050565b600060208284031215614a3357600080fd5b81516001600160401b03811115614a4957600080fd5b614a19848285016149d4565b61ffff85168152608060208201526000614a726080830186613e34565b6001600160401b038516604084015282810360608401526148ee8185613e34565b60ff84168152606060208201526000614aaf6060830185613e34565b9050826040830152949350505050565b604081526000614ad26040830185613e34565b90508260208301529392505050565b6020808252602b908201527f496e697469616c697a61626c653a20636f6e7472616374206973206e6f74206960408201526a6e697469616c697a696e6760a81b606082015260800190565b7f416363657373436f6e74726f6c3a206163636f756e7420000000000000000000815260008351614b64816017850160208801613e10565b7001034b99036b4b9b9b4b733903937b6329607d1b6017918401918201528351614b95816028840160208801613e10565b01602801949350505050565b61ffff8716815260c060208201526000614bbe60c0830188613e34565b8281036040840152614bd08188613e34565b6001600160a01b0387811660608601528616608085015283810360a085015290506146f18185613e34565b600080600060608486031215614c1057600080fd5b8351614c1b81613ce4565b60208501519093506001600160401b03811115614c3757600080fd5b614c43868287016149d4565b925050604084015190509250925092565b634e487b7160e01b600052603260045260246000fd5b634e487b7160e01b600052602160045260246000fd5b8082028115828204841417610e6757610e67614722565b600081614ca657614ca6614722565b506000190190565b634e487b7160e01b600052603160045260246000fdfe45524332305072657365744d696e7465725061757365723a206d75737420686165d7a28e3265b37a6474929f336521b332c1681b933f6cb9f3376673440d862aa26469706673582212207e14351467dd240dd7e0ea1558951404b4a2b74d521f308220fa41762f22a5d664736f6c63430008130033",
  "linkReferences": {},
  "deployedLinkReferences": {}
}