{
  "_format": "hh-sol-artifact-1",
  "contractName": "SumerOFTUpgradeable",
  "sourceName": "contracts/OFT-upgradable/SumerOFTUpgradeable.sol",
  "abi": [
    {
      "anonymous": false,
      "inputs": [
        {
          "indexed": true,
          "internalType": "address",
          "name": "owner",
          "type": "address"
        },
        {
          "indexed": true,
          "internalType": "address",
          "name": "spender",
          "type": "address"
        },
        {
          "indexed": false,
          "internalType": "uint256",
          "name": "value",
          "type": "uint256"
        }
      ],
      "name": "Approval",
      "type": "event"
    },
    {
      "anonymous": false,
      "inputs": [],
      "name": "EIP712DomainChanged",
      "type": "event"
    },
    {
      "anonymous": false,
      "inputs": [
        {
          "indexed": false,
          "internalType": "uint8",
          "name": "version",
          "type": "uint8"
        }
      ],
      "name": "Initialized",
      "type": "event"
    },
    {
      "anonymous": false,
      "inputs": [
        {
          "indexed": false,
          "internalType": "uint16",
          "name": "_srcChainId",
          "type": "uint16"
        },
        {
          "indexed": false,
          "internalType": "bytes",
          "name": "_srcAddress",
          "type": "bytes"
        },
        {
          "indexed": false,
          "internalType": "uint64",
          "name": "_nonce",
          "type": "uint64"
        },
        {
          "indexed": false,
          "internalType": "bytes",
          "name": "_payload",
          "type": "bytes"
        }
      ],
      "name": "MessageFailed",
      "type": "event"
    },
    {
      "anonymous": false,
      "inputs": [
        {
          "indexed": false,
          "internalType": "address",
          "name": "account",
          "type": "address"
        }
      ],
      "name": "Paused",
      "type": "event"
    },
    {
      "anonymous": false,
      "inputs": [
        {
          "indexed": true,
          "internalType": "uint16",
          "name": "_srcChainId",
          "type": "uint16"
        },
        {
          "indexed": true,
          "internalType": "address",
          "name": "_to",
          "type": "address"
        },
        {
          "indexed": false,
          "internalType": "uint256",
          "name": "_amount",
          "type": "uint256"
        }
      ],
      "name": "ReceiveFromChain",
      "type": "event"
    },
    {
      "anonymous": false,
      "inputs": [
        {
          "indexed": true,
          "internalType": "bytes32",
          "name": "role",
          "type": "bytes32"
        },
        {
          "indexed": true,
          "internalType": "bytes32",
          "name": "previousAdminRole",
          "type": "bytes32"
        },
        {
          "indexed": true,
          "internalType": "bytes32",
          "name": "newAdminRole",
          "type": "bytes32"
        }
      ],
      "name": "RoleAdminChanged",
      "type": "event"
    },
    {
      "anonymous": false,
      "inputs": [
        {
          "indexed": true,
          "internalType": "bytes32",
          "name": "role",
          "type": "bytes32"
        },
        {
          "indexed": true,
          "internalType": "address",
          "name": "account",
          "type": "address"
        },
        {
          "indexed": true,
          "internalType": "address",
          "name": "sender",
          "type": "address"
        }
      ],
      "name": "RoleGranted",
      "type": "event"
    },
    {
      "anonymous": false,
      "inputs": [
        {
          "indexed": true,
          "internalType": "bytes32",
          "name": "role",
          "type": "bytes32"
        },
        {
          "indexed": true,
          "internalType": "address",
          "name": "account",
          "type": "address"
        },
        {
          "indexed": true,
          "internalType": "address",
          "name": "sender",
          "type": "address"
        }
      ],
      "name": "RoleRevoked",
      "type": "event"
    },
    {
      "anonymous": false,
      "inputs": [
        {
          "indexed": true,
          "internalType": "uint16",
          "name": "_dstChainId",
          "type": "uint16"
        },
        {
          "indexed": true,
          "internalType": "address",
          "name": "_from",
          "type": "address"
        },
        {
          "indexed": false,
          "internalType": "bytes",
          "name": "_toAddress",
          "type": "bytes"
        },
        {
          "indexed": false,
          "internalType": "uint256",
          "name": "_amount",
          "type": "uint256"
        }
      ],
      "name": "SendToChain",
      "type": "event"
    },
    {
      "anonymous": false,
      "inputs": [
        {
          "indexed": false,
          "internalType": "uint16",
          "name": "_dstChainId",
          "type": "uint16"
        },
        {
          "indexed": false,
          "internalType": "uint16",
          "name": "_type",
          "type": "uint16"
        },
        {
          "indexed": false,
          "internalType": "uint256",
          "name": "_minDstGas",
          "type": "uint256"
        }
      ],
      "name": "SetMinDstGas",
      "type": "event"
    },
    {
      "anonymous": false,
      "inputs": [
        {
          "indexed": false,
          "internalType": "uint16",
          "name": "_dstChainId",
          "type": "uint16"
        },
        {
          "indexed": false,
          "internalType": "uint256",
          "name": "_type",
          "type": "uint256"
        },
        {
          "indexed": false,
          "internalType": "uint256",
          "name": "_dstGasAmount",
          "type": "uint256"
        }
      ],
      "name": "SetMinDstGasLookup",
      "type": "event"
    },
    {
      "anonymous": false,
      "inputs": [
        {
          "indexed": false,
          "internalType": "address",
          "name": "precrime",
          "type": "address"
        }
      ],
      "name": "SetPrecrime",
      "type": "event"
    },
    {
      "anonymous": false,
      "inputs": [
        {
          "indexed": false,
          "internalType": "uint16",
          "name": "_srcChainId",
          "type": "uint16"
        },
        {
          "indexed": false,
          "internalType": "bytes",
          "name": "_srcAddress",
          "type": "bytes"
        }
      ],
      "name": "SetTrustedRemote",
      "type": "event"
    },
    {
      "anonymous": false,
      "inputs": [
        {
          "indexed": false,
          "internalType": "uint16",
          "name": "_remoteChainId",
          "type": "uint16"
        },
        {
          "indexed": false,
          "internalType": "bytes",
          "name": "_remoteAddress",
          "type": "bytes"
        }
      ],
      "name": "SetTrustedRemoteAddress",
      "type": "event"
    },
    {
      "anonymous": false,
      "inputs": [
        {
          "indexed": false,
          "internalType": "bool",
          "name": "_useCustomAdapterParams",
          "type": "bool"
        }
      ],
      "name": "SetUseCustomAdapterParams",
      "type": "event"
    },
    {
      "anonymous": false,
      "inputs": [
        {
          "indexed": true,
          "internalType": "address",
          "name": "from",
          "type": "address"
        },
        {
          "indexed": true,
          "internalType": "address",
          "name": "to",
          "type": "address"
        },
        {
          "indexed": false,
          "internalType": "uint256",
          "name": "value",
          "type": "uint256"
        }
      ],
      "name": "Transfer",
      "type": "event"
    },
    {
      "anonymous": false,
      "inputs": [
        {
          "indexed": false,
          "internalType": "address",
          "name": "account",
          "type": "address"
        }
      ],
      "name": "Unpaused",
      "type": "event"
    },
    {
      "inputs": [],
      "name": "DEFAULT_ADMIN_ROLE",
      "outputs": [
        {
          "internalType": "bytes32",
          "name": "",
          "type": "bytes32"
        }
      ],
      "stateMutability": "view",
      "type": "function"
    },
    {
      "inputs": [],
      "name": "DEFAULT_PAYLOAD_SIZE_LIMIT",
      "outputs": [
        {
          "internalType": "uint256",
          "name": "",
          "type": "uint256"
        }
      ],
      "stateMutability": "view",
      "type": "function"
    },
    {
      "inputs": [],
      "name": "FUNCTION_TYPE_SEND",
      "outputs": [
        {
          "internalType": "uint256",
          "name": "",
          "type": "uint256"
        }
      ],
      "stateMutability": "view",
      "type": "function"
    },
    {
      "inputs": [],
      "name": "MINTER_ROLE",
      "outputs": [
        {
          "internalType": "bytes32",
          "name": "",
          "type": "bytes32"
        }
      ],
      "stateMutability": "view",
      "type": "function"
    },
    {
      "inputs": [],
      "name": "NO_EXTRA_GAS",
      "outputs": [
        {
          "internalType": "uint256",
          "name": "",
          "type": "uint256"
        }
      ],
      "stateMutability": "view",
      "type": "function"
    },
    {
      "inputs": [],
      "name": "PAUSER_ROLE",
      "outputs": [
        {
          "internalType": "bytes32",
          "name": "",
          "type": "bytes32"
        }
      ],
      "stateMutability": "view",
      "type": "function"
    },
    {
      "inputs": [],
      "name": "PERMIT_TYPEHASH",
      "outputs": [
        {
          "internalType": "bytes32",
          "name": "",
          "type": "bytes32"
        }
      ],
      "stateMutability": "view",
      "type": "function"
    },
    {
      "inputs": [
        {
          "internalType": "address",
          "name": "owner",
          "type": "address"
        },
        {
          "internalType": "address",
          "name": "spender",
          "type": "address"
        }
      ],
      "name": "allowance",
      "outputs": [
        {
          "internalType": "uint256",
          "name": "",
          "type": "uint256"
        }
      ],
      "stateMutability": "view",
      "type": "function"
    },
    {
      "inputs": [
        {
          "internalType": "address",
          "name": "spender",
          "type": "address"
        },
        {
          "internalType": "uint256",
          "name": "amount",
          "type": "uint256"
        }
      ],
      "name": "approve",
      "outputs": [
        {
          "internalType": "bool",
          "name": "",
          "type": "bool"
        }
      ],
      "stateMutability": "nonpayable",
      "type": "function"
    },
    {
      "inputs": [
        {
          "internalType": "address",
          "name": "account",
          "type": "address"
        }
      ],
      "name": "balanceOf",
      "outputs": [
        {
          "internalType": "uint256",
          "name": "",
          "type": "uint256"
        }
      ],
      "stateMutability": "view",
      "type": "function"
    },
    {
      "inputs": [
        {
          "internalType": "uint256",
          "name": "amount",
          "type": "uint256"
        }
      ],
      "name": "burn",
      "outputs": [],
      "stateMutability": "nonpayable",
      "type": "function"
    },
    {
      "inputs": [
        {
          "internalType": "address",
          "name": "account",
          "type": "address"
        },
        {
          "internalType": "uint256",
          "name": "amount",
          "type": "uint256"
        }
      ],
      "name": "burnFrom",
      "outputs": [],
      "stateMutability": "nonpayable",
      "type": "function"
    },
    {
      "inputs": [],
      "name": "cap",
      "outputs": [
        {
          "internalType": "uint256",
          "name": "",
          "type": "uint256"
        }
      ],
      "stateMutability": "view",
      "type": "function"
    },
    {
      "inputs": [],
      "name": "circulatingSupply",
      "outputs": [
        {
          "internalType": "uint256",
          "name": "",
          "type": "uint256"
        }
      ],
      "stateMutability": "view",
      "type": "function"
    },
    {
      "inputs": [],
      "name": "decimals",
      "outputs": [
        {
          "internalType": "uint8",
          "name": "",
          "type": "uint8"
        }
      ],
      "stateMutability": "view",
      "type": "function"
    },
    {
      "inputs": [
        {
          "internalType": "address",
          "name": "spender",
          "type": "address"
        },
        {
          "internalType": "uint256",
          "name": "subtractedValue",
          "type": "uint256"
        }
      ],
      "name": "decreaseAllowance",
      "outputs": [
        {
          "internalType": "bool",
          "name": "",
          "type": "bool"
        }
      ],
      "stateMutability": "nonpayable",
      "type": "function"
    },
    {
      "inputs": [],
      "name": "eip712Domain",
      "outputs": [
        {
          "internalType": "bytes1",
          "name": "fields",
          "type": "bytes1"
        },
        {
          "internalType": "string",
          "name": "name",
          "type": "string"
        },
        {
          "internalType": "string",
          "name": "version",
          "type": "string"
        },
        {
          "internalType": "uint256",
          "name": "chainId",
          "type": "uint256"
        },
        {
          "internalType": "address",
          "name": "verifyingContract",
          "type": "address"
        },
        {
          "internalType": "bytes32",
          "name": "salt",
          "type": "bytes32"
        },
        {
          "internalType": "uint256[]",
          "name": "extensions",
          "type": "uint256[]"
        }
      ],
      "stateMutability": "view",
      "type": "function"
    },
    {
      "inputs": [
        {
          "internalType": "uint16",
          "name": "_dstChainId",
          "type": "uint16"
        },
        {
          "internalType": "bytes",
          "name": "_toAddress",
          "type": "bytes"
        },
        {
          "internalType": "uint256",
          "name": "_amount",
          "type": "uint256"
        },
        {
          "internalType": "bool",
          "name": "_useZro",
          "type": "bool"
        },
        {
          "internalType": "bytes",
          "name": "_adapterParams",
          "type": "bytes"
        }
      ],
      "name": "estimateSendFee",
      "outputs": [
        {
          "internalType": "uint256",
          "name": "nativeFee",
          "type": "uint256"
        },
        {
          "internalType": "uint256",
          "name": "zroFee",
          "type": "uint256"
        }
      ],
      "stateMutability": "view",
      "type": "function"
    },
    {
      "inputs": [
        {
          "internalType": "uint16",
          "name": "",
          "type": "uint16"
        },
        {
          "internalType": "bytes",
          "name": "",
          "type": "bytes"
        },
        {
          "internalType": "uint64",
          "name": "",
          "type": "uint64"
        }
      ],
      "name": "failedMessages",
      "outputs": [
        {
          "internalType": "bytes32",
          "name": "",
          "type": "bytes32"
        }
      ],
      "stateMutability": "view",
      "type": "function"
    },
    {
      "inputs": [
        {
          "internalType": "uint16",
          "name": "_srcChainId",
          "type": "uint16"
        },
        {
          "internalType": "bytes",
          "name": "_srcAddress",
          "type": "bytes"
        }
      ],
      "name": "forceResumeReceive",
      "outputs": [],
      "stateMutability": "nonpayable",
      "type": "function"
    },
    {
      "inputs": [
        {
          "internalType": "uint16",
          "name": "_version",
          "type": "uint16"
        },
        {
          "internalType": "uint16",
          "name": "_chainId",
          "type": "uint16"
        },
        {
          "internalType": "address",
          "name": "",
          "type": "address"
        },
        {
          "internalType": "uint256",
          "name": "_configType",
          "type": "uint256"
        }
      ],
      "name": "getConfig",
      "outputs": [
        {
          "internalType": "bytes",
          "name": "",
          "type": "bytes"
        }
      ],
      "stateMutability": "view",
      "type": "function"
    },
    {
      "inputs": [
        {
          "internalType": "bytes32",
          "name": "role",
          "type": "bytes32"
        }
      ],
      "name": "getRoleAdmin",
      "outputs": [
        {
          "internalType": "bytes32",
          "name": "",
          "type": "bytes32"
        }
      ],
      "stateMutability": "view",
      "type": "function"
    },
    {
      "inputs": [
        {
          "internalType": "bytes32",
          "name": "role",
          "type": "bytes32"
        },
        {
          "internalType": "uint256",
          "name": "index",
          "type": "uint256"
        }
      ],
      "name": "getRoleMember",
      "outputs": [
        {
          "internalType": "address",
          "name": "",
          "type": "address"
        }
      ],
      "stateMutability": "view",
      "type": "function"
    },
    {
      "inputs": [
        {
          "internalType": "bytes32",
          "name": "role",
          "type": "bytes32"
        }
      ],
      "name": "getRoleMemberCount",
      "outputs": [
        {
          "internalType": "uint256",
          "name": "",
          "type": "uint256"
        }
      ],
      "stateMutability": "view",
      "type": "function"
    },
    {
      "inputs": [
        {
          "internalType": "uint16",
          "name": "_remoteChainId",
          "type": "uint16"
        }
      ],
      "name": "getTrustedRemoteAddress",
      "outputs": [
        {
          "internalType": "bytes",
          "name": "",
          "type": "bytes"
        }
      ],
      "stateMutability": "view",
      "type": "function"
    },
    {
      "inputs": [
        {
          "internalType": "bytes32",
          "name": "role",
          "type": "bytes32"
        },
        {
          "internalType": "address",
          "name": "account",
          "type": "address"
        }
      ],
      "name": "grantRole",
      "outputs": [],
      "stateMutability": "nonpayable",
      "type": "function"
    },
    {
      "inputs": [
        {
          "internalType": "bytes32",
          "name": "role",
          "type": "bytes32"
        },
        {
          "internalType": "address",
          "name": "account",
          "type": "address"
        }
      ],
      "name": "hasRole",
      "outputs": [
        {
          "internalType": "bool",
          "name": "",
          "type": "bool"
        }
      ],
      "stateMutability": "view",
      "type": "function"
    },
    {
      "inputs": [
        {
          "internalType": "address",
          "name": "spender",
          "type": "address"
        },
        {
          "internalType": "uint256",
          "name": "addedValue",
          "type": "uint256"
        }
      ],
      "name": "increaseAllowance",
      "outputs": [
        {
          "internalType": "bool",
          "name": "",
          "type": "bool"
        }
      ],
      "stateMutability": "nonpayable",
      "type": "function"
    },
    {
      "inputs": [
        {
          "internalType": "string",
          "name": "_name",
          "type": "string"
        },
        {
          "internalType": "string",
          "name": "_symbol",
          "type": "string"
        },
        {
          "internalType": "uint256",
          "name": "_initialSupply",
          "type": "uint256"
        },
        {
          "internalType": "address",
          "name": "_lzEndpoint",
          "type": "address"
        }
      ],
      "name": "initialize",
      "outputs": [],
      "stateMutability": "nonpayable",
      "type": "function"
    },
    {
      "inputs": [
        {
          "internalType": "uint16",
          "name": "_srcChainId",
          "type": "uint16"
        },
        {
          "internalType": "bytes",
          "name": "_srcAddress",
          "type": "bytes"
        }
      ],
      "name": "isTrustedRemote",
      "outputs": [
        {
          "internalType": "bool",
          "name": "",
          "type": "bool"
        }
      ],
      "stateMutability": "view",
      "type": "function"
    },
    {
      "inputs": [],
      "name": "lzEndpoint",
      "outputs": [
        {
          "internalType": "contract ILayerZeroEndpointUpgradeable",
          "name": "",
          "type": "address"
        }
      ],
      "stateMutability": "view",
      "type": "function"
    },
    {
      "inputs": [
        {
          "internalType": "uint16",
          "name": "_srcChainId",
          "type": "uint16"
        },
        {
          "internalType": "bytes",
          "name": "_srcAddress",
          "type": "bytes"
        },
        {
          "internalType": "uint64",
          "name": "_nonce",
          "type": "uint64"
        },
        {
          "internalType": "bytes",
          "name": "_payload",
          "type": "bytes"
        }
      ],
      "name": "lzReceive",
      "outputs": [],
      "stateMutability": "nonpayable",
      "type": "function"
    },
    {
      "inputs": [
        {
          "internalType": "uint16",
          "name": "",
          "type": "uint16"
        },
        {
          "internalType": "uint256",
          "name": "",
          "type": "uint256"
        }
      ],
      "name": "minDstGasLookup",
      "outputs": [
        {
          "internalType": "uint256",
          "name": "",
          "type": "uint256"
        }
      ],
      "stateMutability": "view",
      "type": "function"
    },
    {
      "inputs": [
        {
          "internalType": "address",
          "name": "to",
          "type": "address"
        },
        {
          "internalType": "uint256",
          "name": "amount",
          "type": "uint256"
        }
      ],
      "name": "mint",
      "outputs": [],
      "stateMutability": "nonpayable",
      "type": "function"
    },
    {
      "inputs": [],
      "name": "name",
      "outputs": [
        {
          "internalType": "string",
          "name": "",
          "type": "string"
        }
      ],
      "stateMutability": "view",
      "type": "function"
    },
    {
      "inputs": [
        {
          "internalType": "uint16",
          "name": "_srcChainId",
          "type": "uint16"
        },
        {
          "internalType": "bytes",
          "name": "_srcAddress",
          "type": "bytes"
        },
        {
          "internalType": "uint64",
          "name": "_nonce",
          "type": "uint64"
        },
        {
          "internalType": "bytes",
          "name": "_payload",
          "type": "bytes"
        }
      ],
      "name": "nonblockingLzReceive",
      "outputs": [],
      "stateMutability": "nonpayable",
      "type": "function"
    },
    {
      "inputs": [
        {
          "internalType": "address",
          "name": "",
          "type": "address"
        }
      ],
      "name": "nonces",
      "outputs": [
        {
          "internalType": "uint256",
          "name": "",
          "type": "uint256"
        }
      ],
      "stateMutability": "view",
      "type": "function"
    },
    {
      "inputs": [],
      "name": "pause",
      "outputs": [],
      "stateMutability": "nonpayable",
      "type": "function"
    },
    {
      "inputs": [],
      "name": "paused",
      "outputs": [
        {
          "internalType": "bool",
          "name": "",
          "type": "bool"
        }
      ],
      "stateMutability": "view",
      "type": "function"
    },
    {
      "inputs": [
        {
          "internalType": "address",
          "name": "signer",
          "type": "address"
        },
        {
          "internalType": "address",
          "name": "spender",
          "type": "address"
        },
        {
          "internalType": "uint256",
          "name": "value",
          "type": "uint256"
        },
        {
          "internalType": "uint256",
          "name": "deadline",
          "type": "uint256"
        },
        {
          "internalType": "bytes",
          "name": "signature",
          "type": "bytes"
        }
      ],
      "name": "permit",
      "outputs": [
        {
          "internalType": "bool",
          "name": "",
          "type": "bool"
        }
      ],
      "stateMutability": "nonpayable",
      "type": "function"
    },
    {
      "inputs": [],
      "name": "precrime",
      "outputs": [
        {
          "internalType": "address",
          "name": "",
          "type": "address"
        }
      ],
      "stateMutability": "view",
      "type": "function"
    },
    {
      "inputs": [
        {
          "internalType": "bytes32",
          "name": "role",
          "type": "bytes32"
        },
        {
          "internalType": "address",
          "name": "account",
          "type": "address"
        }
      ],
      "name": "renounceRole",
      "outputs": [],
      "stateMutability": "nonpayable",
      "type": "function"
    },
    {
      "inputs": [
        {
          "internalType": "uint16",
          "name": "_srcChainId",
          "type": "uint16"
        },
        {
          "internalType": "bytes",
          "name": "_srcAddress",
          "type": "bytes"
        },
        {
          "internalType": "uint64",
          "name": "_nonce",
          "type": "uint64"
        },
        {
          "internalType": "bytes",
          "name": "_payload",
          "type": "bytes"
        }
      ],
      "name": "retryMessage",
      "outputs": [],
      "stateMutability": "payable",
      "type": "function"
    },
    {
      "inputs": [
        {
          "internalType": "bytes32",
          "name": "role",
          "type": "bytes32"
        },
        {
          "internalType": "address",
          "name": "account",
          "type": "address"
        }
      ],
      "name": "revokeRole",
      "outputs": [],
      "stateMutability": "nonpayable",
      "type": "function"
    },
    {
      "inputs": [
        {
          "internalType": "address",
          "name": "_from",
          "type": "address"
        },
        {
          "internalType": "uint16",
          "name": "_dstChainId",
          "type": "uint16"
        },
        {
          "internalType": "bytes",
          "name": "_toAddress",
          "type": "bytes"
        },
        {
          "internalType": "uint256",
          "name": "_amount",
          "type": "uint256"
        },
        {
          "internalType": "address payable",
          "name": "_refundAddress",
          "type": "address"
        },
        {
          "internalType": "address",
          "name": "_zroPaymentAddress",
          "type": "address"
        },
        {
          "internalType": "bytes",
          "name": "_adapterParams",
          "type": "bytes"
        }
      ],
      "name": "sendFrom",
      "outputs": [],
      "stateMutability": "payable",
      "type": "function"
    },
    {
      "inputs": [
        {
          "internalType": "address",
          "name": "account",
          "type": "address"
        }
      ],
      "name": "setBlackList",
      "outputs": [],
      "stateMutability": "nonpayable",
      "type": "function"
    },
    {
      "inputs": [
        {
          "internalType": "uint256",
          "name": "cap_",
          "type": "uint256"
        }
      ],
      "name": "setCap",
      "outputs": [],
      "stateMutability": "nonpayable",
      "type": "function"
    },
    {
      "inputs": [
        {
          "internalType": "uint16",
          "name": "_version",
          "type": "uint16"
        },
        {
          "internalType": "uint16",
          "name": "_chainId",
          "type": "uint16"
        },
        {
          "internalType": "uint256",
          "name": "_configType",
          "type": "uint256"
        },
        {
          "internalType": "bytes",
          "name": "_config",
          "type": "bytes"
        }
      ],
      "name": "setConfig",
      "outputs": [],
      "stateMutability": "nonpayable",
      "type": "function"
    },
    {
      "inputs": [
        {
          "internalType": "uint16",
          "name": "_dstChainId",
          "type": "uint16"
        },
        {
          "internalType": "uint16",
          "name": "_packetType",
          "type": "uint16"
        },
        {
          "internalType": "uint256",
          "name": "_minGas",
          "type": "uint256"
        }
      ],
      "name": "setMinDstGas",
      "outputs": [],
      "stateMutability": "nonpayable",
      "type": "function"
    },
    {
      "inputs": [
        {
          "internalType": "address",
          "name": "_precrime",
          "type": "address"
        }
      ],
      "name": "setPrecrime",
      "outputs": [],
      "stateMutability": "nonpayable",
      "type": "function"
    },
    {
      "inputs": [
        {
          "internalType": "uint16",
          "name": "_version",
          "type": "uint16"
        }
      ],
      "name": "setReceiveVersion",
      "outputs": [],
      "stateMutability": "nonpayable",
      "type": "function"
    },
    {
      "inputs": [
        {
          "internalType": "uint16",
          "name": "_version",
          "type": "uint16"
        }
      ],
      "name": "setSendVersion",
      "outputs": [],
      "stateMutability": "nonpayable",
      "type": "function"
    },
    {
      "inputs": [
        {
          "internalType": "uint16",
          "name": "_srcChainId",
          "type": "uint16"
        },
        {
          "internalType": "bytes",
          "name": "_path",
          "type": "bytes"
        }
      ],
      "name": "setTrustedRemote",
      "outputs": [],
      "stateMutability": "nonpayable",
      "type": "function"
    },
    {
      "inputs": [
        {
          "internalType": "uint16",
          "name": "_remoteChainId",
          "type": "uint16"
        },
        {
          "internalType": "bytes",
          "name": "_remoteAddress",
          "type": "bytes"
        }
      ],
      "name": "setTrustedRemoteAddress",
      "outputs": [],
      "stateMutability": "nonpayable",
      "type": "function"
    },
    {
      "inputs": [
        {
          "internalType": "bool",
          "name": "_useCustomAdapterParams",
          "type": "bool"
        }
      ],
      "name": "setUseCustomAdapterParams",
      "outputs": [],
      "stateMutability": "nonpayable",
      "type": "function"
    },
    {
      "inputs": [
        {
          "internalType": "bytes4",
          "name": "interfaceId",
          "type": "bytes4"
        }
      ],
      "name": "supportsInterface",
      "outputs": [
        {
          "internalType": "bool",
          "name": "",
          "type": "bool"
        }
      ],
      "stateMutability": "view",
      "type": "function"
    },
    {
      "inputs": [],
      "name": "symbol",
      "outputs": [
        {
          "internalType": "string",
          "name": "",
          "type": "string"
        }
      ],
      "stateMutability": "view",
      "type": "function"
    },
    {
      "inputs": [],
      "name": "token",
      "outputs": [
        {
          "internalType": "address",
          "name": "",
          "type": "address"
        }
      ],
      "stateMutability": "view",
      "type": "function"
    },
    {
      "inputs": [],
      "name": "totalSupply",
      "outputs": [
        {
          "internalType": "uint256",
          "name": "",
          "type": "uint256"
        }
      ],
      "stateMutability": "view",
      "type": "function"
    },
    {
      "inputs": [
        {
          "internalType": "address",
          "name": "to",
          "type": "address"
        },
        {
          "internalType": "uint256",
          "name": "amount",
          "type": "uint256"
        }
      ],
      "name": "transfer",
      "outputs": [
        {
          "internalType": "bool",
          "name": "",
          "type": "bool"
        }
      ],
      "stateMutability": "nonpayable",
      "type": "function"
    },
    {
      "inputs": [
        {
          "internalType": "address",
          "name": "from",
          "type": "address"
        },
        {
          "internalType": "address",
          "name": "to",
          "type": "address"
        },
        {
          "internalType": "uint256",
          "name": "amount",
          "type": "uint256"
        }
      ],
      "name": "transferFrom",
      "outputs": [
        {
          "internalType": "bool",
          "name": "",
          "type": "bool"
        }
      ],
      "stateMutability": "nonpayable",
      "type": "function"
    },
    {
      "inputs": [
        {
          "internalType": "uint16",
          "name": "",
          "type": "uint16"
        }
      ],
      "name": "trustedRemoteLookup",
      "outputs": [
        {
          "internalType": "bytes",
          "name": "",
          "type": "bytes"
        }
      ],
      "stateMutability": "view",
      "type": "function"
    },
    {
      "inputs": [],
      "name": "unpause",
      "outputs": [],
      "stateMutability": "nonpayable",
      "type": "function"
    },
    {
      "inputs": [],
      "name": "useCustomAdapterParams",
      "outputs": [
        {
          "internalType": "bool",
          "name": "",
          "type": "bool"
        }
      ],
      "stateMutability": "view",
      "type": "function"
    }
  ],
  "bytecode": "0x608060405234801561001057600080fd5b50614d20806100206000396000f3fe6080604052600436106103c25760003560e01c80637ecebe00116101f2578063baf3292d1161010d578063dd62ed3e116100a0578063eb8d72b71161006f578063eb8d72b714610ba5578063ed629c5c14610bc5578063f5ecbdbc14610be0578063fc0c546a14610c0057600080fd5b8063dd62ed3e14610b23578063df2a5b3b14610b43578063e63ab1e914610b63578063eab45d9c14610b8557600080fd5b8063cbed8b9c116100dc578063cbed8b9c14610a9c578063d1deba1f14610abc578063d539139314610acf578063d547741f14610b0357600080fd5b8063baf3292d14610a26578063bd3a13f614610a46578063c446183414610a66578063ca15c87314610a7c57600080fd5b80639f38369a11610185578063a6c3d16511610154578063a6c3d165146109b1578063a9059cbb146109d1578063af3fb21c146109f1578063b353aaa714610a0657600080fd5b80639f38369a146109515780639fd5a6cf14610971578063a217fddf146106dc578063a457c2d71461099157600080fd5b806391d14854116101c157806391d14854146108e75780639358928b14610907578063950c8a741461091c57806395d89b411461093c57600080fd5b80637ecebe00146108445780638456cb591461087257806384b0196e146108875780639010d07c146108af57600080fd5b806339509351116102e2578063519056361161027557806370a082311161024457806370a08231146107ad57806372700241146107e45780637533d7881461080457806379cc67901461082457600080fd5b806351905636146107115780635b8c41e6146107245780635c975abb1461077457806366ad5c8a1461078d57600080fd5b806342966c68116102b157806342966c681461069c57806342d65a8d146106bc57806344770515146106dc57806347786d37146106f157600080fd5b806339509351146106275780633d8b38f6146106475780633f4ba83a1461066757806340c10f191461067c57600080fd5b806323b872dd1161035a57806330adf81f1161032957806330adf81f146105a1578063313ce567146105d5578063355274ea146105f157806336568abe1461060757600080fd5b806323b872dd146104fc578063248a9ca31461051c5780632a205e3d1461054c5780632f2ff15d1461058157600080fd5b806307e0db171161039657806307e0db1714610486578063095ea7b3146104a657806310ddb137146104c657806318160ddd146104e657600080fd5b80621d3567146103c757806301ffc9a7146103e957806306fdde031461041e5780630781086714610440575b600080fd5b3480156103d357600080fd5b506103e76103e2366004613d4c565b610c13565b005b3480156103f557600080fd5b50610409610404366004613de1565b610e2f565b60405190151581526020015b60405180910390f35b34801561042a57600080fd5b50610433610e6d565b6040516104159190613e5b565b34801561044c57600080fd5b5061047861045b366004613e6e565b60fc60209081526000928352604080842090915290825290205481565b604051908152602001610415565b34801561049257600080fd5b506103e76104a1366004613e9a565b610f00565b3480156104b257600080fd5b506104096104c1366004613ecc565b610f6f565b3480156104d257600080fd5b506103e76104e1366004613e9a565b610f87565b3480156104f257600080fd5b5061019654610478565b34801561050857600080fd5b50610409610517366004613eea565b610fc5565b34801561052857600080fd5b50610478610537366004613f2b565b60009081526065602052604090206001015490565b34801561055857600080fd5b5061056c610567366004613f54565b610fe9565b60408051928352602083019190915201610415565b34801561058d57600080fd5b506103e761059c366004613ff3565b61109f565b3480156105ad57600080fd5b506104787f6e71edae12b1b97f4d1f60370fef10105fa2faae0126114a169c64845d6126c981565b3480156105e157600080fd5b5060405160128152602001610415565b3480156105fd57600080fd5b5061025e54610478565b34801561061357600080fd5b506103e7610622366004613ff3565b6110c9565b34801561063357600080fd5b50610409610642366004613ecc565b611147565b34801561065357600080fd5b50610409610662366004614023565b611169565b34801561067357600080fd5b506103e7611235565b34801561068857600080fd5b506103e7610697366004613ecc565b6112b7565b3480156106a857600080fd5b506103e76106b7366004613f2b565b6113b0565b3480156106c857600080fd5b506103e76106d7366004614023565b6113bd565b3480156106e857600080fd5b50610478600081565b3480156106fd57600080fd5b506103e761070c366004613f2b565b611429565b6103e761071f366004614077565b61149a565b34801561073057600080fd5b5061047861073f366004614203565b61012e602090815260009384526040808520845180860184018051928152908401958401959095209452929052825290205481565b34801561078057600080fd5b5061022c5460ff16610409565b34801561079957600080fd5b506103e76107a8366004614262565b61151f565b3480156107b957600080fd5b506104786107c83660046142e8565b6001600160a01b03166000908152610194602052604090205490565b3480156107f057600080fd5b506103e76107ff3660046142e8565b61158f565b34801561081057600080fd5b5061043361081f366004613e9a565b611626565b34801561083057600080fd5b506103e761083f366004613ecc565b6116c0565b34801561085057600080fd5b5061047861085f3660046142e8565b6102606020526000908152604090205481565b34801561087e57600080fd5b506103e76116d5565b34801561089357600080fd5b5061089c611755565b6040516104159796959493929190614305565b3480156108bb57600080fd5b506108cf6108ca36600461439b565b6117f5565b6040516001600160a01b039091168152602001610415565b3480156108f357600080fd5b50610409610902366004613ff3565b611814565b34801561091357600080fd5b5061047861183f565b34801561092857600080fd5b5060fd546108cf906001600160a01b031681565b34801561094857600080fd5b50610433611850565b34801561095d57600080fd5b5061043361096c366004613e9a565b611860565b34801561097d57600080fd5b5061040961098c3660046143bd565b61196f565b34801561099d57600080fd5b506104096109ac366004613ecc565b611ade565b3480156109bd57600080fd5b506103e76109cc366004614023565b611b59565b3480156109dd57600080fd5b506104096109ec366004613ecc565b611be4565b3480156109fd57600080fd5b50610478600181565b348015610a1257600080fd5b5060fa546108cf906001600160a01b031681565b348015610a3257600080fd5b506103e7610a413660046142e8565b611bf2565b348015610a5257600080fd5b506103e7610a61366004614432565b611c51565b348015610a7257600080fd5b5061047861271081565b348015610a8857600080fd5b50610478610a97366004613f2b565b611d69565b348015610aa857600080fd5b506103e7610ab73660046144b1565b611d80565b6103e7610aca366004614262565b611df0565b348015610adb57600080fd5b506104787f9f2df0fed2c77648de5860a4cc508cd0818c85b8b8a1ab4ceeef8d981c8956a681565b348015610b0f57600080fd5b506103e7610b1e366004613ff3565b611f44565b348015610b2f57600080fd5b50610478610b3e366004614523565b611f69565b348015610b4f57600080fd5b506103e7610b5e366004614551565b611f95565b348015610b6f57600080fd5b50610478600080516020614ccb83398151915281565b348015610b9157600080fd5b506103e7610ba0366004614581565b612049565b348015610bb157600080fd5b506103e7610bc0366004614023565b612095565b348015610bd157600080fd5b50610161546104099060ff1681565b348015610bec57600080fd5b50610433610bfb36600461459c565b6120f1565b348015610c0c57600080fd5b50306108cf565b60fa546001600160a01b0316336001600160a01b031614610c7b5760405162461bcd60e51b815260206004820152601e60248201527f4c7a4170703a20696e76616c696420656e64706f696e742063616c6c6572000060448201526064015b60405180910390fd5b61ffff8616600090815260fb602052604081208054610c99906145ed565b80601f0160208091040260200160405190810160405280929190818152602001828054610cc5906145ed565b8015610d125780601f10610ce757610100808354040283529160200191610d12565b820191906000526020600020905b815481529060010190602001808311610cf557829003601f168201915b50505050509050805186869050148015610d2d575060008151115b8015610d55575080516020820120604051610d4b9088908890614627565b6040518091039020145b610db05760405162461bcd60e51b815260206004820152602660248201527f4c7a4170703a20696e76616c696420736f757263652073656e64696e6720636f6044820152651b9d1c9858dd60d21b6064820152608401610c72565b610e268787878080601f01602080910402602001604051908101604052809392919081815260200183838082843760009201919091525050604080516020601f8a018190048102820181019092528881528a93509150889088908190840183828082843760009201919091525061218492505050565b50505050505050565b60006001600160e01b031982161580610e5857506001600160e01b031982166336372b0760e01b145b80610e675750610e6782612276565b92915050565b60606101978054610e7d906145ed565b80601f0160208091040260200160405190810160405280929190818152602001828054610ea9906145ed565b8015610ef65780601f10610ecb57610100808354040283529160200191610ef6565b820191906000526020600020905b815481529060010190602001808311610ed957829003601f168201915b5050505050905090565b610f0a600061229b565b60fa546040516307e0db1760e01b815261ffff831660048201526001600160a01b03909116906307e0db17906024015b600060405180830381600087803b158015610f5457600080fd5b505af1158015610f68573d6000803e3d6000fd5b5050505050565b600033610f7d8185856122a5565b5060019392505050565b610f91600061229b565b60fa546040516310ddb13760e01b815261ffff831660048201526001600160a01b03909116906310ddb13790602401610f3a565b600033610fd38582856123ca565b610fde85858561243e565b506001949350505050565b6000806000808989896040516020016110059493929190614660565b60408051601f198184030181529082905260fa5463040a7bb160e41b83529092506001600160a01b0316906340a7bb109061104e908d90309086908c908c908c9060040161468e565b6040805180830381865afa15801561106a573d6000803e3d6000fd5b505050506040513d601f19601f8201168201806040525081019061108e91906146e4565b925092505097509795505050505050565b6000828152606560205260409020600101546110ba8161229b565b6110c483836125f6565b505050565b6001600160a01b03811633146111395760405162461bcd60e51b815260206004820152602f60248201527f416363657373436f6e74726f6c3a2063616e206f6e6c792072656e6f756e636560448201526e103937b632b9903337b91039b2b63360891b6064820152608401610c72565b6111438282612618565b5050565b600033610f7d81858561115a8383611f69565b611164919061471e565b6122a5565b61ffff8316600090815260fb60205260408120805482919061118a906145ed565b80601f01602080910402602001604051908101604052809291908181526020018280546111b6906145ed565b80156112035780601f106111d857610100808354040283529160200191611203565b820191906000526020600020905b8154815290600101906020018083116111e657829003601f168201915b50505050509050838360405161121a929190614627565b60405180910390208180519060200120149150509392505050565b61124d600080516020614ccb83398151915233611814565b6112ad5760405162461bcd60e51b81526020600482015260396024820152600080516020614cab83398151915260448201527f76652070617573657220726f6c6520746f20756e7061757365000000000000006064820152608401610c72565b6112b561263a565b565b6112e17f9f2df0fed2c77648de5860a4cc508cd0818c85b8b8a1ab4ceeef8d981c8956a633611814565b61133a5760405162461bcd60e51b81526020600482015260366024820152600080516020614cab8339815191526044820152751d99481b5a5b9d195c881c9bdb19481d1bc81b5a5b9d60521b6064820152608401610c72565b61025e54156113a65761025e54816113526101965490565b61135c919061471e565b11156113a65760405162461bcd60e51b8152602060048201526019602482015278115490cc8c10d85c1c19590e8818d85c08195e18d959591959603a1b6044820152606401610c72565b611143828261268d565b6113ba338261275c565b50565b6113c7600061229b565b60fa546040516342d65a8d60e01b81526001600160a01b03909116906342d65a8d906113fb90869086908690600401614731565b600060405180830381600087803b15801561141557600080fd5b505af1158015610e26573d6000803e3d6000fd5b611434600033611814565b6114945760405162461bcd60e51b81526020600482015260396024820152600080516020614cab83398151915260448201527f7665206164666d696e20726f6c6520746f2073657420636170000000000000006064820152608401610c72565b61025e55565b611514898989898080601f01602080910402602001604051908101604052809392919081815260200183838082843760009201919091525050604080516020601f8a018190048102820181019092528881528c93508b92508a918a908a908190840183828082843760009201919091525061289f92505050565b505050505050505050565b33301461157d5760405162461bcd60e51b815260206004820152602660248201527f4e6f6e626c6f636b696e674c7a4170703a2063616c6c6572206d7573742062656044820152650204c7a4170760d41b6064820152608401610c72565b61158984848484612946565b50505050565b61159a600033611814565b6115fc576040805162461bcd60e51b8152602060048201526024810191909152600080516020614cab83398151915260448201527f7665206164666d696e20726f6c6520746f2073657420626c61636b206c6973746064820152608401610c72565b6001600160a01b0316600090815261025f60205260409020805460ff19811660ff90911615179055565b60fb602052600090815260409020805461163f906145ed565b80601f016020809104026020016040519081016040528092919081815260200182805461166b906145ed565b80156116b85780601f1061168d576101008083540402835291602001916116b8565b820191906000526020600020905b81548152906001019060200180831161169b57829003601f168201915b505050505081565b6116cb8233836123ca565b611143828261275c565b6116ed600080516020614ccb83398151915233611814565b61174d5760405162461bcd60e51b81526020600482015260376024820152600080516020614cab83398151915260448201527f76652070617573657220726f6c6520746f2070617573650000000000000000006064820152608401610c72565b6112b56129b0565b6000606080600080600060606101f8546000801b14801561177757506101f954155b6117bb5760405162461bcd60e51b81526020600482015260156024820152741152540dcc4c8e88155b9a5b9a5d1a585b1a5e9959605a1b6044820152606401610c72565b6117c36129ee565b6117cb6129fe565b60408051600080825260208201909252600f60f81b9b939a50919850469750309650945092509050565b600082815260976020526040812061180d9083612a0e565b9392505050565b60009182526065602090815260408084206001600160a01b0393909316845291905290205460ff1690565b600061184b6101965490565b905090565b60606101988054610e7d906145ed565b61ffff8116600090815260fb6020526040812080546060929190611883906145ed565b80601f01602080910402602001604051908101604052809291908181526020018280546118af906145ed565b80156118fc5780601f106118d1576101008083540402835291602001916118fc565b820191906000526020600020905b8154815290600101906020018083116118df57829003601f168201915b5050505050905080516000036119545760405162461bcd60e51b815260206004820152601d60248201527f4c7a4170703a206e6f20747275737465642070617468207265636f72640000006044820152606401610c72565b61180d600060148351611967919061474f565b839190612a1a565b6000428310156119ac5760405162461bcd60e51b8152602060048201526008602482015267657870697265642160c01b6044820152606401610c72565b6001600160a01b03861660009081526102606020526040812080547f6e71edae12b1b97f4d1f60370fef10105fa2faae0126114a169c64845d6126c99189918991899190866119fa83614762565b909155506040805160208101969096526001600160a01b0394851690860152929091166060840152608083015260a082015260c0810185905260e0016040516020818303038152906040528051906020012090506000611a5982612b27565b9050876001600160a01b0316611a6f8286612b54565b6001600160a01b031614611ac55760405162461bcd60e51b815260206004820152601960248201527f5065726d69743a20696e76616c6964207369676e6174757265000000000000006044820152606401610c72565b611ad08888886123ca565b506001979650505050505050565b60003381611aec8286611f69565b905083811015611b4c5760405162461bcd60e51b815260206004820152602560248201527f45524332303a2064656372656173656420616c6c6f77616e63652062656c6f77604482015264207a65726f60d81b6064820152608401610c72565b610fde82868684036122a5565b611b63600061229b565b818130604051602001611b789392919061477b565b60408051601f1981840301815291815261ffff8516600090815260fb6020522090611ba390826147e7565b507f8c0400cfe2d1199b1a725c78960bcc2a344d869b80590d0f2bd005db15a572ce838383604051611bd793929190614731565b60405180910390a1505050565b600033610f7d81858561243e565b611bfc600061229b565b60fd80546001600160a01b0319166001600160a01b0383169081179091556040519081527f5db758e995a17ec1ad84bdef7e8c3293a0bd6179bcce400dff5d4c3d87db726b906020015b60405180910390a150565b600054610100900460ff1615808015611c715750600054600160ff909116105b80611c8b5750303b158015611c8b575060005460ff166001145b611cee5760405162461bcd60e51b815260206004820152602e60248201527f496e697469616c697a61626c653a20636f6e747261637420697320616c72656160448201526d191e481a5b9a5d1a585b1a5e995960921b6064820152608401610c72565b6000805460ff191660011790558015611d11576000805461ff0019166101001790555b611d1d85858585612b78565b8015610f68576000805461ff0019169055604051600181527f7f26b83ff96e1f2b6a682f133852f6798a09c465da95921460cefb38474024989060200160405180910390a15050505050565b6000818152609760205260408120610e6790612bdc565b611d8a600061229b565b60fa546040516332fb62e760e21b81526001600160a01b039091169063cbed8b9c90611dc290889088908890889088906004016148a6565b600060405180830381600087803b158015611ddc57600080fd5b505af1158015611514573d6000803e3d6000fd5b61ffff8416600090815261012e60205260408082209051611e129086906148df565b90815260408051602092819003830190206001600160401b03861660009081529252902054905080611e925760405162461bcd60e51b815260206004820152602360248201527f4e6f6e626c6f636b696e674c7a4170703a206e6f2073746f726564206d65737360448201526261676560e81b6064820152608401610c72565b815160208301208114611ef15760405162461bcd60e51b815260206004820152602160248201527f4e6f6e626c6f636b696e674c7a4170703a20696e76616c6964207061796c6f616044820152601960fa1b6064820152608401610c72565b61ffff8516600090815261012e60205260408082209051611f139087906148df565b90815260408051602092819003830190206001600160401b03871660009081529252902055610f6885858585612946565b600082815260656020526040902060010154611f5f8161229b565b6110c48383612618565b6001600160a01b0391821660009081526101956020908152604080832093909416825291909152205490565b611f9f600061229b565b60008111611fe75760405162461bcd60e51b81526020600482015260156024820152744c7a4170703a20696e76616c6964206d696e47617360581b6044820152606401610c72565b61ffff838116600081815260fc602090815260408083209487168084529482529182902085905581519283528201929092529081018290527f9d5c7c0b934da8fefa9c7760c98383778a12dfbfc0c3b3106518f43fb9508ac090606001611bd7565b612053600061229b565b610161805460ff19168215159081179091556040519081527f1584ad594a70cbe1e6515592e1272a987d922b097ead875069cebe8b40c004a490602001611c46565b61209f600061229b565b61ffff8316600090815260fb602052604090206120bd8284836148fb565b507ffa41487ad5d6728f0b19276fa1eddc16558578f5109fc39d2dc33c3230470dab838383604051611bd793929190614731565b60fa54604051633d7b2f6f60e21b815261ffff808716600483015285166024820152306044820152606481018390526060916001600160a01b03169063f5ecbdbc90608401600060405180830381865afa158015612153573d6000803e3d6000fd5b505050506040513d6000823e601f3d908101601f1916820160405261217b9190810190614a07565b95945050505050565b604051633356ae4560e11b815230906366ad5c8a906121ad908790879087908790600401614a3b565b600060405180830381600087803b1580156121c757600080fd5b505af19250505080156121d8575060015b61158957808051906020012061012e60008661ffff1661ffff1681526020019081526020016000208460405161220e91906148df565b9081526040805191829003602090810183206001600160401b0387166000908152915220919091557fe6f254030bcb01ffd20558175c13fcaed6d1520be7becee4c961b65f79243b0d90612269908690869086908690614a3b565b60405180910390a1611589565b60006001600160e01b03198216635a05180f60e01b1480610e675750610e6782612be6565b6113ba8133612c1b565b6001600160a01b0383166123075760405162461bcd60e51b8152602060048201526024808201527f45524332303a20617070726f76652066726f6d20746865207a65726f206164646044820152637265737360e01b6064820152608401610c72565b6001600160a01b0382166123685760405162461bcd60e51b815260206004820152602260248201527f45524332303a20617070726f766520746f20746865207a65726f206164647265604482015261737360f01b6064820152608401610c72565b6001600160a01b038381166000818152610195602090815260408083209487168084529482529182902085905590518481527f8c5be1e5ebec7d5bd14f71427d1e84f3dd0314c0f7b2291e5b200ac8c7c3b925910160405180910390a3505050565b60006123d68484611f69565b9050600019811461158957818110156124315760405162461bcd60e51b815260206004820152601d60248201527f45524332303a20696e73756666696369656e7420616c6c6f77616e63650000006044820152606401610c72565b61158984848484036122a5565b6001600160a01b0383166124a25760405162461bcd60e51b815260206004820152602560248201527f45524332303a207472616e736665722066726f6d20746865207a65726f206164604482015264647265737360d81b6064820152608401610c72565b6001600160a01b0382166125045760405162461bcd60e51b815260206004820152602360248201527f45524332303a207472616e7366657220746f20746865207a65726f206164647260448201526265737360e81b6064820152608401610c72565b61250f838383612c74565b6001600160a01b03831660009081526101946020526040902054818110156125885760405162461bcd60e51b815260206004820152602660248201527f45524332303a207472616e7366657220616d6f756e7420657863656564732062604482015265616c616e636560d01b6064820152608401610c72565b6001600160a01b038085166000818152610194602052604080822086860390559286168082529083902080548601905591517fddf252ad1be2c89b69c2b068fc378daa952ba7f163c4a11628f55a4df523b3ef906125e99086815260200190565b60405180910390a3611589565b6126008282612e06565b60008281526097602052604090206110c49082612e8c565b6126228282612ea1565b60008281526097602052604090206110c49082612f08565b612642612f1d565b61022c805460ff191690557f5db9ee0a495bf2e6ff9c91a7834c1ba4fdd244a5e8aa4e537bd38aeae4b073aa335b6040516001600160a01b03909116815260200160405180910390a1565b6001600160a01b0382166126e35760405162461bcd60e51b815260206004820152601f60248201527f45524332303a206d696e7420746f20746865207a65726f2061646472657373006044820152606401610c72565b6126ef60008383612c74565b806101966000828254612702919061471e565b90915550506001600160a01b038216600081815261019460209081526040808320805486019055518481527fddf252ad1be2c89b69c2b068fc378daa952ba7f163c4a11628f55a4df523b3ef910160405180910390a35050565b6001600160a01b0382166127bc5760405162461bcd60e51b815260206004820152602160248201527f45524332303a206275726e2066726f6d20746865207a65726f206164647265736044820152607360f81b6064820152608401610c72565b6127c882600083612c74565b6001600160a01b038216600090815261019460205260409020548181101561283d5760405162461bcd60e51b815260206004820152602260248201527f45524332303a206275726e20616d6f756e7420657863656564732062616c616e604482015261636560f01b6064820152608401610c72565b6001600160a01b038316600081815261019460209081526040808320868603905561019680548790039055518581529192917fddf252ad1be2c89b69c2b068fc378daa952ba7f163c4a11628f55a4df523b3ef910160405180910390a3505050565b6128ad866000836000612f67565b60006128bb88888888612fe2565b905060008087836040516020016128d493929190614a79565b60405160208183030381529060405290506128f3888287878734613014565b886001600160a01b03168861ffff167f39a4c66499bcf4b56d79f0dde8ed7a9d4925a0df55825206b2b8531e202be0d08985604051612933929190614aa5565b60405180910390a3505050505050505050565b602081015161ffff81166000036129685761296385858585613192565b610f68565b60405162461bcd60e51b815260206004820152601c60248201527f4f4654436f72653a20756e6b6e6f776e207061636b65742074797065000000006044820152606401610c72565b6129b861321c565b61022c805460ff191660011790557f62e78cea01bee320cd4e420270b5ea74000d11b0c9f74754ebdbfc544b05a2586126703390565b60606101fa8054610e7d906145ed565b60606101fb8054610e7d906145ed565b600061180d8383613263565b606081612a2881601f61471e565b1015612a675760405162461bcd60e51b815260206004820152600e60248201526d736c6963655f6f766572666c6f7760901b6044820152606401610c72565b612a71828461471e565b84511015612ab55760405162461bcd60e51b8152602060048201526011602482015270736c6963655f6f75744f66426f756e647360781b6044820152606401610c72565b606082158015612ad45760405191506000825260208201604052612b1e565b6040519150601f8416801560200281840101858101878315602002848b0101015b81831015612b0d578051835260209283019201612af5565b5050858452601f01601f1916604052505b50949350505050565b6000610e67612b3461328d565b8360405161190160f01b8152600281019290925260228201526042902090565b6000806000612b638585613297565b91509150612b70816132dc565b509392505050565b600054610100900460ff16612b9f5760405162461bcd60e51b8152600401610c7290614ac7565b612baa848483613426565b612bd08460405180604001604052806004815260200163076312e360e41b815250613460565b61158984848484613491565b6000610e67825490565b60006001600160e01b03198216637965db0b60e01b1480610e6757506301ffc9a760e01b6001600160e01b0319831614610e67565b612c258282611814565b61114357612c32816134c2565b612c3d8360206134d4565b604051602001612c4e929190614b12565b60408051601f198184030181529082905262461bcd60e51b8252610c7291600401613e5b565b6001600160a01b038316600090815261025f602052604090205460ff16158015612cb857506001600160a01b038216600090815261025f602052604090205460ff16155b612d145760405162461bcd60e51b815260206004820152602760248201527f45524332305061757361626c653a206163636f756e7420697320696e20626c6160448201526618dac81b1a5cdd60ca1b6064820152608401610c72565b61022c5460ff1615612d7b5760405162461bcd60e51b815260206004820152602a60248201527f45524332305061757361626c653a20746f6b656e207472616e736665722077686044820152691a5b19481c185d5cd95960b21b6064820152608401610c72565b6001600160a01b0383166110c45761025e541580612dbe5750600061025e54118015612dbe575061025e5481612db16101965490565b612dbb919061471e565b11155b6110c45760405162461bcd60e51b8152602060048201526019602482015278115490cc8c10d85c1c19590e8818d85c08195e18d959591959603a1b6044820152606401610c72565b612e108282611814565b6111435760008281526065602090815260408083206001600160a01b03851684529091529020805460ff19166001179055612e483390565b6001600160a01b0316816001600160a01b0316837f2f8788117e7eff1d82e926ec794901d17c78024a50270940304540a733656f0d60405160405180910390a45050565b600061180d836001600160a01b03841661366f565b612eab8282611814565b156111435760008281526065602090815260408083206001600160a01b0385168085529252808320805460ff1916905551339285917ff6391f5c32d9c69d2a47ea670b442974b53935d1edc7fd64eb21e047a839171b9190a45050565b600061180d836001600160a01b0384166136be565b61022c5460ff166112b55760405162461bcd60e51b815260206004820152601460248201527314185d5cd8589b194e881b9bdd081c185d5cd95960621b6044820152606401610c72565b6101615460ff1615612f8457612f7f848484846137b1565b611589565b8151156115895760405162461bcd60e51b815260206004820152602660248201527f4f4654436f72653a205f61646170746572506172616d73206d7573742062652060448201526532b6b83a3c9760d11b6064820152608401610c72565b6000336001600160a01b0386168114613000576130008682856123ca565b61300a868461275c565b5090949350505050565b61ffff8616600090815260fb602052604081208054613032906145ed565b80601f016020809104026020016040519081016040528092919081815260200182805461305e906145ed565b80156130ab5780601f10613080576101008083540402835291602001916130ab565b820191906000526020600020905b81548152906001019060200180831161308e57829003601f168201915b50505050509050805160000361311c5760405162461bcd60e51b815260206004820152603060248201527f4c7a4170703a2064657374696e6174696f6e20636861696e206973206e6f742060448201526f61207472757374656420736f7572636560801b6064820152608401610c72565b60fa5460405162c5803160e81b81526001600160a01b039091169063c5803100908490613157908b9086908c908c908c908c90600401614b87565b6000604051808303818588803b15801561317057600080fd5b505af1158015613184573d6000803e3d6000fd5b505050505050505050505050565b600080828060200190518101906131a99190614be1565b9093509150600090506131bc8382613898565b90506131c98782846138fd565b9150806001600160a01b03168761ffff167fbf551ec93859b170f9b2141bd9298bf3f64322c6f7beb2543a0cb669834118bf8460405161320b91815260200190565b60405180910390a350505050505050565b61022c5460ff16156112b55760405162461bcd60e51b815260206004820152601060248201526f14185d5cd8589b194e881c185d5cd95960821b6044820152606401610c72565b600082600001828154811061327a5761327a614c3a565b9060005260206000200154905092915050565b600061184b613910565b60008082516041036132cd5760208301516040840151606085015160001a6132c187828585613984565b945094505050506132d5565b506000905060025b9250929050565b60008160048111156132f0576132f0614c50565b036132f85750565b600181600481111561330c5761330c614c50565b036133595760405162461bcd60e51b815260206004820152601860248201527f45434453413a20696e76616c6964207369676e617475726500000000000000006044820152606401610c72565b600281600481111561336d5761336d614c50565b036133ba5760405162461bcd60e51b815260206004820152601f60248201527f45434453413a20696e76616c6964207369676e6174757265206c656e677468006044820152606401610c72565b60038160048111156133ce576133ce614c50565b036113ba5760405162461bcd60e51b815260206004820152602260248201527f45434453413a20696e76616c6964207369676e6174757265202773272076616c604482015261756560f01b6064820152608401610c72565b600054610100900460ff1661344d5760405162461bcd60e51b8152600401610c7290614ac7565b6134578383613a48565b6110c481613a8a565b600054610100900460ff166134875760405162461bcd60e51b8152600401610c7290614ac7565b6111438282613aba565b600054610100900460ff166134b85760405162461bcd60e51b8152600401610c7290614ac7565b611589338361268d565b6060610e676001600160a01b03831660145b606060006134e3836002614c66565b6134ee90600261471e565b6001600160401b0381111561350557613505614140565b6040519080825280601f01601f19166020018201604052801561352f576020820181803683370190505b509050600360fc1b8160008151811061354a5761354a614c3a565b60200101906001600160f81b031916908160001a905350600f60fb1b8160018151811061357957613579614c3a565b60200101906001600160f81b031916908160001a905350600061359d846002614c66565b6135a890600161471e565b90505b6001811115613620576f181899199a1a9b1b9c1cb0b131b232b360811b85600f16601081106135dc576135dc614c3a565b1a60f81b8282815181106135f2576135f2614c3a565b60200101906001600160f81b031916908160001a90535060049490941c9361361981614c7d565b90506135ab565b50831561180d5760405162461bcd60e51b815260206004820181905260248201527f537472696e67733a20686578206c656e67746820696e73756666696369656e746044820152606401610c72565b60008181526001830160205260408120546136b657508154600181810184556000848152602080822090930184905584548482528286019093526040902091909155610e67565b506000610e67565b600081815260018301602052604081205480156137a75760006136e260018361474f565b85549091506000906136f69060019061474f565b905081811461375b57600086600001828154811061371657613716614c3a565b906000526020600020015490508087600001848154811061373957613739614c3a565b6000918252602080832090910192909255918252600188019052604090208390555b855486908061376c5761376c614c94565b600190038181906000526020600020016000905590558560010160008681526020019081526020016000206000905560019350505050610e67565b6000915050610e67565b60006137bc83613b0d565b61ffff808716600090815260fc60209081526040808320938916835292905290812054919250906137ee90849061471e565b9050600081116138405760405162461bcd60e51b815260206004820152601a60248201527f4c7a4170703a206d696e4761734c696d6974206e6f74207365740000000000006044820152606401610c72565b808210156138905760405162461bcd60e51b815260206004820152601b60248201527f4c7a4170703a20676173206c696d697420697320746f6f206c6f7700000000006044820152606401610c72565b505050505050565b60006138a582601461471e565b835110156138ed5760405162461bcd60e51b8152602060048201526015602482015274746f416464726573735f6f75744f66426f756e647360581b6044820152606401610c72565b500160200151600160601b900490565b6000613909838361268d565b5092915050565b60007f8b73c3c69bb8fe3d512ecc4cf759cc79239f7b179b0ffacaa9a75d522b39400f61393b613b69565b613943613bc3565b60408051602081019490945283019190915260608201524660808201523060a082015260c00160405160208183030381529060405280519060200120905090565b6000807f7fffffffffffffffffffffffffffffff5d576e7357a4501ddfe92f46681b20a08311156139bb5750600090506003613a3f565b6040805160008082526020820180845289905260ff881692820192909252606081018690526080810185905260019060a0016020604051602081039080840390855afa158015613a0f573d6000803e3d6000fd5b5050604051601f1901519150506001600160a01b038116613a3857600060019250925050613a3f565b9150600090505b94509492505050565b600054610100900460ff16613a6f5760405162461bcd60e51b8152600401610c7290614ac7565b610197613a7c83826147e7565b506101986110c482826147e7565b600054610100900460ff16613ab15760405162461bcd60e51b8152600401610c7290614ac7565b6113ba81613bf5565b600054610100900460ff16613ae15760405162461bcd60e51b8152600401610c7290614ac7565b6101fa613aee83826147e7565b506101fb613afc82826147e7565b505060006101f88190556101f95550565b6000602282511015613b615760405162461bcd60e51b815260206004820152601c60248201527f4c7a4170703a20696e76616c69642061646170746572506172616d73000000006044820152606401610c72565b506022015190565b600080613b746129ee565b805190915015613b8b578051602090910120919050565b6101f8548015613b9b5792915050565b7fc5d2460186f7233c927e7db2dcc703c0e500b653ca82273b7bfad8045d85a4709250505090565b600080613bce6129fe565b805190915015613be5578051602090910120919050565b6101f9548015613b9b5792915050565b600054610100900460ff16613c1c5760405162461bcd60e51b8152600401610c7290614ac7565b6113ba81600054610100900460ff16613c475760405162461bcd60e51b8152600401610c7290614ac7565b60fa80546001600160a01b0319166001600160a01b0383161790556113ba600054610100900460ff16613c8c5760405162461bcd60e51b8152600401610c7290614ac7565b613c97600033613cd5565b613cc17f9f2df0fed2c77648de5860a4cc508cd0818c85b8b8a1ab4ceeef8d981c8956a633613cd5565b6112b5600080516020614ccb833981519152335b61114382826125f6565b61ffff811681146113ba57600080fd5b60008083601f840112613d0157600080fd5b5081356001600160401b03811115613d1857600080fd5b6020830191508360208285010111156132d557600080fd5b80356001600160401b0381168114613d4757600080fd5b919050565b60008060008060008060808789031215613d6557600080fd5b8635613d7081613cdf565b955060208701356001600160401b0380821115613d8c57600080fd5b613d988a838b01613cef565b9097509550859150613dac60408a01613d30565b94506060890135915080821115613dc257600080fd5b50613dcf89828a01613cef565b979a9699509497509295939492505050565b600060208284031215613df357600080fd5b81356001600160e01b03198116811461180d57600080fd5b60005b83811015613e26578181015183820152602001613e0e565b50506000910152565b60008151808452613e47816020860160208601613e0b565b601f01601f19169290920160200192915050565b60208152600061180d6020830184613e2f565b60008060408385031215613e8157600080fd5b8235613e8c81613cdf565b946020939093013593505050565b600060208284031215613eac57600080fd5b813561180d81613cdf565b6001600160a01b03811681146113ba57600080fd5b60008060408385031215613edf57600080fd5b8235613e8c81613eb7565b600080600060608486031215613eff57600080fd5b8335613f0a81613eb7565b92506020840135613f1a81613eb7565b929592945050506040919091013590565b600060208284031215613f3d57600080fd5b5035919050565b80358015158114613d4757600080fd5b600080600080600080600060a0888a031215613f6f57600080fd5b8735613f7a81613cdf565b965060208801356001600160401b0380821115613f9657600080fd5b613fa28b838c01613cef565b909850965060408a01359550869150613fbd60608b01613f44565b945060808a0135915080821115613fd357600080fd5b50613fe08a828b01613cef565b989b979a50959850939692959293505050565b6000806040838503121561400657600080fd5b82359150602083013561401881613eb7565b809150509250929050565b60008060006040848603121561403857600080fd5b833561404381613cdf565b925060208401356001600160401b0381111561405e57600080fd5b61406a86828701613cef565b9497909650939450505050565b600080600080600080600080600060e08a8c03121561409557600080fd5b89356140a081613eb7565b985060208a01356140b081613cdf565b975060408a01356001600160401b03808211156140cc57600080fd5b6140d88d838e01613cef565b909950975060608c0135965060808c013591506140f482613eb7565b90945060a08b01359061410682613eb7565b90935060c08b0135908082111561411c57600080fd5b506141298c828d01613cef565b915080935050809150509295985092959850929598565b634e487b7160e01b600052604160045260246000fd5b604051601f8201601f191681016001600160401b038111828210171561417e5761417e614140565b604052919050565b60006001600160401b0382111561419f5761419f614140565b50601f01601f191660200190565b600082601f8301126141be57600080fd5b81356141d16141cc82614186565b614156565b8181528460208386010111156141e657600080fd5b816020850160208301376000918101602001919091529392505050565b60008060006060848603121561421857600080fd5b833561422381613cdf565b925060208401356001600160401b0381111561423e57600080fd5b61424a868287016141ad565b92505061425960408501613d30565b90509250925092565b6000806000806080858703121561427857600080fd5b843561428381613cdf565b935060208501356001600160401b038082111561429f57600080fd5b6142ab888389016141ad565b94506142b960408801613d30565b935060608701359150808211156142cf57600080fd5b506142dc878288016141ad565b91505092959194509250565b6000602082840312156142fa57600080fd5b813561180d81613eb7565b60ff60f81b881681526000602060e08184015261432560e084018a613e2f565b8381036040850152614337818a613e2f565b606085018990526001600160a01b038816608086015260a0850187905284810360c0860152855180825283870192509083019060005b818110156143895783518352928401929184019160010161436d565b50909c9b505050505050505050505050565b600080604083850312156143ae57600080fd5b50508035926020909101359150565b600080600080600060a086880312156143d557600080fd5b85356143e081613eb7565b945060208601356143f081613eb7565b9350604086013592506060860135915060808601356001600160401b0381111561441957600080fd5b614425888289016141ad565b9150509295509295909350565b6000806000806080858703121561444857600080fd5b84356001600160401b038082111561445f57600080fd5b61446b888389016141ad565b9550602087013591508082111561448157600080fd5b5061448e878288016141ad565b9350506040850135915060608501356144a681613eb7565b939692955090935050565b6000806000806000608086880312156144c957600080fd5b85356144d481613cdf565b945060208601356144e481613cdf565b93506040860135925060608601356001600160401b0381111561450657600080fd5b61451288828901613cef565b969995985093965092949392505050565b6000806040838503121561453657600080fd5b823561454181613eb7565b9150602083013561401881613eb7565b60008060006060848603121561456657600080fd5b833561457181613cdf565b92506020840135613f1a81613cdf565b60006020828403121561459357600080fd5b61180d82613f44565b600080600080608085870312156145b257600080fd5b84356145bd81613cdf565b935060208501356145cd81613cdf565b925060408501356145dd81613eb7565b9396929550929360600135925050565b600181811c9082168061460157607f821691505b60208210810361462157634e487b7160e01b600052602260045260246000fd5b50919050565b8183823760009101908152919050565b81835281816020850137506000828201602090810191909152601f909101601f19169091010190565b60ff8516815260606020820152600061467d606083018587614637565b905082604083015295945050505050565b61ffff871681526001600160a01b038616602082015260a0604082018190526000906146bc90830187613e2f565b851515606084015282810360808401526146d7818587614637565b9998505050505050505050565b600080604083850312156146f757600080fd5b505080516020909101519092909150565b634e487b7160e01b600052601160045260246000fd5b80820180821115610e6757610e67614708565b61ffff8416815260406020820152600061217b604083018486614637565b81810381811115610e6757610e67614708565b60006001820161477457614774614708565b5060010190565b8284823760609190911b6bffffffffffffffffffffffff19169101908152601401919050565b601f8211156110c457600081815260208120601f850160051c810160208610156147c85750805b601f850160051c820191505b81811015613890578281556001016147d4565b81516001600160401b0381111561480057614800614140565b6148148161480e84546145ed565b846147a1565b602080601f83116001811461484957600084156148315750858301515b600019600386901b1c1916600185901b178555613890565b600085815260208120601f198616915b8281101561487857888601518255948401946001909101908401614859565b50858210156148965787850151600019600388901b60f8161c191681555b5050505050600190811b01905550565b600061ffff8088168352808716602084015250846040830152608060608301526148d4608083018486614637565b979650505050505050565b600082516148f1818460208701613e0b565b9190910192915050565b6001600160401b0383111561491257614912614140565b6149268361492083546145ed565b836147a1565b6000601f84116001811461495a57600085156149425750838201355b600019600387901b1c1916600186901b178355610f68565b600083815260209020601f19861690835b8281101561498b578685013582556020948501946001909201910161496b565b50868210156149a85760001960f88860031b161c19848701351681555b505060018560011b0183555050505050565b600082601f8301126149cb57600080fd5b81516149d96141cc82614186565b8181528460208386010111156149ee57600080fd5b6149ff826020830160208701613e0b565b949350505050565b600060208284031215614a1957600080fd5b81516001600160401b03811115614a2f57600080fd5b6149ff848285016149ba565b61ffff85168152608060208201526000614a586080830186613e2f565b6001600160401b038516604084015282810360608401526148d48185613e2f565b60ff84168152606060208201526000614a956060830185613e2f565b9050826040830152949350505050565b604081526000614ab86040830185613e2f565b90508260208301529392505050565b6020808252602b908201527f496e697469616c697a61626c653a20636f6e7472616374206973206e6f74206960408201526a6e697469616c697a696e6760a81b606082015260800190565b7f416363657373436f6e74726f6c3a206163636f756e7420000000000000000000815260008351614b4a816017850160208801613e0b565b7001034b99036b4b9b9b4b733903937b6329607d1b6017918401918201528351614b7b816028840160208801613e0b565b01602801949350505050565b61ffff8716815260c060208201526000614ba460c0830188613e2f565b8281036040840152614bb68188613e2f565b6001600160a01b0387811660608601528616608085015283810360a085015290506146d78185613e2f565b600080600060608486031215614bf657600080fd5b8351614c0181613cdf565b60208501519093506001600160401b03811115614c1d57600080fd5b614c29868287016149ba565b925050604084015190509250925092565b634e487b7160e01b600052603260045260246000fd5b634e487b7160e01b600052602160045260246000fd5b8082028115828204841417610e6757610e67614708565b600081614c8c57614c8c614708565b506000190190565b634e487b7160e01b600052603160045260246000fdfe45524332305072657365744d696e7465725061757365723a206d75737420686165d7a28e3265b37a6474929f336521b332c1681b933f6cb9f3376673440d862aa264697066735822122084593f4f7edafb3449929a0c69df3a1f01b7bdeb6dfcbb9a1183e4ef57e607b964736f6c63430008130033",
  "linkReferences": {},
  "deployedLinkReferences": {}
}