{"contracts/oft/ProxyOFT.sol":{"ProxyOFT":{"abi":[{"anonymous":false,"inputs":[{"indexed":false,"internalType":"uint8","name":"version","type":"uint8"}],"name":"Initialized","type":"event"},{"anonymous":false,"inputs":[{"indexed":false,"internalType":"uint16","name":"_srcChainId","type":"uint16"},{"indexed":false,"internalType":"bytes","name":"_srcAddress","type":"bytes"},{"indexed":false,"internalType":"uint64","name":"_nonce","type":"uint64"},{"indexed":false,"internalType":"bytes","name":"_payload","type":"bytes"}],"name":"MessageFailed","type":"event"},{"anonymous":false,"inputs":[{"indexed":true,"internalType":"address","name":"_srcToken","type":"address"},{"indexed":true,"internalType":"uint16","name":"_srcChainId","type":"uint16"},{"indexed":true,"internalType":"address","name":"_to","type":"address"},{"indexed":false,"internalType":"uint256","name":"_amount","type":"uint256"}],"name":"ReceiveFromChain","type":"event"},{"anonymous":false,"inputs":[{"indexed":true,"internalType":"bytes32","name":"role","type":"bytes32"},{"indexed":true,"internalType":"bytes32","name":"previousAdminRole","type":"bytes32"},{"indexed":true,"internalType":"bytes32","name":"newAdminRole","type":"bytes32"}],"name":"RoleAdminChanged","type":"event"},{"anonymous":false,"inputs":[{"indexed":true,"internalType":"bytes32","name":"role","type":"bytes32"},{"indexed":true,"internalType":"address","name":"account","type":"address"},{"indexed":true,"internalType":"address","name":"sender","type":"address"}],"name":"RoleGranted","type":"event"},{"anonymous":false,"inputs":[{"indexed":true,"internalType":"bytes32","name":"role","type":"bytes32"},{"indexed":true,"internalType":"address","name":"account","type":"address"},{"indexed":true,"internalType":"address","name":"sender","type":"address"}],"name":"RoleRevoked","type":"event"},{"anonymous":false,"inputs":[{"indexed":true,"internalType":"uint16","name":"_dstChainId","type":"uint16"},{"indexed":true,"internalType":"address","name":"_token","type":"address"},{"indexed":true,"internalType":"address","name":"_from","type":"address"},{"indexed":false,"internalType":"bytes","name":"_toAddress","type":"bytes"},{"indexed":false,"internalType":"uint256","name":"_amount","type":"uint256"}],"name":"SendToChain","type":"event"},{"anonymous":false,"inputs":[{"indexed":false,"internalType":"uint16","name":"_dstChainId","type":"uint16"},{"indexed":false,"internalType":"uint16","name":"_type","type":"uint16"},{"indexed":false,"internalType":"uint256","name":"_minDstGas","type":"uint256"}],"name":"SetMinDstGas","type":"event"},{"anonymous":false,"inputs":[{"indexed":false,"internalType":"uint16","name":"_dstChainId","type":"uint16"},{"indexed":false,"internalType":"uint256","name":"_type","type":"uint256"},{"indexed":false,"internalType":"uint256","name":"_dstGasAmount","type":"uint256"}],"name":"SetMinDstGasLookup","type":"event"},{"anonymous":false,"inputs":[{"indexed":false,"internalType":"address","name":"precrime","type":"address"}],"name":"SetPrecrime","type":"event"},{"anonymous":false,"inputs":[{"indexed":false,"internalType":"uint16","name":"_srcChainId","type":"uint16"},{"indexed":false,"internalType":"bytes","name":"_srcAddress","type":"bytes"}],"name":"SetTrustedRemote","type":"event"},{"anonymous":false,"inputs":[{"indexed":false,"internalType":"uint16","name":"_remoteChainId","type":"uint16"},{"indexed":false,"internalType":"bytes","name":"_remoteAddress","type":"bytes"}],"name":"SetTrustedRemoteAddress","type":"event"},{"anonymous":false,"inputs":[{"indexed":false,"internalType":"bool","name":"_useCustomAdapterParams","type":"bool"}],"name":"SetUseCustomAdapterParams","type":"event"},{"inputs":[],"name":"DEFAULT_ADMIN_ROLE","outputs":[{"internalType":"bytes32","name":"","type":"bytes32"}],"stateMutability":"view","type":"function"},{"inputs":[],"name":"DEFAULT_PAYLOAD_SIZE_LIMIT","outputs":[{"internalType":"uint256","name":"","type":"uint256"}],"stateMutability":"view","type":"function"},{"inputs":[],"name":"FUNCTION_TYPE_SEND","outputs":[{"internalType":"uint256","name":"","type":"uint256"}],"stateMutability":"view","type":"function"},{"inputs":[],"name":"NO_EXTRA_GAS","outputs":[{"internalType":"uint256","name":"","type":"uint256"}],"stateMutability":"view","type":"function"},{"inputs":[{"internalType":"uint16","name":"srcChainId","type":"uint16"},{"internalType":"address","name":"srcToken","type":"address"},{"internalType":"address","name":"dstToken","type":"address"}],"name":"addTokenMapping","outputs":[],"stateMutability":"nonpayable","type":"function"},{"inputs":[],"name":"circulatingSupply","outputs":[{"internalType":"uint256","name":"","type":"uint256"}],"stateMutability":"view","type":"function"},{"inputs":[{"internalType":"address","name":"token","type":"address"},{"internalType":"uint16","name":"_dstChainId","type":"uint16"},{"internalType":"bytes","name":"_toAddress","type":"bytes"},{"internalType":"uint256","name":"_amount","type":"uint256"}],"name":"estimateSendFee","outputs":[{"internalType":"uint256","name":"nativeFee","type":"uint256"},{"internalType":"uint256","name":"zroFee","type":"uint256"}],"stateMutability":"view","type":"function"},{"inputs":[{"internalType":"uint16","name":"","type":"uint16"},{"internalType":"bytes","name":"","type":"bytes"},{"internalType":"uint64","name":"","type":"uint64"}],"name":"failedMessages","outputs":[{"internalType":"bytes32","name":"","type":"bytes32"}],"stateMutability":"view","type":"function"},{"inputs":[{"internalType":"uint16","name":"_srcChainId","type":"uint16"},{"internalType":"bytes","name":"_srcAddress","type":"bytes"}],"name":"forceResumeReceive","outputs":[],"stateMutability":"nonpayable","type":"function"},{"inputs":[],"name":"getAllLane","outputs":[{"components":[{"internalType":"uint16","name":"srcChainId","type":"uint16"},{"internalType":"address","name":"srcToken","type":"address"},{"internalType":"address","name":"dstToken","type":"address"}],"internalType":"struct ProxyOFT.LaneDetail[]","name":"","type":"tuple[]"}],"stateMutability":"view","type":"function"},{"inputs":[{"internalType":"uint16","name":"_version","type":"uint16"},{"internalType":"uint16","name":"_chainId","type":"uint16"},{"internalType":"address","name":"","type":"address"},{"internalType":"uint256","name":"_configType","type":"uint256"}],"name":"getConfig","outputs":[{"internalType":"bytes","name":"","type":"bytes"}],"stateMutability":"view","type":"function"},{"inputs":[{"internalType":"bytes32","name":"role","type":"bytes32"}],"name":"getRoleAdmin","outputs":[{"internalType":"bytes32","name":"","type":"bytes32"}],"stateMutability":"view","type":"function"},{"inputs":[{"internalType":"bytes32","name":"role","type":"bytes32"},{"internalType":"uint256","name":"index","type":"uint256"}],"name":"getRoleMember","outputs":[{"internalType":"address","name":"","type":"address"}],"stateMutability":"view","type":"function"},{"inputs":[{"internalType":"bytes32","name":"role","type":"bytes32"}],"name":"getRoleMemberCount","outputs":[{"internalType":"uint256","name":"","type":"uint256"}],"stateMutability":"view","type":"function"},{"inputs":[{"internalType":"uint16","name":"_remoteChainId","type":"uint16"}],"name":"getTrustedRemoteAddress","outputs":[{"internalType":"bytes","name":"","type":"bytes"}],"stateMutability":"view","type":"function"},{"inputs":[{"internalType":"bytes32","name":"role","type":"bytes32"},{"internalType":"address","name":"account","type":"address"}],"name":"grantRole","outputs":[],"stateMutability":"nonpayable","type":"function"},{"inputs":[{"internalType":"bytes32","name":"role","type":"bytes32"},{"internalType":"address","name":"account","type":"address"}],"name":"hasRole","outputs":[{"internalType":"bool","name":"","type":"bool"}],"stateMutability":"view","type":"function"},{"inputs":[{"internalType":"address","name":"_lzEndpoint","type":"address"},{"internalType":"address","name":"admin","type":"address"}],"name":"initialize","outputs":[],"stateMutability":"nonpayable","type":"function"},{"inputs":[{"internalType":"uint16","name":"_srcChainId","type":"uint16"},{"internalType":"bytes","name":"_srcAddress","type":"bytes"}],"name":"isTrustedRemote","outputs":[{"internalType":"bool","name":"","type":"bool"}],"stateMutability":"view","type":"function"},{"inputs":[{"internalType":"uint16","name":"srcChainId","type":"uint16"},{"internalType":"address","name":"srcToken","type":"address"}],"name":"laneExist","outputs":[{"internalType":"bool","name":"","type":"bool"}],"stateMutability":"view","type":"function"},{"inputs":[],"name":"lzEndpoint","outputs":[{"internalType":"contract ILayerZeroEndpointUpgradeable","name":"","type":"address"}],"stateMutability":"view","type":"function"},{"inputs":[{"internalType":"uint16","name":"_srcChainId","type":"uint16"},{"internalType":"bytes","name":"_srcAddress","type":"bytes"},{"internalType":"uint64","name":"_nonce","type":"uint64"},{"internalType":"bytes","name":"_payload","type":"bytes"}],"name":"lzReceive","outputs":[],"stateMutability":"nonpayable","type":"function"},{"inputs":[{"internalType":"uint16","name":"","type":"uint16"},{"internalType":"uint256","name":"","type":"uint256"}],"name":"minDstGasLookup","outputs":[{"internalType":"uint256","name":"","type":"uint256"}],"stateMutability":"view","type":"function"},{"inputs":[{"internalType":"uint16","name":"_srcChainId","type":"uint16"},{"internalType":"bytes","name":"_srcAddress","type":"bytes"},{"internalType":"uint64","name":"_nonce","type":"uint64"},{"internalType":"bytes","name":"_payload","type":"bytes"}],"name":"nonblockingLzReceive","outputs":[],"stateMutability":"nonpayable","type":"function"},{"inputs":[],"name":"pause","outputs":[],"stateMutability":"nonpayable","type":"function"},{"inputs":[],"name":"paused","outputs":[{"internalType":"bool","name":"","type":"bool"}],"stateMutability":"view","type":"function"},{"inputs":[],"name":"precrime","outputs":[{"internalType":"address","name":"","type":"address"}],"stateMutability":"view","type":"function"},{"inputs":[{"internalType":"uint16","name":"srcChainId","type":"uint16"},{"internalType":"address","name":"srcToken","type":"address"}],"name":"removeTokenMapping","outputs":[],"stateMutability":"nonpayable","type":"function"},{"inputs":[{"internalType":"bytes32","name":"role","type":"bytes32"},{"internalType":"address","name":"account","type":"address"}],"name":"renounceRole","outputs":[],"stateMutability":"nonpayable","type":"function"},{"inputs":[{"internalType":"uint16","name":"_srcChainId","type":"uint16"},{"internalType":"bytes","name":"_srcAddress","type":"bytes"},{"internalType":"uint64","name":"_nonce","type":"uint64"},{"internalType":"bytes","name":"_payload","type":"bytes"}],"name":"retryMessage","outputs":[],"stateMutability":"payable","type":"function"},{"inputs":[{"internalType":"bytes32","name":"role","type":"bytes32"},{"internalType":"address","name":"account","type":"address"}],"name":"revokeRole","outputs":[],"stateMutability":"nonpayable","type":"function"},{"inputs":[{"internalType":"address","name":"_token","type":"address"},{"internalType":"uint16","name":"_dstChainId","type":"uint16"},{"internalType":"bytes","name":"_toAddress","type":"bytes"},{"internalType":"uint256","name":"_amount","type":"uint256"}],"name":"sendFrom","outputs":[],"stateMutability":"payable","type":"function"},{"inputs":[{"internalType":"uint16","name":"_version","type":"uint16"},{"internalType":"uint16","name":"_chainId","type":"uint16"},{"internalType":"uint256","name":"_configType","type":"uint256"},{"internalType":"bytes","name":"_config","type":"bytes"}],"name":"setConfig","outputs":[],"stateMutability":"nonpayable","type":"function"},{"inputs":[{"internalType":"uint16","name":"_dstChainId","type":"uint16"},{"internalType":"uint16","name":"_packetType","type":"uint16"},{"internalType":"uint256","name":"_minGas","type":"uint256"}],"name":"setMinDstGas","outputs":[],"stateMutability":"nonpayable","type":"function"},{"inputs":[{"internalType":"address","name":"_precrime","type":"address"}],"name":"setPrecrime","outputs":[],"stateMutability":"nonpayable","type":"function"},{"inputs":[{"internalType":"uint16","name":"_version","type":"uint16"}],"name":"setReceiveVersion","outputs":[],"stateMutability":"nonpayable","type":"function"},{"inputs":[{"internalType":"uint16","name":"_version","type":"uint16"}],"name":"setSendVersion","outputs":[],"stateMutability":"nonpayable","type":"function"},{"inputs":[{"internalType":"uint16","name":"_srcChainId","type":"uint16"},{"internalType":"bytes","name":"_path","type":"bytes"}],"name":"setTrustedRemote","outputs":[],"stateMutability":"nonpayable","type":"function"},{"inputs":[{"internalType":"uint16","name":"_remoteChainId","type":"uint16"},{"internalType":"bytes","name":"_remoteAddress","type":"bytes"}],"name":"setTrustedRemoteAddress","outputs":[],"stateMutability":"nonpayable","type":"function"},{"inputs":[{"internalType":"bool","name":"_useCustomAdapterParams","type":"bool"}],"name":"setUseCustomAdapterParams","outputs":[],"stateMutability":"nonpayable","type":"function"},{"inputs":[{"internalType":"bytes4","name":"interfaceId","type":"bytes4"}],"name":"supportsInterface","outputs":[{"internalType":"bool","name":"","type":"bool"}],"stateMutability":"view","type":"function"},{"inputs":[],"name":"token","outputs":[{"internalType":"address","name":"","type":"address"}],"stateMutability":"view","type":"function"},{"inputs":[{"internalType":"uint16","name":"srcChainId","type":"uint16"},{"internalType":"address","name":"srcToken","type":"address"}],"name":"tokenMapping","outputs":[{"components":[{"internalType":"uint16","name":"srcChainId","type":"uint16"},{"internalType":"address","name":"srcToken","type":"address"},{"internalType":"address","name":"dstToken","type":"address"}],"internalType":"struct ProxyOFT.LaneDetail","name":"","type":"tuple"}],"stateMutability":"view","type":"function"},{"inputs":[{"internalType":"uint16","name":"","type":"uint16"}],"name":"trustedRemoteLookup","outputs":[{"internalType":"bytes","name":"","type":"bytes"}],"stateMutability":"view","type":"function"},{"inputs":[],"name":"unPause","outputs":[],"stateMutability":"nonpayable","type":"function"},{"inputs":[{"internalType":"uint16","name":"srcChainId","type":"uint16"},{"internalType":"address","name":"srcToken","type":"address"},{"internalType":"address","name":"dstToken","type":"address"}],"name":"updateTokenMapping","outputs":[],"stateMutability":"nonpayable","type":"function"},{"inputs":[],"name":"useCustomAdapterParams","outputs":[{"internalType":"bool","name":"","type":"bool"}],"stateMutability":"view","type":"function"}],"evm":{"bytecode":{"linkReferences":{},"object":"608060405234801561001057600080fd5b50613d5b806100206000396000f3fe6080604052600436106102875760003560e01c8063950c8a741161015a578063ca15c873116100c1578063eb8d72b71161007a578063eb8d72b7146107ff578063ed629c5c1461081f578063f09c56991461083a578063f5ecbdbc1461085a578063f7b188a51461087a578063fc0c546a1461088f57600080fd5b8063ca15c8731461074c578063cbed8b9c1461076c578063d1deba1f1461078c578063d547741f1461079f578063df2a5b3b146107bf578063eab45d9c146107df57600080fd5b8063af3fb21c11610113578063af3fb21c146106ae578063b353aaa7146106c3578063b414275d146106e3578063b44e15e514610703578063baf3292d14610716578063c44618341461073657600080fd5b8063950c8a74146105f95780639f38369a14610619578063a217fddf1461043b578063a6c3d16514610639578063a7f342b014610659578063a9e48ca71461067957600080fd5b806344770515116101fe57806371a86e91116101b757806371a86e91146105285780637533d788146105485780638456cb59146105755780639010d07c1461058a57806391d14854146105c25780639358928b146105e257600080fd5b8063447705151461043b578063485cc955146104505780634ae33529146104705780635b8c41e61461049d5780635c975abb146104ed57806366ad5c8a1461050857600080fd5b8063248a9ca311610250578063248a9ca3146103695780632f2ff15d1461039957806336568abe146103b957806336c6dd95146103d95780633d8b38f6146103fb57806342d65a8d1461041b57600080fd5b80621d35671461028c57806301ffc9a7146102ae57806307810867146102e357806307e0db171461032957806310ddb13714610349575b600080fd5b34801561029857600080fd5b506102ac6102a7366004612ed0565b6108b0565b005b3480156102ba57600080fd5b506102ce6102c9366004612f65565b610acc565b60405190151581526020015b60405180910390f35b3480156102ef57600080fd5b5061031b6102fe366004612f8f565b60fc60209081526000928352604080842090915290825290205481565b6040519081526020016102da565b34801561033557600080fd5b506102ac610344366004612fbb565b610af7565b34801561035557600080fd5b506102ac610364366004612fbb565b610b66565b34801561037557600080fd5b5061031b610384366004612fd8565b60009081526065602052604090206001015490565b3480156103a557600080fd5b506102ac6103b4366004613006565b610ba4565b3480156103c557600080fd5b506102ac6103d4366004613006565b610bce565b3480156103e557600080fd5b506103ee610c4c565b6040516102da9190613036565b34801561040757600080fd5b506102ce6104163660046130ab565b610d61565b34801561042757600080fd5b506102ac6104363660046130ab565b610e2d565b34801561044757600080fd5b5061031b600081565b34801561045c57600080fd5b506102ac61046b3660046130ff565b610e99565b34801561047c57600080fd5b5061049061048b36600461312d565b610fae565b6040516102da919061314b565b3480156104a957600080fd5b5061031b6104b8366004613243565b61012e602090815260009384526040808520845180860184018051928152908401958401959095209452929052825290205481565b3480156104f957600080fd5b50610196546102ce9060ff1681565b34801561051457600080fd5b506102ac6105233660046132a2565b611077565b34801561053457600080fd5b506102ac610543366004613328565b6110e7565b34801561055457600080fd5b50610568610563366004612fbb565b61126c565b6040516102da91906133c3565b34801561058157600080fd5b506102ac611306565b34801561059657600080fd5b506105aa6105a53660046133d6565b611320565b6040516001600160a01b0390911681526020016102da565b3480156105ce57600080fd5b506102ce6105dd366004613006565b61133f565b3480156105ee57600080fd5b5061031b6101955481565b34801561060557600080fd5b5060fd546105aa906001600160a01b031681565b34801561062557600080fd5b50610568610634366004612fbb565b61136a565b34801561064557600080fd5b506102ac6106543660046130ab565b611479565b34801561066557600080fd5b506102ac61067436600461312d565b6114f7565b34801561068557600080fd5b506106996106943660046133f8565b6115e8565b604080519283526020830191909152016102da565b3480156106ba57600080fd5b5061031b600181565b3480156106cf57600080fd5b5060fa546105aa906001600160a01b031681565b3480156106ef57600080fd5b506102ac6106fe366004613328565b6116a4565b6102ac6107113660046133f8565b6117fd565b34801561072257600080fd5b506102ac610731366004613464565b611851565b34801561074257600080fd5b5061031b61271081565b34801561075857600080fd5b5061031b610767366004612fd8565b6118b0565b34801561077857600080fd5b506102ac610787366004613481565b6118c7565b6102ac61079a3660046132a2565b611942565b3480156107ab57600080fd5b506102ac6107ba366004613006565b611a96565b3480156107cb57600080fd5b506102ac6107da3660046134f3565b611abb565b3480156107eb57600080fd5b506102ac6107fa366004613534565b611b6f565b34801561080b57600080fd5b506102ac61081a3660046130ab565b611bbb565b34801561082b57600080fd5b50610161546102ce9060ff1681565b34801561084657600080fd5b506102ce61085536600461312d565b611c17565b34801561086657600080fd5b50610568610875366004613556565b611c67565b34801561088657600080fd5b506102ac611cfa565b34801561089b57600080fd5b50610194546105aa906001600160a01b031681565b60fa546001600160a01b0316336001600160a01b0316146109185760405162461bcd60e51b815260206004820152601e60248201527f4c7a4170703a20696e76616c696420656e64706f696e742063616c6c6572000060448201526064015b60405180910390fd5b61ffff8616600090815260fb602052604081208054610936906135a7565b80601f0160208091040260200160405190810160405280929190818152602001828054610962906135a7565b80156109af5780601f10610984576101008083540402835291602001916109af565b820191906000526020600020905b81548152906001019060200180831161099257829003601f168201915b505050505090508051868690501480156109ca575060008151115b80156109f25750805160208201206040516109e890889088906135e1565b6040518091039020145b610a4d5760405162461bcd60e51b815260206004820152602660248201527f4c7a4170703a20696e76616c696420736f757263652073656e64696e6720636f6044820152651b9d1c9858dd60d21b606482015260840161090f565b610ac38787878080601f01602080910402602001604051908101604052809392919081815260200183838082843760009201919091525050604080516020601f8a018190048102820181019092528881528a935091508890889081908401838280828437600092019190915250611d1192505050565b50505050505050565b60006001600160e01b03198216635a05180f60e01b1480610af15750610af182611e03565b92915050565b610b016000611e38565b60fa546040516307e0db1760e01b815261ffff831660048201526001600160a01b03909116906307e0db17906024015b600060405180830381600087803b158015610b4b57600080fd5b505af1158015610b5f573d6000803e3d6000fd5b5050505050565b610b706000611e38565b60fa546040516310ddb13760e01b815261ffff831660048201526001600160a01b03909116906310ddb13790602401610b31565b600082815260656020526040902060010154610bbf81611e38565b610bc98383611e45565b505050565b6001600160a01b0381163314610c3e5760405162461bcd60e51b815260206004820152602f60248201527f416363657373436f6e74726f6c3a2063616e206f6e6c792072656e6f756e636560448201526e103937b632b9903337b91039b2b63360891b606482015260840161090f565b610c488282611e67565b5050565b60606000610c5b610197611e89565b90506000816001600160401b03811115610c7757610c77613180565b604051908082528060200260200182016040528015610cc257816020015b6040805160608101825260008082526020808301829052928201528252600019909201910181610c955790505b50905060005b82811015610d5a576101996000610ce161019784611e93565b815260208082019290925260409081016000208151606081018352815461ffff811682526001600160a01b0362010000909104811694820194909452600190910154909216908201528251839083908110610d3e57610d3e6135f1565b602002602001018190525080610d539061361d565b9050610cc8565b5092915050565b61ffff8316600090815260fb602052604081208054829190610d82906135a7565b80601f0160208091040260200160405190810160405280929190818152602001828054610dae906135a7565b8015610dfb5780601f10610dd057610100808354040283529160200191610dfb565b820191906000526020600020905b815481529060010190602001808311610dde57829003601f168201915b505050505090508383604051610e129291906135e1565b60405180910390208180519060200120149150509392505050565b610e376000611e38565b60fa546040516342d65a8d60e01b81526001600160a01b03909116906342d65a8d90610e6b9086908690869060040161365f565b600060405180830381600087803b158015610e8557600080fd5b505af1158015610ac3573d6000803e3d6000fd5b600054610100900460ff1615808015610eb95750600054600160ff909116105b80610ed35750303b158015610ed3575060005460ff166001145b610f365760405162461bcd60e51b815260206004820152602e60248201527f496e697469616c697a61626c653a20636f6e747261637420697320616c72656160448201526d191e481a5b9a5d1a585b1a5e995960921b606482015260840161090f565b6000805460ff191660011790558015610f59576000805461ff0019166101001790555b610f638383611e9f565b8015610bc9576000805461ff0019169055604051600181527f7f26b83ff96e1f2b6a682f133852f6798a09c465da95921460cefb3847402498906020015b60405180910390a1505050565b60408051606080820183526000808352602080840182905283850191909152835161ffff8716818301526001600160a01b038616818601528451808203860181529201909352805192019190912061100861019782611ed0565b6110245760405162461bcd60e51b815260040161090f9061367d565b600090815261019960209081526040918290208251606081018452815461ffff811682526201000090046001600160a01b0390811693820193909352600190910154909116918101919091529392505050565b3330146110d55760405162461bcd60e51b815260206004820152602660248201527f4e6f6e626c6f636b696e674c7a4170703a2063616c6c6572206d7573742062656044820152650204c7a4170760d41b606482015260840161090f565b6110e184848484611ee8565b50505050565b6110f16000611e38565b60008361ffff16116111155760405162461bcd60e51b815260040161090f906136a6565b6001600160a01b03821661113b5760405162461bcd60e51b815260040161090f906136cb565b6001600160a01b0381166111615760405162461bcd60e51b815260040161090f906136ee565b6040805161ffff85166020808301919091526001600160a01b03851682840152825180830384018152606090920190925280519101206111a361019782611ed0565b156111de5760405162461bcd60e51b815260206004820152600b60248201526a6c616e652065786973742160a81b604482015260640161090f565b6111ea61019782611f52565b506040805160608101825261ffff95861681526001600160a01b03948516602080830191825294861682840190815260009485526101999095529190922091518254915195166001600160b01b031990911617620100009484169490940293909317835551600190920180546001600160a01b03191692909116919091179055565b60fb6020526000908152604090208054611285906135a7565b80601f01602080910402602001604051908101604052809291908181526020018280546112b1906135a7565b80156112fe5780601f106112d3576101008083540402835291602001916112fe565b820191906000526020600020905b8154815290600101906020018083116112e157829003601f168201915b505050505081565b6113106000611e38565b610196805460ff19166001179055565b60008281526097602052604081206113389083611e93565b9392505050565b60009182526065602090815260408084206001600160a01b0393909316845291905290205460ff1690565b61ffff8116600090815260fb602052604081208054606092919061138d906135a7565b80601f01602080910402602001604051908101604052809291908181526020018280546113b9906135a7565b80156114065780601f106113db57610100808354040283529160200191611406565b820191906000526020600020905b8154815290600101906020018083116113e957829003601f168201915b50505050509050805160000361145e5760405162461bcd60e51b815260206004820152601d60248201527f4c7a4170703a206e6f20747275737465642070617468207265636f7264000000604482015260640161090f565b6113386000601483516114719190613711565b839190611f5e565b6114836000611e38565b81813060405160200161149893929190613724565b60408051601f1981840301815291815261ffff8516600090815260fb60205220906114c39082613790565b507f8c0400cfe2d1199b1a725c78960bcc2a344d869b80590d0f2bd005db15a572ce838383604051610fa19392919061365f565b6115016000611e38565b60008261ffff16116115255760405162461bcd60e51b815260040161090f906136a6565b6001600160a01b03811661154b5760405162461bcd60e51b815260040161090f906136cb565b6040805161ffff84166020808301919091526001600160a01b038416828401528251808303840181526060909201909252805191012061158d61019782611ed0565b6115a95760405162461bcd60e51b815260040161090f9061367d565b6115b56101978261206b565b5060009081526101996020526040902080546001600160b01b031916815560010180546001600160a01b03191690555050565b6000806000808887878760405160200161160695949392919061384f565b60408051601f1981840301815260fa546000808552602085019384905263040a7bb160e41b9093529093506001600160a01b0316916340a7bb1091611655918b9130918791906024810161388f565b6040805180830381865afa158015611671573d6000803e3d6000fd5b505050506040513d601f19601f8201168201806040525081019061169591906138d7565b92509250509550959350505050565b6116ae6000611e38565b60008361ffff16116116d25760405162461bcd60e51b815260040161090f906136a6565b6001600160a01b0382166116f85760405162461bcd60e51b815260040161090f906136cb565b6001600160a01b03811661171e5760405162461bcd60e51b815260040161090f906136ee565b6040805161ffff85166020808301919091526001600160a01b038516828401528251808303840181526060909201909252805191012061176061019782611ed0565b61177c5760405162461bcd60e51b815260040161090f9061367d565b6040805160608101825261ffff95861681526001600160a01b03948516602080830191825294861682840190815260009485526101999095529190922091518254915195166001600160b01b031990911617620100009484169490940293909317835551600190920180546001600160a01b03191692909116919091179055565b610b5f85338686868080601f016020809104026020016040519081016040528093929190818152602001838380828437600092018290525060408051828152602081019091528a9450339350909150612077565b61185b6000611e38565b60fd80546001600160a01b0319166001600160a01b0383169081179091556040519081527f5db758e995a17ec1ad84bdef7e8c3293a0bd6179bcce400dff5d4c3d87db726b906020015b60405180910390a150565b6000818152609760205260408120610af190611e89565b6118d16000611e38565b60fa546040516332fb62e760e21b81526001600160a01b039091169063cbed8b9c9061190990889088908890889088906004016138fb565b600060405180830381600087803b15801561192357600080fd5b505af1158015611937573d6000803e3d6000fd5b505050505050505050565b61ffff8416600090815261012e60205260408082209051611964908690613929565b90815260408051602092819003830190206001600160401b038616600090815292529020549050806119e45760405162461bcd60e51b815260206004820152602360248201527f4e6f6e626c6f636b696e674c7a4170703a206e6f2073746f726564206d65737360448201526261676560e81b606482015260840161090f565b815160208301208114611a435760405162461bcd60e51b815260206004820152602160248201527f4e6f6e626c6f636b696e674c7a4170703a20696e76616c6964207061796c6f616044820152601960fa1b606482015260840161090f565b61ffff8516600090815261012e60205260408082209051611a65908790613929565b90815260408051602092819003830190206001600160401b03871660009081529252902055610b5f85858585611ee8565b600082815260656020526040902060010154611ab181611e38565b610bc98383611e67565b611ac56000611e38565b60008111611b0d5760405162461bcd60e51b81526020600482015260156024820152744c7a4170703a20696e76616c6964206d696e47617360581b604482015260640161090f565b61ffff838116600081815260fc602090815260408083209487168084529482529182902085905581519283528201929092529081018290527f9d5c7c0b934da8fefa9c7760c98383778a12dfbfc0c3b3106518f43fb9508ac090606001610fa1565b611b796000611e38565b610161805460ff19168215159081179091556040519081527f1584ad594a70cbe1e6515592e1272a987d922b097ead875069cebe8b40c004a4906020016118a5565b611bc56000611e38565b61ffff8316600090815260fb60205260409020611be3828483613945565b507ffa41487ad5d6728f0b19276fa1eddc16558578f5109fc39d2dc33c3230470dab838383604051610fa19392919061365f565b6040805161ffff841660208201526001600160a01b038316918101919091526000906113389060600160405160208183030381529060405280519060200120610197611ed090919063ffffffff16565b60fa54604051633d7b2f6f60e21b815261ffff808716600483015285166024820152306044820152606481018390526060916001600160a01b03169063f5ecbdbc90608401600060405180830381865afa158015611cc9573d6000803e3d6000fd5b505050506040513d6000823e601f3d908101601f19168201604052611cf19190810190613a51565b95945050505050565b611d046000611e38565b610196805460ff19169055565b604051633356ae4560e11b815230906366ad5c8a90611d3a908790879087908790600401613a85565b600060405180830381600087803b158015611d5457600080fd5b505af1925050508015611d65575060015b6110e157808051906020012061012e60008661ffff1661ffff16815260200190815260200160002084604051611d9b9190613929565b9081526040805191829003602090810183206001600160401b0387166000908152915220919091557fe6f254030bcb01ffd20558175c13fcaed6d1520be7becee4c961b65f79243b0d90611df6908690869086908690613a85565b60405180910390a16110e1565b60006001600160e01b03198216637965db0b60e01b1480610af157506301ffc9a760e01b6001600160e01b0319831614610af1565b611e42813361212c565b50565b611e4f8282612185565b6000828152609760205260409020610bc9908261220b565b611e718282612220565b6000828152609760205260409020610bc99082612287565b6000610af1825490565b6000611338838361229c565b600054610100900460ff16611ec65760405162461bcd60e51b815260040161090f90613ac3565b610c4882826122c6565b60008181526001830160205260408120541515611338565b602081015161ffff8116600003611f0a57611f05858585856122f7565b610b5f565b60405162461bcd60e51b815260206004820152601c60248201527f4f4654436f72653a20756e6b6e6f776e207061636b6574207479706500000000604482015260640161090f565b60006113388383612391565b606081611f6c81601f613b0e565b1015611fab5760405162461bcd60e51b815260206004820152600e60248201526d736c6963655f6f766572666c6f7760901b604482015260640161090f565b611fb58284613b0e565b84511015611ff95760405162461bcd60e51b8152602060048201526011602482015270736c6963655f6f75744f66426f756e647360781b604482015260640161090f565b6060821580156120185760405191506000825260208201604052612062565b6040519150601f8416801560200281840101858101878315602002848b0101015b81831015612051578051835260209283019201612039565b5050858452601f01601f1916604052505b50949350505050565b600061133883836123e0565b6120858660008360006124d3565b6000612094898989898961254e565b90506000808a88846040516020016120af9493929190613b21565b60405160208183030381529060405290506120ce888287878734612745565b886001600160a01b03168a6001600160a01b03168961ffff167f862438c1aa68cd638fd7f177afa4b83b1297e06dc6fcaa6cabb5ed8ce6b1de758a86604051612118929190613b5f565b60405180910390a450505050505050505050565b612136828261133f565b610c4857612143816128c3565b61214e8360206128d5565b60405160200161215f929190613b81565b60408051601f198184030181529082905262461bcd60e51b825261090f916004016133c3565b61218f828261133f565b610c485760008281526065602090815260408083206001600160a01b03851684529091529020805460ff191660011790556121c73390565b6001600160a01b0316816001600160a01b0316837f2f8788117e7eff1d82e926ec794901d17c78024a50270940304540a733656f0d60405160405180910390a45050565b6000611338836001600160a01b038416612391565b61222a828261133f565b15610c485760008281526065602090815260408083206001600160a01b0385168085529252808320805460ff1916905551339285917ff6391f5c32d9c69d2a47ea670b442974b53935d1edc7fd64eb21e047a839171b9190a45050565b6000611338836001600160a01b0384166123e0565b60008260000182815481106122b3576122b36135f1565b9060005260206000200154905092915050565b600054610100900460ff166122ed5760405162461bcd60e51b815260040161090f90613ac3565b610c488282612a70565b6000806000838060200190518101906123109190613bf6565b91955093509150600090506123258382612aa1565b905061233384898385612b06565b9150806001600160a01b03168861ffff16856001600160a01b03167faec3ee8f36dfc1298802f2e6692b3abba814ac6532cadf6c7e1c0e13610f1b688560405161237f91815260200190565b60405180910390a45050505050505050565b60008181526001830160205260408120546123d857508154600181810184556000848152602080822090930184905584548482528286019093526040902091909155610af1565b506000610af1565b600081815260018301602052604081205480156124c9576000612404600183613711565b855490915060009061241890600190613711565b905081811461247d576000866000018281548110612438576124386135f1565b906000526020600020015490508087600001848154811061245b5761245b6135f1565b6000918252602080832090910192909255918252600188019052604090208390555b855486908061248e5761248e613c61565b600190038181906000526020600020016000905590558560010160008681526020019081526020016000206000905560019350505050610af1565b6000915050610af1565b6101615460ff16156124f0576124eb84848484612c97565b6110e1565b8151156110e15760405162461bcd60e51b815260206004820152602660248201527f4f4654436f72653a205f61646170746572506172616d73206d7573742062652060448201526532b6b83a3c9760d11b606482015260840161090f565b6101965460009060ff161561258f5760405162461bcd60e51b81526020600482015260076024820152667061757365642160c81b604482015260640161090f565b6001600160a01b03851633146125f25760405162461bcd60e51b815260206004820152602260248201527f50726f78794f46543a206f776e6572206973206e6f742073656e642063616c6c60448201526132b960f11b606482015260840161090f565b6040516370a0823160e01b81526001600160a01b038681166004830152600091908816906370a0823190602401602060405180830381865afa15801561263c573d6000803e3d6000fd5b505050506040513d601f19601f820116820180604052508101906126609190613c77565b60405163079cc67960e41b81526001600160a01b03888116600483015260248201869052919250908816906379cc679090604401600060405180830381600087803b1580156126ae57600080fd5b505af11580156126c2573d6000803e3d6000fd5b50506040516370a0823160e01b81526001600160a01b0389811660048301528a1692506370a082319150602401602060405180830381865afa15801561270c573d6000803e3d6000fd5b505050506040513d601f19601f820116820180604052508101906127309190613c77565b61273a9082613711565b979650505050505050565b61ffff8616600090815260fb602052604081208054612763906135a7565b80601f016020809104026020016040519081016040528092919081815260200182805461278f906135a7565b80156127dc5780601f106127b1576101008083540402835291602001916127dc565b820191906000526020600020905b8154815290600101906020018083116127bf57829003601f168201915b50505050509050805160000361284d5760405162461bcd60e51b815260206004820152603060248201527f4c7a4170703a2064657374696e6174696f6e20636861696e206973206e6f742060448201526f61207472757374656420736f7572636560801b606482015260840161090f565b60fa5460405162c5803160e81b81526001600160a01b039091169063c5803100908490612888908b9086908c908c908c908c90600401613c90565b6000604051808303818588803b1580156128a157600080fd5b505af11580156128b5573d6000803e3d6000fd5b505050505050505050505050565b6060610af16001600160a01b03831660145b606060006128e4836002613cf7565b6128ef906002613b0e565b6001600160401b0381111561290657612906613180565b6040519080825280601f01601f191660200182016040528015612930576020820181803683370190505b509050600360fc1b8160008151811061294b5761294b6135f1565b60200101906001600160f81b031916908160001a905350600f60fb1b8160018151811061297a5761297a6135f1565b60200101906001600160f81b031916908160001a905350600061299e846002613cf7565b6129a9906001613b0e565b90505b6001811115612a21576f181899199a1a9b1b9c1cb0b131b232b360811b85600f16601081106129dd576129dd6135f1565b1a60f81b8282815181106129f3576129f36135f1565b60200101906001600160f81b031916908160001a90535060049490941c93612a1a81613d0e565b90506129ac565b5083156113385760405162461bcd60e51b815260206004820181905260248201527f537472696e67733a20686578206c656e67746820696e73756666696369656e74604482015260640161090f565b600054610100900460ff16612a975760405162461bcd60e51b815260040161090f90613ac3565b610c488282612d7e565b6000612aae826014613b0e565b83511015612af65760405162461bcd60e51b8152602060048201526015602482015274746f416464726573735f6f75744f66426f756e647360581b604482015260640161090f565b500160200151600160601b900490565b600080612b138587610fae565b60408101519091506001600160a01b038116612b415760405162461bcd60e51b815260040161090f906136ee565b6040516370a0823160e01b81526001600160a01b038681166004830152600091908316906370a0823190602401602060405180830381865afa158015612b8b573d6000803e3d6000fd5b505050506040513d601f19601f82011682018060405250810190612baf9190613c77565b6040516340c10f1960e01b81526001600160a01b03888116600483015260248201889052919250908316906340c10f1990604401600060405180830381600087803b158015612bfd57600080fd5b505af1158015612c11573d6000803e3d6000fd5b50506040516370a0823160e01b81526001600160a01b038981166004830152849350851691506370a0823190602401602060405180830381865afa158015612c5d573d6000803e3d6000fd5b505050506040513d601f19601f82011682018060405250810190612c819190613c77565b612c8b9190613711565b98975050505050505050565b6000612ca283612dc9565b61ffff808716600090815260fc6020908152604080832093891683529290529081205491925090612cd4908490613b0e565b905060008111612d265760405162461bcd60e51b815260206004820152601a60248201527f4c7a4170703a206d696e4761734c696d6974206e6f7420736574000000000000604482015260640161090f565b80821015612d765760405162461bcd60e51b815260206004820152601b60248201527f4c7a4170703a20676173206c696d697420697320746f6f206c6f770000000000604482015260640161090f565b505050505050565b600054610100900460ff16612da55760405162461bcd60e51b815260040161090f90613ac3565b60fa80546001600160a01b0319166001600160a01b038416179055610c4881612e25565b6000602282511015612e1d5760405162461bcd60e51b815260206004820152601c60248201527f4c7a4170703a20696e76616c69642061646170746572506172616d7300000000604482015260640161090f565b506022015190565b600054610100900460ff16612e4c5760405162461bcd60e51b815260040161090f90613ac3565b611e42600082610c488282611e45565b61ffff81168114611e4257600080fd5b60008083601f840112612e7e57600080fd5b5081356001600160401b03811115612e9557600080fd5b602083019150836020828501011115612ead57600080fd5b9250929050565b80356001600160401b0381168114612ecb57600080fd5b919050565b60008060008060008060808789031215612ee957600080fd5b8635612ef481612e5c565b955060208701356001600160401b0380821115612f1057600080fd5b612f1c8a838b01612e6c565b9097509550859150612f3060408a01612eb4565b94506060890135915080821115612f4657600080fd5b50612f5389828a01612e6c565b979a9699509497509295939492505050565b600060208284031215612f7757600080fd5b81356001600160e01b03198116811461133857600080fd5b60008060408385031215612fa257600080fd5b8235612fad81612e5c565b946020939093013593505050565b600060208284031215612fcd57600080fd5b813561133881612e5c565b600060208284031215612fea57600080fd5b5035919050565b6001600160a01b0381168114611e4257600080fd5b6000806040838503121561301957600080fd5b82359150602083013561302b81612ff1565b809150509250929050565b6020808252825182820181905260009190848201906040850190845b8181101561309f5761308c838551805161ffff1682526020808201516001600160a01b039081169184019190915260409182015116910152565b9284019260609290920191600101613052565b50909695505050505050565b6000806000604084860312156130c057600080fd5b83356130cb81612e5c565b925060208401356001600160401b038111156130e657600080fd5b6130f286828701612e6c565b9497909650939450505050565b6000806040838503121561311257600080fd5b823561311d81612ff1565b9150602083013561302b81612ff1565b6000806040838503121561314057600080fd5b823561311d81612e5c565b60608101610af18284805161ffff1682526020808201516001600160a01b039081169184019190915260409182015116910152565b634e487b7160e01b600052604160045260246000fd5b604051601f8201601f191681016001600160401b03811182821017156131be576131be613180565b604052919050565b60006001600160401b038211156131df576131df613180565b50601f01601f191660200190565b600082601f8301126131fe57600080fd5b813561321161320c826131c6565b613196565b81815284602083860101111561322657600080fd5b816020850160208301376000918101602001919091529392505050565b60008060006060848603121561325857600080fd5b833561326381612e5c565b925060208401356001600160401b0381111561327e57600080fd5b61328a868287016131ed565b92505061329960408501612eb4565b90509250925092565b600080600080608085870312156132b857600080fd5b84356132c381612e5c565b935060208501356001600160401b03808211156132df57600080fd5b6132eb888389016131ed565b94506132f960408801612eb4565b9350606087013591508082111561330f57600080fd5b5061331c878288016131ed565b91505092959194509250565b60008060006060848603121561333d57600080fd5b833561334881612e5c565b9250602084013561335881612ff1565b9150604084013561336881612ff1565b809150509250925092565b60005b8381101561338e578181015183820152602001613376565b50506000910152565b600081518084526133af816020860160208601613373565b601f01601f19169290920160200192915050565b6020815260006113386020830184613397565b600080604083850312156133e957600080fd5b50508035926020909101359150565b60008060008060006080868803121561341057600080fd5b853561341b81612ff1565b9450602086013561342b81612e5c565b935060408601356001600160401b0381111561344657600080fd5b61345288828901612e6c565b96999598509660600135949350505050565b60006020828403121561347657600080fd5b813561133881612ff1565b60008060008060006080868803121561349957600080fd5b85356134a481612e5c565b945060208601356134b481612e5c565b93506040860135925060608601356001600160401b038111156134d657600080fd5b6134e288828901612e6c565b969995985093965092949392505050565b60008060006060848603121561350857600080fd5b833561351381612e5c565b9250602084013561352381612e5c565b929592945050506040919091013590565b60006020828403121561354657600080fd5b8135801515811461133857600080fd5b6000806000806080858703121561356c57600080fd5b843561357781612e5c565b9350602085013561358781612e5c565b9250604085013561359781612ff1565b9396929550929360600135925050565b600181811c908216806135bb57607f821691505b6020821081036135db57634e487b7160e01b600052602260045260246000fd5b50919050565b8183823760009101908152919050565b634e487b7160e01b600052603260045260246000fd5b634e487b7160e01b600052601160045260246000fd5b60006001820161362f5761362f613607565b5060010190565b81835281816020850137506000828201602090810191909152601f909101601f19169091010190565b61ffff84168152604060208201526000611cf1604083018486613636565b6020808252600f908201526e6c616e65206e6f742065786973742160881b604082015260600190565b6020808252600b908201526a737263436861696e49642160a81b604082015260600190565b602080825260099082015268737263546f6b656e2160b81b604082015260600190565b602080825260099082015268647374546f6b656e2160b81b604082015260600190565b81810381811115610af157610af1613607565b8284823760609190911b6bffffffffffffffffffffffff19169101908152601401919050565b601f821115610bc957600081815260208120601f850160051c810160208610156137715750805b601f850160051c820191505b81811015612d765782815560010161377d565b81516001600160401b038111156137a9576137a9613180565b6137bd816137b784546135a7565b8461374a565b602080601f8311600181146137f257600084156137da5750858301515b600019600386901b1c1916600185901b178555612d76565b600085815260208120601f198616915b8281101561382157888601518255948401946001909101908401613802565b508582101561383f5787850151600019600388901b60f8161c191681555b5050505050600190811b01905550565b60ff861681526001600160a01b038516602082015260806040820181905260009061387d9083018587613636565b90508260608301529695505050505050565b61ffff861681526001600160a01b038516602082015260a0604082018190526000906138bd90830186613397565b84151560608401528281036080840152612c8b8185613397565b600080604083850312156138ea57600080fd5b505080516020909101519092909150565b600061ffff80881683528087166020840152508460408301526080606083015261273a608083018486613636565b6000825161393b818460208701613373565b9190910192915050565b6001600160401b0383111561395c5761395c613180565b6139708361396a83546135a7565b8361374a565b6000601f8411600181146139a4576000851561398c5750838201355b600019600387901b1c1916600186901b178355610b5f565b600083815260209020601f19861690835b828110156139d557868501358255602094850194600190920191016139b5565b50868210156139f25760001960f88860031b161c19848701351681555b505060018560011b0183555050505050565b600082601f830112613a1557600080fd5b8151613a2361320c826131c6565b818152846020838601011115613a3857600080fd5b613a49826020830160208701613373565b949350505050565b600060208284031215613a6357600080fd5b81516001600160401b03811115613a7957600080fd5b613a4984828501613a04565b61ffff85168152608060208201526000613aa26080830186613397565b6001600160401b0385166040840152828103606084015261273a8185613397565b6020808252602b908201527f496e697469616c697a61626c653a20636f6e7472616374206973206e6f74206960408201526a6e697469616c697a696e6760a81b606082015260800190565b80820180821115610af157610af1613607565b60ff851681526001600160a01b0384166020820152608060408201819052600090613b4e90830185613397565b905082606083015295945050505050565b604081526000613b726040830185613397565b90508260208301529392505050565b7f416363657373436f6e74726f6c3a206163636f756e7420000000000000000000815260008351613bb9816017850160208801613373565b7001034b99036b4b9b9b4b733903937b6329607d1b6017918401918201528351613bea816028840160208801613373565b01602801949350505050565b60008060008060808587031215613c0c57600080fd5b8451613c1781612e5c565b6020860151909450613c2881612ff1565b60408601519093506001600160401b03811115613c4457600080fd5b613c5087828801613a04565b606096909601519497939650505050565b634e487b7160e01b600052603160045260246000fd5b600060208284031215613c8957600080fd5b5051919050565b61ffff8716815260c060208201526000613cad60c0830188613397565b8281036040840152613cbf8188613397565b6001600160a01b0387811660608601528616608085015283810360a08501529050613cea8185613397565b9998505050505050505050565b8082028115828204841417610af157610af1613607565b600081613d1d57613d1d613607565b50600019019056fea26469706673582212204ef67b0169a365c2675ae9d55fc519b11686169133afc8336b7e2aba9e0f11d664736f6c63430008130033","opcodes":"PUSH1 0x80 PUSH1 0x40 MSTORE CALLVALUE DUP1 ISZERO PUSH2 0x10 JUMPI PUSH1 0x0 DUP1 REVERT JUMPDEST POP PUSH2 0x3D5B DUP1 PUSH2 0x20 PUSH1 0x0 CODECOPY PUSH1 0x0 RETURN INVALID PUSH1 0x80 PUSH1 0x40 MSTORE PUSH1 0x4 CALLDATASIZE LT PUSH2 0x287 JUMPI PUSH1 0x0 CALLDATALOAD PUSH1 0xE0 SHR DUP1 PUSH4 0x950C8A74 GT PUSH2 0x15A JUMPI DUP1 PUSH4 0xCA15C873 GT PUSH2 0xC1 JUMPI DUP1 PUSH4 0xEB8D72B7 GT PUSH2 0x7A JUMPI DUP1 PUSH4 0xEB8D72B7 EQ PUSH2 0x7FF JUMPI DUP1 PUSH4 0xED629C5C EQ PUSH2 0x81F JUMPI DUP1 PUSH4 0xF09C5699 EQ PUSH2 0x83A JUMPI DUP1 PUSH4 0xF5ECBDBC EQ PUSH2 0x85A JUMPI DUP1 PUSH4 0xF7B188A5 EQ PUSH2 0x87A JUMPI DUP1 PUSH4 0xFC0C546A EQ PUSH2 0x88F JUMPI PUSH1 0x0 DUP1 REVERT JUMPDEST DUP1 PUSH4 0xCA15C873 EQ PUSH2 0x74C JUMPI DUP1 PUSH4 0xCBED8B9C EQ PUSH2 0x76C JUMPI DUP1 PUSH4 0xD1DEBA1F EQ PUSH2 0x78C JUMPI DUP1 PUSH4 0xD547741F EQ PUSH2 0x79F JUMPI DUP1 PUSH4 0xDF2A5B3B EQ PUSH2 0x7BF JUMPI DUP1 PUSH4 0xEAB45D9C EQ PUSH2 0x7DF JUMPI PUSH1 0x0 DUP1 REVERT JUMPDEST DUP1 PUSH4 0xAF3FB21C GT PUSH2 0x113 JUMPI DUP1 PUSH4 0xAF3FB21C EQ PUSH2 0x6AE JUMPI DUP1 PUSH4 0xB353AAA7 EQ PUSH2 0x6C3 JUMPI DUP1 PUSH4 0xB414275D EQ PUSH2 0x6E3 JUMPI DUP1 PUSH4 0xB44E15E5 EQ PUSH2 0x703 JUMPI DUP1 PUSH4 0xBAF3292D EQ PUSH2 0x716 JUMPI DUP1 PUSH4 0xC4461834 EQ PUSH2 0x736 JUMPI PUSH1 0x0 DUP1 REVERT JUMPDEST DUP1 PUSH4 0x950C8A74 EQ PUSH2 0x5F9 JUMPI DUP1 PUSH4 0x9F38369A EQ PUSH2 0x619 JUMPI DUP1 PUSH4 0xA217FDDF EQ PUSH2 0x43B JUMPI DUP1 PUSH4 0xA6C3D165 EQ PUSH2 0x639 JUMPI DUP1 PUSH4 0xA7F342B0 EQ PUSH2 0x659 JUMPI DUP1 PUSH4 0xA9E48CA7 EQ PUSH2 0x679 JUMPI PUSH1 0x0 DUP1 REVERT JUMPDEST DUP1 PUSH4 0x44770515 GT PUSH2 0x1FE JUMPI DUP1 PUSH4 0x71A86E91 GT PUSH2 0x1B7 JUMPI DUP1 PUSH4 0x71A86E91 EQ PUSH2 0x528 JUMPI DUP1 PUSH4 0x7533D788 EQ PUSH2 0x548 JUMPI DUP1 PUSH4 0x8456CB59 EQ PUSH2 0x575 JUMPI DUP1 PUSH4 0x9010D07C EQ PUSH2 0x58A JUMPI DUP1 PUSH4 0x91D14854 EQ PUSH2 0x5C2 JUMPI DUP1 PUSH4 0x9358928B EQ PUSH2 0x5E2 JUMPI PUSH1 0x0 DUP1 REVERT JUMPDEST DUP1 PUSH4 0x44770515 EQ PUSH2 0x43B JUMPI DUP1 PUSH4 0x485CC955 EQ PUSH2 0x450 JUMPI DUP1 PUSH4 0x4AE33529 EQ PUSH2 0x470 JUMPI DUP1 PUSH4 0x5B8C41E6 EQ PUSH2 0x49D JUMPI DUP1 PUSH4 0x5C975ABB EQ PUSH2 0x4ED JUMPI DUP1 PUSH4 0x66AD5C8A EQ PUSH2 0x508 JUMPI PUSH1 0x0 DUP1 REVERT JUMPDEST DUP1 PUSH4 0x248A9CA3 GT PUSH2 0x250 JUMPI DUP1 PUSH4 0x248A9CA3 EQ PUSH2 0x369 JUMPI DUP1 PUSH4 0x2F2FF15D EQ PUSH2 0x399 JUMPI DUP1 PUSH4 0x36568ABE EQ PUSH2 0x3B9 JUMPI DUP1 PUSH4 0x36C6DD95 EQ PUSH2 0x3D9 JUMPI DUP1 PUSH4 0x3D8B38F6 EQ PUSH2 0x3FB JUMPI DUP1 PUSH4 0x42D65A8D EQ PUSH2 0x41B JUMPI PUSH1 0x0 DUP1 REVERT JUMPDEST DUP1 PUSH3 0x1D3567 EQ PUSH2 0x28C JUMPI DUP1 PUSH4 0x1FFC9A7 EQ PUSH2 0x2AE JUMPI DUP1 PUSH4 0x7810867 EQ PUSH2 0x2E3 JUMPI DUP1 PUSH4 0x7E0DB17 EQ PUSH2 0x329 JUMPI DUP1 PUSH4 0x10DDB137 EQ PUSH2 0x349 JUMPI JUMPDEST PUSH1 0x0 DUP1 REVERT JUMPDEST CALLVALUE DUP1 ISZERO PUSH2 0x298 JUMPI PUSH1 0x0 DUP1 REVERT JUMPDEST POP PUSH2 0x2AC PUSH2 0x2A7 CALLDATASIZE PUSH1 0x4 PUSH2 0x2ED0 JUMP JUMPDEST PUSH2 0x8B0 JUMP JUMPDEST STOP JUMPDEST CALLVALUE DUP1 ISZERO PUSH2 0x2BA JUMPI PUSH1 0x0 DUP1 REVERT JUMPDEST POP PUSH2 0x2CE PUSH2 0x2C9 CALLDATASIZE PUSH1 0x4 PUSH2 0x2F65 JUMP JUMPDEST PUSH2 0xACC JUMP JUMPDEST PUSH1 0x40 MLOAD SWAP1 ISZERO ISZERO DUP2 MSTORE PUSH1 0x20 ADD JUMPDEST PUSH1 0x40 MLOAD DUP1 SWAP2 SUB SWAP1 RETURN JUMPDEST CALLVALUE DUP1 ISZERO PUSH2 0x2EF JUMPI PUSH1 0x0 DUP1 REVERT JUMPDEST POP PUSH2 0x31B PUSH2 0x2FE CALLDATASIZE PUSH1 0x4 PUSH2 0x2F8F JUMP JUMPDEST PUSH1 0xFC PUSH1 0x20 SWAP1 DUP2 MSTORE PUSH1 0x0 SWAP3 DUP4 MSTORE PUSH1 0x40 DUP1 DUP5 KECCAK256 SWAP1 SWAP2 MSTORE SWAP1 DUP3 MSTORE SWAP1 KECCAK256 SLOAD DUP2 JUMP JUMPDEST PUSH1 0x40 MLOAD SWAP1 DUP2 MSTORE PUSH1 0x20 ADD PUSH2 0x2DA JUMP JUMPDEST CALLVALUE DUP1 ISZERO PUSH2 0x335 JUMPI PUSH1 0x0 DUP1 REVERT JUMPDEST POP PUSH2 0x2AC PUSH2 0x344 CALLDATASIZE PUSH1 0x4 PUSH2 0x2FBB JUMP JUMPDEST PUSH2 0xAF7 JUMP JUMPDEST CALLVALUE DUP1 ISZERO PUSH2 0x355 JUMPI PUSH1 0x0 DUP1 REVERT JUMPDEST POP PUSH2 0x2AC PUSH2 0x364 CALLDATASIZE PUSH1 0x4 PUSH2 0x2FBB JUMP JUMPDEST PUSH2 0xB66 JUMP JUMPDEST CALLVALUE DUP1 ISZERO PUSH2 0x375 JUMPI PUSH1 0x0 DUP1 REVERT JUMPDEST POP PUSH2 0x31B PUSH2 0x384 CALLDATASIZE PUSH1 0x4 PUSH2 0x2FD8 JUMP JUMPDEST PUSH1 0x0 SWAP1 DUP2 MSTORE PUSH1 0x65 PUSH1 0x20 MSTORE PUSH1 0x40 SWAP1 KECCAK256 PUSH1 0x1 ADD SLOAD SWAP1 JUMP JUMPDEST CALLVALUE DUP1 ISZERO PUSH2 0x3A5 JUMPI PUSH1 0x0 DUP1 REVERT JUMPDEST POP PUSH2 0x2AC PUSH2 0x3B4 CALLDATASIZE PUSH1 0x4 PUSH2 0x3006 JUMP JUMPDEST PUSH2 0xBA4 JUMP JUMPDEST CALLVALUE DUP1 ISZERO PUSH2 0x3C5 JUMPI PUSH1 0x0 DUP1 REVERT JUMPDEST POP PUSH2 0x2AC PUSH2 0x3D4 CALLDATASIZE PUSH1 0x4 PUSH2 0x3006 JUMP JUMPDEST PUSH2 0xBCE JUMP JUMPDEST CALLVALUE DUP1 ISZERO PUSH2 0x3E5 JUMPI PUSH1 0x0 DUP1 REVERT JUMPDEST POP PUSH2 0x3EE PUSH2 0xC4C JUMP JUMPDEST PUSH1 0x40 MLOAD PUSH2 0x2DA SWAP2 SWAP1 PUSH2 0x3036 JUMP JUMPDEST CALLVALUE DUP1 ISZERO PUSH2 0x407 JUMPI PUSH1 0x0 DUP1 REVERT JUMPDEST POP PUSH2 0x2CE PUSH2 0x416 CALLDATASIZE PUSH1 0x4 PUSH2 0x30AB JUMP JUMPDEST PUSH2 0xD61 JUMP JUMPDEST CALLVALUE DUP1 ISZERO PUSH2 0x427 JUMPI PUSH1 0x0 DUP1 REVERT JUMPDEST POP PUSH2 0x2AC PUSH2 0x436 CALLDATASIZE PUSH1 0x4 PUSH2 0x30AB JUMP JUMPDEST PUSH2 0xE2D JUMP JUMPDEST CALLVALUE DUP1 ISZERO PUSH2 0x447 JUMPI PUSH1 0x0 DUP1 REVERT JUMPDEST POP PUSH2 0x31B PUSH1 0x0 DUP2 JUMP JUMPDEST CALLVALUE DUP1 ISZERO PUSH2 0x45C JUMPI PUSH1 0x0 DUP1 REVERT JUMPDEST POP PUSH2 0x2AC PUSH2 0x46B CALLDATASIZE PUSH1 0x4 PUSH2 0x30FF JUMP JUMPDEST PUSH2 0xE99 JUMP JUMPDEST CALLVALUE DUP1 ISZERO PUSH2 0x47C JUMPI PUSH1 0x0 DUP1 REVERT JUMPDEST POP PUSH2 0x490 PUSH2 0x48B CALLDATASIZE PUSH1 0x4 PUSH2 0x312D JUMP JUMPDEST PUSH2 0xFAE JUMP JUMPDEST PUSH1 0x40 MLOAD PUSH2 0x2DA SWAP2 SWAP1 PUSH2 0x314B JUMP JUMPDEST CALLVALUE DUP1 ISZERO PUSH2 0x4A9 JUMPI PUSH1 0x0 DUP1 REVERT JUMPDEST POP PUSH2 0x31B PUSH2 0x4B8 CALLDATASIZE PUSH1 0x4 PUSH2 0x3243 JUMP JUMPDEST PUSH2 0x12E PUSH1 0x20 SWAP1 DUP2 MSTORE PUSH1 0x0 SWAP4 DUP5 MSTORE PUSH1 0x40 DUP1 DUP6 KECCAK256 DUP5 MLOAD DUP1 DUP7 ADD DUP5 ADD DUP1 MLOAD SWAP3 DUP2 MSTORE SWAP1 DUP5 ADD SWAP6 DUP5 ADD SWAP6 SWAP1 SWAP6 KECCAK256 SWAP5 MSTORE SWAP3 SWAP1 MSTORE DUP3 MSTORE SWAP1 KECCAK256 SLOAD DUP2 JUMP JUMPDEST CALLVALUE DUP1 ISZERO PUSH2 0x4F9 JUMPI PUSH1 0x0 DUP1 REVERT JUMPDEST POP PUSH2 0x196 SLOAD PUSH2 0x2CE SWAP1 PUSH1 0xFF AND DUP2 JUMP JUMPDEST CALLVALUE DUP1 ISZERO PUSH2 0x514 JUMPI PUSH1 0x0 DUP1 REVERT JUMPDEST POP PUSH2 0x2AC PUSH2 0x523 CALLDATASIZE PUSH1 0x4 PUSH2 0x32A2 JUMP JUMPDEST PUSH2 0x1077 JUMP JUMPDEST CALLVALUE DUP1 ISZERO PUSH2 0x534 JUMPI PUSH1 0x0 DUP1 REVERT JUMPDEST POP PUSH2 0x2AC PUSH2 0x543 CALLDATASIZE PUSH1 0x4 PUSH2 0x3328 JUMP JUMPDEST PUSH2 0x10E7 JUMP JUMPDEST CALLVALUE DUP1 ISZERO PUSH2 0x554 JUMPI PUSH1 0x0 DUP1 REVERT JUMPDEST POP PUSH2 0x568 PUSH2 0x563 CALLDATASIZE PUSH1 0x4 PUSH2 0x2FBB JUMP JUMPDEST PUSH2 0x126C JUMP JUMPDEST PUSH1 0x40 MLOAD PUSH2 0x2DA SWAP2 SWAP1 PUSH2 0x33C3 JUMP JUMPDEST CALLVALUE DUP1 ISZERO PUSH2 0x581 JUMPI PUSH1 0x0 DUP1 REVERT JUMPDEST POP PUSH2 0x2AC PUSH2 0x1306 JUMP JUMPDEST CALLVALUE DUP1 ISZERO PUSH2 0x596 JUMPI PUSH1 0x0 DUP1 REVERT JUMPDEST POP PUSH2 0x5AA PUSH2 0x5A5 CALLDATASIZE PUSH1 0x4 PUSH2 0x33D6 JUMP JUMPDEST PUSH2 0x1320 JUMP JUMPDEST PUSH1 0x40 MLOAD PUSH1 0x1 PUSH1 0x1 PUSH1 0xA0 SHL SUB SWAP1 SWAP2 AND DUP2 MSTORE PUSH1 0x20 ADD PUSH2 0x2DA JUMP JUMPDEST CALLVALUE DUP1 ISZERO PUSH2 0x5CE JUMPI PUSH1 0x0 DUP1 REVERT JUMPDEST POP PUSH2 0x2CE PUSH2 0x5DD CALLDATASIZE PUSH1 0x4 PUSH2 0x3006 JUMP JUMPDEST PUSH2 0x133F JUMP JUMPDEST CALLVALUE DUP1 ISZERO PUSH2 0x5EE JUMPI PUSH1 0x0 DUP1 REVERT JUMPDEST POP PUSH2 0x31B PUSH2 0x195 SLOAD DUP2 JUMP JUMPDEST CALLVALUE DUP1 ISZERO PUSH2 0x605 JUMPI PUSH1 0x0 DUP1 REVERT JUMPDEST POP PUSH1 0xFD SLOAD PUSH2 0x5AA SWAP1 PUSH1 0x1 PUSH1 0x1 PUSH1 0xA0 SHL SUB AND DUP2 JUMP JUMPDEST CALLVALUE DUP1 ISZERO PUSH2 0x625 JUMPI PUSH1 0x0 DUP1 REVERT JUMPDEST POP PUSH2 0x568 PUSH2 0x634 CALLDATASIZE PUSH1 0x4 PUSH2 0x2FBB JUMP JUMPDEST PUSH2 0x136A JUMP JUMPDEST CALLVALUE DUP1 ISZERO PUSH2 0x645 JUMPI PUSH1 0x0 DUP1 REVERT JUMPDEST POP PUSH2 0x2AC PUSH2 0x654 CALLDATASIZE PUSH1 0x4 PUSH2 0x30AB JUMP JUMPDEST PUSH2 0x1479 JUMP JUMPDEST CALLVALUE DUP1 ISZERO PUSH2 0x665 JUMPI PUSH1 0x0 DUP1 REVERT JUMPDEST POP PUSH2 0x2AC PUSH2 0x674 CALLDATASIZE PUSH1 0x4 PUSH2 0x312D JUMP JUMPDEST PUSH2 0x14F7 JUMP JUMPDEST CALLVALUE DUP1 ISZERO PUSH2 0x685 JUMPI PUSH1 0x0 DUP1 REVERT JUMPDEST POP PUSH2 0x699 PUSH2 0x694 CALLDATASIZE PUSH1 0x4 PUSH2 0x33F8 JUMP JUMPDEST PUSH2 0x15E8 JUMP JUMPDEST PUSH1 0x40 DUP1 MLOAD SWAP3 DUP4 MSTORE PUSH1 0x20 DUP4 ADD SWAP2 SWAP1 SWAP2 MSTORE ADD PUSH2 0x2DA JUMP JUMPDEST CALLVALUE DUP1 ISZERO PUSH2 0x6BA JUMPI PUSH1 0x0 DUP1 REVERT JUMPDEST POP PUSH2 0x31B PUSH1 0x1 DUP2 JUMP JUMPDEST CALLVALUE DUP1 ISZERO PUSH2 0x6CF JUMPI PUSH1 0x0 DUP1 REVERT JUMPDEST POP PUSH1 0xFA SLOAD PUSH2 0x5AA SWAP1 PUSH1 0x1 PUSH1 0x1 PUSH1 0xA0 SHL SUB AND DUP2 JUMP JUMPDEST CALLVALUE DUP1 ISZERO PUSH2 0x6EF JUMPI PUSH1 0x0 DUP1 REVERT JUMPDEST POP PUSH2 0x2AC PUSH2 0x6FE CALLDATASIZE PUSH1 0x4 PUSH2 0x3328 JUMP JUMPDEST PUSH2 0x16A4 JUMP JUMPDEST PUSH2 0x2AC PUSH2 0x711 CALLDATASIZE PUSH1 0x4 PUSH2 0x33F8 JUMP JUMPDEST PUSH2 0x17FD JUMP JUMPDEST CALLVALUE DUP1 ISZERO PUSH2 0x722 JUMPI PUSH1 0x0 DUP1 REVERT JUMPDEST POP PUSH2 0x2AC PUSH2 0x731 CALLDATASIZE PUSH1 0x4 PUSH2 0x3464 JUMP JUMPDEST PUSH2 0x1851 JUMP JUMPDEST CALLVALUE DUP1 ISZERO PUSH2 0x742 JUMPI PUSH1 0x0 DUP1 REVERT JUMPDEST POP PUSH2 0x31B PUSH2 0x2710 DUP2 JUMP JUMPDEST CALLVALUE DUP1 ISZERO PUSH2 0x758 JUMPI PUSH1 0x0 DUP1 REVERT JUMPDEST POP PUSH2 0x31B PUSH2 0x767 CALLDATASIZE PUSH1 0x4 PUSH2 0x2FD8 JUMP JUMPDEST PUSH2 0x18B0 JUMP JUMPDEST CALLVALUE DUP1 ISZERO PUSH2 0x778 JUMPI PUSH1 0x0 DUP1 REVERT JUMPDEST POP PUSH2 0x2AC PUSH2 0x787 CALLDATASIZE PUSH1 0x4 PUSH2 0x3481 JUMP JUMPDEST PUSH2 0x18C7 JUMP JUMPDEST PUSH2 0x2AC PUSH2 0x79A CALLDATASIZE PUSH1 0x4 PUSH2 0x32A2 JUMP JUMPDEST PUSH2 0x1942 JUMP JUMPDEST CALLVALUE DUP1 ISZERO PUSH2 0x7AB JUMPI PUSH1 0x0 DUP1 REVERT JUMPDEST POP PUSH2 0x2AC PUSH2 0x7BA CALLDATASIZE PUSH1 0x4 PUSH2 0x3006 JUMP JUMPDEST PUSH2 0x1A96 JUMP JUMPDEST CALLVALUE DUP1 ISZERO PUSH2 0x7CB JUMPI PUSH1 0x0 DUP1 REVERT JUMPDEST POP PUSH2 0x2AC PUSH2 0x7DA CALLDATASIZE PUSH1 0x4 PUSH2 0x34F3 JUMP JUMPDEST PUSH2 0x1ABB JUMP JUMPDEST CALLVALUE DUP1 ISZERO PUSH2 0x7EB JUMPI PUSH1 0x0 DUP1 REVERT JUMPDEST POP PUSH2 0x2AC PUSH2 0x7FA CALLDATASIZE PUSH1 0x4 PUSH2 0x3534 JUMP JUMPDEST PUSH2 0x1B6F JUMP JUMPDEST CALLVALUE DUP1 ISZERO PUSH2 0x80B JUMPI PUSH1 0x0 DUP1 REVERT JUMPDEST POP PUSH2 0x2AC PUSH2 0x81A CALLDATASIZE PUSH1 0x4 PUSH2 0x30AB JUMP JUMPDEST PUSH2 0x1BBB JUMP JUMPDEST CALLVALUE DUP1 ISZERO PUSH2 0x82B JUMPI PUSH1 0x0 DUP1 REVERT JUMPDEST POP PUSH2 0x161 SLOAD PUSH2 0x2CE SWAP1 PUSH1 0xFF AND DUP2 JUMP JUMPDEST CALLVALUE DUP1 ISZERO PUSH2 0x846 JUMPI PUSH1 0x0 DUP1 REVERT JUMPDEST POP PUSH2 0x2CE PUSH2 0x855 CALLDATASIZE PUSH1 0x4 PUSH2 0x312D JUMP JUMPDEST PUSH2 0x1C17 JUMP JUMPDEST CALLVALUE DUP1 ISZERO PUSH2 0x866 JUMPI PUSH1 0x0 DUP1 REVERT JUMPDEST POP PUSH2 0x568 PUSH2 0x875 CALLDATASIZE PUSH1 0x4 PUSH2 0x3556 JUMP JUMPDEST PUSH2 0x1C67 JUMP JUMPDEST CALLVALUE DUP1 ISZERO PUSH2 0x886 JUMPI PUSH1 0x0 DUP1 REVERT JUMPDEST POP PUSH2 0x2AC PUSH2 0x1CFA JUMP JUMPDEST CALLVALUE DUP1 ISZERO PUSH2 0x89B JUMPI PUSH1 0x0 DUP1 REVERT JUMPDEST POP PUSH2 0x194 SLOAD PUSH2 0x5AA SWAP1 PUSH1 0x1 PUSH1 0x1 PUSH1 0xA0 SHL SUB AND DUP2 JUMP JUMPDEST PUSH1 0xFA SLOAD PUSH1 0x1 PUSH1 0x1 PUSH1 0xA0 SHL SUB AND CALLER PUSH1 0x1 PUSH1 0x1 PUSH1 0xA0 SHL SUB AND EQ PUSH2 0x918 JUMPI PUSH1 0x40 MLOAD PUSH3 0x461BCD PUSH1 0xE5 SHL DUP2 MSTORE PUSH1 0x20 PUSH1 0x4 DUP3 ADD MSTORE PUSH1 0x1E PUSH1 0x24 DUP3 ADD MSTORE PUSH32 0x4C7A4170703A20696E76616C696420656E64706F696E742063616C6C65720000 PUSH1 0x44 DUP3 ADD MSTORE PUSH1 0x64 ADD JUMPDEST PUSH1 0x40 MLOAD DUP1 SWAP2 SUB SWAP1 REVERT JUMPDEST PUSH2 0xFFFF DUP7 AND PUSH1 0x0 SWAP1 DUP2 MSTORE PUSH1 0xFB PUSH1 0x20 MSTORE PUSH1 0x40 DUP2 KECCAK256 DUP1 SLOAD PUSH2 0x936 SWAP1 PUSH2 0x35A7 JUMP JUMPDEST DUP1 PUSH1 0x1F ADD PUSH1 0x20 DUP1 SWAP2 DIV MUL PUSH1 0x20 ADD PUSH1 0x40 MLOAD SWAP1 DUP2 ADD PUSH1 0x40 MSTORE DUP1 SWAP3 SWAP2 SWAP1 DUP2 DUP2 MSTORE PUSH1 0x20 ADD DUP3 DUP1 SLOAD PUSH2 0x962 SWAP1 PUSH2 0x35A7 JUMP JUMPDEST DUP1 ISZERO PUSH2 0x9AF JUMPI DUP1 PUSH1 0x1F LT PUSH2 0x984 JUMPI PUSH2 0x100 DUP1 DUP4 SLOAD DIV MUL DUP4 MSTORE SWAP2 PUSH1 0x20 ADD SWAP2 PUSH2 0x9AF JUMP JUMPDEST DUP3 ADD SWAP2 SWAP1 PUSH1 0x0 MSTORE PUSH1 0x20 PUSH1 0x0 KECCAK256 SWAP1 JUMPDEST DUP2 SLOAD DUP2 MSTORE SWAP1 PUSH1 0x1 ADD SWAP1 PUSH1 0x20 ADD DUP1 DUP4 GT PUSH2 0x992 JUMPI DUP3 SWAP1 SUB PUSH1 0x1F AND DUP3 ADD SWAP2 JUMPDEST POP POP POP POP POP SWAP1 POP DUP1 MLOAD DUP7 DUP7 SWAP1 POP EQ DUP1 ISZERO PUSH2 0x9CA JUMPI POP PUSH1 0x0 DUP2 MLOAD GT JUMPDEST DUP1 ISZERO PUSH2 0x9F2 JUMPI POP DUP1 MLOAD PUSH1 0x20 DUP3 ADD KECCAK256 PUSH1 0x40 MLOAD PUSH2 0x9E8 SWAP1 DUP9 SWAP1 DUP9 SWAP1 PUSH2 0x35E1 JUMP JUMPDEST PUSH1 0x40 MLOAD DUP1 SWAP2 SUB SWAP1 KECCAK256 EQ JUMPDEST PUSH2 0xA4D JUMPI PUSH1 0x40 MLOAD PUSH3 0x461BCD PUSH1 0xE5 SHL DUP2 MSTORE PUSH1 0x20 PUSH1 0x4 DUP3 ADD MSTORE PUSH1 0x26 PUSH1 0x24 DUP3 ADD MSTORE PUSH32 0x4C7A4170703A20696E76616C696420736F757263652073656E64696E6720636F PUSH1 0x44 DUP3 ADD MSTORE PUSH6 0x1B9D1C9858DD PUSH1 0xD2 SHL PUSH1 0x64 DUP3 ADD MSTORE PUSH1 0x84 ADD PUSH2 0x90F JUMP JUMPDEST PUSH2 0xAC3 DUP8 DUP8 DUP8 DUP1 DUP1 PUSH1 0x1F ADD PUSH1 0x20 DUP1 SWAP2 DIV MUL PUSH1 0x20 ADD PUSH1 0x40 MLOAD SWAP1 DUP2 ADD PUSH1 0x40 MSTORE DUP1 SWAP4 SWAP3 SWAP2 SWAP1 DUP2 DUP2 MSTORE PUSH1 0x20 ADD DUP4 DUP4 DUP1 DUP3 DUP5 CALLDATACOPY PUSH1 0x0 SWAP3 ADD SWAP2 SWAP1 SWAP2 MSTORE POP POP PUSH1 0x40 DUP1 MLOAD PUSH1 0x20 PUSH1 0x1F DUP11 ADD DUP2 SWAP1 DIV DUP2 MUL DUP3 ADD DUP2 ADD SWAP1 SWAP3 MSTORE DUP9 DUP2 MSTORE DUP11 SWAP4 POP SWAP2 POP DUP9 SWAP1 DUP9 SWAP1 DUP2 SWAP1 DUP5 ADD DUP4 DUP3 DUP1 DUP3 DUP5 CALLDATACOPY PUSH1 0x0 SWAP3 ADD SWAP2 SWAP1 SWAP2 MSTORE POP PUSH2 0x1D11 SWAP3 POP POP POP JUMP JUMPDEST POP POP POP POP POP POP POP JUMP JUMPDEST PUSH1 0x0 PUSH1 0x1 PUSH1 0x1 PUSH1 0xE0 SHL SUB NOT DUP3 AND PUSH4 0x5A05180F PUSH1 0xE0 SHL EQ DUP1 PUSH2 0xAF1 JUMPI POP PUSH2 0xAF1 DUP3 PUSH2 0x1E03 JUMP JUMPDEST SWAP3 SWAP2 POP POP JUMP JUMPDEST PUSH2 0xB01 PUSH1 0x0 PUSH2 0x1E38 JUMP JUMPDEST PUSH1 0xFA SLOAD PUSH1 0x40 MLOAD PUSH4 0x7E0DB17 PUSH1 0xE0 SHL DUP2 MSTORE PUSH2 0xFFFF DUP4 AND PUSH1 0x4 DUP3 ADD MSTORE PUSH1 0x1 PUSH1 0x1 PUSH1 0xA0 SHL SUB SWAP1 SWAP2 AND SWAP1 PUSH4 0x7E0DB17 SWAP1 PUSH1 0x24 ADD JUMPDEST PUSH1 0x0 PUSH1 0x40 MLOAD DUP1 DUP4 SUB DUP2 PUSH1 0x0 DUP8 DUP1 EXTCODESIZE ISZERO DUP1 ISZERO PUSH2 0xB4B JUMPI PUSH1 0x0 DUP1 REVERT JUMPDEST POP GAS CALL ISZERO DUP1 ISZERO PUSH2 0xB5F JUMPI RETURNDATASIZE PUSH1 0x0 DUP1 RETURNDATACOPY RETURNDATASIZE PUSH1 0x0 REVERT JUMPDEST POP POP POP POP POP JUMP JUMPDEST PUSH2 0xB70 PUSH1 0x0 PUSH2 0x1E38 JUMP JUMPDEST PUSH1 0xFA SLOAD PUSH1 0x40 MLOAD PUSH4 0x10DDB137 PUSH1 0xE0 SHL DUP2 MSTORE PUSH2 0xFFFF DUP4 AND PUSH1 0x4 DUP3 ADD MSTORE PUSH1 0x1 PUSH1 0x1 PUSH1 0xA0 SHL SUB SWAP1 SWAP2 AND SWAP1 PUSH4 0x10DDB137 SWAP1 PUSH1 0x24 ADD PUSH2 0xB31 JUMP JUMPDEST PUSH1 0x0 DUP3 DUP2 MSTORE PUSH1 0x65 PUSH1 0x20 MSTORE PUSH1 0x40 SWAP1 KECCAK256 PUSH1 0x1 ADD SLOAD PUSH2 0xBBF DUP2 PUSH2 0x1E38 JUMP JUMPDEST PUSH2 0xBC9 DUP4 DUP4 PUSH2 0x1E45 JUMP JUMPDEST POP POP POP JUMP JUMPDEST PUSH1 0x1 PUSH1 0x1 PUSH1 0xA0 SHL SUB DUP2 AND CALLER EQ PUSH2 0xC3E JUMPI PUSH1 0x40 MLOAD PUSH3 0x461BCD PUSH1 0xE5 SHL DUP2 MSTORE PUSH1 0x20 PUSH1 0x4 DUP3 ADD MSTORE PUSH1 0x2F PUSH1 0x24 DUP3 ADD MSTORE PUSH32 0x416363657373436F6E74726F6C3A2063616E206F6E6C792072656E6F756E6365 PUSH1 0x44 DUP3 ADD MSTORE PUSH15 0x103937B632B9903337B91039B2B633 PUSH1 0x89 SHL PUSH1 0x64 DUP3 ADD MSTORE PUSH1 0x84 ADD PUSH2 0x90F JUMP JUMPDEST PUSH2 0xC48 DUP3 DUP3 PUSH2 0x1E67 JUMP JUMPDEST POP POP JUMP JUMPDEST PUSH1 0x60 PUSH1 0x0 PUSH2 0xC5B PUSH2 0x197 PUSH2 0x1E89 JUMP JUMPDEST SWAP1 POP PUSH1 0x0 DUP2 PUSH1 0x1 PUSH1 0x1 PUSH1 0x40 SHL SUB DUP2 GT ISZERO PUSH2 0xC77 JUMPI PUSH2 0xC77 PUSH2 0x3180 JUMP JUMPDEST PUSH1 0x40 MLOAD SWAP1 DUP1 DUP3 MSTORE DUP1 PUSH1 0x20 MUL PUSH1 0x20 ADD DUP3 ADD PUSH1 0x40 MSTORE DUP1 ISZERO PUSH2 0xCC2 JUMPI DUP2 PUSH1 0x20 ADD JUMPDEST PUSH1 0x40 DUP1 MLOAD PUSH1 0x60 DUP2 ADD DUP3 MSTORE PUSH1 0x0 DUP1 DUP3 MSTORE PUSH1 0x20 DUP1 DUP4 ADD DUP3 SWAP1 MSTORE SWAP3 DUP3 ADD MSTORE DUP3 MSTORE PUSH1 0x0 NOT SWAP1 SWAP3 ADD SWAP2 ADD DUP2 PUSH2 0xC95 JUMPI SWAP1 POP JUMPDEST POP SWAP1 POP PUSH1 0x0 JUMPDEST DUP3 DUP2 LT ISZERO PUSH2 0xD5A JUMPI PUSH2 0x199 PUSH1 0x0 PUSH2 0xCE1 PUSH2 0x197 DUP5 PUSH2 0x1E93 JUMP JUMPDEST DUP2 MSTORE PUSH1 0x20 DUP1 DUP3 ADD SWAP3 SWAP1 SWAP3 MSTORE PUSH1 0x40 SWAP1 DUP2 ADD PUSH1 0x0 KECCAK256 DUP2 MLOAD PUSH1 0x60 DUP2 ADD DUP4 MSTORE DUP2 SLOAD PUSH2 0xFFFF DUP2 AND DUP3 MSTORE PUSH1 0x1 PUSH1 0x1 PUSH1 0xA0 SHL SUB PUSH3 0x10000 SWAP1 SWAP2 DIV DUP2 AND SWAP5 DUP3 ADD SWAP5 SWAP1 SWAP5 MSTORE PUSH1 0x1 SWAP1 SWAP2 ADD SLOAD SWAP1 SWAP3 AND SWAP1 DUP3 ADD MSTORE DUP3 MLOAD DUP4 SWAP1 DUP4 SWAP1 DUP2 LT PUSH2 0xD3E JUMPI PUSH2 0xD3E PUSH2 0x35F1 JUMP JUMPDEST PUSH1 0x20 MUL PUSH1 0x20 ADD ADD DUP2 SWAP1 MSTORE POP DUP1 PUSH2 0xD53 SWAP1 PUSH2 0x361D JUMP JUMPDEST SWAP1 POP PUSH2 0xCC8 JUMP JUMPDEST POP SWAP3 SWAP2 POP POP JUMP JUMPDEST PUSH2 0xFFFF DUP4 AND PUSH1 0x0 SWAP1 DUP2 MSTORE PUSH1 0xFB PUSH1 0x20 MSTORE PUSH1 0x40 DUP2 KECCAK256 DUP1 SLOAD DUP3 SWAP2 SWAP1 PUSH2 0xD82 SWAP1 PUSH2 0x35A7 JUMP JUMPDEST DUP1 PUSH1 0x1F ADD PUSH1 0x20 DUP1 SWAP2 DIV MUL PUSH1 0x20 ADD PUSH1 0x40 MLOAD SWAP1 DUP2 ADD PUSH1 0x40 MSTORE DUP1 SWAP3 SWAP2 SWAP1 DUP2 DUP2 MSTORE PUSH1 0x20 ADD DUP3 DUP1 SLOAD PUSH2 0xDAE SWAP1 PUSH2 0x35A7 JUMP JUMPDEST DUP1 ISZERO PUSH2 0xDFB JUMPI DUP1 PUSH1 0x1F LT PUSH2 0xDD0 JUMPI PUSH2 0x100 DUP1 DUP4 SLOAD DIV MUL DUP4 MSTORE SWAP2 PUSH1 0x20 ADD SWAP2 PUSH2 0xDFB JUMP JUMPDEST DUP3 ADD SWAP2 SWAP1 PUSH1 0x0 MSTORE PUSH1 0x20 PUSH1 0x0 KECCAK256 SWAP1 JUMPDEST DUP2 SLOAD DUP2 MSTORE SWAP1 PUSH1 0x1 ADD SWAP1 PUSH1 0x20 ADD DUP1 DUP4 GT PUSH2 0xDDE JUMPI DUP3 SWAP1 SUB PUSH1 0x1F AND DUP3 ADD SWAP2 JUMPDEST POP POP POP POP POP SWAP1 POP DUP4 DUP4 PUSH1 0x40 MLOAD PUSH2 0xE12 SWAP3 SWAP2 SWAP1 PUSH2 0x35E1 JUMP JUMPDEST PUSH1 0x40 MLOAD DUP1 SWAP2 SUB SWAP1 KECCAK256 DUP2 DUP1 MLOAD SWAP1 PUSH1 0x20 ADD KECCAK256 EQ SWAP2 POP POP SWAP4 SWAP3 POP POP POP JUMP JUMPDEST PUSH2 0xE37 PUSH1 0x0 PUSH2 0x1E38 JUMP JUMPDEST PUSH1 0xFA SLOAD PUSH1 0x40 MLOAD PUSH4 0x42D65A8D PUSH1 0xE0 SHL DUP2 MSTORE PUSH1 0x1 PUSH1 0x1 PUSH1 0xA0 SHL SUB SWAP1 SWAP2 AND SWAP1 PUSH4 0x42D65A8D SWAP1 PUSH2 0xE6B SWAP1 DUP7 SWAP1 DUP7 SWAP1 DUP7 SWAP1 PUSH1 0x4 ADD PUSH2 0x365F JUMP JUMPDEST PUSH1 0x0 PUSH1 0x40 MLOAD DUP1 DUP4 SUB DUP2 PUSH1 0x0 DUP8 DUP1 EXTCODESIZE ISZERO DUP1 ISZERO PUSH2 0xE85 JUMPI PUSH1 0x0 DUP1 REVERT JUMPDEST POP GAS CALL ISZERO DUP1 ISZERO PUSH2 0xAC3 JUMPI RETURNDATASIZE PUSH1 0x0 DUP1 RETURNDATACOPY RETURNDATASIZE PUSH1 0x0 REVERT JUMPDEST PUSH1 0x0 SLOAD PUSH2 0x100 SWAP1 DIV PUSH1 0xFF AND ISZERO DUP1 DUP1 ISZERO PUSH2 0xEB9 JUMPI POP PUSH1 0x0 SLOAD PUSH1 0x1 PUSH1 0xFF SWAP1 SWAP2 AND LT JUMPDEST DUP1 PUSH2 0xED3 JUMPI POP ADDRESS EXTCODESIZE ISZERO DUP1 ISZERO PUSH2 0xED3 JUMPI POP PUSH1 0x0 SLOAD PUSH1 0xFF AND PUSH1 0x1 EQ JUMPDEST PUSH2 0xF36 JUMPI PUSH1 0x40 MLOAD PUSH3 0x461BCD PUSH1 0xE5 SHL DUP2 MSTORE PUSH1 0x20 PUSH1 0x4 DUP3 ADD MSTORE PUSH1 0x2E PUSH1 0x24 DUP3 ADD MSTORE PUSH32 0x496E697469616C697A61626C653A20636F6E747261637420697320616C726561 PUSH1 0x44 DUP3 ADD MSTORE PUSH14 0x191E481A5B9A5D1A585B1A5E9959 PUSH1 0x92 SHL PUSH1 0x64 DUP3 ADD MSTORE PUSH1 0x84 ADD PUSH2 0x90F JUMP JUMPDEST PUSH1 0x0 DUP1 SLOAD PUSH1 0xFF NOT AND PUSH1 0x1 OR SWAP1 SSTORE DUP1 ISZERO PUSH2 0xF59 JUMPI PUSH1 0x0 DUP1 SLOAD PUSH2 0xFF00 NOT AND PUSH2 0x100 OR SWAP1 SSTORE JUMPDEST PUSH2 0xF63 DUP4 DUP4 PUSH2 0x1E9F JUMP JUMPDEST DUP1 ISZERO PUSH2 0xBC9 JUMPI PUSH1 0x0 DUP1 SLOAD PUSH2 0xFF00 NOT AND SWAP1 SSTORE PUSH1 0x40 MLOAD PUSH1 0x1 DUP2 MSTORE PUSH32 0x7F26B83FF96E1F2B6A682F133852F6798A09C465DA95921460CEFB3847402498 SWAP1 PUSH1 0x20 ADD JUMPDEST PUSH1 0x40 MLOAD DUP1 SWAP2 SUB SWAP1 LOG1 POP POP POP JUMP JUMPDEST PUSH1 0x40 DUP1 MLOAD PUSH1 0x60 DUP1 DUP3 ADD DUP4 MSTORE PUSH1 0x0 DUP1 DUP4 MSTORE PUSH1 0x20 DUP1 DUP5 ADD DUP3 SWAP1 MSTORE DUP4 DUP6 ADD SWAP2 SWAP1 SWAP2 MSTORE DUP4 MLOAD PUSH2 0xFFFF DUP8 AND DUP2 DUP4 ADD MSTORE PUSH1 0x1 PUSH1 0x1 PUSH1 0xA0 SHL SUB DUP7 AND DUP2 DUP7 ADD MSTORE DUP5 MLOAD DUP1 DUP3 SUB DUP7 ADD DUP2 MSTORE SWAP3 ADD SWAP1 SWAP4 MSTORE DUP1 MLOAD SWAP3 ADD SWAP2 SWAP1 SWAP2 KECCAK256 PUSH2 0x1008 PUSH2 0x197 DUP3 PUSH2 0x1ED0 JUMP JUMPDEST PUSH2 0x1024 JUMPI PUSH1 0x40 MLOAD PUSH3 0x461BCD PUSH1 0xE5 SHL DUP2 MSTORE PUSH1 0x4 ADD PUSH2 0x90F SWAP1 PUSH2 0x367D JUMP JUMPDEST PUSH1 0x0 SWAP1 DUP2 MSTORE PUSH2 0x199 PUSH1 0x20 SWAP1 DUP2 MSTORE PUSH1 0x40 SWAP2 DUP3 SWAP1 KECCAK256 DUP3 MLOAD PUSH1 0x60 DUP2 ADD DUP5 MSTORE DUP2 SLOAD PUSH2 0xFFFF DUP2 AND DUP3 MSTORE PUSH3 0x10000 SWAP1 DIV PUSH1 0x1 PUSH1 0x1 PUSH1 0xA0 SHL SUB SWAP1 DUP2 AND SWAP4 DUP3 ADD SWAP4 SWAP1 SWAP4 MSTORE PUSH1 0x1 SWAP1 SWAP2 ADD SLOAD SWAP1 SWAP2 AND SWAP2 DUP2 ADD SWAP2 SWAP1 SWAP2 MSTORE SWAP4 SWAP3 POP POP POP JUMP JUMPDEST CALLER ADDRESS EQ PUSH2 0x10D5 JUMPI PUSH1 0x40 MLOAD PUSH3 0x461BCD PUSH1 0xE5 SHL DUP2 MSTORE PUSH1 0x20 PUSH1 0x4 DUP3 ADD MSTORE PUSH1 0x26 PUSH1 0x24 DUP3 ADD MSTORE PUSH32 0x4E6F6E626C6F636B696E674C7A4170703A2063616C6C6572206D757374206265 PUSH1 0x44 DUP3 ADD MSTORE PUSH6 0x204C7A41707 PUSH1 0xD4 SHL PUSH1 0x64 DUP3 ADD MSTORE PUSH1 0x84 ADD PUSH2 0x90F JUMP JUMPDEST PUSH2 0x10E1 DUP5 DUP5 DUP5 DUP5 PUSH2 0x1EE8 JUMP JUMPDEST POP POP POP POP JUMP JUMPDEST PUSH2 0x10F1 PUSH1 0x0 PUSH2 0x1E38 JUMP JUMPDEST PUSH1 0x0 DUP4 PUSH2 0xFFFF AND GT PUSH2 0x1115 JUMPI PUSH1 0x40 MLOAD PUSH3 0x461BCD PUSH1 0xE5 SHL DUP2 MSTORE PUSH1 0x4 ADD PUSH2 0x90F SWAP1 PUSH2 0x36A6 JUMP JUMPDEST PUSH1 0x1 PUSH1 0x1 PUSH1 0xA0 SHL SUB DUP3 AND PUSH2 0x113B JUMPI PUSH1 0x40 MLOAD PUSH3 0x461BCD PUSH1 0xE5 SHL DUP2 MSTORE PUSH1 0x4 ADD PUSH2 0x90F SWAP1 PUSH2 0x36CB JUMP JUMPDEST PUSH1 0x1 PUSH1 0x1 PUSH1 0xA0 SHL SUB DUP2 AND PUSH2 0x1161 JUMPI PUSH1 0x40 MLOAD PUSH3 0x461BCD PUSH1 0xE5 SHL DUP2 MSTORE PUSH1 0x4 ADD PUSH2 0x90F SWAP1 PUSH2 0x36EE JUMP JUMPDEST PUSH1 0x40 DUP1 MLOAD PUSH2 0xFFFF DUP6 AND PUSH1 0x20 DUP1 DUP4 ADD SWAP2 SWAP1 SWAP2 MSTORE PUSH1 0x1 PUSH1 0x1 PUSH1 0xA0 SHL SUB DUP6 AND DUP3 DUP5 ADD MSTORE DUP3 MLOAD DUP1 DUP4 SUB DUP5 ADD DUP2 MSTORE PUSH1 0x60 SWAP1 SWAP3 ADD SWAP1 SWAP3 MSTORE DUP1 MLOAD SWAP2 ADD KECCAK256 PUSH2 0x11A3 PUSH2 0x197 DUP3 PUSH2 0x1ED0 JUMP JUMPDEST ISZERO PUSH2 0x11DE JUMPI PUSH1 0x40 MLOAD PUSH3 0x461BCD PUSH1 0xE5 SHL DUP2 MSTORE PUSH1 0x20 PUSH1 0x4 DUP3 ADD MSTORE PUSH1 0xB PUSH1 0x24 DUP3 ADD MSTORE PUSH11 0x6C616E6520657869737421 PUSH1 0xA8 SHL PUSH1 0x44 DUP3 ADD MSTORE PUSH1 0x64 ADD PUSH2 0x90F JUMP JUMPDEST PUSH2 0x11EA PUSH2 0x197 DUP3 PUSH2 0x1F52 JUMP JUMPDEST POP PUSH1 0x40 DUP1 MLOAD PUSH1 0x60 DUP2 ADD DUP3 MSTORE PUSH2 0xFFFF SWAP6 DUP7 AND DUP2 MSTORE PUSH1 0x1 PUSH1 0x1 PUSH1 0xA0 SHL SUB SWAP5 DUP6 AND PUSH1 0x20 DUP1 DUP4 ADD SWAP2 DUP3 MSTORE SWAP5 DUP7 AND DUP3 DUP5 ADD SWAP1 DUP2 MSTORE PUSH1 0x0 SWAP5 DUP6 MSTORE PUSH2 0x199 SWAP1 SWAP6 MSTORE SWAP2 SWAP1 SWAP3 KECCAK256 SWAP2 MLOAD DUP3 SLOAD SWAP2 MLOAD SWAP6 AND PUSH1 0x1 PUSH1 0x1 PUSH1 0xB0 SHL SUB NOT SWAP1 SWAP2 AND OR PUSH3 0x10000 SWAP5 DUP5 AND SWAP5 SWAP1 SWAP5 MUL SWAP4 SWAP1 SWAP4 OR DUP4 SSTORE MLOAD PUSH1 0x1 SWAP1 SWAP3 ADD DUP1 SLOAD PUSH1 0x1 PUSH1 0x1 PUSH1 0xA0 SHL SUB NOT AND SWAP3 SWAP1 SWAP2 AND SWAP2 SWAP1 SWAP2 OR SWAP1 SSTORE JUMP JUMPDEST PUSH1 0xFB PUSH1 0x20 MSTORE PUSH1 0x0 SWAP1 DUP2 MSTORE PUSH1 0x40 SWAP1 KECCAK256 DUP1 SLOAD PUSH2 0x1285 SWAP1 PUSH2 0x35A7 JUMP JUMPDEST DUP1 PUSH1 0x1F ADD PUSH1 0x20 DUP1 SWAP2 DIV MUL PUSH1 0x20 ADD PUSH1 0x40 MLOAD SWAP1 DUP2 ADD PUSH1 0x40 MSTORE DUP1 SWAP3 SWAP2 SWAP1 DUP2 DUP2 MSTORE PUSH1 0x20 ADD DUP3 DUP1 SLOAD PUSH2 0x12B1 SWAP1 PUSH2 0x35A7 JUMP JUMPDEST DUP1 ISZERO PUSH2 0x12FE JUMPI DUP1 PUSH1 0x1F LT PUSH2 0x12D3 JUMPI PUSH2 0x100 DUP1 DUP4 SLOAD DIV MUL DUP4 MSTORE SWAP2 PUSH1 0x20 ADD SWAP2 PUSH2 0x12FE JUMP JUMPDEST DUP3 ADD SWAP2 SWAP1 PUSH1 0x0 MSTORE PUSH1 0x20 PUSH1 0x0 KECCAK256 SWAP1 JUMPDEST DUP2 SLOAD DUP2 MSTORE SWAP1 PUSH1 0x1 ADD SWAP1 PUSH1 0x20 ADD DUP1 DUP4 GT PUSH2 0x12E1 JUMPI DUP3 SWAP1 SUB PUSH1 0x1F AND DUP3 ADD SWAP2 JUMPDEST POP POP POP POP POP DUP2 JUMP JUMPDEST PUSH2 0x1310 PUSH1 0x0 PUSH2 0x1E38 JUMP JUMPDEST PUSH2 0x196 DUP1 SLOAD PUSH1 0xFF NOT AND PUSH1 0x1 OR SWAP1 SSTORE JUMP JUMPDEST PUSH1 0x0 DUP3 DUP2 MSTORE PUSH1 0x97 PUSH1 0x20 MSTORE PUSH1 0x40 DUP2 KECCAK256 PUSH2 0x1338 SWAP1 DUP4 PUSH2 0x1E93 JUMP JUMPDEST SWAP4 SWAP3 POP POP POP JUMP JUMPDEST PUSH1 0x0 SWAP2 DUP3 MSTORE PUSH1 0x65 PUSH1 0x20 SWAP1 DUP2 MSTORE PUSH1 0x40 DUP1 DUP5 KECCAK256 PUSH1 0x1 PUSH1 0x1 PUSH1 0xA0 SHL SUB SWAP4 SWAP1 SWAP4 AND DUP5 MSTORE SWAP2 SWAP1 MSTORE SWAP1 KECCAK256 SLOAD PUSH1 0xFF AND SWAP1 JUMP JUMPDEST PUSH2 0xFFFF DUP2 AND PUSH1 0x0 SWAP1 DUP2 MSTORE PUSH1 0xFB PUSH1 0x20 MSTORE PUSH1 0x40 DUP2 KECCAK256 DUP1 SLOAD PUSH1 0x60 SWAP3 SWAP2 SWAP1 PUSH2 0x138D SWAP1 PUSH2 0x35A7 JUMP JUMPDEST DUP1 PUSH1 0x1F ADD PUSH1 0x20 DUP1 SWAP2 DIV MUL PUSH1 0x20 ADD PUSH1 0x40 MLOAD SWAP1 DUP2 ADD PUSH1 0x40 MSTORE DUP1 SWAP3 SWAP2 SWAP1 DUP2 DUP2 MSTORE PUSH1 0x20 ADD DUP3 DUP1 SLOAD PUSH2 0x13B9 SWAP1 PUSH2 0x35A7 JUMP JUMPDEST DUP1 ISZERO PUSH2 0x1406 JUMPI DUP1 PUSH1 0x1F LT PUSH2 0x13DB JUMPI PUSH2 0x100 DUP1 DUP4 SLOAD DIV MUL DUP4 MSTORE SWAP2 PUSH1 0x20 ADD SWAP2 PUSH2 0x1406 JUMP JUMPDEST DUP3 ADD SWAP2 SWAP1 PUSH1 0x0 MSTORE PUSH1 0x20 PUSH1 0x0 KECCAK256 SWAP1 JUMPDEST DUP2 SLOAD DUP2 MSTORE SWAP1 PUSH1 0x1 ADD SWAP1 PUSH1 0x20 ADD DUP1 DUP4 GT PUSH2 0x13E9 JUMPI DUP3 SWAP1 SUB PUSH1 0x1F AND DUP3 ADD SWAP2 JUMPDEST POP POP POP POP POP SWAP1 POP DUP1 MLOAD PUSH1 0x0 SUB PUSH2 0x145E JUMPI PUSH1 0x40 MLOAD PUSH3 0x461BCD PUSH1 0xE5 SHL DUP2 MSTORE PUSH1 0x20 PUSH1 0x4 DUP3 ADD MSTORE PUSH1 0x1D PUSH1 0x24 DUP3 ADD MSTORE PUSH32 0x4C7A4170703A206E6F20747275737465642070617468207265636F7264000000 PUSH1 0x44 DUP3 ADD MSTORE PUSH1 0x64 ADD PUSH2 0x90F JUMP JUMPDEST PUSH2 0x1338 PUSH1 0x0 PUSH1 0x14 DUP4 MLOAD PUSH2 0x1471 SWAP2 SWAP1 PUSH2 0x3711 JUMP JUMPDEST DUP4 SWAP2 SWAP1 PUSH2 0x1F5E JUMP JUMPDEST PUSH2 0x1483 PUSH1 0x0 PUSH2 0x1E38 JUMP JUMPDEST DUP2 DUP2 ADDRESS PUSH1 0x40 MLOAD PUSH1 0x20 ADD PUSH2 0x1498 SWAP4 SWAP3 SWAP2 SWAP1 PUSH2 0x3724 JUMP JUMPDEST PUSH1 0x40 DUP1 MLOAD PUSH1 0x1F NOT DUP2 DUP5 SUB ADD DUP2 MSTORE SWAP2 DUP2 MSTORE PUSH2 0xFFFF DUP6 AND PUSH1 0x0 SWAP1 DUP2 MSTORE PUSH1 0xFB PUSH1 0x20 MSTORE KECCAK256 SWAP1 PUSH2 0x14C3 SWAP1 DUP3 PUSH2 0x3790 JUMP JUMPDEST POP PUSH32 0x8C0400CFE2D1199B1A725C78960BCC2A344D869B80590D0F2BD005DB15A572CE DUP4 DUP4 DUP4 PUSH1 0x40 MLOAD PUSH2 0xFA1 SWAP4 SWAP3 SWAP2 SWAP1 PUSH2 0x365F JUMP JUMPDEST PUSH2 0x1501 PUSH1 0x0 PUSH2 0x1E38 JUMP JUMPDEST PUSH1 0x0 DUP3 PUSH2 0xFFFF AND GT PUSH2 0x1525 JUMPI PUSH1 0x40 MLOAD PUSH3 0x461BCD PUSH1 0xE5 SHL DUP2 MSTORE PUSH1 0x4 ADD PUSH2 0x90F SWAP1 PUSH2 0x36A6 JUMP JUMPDEST PUSH1 0x1 PUSH1 0x1 PUSH1 0xA0 SHL SUB DUP2 AND PUSH2 0x154B JUMPI PUSH1 0x40 MLOAD PUSH3 0x461BCD PUSH1 0xE5 SHL DUP2 MSTORE PUSH1 0x4 ADD PUSH2 0x90F SWAP1 PUSH2 0x36CB JUMP JUMPDEST PUSH1 0x40 DUP1 MLOAD PUSH2 0xFFFF DUP5 AND PUSH1 0x20 DUP1 DUP4 ADD SWAP2 SWAP1 SWAP2 MSTORE PUSH1 0x1 PUSH1 0x1 PUSH1 0xA0 SHL SUB DUP5 AND DUP3 DUP5 ADD MSTORE DUP3 MLOAD DUP1 DUP4 SUB DUP5 ADD DUP2 MSTORE PUSH1 0x60 SWAP1 SWAP3 ADD SWAP1 SWAP3 MSTORE DUP1 MLOAD SWAP2 ADD KECCAK256 PUSH2 0x158D PUSH2 0x197 DUP3 PUSH2 0x1ED0 JUMP JUMPDEST PUSH2 0x15A9 JUMPI PUSH1 0x40 MLOAD PUSH3 0x461BCD PUSH1 0xE5 SHL DUP2 MSTORE PUSH1 0x4 ADD PUSH2 0x90F SWAP1 PUSH2 0x367D JUMP JUMPDEST PUSH2 0x15B5 PUSH2 0x197 DUP3 PUSH2 0x206B JUMP JUMPDEST POP PUSH1 0x0 SWAP1 DUP2 MSTORE PUSH2 0x199 PUSH1 0x20 MSTORE PUSH1 0x40 SWAP1 KECCAK256 DUP1 SLOAD PUSH1 0x1 PUSH1 0x1 PUSH1 0xB0 SHL SUB NOT AND DUP2 SSTORE PUSH1 0x1 ADD DUP1 SLOAD PUSH1 0x1 PUSH1 0x1 PUSH1 0xA0 SHL SUB NOT AND SWAP1 SSTORE POP POP JUMP JUMPDEST PUSH1 0x0 DUP1 PUSH1 0x0 DUP1 DUP9 DUP8 DUP8 DUP8 PUSH1 0x40 MLOAD PUSH1 0x20 ADD PUSH2 0x1606 SWAP6 SWAP5 SWAP4 SWAP3 SWAP2 SWAP1 PUSH2 0x384F JUMP JUMPDEST PUSH1 0x40 DUP1 MLOAD PUSH1 0x1F NOT DUP2 DUP5 SUB ADD DUP2 MSTORE PUSH1 0xFA SLOAD PUSH1 0x0 DUP1 DUP6 MSTORE PUSH1 0x20 DUP6 ADD SWAP4 DUP5 SWAP1 MSTORE PUSH4 0x40A7BB1 PUSH1 0xE4 SHL SWAP1 SWAP4 MSTORE SWAP1 SWAP4 POP PUSH1 0x1 PUSH1 0x1 PUSH1 0xA0 SHL SUB AND SWAP2 PUSH4 0x40A7BB10 SWAP2 PUSH2 0x1655 SWAP2 DUP12 SWAP2 ADDRESS SWAP2 DUP8 SWAP2 SWAP1 PUSH1 0x24 DUP2 ADD PUSH2 0x388F JUMP JUMPDEST PUSH1 0x40 DUP1 MLOAD DUP1 DUP4 SUB DUP2 DUP7 GAS STATICCALL ISZERO DUP1 ISZERO PUSH2 0x1671 JUMPI RETURNDATASIZE PUSH1 0x0 DUP1 RETURNDATACOPY RETURNDATASIZE PUSH1 0x0 REVERT JUMPDEST POP POP POP POP PUSH1 0x40 MLOAD RETURNDATASIZE PUSH1 0x1F NOT PUSH1 0x1F DUP3 ADD AND DUP3 ADD DUP1 PUSH1 0x40 MSTORE POP DUP2 ADD SWAP1 PUSH2 0x1695 SWAP2 SWAP1 PUSH2 0x38D7 JUMP JUMPDEST SWAP3 POP SWAP3 POP POP SWAP6 POP SWAP6 SWAP4 POP POP POP POP JUMP JUMPDEST PUSH2 0x16AE PUSH1 0x0 PUSH2 0x1E38 JUMP JUMPDEST PUSH1 0x0 DUP4 PUSH2 0xFFFF AND GT PUSH2 0x16D2 JUMPI PUSH1 0x40 MLOAD PUSH3 0x461BCD PUSH1 0xE5 SHL DUP2 MSTORE PUSH1 0x4 ADD PUSH2 0x90F SWAP1 PUSH2 0x36A6 JUMP JUMPDEST PUSH1 0x1 PUSH1 0x1 PUSH1 0xA0 SHL SUB DUP3 AND PUSH2 0x16F8 JUMPI PUSH1 0x40 MLOAD PUSH3 0x461BCD PUSH1 0xE5 SHL DUP2 MSTORE PUSH1 0x4 ADD PUSH2 0x90F SWAP1 PUSH2 0x36CB JUMP JUMPDEST PUSH1 0x1 PUSH1 0x1 PUSH1 0xA0 SHL SUB DUP2 AND PUSH2 0x171E JUMPI PUSH1 0x40 MLOAD PUSH3 0x461BCD PUSH1 0xE5 SHL DUP2 MSTORE PUSH1 0x4 ADD PUSH2 0x90F SWAP1 PUSH2 0x36EE JUMP JUMPDEST PUSH1 0x40 DUP1 MLOAD PUSH2 0xFFFF DUP6 AND PUSH1 0x20 DUP1 DUP4 ADD SWAP2 SWAP1 SWAP2 MSTORE PUSH1 0x1 PUSH1 0x1 PUSH1 0xA0 SHL SUB DUP6 AND DUP3 DUP5 ADD MSTORE DUP3 MLOAD DUP1 DUP4 SUB DUP5 ADD DUP2 MSTORE PUSH1 0x60 SWAP1 SWAP3 ADD SWAP1 SWAP3 MSTORE DUP1 MLOAD SWAP2 ADD KECCAK256 PUSH2 0x1760 PUSH2 0x197 DUP3 PUSH2 0x1ED0 JUMP JUMPDEST PUSH2 0x177C JUMPI PUSH1 0x40 MLOAD PUSH3 0x461BCD PUSH1 0xE5 SHL DUP2 MSTORE PUSH1 0x4 ADD PUSH2 0x90F SWAP1 PUSH2 0x367D JUMP JUMPDEST PUSH1 0x40 DUP1 MLOAD PUSH1 0x60 DUP2 ADD DUP3 MSTORE PUSH2 0xFFFF SWAP6 DUP7 AND DUP2 MSTORE PUSH1 0x1 PUSH1 0x1 PUSH1 0xA0 SHL SUB SWAP5 DUP6 AND PUSH1 0x20 DUP1 DUP4 ADD SWAP2 DUP3 MSTORE SWAP5 DUP7 AND DUP3 DUP5 ADD SWAP1 DUP2 MSTORE PUSH1 0x0 SWAP5 DUP6 MSTORE PUSH2 0x199 SWAP1 SWAP6 MSTORE SWAP2 SWAP1 SWAP3 KECCAK256 SWAP2 MLOAD DUP3 SLOAD SWAP2 MLOAD SWAP6 AND PUSH1 0x1 PUSH1 0x1 PUSH1 0xB0 SHL SUB NOT SWAP1 SWAP2 AND OR PUSH3 0x10000 SWAP5 DUP5 AND SWAP5 SWAP1 SWAP5 MUL SWAP4 SWAP1 SWAP4 OR DUP4 SSTORE MLOAD PUSH1 0x1 SWAP1 SWAP3 ADD DUP1 SLOAD PUSH1 0x1 PUSH1 0x1 PUSH1 0xA0 SHL SUB NOT AND SWAP3 SWAP1 SWAP2 AND SWAP2 SWAP1 SWAP2 OR SWAP1 SSTORE JUMP JUMPDEST PUSH2 0xB5F DUP6 CALLER DUP7 DUP7 DUP7 DUP1 DUP1 PUSH1 0x1F ADD PUSH1 0x20 DUP1 SWAP2 DIV MUL PUSH1 0x20 ADD PUSH1 0x40 MLOAD SWAP1 DUP2 ADD PUSH1 0x40 MSTORE DUP1 SWAP4 SWAP3 SWAP2 SWAP1 DUP2 DUP2 MSTORE PUSH1 0x20 ADD DUP4 DUP4 DUP1 DUP3 DUP5 CALLDATACOPY PUSH1 0x0 SWAP3 ADD DUP3 SWAP1 MSTORE POP PUSH1 0x40 DUP1 MLOAD DUP3 DUP2 MSTORE PUSH1 0x20 DUP2 ADD SWAP1 SWAP2 MSTORE DUP11 SWAP5 POP CALLER SWAP4 POP SWAP1 SWAP2 POP PUSH2 0x2077 JUMP JUMPDEST PUSH2 0x185B PUSH1 0x0 PUSH2 0x1E38 JUMP JUMPDEST PUSH1 0xFD DUP1 SLOAD PUSH1 0x1 PUSH1 0x1 PUSH1 0xA0 SHL SUB NOT AND PUSH1 0x1 PUSH1 0x1 PUSH1 0xA0 SHL SUB DUP4 AND SWAP1 DUP2 OR SWAP1 SWAP2 SSTORE PUSH1 0x40 MLOAD SWAP1 DUP2 MSTORE PUSH32 0x5DB758E995A17EC1AD84BDEF7E8C3293A0BD6179BCCE400DFF5D4C3D87DB726B SWAP1 PUSH1 0x20 ADD JUMPDEST PUSH1 0x40 MLOAD DUP1 SWAP2 SUB SWAP1 LOG1 POP JUMP JUMPDEST PUSH1 0x0 DUP2 DUP2 MSTORE PUSH1 0x97 PUSH1 0x20 MSTORE PUSH1 0x40 DUP2 KECCAK256 PUSH2 0xAF1 SWAP1 PUSH2 0x1E89 JUMP JUMPDEST PUSH2 0x18D1 PUSH1 0x0 PUSH2 0x1E38 JUMP JUMPDEST PUSH1 0xFA SLOAD PUSH1 0x40 MLOAD PUSH4 0x32FB62E7 PUSH1 0xE2 SHL DUP2 MSTORE PUSH1 0x1 PUSH1 0x1 PUSH1 0xA0 SHL SUB SWAP1 SWAP2 AND SWAP1 PUSH4 0xCBED8B9C SWAP1 PUSH2 0x1909 SWAP1 DUP9 SWAP1 DUP9 SWAP1 DUP9 SWAP1 DUP9 SWAP1 DUP9 SWAP1 PUSH1 0x4 ADD PUSH2 0x38FB JUMP JUMPDEST PUSH1 0x0 PUSH1 0x40 MLOAD DUP1 DUP4 SUB DUP2 PUSH1 0x0 DUP8 DUP1 EXTCODESIZE ISZERO DUP1 ISZERO PUSH2 0x1923 JUMPI PUSH1 0x0 DUP1 REVERT JUMPDEST POP GAS CALL ISZERO DUP1 ISZERO PUSH2 0x1937 JUMPI RETURNDATASIZE PUSH1 0x0 DUP1 RETURNDATACOPY RETURNDATASIZE PUSH1 0x0 REVERT JUMPDEST POP POP POP POP POP POP POP POP POP JUMP JUMPDEST PUSH2 0xFFFF DUP5 AND PUSH1 0x0 SWAP1 DUP2 MSTORE PUSH2 0x12E PUSH1 0x20 MSTORE PUSH1 0x40 DUP1 DUP3 KECCAK256 SWAP1 MLOAD PUSH2 0x1964 SWAP1 DUP7 SWAP1 PUSH2 0x3929 JUMP JUMPDEST SWAP1 DUP2 MSTORE PUSH1 0x40 DUP1 MLOAD PUSH1 0x20 SWAP3 DUP2 SWAP1 SUB DUP4 ADD SWAP1 KECCAK256 PUSH1 0x1 PUSH1 0x1 PUSH1 0x40 SHL SUB DUP7 AND PUSH1 0x0 SWAP1 DUP2 MSTORE SWAP3 MSTORE SWAP1 KECCAK256 SLOAD SWAP1 POP DUP1 PUSH2 0x19E4 JUMPI PUSH1 0x40 MLOAD PUSH3 0x461BCD PUSH1 0xE5 SHL DUP2 MSTORE PUSH1 0x20 PUSH1 0x4 DUP3 ADD MSTORE PUSH1 0x23 PUSH1 0x24 DUP3 ADD MSTORE PUSH32 0x4E6F6E626C6F636B696E674C7A4170703A206E6F2073746F726564206D657373 PUSH1 0x44 DUP3 ADD MSTORE PUSH3 0x616765 PUSH1 0xE8 SHL PUSH1 0x64 DUP3 ADD MSTORE PUSH1 0x84 ADD PUSH2 0x90F JUMP JUMPDEST DUP2 MLOAD PUSH1 0x20 DUP4 ADD KECCAK256 DUP2 EQ PUSH2 0x1A43 JUMPI PUSH1 0x40 MLOAD PUSH3 0x461BCD PUSH1 0xE5 SHL DUP2 MSTORE PUSH1 0x20 PUSH1 0x4 DUP3 ADD MSTORE PUSH1 0x21 PUSH1 0x24 DUP3 ADD MSTORE PUSH32 0x4E6F6E626C6F636B696E674C7A4170703A20696E76616C6964207061796C6F61 PUSH1 0x44 DUP3 ADD MSTORE PUSH1 0x19 PUSH1 0xFA SHL PUSH1 0x64 DUP3 ADD MSTORE PUSH1 0x84 ADD PUSH2 0x90F JUMP JUMPDEST PUSH2 0xFFFF DUP6 AND PUSH1 0x0 SWAP1 DUP2 MSTORE PUSH2 0x12E PUSH1 0x20 MSTORE PUSH1 0x40 DUP1 DUP3 KECCAK256 SWAP1 MLOAD PUSH2 0x1A65 SWAP1 DUP8 SWAP1 PUSH2 0x3929 JUMP JUMPDEST SWAP1 DUP2 MSTORE PUSH1 0x40 DUP1 MLOAD PUSH1 0x20 SWAP3 DUP2 SWAP1 SUB DUP4 ADD SWAP1 KECCAK256 PUSH1 0x1 PUSH1 0x1 PUSH1 0x40 SHL SUB DUP8 AND PUSH1 0x0 SWAP1 DUP2 MSTORE SWAP3 MSTORE SWAP1 KECCAK256 SSTORE PUSH2 0xB5F DUP6 DUP6 DUP6 DUP6 PUSH2 0x1EE8 JUMP JUMPDEST PUSH1 0x0 DUP3 DUP2 MSTORE PUSH1 0x65 PUSH1 0x20 MSTORE PUSH1 0x40 SWAP1 KECCAK256 PUSH1 0x1 ADD SLOAD PUSH2 0x1AB1 DUP2 PUSH2 0x1E38 JUMP JUMPDEST PUSH2 0xBC9 DUP4 DUP4 PUSH2 0x1E67 JUMP JUMPDEST PUSH2 0x1AC5 PUSH1 0x0 PUSH2 0x1E38 JUMP JUMPDEST PUSH1 0x0 DUP2 GT PUSH2 0x1B0D JUMPI PUSH1 0x40 MLOAD PUSH3 0x461BCD PUSH1 0xE5 SHL DUP2 MSTORE PUSH1 0x20 PUSH1 0x4 DUP3 ADD MSTORE PUSH1 0x15 PUSH1 0x24 DUP3 ADD MSTORE PUSH21 0x4C7A4170703A20696E76616C6964206D696E476173 PUSH1 0x58 SHL PUSH1 0x44 DUP3 ADD MSTORE PUSH1 0x64 ADD PUSH2 0x90F JUMP JUMPDEST PUSH2 0xFFFF DUP4 DUP2 AND PUSH1 0x0 DUP2 DUP2 MSTORE PUSH1 0xFC PUSH1 0x20 SWAP1 DUP2 MSTORE PUSH1 0x40 DUP1 DUP4 KECCAK256 SWAP5 DUP8 AND DUP1 DUP5 MSTORE SWAP5 DUP3 MSTORE SWAP2 DUP3 SWAP1 KECCAK256 DUP6 SWAP1 SSTORE DUP2 MLOAD SWAP3 DUP4 MSTORE DUP3 ADD SWAP3 SWAP1 SWAP3 MSTORE SWAP1 DUP2 ADD DUP3 SWAP1 MSTORE PUSH32 0x9D5C7C0B934DA8FEFA9C7760C98383778A12DFBFC0C3B3106518F43FB9508AC0 SWAP1 PUSH1 0x60 ADD PUSH2 0xFA1 JUMP JUMPDEST PUSH2 0x1B79 PUSH1 0x0 PUSH2 0x1E38 JUMP JUMPDEST PUSH2 0x161 DUP1 SLOAD PUSH1 0xFF NOT AND DUP3 ISZERO ISZERO SWAP1 DUP2 OR SWAP1 SWAP2 SSTORE PUSH1 0x40 MLOAD SWAP1 DUP2 MSTORE PUSH32 0x1584AD594A70CBE1E6515592E1272A987D922B097EAD875069CEBE8B40C004A4 SWAP1 PUSH1 0x20 ADD PUSH2 0x18A5 JUMP JUMPDEST PUSH2 0x1BC5 PUSH1 0x0 PUSH2 0x1E38 JUMP JUMPDEST PUSH2 0xFFFF DUP4 AND PUSH1 0x0 SWAP1 DUP2 MSTORE PUSH1 0xFB PUSH1 0x20 MSTORE PUSH1 0x40 SWAP1 KECCAK256 PUSH2 0x1BE3 DUP3 DUP5 DUP4 PUSH2 0x3945 JUMP JUMPDEST POP PUSH32 0xFA41487AD5D6728F0B19276FA1EDDC16558578F5109FC39D2DC33C3230470DAB DUP4 DUP4 DUP4 PUSH1 0x40 MLOAD PUSH2 0xFA1 SWAP4 SWAP3 SWAP2 SWAP1 PUSH2 0x365F JUMP JUMPDEST PUSH1 0x40 DUP1 MLOAD PUSH2 0xFFFF DUP5 AND PUSH1 0x20 DUP3 ADD MSTORE PUSH1 0x1 PUSH1 0x1 PUSH1 0xA0 SHL SUB DUP4 AND SWAP2 DUP2 ADD SWAP2 SWAP1 SWAP2 MSTORE PUSH1 0x0 SWAP1 PUSH2 0x1338 SWAP1 PUSH1 0x60 ADD PUSH1 0x40 MLOAD PUSH1 0x20 DUP2 DUP4 SUB SUB DUP2 MSTORE SWAP1 PUSH1 0x40 MSTORE DUP1 MLOAD SWAP1 PUSH1 0x20 ADD KECCAK256 PUSH2 0x197 PUSH2 0x1ED0 SWAP1 SWAP2 SWAP1 PUSH4 0xFFFFFFFF AND JUMP JUMPDEST PUSH1 0xFA SLOAD PUSH1 0x40 MLOAD PUSH4 0x3D7B2F6F PUSH1 0xE2 SHL DUP2 MSTORE PUSH2 0xFFFF DUP1 DUP8 AND PUSH1 0x4 DUP4 ADD MSTORE DUP6 AND PUSH1 0x24 DUP3 ADD MSTORE ADDRESS PUSH1 0x44 DUP3 ADD MSTORE PUSH1 0x64 DUP2 ADD DUP4 SWAP1 MSTORE PUSH1 0x60 SWAP2 PUSH1 0x1 PUSH1 0x1 PUSH1 0xA0 SHL SUB AND SWAP1 PUSH4 0xF5ECBDBC SWAP1 PUSH1 0x84 ADD PUSH1 0x0 PUSH1 0x40 MLOAD DUP1 DUP4 SUB DUP2 DUP7 GAS STATICCALL ISZERO DUP1 ISZERO PUSH2 0x1CC9 JUMPI RETURNDATASIZE PUSH1 0x0 DUP1 RETURNDATACOPY RETURNDATASIZE PUSH1 0x0 REVERT JUMPDEST POP POP POP POP PUSH1 0x40 MLOAD RETURNDATASIZE PUSH1 0x0 DUP3 RETURNDATACOPY PUSH1 0x1F RETURNDATASIZE SWAP1 DUP2 ADD PUSH1 0x1F NOT AND DUP3 ADD PUSH1 0x40 MSTORE PUSH2 0x1CF1 SWAP2 SWAP1 DUP2 ADD SWAP1 PUSH2 0x3A51 JUMP JUMPDEST SWAP6 SWAP5 POP POP POP POP POP JUMP JUMPDEST PUSH2 0x1D04 PUSH1 0x0 PUSH2 0x1E38 JUMP JUMPDEST PUSH2 0x196 DUP1 SLOAD PUSH1 0xFF NOT AND SWAP1 SSTORE JUMP JUMPDEST PUSH1 0x40 MLOAD PUSH4 0x3356AE45 PUSH1 0xE1 SHL DUP2 MSTORE ADDRESS SWAP1 PUSH4 0x66AD5C8A SWAP1 PUSH2 0x1D3A SWAP1 DUP8 SWAP1 DUP8 SWAP1 DUP8 SWAP1 DUP8 SWAP1 PUSH1 0x4 ADD PUSH2 0x3A85 JUMP JUMPDEST PUSH1 0x0 PUSH1 0x40 MLOAD DUP1 DUP4 SUB DUP2 PUSH1 0x0 DUP8 DUP1 EXTCODESIZE ISZERO DUP1 ISZERO PUSH2 0x1D54 JUMPI PUSH1 0x0 DUP1 REVERT JUMPDEST POP GAS CALL SWAP3 POP POP POP DUP1 ISZERO PUSH2 0x1D65 JUMPI POP PUSH1 0x1 JUMPDEST PUSH2 0x10E1 JUMPI DUP1 DUP1 MLOAD SWAP1 PUSH1 0x20 ADD KECCAK256 PUSH2 0x12E PUSH1 0x0 DUP7 PUSH2 0xFFFF AND PUSH2 0xFFFF AND DUP2 MSTORE PUSH1 0x20 ADD SWAP1 DUP2 MSTORE PUSH1 0x20 ADD PUSH1 0x0 KECCAK256 DUP5 PUSH1 0x40 MLOAD PUSH2 0x1D9B SWAP2 SWAP1 PUSH2 0x3929 JUMP JUMPDEST SWAP1 DUP2 MSTORE PUSH1 0x40 DUP1 MLOAD SWAP2 DUP3 SWAP1 SUB PUSH1 0x20 SWAP1 DUP2 ADD DUP4 KECCAK256 PUSH1 0x1 PUSH1 0x1 PUSH1 0x40 SHL SUB DUP8 AND PUSH1 0x0 SWAP1 DUP2 MSTORE SWAP2 MSTORE KECCAK256 SWAP2 SWAP1 SWAP2 SSTORE PUSH32 0xE6F254030BCB01FFD20558175C13FCAED6D1520BE7BECEE4C961B65F79243B0D SWAP1 PUSH2 0x1DF6 SWAP1 DUP7 SWAP1 DUP7 SWAP1 DUP7 SWAP1 DUP7 SWAP1 PUSH2 0x3A85 JUMP JUMPDEST PUSH1 0x40 MLOAD DUP1 SWAP2 SUB SWAP1 LOG1 PUSH2 0x10E1 JUMP JUMPDEST PUSH1 0x0 PUSH1 0x1 PUSH1 0x1 PUSH1 0xE0 SHL SUB NOT DUP3 AND PUSH4 0x7965DB0B PUSH1 0xE0 SHL EQ DUP1 PUSH2 0xAF1 JUMPI POP PUSH4 0x1FFC9A7 PUSH1 0xE0 SHL PUSH1 0x1 PUSH1 0x1 PUSH1 0xE0 SHL SUB NOT DUP4 AND EQ PUSH2 0xAF1 JUMP JUMPDEST PUSH2 0x1E42 DUP2 CALLER PUSH2 0x212C JUMP JUMPDEST POP JUMP JUMPDEST PUSH2 0x1E4F DUP3 DUP3 PUSH2 0x2185 JUMP JUMPDEST PUSH1 0x0 DUP3 DUP2 MSTORE PUSH1 0x97 PUSH1 0x20 MSTORE PUSH1 0x40 SWAP1 KECCAK256 PUSH2 0xBC9 SWAP1 DUP3 PUSH2 0x220B JUMP JUMPDEST PUSH2 0x1E71 DUP3 DUP3 PUSH2 0x2220 JUMP JUMPDEST PUSH1 0x0 DUP3 DUP2 MSTORE PUSH1 0x97 PUSH1 0x20 MSTORE PUSH1 0x40 SWAP1 KECCAK256 PUSH2 0xBC9 SWAP1 DUP3 PUSH2 0x2287 JUMP JUMPDEST PUSH1 0x0 PUSH2 0xAF1 DUP3 SLOAD SWAP1 JUMP JUMPDEST PUSH1 0x0 PUSH2 0x1338 DUP4 DUP4 PUSH2 0x229C JUMP JUMPDEST PUSH1 0x0 SLOAD PUSH2 0x100 SWAP1 DIV PUSH1 0xFF AND PUSH2 0x1EC6 JUMPI PUSH1 0x40 MLOAD PUSH3 0x461BCD PUSH1 0xE5 SHL DUP2 MSTORE PUSH1 0x4 ADD PUSH2 0x90F SWAP1 PUSH2 0x3AC3 JUMP JUMPDEST PUSH2 0xC48 DUP3 DUP3 PUSH2 0x22C6 JUMP JUMPDEST PUSH1 0x0 DUP2 DUP2 MSTORE PUSH1 0x1 DUP4 ADD PUSH1 0x20 MSTORE PUSH1 0x40 DUP2 KECCAK256 SLOAD ISZERO ISZERO PUSH2 0x1338 JUMP JUMPDEST PUSH1 0x20 DUP2 ADD MLOAD PUSH2 0xFFFF DUP2 AND PUSH1 0x0 SUB PUSH2 0x1F0A JUMPI PUSH2 0x1F05 DUP6 DUP6 DUP6 DUP6 PUSH2 0x22F7 JUMP JUMPDEST PUSH2 0xB5F JUMP JUMPDEST PUSH1 0x40 MLOAD PUSH3 0x461BCD PUSH1 0xE5 SHL DUP2 MSTORE PUSH1 0x20 PUSH1 0x4 DUP3 ADD MSTORE PUSH1 0x1C PUSH1 0x24 DUP3 ADD MSTORE PUSH32 0x4F4654436F72653A20756E6B6E6F776E207061636B6574207479706500000000 PUSH1 0x44 DUP3 ADD MSTORE PUSH1 0x64 ADD PUSH2 0x90F JUMP JUMPDEST PUSH1 0x0 PUSH2 0x1338 DUP4 DUP4 PUSH2 0x2391 JUMP JUMPDEST PUSH1 0x60 DUP2 PUSH2 0x1F6C DUP2 PUSH1 0x1F PUSH2 0x3B0E JUMP JUMPDEST LT ISZERO PUSH2 0x1FAB JUMPI PUSH1 0x40 MLOAD PUSH3 0x461BCD PUSH1 0xE5 SHL DUP2 MSTORE PUSH1 0x20 PUSH1 0x4 DUP3 ADD MSTORE PUSH1 0xE PUSH1 0x24 DUP3 ADD MSTORE PUSH14 0x736C6963655F6F766572666C6F77 PUSH1 0x90 SHL PUSH1 0x44 DUP3 ADD MSTORE PUSH1 0x64 ADD PUSH2 0x90F JUMP JUMPDEST PUSH2 0x1FB5 DUP3 DUP5 PUSH2 0x3B0E JUMP JUMPDEST DUP5 MLOAD LT ISZERO PUSH2 0x1FF9 JUMPI PUSH1 0x40 MLOAD PUSH3 0x461BCD PUSH1 0xE5 SHL DUP2 MSTORE PUSH1 0x20 PUSH1 0x4 DUP3 ADD MSTORE PUSH1 0x11 PUSH1 0x24 DUP3 ADD MSTORE PUSH17 0x736C6963655F6F75744F66426F756E6473 PUSH1 0x78 SHL PUSH1 0x44 DUP3 ADD MSTORE PUSH1 0x64 ADD PUSH2 0x90F JUMP JUMPDEST PUSH1 0x60 DUP3 ISZERO DUP1 ISZERO PUSH2 0x2018 JUMPI PUSH1 0x40 MLOAD SWAP2 POP PUSH1 0x0 DUP3 MSTORE PUSH1 0x20 DUP3 ADD PUSH1 0x40 MSTORE PUSH2 0x2062 JUMP JUMPDEST PUSH1 0x40 MLOAD SWAP2 POP PUSH1 0x1F DUP5 AND DUP1 ISZERO PUSH1 0x20 MUL DUP2 DUP5 ADD ADD DUP6 DUP2 ADD DUP8 DUP4 ISZERO PUSH1 0x20 MUL DUP5 DUP12 ADD ADD ADD JUMPDEST DUP2 DUP4 LT ISZERO PUSH2 0x2051 JUMPI DUP1 MLOAD DUP4 MSTORE PUSH1 0x20 SWAP3 DUP4 ADD SWAP3 ADD PUSH2 0x2039 JUMP JUMPDEST POP POP DUP6 DUP5 MSTORE PUSH1 0x1F ADD PUSH1 0x1F NOT AND PUSH1 0x40 MSTORE POP JUMPDEST POP SWAP5 SWAP4 POP POP POP POP JUMP JUMPDEST PUSH1 0x0 PUSH2 0x1338 DUP4 DUP4 PUSH2 0x23E0 JUMP JUMPDEST PUSH2 0x2085 DUP7 PUSH1 0x0 DUP4 PUSH1 0x0 PUSH2 0x24D3 JUMP JUMPDEST PUSH1 0x0 PUSH2 0x2094 DUP10 DUP10 DUP10 DUP10 DUP10 PUSH2 0x254E JUMP JUMPDEST SWAP1 POP PUSH1 0x0 DUP1 DUP11 DUP9 DUP5 PUSH1 0x40 MLOAD PUSH1 0x20 ADD PUSH2 0x20AF SWAP5 SWAP4 SWAP3 SWAP2 SWAP1 PUSH2 0x3B21 JUMP JUMPDEST PUSH1 0x40 MLOAD PUSH1 0x20 DUP2 DUP4 SUB SUB DUP2 MSTORE SWAP1 PUSH1 0x40 MSTORE SWAP1 POP PUSH2 0x20CE DUP9 DUP3 DUP8 DUP8 DUP8 CALLVALUE PUSH2 0x2745 JUMP JUMPDEST DUP9 PUSH1 0x1 PUSH1 0x1 PUSH1 0xA0 SHL SUB AND DUP11 PUSH1 0x1 PUSH1 0x1 PUSH1 0xA0 SHL SUB AND DUP10 PUSH2 0xFFFF AND PUSH32 0x862438C1AA68CD638FD7F177AFA4B83B1297E06DC6FCAA6CABB5ED8CE6B1DE75 DUP11 DUP7 PUSH1 0x40 MLOAD PUSH2 0x2118 SWAP3 SWAP2 SWAP1 PUSH2 0x3B5F JUMP JUMPDEST PUSH1 0x40 MLOAD DUP1 SWAP2 SUB SWAP1 LOG4 POP POP POP POP POP POP POP POP POP POP JUMP JUMPDEST PUSH2 0x2136 DUP3 DUP3 PUSH2 0x133F JUMP JUMPDEST PUSH2 0xC48 JUMPI PUSH2 0x2143 DUP2 PUSH2 0x28C3 JUMP JUMPDEST PUSH2 0x214E DUP4 PUSH1 0x20 PUSH2 0x28D5 JUMP JUMPDEST PUSH1 0x40 MLOAD PUSH1 0x20 ADD PUSH2 0x215F SWAP3 SWAP2 SWAP1 PUSH2 0x3B81 JUMP JUMPDEST PUSH1 0x40 DUP1 MLOAD PUSH1 0x1F NOT DUP2 DUP5 SUB ADD DUP2 MSTORE SWAP1 DUP3 SWAP1 MSTORE PUSH3 0x461BCD PUSH1 0xE5 SHL DUP3 MSTORE PUSH2 0x90F SWAP2 PUSH1 0x4 ADD PUSH2 0x33C3 JUMP JUMPDEST PUSH2 0x218F DUP3 DUP3 PUSH2 0x133F JUMP JUMPDEST PUSH2 0xC48 JUMPI PUSH1 0x0 DUP3 DUP2 MSTORE PUSH1 0x65 PUSH1 0x20 SWAP1 DUP2 MSTORE PUSH1 0x40 DUP1 DUP4 KECCAK256 PUSH1 0x1 PUSH1 0x1 PUSH1 0xA0 SHL SUB DUP6 AND DUP5 MSTORE SWAP1 SWAP2 MSTORE SWAP1 KECCAK256 DUP1 SLOAD PUSH1 0xFF NOT AND PUSH1 0x1 OR SWAP1 SSTORE PUSH2 0x21C7 CALLER SWAP1 JUMP JUMPDEST PUSH1 0x1 PUSH1 0x1 PUSH1 0xA0 SHL SUB AND DUP2 PUSH1 0x1 PUSH1 0x1 PUSH1 0xA0 SHL SUB AND DUP4 PUSH32 0x2F8788117E7EFF1D82E926EC794901D17C78024A50270940304540A733656F0D PUSH1 0x40 MLOAD PUSH1 0x40 MLOAD DUP1 SWAP2 SUB SWAP1 LOG4 POP POP JUMP JUMPDEST PUSH1 0x0 PUSH2 0x1338 DUP4 PUSH1 0x1 PUSH1 0x1 PUSH1 0xA0 SHL SUB DUP5 AND PUSH2 0x2391 JUMP JUMPDEST PUSH2 0x222A DUP3 DUP3 PUSH2 0x133F JUMP JUMPDEST ISZERO PUSH2 0xC48 JUMPI PUSH1 0x0 DUP3 DUP2 MSTORE PUSH1 0x65 PUSH1 0x20 SWAP1 DUP2 MSTORE PUSH1 0x40 DUP1 DUP4 KECCAK256 PUSH1 0x1 PUSH1 0x1 PUSH1 0xA0 SHL SUB DUP6 AND DUP1 DUP6 MSTORE SWAP3 MSTORE DUP1 DUP4 KECCAK256 DUP1 SLOAD PUSH1 0xFF NOT AND SWAP1 SSTORE MLOAD CALLER SWAP3 DUP6 SWAP2 PUSH32 0xF6391F5C32D9C69D2A47EA670B442974B53935D1EDC7FD64EB21E047A839171B SWAP2 SWAP1 LOG4 POP POP JUMP JUMPDEST PUSH1 0x0 PUSH2 0x1338 DUP4 PUSH1 0x1 PUSH1 0x1 PUSH1 0xA0 SHL SUB DUP5 AND PUSH2 0x23E0 JUMP JUMPDEST PUSH1 0x0 DUP3 PUSH1 0x0 ADD DUP3 DUP2 SLOAD DUP2 LT PUSH2 0x22B3 JUMPI PUSH2 0x22B3 PUSH2 0x35F1 JUMP JUMPDEST SWAP1 PUSH1 0x0 MSTORE PUSH1 0x20 PUSH1 0x0 KECCAK256 ADD SLOAD SWAP1 POP SWAP3 SWAP2 POP POP JUMP JUMPDEST PUSH1 0x0 SLOAD PUSH2 0x100 SWAP1 DIV PUSH1 0xFF AND PUSH2 0x22ED JUMPI PUSH1 0x40 MLOAD PUSH3 0x461BCD PUSH1 0xE5 SHL DUP2 MSTORE PUSH1 0x4 ADD PUSH2 0x90F SWAP1 PUSH2 0x3AC3 JUMP JUMPDEST PUSH2 0xC48 DUP3 DUP3 PUSH2 0x2A70 JUMP JUMPDEST PUSH1 0x0 DUP1 PUSH1 0x0 DUP4 DUP1 PUSH1 0x20 ADD SWAP1 MLOAD DUP2 ADD SWAP1 PUSH2 0x2310 SWAP2 SWAP1 PUSH2 0x3BF6 JUMP JUMPDEST SWAP2 SWAP6 POP SWAP4 POP SWAP2 POP PUSH1 0x0 SWAP1 POP PUSH2 0x2325 DUP4 DUP3 PUSH2 0x2AA1 JUMP JUMPDEST SWAP1 POP PUSH2 0x2333 DUP5 DUP10 DUP4 DUP6 PUSH2 0x2B06 JUMP JUMPDEST SWAP2 POP DUP1 PUSH1 0x1 PUSH1 0x1 PUSH1 0xA0 SHL SUB AND DUP9 PUSH2 0xFFFF AND DUP6 PUSH1 0x1 PUSH1 0x1 PUSH1 0xA0 SHL SUB AND PUSH32 0xAEC3EE8F36DFC1298802F2E6692B3ABBA814AC6532CADF6C7E1C0E13610F1B68 DUP6 PUSH1 0x40 MLOAD PUSH2 0x237F SWAP2 DUP2 MSTORE PUSH1 0x20 ADD SWAP1 JUMP JUMPDEST PUSH1 0x40 MLOAD DUP1 SWAP2 SUB SWAP1 LOG4 POP POP POP POP POP POP POP POP JUMP JUMPDEST PUSH1 0x0 DUP2 DUP2 MSTORE PUSH1 0x1 DUP4 ADD PUSH1 0x20 MSTORE PUSH1 0x40 DUP2 KECCAK256 SLOAD PUSH2 0x23D8 JUMPI POP DUP2 SLOAD PUSH1 0x1 DUP2 DUP2 ADD DUP5 SSTORE PUSH1 0x0 DUP5 DUP2 MSTORE PUSH1 0x20 DUP1 DUP3 KECCAK256 SWAP1 SWAP4 ADD DUP5 SWAP1 SSTORE DUP5 SLOAD DUP5 DUP3 MSTORE DUP3 DUP7 ADD SWAP1 SWAP4 MSTORE PUSH1 0x40 SWAP1 KECCAK256 SWAP2 SWAP1 SWAP2 SSTORE PUSH2 0xAF1 JUMP JUMPDEST POP PUSH1 0x0 PUSH2 0xAF1 JUMP JUMPDEST PUSH1 0x0 DUP2 DUP2 MSTORE PUSH1 0x1 DUP4 ADD PUSH1 0x20 MSTORE PUSH1 0x40 DUP2 KECCAK256 SLOAD DUP1 ISZERO PUSH2 0x24C9 JUMPI PUSH1 0x0 PUSH2 0x2404 PUSH1 0x1 DUP4 PUSH2 0x3711 JUMP JUMPDEST DUP6 SLOAD SWAP1 SWAP2 POP PUSH1 0x0 SWAP1 PUSH2 0x2418 SWAP1 PUSH1 0x1 SWAP1 PUSH2 0x3711 JUMP JUMPDEST SWAP1 POP DUP2 DUP2 EQ PUSH2 0x247D JUMPI PUSH1 0x0 DUP7 PUSH1 0x0 ADD DUP3 DUP2 SLOAD DUP2 LT PUSH2 0x2438 JUMPI PUSH2 0x2438 PUSH2 0x35F1 JUMP JUMPDEST SWAP1 PUSH1 0x0 MSTORE PUSH1 0x20 PUSH1 0x0 KECCAK256 ADD SLOAD SWAP1 POP DUP1 DUP8 PUSH1 0x0 ADD DUP5 DUP2 SLOAD DUP2 LT PUSH2 0x245B JUMPI PUSH2 0x245B PUSH2 0x35F1 JUMP JUMPDEST PUSH1 0x0 SWAP2 DUP3 MSTORE PUSH1 0x20 DUP1 DUP4 KECCAK256 SWAP1 SWAP2 ADD SWAP3 SWAP1 SWAP3 SSTORE SWAP2 DUP3 MSTORE PUSH1 0x1 DUP9 ADD SWAP1 MSTORE PUSH1 0x40 SWAP1 KECCAK256 DUP4 SWAP1 SSTORE JUMPDEST DUP6 SLOAD DUP7 SWAP1 DUP1 PUSH2 0x248E JUMPI PUSH2 0x248E PUSH2 0x3C61 JUMP JUMPDEST PUSH1 0x1 SWAP1 SUB DUP2 DUP2 SWAP1 PUSH1 0x0 MSTORE PUSH1 0x20 PUSH1 0x0 KECCAK256 ADD PUSH1 0x0 SWAP1 SSTORE SWAP1 SSTORE DUP6 PUSH1 0x1 ADD PUSH1 0x0 DUP7 DUP2 MSTORE PUSH1 0x20 ADD SWAP1 DUP2 MSTORE PUSH1 0x20 ADD PUSH1 0x0 KECCAK256 PUSH1 0x0 SWAP1 SSTORE PUSH1 0x1 SWAP4 POP POP POP POP PUSH2 0xAF1 JUMP JUMPDEST PUSH1 0x0 SWAP2 POP POP PUSH2 0xAF1 JUMP JUMPDEST PUSH2 0x161 SLOAD PUSH1 0xFF AND ISZERO PUSH2 0x24F0 JUMPI PUSH2 0x24EB DUP5 DUP5 DUP5 DUP5 PUSH2 0x2C97 JUMP JUMPDEST PUSH2 0x10E1 JUMP JUMPDEST DUP2 MLOAD ISZERO PUSH2 0x10E1 JUMPI PUSH1 0x40 MLOAD PUSH3 0x461BCD PUSH1 0xE5 SHL DUP2 MSTORE PUSH1 0x20 PUSH1 0x4 DUP3 ADD MSTORE PUSH1 0x26 PUSH1 0x24 DUP3 ADD MSTORE PUSH32 0x4F4654436F72653A205F61646170746572506172616D73206D75737420626520 PUSH1 0x44 DUP3 ADD MSTORE PUSH6 0x32B6B83A3C97 PUSH1 0xD1 SHL PUSH1 0x64 DUP3 ADD MSTORE PUSH1 0x84 ADD PUSH2 0x90F JUMP JUMPDEST PUSH2 0x196 SLOAD PUSH1 0x0 SWAP1 PUSH1 0xFF AND ISZERO PUSH2 0x258F JUMPI PUSH1 0x40 MLOAD PUSH3 0x461BCD PUSH1 0xE5 SHL DUP2 MSTORE PUSH1 0x20 PUSH1 0x4 DUP3 ADD MSTORE PUSH1 0x7 PUSH1 0x24 DUP3 ADD MSTORE PUSH7 0x70617573656421 PUSH1 0xC8 SHL PUSH1 0x44 DUP3 ADD MSTORE PUSH1 0x64 ADD PUSH2 0x90F JUMP JUMPDEST PUSH1 0x1 PUSH1 0x1 PUSH1 0xA0 SHL SUB DUP6 AND CALLER EQ PUSH2 0x25F2 JUMPI PUSH1 0x40 MLOAD PUSH3 0x461BCD PUSH1 0xE5 SHL DUP2 MSTORE PUSH1 0x20 PUSH1 0x4 DUP3 ADD MSTORE PUSH1 0x22 PUSH1 0x24 DUP3 ADD MSTORE PUSH32 0x50726F78794F46543A206F776E6572206973206E6F742073656E642063616C6C PUSH1 0x44 DUP3 ADD MSTORE PUSH2 0x32B9 PUSH1 0xF1 SHL PUSH1 0x64 DUP3 ADD MSTORE PUSH1 0x84 ADD PUSH2 0x90F JUMP JUMPDEST PUSH1 0x40 MLOAD PUSH4 0x70A08231 PUSH1 0xE0 SHL DUP2 MSTORE PUSH1 0x1 PUSH1 0x1 PUSH1 0xA0 SHL SUB DUP7 DUP2 AND PUSH1 0x4 DUP4 ADD MSTORE PUSH1 0x0 SWAP2 SWAP1 DUP9 AND SWAP1 PUSH4 0x70A08231 SWAP1 PUSH1 0x24 ADD PUSH1 0x20 PUSH1 0x40 MLOAD DUP1 DUP4 SUB DUP2 DUP7 GAS STATICCALL ISZERO DUP1 ISZERO PUSH2 0x263C JUMPI RETURNDATASIZE PUSH1 0x0 DUP1 RETURNDATACOPY RETURNDATASIZE PUSH1 0x0 REVERT JUMPDEST POP POP POP POP PUSH1 0x40 MLOAD RETURNDATASIZE PUSH1 0x1F NOT PUSH1 0x1F DUP3 ADD AND DUP3 ADD DUP1 PUSH1 0x40 MSTORE POP DUP2 ADD SWAP1 PUSH2 0x2660 SWAP2 SWAP1 PUSH2 0x3C77 JUMP JUMPDEST PUSH1 0x40 MLOAD PUSH4 0x79CC679 PUSH1 0xE4 SHL DUP2 MSTORE PUSH1 0x1 PUSH1 0x1 PUSH1 0xA0 SHL SUB DUP9 DUP2 AND PUSH1 0x4 DUP4 ADD MSTORE PUSH1 0x24 DUP3 ADD DUP7 SWAP1 MSTORE SWAP2 SWAP3 POP SWAP1 DUP9 AND SWAP1 PUSH4 0x79CC6790 SWAP1 PUSH1 0x44 ADD PUSH1 0x0 PUSH1 0x40 MLOAD DUP1 DUP4 SUB DUP2 PUSH1 0x0 DUP8 DUP1 EXTCODESIZE ISZERO DUP1 ISZERO PUSH2 0x26AE JUMPI PUSH1 0x0 DUP1 REVERT JUMPDEST POP GAS CALL ISZERO DUP1 ISZERO PUSH2 0x26C2 JUMPI RETURNDATASIZE PUSH1 0x0 DUP1 RETURNDATACOPY RETURNDATASIZE PUSH1 0x0 REVERT JUMPDEST POP POP PUSH1 0x40 MLOAD PUSH4 0x70A08231 PUSH1 0xE0 SHL DUP2 MSTORE PUSH1 0x1 PUSH1 0x1 PUSH1 0xA0 SHL SUB DUP10 DUP2 AND PUSH1 0x4 DUP4 ADD MSTORE DUP11 AND SWAP3 POP PUSH4 0x70A08231 SWAP2 POP PUSH1 0x24 ADD PUSH1 0x20 PUSH1 0x40 MLOAD DUP1 DUP4 SUB DUP2 DUP7 GAS STATICCALL ISZERO DUP1 ISZERO PUSH2 0x270C JUMPI RETURNDATASIZE PUSH1 0x0 DUP1 RETURNDATACOPY RETURNDATASIZE PUSH1 0x0 REVERT JUMPDEST POP POP POP POP PUSH1 0x40 MLOAD RETURNDATASIZE PUSH1 0x1F NOT PUSH1 0x1F DUP3 ADD AND DUP3 ADD DUP1 PUSH1 0x40 MSTORE POP DUP2 ADD SWAP1 PUSH2 0x2730 SWAP2 SWAP1 PUSH2 0x3C77 JUMP JUMPDEST PUSH2 0x273A SWAP1 DUP3 PUSH2 0x3711 JUMP JUMPDEST SWAP8 SWAP7 POP POP POP POP POP POP POP JUMP JUMPDEST PUSH2 0xFFFF DUP7 AND PUSH1 0x0 SWAP1 DUP2 MSTORE PUSH1 0xFB PUSH1 0x20 MSTORE PUSH1 0x40 DUP2 KECCAK256 DUP1 SLOAD PUSH2 0x2763 SWAP1 PUSH2 0x35A7 JUMP JUMPDEST DUP1 PUSH1 0x1F ADD PUSH1 0x20 DUP1 SWAP2 DIV MUL PUSH1 0x20 ADD PUSH1 0x40 MLOAD SWAP1 DUP2 ADD PUSH1 0x40 MSTORE DUP1 SWAP3 SWAP2 SWAP1 DUP2 DUP2 MSTORE PUSH1 0x20 ADD DUP3 DUP1 SLOAD PUSH2 0x278F SWAP1 PUSH2 0x35A7 JUMP JUMPDEST DUP1 ISZERO PUSH2 0x27DC JUMPI DUP1 PUSH1 0x1F LT PUSH2 0x27B1 JUMPI PUSH2 0x100 DUP1 DUP4 SLOAD DIV MUL DUP4 MSTORE SWAP2 PUSH1 0x20 ADD SWAP2 PUSH2 0x27DC JUMP JUMPDEST DUP3 ADD SWAP2 SWAP1 PUSH1 0x0 MSTORE PUSH1 0x20 PUSH1 0x0 KECCAK256 SWAP1 JUMPDEST DUP2 SLOAD DUP2 MSTORE SWAP1 PUSH1 0x1 ADD SWAP1 PUSH1 0x20 ADD DUP1 DUP4 GT PUSH2 0x27BF JUMPI DUP3 SWAP1 SUB PUSH1 0x1F AND DUP3 ADD SWAP2 JUMPDEST POP POP POP POP POP SWAP1 POP DUP1 MLOAD PUSH1 0x0 SUB PUSH2 0x284D JUMPI PUSH1 0x40 MLOAD PUSH3 0x461BCD PUSH1 0xE5 SHL DUP2 MSTORE PUSH1 0x20 PUSH1 0x4 DUP3 ADD MSTORE PUSH1 0x30 PUSH1 0x24 DUP3 ADD MSTORE PUSH32 0x4C7A4170703A2064657374696E6174696F6E20636861696E206973206E6F7420 PUSH1 0x44 DUP3 ADD MSTORE PUSH16 0x61207472757374656420736F75726365 PUSH1 0x80 SHL PUSH1 0x64 DUP3 ADD MSTORE PUSH1 0x84 ADD PUSH2 0x90F JUMP JUMPDEST PUSH1 0xFA SLOAD PUSH1 0x40 MLOAD PUSH3 0xC58031 PUSH1 0xE8 SHL DUP2 MSTORE PUSH1 0x1 PUSH1 0x1 PUSH1 0xA0 SHL SUB SWAP1 SWAP2 AND SWAP1 PUSH4 0xC5803100 SWAP1 DUP5 SWAP1 PUSH2 0x2888 SWAP1 DUP12 SWAP1 DUP7 SWAP1 DUP13 SWAP1 DUP13 SWAP1 DUP13 SWAP1 DUP13 SWAP1 PUSH1 0x4 ADD PUSH2 0x3C90 JUMP JUMPDEST PUSH1 0x0 PUSH1 0x40 MLOAD DUP1 DUP4 SUB DUP2 DUP6 DUP9 DUP1 EXTCODESIZE ISZERO DUP1 ISZERO PUSH2 0x28A1 JUMPI PUSH1 0x0 DUP1 REVERT JUMPDEST POP GAS CALL ISZERO DUP1 ISZERO PUSH2 0x28B5 JUMPI RETURNDATASIZE PUSH1 0x0 DUP1 RETURNDATACOPY RETURNDATASIZE PUSH1 0x0 REVERT JUMPDEST POP POP POP POP POP POP POP POP POP POP POP POP JUMP JUMPDEST PUSH1 0x60 PUSH2 0xAF1 PUSH1 0x1 PUSH1 0x1 PUSH1 0xA0 SHL SUB DUP4 AND PUSH1 0x14 JUMPDEST PUSH1 0x60 PUSH1 0x0 PUSH2 0x28E4 DUP4 PUSH1 0x2 PUSH2 0x3CF7 JUMP JUMPDEST PUSH2 0x28EF SWAP1 PUSH1 0x2 PUSH2 0x3B0E JUMP JUMPDEST PUSH1 0x1 PUSH1 0x1 PUSH1 0x40 SHL SUB DUP2 GT ISZERO PUSH2 0x2906 JUMPI PUSH2 0x2906 PUSH2 0x3180 JUMP JUMPDEST PUSH1 0x40 MLOAD SWAP1 DUP1 DUP3 MSTORE DUP1 PUSH1 0x1F ADD PUSH1 0x1F NOT AND PUSH1 0x20 ADD DUP3 ADD PUSH1 0x40 MSTORE DUP1 ISZERO PUSH2 0x2930 JUMPI PUSH1 0x20 DUP3 ADD DUP2 DUP1 CALLDATASIZE DUP4 CALLDATACOPY ADD SWAP1 POP JUMPDEST POP SWAP1 POP PUSH1 0x3 PUSH1 0xFC SHL DUP2 PUSH1 0x0 DUP2 MLOAD DUP2 LT PUSH2 0x294B JUMPI PUSH2 0x294B PUSH2 0x35F1 JUMP JUMPDEST PUSH1 0x20 ADD ADD SWAP1 PUSH1 0x1 PUSH1 0x1 PUSH1 0xF8 SHL SUB NOT AND SWAP1 DUP2 PUSH1 0x0 BYTE SWAP1 MSTORE8 POP PUSH1 0xF PUSH1 0xFB SHL DUP2 PUSH1 0x1 DUP2 MLOAD DUP2 LT PUSH2 0x297A JUMPI PUSH2 0x297A PUSH2 0x35F1 JUMP JUMPDEST PUSH1 0x20 ADD ADD SWAP1 PUSH1 0x1 PUSH1 0x1 PUSH1 0xF8 SHL SUB NOT AND SWAP1 DUP2 PUSH1 0x0 BYTE SWAP1 MSTORE8 POP PUSH1 0x0 PUSH2 0x299E DUP5 PUSH1 0x2 PUSH2 0x3CF7 JUMP JUMPDEST PUSH2 0x29A9 SWAP1 PUSH1 0x1 PUSH2 0x3B0E JUMP JUMPDEST SWAP1 POP JUMPDEST PUSH1 0x1 DUP2 GT ISZERO PUSH2 0x2A21 JUMPI PUSH16 0x181899199A1A9B1B9C1CB0B131B232B3 PUSH1 0x81 SHL DUP6 PUSH1 0xF AND PUSH1 0x10 DUP2 LT PUSH2 0x29DD JUMPI PUSH2 0x29DD PUSH2 0x35F1 JUMP JUMPDEST BYTE PUSH1 0xF8 SHL DUP3 DUP3 DUP2 MLOAD DUP2 LT PUSH2 0x29F3 JUMPI PUSH2 0x29F3 PUSH2 0x35F1 JUMP JUMPDEST PUSH1 0x20 ADD ADD SWAP1 PUSH1 0x1 PUSH1 0x1 PUSH1 0xF8 SHL SUB NOT AND SWAP1 DUP2 PUSH1 0x0 BYTE SWAP1 MSTORE8 POP PUSH1 0x4 SWAP5 SWAP1 SWAP5 SHR SWAP4 PUSH2 0x2A1A DUP2 PUSH2 0x3D0E JUMP JUMPDEST SWAP1 POP PUSH2 0x29AC JUMP JUMPDEST POP DUP4 ISZERO PUSH2 0x1338 JUMPI PUSH1 0x40 MLOAD PUSH3 0x461BCD PUSH1 0xE5 SHL DUP2 MSTORE PUSH1 0x20 PUSH1 0x4 DUP3 ADD DUP2 SWAP1 MSTORE PUSH1 0x24 DUP3 ADD MSTORE PUSH32 0x537472696E67733A20686578206C656E67746820696E73756666696369656E74 PUSH1 0x44 DUP3 ADD MSTORE PUSH1 0x64 ADD PUSH2 0x90F JUMP JUMPDEST PUSH1 0x0 SLOAD PUSH2 0x100 SWAP1 DIV PUSH1 0xFF AND PUSH2 0x2A97 JUMPI PUSH1 0x40 MLOAD PUSH3 0x461BCD PUSH1 0xE5 SHL DUP2 MSTORE PUSH1 0x4 ADD PUSH2 0x90F SWAP1 PUSH2 0x3AC3 JUMP JUMPDEST PUSH2 0xC48 DUP3 DUP3 PUSH2 0x2D7E JUMP JUMPDEST PUSH1 0x0 PUSH2 0x2AAE DUP3 PUSH1 0x14 PUSH2 0x3B0E JUMP JUMPDEST DUP4 MLOAD LT ISZERO PUSH2 0x2AF6 JUMPI PUSH1 0x40 MLOAD PUSH3 0x461BCD PUSH1 0xE5 SHL DUP2 MSTORE PUSH1 0x20 PUSH1 0x4 DUP3 ADD MSTORE PUSH1 0x15 PUSH1 0x24 DUP3 ADD MSTORE PUSH21 0x746F416464726573735F6F75744F66426F756E6473 PUSH1 0x58 SHL PUSH1 0x44 DUP3 ADD MSTORE PUSH1 0x64 ADD PUSH2 0x90F JUMP JUMPDEST POP ADD PUSH1 0x20 ADD MLOAD PUSH1 0x1 PUSH1 0x60 SHL SWAP1 DIV SWAP1 JUMP JUMPDEST PUSH1 0x0 DUP1 PUSH2 0x2B13 DUP6 DUP8 PUSH2 0xFAE JUMP JUMPDEST PUSH1 0x40 DUP2 ADD MLOAD SWAP1 SWAP2 POP PUSH1 0x1 PUSH1 0x1 PUSH1 0xA0 SHL SUB DUP2 AND PUSH2 0x2B41 JUMPI PUSH1 0x40 MLOAD PUSH3 0x461BCD PUSH1 0xE5 SHL DUP2 MSTORE PUSH1 0x4 ADD PUSH2 0x90F SWAP1 PUSH2 0x36EE JUMP JUMPDEST PUSH1 0x40 MLOAD PUSH4 0x70A08231 PUSH1 0xE0 SHL DUP2 MSTORE PUSH1 0x1 PUSH1 0x1 PUSH1 0xA0 SHL SUB DUP7 DUP2 AND PUSH1 0x4 DUP4 ADD MSTORE PUSH1 0x0 SWAP2 SWAP1 DUP4 AND SWAP1 PUSH4 0x70A08231 SWAP1 PUSH1 0x24 ADD PUSH1 0x20 PUSH1 0x40 MLOAD DUP1 DUP4 SUB DUP2 DUP7 GAS STATICCALL ISZERO DUP1 ISZERO PUSH2 0x2B8B JUMPI RETURNDATASIZE PUSH1 0x0 DUP1 RETURNDATACOPY RETURNDATASIZE PUSH1 0x0 REVERT JUMPDEST POP POP POP POP PUSH1 0x40 MLOAD RETURNDATASIZE PUSH1 0x1F NOT PUSH1 0x1F DUP3 ADD AND DUP3 ADD DUP1 PUSH1 0x40 MSTORE POP DUP2 ADD SWAP1 PUSH2 0x2BAF SWAP2 SWAP1 PUSH2 0x3C77 JUMP JUMPDEST PUSH1 0x40 MLOAD PUSH4 0x40C10F19 PUSH1 0xE0 SHL DUP2 MSTORE PUSH1 0x1 PUSH1 0x1 PUSH1 0xA0 SHL SUB DUP9 DUP2 AND PUSH1 0x4 DUP4 ADD MSTORE PUSH1 0x24 DUP3 ADD DUP9 SWAP1 MSTORE SWAP2 SWAP3 POP SWAP1 DUP4 AND SWAP1 PUSH4 0x40C10F19 SWAP1 PUSH1 0x44 ADD PUSH1 0x0 PUSH1 0x40 MLOAD DUP1 DUP4 SUB DUP2 PUSH1 0x0 DUP8 DUP1 EXTCODESIZE ISZERO DUP1 ISZERO PUSH2 0x2BFD JUMPI PUSH1 0x0 DUP1 REVERT JUMPDEST POP GAS CALL ISZERO DUP1 ISZERO PUSH2 0x2C11 JUMPI RETURNDATASIZE PUSH1 0x0 DUP1 RETURNDATACOPY RETURNDATASIZE PUSH1 0x0 REVERT JUMPDEST POP POP PUSH1 0x40 MLOAD PUSH4 0x70A08231 PUSH1 0xE0 SHL DUP2 MSTORE PUSH1 0x1 PUSH1 0x1 PUSH1 0xA0 SHL SUB DUP10 DUP2 AND PUSH1 0x4 DUP4 ADD MSTORE DUP5 SWAP4 POP DUP6 AND SWAP2 POP PUSH4 0x70A08231 SWAP1 PUSH1 0x24 ADD PUSH1 0x20 PUSH1 0x40 MLOAD DUP1 DUP4 SUB DUP2 DUP7 GAS STATICCALL ISZERO DUP1 ISZERO PUSH2 0x2C5D JUMPI RETURNDATASIZE PUSH1 0x0 DUP1 RETURNDATACOPY RETURNDATASIZE PUSH1 0x0 REVERT JUMPDEST POP POP POP POP PUSH1 0x40 MLOAD RETURNDATASIZE PUSH1 0x1F NOT PUSH1 0x1F DUP3 ADD AND DUP3 ADD DUP1 PUSH1 0x40 MSTORE POP DUP2 ADD SWAP1 PUSH2 0x2C81 SWAP2 SWAP1 PUSH2 0x3C77 JUMP JUMPDEST PUSH2 0x2C8B SWAP2 SWAP1 PUSH2 0x3711 JUMP JUMPDEST SWAP9 SWAP8 POP POP POP POP POP POP POP POP JUMP JUMPDEST PUSH1 0x0 PUSH2 0x2CA2 DUP4 PUSH2 0x2DC9 JUMP JUMPDEST PUSH2 0xFFFF DUP1 DUP8 AND PUSH1 0x0 SWAP1 DUP2 MSTORE PUSH1 0xFC PUSH1 0x20 SWAP1 DUP2 MSTORE PUSH1 0x40 DUP1 DUP4 KECCAK256 SWAP4 DUP10 AND DUP4 MSTORE SWAP3 SWAP1 MSTORE SWAP1 DUP2 KECCAK256 SLOAD SWAP2 SWAP3 POP SWAP1 PUSH2 0x2CD4 SWAP1 DUP5 SWAP1 PUSH2 0x3B0E JUMP JUMPDEST SWAP1 POP PUSH1 0x0 DUP2 GT PUSH2 0x2D26 JUMPI PUSH1 0x40 MLOAD PUSH3 0x461BCD PUSH1 0xE5 SHL DUP2 MSTORE PUSH1 0x20 PUSH1 0x4 DUP3 ADD MSTORE PUSH1 0x1A PUSH1 0x24 DUP3 ADD MSTORE PUSH32 0x4C7A4170703A206D696E4761734C696D6974206E6F7420736574000000000000 PUSH1 0x44 DUP3 ADD MSTORE PUSH1 0x64 ADD PUSH2 0x90F JUMP JUMPDEST DUP1 DUP3 LT ISZERO PUSH2 0x2D76 JUMPI PUSH1 0x40 MLOAD PUSH3 0x461BCD PUSH1 0xE5 SHL DUP2 MSTORE PUSH1 0x20 PUSH1 0x4 DUP3 ADD MSTORE PUSH1 0x1B PUSH1 0x24 DUP3 ADD MSTORE PUSH32 0x4C7A4170703A20676173206C696D697420697320746F6F206C6F770000000000 PUSH1 0x44 DUP3 ADD MSTORE PUSH1 0x64 ADD PUSH2 0x90F JUMP JUMPDEST POP POP POP POP POP POP JUMP JUMPDEST PUSH1 0x0 SLOAD PUSH2 0x100 SWAP1 DIV PUSH1 0xFF AND PUSH2 0x2DA5 JUMPI PUSH1 0x40 MLOAD PUSH3 0x461BCD PUSH1 0xE5 SHL DUP2 MSTORE PUSH1 0x4 ADD PUSH2 0x90F SWAP1 PUSH2 0x3AC3 JUMP JUMPDEST PUSH1 0xFA DUP1 SLOAD PUSH1 0x1 PUSH1 0x1 PUSH1 0xA0 SHL SUB NOT AND PUSH1 0x1 PUSH1 0x1 PUSH1 0xA0 SHL SUB DUP5 AND OR SWAP1 SSTORE PUSH2 0xC48 DUP2 PUSH2 0x2E25 JUMP JUMPDEST PUSH1 0x0 PUSH1 0x22 DUP3 MLOAD LT ISZERO PUSH2 0x2E1D JUMPI PUSH1 0x40 MLOAD PUSH3 0x461BCD PUSH1 0xE5 SHL DUP2 MSTORE PUSH1 0x20 PUSH1 0x4 DUP3 ADD MSTORE PUSH1 0x1C PUSH1 0x24 DUP3 ADD MSTORE PUSH32 0x4C7A4170703A20696E76616C69642061646170746572506172616D7300000000 PUSH1 0x44 DUP3 ADD MSTORE PUSH1 0x64 ADD PUSH2 0x90F JUMP JUMPDEST POP PUSH1 0x22 ADD MLOAD SWAP1 JUMP JUMPDEST PUSH1 0x0 SLOAD PUSH2 0x100 SWAP1 DIV PUSH1 0xFF AND PUSH2 0x2E4C JUMPI PUSH1 0x40 MLOAD PUSH3 0x461BCD PUSH1 0xE5 SHL DUP2 MSTORE PUSH1 0x4 ADD PUSH2 0x90F SWAP1 PUSH2 0x3AC3 JUMP JUMPDEST PUSH2 0x1E42 PUSH1 0x0 DUP3 PUSH2 0xC48 DUP3 DUP3 PUSH2 0x1E45 JUMP JUMPDEST PUSH2 0xFFFF DUP2 AND DUP2 EQ PUSH2 0x1E42 JUMPI PUSH1 0x0 DUP1 REVERT JUMPDEST PUSH1 0x0 DUP1 DUP4 PUSH1 0x1F DUP5 ADD SLT PUSH2 0x2E7E JUMPI PUSH1 0x0 DUP1 REVERT JUMPDEST POP DUP2 CALLDATALOAD PUSH1 0x1 PUSH1 0x1 PUSH1 0x40 SHL SUB DUP2 GT ISZERO PUSH2 0x2E95 JUMPI PUSH1 0x0 DUP1 REVERT JUMPDEST PUSH1 0x20 DUP4 ADD SWAP2 POP DUP4 PUSH1 0x20 DUP3 DUP6 ADD ADD GT ISZERO PUSH2 0x2EAD JUMPI PUSH1 0x0 DUP1 REVERT JUMPDEST SWAP3 POP SWAP3 SWAP1 POP JUMP JUMPDEST DUP1 CALLDATALOAD PUSH1 0x1 PUSH1 0x1 PUSH1 0x40 SHL SUB DUP2 AND DUP2 EQ PUSH2 0x2ECB JUMPI PUSH1 0x0 DUP1 REVERT JUMPDEST SWAP2 SWAP1 POP JUMP JUMPDEST PUSH1 0x0 DUP1 PUSH1 0x0 DUP1 PUSH1 0x0 DUP1 PUSH1 0x80 DUP8 DUP10 SUB SLT ISZERO PUSH2 0x2EE9 JUMPI PUSH1 0x0 DUP1 REVERT JUMPDEST DUP7 CALLDATALOAD PUSH2 0x2EF4 DUP2 PUSH2 0x2E5C JUMP JUMPDEST SWAP6 POP PUSH1 0x20 DUP8 ADD CALLDATALOAD PUSH1 0x1 PUSH1 0x1 PUSH1 0x40 SHL SUB DUP1 DUP3 GT ISZERO PUSH2 0x2F10 JUMPI PUSH1 0x0 DUP1 REVERT JUMPDEST PUSH2 0x2F1C DUP11 DUP4 DUP12 ADD PUSH2 0x2E6C JUMP JUMPDEST SWAP1 SWAP8 POP SWAP6 POP DUP6 SWAP2 POP PUSH2 0x2F30 PUSH1 0x40 DUP11 ADD PUSH2 0x2EB4 JUMP JUMPDEST SWAP5 POP PUSH1 0x60 DUP10 ADD CALLDATALOAD SWAP2 POP DUP1 DUP3 GT ISZERO PUSH2 0x2F46 JUMPI PUSH1 0x0 DUP1 REVERT JUMPDEST POP PUSH2 0x2F53 DUP10 DUP3 DUP11 ADD PUSH2 0x2E6C JUMP JUMPDEST SWAP8 SWAP11 SWAP7 SWAP10 POP SWAP5 SWAP8 POP SWAP3 SWAP6 SWAP4 SWAP5 SWAP3 POP POP POP JUMP JUMPDEST PUSH1 0x0 PUSH1 0x20 DUP3 DUP5 SUB SLT ISZERO PUSH2 0x2F77 JUMPI PUSH1 0x0 DUP1 REVERT JUMPDEST DUP2 CALLDATALOAD PUSH1 0x1 PUSH1 0x1 PUSH1 0xE0 SHL SUB NOT DUP2 AND DUP2 EQ PUSH2 0x1338 JUMPI PUSH1 0x0 DUP1 REVERT JUMPDEST PUSH1 0x0 DUP1 PUSH1 0x40 DUP4 DUP6 SUB SLT ISZERO PUSH2 0x2FA2 JUMPI PUSH1 0x0 DUP1 REVERT JUMPDEST DUP3 CALLDATALOAD PUSH2 0x2FAD DUP2 PUSH2 0x2E5C JUMP JUMPDEST SWAP5 PUSH1 0x20 SWAP4 SWAP1 SWAP4 ADD CALLDATALOAD SWAP4 POP POP POP JUMP JUMPDEST PUSH1 0x0 PUSH1 0x20 DUP3 DUP5 SUB SLT ISZERO PUSH2 0x2FCD JUMPI PUSH1 0x0 DUP1 REVERT JUMPDEST DUP2 CALLDATALOAD PUSH2 0x1338 DUP2 PUSH2 0x2E5C JUMP JUMPDEST PUSH1 0x0 PUSH1 0x20 DUP3 DUP5 SUB SLT ISZERO PUSH2 0x2FEA JUMPI PUSH1 0x0 DUP1 REVERT JUMPDEST POP CALLDATALOAD SWAP2 SWAP1 POP JUMP JUMPDEST PUSH1 0x1 PUSH1 0x1 PUSH1 0xA0 SHL SUB DUP2 AND DUP2 EQ PUSH2 0x1E42 JUMPI PUSH1 0x0 DUP1 REVERT JUMPDEST PUSH1 0x0 DUP1 PUSH1 0x40 DUP4 DUP6 SUB SLT ISZERO PUSH2 0x3019 JUMPI PUSH1 0x0 DUP1 REVERT JUMPDEST DUP3 CALLDATALOAD SWAP2 POP PUSH1 0x20 DUP4 ADD CALLDATALOAD PUSH2 0x302B DUP2 PUSH2 0x2FF1 JUMP JUMPDEST DUP1 SWAP2 POP POP SWAP3 POP SWAP3 SWAP1 POP JUMP JUMPDEST PUSH1 0x20 DUP1 DUP3 MSTORE DUP3 MLOAD DUP3 DUP3 ADD DUP2 SWAP1 MSTORE PUSH1 0x0 SWAP2 SWAP1 DUP5 DUP3 ADD SWAP1 PUSH1 0x40 DUP6 ADD SWAP1 DUP5 JUMPDEST DUP2 DUP2 LT ISZERO PUSH2 0x309F JUMPI PUSH2 0x308C DUP4 DUP6 MLOAD DUP1 MLOAD PUSH2 0xFFFF AND DUP3 MSTORE PUSH1 0x20 DUP1 DUP3 ADD MLOAD PUSH1 0x1 PUSH1 0x1 PUSH1 0xA0 SHL SUB SWAP1 DUP2 AND SWAP2 DUP5 ADD SWAP2 SWAP1 SWAP2 MSTORE PUSH1 0x40 SWAP2 DUP3 ADD MLOAD AND SWAP2 ADD MSTORE JUMP JUMPDEST SWAP3 DUP5 ADD SWAP3 PUSH1 0x60 SWAP3 SWAP1 SWAP3 ADD SWAP2 PUSH1 0x1 ADD PUSH2 0x3052 JUMP JUMPDEST POP SWAP1 SWAP7 SWAP6 POP POP POP POP POP POP JUMP JUMPDEST PUSH1 0x0 DUP1 PUSH1 0x0 PUSH1 0x40 DUP5 DUP7 SUB SLT ISZERO PUSH2 0x30C0 JUMPI PUSH1 0x0 DUP1 REVERT JUMPDEST DUP4 CALLDATALOAD PUSH2 0x30CB DUP2 PUSH2 0x2E5C JUMP JUMPDEST SWAP3 POP PUSH1 0x20 DUP5 ADD CALLDATALOAD PUSH1 0x1 PUSH1 0x1 PUSH1 0x40 SHL SUB DUP2 GT ISZERO PUSH2 0x30E6 JUMPI PUSH1 0x0 DUP1 REVERT JUMPDEST PUSH2 0x30F2 DUP7 DUP3 DUP8 ADD PUSH2 0x2E6C JUMP JUMPDEST SWAP5 SWAP8 SWAP1 SWAP7 POP SWAP4 SWAP5 POP POP POP POP JUMP JUMPDEST PUSH1 0x0 DUP1 PUSH1 0x40 DUP4 DUP6 SUB SLT ISZERO PUSH2 0x3112 JUMPI PUSH1 0x0 DUP1 REVERT JUMPDEST DUP3 CALLDATALOAD PUSH2 0x311D DUP2 PUSH2 0x2FF1 JUMP JUMPDEST SWAP2 POP PUSH1 0x20 DUP4 ADD CALLDATALOAD PUSH2 0x302B DUP2 PUSH2 0x2FF1 JUMP JUMPDEST PUSH1 0x0 DUP1 PUSH1 0x40 DUP4 DUP6 SUB SLT ISZERO PUSH2 0x3140 JUMPI PUSH1 0x0 DUP1 REVERT JUMPDEST DUP3 CALLDATALOAD PUSH2 0x311D DUP2 PUSH2 0x2E5C JUMP JUMPDEST PUSH1 0x60 DUP2 ADD PUSH2 0xAF1 DUP3 DUP5 DUP1 MLOAD PUSH2 0xFFFF AND DUP3 MSTORE PUSH1 0x20 DUP1 DUP3 ADD MLOAD PUSH1 0x1 PUSH1 0x1 PUSH1 0xA0 SHL SUB SWAP1 DUP2 AND SWAP2 DUP5 ADD SWAP2 SWAP1 SWAP2 MSTORE PUSH1 0x40 SWAP2 DUP3 ADD MLOAD AND SWAP2 ADD MSTORE JUMP JUMPDEST PUSH4 0x4E487B71 PUSH1 0xE0 SHL PUSH1 0x0 MSTORE PUSH1 0x41 PUSH1 0x4 MSTORE PUSH1 0x24 PUSH1 0x0 REVERT JUMPDEST PUSH1 0x40 MLOAD PUSH1 0x1F DUP3 ADD PUSH1 0x1F NOT AND DUP2 ADD PUSH1 0x1 PUSH1 0x1 PUSH1 0x40 SHL SUB DUP2 GT DUP3 DUP3 LT OR ISZERO PUSH2 0x31BE JUMPI PUSH2 0x31BE PUSH2 0x3180 JUMP JUMPDEST PUSH1 0x40 MSTORE SWAP2 SWAP1 POP JUMP JUMPDEST PUSH1 0x0 PUSH1 0x1 PUSH1 0x1 PUSH1 0x40 SHL SUB DUP3 GT ISZERO PUSH2 0x31DF JUMPI PUSH2 0x31DF PUSH2 0x3180 JUMP JUMPDEST POP PUSH1 0x1F ADD PUSH1 0x1F NOT AND PUSH1 0x20 ADD SWAP1 JUMP JUMPDEST PUSH1 0x0 DUP3 PUSH1 0x1F DUP4 ADD SLT PUSH2 0x31FE JUMPI PUSH1 0x0 DUP1 REVERT JUMPDEST DUP2 CALLDATALOAD PUSH2 0x3211 PUSH2 0x320C DUP3 PUSH2 0x31C6 JUMP JUMPDEST PUSH2 0x3196 JUMP JUMPDEST DUP2 DUP2 MSTORE DUP5 PUSH1 0x20 DUP4 DUP7 ADD ADD GT ISZERO PUSH2 0x3226 JUMPI PUSH1 0x0 DUP1 REVERT JUMPDEST DUP2 PUSH1 0x20 DUP6 ADD PUSH1 0x20 DUP4 ADD CALLDATACOPY PUSH1 0x0 SWAP2 DUP2 ADD PUSH1 0x20 ADD SWAP2 SWAP1 SWAP2 MSTORE SWAP4 SWAP3 POP POP POP JUMP JUMPDEST PUSH1 0x0 DUP1 PUSH1 0x0 PUSH1 0x60 DUP5 DUP7 SUB SLT ISZERO PUSH2 0x3258 JUMPI PUSH1 0x0 DUP1 REVERT JUMPDEST DUP4 CALLDATALOAD PUSH2 0x3263 DUP2 PUSH2 0x2E5C JUMP JUMPDEST SWAP3 POP PUSH1 0x20 DUP5 ADD CALLDATALOAD PUSH1 0x1 PUSH1 0x1 PUSH1 0x40 SHL SUB DUP2 GT ISZERO PUSH2 0x327E JUMPI PUSH1 0x0 DUP1 REVERT JUMPDEST PUSH2 0x328A DUP7 DUP3 DUP8 ADD PUSH2 0x31ED JUMP JUMPDEST SWAP3 POP POP PUSH2 0x3299 PUSH1 0x40 DUP6 ADD PUSH2 0x2EB4 JUMP JUMPDEST SWAP1 POP SWAP3 POP SWAP3 POP SWAP3 JUMP JUMPDEST PUSH1 0x0 DUP1 PUSH1 0x0 DUP1 PUSH1 0x80 DUP6 DUP8 SUB SLT ISZERO PUSH2 0x32B8 JUMPI PUSH1 0x0 DUP1 REVERT JUMPDEST DUP5 CALLDATALOAD PUSH2 0x32C3 DUP2 PUSH2 0x2E5C JUMP JUMPDEST SWAP4 POP PUSH1 0x20 DUP6 ADD CALLDATALOAD PUSH1 0x1 PUSH1 0x1 PUSH1 0x40 SHL SUB DUP1 DUP3 GT ISZERO PUSH2 0x32DF JUMPI PUSH1 0x0 DUP1 REVERT JUMPDEST PUSH2 0x32EB DUP9 DUP4 DUP10 ADD PUSH2 0x31ED JUMP JUMPDEST SWAP5 POP PUSH2 0x32F9 PUSH1 0x40 DUP9 ADD PUSH2 0x2EB4 JUMP JUMPDEST SWAP4 POP PUSH1 0x60 DUP8 ADD CALLDATALOAD SWAP2 POP DUP1 DUP3 GT ISZERO PUSH2 0x330F JUMPI PUSH1 0x0 DUP1 REVERT JUMPDEST POP PUSH2 0x331C DUP8 DUP3 DUP9 ADD PUSH2 0x31ED JUMP JUMPDEST SWAP2 POP POP SWAP3 SWAP6 SWAP2 SWAP5 POP SWAP3 POP JUMP JUMPDEST PUSH1 0x0 DUP1 PUSH1 0x0 PUSH1 0x60 DUP5 DUP7 SUB SLT ISZERO PUSH2 0x333D JUMPI PUSH1 0x0 DUP1 REVERT JUMPDEST DUP4 CALLDATALOAD PUSH2 0x3348 DUP2 PUSH2 0x2E5C JUMP JUMPDEST SWAP3 POP PUSH1 0x20 DUP5 ADD CALLDATALOAD PUSH2 0x3358 DUP2 PUSH2 0x2FF1 JUMP JUMPDEST SWAP2 POP PUSH1 0x40 DUP5 ADD CALLDATALOAD PUSH2 0x3368 DUP2 PUSH2 0x2FF1 JUMP JUMPDEST DUP1 SWAP2 POP POP SWAP3 POP SWAP3 POP SWAP3 JUMP JUMPDEST PUSH1 0x0 JUMPDEST DUP4 DUP2 LT ISZERO PUSH2 0x338E JUMPI DUP2 DUP2 ADD MLOAD DUP4 DUP3 ADD MSTORE PUSH1 0x20 ADD PUSH2 0x3376 JUMP JUMPDEST POP POP PUSH1 0x0 SWAP2 ADD MSTORE JUMP JUMPDEST PUSH1 0x0 DUP2 MLOAD DUP1 DUP5 MSTORE PUSH2 0x33AF DUP2 PUSH1 0x20 DUP7 ADD PUSH1 0x20 DUP7 ADD PUSH2 0x3373 JUMP JUMPDEST PUSH1 0x1F ADD PUSH1 0x1F NOT AND SWAP3 SWAP1 SWAP3 ADD PUSH1 0x20 ADD SWAP3 SWAP2 POP POP JUMP JUMPDEST PUSH1 0x20 DUP2 MSTORE PUSH1 0x0 PUSH2 0x1338 PUSH1 0x20 DUP4 ADD DUP5 PUSH2 0x3397 JUMP JUMPDEST PUSH1 0x0 DUP1 PUSH1 0x40 DUP4 DUP6 SUB SLT ISZERO PUSH2 0x33E9 JUMPI PUSH1 0x0 DUP1 REVERT JUMPDEST POP POP DUP1 CALLDATALOAD SWAP3 PUSH1 0x20 SWAP1 SWAP2 ADD CALLDATALOAD SWAP2 POP JUMP JUMPDEST PUSH1 0x0 DUP1 PUSH1 0x0 DUP1 PUSH1 0x0 PUSH1 0x80 DUP7 DUP9 SUB SLT ISZERO PUSH2 0x3410 JUMPI PUSH1 0x0 DUP1 REVERT JUMPDEST DUP6 CALLDATALOAD PUSH2 0x341B DUP2 PUSH2 0x2FF1 JUMP JUMPDEST SWAP5 POP PUSH1 0x20 DUP7 ADD CALLDATALOAD PUSH2 0x342B DUP2 PUSH2 0x2E5C JUMP JUMPDEST SWAP4 POP PUSH1 0x40 DUP7 ADD CALLDATALOAD PUSH1 0x1 PUSH1 0x1 PUSH1 0x40 SHL SUB DUP2 GT ISZERO PUSH2 0x3446 JUMPI PUSH1 0x0 DUP1 REVERT JUMPDEST PUSH2 0x3452 DUP9 DUP3 DUP10 ADD PUSH2 0x2E6C JUMP JUMPDEST SWAP7 SWAP10 SWAP6 SWAP9 POP SWAP7 PUSH1 0x60 ADD CALLDATALOAD SWAP5 SWAP4 POP POP POP POP JUMP JUMPDEST PUSH1 0x0 PUSH1 0x20 DUP3 DUP5 SUB SLT ISZERO PUSH2 0x3476 JUMPI PUSH1 0x0 DUP1 REVERT JUMPDEST DUP2 CALLDATALOAD PUSH2 0x1338 DUP2 PUSH2 0x2FF1 JUMP JUMPDEST PUSH1 0x0 DUP1 PUSH1 0x0 DUP1 PUSH1 0x0 PUSH1 0x80 DUP7 DUP9 SUB SLT ISZERO PUSH2 0x3499 JUMPI PUSH1 0x0 DUP1 REVERT JUMPDEST DUP6 CALLDATALOAD PUSH2 0x34A4 DUP2 PUSH2 0x2E5C JUMP JUMPDEST SWAP5 POP PUSH1 0x20 DUP7 ADD CALLDATALOAD PUSH2 0x34B4 DUP2 PUSH2 0x2E5C JUMP JUMPDEST SWAP4 POP PUSH1 0x40 DUP7 ADD CALLDATALOAD SWAP3 POP PUSH1 0x60 DUP7 ADD CALLDATALOAD PUSH1 0x1 PUSH1 0x1 PUSH1 0x40 SHL SUB DUP2 GT ISZERO PUSH2 0x34D6 JUMPI PUSH1 0x0 DUP1 REVERT JUMPDEST PUSH2 0x34E2 DUP9 DUP3 DUP10 ADD PUSH2 0x2E6C JUMP JUMPDEST SWAP7 SWAP10 SWAP6 SWAP9 POP SWAP4 SWAP7 POP SWAP3 SWAP5 SWAP4 SWAP3 POP POP POP JUMP JUMPDEST PUSH1 0x0 DUP1 PUSH1 0x0 PUSH1 0x60 DUP5 DUP7 SUB SLT ISZERO PUSH2 0x3508 JUMPI PUSH1 0x0 DUP1 REVERT JUMPDEST DUP4 CALLDATALOAD PUSH2 0x3513 DUP2 PUSH2 0x2E5C JUMP JUMPDEST SWAP3 POP PUSH1 0x20 DUP5 ADD CALLDATALOAD PUSH2 0x3523 DUP2 PUSH2 0x2E5C JUMP JUMPDEST SWAP3 SWAP6 SWAP3 SWAP5 POP POP POP PUSH1 0x40 SWAP2 SWAP1 SWAP2 ADD CALLDATALOAD SWAP1 JUMP JUMPDEST PUSH1 0x0 PUSH1 0x20 DUP3 DUP5 SUB SLT ISZERO PUSH2 0x3546 JUMPI PUSH1 0x0 DUP1 REVERT JUMPDEST DUP2 CALLDATALOAD DUP1 ISZERO ISZERO DUP2 EQ PUSH2 0x1338 JUMPI PUSH1 0x0 DUP1 REVERT JUMPDEST PUSH1 0x0 DUP1 PUSH1 0x0 DUP1 PUSH1 0x80 DUP6 DUP8 SUB SLT ISZERO PUSH2 0x356C JUMPI PUSH1 0x0 DUP1 REVERT JUMPDEST DUP5 CALLDATALOAD PUSH2 0x3577 DUP2 PUSH2 0x2E5C JUMP JUMPDEST SWAP4 POP PUSH1 0x20 DUP6 ADD CALLDATALOAD PUSH2 0x3587 DUP2 PUSH2 0x2E5C JUMP JUMPDEST SWAP3 POP PUSH1 0x40 DUP6 ADD CALLDATALOAD PUSH2 0x3597 DUP2 PUSH2 0x2FF1 JUMP JUMPDEST SWAP4 SWAP7 SWAP3 SWAP6 POP SWAP3 SWAP4 PUSH1 0x60 ADD CALLDATALOAD SWAP3 POP POP JUMP JUMPDEST PUSH1 0x1 DUP2 DUP2 SHR SWAP1 DUP3 AND DUP1 PUSH2 0x35BB JUMPI PUSH1 0x7F DUP3 AND SWAP2 POP JUMPDEST PUSH1 0x20 DUP3 LT DUP2 SUB PUSH2 0x35DB JUMPI PUSH4 0x4E487B71 PUSH1 0xE0 SHL PUSH1 0x0 MSTORE PUSH1 0x22 PUSH1 0x4 MSTORE PUSH1 0x24 PUSH1 0x0 REVERT JUMPDEST POP SWAP2 SWAP1 POP JUMP JUMPDEST DUP2 DUP4 DUP3 CALLDATACOPY PUSH1 0x0 SWAP2 ADD SWAP1 DUP2 MSTORE SWAP2 SWAP1 POP JUMP JUMPDEST PUSH4 0x4E487B71 PUSH1 0xE0 SHL PUSH1 0x0 MSTORE PUSH1 0x32 PUSH1 0x4 MSTORE PUSH1 0x24 PUSH1 0x0 REVERT JUMPDEST PUSH4 0x4E487B71 PUSH1 0xE0 SHL PUSH1 0x0 MSTORE PUSH1 0x11 PUSH1 0x4 MSTORE PUSH1 0x24 PUSH1 0x0 REVERT JUMPDEST PUSH1 0x0 PUSH1 0x1 DUP3 ADD PUSH2 0x362F JUMPI PUSH2 0x362F PUSH2 0x3607 JUMP JUMPDEST POP PUSH1 0x1 ADD SWAP1 JUMP JUMPDEST DUP2 DUP4 MSTORE DUP2 DUP2 PUSH1 0x20 DUP6 ADD CALLDATACOPY POP PUSH1 0x0 DUP3 DUP3 ADD PUSH1 0x20 SWAP1 DUP2 ADD SWAP2 SWAP1 SWAP2 MSTORE PUSH1 0x1F SWAP1 SWAP2 ADD PUSH1 0x1F NOT AND SWAP1 SWAP2 ADD ADD SWAP1 JUMP JUMPDEST PUSH2 0xFFFF DUP5 AND DUP2 MSTORE PUSH1 0x40 PUSH1 0x20 DUP3 ADD MSTORE PUSH1 0x0 PUSH2 0x1CF1 PUSH1 0x40 DUP4 ADD DUP5 DUP7 PUSH2 0x3636 JUMP JUMPDEST PUSH1 0x20 DUP1 DUP3 MSTORE PUSH1 0xF SWAP1 DUP3 ADD MSTORE PUSH15 0x6C616E65206E6F7420657869737421 PUSH1 0x88 SHL PUSH1 0x40 DUP3 ADD MSTORE PUSH1 0x60 ADD SWAP1 JUMP JUMPDEST PUSH1 0x20 DUP1 DUP3 MSTORE PUSH1 0xB SWAP1 DUP3 ADD MSTORE PUSH11 0x737263436861696E496421 PUSH1 0xA8 SHL PUSH1 0x40 DUP3 ADD MSTORE PUSH1 0x60 ADD SWAP1 JUMP JUMPDEST PUSH1 0x20 DUP1 DUP3 MSTORE PUSH1 0x9 SWAP1 DUP3 ADD MSTORE PUSH9 0x737263546F6B656E21 PUSH1 0xB8 SHL PUSH1 0x40 DUP3 ADD MSTORE PUSH1 0x60 ADD SWAP1 JUMP JUMPDEST PUSH1 0x20 DUP1 DUP3 MSTORE PUSH1 0x9 SWAP1 DUP3 ADD MSTORE PUSH9 0x647374546F6B656E21 PUSH1 0xB8 SHL PUSH1 0x40 DUP3 ADD MSTORE PUSH1 0x60 ADD SWAP1 JUMP JUMPDEST DUP2 DUP2 SUB DUP2 DUP2 GT ISZERO PUSH2 0xAF1 JUMPI PUSH2 0xAF1 PUSH2 0x3607 JUMP JUMPDEST DUP3 DUP5 DUP3 CALLDATACOPY PUSH1 0x60 SWAP2 SWAP1 SWAP2 SHL PUSH12 0xFFFFFFFFFFFFFFFFFFFFFFFF NOT AND SWAP2 ADD SWAP1 DUP2 MSTORE PUSH1 0x14 ADD SWAP2 SWAP1 POP JUMP JUMPDEST PUSH1 0x1F DUP3 GT ISZERO PUSH2 0xBC9 JUMPI PUSH1 0x0 DUP2 DUP2 MSTORE PUSH1 0x20 DUP2 KECCAK256 PUSH1 0x1F DUP6 ADD PUSH1 0x5 SHR DUP2 ADD PUSH1 0x20 DUP7 LT ISZERO PUSH2 0x3771 JUMPI POP DUP1 JUMPDEST PUSH1 0x1F DUP6 ADD PUSH1 0x5 SHR DUP3 ADD SWAP2 POP JUMPDEST DUP2 DUP2 LT ISZERO PUSH2 0x2D76 JUMPI DUP3 DUP2 SSTORE PUSH1 0x1 ADD PUSH2 0x377D JUMP JUMPDEST DUP2 MLOAD PUSH1 0x1 PUSH1 0x1 PUSH1 0x40 SHL SUB DUP2 GT ISZERO PUSH2 0x37A9 JUMPI PUSH2 0x37A9 PUSH2 0x3180 JUMP JUMPDEST PUSH2 0x37BD DUP2 PUSH2 0x37B7 DUP5 SLOAD PUSH2 0x35A7 JUMP JUMPDEST DUP5 PUSH2 0x374A JUMP JUMPDEST PUSH1 0x20 DUP1 PUSH1 0x1F DUP4 GT PUSH1 0x1 DUP2 EQ PUSH2 0x37F2 JUMPI PUSH1 0x0 DUP5 ISZERO PUSH2 0x37DA JUMPI POP DUP6 DUP4 ADD MLOAD JUMPDEST PUSH1 0x0 NOT PUSH1 0x3 DUP7 SWAP1 SHL SHR NOT AND PUSH1 0x1 DUP6 SWAP1 SHL OR DUP6 SSTORE PUSH2 0x2D76 JUMP JUMPDEST PUSH1 0x0 DUP6 DUP2 MSTORE PUSH1 0x20 DUP2 KECCAK256 PUSH1 0x1F NOT DUP7 AND SWAP2 JUMPDEST DUP3 DUP2 LT ISZERO PUSH2 0x3821 JUMPI DUP9 DUP7 ADD MLOAD DUP3 SSTORE SWAP5 DUP5 ADD SWAP5 PUSH1 0x1 SWAP1 SWAP2 ADD SWAP1 DUP5 ADD PUSH2 0x3802 JUMP JUMPDEST POP DUP6 DUP3 LT ISZERO PUSH2 0x383F JUMPI DUP8 DUP6 ADD MLOAD PUSH1 0x0 NOT PUSH1 0x3 DUP9 SWAP1 SHL PUSH1 0xF8 AND SHR NOT AND DUP2 SSTORE JUMPDEST POP POP POP POP POP PUSH1 0x1 SWAP1 DUP2 SHL ADD SWAP1 SSTORE POP JUMP JUMPDEST PUSH1 0xFF DUP7 AND DUP2 MSTORE PUSH1 0x1 PUSH1 0x1 PUSH1 0xA0 SHL SUB DUP6 AND PUSH1 0x20 DUP3 ADD MSTORE PUSH1 0x80 PUSH1 0x40 DUP3 ADD DUP2 SWAP1 MSTORE PUSH1 0x0 SWAP1 PUSH2 0x387D SWAP1 DUP4 ADD DUP6 DUP8 PUSH2 0x3636 JUMP JUMPDEST SWAP1 POP DUP3 PUSH1 0x60 DUP4 ADD MSTORE SWAP7 SWAP6 POP POP POP POP POP POP JUMP JUMPDEST PUSH2 0xFFFF DUP7 AND DUP2 MSTORE PUSH1 0x1 PUSH1 0x1 PUSH1 0xA0 SHL SUB DUP6 AND PUSH1 0x20 DUP3 ADD MSTORE PUSH1 0xA0 PUSH1 0x40 DUP3 ADD DUP2 SWAP1 MSTORE PUSH1 0x0 SWAP1 PUSH2 0x38BD SWAP1 DUP4 ADD DUP7 PUSH2 0x3397 JUMP JUMPDEST DUP5 ISZERO ISZERO PUSH1 0x60 DUP5 ADD MSTORE DUP3 DUP2 SUB PUSH1 0x80 DUP5 ADD MSTORE PUSH2 0x2C8B DUP2 DUP6 PUSH2 0x3397 JUMP JUMPDEST PUSH1 0x0 DUP1 PUSH1 0x40 DUP4 DUP6 SUB SLT ISZERO PUSH2 0x38EA JUMPI PUSH1 0x0 DUP1 REVERT JUMPDEST POP POP DUP1 MLOAD PUSH1 0x20 SWAP1 SWAP2 ADD MLOAD SWAP1 SWAP3 SWAP1 SWAP2 POP JUMP JUMPDEST PUSH1 0x0 PUSH2 0xFFFF DUP1 DUP9 AND DUP4 MSTORE DUP1 DUP8 AND PUSH1 0x20 DUP5 ADD MSTORE POP DUP5 PUSH1 0x40 DUP4 ADD MSTORE PUSH1 0x80 PUSH1 0x60 DUP4 ADD MSTORE PUSH2 0x273A PUSH1 0x80 DUP4 ADD DUP5 DUP7 PUSH2 0x3636 JUMP JUMPDEST PUSH1 0x0 DUP3 MLOAD PUSH2 0x393B DUP2 DUP5 PUSH1 0x20 DUP8 ADD PUSH2 0x3373 JUMP JUMPDEST SWAP2 SWAP1 SWAP2 ADD SWAP3 SWAP2 POP POP JUMP JUMPDEST PUSH1 0x1 PUSH1 0x1 PUSH1 0x40 SHL SUB DUP4 GT ISZERO PUSH2 0x395C JUMPI PUSH2 0x395C PUSH2 0x3180 JUMP JUMPDEST PUSH2 0x3970 DUP4 PUSH2 0x396A DUP4 SLOAD PUSH2 0x35A7 JUMP JUMPDEST DUP4 PUSH2 0x374A JUMP JUMPDEST PUSH1 0x0 PUSH1 0x1F DUP5 GT PUSH1 0x1 DUP2 EQ PUSH2 0x39A4 JUMPI PUSH1 0x0 DUP6 ISZERO PUSH2 0x398C JUMPI POP DUP4 DUP3 ADD CALLDATALOAD JUMPDEST PUSH1 0x0 NOT PUSH1 0x3 DUP8 SWAP1 SHL SHR NOT AND PUSH1 0x1 DUP7 SWAP1 SHL OR DUP4 SSTORE PUSH2 0xB5F JUMP JUMPDEST PUSH1 0x0 DUP4 DUP2 MSTORE PUSH1 0x20 SWAP1 KECCAK256 PUSH1 0x1F NOT DUP7 AND SWAP1 DUP4 JUMPDEST DUP3 DUP2 LT ISZERO PUSH2 0x39D5 JUMPI DUP7 DUP6 ADD CALLDATALOAD DUP3 SSTORE PUSH1 0x20 SWAP5 DUP6 ADD SWAP5 PUSH1 0x1 SWAP1 SWAP3 ADD SWAP2 ADD PUSH2 0x39B5 JUMP JUMPDEST POP DUP7 DUP3 LT ISZERO PUSH2 0x39F2 JUMPI PUSH1 0x0 NOT PUSH1 0xF8 DUP9 PUSH1 0x3 SHL AND SHR NOT DUP5 DUP8 ADD CALLDATALOAD AND DUP2 SSTORE JUMPDEST POP POP PUSH1 0x1 DUP6 PUSH1 0x1 SHL ADD DUP4 SSTORE POP POP POP POP POP JUMP JUMPDEST PUSH1 0x0 DUP3 PUSH1 0x1F DUP4 ADD SLT PUSH2 0x3A15 JUMPI PUSH1 0x0 DUP1 REVERT JUMPDEST DUP2 MLOAD PUSH2 0x3A23 PUSH2 0x320C DUP3 PUSH2 0x31C6 JUMP JUMPDEST DUP2 DUP2 MSTORE DUP5 PUSH1 0x20 DUP4 DUP7 ADD ADD GT ISZERO PUSH2 0x3A38 JUMPI PUSH1 0x0 DUP1 REVERT JUMPDEST PUSH2 0x3A49 DUP3 PUSH1 0x20 DUP4 ADD PUSH1 0x20 DUP8 ADD PUSH2 0x3373 JUMP JUMPDEST SWAP5 SWAP4 POP POP POP POP JUMP JUMPDEST PUSH1 0x0 PUSH1 0x20 DUP3 DUP5 SUB SLT ISZERO PUSH2 0x3A63 JUMPI PUSH1 0x0 DUP1 REVERT JUMPDEST DUP2 MLOAD PUSH1 0x1 PUSH1 0x1 PUSH1 0x40 SHL SUB DUP2 GT ISZERO PUSH2 0x3A79 JUMPI PUSH1 0x0 DUP1 REVERT JUMPDEST PUSH2 0x3A49 DUP5 DUP3 DUP6 ADD PUSH2 0x3A04 JUMP JUMPDEST PUSH2 0xFFFF DUP6 AND DUP2 MSTORE PUSH1 0x80 PUSH1 0x20 DUP3 ADD MSTORE PUSH1 0x0 PUSH2 0x3AA2 PUSH1 0x80 DUP4 ADD DUP7 PUSH2 0x3397 JUMP JUMPDEST PUSH1 0x1 PUSH1 0x1 PUSH1 0x40 SHL SUB DUP6 AND PUSH1 0x40 DUP5 ADD MSTORE DUP3 DUP2 SUB PUSH1 0x60 DUP5 ADD MSTORE PUSH2 0x273A DUP2 DUP6 PUSH2 0x3397 JUMP JUMPDEST PUSH1 0x20 DUP1 DUP3 MSTORE PUSH1 0x2B SWAP1 DUP3 ADD MSTORE PUSH32 0x496E697469616C697A61626C653A20636F6E7472616374206973206E6F742069 PUSH1 0x40 DUP3 ADD MSTORE PUSH11 0x6E697469616C697A696E67 PUSH1 0xA8 SHL PUSH1 0x60 DUP3 ADD MSTORE PUSH1 0x80 ADD SWAP1 JUMP JUMPDEST DUP1 DUP3 ADD DUP1 DUP3 GT ISZERO PUSH2 0xAF1 JUMPI PUSH2 0xAF1 PUSH2 0x3607 JUMP JUMPDEST PUSH1 0xFF DUP6 AND DUP2 MSTORE PUSH1 0x1 PUSH1 0x1 PUSH1 0xA0 SHL SUB DUP5 AND PUSH1 0x20 DUP3 ADD MSTORE PUSH1 0x80 PUSH1 0x40 DUP3 ADD DUP2 SWAP1 MSTORE PUSH1 0x0 SWAP1 PUSH2 0x3B4E SWAP1 DUP4 ADD DUP6 PUSH2 0x3397 JUMP JUMPDEST SWAP1 POP DUP3 PUSH1 0x60 DUP4 ADD MSTORE SWAP6 SWAP5 POP POP POP POP POP JUMP JUMPDEST PUSH1 0x40 DUP2 MSTORE PUSH1 0x0 PUSH2 0x3B72 PUSH1 0x40 DUP4 ADD DUP6 PUSH2 0x3397 JUMP JUMPDEST SWAP1 POP DUP3 PUSH1 0x20 DUP4 ADD MSTORE SWAP4 SWAP3 POP POP POP JUMP JUMPDEST PUSH32 0x416363657373436F6E74726F6C3A206163636F756E7420000000000000000000 DUP2 MSTORE PUSH1 0x0 DUP4 MLOAD PUSH2 0x3BB9 DUP2 PUSH1 0x17 DUP6 ADD PUSH1 0x20 DUP9 ADD PUSH2 0x3373 JUMP JUMPDEST PUSH17 0x1034B99036B4B9B9B4B733903937B6329 PUSH1 0x7D SHL PUSH1 0x17 SWAP2 DUP5 ADD SWAP2 DUP3 ADD MSTORE DUP4 MLOAD PUSH2 0x3BEA DUP2 PUSH1 0x28 DUP5 ADD PUSH1 0x20 DUP9 ADD PUSH2 0x3373 JUMP JUMPDEST ADD PUSH1 0x28 ADD SWAP5 SWAP4 POP POP POP POP JUMP JUMPDEST PUSH1 0x0 DUP1 PUSH1 0x0 DUP1 PUSH1 0x80 DUP6 DUP8 SUB SLT ISZERO PUSH2 0x3C0C JUMPI PUSH1 0x0 DUP1 REVERT JUMPDEST DUP5 MLOAD PUSH2 0x3C17 DUP2 PUSH2 0x2E5C JUMP JUMPDEST PUSH1 0x20 DUP7 ADD MLOAD SWAP1 SWAP5 POP PUSH2 0x3C28 DUP2 PUSH2 0x2FF1 JUMP JUMPDEST PUSH1 0x40 DUP7 ADD MLOAD SWAP1 SWAP4 POP PUSH1 0x1 PUSH1 0x1 PUSH1 0x40 SHL SUB DUP2 GT ISZERO PUSH2 0x3C44 JUMPI PUSH1 0x0 DUP1 REVERT JUMPDEST PUSH2 0x3C50 DUP8 DUP3 DUP9 ADD PUSH2 0x3A04 JUMP JUMPDEST PUSH1 0x60 SWAP7 SWAP1 SWAP7 ADD MLOAD SWAP5 SWAP8 SWAP4 SWAP7 POP POP POP POP JUMP JUMPDEST PUSH4 0x4E487B71 PUSH1 0xE0 SHL PUSH1 0x0 MSTORE PUSH1 0x31 PUSH1 0x4 MSTORE PUSH1 0x24 PUSH1 0x0 REVERT JUMPDEST PUSH1 0x0 PUSH1 0x20 DUP3 DUP5 SUB SLT ISZERO PUSH2 0x3C89 JUMPI PUSH1 0x0 DUP1 REVERT JUMPDEST POP MLOAD SWAP2 SWAP1 POP JUMP JUMPDEST PUSH2 0xFFFF DUP8 AND DUP2 MSTORE PUSH1 0xC0 PUSH1 0x20 DUP3 ADD MSTORE PUSH1 0x0 PUSH2 0x3CAD PUSH1 0xC0 DUP4 ADD DUP9 PUSH2 0x3397 JUMP JUMPDEST DUP3 DUP2 SUB PUSH1 0x40 DUP5 ADD MSTORE PUSH2 0x3CBF DUP2 DUP9 PUSH2 0x3397 JUMP JUMPDEST PUSH1 0x1 PUSH1 0x1 PUSH1 0xA0 SHL SUB DUP8 DUP2 AND PUSH1 0x60 DUP7 ADD MSTORE DUP7 AND PUSH1 0x80 DUP6 ADD MSTORE DUP4 DUP2 SUB PUSH1 0xA0 DUP6 ADD MSTORE SWAP1 POP PUSH2 0x3CEA DUP2 DUP6 PUSH2 0x3397 JUMP JUMPDEST SWAP10 SWAP9 POP POP POP POP POP POP POP POP POP JUMP JUMPDEST DUP1 DUP3 MUL DUP2 ISZERO DUP3 DUP3 DIV DUP5 EQ OR PUSH2 0xAF1 JUMPI PUSH2 0xAF1 PUSH2 0x3607 JUMP JUMPDEST PUSH1 0x0 DUP2 PUSH2 0x3D1D JUMPI PUSH2 0x3D1D PUSH2 0x3607 JUMP JUMPDEST POP PUSH1 0x0 NOT ADD SWAP1 JUMP INVALID LOG2 PUSH5 0x6970667358 0x22 SLT KECCAK256 0x4E 0xF6 PUSH28 0x169A365C2675AE9D55FC519B11686169133AFC8336B7E2ABA9E0F11 0xD6 PUSH5 0x736F6C6343 STOP ADDMOD SGT STOP CALLER "},"methodIdentifiers":{"DEFAULT_ADMIN_ROLE()":"a217fddf","DEFAULT_PAYLOAD_SIZE_LIMIT()":"c4461834","FUNCTION_TYPE_SEND()":"af3fb21c","NO_EXTRA_GAS()":"44770515","addTokenMapping(uint16,address,address)":"71a86e91","circulatingSupply()":"9358928b","estimateSendFee(address,uint16,bytes,uint256)":"a9e48ca7","failedMessages(uint16,bytes,uint64)":"5b8c41e6","forceResumeReceive(uint16,bytes)":"42d65a8d","getAllLane()":"36c6dd95","getConfig(uint16,uint16,address,uint256)":"f5ecbdbc","getRoleAdmin(bytes32)":"248a9ca3","getRoleMember(bytes32,uint256)":"9010d07c","getRoleMemberCount(bytes32)":"ca15c873","getTrustedRemoteAddress(uint16)":"9f38369a","grantRole(bytes32,address)":"2f2ff15d","hasRole(bytes32,address)":"91d14854","initialize(address,address)":"485cc955","isTrustedRemote(uint16,bytes)":"3d8b38f6","laneExist(uint16,address)":"f09c5699","lzEndpoint()":"b353aaa7","lzReceive(uint16,bytes,uint64,bytes)":"001d3567","minDstGasLookup(uint16,uint256)":"07810867","nonblockingLzReceive(uint16,bytes,uint64,bytes)":"66ad5c8a","pause()":"8456cb59","paused()":"5c975abb","precrime()":"950c8a74","removeTokenMapping(uint16,address)":"a7f342b0","renounceRole(bytes32,address)":"36568abe","retryMessage(uint16,bytes,uint64,bytes)":"d1deba1f","revokeRole(bytes32,address)":"d547741f","sendFrom(address,uint16,bytes,uint256)":"b44e15e5","setConfig(uint16,uint16,uint256,bytes)":"cbed8b9c","setMinDstGas(uint16,uint16,uint256)":"df2a5b3b","setPrecrime(address)":"baf3292d","setReceiveVersion(uint16)":"10ddb137","setSendVersion(uint16)":"07e0db17","setTrustedRemote(uint16,bytes)":"eb8d72b7","setTrustedRemoteAddress(uint16,bytes)":"a6c3d165","setUseCustomAdapterParams(bool)":"eab45d9c","supportsInterface(bytes4)":"01ffc9a7","token()":"fc0c546a","tokenMapping(uint16,address)":"4ae33529","trustedRemoteLookup(uint16)":"7533d788","unPause()":"f7b188a5","updateTokenMapping(uint16,address,address)":"b414275d","useCustomAdapterParams()":"ed629c5c"}},"storageLayout":{"storage":[{"astId":1003,"contract":"contracts/oft/ProxyOFT.sol:ProxyOFT","label":"_initialized","offset":0,"slot":"0","type":"t_uint8"},{"astId":1006,"contract":"contracts/oft/ProxyOFT.sol:ProxyOFT","label":"_initializing","offset":1,"slot":"0","type":"t_bool"},{"astId":1614,"contract":"contracts/oft/ProxyOFT.sol:ProxyOFT","label":"__gap","offset":0,"slot":"1","type":"t_array(t_uint256)50_storage"},{"astId":1887,"contract":"contracts/oft/ProxyOFT.sol:ProxyOFT","label":"__gap","offset":0,"slot":"51","type":"t_array(t_uint256)50_storage"},{"astId":602,"contract":"contracts/oft/ProxyOFT.sol:ProxyOFT","label":"_roles","offset":0,"slot":"101","type":"t_mapping(t_bytes32,t_struct(RoleData)597_storage)"},{"astId":897,"contract":"contracts/oft/ProxyOFT.sol:ProxyOFT","label":"__gap","offset":0,"slot":"102","type":"t_array(t_uint256)49_storage"},{"astId":451,"contract":"contracts/oft/ProxyOFT.sol:ProxyOFT","label":"_roleMembers","offset":0,"slot":"151","type":"t_mapping(t_bytes32,t_struct(AddressSet)3197_storage)"},{"astId":561,"contract":"contracts/oft/ProxyOFT.sol:ProxyOFT","label":"__gap","offset":0,"slot":"152","type":"t_array(t_uint256)49_storage"},{"astId":6635,"contract":"contracts/oft/ProxyOFT.sol:ProxyOFT","label":"__gap","offset":0,"slot":"201","type":"t_array(t_uint256)49_storage"},{"astId":5887,"contract":"contracts/oft/ProxyOFT.sol:ProxyOFT","label":"lzEndpoint","offset":0,"slot":"250","type":"t_contract(ILayerZeroEndpointUpgradeable)5736"},{"astId":5891,"contract":"contracts/oft/ProxyOFT.sol:ProxyOFT","label":"trustedRemoteLookup","offset":0,"slot":"251","type":"t_mapping(t_uint16,t_bytes_storage)"},{"astId":5897,"contract":"contracts/oft/ProxyOFT.sol:ProxyOFT","label":"minDstGasLookup","offset":0,"slot":"252","type":"t_mapping(t_uint16,t_mapping(t_uint256,t_uint256))"},{"astId":6391,"contract":"contracts/oft/ProxyOFT.sol:ProxyOFT","label":"precrime","offset":0,"slot":"253","type":"t_address"},{"astId":6396,"contract":"contracts/oft/ProxyOFT.sol:ProxyOFT","label":"__gap","offset":0,"slot":"254","type":"t_array(t_uint256)48_storage"},{"astId":6442,"contract":"contracts/oft/ProxyOFT.sol:ProxyOFT","label":"failedMessages","offset":0,"slot":"302","type":"t_mapping(t_uint16,t_mapping(t_bytes_memory_ptr,t_mapping(t_uint64,t_bytes32)))"},{"astId":6603,"contract":"contracts/oft/ProxyOFT.sol:ProxyOFT","label":"__gap","offset":0,"slot":"303","type":"t_array(t_uint256)50_storage"},{"astId":4736,"contract":"contracts/oft/ProxyOFT.sol:ProxyOFT","label":"useCustomAdapterParams","offset":0,"slot":"353","type":"t_bool"},{"astId":5077,"contract":"contracts/oft/ProxyOFT.sol:ProxyOFT","label":"__gap","offset":0,"slot":"354","type":"t_array(t_uint256)50_storage"},{"astId":5120,"contract":"contracts/oft/ProxyOFT.sol:ProxyOFT","label":"token","offset":0,"slot":"404","type":"t_address"},{"astId":5123,"contract":"contracts/oft/ProxyOFT.sol:ProxyOFT","label":"circulatingSupply","offset":0,"slot":"405","type":"t_uint256"},{"astId":5125,"contract":"contracts/oft/ProxyOFT.sol:ProxyOFT","label":"paused","offset":0,"slot":"406","type":"t_bool"},{"astId":5128,"contract":"contracts/oft/ProxyOFT.sol:ProxyOFT","label":"_laneHash","offset":0,"slot":"407","type":"t_struct(Bytes32Set)3076_storage"},{"astId":5133,"contract":"contracts/oft/ProxyOFT.sol:ProxyOFT","label":"_laneDetail","offset":0,"slot":"409","type":"t_mapping(t_bytes32,t_struct(LaneDetail)5117_storage)"}],"types":{"t_address":{"encoding":"inplace","label":"address","numberOfBytes":"20"},"t_array(t_bytes32)dyn_storage":{"base":"t_bytes32","encoding":"dynamic_array","label":"bytes32[]","numberOfBytes":"32"},"t_array(t_uint256)48_storage":{"base":"t_uint256","encoding":"inplace","label":"uint256[48]","numberOfBytes":"1536"},"t_array(t_uint256)49_storage":{"base":"t_uint256","encoding":"inplace","label":"uint256[49]","numberOfBytes":"1568"},"t_array(t_uint256)50_storage":{"base":"t_uint256","encoding":"inplace","label":"uint256[50]","numberOfBytes":"1600"},"t_bool":{"encoding":"inplace","label":"bool","numberOfBytes":"1"},"t_bytes32":{"encoding":"inplace","label":"bytes32","numberOfBytes":"32"},"t_bytes_memory_ptr":{"encoding":"bytes","label":"bytes","numberOfBytes":"32"},"t_bytes_storage":{"encoding":"bytes","label":"bytes","numberOfBytes":"32"},"t_contract(ILayerZeroEndpointUpgradeable)5736":{"encoding":"inplace","label":"contract ILayerZeroEndpointUpgradeable","numberOfBytes":"20"},"t_mapping(t_address,t_bool)":{"encoding":"mapping","key":"t_address","label":"mapping(address => bool)","numberOfBytes":"32","value":"t_bool"},"t_mapping(t_bytes32,t_struct(AddressSet)3197_storage)":{"encoding":"mapping","key":"t_bytes32","label":"mapping(bytes32 => struct EnumerableSetUpgradeable.AddressSet)","numberOfBytes":"32","value":"t_struct(AddressSet)3197_storage"},"t_mapping(t_bytes32,t_struct(LaneDetail)5117_storage)":{"encoding":"mapping","key":"t_bytes32","label":"mapping(bytes32 => struct ProxyOFT.LaneDetail)","numberOfBytes":"32","value":"t_struct(LaneDetail)5117_storage"},"t_mapping(t_bytes32,t_struct(RoleData)597_storage)":{"encoding":"mapping","key":"t_bytes32","label":"mapping(bytes32 => struct AccessControlUpgradeable.RoleData)","numberOfBytes":"32","value":"t_struct(RoleData)597_storage"},"t_mapping(t_bytes32,t_uint256)":{"encoding":"mapping","key":"t_bytes32","label":"mapping(bytes32 => uint256)","numberOfBytes":"32","value":"t_uint256"},"t_mapping(t_bytes_memory_ptr,t_mapping(t_uint64,t_bytes32))":{"encoding":"mapping","key":"t_bytes_memory_ptr","label":"mapping(bytes => mapping(uint64 => bytes32))","numberOfBytes":"32","value":"t_mapping(t_uint64,t_bytes32)"},"t_mapping(t_uint16,t_bytes_storage)":{"encoding":"mapping","key":"t_uint16","label":"mapping(uint16 => bytes)","numberOfBytes":"32","value":"t_bytes_storage"},"t_mapping(t_uint16,t_mapping(t_bytes_memory_ptr,t_mapping(t_uint64,t_bytes32)))":{"encoding":"mapping","key":"t_uint16","label":"mapping(uint16 => mapping(bytes => mapping(uint64 => bytes32)))","numberOfBytes":"32","value":"t_mapping(t_bytes_memory_ptr,t_mapping(t_uint64,t_bytes32))"},"t_mapping(t_uint16,t_mapping(t_uint256,t_uint256))":{"encoding":"mapping","key":"t_uint16","label":"mapping(uint16 => mapping(uint256 => uint256))","numberOfBytes":"32","value":"t_mapping(t_uint256,t_uint256)"},"t_mapping(t_uint256,t_uint256)":{"encoding":"mapping","key":"t_uint256","label":"mapping(uint256 => uint256)","numberOfBytes":"32","value":"t_uint256"},"t_mapping(t_uint64,t_bytes32)":{"encoding":"mapping","key":"t_uint64","label":"mapping(uint64 => bytes32)","numberOfBytes":"32","value":"t_bytes32"},"t_struct(AddressSet)3197_storage":{"encoding":"inplace","label":"struct EnumerableSetUpgradeable.AddressSet","members":[{"astId":3196,"contract":"contracts/oft/ProxyOFT.sol:ProxyOFT","label":"_inner","offset":0,"slot":"0","type":"t_struct(Set)2882_storage"}],"numberOfBytes":"64"},"t_struct(Bytes32Set)3076_storage":{"encoding":"inplace","label":"struct EnumerableSetUpgradeable.Bytes32Set","members":[{"astId":3075,"contract":"contracts/oft/ProxyOFT.sol:ProxyOFT","label":"_inner","offset":0,"slot":"0","type":"t_struct(Set)2882_storage"}],"numberOfBytes":"64"},"t_struct(LaneDetail)5117_storage":{"encoding":"inplace","label":"struct ProxyOFT.LaneDetail","members":[{"astId":5112,"contract":"contracts/oft/ProxyOFT.sol:ProxyOFT","label":"srcChainId","offset":0,"slot":"0","type":"t_uint16"},{"astId":5114,"contract":"contracts/oft/ProxyOFT.sol:ProxyOFT","label":"srcToken","offset":2,"slot":"0","type":"t_address"},{"astId":5116,"contract":"contracts/oft/ProxyOFT.sol:ProxyOFT","label":"dstToken","offset":0,"slot":"1","type":"t_address"}],"numberOfBytes":"64"},"t_struct(RoleData)597_storage":{"encoding":"inplace","label":"struct AccessControlUpgradeable.RoleData","members":[{"astId":594,"contract":"contracts/oft/ProxyOFT.sol:ProxyOFT","label":"members","offset":0,"slot":"0","type":"t_mapping(t_address,t_bool)"},{"astId":596,"contract":"contracts/oft/ProxyOFT.sol:ProxyOFT","label":"adminRole","offset":0,"slot":"1","type":"t_bytes32"}],"numberOfBytes":"64"},"t_struct(Set)2882_storage":{"encoding":"inplace","label":"struct EnumerableSetUpgradeable.Set","members":[{"astId":2877,"contract":"contracts/oft/ProxyOFT.sol:ProxyOFT","label":"_values","offset":0,"slot":"0","type":"t_array(t_bytes32)dyn_storage"},{"astId":2881,"contract":"contracts/oft/ProxyOFT.sol:ProxyOFT","label":"_indexes","offset":0,"slot":"1","type":"t_mapping(t_bytes32,t_uint256)"}],"numberOfBytes":"64"},"t_uint16":{"encoding":"inplace","label":"uint16","numberOfBytes":"2"},"t_uint256":{"encoding":"inplace","label":"uint256","numberOfBytes":"32"},"t_uint64":{"encoding":"inplace","label":"uint64","numberOfBytes":"8"},"t_uint8":{"encoding":"inplace","label":"uint8","numberOfBytes":"1"}}}}}}