{
  "contracts/PermitRouter.sol": {
    "PermitRouter": {
      "abi": [
        {
          "inputs": [
            {
              "internalType": "address",
              "name": "_pair",
              "type": "address"
            },
            {
              "internalType": "address",
              "name": "_token0",
              "type": "address"
            },
            {
              "internalType": "address",
              "name": "_token1",
              "type": "address"
            },
            {
              "internalType": "address",
              "name": "_token2",
              "type": "address"
            }
          ],
          "stateMutability": "nonpayable",
          "type": "constructor"
        },
        {
          "inputs": [],
          "name": "pair",
          "outputs": [
            {
              "internalType": "address",
              "name": "",
              "type": "address"
            }
          ],
          "stateMutability": "view",
          "type": "function"
        },
        {
          "inputs": [
            {
              "internalType": "uint256",
              "name": "amountIn",
              "type": "uint256"
            },
            {
              "internalType": "uint256",
              "name": "amountOutMin",
              "type": "uint256"
            },
            {
              "internalType": "address",
              "name": "to",
              "type": "address"
            },
            {
              "internalType": "uint256",
              "name": "deadline",
              "type": "uint256"
            },
            {
              "internalType": "bytes",
              "name": "signature",
              "type": "bytes"
            }
          ],
          "name": "swapExactTokensForTokens",
          "outputs": [
            {
              "internalType": "uint256[]",
              "name": "amounts",
              "type": "uint256[]"
            }
          ],
          "stateMutability": "nonpayable",
          "type": "function"
        },
        {
          "inputs": [
            {
              "internalType": "uint256",
              "name": "amountOut",
              "type": "uint256"
            },
            {
              "internalType": "uint256",
              "name": "amountInMax",
              "type": "uint256"
            },
            {
              "internalType": "address",
              "name": "to",
              "type": "address"
            },
            {
              "internalType": "uint256",
              "name": "deadline",
              "type": "uint256"
            },
            {
              "internalType": "bytes",
              "name": "signature",
              "type": "bytes"
            }
          ],
          "name": "swapTokensForExactTokens",
          "outputs": [
            {
              "internalType": "uint256[]",
              "name": "amounts",
              "type": "uint256[]"
            }
          ],
          "stateMutability": "nonpayable",
          "type": "function"
        },
        {
          "inputs": [],
          "name": "token0",
          "outputs": [
            {
              "internalType": "address",
              "name": "",
              "type": "address"
            }
          ],
          "stateMutability": "view",
          "type": "function"
        },
        {
          "inputs": [],
          "name": "token1",
          "outputs": [
            {
              "internalType": "address",
              "name": "",
              "type": "address"
            }
          ],
          "stateMutability": "view",
          "type": "function"
        },
        {
          "inputs": [],
          "name": "token2",
          "outputs": [
            {
              "internalType": "address",
              "name": "",
              "type": "address"
            }
          ],
          "stateMutability": "view",
          "type": "function"
        }
      ],
      "evm": {
        "bytecode": {
          "linkReferences": {},
          "object": "6101006040523480156200001257600080fd5b50604051620014ab380380620014ab833981016040819052620000359162000082565b6001600160601b0319606094851b811660805292841b831660a05290831b821660c05290911b1660e052620000df565b80516001600160a01b03811681146200007d57600080fd5b919050565b600080600080608085870312156200009957600080fd5b620000a48562000065565b9350620000b46020860162000065565b9250620000c46040860162000065565b9150620000d46060860162000065565b905092959194509250565b60805160601c60a05160601c60c05160601c60e05160601c61133c6200016f6000396000818160b00152818161021d01526104ed015260008181610131015281816101c90152610499015260008181606c0152818161033d015281816103b101526105fd01526000818160f701528181610274015281816103d30152818161054401526109b2015261133c6000f3fe608060405234801561001057600080fd5b50600436106100625760003560e01c80630dfe16811461006757806325be124e146100ab578063480bfcaa146100d2578063a8aa1b31146100f2578063c155218614610119578063d21220a71461012c575b600080fd5b61008e7f000000000000000000000000000000000000000000000000000000000000000081565b6040516001600160a01b0390911681526020015b60405180910390f35b61008e7f000000000000000000000000000000000000000000000000000000000000000081565b6100e56100e0366004610fca565b610153565b6040516100a29190611139565b61008e7f000000000000000000000000000000000000000000000000000000000000000081565b6100e5610127366004610fca565b610428565b61008e7f000000000000000000000000000000000000000000000000000000000000000081565b606082428110156101a65760405162461bcd60e51b8152602060048201526018602482015277155b9a5cddd85c158c949bdd5d195c8e881156141254915160421b60448201526064015b60405180910390fd5b6040805160028082526060820183526000926020830190803683370190505090507f0000000000000000000000000000000000000000000000000000000000000000816000815181106101fb576101fb6112da565b60200260200101906001600160a01b031690816001600160a01b0316815250507f00000000000000000000000000000000000000000000000000000000000000008160018151811061024f5761024f6112da565b60200260200101906001600160a01b031690816001600160a01b03168152505061029a7f0000000000000000000000000000000000000000000000000000000000000000898361063a565b92508683600185516102ac919061124b565b815181106102bc576102bc6112da565b602002602001015110156103265760405162461bcd60e51b815260206004820152602b60248201527f556e69737761705632526f757465723a20494e53554646494349454e545f4f5560448201526a1514155517d05353d5539560aa1b606482015260840161019d565b604051639fd5a6cf60e01b81526001600160a01b037f00000000000000000000000000000000000000000000000000000000000000001690639fd5a6cf9061037a90339030908d908b908b906004016110ff565b600060405180830381600087803b15801561039457600080fd5b505af11580156103a8573d6000803e3d6000fd5b505050506104127f0000000000000000000000000000000000000000000000000000000000000000337f000000000000000000000000000000000000000000000000000000000000000086600081518110610405576104056112da565b60200260200101516107c5565b61041d8382886108f5565b505095945050505050565b606082428110156104765760405162461bcd60e51b8152602060048201526018602482015277155b9a5cddd85c158c949bdd5d195c8e881156141254915160421b604482015260640161019d565b6040805160028082526060820183526000926020830190803683370190505090507f0000000000000000000000000000000000000000000000000000000000000000816000815181106104cb576104cb6112da565b60200260200101906001600160a01b031690816001600160a01b0316815250507f00000000000000000000000000000000000000000000000000000000000000008160018151811061051f5761051f6112da565b60200260200101906001600160a01b031690816001600160a01b03168152505061056a7f00000000000000000000000000000000000000000000000000000000000000008983610a29565b92508683600081518110610580576105806112da565b602002602001015111156105e65760405162461bcd60e51b815260206004820152602760248201527f556e69737761705632526f757465723a204558434553534956455f494e50555460448201526617d05353d5539560ca1b606482015260840161019d565b604051639fd5a6cf60e01b81526001600160a01b037f00000000000000000000000000000000000000000000000000000000000000001690639fd5a6cf9061037a90339030908c908b908b906004016110ff565b606060028251101561068e5760405162461bcd60e51b815260206004820152601e60248201527f556e697377617056324c6962726172793a20494e56414c49445f504154480000604482015260640161019d565b815167ffffffffffffffff8111156106a8576106a86112f0565b6040519080825280602002602001820160405280156106d1578160200160208202803683370190505b50905082816000815181106106e8576106e86112da565b60200260200101818152505060005b60018351610705919061124b565b8110156107bd5760008061075887868581518110610725576107256112da565b60200260200101518786600161073b91906111f2565b8151811061074b5761074b6112da565b6020026020010151610baa565b91509150610780848481518110610771576107716112da565b60200260200101518383610c79565b8461078c8560016111f2565b8151811061079c5761079c6112da565b602002602001018181525050505080806107b5906112a9565b9150506106f7565b509392505050565b604080516001600160a01b0385811660248301528481166044830152606480830185905283518084039091018152608490920183526020820180516001600160e01b03166323b872dd60e01b179052915160009283929088169161082991906110e3565b6000604051808303816000865af19150503d8060008114610866576040519150601f19603f3d011682016040523d82523d6000602084013e61086b565b606091505b50915091508180156108955750805115806108955750808060200190518101906108959190610f51565b6108ed5760405162461bcd60e51b8152602060048201526024808201527f5472616e7366657248656c7065723a205452414e534645525f46524f4d5f46416044820152631253115160e21b606482015260840161019d565b505050505050565b6000808360008151811061090b5761090b6112da565b602002602001015184600181518110610926576109266112da565b602002602001015191509150600061093e8383610d58565b509050600086600181518110610956576109566112da565b60200260200101519050600080836001600160a01b0316866001600160a01b03161461098457826000610988565b6000835b6040805160008152602081019182905263022c0d9f60e01b90915291935091506001600160a01b037f0000000000000000000000000000000000000000000000000000000000000000169063022c0d9f906109ec90859085908c90602481016111c5565b600060405180830381600087803b158015610a0657600080fd5b505af1158015610a1a573d6000803e3d6000fd5b50505050505050505050505050565b6060600282511015610a7d5760405162461bcd60e51b815260206004820152601e60248201527f556e697377617056324c6962726172793a20494e56414c49445f504154480000604482015260640161019d565b815167ffffffffffffffff811115610a9757610a976112f0565b604051908082528060200260200182016040528015610ac0578160200160208202803683370190505b509050828160018351610ad3919061124b565b81518110610ae357610ae36112da565b602002602001018181525050600060018351610aff919061124b565b90505b80156107bd57600080610b458786610b1b60018761124b565b81518110610b2b57610b2b6112da565b602002602001015187868151811061074b5761074b6112da565b91509150610b6d848481518110610b5e57610b5e6112da565b60200260200101518383610e50565b84610b7960018661124b565b81518110610b8957610b896112da565b60200260200101818152505050508080610ba290611292565b915050610b02565b6000806000610bb98585610d58565b509050600080876001600160a01b0316630902f1ac6040518163ffffffff1660e01b815260040160606040518083038186803b158015610bf857600080fd5b505afa158015610c0c573d6000803e3d6000fd5b505050506040513d601f19601f82011682018060405250810190610c309190610f7a565b506001600160701b031691506001600160701b03169150826001600160a01b0316876001600160a01b031614610c67578082610c6a565b81815b90999098509650505050505050565b6000808411610cde5760405162461bcd60e51b815260206004820152602b60248201527f556e697377617056324c6962726172793a20494e53554646494349454e545f4960448201526a1394155517d05353d5539560aa1b606482015260840161019d565b600083118015610cee5750600082115b610d0a5760405162461bcd60e51b815260040161019d9061117d565b6000610d18856103e561122c565b90506000610d26848361122c565b9050600082610d37876103e861122c565b610d4191906111f2565b9050610d4d818361120a565b979650505050505050565b600080826001600160a01b0316846001600160a01b03161415610dcb5760405162461bcd60e51b815260206004820152602560248201527f556e697377617056324c6962726172793a204944454e544943414c5f41444452604482015264455353455360d81b606482015260840161019d565b826001600160a01b0316846001600160a01b031610610deb578284610dee565b83835b90925090506001600160a01b038216610e495760405162461bcd60e51b815260206004820152601e60248201527f556e697377617056324c6962726172793a205a45524f5f414444524553530000604482015260640161019d565b9250929050565b6000808411610eb65760405162461bcd60e51b815260206004820152602c60248201527f556e697377617056324c6962726172793a20494e53554646494349454e545f4f60448201526b155514155517d05353d5539560a21b606482015260840161019d565b600083118015610ec65750600082115b610ee25760405162461bcd60e51b815260040161019d9061117d565b6000610eee858561122c565b610efa906103e861122c565b90506000610f08868561124b565b610f14906103e561122c565b9050610f20818361120a565b610f2b9060016111f2565b9695505050505050565b80516001600160701b0381168114610f4c57600080fd5b919050565b600060208284031215610f6357600080fd5b81518015158114610f7357600080fd5b9392505050565b600080600060608486031215610f8f57600080fd5b610f9884610f35565b9250610fa660208501610f35565b9150604084015163ffffffff81168114610fbf57600080fd5b809150509250925092565b600080600080600060a08688031215610fe257600080fd5b853594506020860135935060408601356001600160a01b038116811461100757600080fd5b925060608601359150608086013567ffffffffffffffff8082111561102b57600080fd5b818801915088601f83011261103f57600080fd5b813581811115611051576110516112f0565b604051601f8201601f19908116603f01168101908382118183101715611079576110796112f0565b816040528281528b602084870101111561109257600080fd5b8260208601602083013760006020848301015280955050505050509295509295909350565b600081518084526110cf816020860160208601611262565b601f01601f19169290920160200192915050565b600082516110f5818460208701611262565b9190910192915050565b6001600160a01b03868116825285166020820152604081018490526060810183905260a060808201819052600090610d4d908301846110b7565b6020808252825182820181905260009190848201906040850190845b8181101561117157835183529284019291840191600101611155565b50909695505050505050565b60208082526028908201527f556e697377617056324c6962726172793a20494e53554646494349454e545f4c604082015267495155494449545960c01b606082015260800190565b84815283602082015260018060a01b0383166040820152608060608201526000610f2b60808301846110b7565b60008219821115611205576112056112c4565b500190565b60008261122757634e487b7160e01b600052601260045260246000fd5b500490565b6000816000190483118215151615611246576112466112c4565b500290565b60008282101561125d5761125d6112c4565b500390565b60005b8381101561127d578181015183820152602001611265565b8381111561128c576000848401525b50505050565b6000816112a1576112a16112c4565b506000190190565b60006000198214156112bd576112bd6112c4565b5060010190565b634e487b7160e01b600052601160045260246000fd5b634e487b7160e01b600052603260045260246000fd5b634e487b7160e01b600052604160045260246000fdfea26469706673582212206563613be47541afad3f42a225ed417b326433b584bf7f768ff93c8f2b5d797864736f6c63430008070033",
          "opcodes": "PUSH2 0x100 PUSH1 0x40 MSTORE CALLVALUE DUP1 ISZERO PUSH3 0x12 JUMPI PUSH1 0x0 DUP1 REVERT JUMPDEST POP PUSH1 0x40 MLOAD PUSH3 0x14AB CODESIZE SUB DUP1 PUSH3 0x14AB DUP4 CODECOPY DUP2 ADD PUSH1 0x40 DUP2 SWAP1 MSTORE PUSH3 0x35 SWAP2 PUSH3 0x82 JUMP JUMPDEST PUSH1 0x1 PUSH1 0x1 PUSH1 0x60 SHL SUB NOT PUSH1 0x60 SWAP5 DUP6 SHL DUP2 AND PUSH1 0x80 MSTORE SWAP3 DUP5 SHL DUP4 AND PUSH1 0xA0 MSTORE SWAP1 DUP4 SHL DUP3 AND PUSH1 0xC0 MSTORE SWAP1 SWAP2 SHL AND PUSH1 0xE0 MSTORE PUSH3 0xDF JUMP JUMPDEST DUP1 MLOAD PUSH1 0x1 PUSH1 0x1 PUSH1 0xA0 SHL SUB DUP2 AND DUP2 EQ PUSH3 0x7D JUMPI PUSH1 0x0 DUP1 REVERT JUMPDEST SWAP2 SWAP1 POP JUMP JUMPDEST PUSH1 0x0 DUP1 PUSH1 0x0 DUP1 PUSH1 0x80 DUP6 DUP8 SUB SLT ISZERO PUSH3 0x99 JUMPI PUSH1 0x0 DUP1 REVERT JUMPDEST PUSH3 0xA4 DUP6 PUSH3 0x65 JUMP JUMPDEST SWAP4 POP PUSH3 0xB4 PUSH1 0x20 DUP7 ADD PUSH3 0x65 JUMP JUMPDEST SWAP3 POP PUSH3 0xC4 PUSH1 0x40 DUP7 ADD PUSH3 0x65 JUMP JUMPDEST SWAP2 POP PUSH3 0xD4 PUSH1 0x60 DUP7 ADD PUSH3 0x65 JUMP JUMPDEST SWAP1 POP SWAP3 SWAP6 SWAP2 SWAP5 POP SWAP3 POP JUMP JUMPDEST PUSH1 0x80 MLOAD PUSH1 0x60 SHR PUSH1 0xA0 MLOAD PUSH1 0x60 SHR PUSH1 0xC0 MLOAD PUSH1 0x60 SHR PUSH1 0xE0 MLOAD PUSH1 0x60 SHR PUSH2 0x133C PUSH3 0x16F PUSH1 0x0 CODECOPY PUSH1 0x0 DUP2 DUP2 PUSH1 0xB0 ADD MSTORE DUP2 DUP2 PUSH2 0x21D ADD MSTORE PUSH2 0x4ED ADD MSTORE PUSH1 0x0 DUP2 DUP2 PUSH2 0x131 ADD MSTORE DUP2 DUP2 PUSH2 0x1C9 ADD MSTORE PUSH2 0x499 ADD MSTORE PUSH1 0x0 DUP2 DUP2 PUSH1 0x6C ADD MSTORE DUP2 DUP2 PUSH2 0x33D ADD MSTORE DUP2 DUP2 PUSH2 0x3B1 ADD MSTORE PUSH2 0x5FD ADD MSTORE PUSH1 0x0 DUP2 DUP2 PUSH1 0xF7 ADD MSTORE DUP2 DUP2 PUSH2 0x274 ADD MSTORE DUP2 DUP2 PUSH2 0x3D3 ADD MSTORE DUP2 DUP2 PUSH2 0x544 ADD MSTORE PUSH2 0x9B2 ADD MSTORE PUSH2 0x133C PUSH1 0x0 RETURN INVALID PUSH1 0x80 PUSH1 0x40 MSTORE CALLVALUE DUP1 ISZERO PUSH2 0x10 JUMPI PUSH1 0x0 DUP1 REVERT JUMPDEST POP PUSH1 0x4 CALLDATASIZE LT PUSH2 0x62 JUMPI PUSH1 0x0 CALLDATALOAD PUSH1 0xE0 SHR DUP1 PUSH4 0xDFE1681 EQ PUSH2 0x67 JUMPI DUP1 PUSH4 0x25BE124E EQ PUSH2 0xAB JUMPI DUP1 PUSH4 0x480BFCAA EQ PUSH2 0xD2 JUMPI DUP1 PUSH4 0xA8AA1B31 EQ PUSH2 0xF2 JUMPI DUP1 PUSH4 0xC1552186 EQ PUSH2 0x119 JUMPI DUP1 PUSH4 0xD21220A7 EQ PUSH2 0x12C JUMPI JUMPDEST PUSH1 0x0 DUP1 REVERT JUMPDEST PUSH2 0x8E PUSH32 0x0 DUP2 JUMP JUMPDEST PUSH1 0x40 MLOAD PUSH1 0x1 PUSH1 0x1 PUSH1 0xA0 SHL SUB SWAP1 SWAP2 AND DUP2 MSTORE PUSH1 0x20 ADD JUMPDEST PUSH1 0x40 MLOAD DUP1 SWAP2 SUB SWAP1 RETURN JUMPDEST PUSH2 0x8E PUSH32 0x0 DUP2 JUMP JUMPDEST PUSH2 0xE5 PUSH2 0xE0 CALLDATASIZE PUSH1 0x4 PUSH2 0xFCA JUMP JUMPDEST PUSH2 0x153 JUMP JUMPDEST PUSH1 0x40 MLOAD PUSH2 0xA2 SWAP2 SWAP1 PUSH2 0x1139 JUMP JUMPDEST PUSH2 0x8E PUSH32 0x0 DUP2 JUMP JUMPDEST PUSH2 0xE5 PUSH2 0x127 CALLDATASIZE PUSH1 0x4 PUSH2 0xFCA JUMP JUMPDEST PUSH2 0x428 JUMP JUMPDEST PUSH2 0x8E PUSH32 0x0 DUP2 JUMP JUMPDEST PUSH1 0x60 DUP3 TIMESTAMP DUP2 LT ISZERO PUSH2 0x1A6 JUMPI PUSH1 0x40 MLOAD PUSH3 0x461BCD PUSH1 0xE5 SHL DUP2 MSTORE PUSH1 0x20 PUSH1 0x4 DUP3 ADD MSTORE PUSH1 0x18 PUSH1 0x24 DUP3 ADD MSTORE PUSH24 0x155B9A5CDDD85C158C949BDD5D195C8E8811561412549151 PUSH1 0x42 SHL PUSH1 0x44 DUP3 ADD MSTORE PUSH1 0x64 ADD JUMPDEST PUSH1 0x40 MLOAD DUP1 SWAP2 SUB SWAP1 REVERT JUMPDEST PUSH1 0x40 DUP1 MLOAD PUSH1 0x2 DUP1 DUP3 MSTORE PUSH1 0x60 DUP3 ADD DUP4 MSTORE PUSH1 0x0 SWAP3 PUSH1 0x20 DUP4 ADD SWAP1 DUP1 CALLDATASIZE DUP4 CALLDATACOPY ADD SWAP1 POP POP SWAP1 POP PUSH32 0x0 DUP2 PUSH1 0x0 DUP2 MLOAD DUP2 LT PUSH2 0x1FB JUMPI PUSH2 0x1FB PUSH2 0x12DA JUMP JUMPDEST PUSH1 0x20 MUL PUSH1 0x20 ADD ADD SWAP1 PUSH1 0x1 PUSH1 0x1 PUSH1 0xA0 SHL SUB AND SWAP1 DUP2 PUSH1 0x1 PUSH1 0x1 PUSH1 0xA0 SHL SUB AND DUP2 MSTORE POP POP PUSH32 0x0 DUP2 PUSH1 0x1 DUP2 MLOAD DUP2 LT PUSH2 0x24F JUMPI PUSH2 0x24F PUSH2 0x12DA JUMP JUMPDEST PUSH1 0x20 MUL PUSH1 0x20 ADD ADD SWAP1 PUSH1 0x1 PUSH1 0x1 PUSH1 0xA0 SHL SUB AND SWAP1 DUP2 PUSH1 0x1 PUSH1 0x1 PUSH1 0xA0 SHL SUB AND DUP2 MSTORE POP POP PUSH2 0x29A PUSH32 0x0 DUP10 DUP4 PUSH2 0x63A JUMP JUMPDEST SWAP3 POP DUP7 DUP4 PUSH1 0x1 DUP6 MLOAD PUSH2 0x2AC SWAP2 SWAP1 PUSH2 0x124B JUMP JUMPDEST DUP2 MLOAD DUP2 LT PUSH2 0x2BC JUMPI PUSH2 0x2BC PUSH2 0x12DA JUMP JUMPDEST PUSH1 0x20 MUL PUSH1 0x20 ADD ADD MLOAD LT ISZERO PUSH2 0x326 JUMPI PUSH1 0x40 MLOAD PUSH3 0x461BCD PUSH1 0xE5 SHL DUP2 MSTORE PUSH1 0x20 PUSH1 0x4 DUP3 ADD MSTORE PUSH1 0x2B PUSH1 0x24 DUP3 ADD MSTORE PUSH32 0x556E69737761705632526F757465723A20494E53554646494349454E545F4F55 PUSH1 0x44 DUP3 ADD MSTORE PUSH11 0x1514155517D05353D55395 PUSH1 0xAA SHL PUSH1 0x64 DUP3 ADD MSTORE PUSH1 0x84 ADD PUSH2 0x19D JUMP JUMPDEST PUSH1 0x40 MLOAD PUSH4 0x9FD5A6CF PUSH1 0xE0 SHL DUP2 MSTORE PUSH1 0x1 PUSH1 0x1 PUSH1 0xA0 SHL SUB PUSH32 0x0 AND SWAP1 PUSH4 0x9FD5A6CF SWAP1 PUSH2 0x37A SWAP1 CALLER SWAP1 ADDRESS SWAP1 DUP14 SWAP1 DUP12 SWAP1 DUP12 SWAP1 PUSH1 0x4 ADD PUSH2 0x10FF JUMP JUMPDEST PUSH1 0x0 PUSH1 0x40 MLOAD DUP1 DUP4 SUB DUP2 PUSH1 0x0 DUP8 DUP1 EXTCODESIZE ISZERO DUP1 ISZERO PUSH2 0x394 JUMPI PUSH1 0x0 DUP1 REVERT JUMPDEST POP GAS CALL ISZERO DUP1 ISZERO PUSH2 0x3A8 JUMPI RETURNDATASIZE PUSH1 0x0 DUP1 RETURNDATACOPY RETURNDATASIZE PUSH1 0x0 REVERT JUMPDEST POP POP POP POP PUSH2 0x412 PUSH32 0x0 CALLER PUSH32 0x0 DUP7 PUSH1 0x0 DUP2 MLOAD DUP2 LT PUSH2 0x405 JUMPI PUSH2 0x405 PUSH2 0x12DA JUMP JUMPDEST PUSH1 0x20 MUL PUSH1 0x20 ADD ADD MLOAD PUSH2 0x7C5 JUMP JUMPDEST PUSH2 0x41D DUP4 DUP3 DUP9 PUSH2 0x8F5 JUMP JUMPDEST POP POP SWAP6 SWAP5 POP POP POP POP POP JUMP JUMPDEST PUSH1 0x60 DUP3 TIMESTAMP DUP2 LT ISZERO PUSH2 0x476 JUMPI PUSH1 0x40 MLOAD PUSH3 0x461BCD PUSH1 0xE5 SHL DUP2 MSTORE PUSH1 0x20 PUSH1 0x4 DUP3 ADD MSTORE PUSH1 0x18 PUSH1 0x24 DUP3 ADD MSTORE PUSH24 0x155B9A5CDDD85C158C949BDD5D195C8E8811561412549151 PUSH1 0x42 SHL PUSH1 0x44 DUP3 ADD MSTORE PUSH1 0x64 ADD PUSH2 0x19D JUMP JUMPDEST PUSH1 0x40 DUP1 MLOAD PUSH1 0x2 DUP1 DUP3 MSTORE PUSH1 0x60 DUP3 ADD DUP4 MSTORE PUSH1 0x0 SWAP3 PUSH1 0x20 DUP4 ADD SWAP1 DUP1 CALLDATASIZE DUP4 CALLDATACOPY ADD SWAP1 POP POP SWAP1 POP PUSH32 0x0 DUP2 PUSH1 0x0 DUP2 MLOAD DUP2 LT PUSH2 0x4CB JUMPI PUSH2 0x4CB PUSH2 0x12DA JUMP JUMPDEST PUSH1 0x20 MUL PUSH1 0x20 ADD ADD SWAP1 PUSH1 0x1 PUSH1 0x1 PUSH1 0xA0 SHL SUB AND SWAP1 DUP2 PUSH1 0x1 PUSH1 0x1 PUSH1 0xA0 SHL SUB AND DUP2 MSTORE POP POP PUSH32 0x0 DUP2 PUSH1 0x1 DUP2 MLOAD DUP2 LT PUSH2 0x51F JUMPI PUSH2 0x51F PUSH2 0x12DA JUMP JUMPDEST PUSH1 0x20 MUL PUSH1 0x20 ADD ADD SWAP1 PUSH1 0x1 PUSH1 0x1 PUSH1 0xA0 SHL SUB AND SWAP1 DUP2 PUSH1 0x1 PUSH1 0x1 PUSH1 0xA0 SHL SUB AND DUP2 MSTORE POP POP PUSH2 0x56A PUSH32 0x0 DUP10 DUP4 PUSH2 0xA29 JUMP JUMPDEST SWAP3 POP DUP7 DUP4 PUSH1 0x0 DUP2 MLOAD DUP2 LT PUSH2 0x580 JUMPI PUSH2 0x580 PUSH2 0x12DA JUMP JUMPDEST PUSH1 0x20 MUL PUSH1 0x20 ADD ADD MLOAD GT ISZERO PUSH2 0x5E6 JUMPI PUSH1 0x40 MLOAD PUSH3 0x461BCD PUSH1 0xE5 SHL DUP2 MSTORE PUSH1 0x20 PUSH1 0x4 DUP3 ADD MSTORE PUSH1 0x27 PUSH1 0x24 DUP3 ADD MSTORE PUSH32 0x556E69737761705632526F757465723A204558434553534956455F494E505554 PUSH1 0x44 DUP3 ADD MSTORE PUSH7 0x17D05353D55395 PUSH1 0xCA SHL PUSH1 0x64 DUP3 ADD MSTORE PUSH1 0x84 ADD PUSH2 0x19D JUMP JUMPDEST PUSH1 0x40 MLOAD PUSH4 0x9FD5A6CF PUSH1 0xE0 SHL DUP2 MSTORE PUSH1 0x1 PUSH1 0x1 PUSH1 0xA0 SHL SUB PUSH32 0x0 AND SWAP1 PUSH4 0x9FD5A6CF SWAP1 PUSH2 0x37A SWAP1 CALLER SWAP1 ADDRESS SWAP1 DUP13 SWAP1 DUP12 SWAP1 DUP12 SWAP1 PUSH1 0x4 ADD PUSH2 0x10FF JUMP JUMPDEST PUSH1 0x60 PUSH1 0x2 DUP3 MLOAD LT ISZERO PUSH2 0x68E JUMPI PUSH1 0x40 MLOAD PUSH3 0x461BCD PUSH1 0xE5 SHL DUP2 MSTORE PUSH1 0x20 PUSH1 0x4 DUP3 ADD MSTORE PUSH1 0x1E PUSH1 0x24 DUP3 ADD MSTORE PUSH32 0x556E697377617056324C6962726172793A20494E56414C49445F504154480000 PUSH1 0x44 DUP3 ADD MSTORE PUSH1 0x64 ADD PUSH2 0x19D JUMP JUMPDEST DUP2 MLOAD PUSH8 0xFFFFFFFFFFFFFFFF DUP2 GT ISZERO PUSH2 0x6A8 JUMPI PUSH2 0x6A8 PUSH2 0x12F0 JUMP JUMPDEST PUSH1 0x40 MLOAD SWAP1 DUP1 DUP3 MSTORE DUP1 PUSH1 0x20 MUL PUSH1 0x20 ADD DUP3 ADD PUSH1 0x40 MSTORE DUP1 ISZERO PUSH2 0x6D1 JUMPI DUP2 PUSH1 0x20 ADD PUSH1 0x20 DUP3 MUL DUP1 CALLDATASIZE DUP4 CALLDATACOPY ADD SWAP1 POP JUMPDEST POP SWAP1 POP DUP3 DUP2 PUSH1 0x0 DUP2 MLOAD DUP2 LT PUSH2 0x6E8 JUMPI PUSH2 0x6E8 PUSH2 0x12DA JUMP JUMPDEST PUSH1 0x20 MUL PUSH1 0x20 ADD ADD DUP2 DUP2 MSTORE POP POP PUSH1 0x0 JUMPDEST PUSH1 0x1 DUP4 MLOAD PUSH2 0x705 SWAP2 SWAP1 PUSH2 0x124B JUMP JUMPDEST DUP2 LT ISZERO PUSH2 0x7BD JUMPI PUSH1 0x0 DUP1 PUSH2 0x758 DUP8 DUP7 DUP6 DUP2 MLOAD DUP2 LT PUSH2 0x725 JUMPI PUSH2 0x725 PUSH2 0x12DA JUMP JUMPDEST PUSH1 0x20 MUL PUSH1 0x20 ADD ADD MLOAD DUP8 DUP7 PUSH1 0x1 PUSH2 0x73B SWAP2 SWAP1 PUSH2 0x11F2 JUMP JUMPDEST DUP2 MLOAD DUP2 LT PUSH2 0x74B JUMPI PUSH2 0x74B PUSH2 0x12DA JUMP JUMPDEST PUSH1 0x20 MUL PUSH1 0x20 ADD ADD MLOAD PUSH2 0xBAA JUMP JUMPDEST SWAP2 POP SWAP2 POP PUSH2 0x780 DUP5 DUP5 DUP2 MLOAD DUP2 LT PUSH2 0x771 JUMPI PUSH2 0x771 PUSH2 0x12DA JUMP JUMPDEST PUSH1 0x20 MUL PUSH1 0x20 ADD ADD MLOAD DUP4 DUP4 PUSH2 0xC79 JUMP JUMPDEST DUP5 PUSH2 0x78C DUP6 PUSH1 0x1 PUSH2 0x11F2 JUMP JUMPDEST DUP2 MLOAD DUP2 LT PUSH2 0x79C JUMPI PUSH2 0x79C PUSH2 0x12DA JUMP JUMPDEST PUSH1 0x20 MUL PUSH1 0x20 ADD ADD DUP2 DUP2 MSTORE POP POP POP POP DUP1 DUP1 PUSH2 0x7B5 SWAP1 PUSH2 0x12A9 JUMP JUMPDEST SWAP2 POP POP PUSH2 0x6F7 JUMP JUMPDEST POP SWAP4 SWAP3 POP POP POP JUMP JUMPDEST PUSH1 0x40 DUP1 MLOAD PUSH1 0x1 PUSH1 0x1 PUSH1 0xA0 SHL SUB DUP6 DUP2 AND PUSH1 0x24 DUP4 ADD MSTORE DUP5 DUP2 AND PUSH1 0x44 DUP4 ADD MSTORE PUSH1 0x64 DUP1 DUP4 ADD DUP6 SWAP1 MSTORE DUP4 MLOAD DUP1 DUP5 SUB SWAP1 SWAP2 ADD DUP2 MSTORE PUSH1 0x84 SWAP1 SWAP3 ADD DUP4 MSTORE PUSH1 0x20 DUP3 ADD DUP1 MLOAD PUSH1 0x1 PUSH1 0x1 PUSH1 0xE0 SHL SUB AND PUSH4 0x23B872DD PUSH1 0xE0 SHL OR SWAP1 MSTORE SWAP2 MLOAD PUSH1 0x0 SWAP3 DUP4 SWAP3 SWAP1 DUP9 AND SWAP2 PUSH2 0x829 SWAP2 SWAP1 PUSH2 0x10E3 JUMP JUMPDEST PUSH1 0x0 PUSH1 0x40 MLOAD DUP1 DUP4 SUB DUP2 PUSH1 0x0 DUP7 GAS CALL SWAP2 POP POP RETURNDATASIZE DUP1 PUSH1 0x0 DUP2 EQ PUSH2 0x866 JUMPI PUSH1 0x40 MLOAD SWAP2 POP PUSH1 0x1F NOT PUSH1 0x3F RETURNDATASIZE ADD AND DUP3 ADD PUSH1 0x40 MSTORE RETURNDATASIZE DUP3 MSTORE RETURNDATASIZE PUSH1 0x0 PUSH1 0x20 DUP5 ADD RETURNDATACOPY PUSH2 0x86B JUMP JUMPDEST PUSH1 0x60 SWAP2 POP JUMPDEST POP SWAP2 POP SWAP2 POP DUP2 DUP1 ISZERO PUSH2 0x895 JUMPI POP DUP1 MLOAD ISZERO DUP1 PUSH2 0x895 JUMPI POP DUP1 DUP1 PUSH1 0x20 ADD SWAP1 MLOAD DUP2 ADD SWAP1 PUSH2 0x895 SWAP2 SWAP1 PUSH2 0xF51 JUMP JUMPDEST PUSH2 0x8ED JUMPI PUSH1 0x40 MLOAD PUSH3 0x461BCD PUSH1 0xE5 SHL DUP2 MSTORE PUSH1 0x20 PUSH1 0x4 DUP3 ADD MSTORE PUSH1 0x24 DUP1 DUP3 ADD MSTORE PUSH32 0x5472616E7366657248656C7065723A205452414E534645525F46524F4D5F4641 PUSH1 0x44 DUP3 ADD MSTORE PUSH4 0x12531151 PUSH1 0xE2 SHL PUSH1 0x64 DUP3 ADD MSTORE PUSH1 0x84 ADD PUSH2 0x19D JUMP JUMPDEST POP POP POP POP POP POP JUMP JUMPDEST PUSH1 0x0 DUP1 DUP4 PUSH1 0x0 DUP2 MLOAD DUP2 LT PUSH2 0x90B JUMPI PUSH2 0x90B PUSH2 0x12DA JUMP JUMPDEST PUSH1 0x20 MUL PUSH1 0x20 ADD ADD MLOAD DUP5 PUSH1 0x1 DUP2 MLOAD DUP2 LT PUSH2 0x926 JUMPI PUSH2 0x926 PUSH2 0x12DA JUMP JUMPDEST PUSH1 0x20 MUL PUSH1 0x20 ADD ADD MLOAD SWAP2 POP SWAP2 POP PUSH1 0x0 PUSH2 0x93E DUP4 DUP4 PUSH2 0xD58 JUMP JUMPDEST POP SWAP1 POP PUSH1 0x0 DUP7 PUSH1 0x1 DUP2 MLOAD DUP2 LT PUSH2 0x956 JUMPI PUSH2 0x956 PUSH2 0x12DA JUMP JUMPDEST PUSH1 0x20 MUL PUSH1 0x20 ADD ADD MLOAD SWAP1 POP PUSH1 0x0 DUP1 DUP4 PUSH1 0x1 PUSH1 0x1 PUSH1 0xA0 SHL SUB AND DUP7 PUSH1 0x1 PUSH1 0x1 PUSH1 0xA0 SHL SUB AND EQ PUSH2 0x984 JUMPI DUP3 PUSH1 0x0 PUSH2 0x988 JUMP JUMPDEST PUSH1 0x0 DUP4 JUMPDEST PUSH1 0x40 DUP1 MLOAD PUSH1 0x0 DUP2 MSTORE PUSH1 0x20 DUP2 ADD SWAP2 DUP3 SWAP1 MSTORE PUSH4 0x22C0D9F PUSH1 0xE0 SHL SWAP1 SWAP2 MSTORE SWAP2 SWAP4 POP SWAP2 POP PUSH1 0x1 PUSH1 0x1 PUSH1 0xA0 SHL SUB PUSH32 0x0 AND SWAP1 PUSH4 0x22C0D9F SWAP1 PUSH2 0x9EC SWAP1 DUP6 SWAP1 DUP6 SWAP1 DUP13 SWAP1 PUSH1 0x24 DUP2 ADD PUSH2 0x11C5 JUMP JUMPDEST PUSH1 0x0 PUSH1 0x40 MLOAD DUP1 DUP4 SUB DUP2 PUSH1 0x0 DUP8 DUP1 EXTCODESIZE ISZERO DUP1 ISZERO PUSH2 0xA06 JUMPI PUSH1 0x0 DUP1 REVERT JUMPDEST POP GAS CALL ISZERO DUP1 ISZERO PUSH2 0xA1A JUMPI RETURNDATASIZE PUSH1 0x0 DUP1 RETURNDATACOPY RETURNDATASIZE PUSH1 0x0 REVERT JUMPDEST POP POP POP POP POP POP POP POP POP POP POP POP POP JUMP JUMPDEST PUSH1 0x60 PUSH1 0x2 DUP3 MLOAD LT ISZERO PUSH2 0xA7D JUMPI PUSH1 0x40 MLOAD PUSH3 0x461BCD PUSH1 0xE5 SHL DUP2 MSTORE PUSH1 0x20 PUSH1 0x4 DUP3 ADD MSTORE PUSH1 0x1E PUSH1 0x24 DUP3 ADD MSTORE PUSH32 0x556E697377617056324C6962726172793A20494E56414C49445F504154480000 PUSH1 0x44 DUP3 ADD MSTORE PUSH1 0x64 ADD PUSH2 0x19D JUMP JUMPDEST DUP2 MLOAD PUSH8 0xFFFFFFFFFFFFFFFF DUP2 GT ISZERO PUSH2 0xA97 JUMPI PUSH2 0xA97 PUSH2 0x12F0 JUMP JUMPDEST PUSH1 0x40 MLOAD SWAP1 DUP1 DUP3 MSTORE DUP1 PUSH1 0x20 MUL PUSH1 0x20 ADD DUP3 ADD PUSH1 0x40 MSTORE DUP1 ISZERO PUSH2 0xAC0 JUMPI DUP2 PUSH1 0x20 ADD PUSH1 0x20 DUP3 MUL DUP1 CALLDATASIZE DUP4 CALLDATACOPY ADD SWAP1 POP JUMPDEST POP SWAP1 POP DUP3 DUP2 PUSH1 0x1 DUP4 MLOAD PUSH2 0xAD3 SWAP2 SWAP1 PUSH2 0x124B JUMP JUMPDEST DUP2 MLOAD DUP2 LT PUSH2 0xAE3 JUMPI PUSH2 0xAE3 PUSH2 0x12DA JUMP JUMPDEST PUSH1 0x20 MUL PUSH1 0x20 ADD ADD DUP2 DUP2 MSTORE POP POP PUSH1 0x0 PUSH1 0x1 DUP4 MLOAD PUSH2 0xAFF SWAP2 SWAP1 PUSH2 0x124B JUMP JUMPDEST SWAP1 POP JUMPDEST DUP1 ISZERO PUSH2 0x7BD JUMPI PUSH1 0x0 DUP1 PUSH2 0xB45 DUP8 DUP7 PUSH2 0xB1B PUSH1 0x1 DUP8 PUSH2 0x124B JUMP JUMPDEST DUP2 MLOAD DUP2 LT PUSH2 0xB2B JUMPI PUSH2 0xB2B PUSH2 0x12DA JUMP JUMPDEST PUSH1 0x20 MUL PUSH1 0x20 ADD ADD MLOAD DUP8 DUP7 DUP2 MLOAD DUP2 LT PUSH2 0x74B JUMPI PUSH2 0x74B PUSH2 0x12DA JUMP JUMPDEST SWAP2 POP SWAP2 POP PUSH2 0xB6D DUP5 DUP5 DUP2 MLOAD DUP2 LT PUSH2 0xB5E JUMPI PUSH2 0xB5E PUSH2 0x12DA JUMP JUMPDEST PUSH1 0x20 MUL PUSH1 0x20 ADD ADD MLOAD DUP4 DUP4 PUSH2 0xE50 JUMP JUMPDEST DUP5 PUSH2 0xB79 PUSH1 0x1 DUP7 PUSH2 0x124B JUMP JUMPDEST DUP2 MLOAD DUP2 LT PUSH2 0xB89 JUMPI PUSH2 0xB89 PUSH2 0x12DA JUMP JUMPDEST PUSH1 0x20 MUL PUSH1 0x20 ADD ADD DUP2 DUP2 MSTORE POP POP POP POP DUP1 DUP1 PUSH2 0xBA2 SWAP1 PUSH2 0x1292 JUMP JUMPDEST SWAP2 POP POP PUSH2 0xB02 JUMP JUMPDEST PUSH1 0x0 DUP1 PUSH1 0x0 PUSH2 0xBB9 DUP6 DUP6 PUSH2 0xD58 JUMP JUMPDEST POP SWAP1 POP PUSH1 0x0 DUP1 DUP8 PUSH1 0x1 PUSH1 0x1 PUSH1 0xA0 SHL SUB AND PUSH4 0x902F1AC PUSH1 0x40 MLOAD DUP2 PUSH4 0xFFFFFFFF AND PUSH1 0xE0 SHL DUP2 MSTORE PUSH1 0x4 ADD PUSH1 0x60 PUSH1 0x40 MLOAD DUP1 DUP4 SUB DUP2 DUP7 DUP1 EXTCODESIZE ISZERO DUP1 ISZERO PUSH2 0xBF8 JUMPI PUSH1 0x0 DUP1 REVERT JUMPDEST POP GAS STATICCALL ISZERO DUP1 ISZERO PUSH2 0xC0C JUMPI RETURNDATASIZE PUSH1 0x0 DUP1 RETURNDATACOPY RETURNDATASIZE PUSH1 0x0 REVERT JUMPDEST POP POP POP POP PUSH1 0x40 MLOAD RETURNDATASIZE PUSH1 0x1F NOT PUSH1 0x1F DUP3 ADD AND DUP3 ADD DUP1 PUSH1 0x40 MSTORE POP DUP2 ADD SWAP1 PUSH2 0xC30 SWAP2 SWAP1 PUSH2 0xF7A JUMP JUMPDEST POP PUSH1 0x1 PUSH1 0x1 PUSH1 0x70 SHL SUB AND SWAP2 POP PUSH1 0x1 PUSH1 0x1 PUSH1 0x70 SHL SUB AND SWAP2 POP DUP3 PUSH1 0x1 PUSH1 0x1 PUSH1 0xA0 SHL SUB AND DUP8 PUSH1 0x1 PUSH1 0x1 PUSH1 0xA0 SHL SUB AND EQ PUSH2 0xC67 JUMPI DUP1 DUP3 PUSH2 0xC6A JUMP JUMPDEST DUP2 DUP2 JUMPDEST SWAP1 SWAP10 SWAP1 SWAP9 POP SWAP7 POP POP POP POP POP POP POP JUMP JUMPDEST PUSH1 0x0 DUP1 DUP5 GT PUSH2 0xCDE JUMPI PUSH1 0x40 MLOAD PUSH3 0x461BCD PUSH1 0xE5 SHL DUP2 MSTORE PUSH1 0x20 PUSH1 0x4 DUP3 ADD MSTORE PUSH1 0x2B PUSH1 0x24 DUP3 ADD MSTORE PUSH32 0x556E697377617056324C6962726172793A20494E53554646494349454E545F49 PUSH1 0x44 DUP3 ADD MSTORE PUSH11 0x1394155517D05353D55395 PUSH1 0xAA SHL PUSH1 0x64 DUP3 ADD MSTORE PUSH1 0x84 ADD PUSH2 0x19D JUMP JUMPDEST PUSH1 0x0 DUP4 GT DUP1 ISZERO PUSH2 0xCEE JUMPI POP PUSH1 0x0 DUP3 GT JUMPDEST PUSH2 0xD0A JUMPI PUSH1 0x40 MLOAD PUSH3 0x461BCD PUSH1 0xE5 SHL DUP2 MSTORE PUSH1 0x4 ADD PUSH2 0x19D SWAP1 PUSH2 0x117D JUMP JUMPDEST PUSH1 0x0 PUSH2 0xD18 DUP6 PUSH2 0x3E5 PUSH2 0x122C JUMP JUMPDEST SWAP1 POP PUSH1 0x0 PUSH2 0xD26 DUP5 DUP4 PUSH2 0x122C JUMP JUMPDEST SWAP1 POP PUSH1 0x0 DUP3 PUSH2 0xD37 DUP8 PUSH2 0x3E8 PUSH2 0x122C JUMP JUMPDEST PUSH2 0xD41 SWAP2 SWAP1 PUSH2 0x11F2 JUMP JUMPDEST SWAP1 POP PUSH2 0xD4D DUP2 DUP4 PUSH2 0x120A JUMP JUMPDEST SWAP8 SWAP7 POP POP POP POP POP POP POP JUMP JUMPDEST PUSH1 0x0 DUP1 DUP3 PUSH1 0x1 PUSH1 0x1 PUSH1 0xA0 SHL SUB AND DUP5 PUSH1 0x1 PUSH1 0x1 PUSH1 0xA0 SHL SUB AND EQ ISZERO PUSH2 0xDCB JUMPI PUSH1 0x40 MLOAD PUSH3 0x461BCD PUSH1 0xE5 SHL DUP2 MSTORE PUSH1 0x20 PUSH1 0x4 DUP3 ADD MSTORE PUSH1 0x25 PUSH1 0x24 DUP3 ADD MSTORE PUSH32 0x556E697377617056324C6962726172793A204944454E544943414C5F41444452 PUSH1 0x44 DUP3 ADD MSTORE PUSH5 0x4553534553 PUSH1 0xD8 SHL PUSH1 0x64 DUP3 ADD MSTORE PUSH1 0x84 ADD PUSH2 0x19D JUMP JUMPDEST DUP3 PUSH1 0x1 PUSH1 0x1 PUSH1 0xA0 SHL SUB AND DUP5 PUSH1 0x1 PUSH1 0x1 PUSH1 0xA0 SHL SUB AND LT PUSH2 0xDEB JUMPI DUP3 DUP5 PUSH2 0xDEE JUMP JUMPDEST DUP4 DUP4 JUMPDEST SWAP1 SWAP3 POP SWAP1 POP PUSH1 0x1 PUSH1 0x1 PUSH1 0xA0 SHL SUB DUP3 AND PUSH2 0xE49 JUMPI PUSH1 0x40 MLOAD PUSH3 0x461BCD PUSH1 0xE5 SHL DUP2 MSTORE PUSH1 0x20 PUSH1 0x4 DUP3 ADD MSTORE PUSH1 0x1E PUSH1 0x24 DUP3 ADD MSTORE PUSH32 0x556E697377617056324C6962726172793A205A45524F5F414444524553530000 PUSH1 0x44 DUP3 ADD MSTORE PUSH1 0x64 ADD PUSH2 0x19D JUMP JUMPDEST SWAP3 POP SWAP3 SWAP1 POP JUMP JUMPDEST PUSH1 0x0 DUP1 DUP5 GT PUSH2 0xEB6 JUMPI PUSH1 0x40 MLOAD PUSH3 0x461BCD PUSH1 0xE5 SHL DUP2 MSTORE PUSH1 0x20 PUSH1 0x4 DUP3 ADD MSTORE PUSH1 0x2C PUSH1 0x24 DUP3 ADD MSTORE PUSH32 0x556E697377617056324C6962726172793A20494E53554646494349454E545F4F PUSH1 0x44 DUP3 ADD MSTORE PUSH12 0x155514155517D05353D55395 PUSH1 0xA2 SHL PUSH1 0x64 DUP3 ADD MSTORE PUSH1 0x84 ADD PUSH2 0x19D JUMP JUMPDEST PUSH1 0x0 DUP4 GT DUP1 ISZERO PUSH2 0xEC6 JUMPI POP PUSH1 0x0 DUP3 GT JUMPDEST PUSH2 0xEE2 JUMPI PUSH1 0x40 MLOAD PUSH3 0x461BCD PUSH1 0xE5 SHL DUP2 MSTORE PUSH1 0x4 ADD PUSH2 0x19D SWAP1 PUSH2 0x117D JUMP JUMPDEST PUSH1 0x0 PUSH2 0xEEE DUP6 DUP6 PUSH2 0x122C JUMP JUMPDEST PUSH2 0xEFA SWAP1 PUSH2 0x3E8 PUSH2 0x122C JUMP JUMPDEST SWAP1 POP PUSH1 0x0 PUSH2 0xF08 DUP7 DUP6 PUSH2 0x124B JUMP JUMPDEST PUSH2 0xF14 SWAP1 PUSH2 0x3E5 PUSH2 0x122C JUMP JUMPDEST SWAP1 POP PUSH2 0xF20 DUP2 DUP4 PUSH2 0x120A JUMP JUMPDEST PUSH2 0xF2B SWAP1 PUSH1 0x1 PUSH2 0x11F2 JUMP JUMPDEST SWAP7 SWAP6 POP POP POP POP POP POP JUMP JUMPDEST DUP1 MLOAD PUSH1 0x1 PUSH1 0x1 PUSH1 0x70 SHL SUB DUP2 AND DUP2 EQ PUSH2 0xF4C JUMPI PUSH1 0x0 DUP1 REVERT JUMPDEST SWAP2 SWAP1 POP JUMP JUMPDEST PUSH1 0x0 PUSH1 0x20 DUP3 DUP5 SUB SLT ISZERO PUSH2 0xF63 JUMPI PUSH1 0x0 DUP1 REVERT JUMPDEST DUP2 MLOAD DUP1 ISZERO ISZERO DUP2 EQ PUSH2 0xF73 JUMPI PUSH1 0x0 DUP1 REVERT JUMPDEST SWAP4 SWAP3 POP POP POP JUMP JUMPDEST PUSH1 0x0 DUP1 PUSH1 0x0 PUSH1 0x60 DUP5 DUP7 SUB SLT ISZERO PUSH2 0xF8F JUMPI PUSH1 0x0 DUP1 REVERT JUMPDEST PUSH2 0xF98 DUP5 PUSH2 0xF35 JUMP JUMPDEST SWAP3 POP PUSH2 0xFA6 PUSH1 0x20 DUP6 ADD PUSH2 0xF35 JUMP JUMPDEST SWAP2 POP PUSH1 0x40 DUP5 ADD MLOAD PUSH4 0xFFFFFFFF DUP2 AND DUP2 EQ PUSH2 0xFBF JUMPI PUSH1 0x0 DUP1 REVERT JUMPDEST DUP1 SWAP2 POP POP SWAP3 POP SWAP3 POP SWAP3 JUMP JUMPDEST PUSH1 0x0 DUP1 PUSH1 0x0 DUP1 PUSH1 0x0 PUSH1 0xA0 DUP7 DUP9 SUB SLT ISZERO PUSH2 0xFE2 JUMPI PUSH1 0x0 DUP1 REVERT JUMPDEST DUP6 CALLDATALOAD SWAP5 POP PUSH1 0x20 DUP7 ADD CALLDATALOAD SWAP4 POP PUSH1 0x40 DUP7 ADD CALLDATALOAD PUSH1 0x1 PUSH1 0x1 PUSH1 0xA0 SHL SUB DUP2 AND DUP2 EQ PUSH2 0x1007 JUMPI PUSH1 0x0 DUP1 REVERT JUMPDEST SWAP3 POP PUSH1 0x60 DUP7 ADD CALLDATALOAD SWAP2 POP PUSH1 0x80 DUP7 ADD CALLDATALOAD PUSH8 0xFFFFFFFFFFFFFFFF DUP1 DUP3 GT ISZERO PUSH2 0x102B JUMPI PUSH1 0x0 DUP1 REVERT JUMPDEST DUP2 DUP9 ADD SWAP2 POP DUP9 PUSH1 0x1F DUP4 ADD SLT PUSH2 0x103F JUMPI PUSH1 0x0 DUP1 REVERT JUMPDEST DUP2 CALLDATALOAD DUP2 DUP2 GT ISZERO PUSH2 0x1051 JUMPI PUSH2 0x1051 PUSH2 0x12F0 JUMP JUMPDEST PUSH1 0x40 MLOAD PUSH1 0x1F DUP3 ADD PUSH1 0x1F NOT SWAP1 DUP2 AND PUSH1 0x3F ADD AND DUP2 ADD SWAP1 DUP4 DUP3 GT DUP2 DUP4 LT OR ISZERO PUSH2 0x1079 JUMPI PUSH2 0x1079 PUSH2 0x12F0 JUMP JUMPDEST DUP2 PUSH1 0x40 MSTORE DUP3 DUP2 MSTORE DUP12 PUSH1 0x20 DUP5 DUP8 ADD ADD GT ISZERO PUSH2 0x1092 JUMPI PUSH1 0x0 DUP1 REVERT JUMPDEST DUP3 PUSH1 0x20 DUP7 ADD PUSH1 0x20 DUP4 ADD CALLDATACOPY PUSH1 0x0 PUSH1 0x20 DUP5 DUP4 ADD ADD MSTORE DUP1 SWAP6 POP POP POP POP POP POP SWAP3 SWAP6 POP SWAP3 SWAP6 SWAP1 SWAP4 POP JUMP JUMPDEST PUSH1 0x0 DUP2 MLOAD DUP1 DUP5 MSTORE PUSH2 0x10CF DUP2 PUSH1 0x20 DUP7 ADD PUSH1 0x20 DUP7 ADD PUSH2 0x1262 JUMP JUMPDEST PUSH1 0x1F ADD PUSH1 0x1F NOT AND SWAP3 SWAP1 SWAP3 ADD PUSH1 0x20 ADD SWAP3 SWAP2 POP POP JUMP JUMPDEST PUSH1 0x0 DUP3 MLOAD PUSH2 0x10F5 DUP2 DUP5 PUSH1 0x20 DUP8 ADD PUSH2 0x1262 JUMP JUMPDEST SWAP2 SWAP1 SWAP2 ADD SWAP3 SWAP2 POP POP JUMP JUMPDEST PUSH1 0x1 PUSH1 0x1 PUSH1 0xA0 SHL SUB DUP7 DUP2 AND DUP3 MSTORE DUP6 AND PUSH1 0x20 DUP3 ADD MSTORE PUSH1 0x40 DUP2 ADD DUP5 SWAP1 MSTORE PUSH1 0x60 DUP2 ADD DUP4 SWAP1 MSTORE PUSH1 0xA0 PUSH1 0x80 DUP3 ADD DUP2 SWAP1 MSTORE PUSH1 0x0 SWAP1 PUSH2 0xD4D SWAP1 DUP4 ADD DUP5 PUSH2 0x10B7 JUMP JUMPDEST PUSH1 0x20 DUP1 DUP3 MSTORE DUP3 MLOAD DUP3 DUP3 ADD DUP2 SWAP1 MSTORE PUSH1 0x0 SWAP2 SWAP1 DUP5 DUP3 ADD SWAP1 PUSH1 0x40 DUP6 ADD SWAP1 DUP5 JUMPDEST DUP2 DUP2 LT ISZERO PUSH2 0x1171 JUMPI DUP4 MLOAD DUP4 MSTORE SWAP3 DUP5 ADD SWAP3 SWAP2 DUP5 ADD SWAP2 PUSH1 0x1 ADD PUSH2 0x1155 JUMP JUMPDEST POP SWAP1 SWAP7 SWAP6 POP POP POP POP POP POP JUMP JUMPDEST PUSH1 0x20 DUP1 DUP3 MSTORE PUSH1 0x28 SWAP1 DUP3 ADD MSTORE PUSH32 0x556E697377617056324C6962726172793A20494E53554646494349454E545F4C PUSH1 0x40 DUP3 ADD MSTORE PUSH8 0x4951554944495459 PUSH1 0xC0 SHL PUSH1 0x60 DUP3 ADD MSTORE PUSH1 0x80 ADD SWAP1 JUMP JUMPDEST DUP5 DUP2 MSTORE DUP4 PUSH1 0x20 DUP3 ADD MSTORE PUSH1 0x1 DUP1 PUSH1 0xA0 SHL SUB DUP4 AND PUSH1 0x40 DUP3 ADD MSTORE PUSH1 0x80 PUSH1 0x60 DUP3 ADD MSTORE PUSH1 0x0 PUSH2 0xF2B PUSH1 0x80 DUP4 ADD DUP5 PUSH2 0x10B7 JUMP JUMPDEST PUSH1 0x0 DUP3 NOT DUP3 GT ISZERO PUSH2 0x1205 JUMPI PUSH2 0x1205 PUSH2 0x12C4 JUMP JUMPDEST POP ADD SWAP1 JUMP JUMPDEST PUSH1 0x0 DUP3 PUSH2 0x1227 JUMPI PUSH4 0x4E487B71 PUSH1 0xE0 SHL PUSH1 0x0 MSTORE PUSH1 0x12 PUSH1 0x4 MSTORE PUSH1 0x24 PUSH1 0x0 REVERT JUMPDEST POP DIV SWAP1 JUMP JUMPDEST PUSH1 0x0 DUP2 PUSH1 0x0 NOT DIV DUP4 GT DUP3 ISZERO ISZERO AND ISZERO PUSH2 0x1246 JUMPI PUSH2 0x1246 PUSH2 0x12C4 JUMP JUMPDEST POP MUL SWAP1 JUMP JUMPDEST PUSH1 0x0 DUP3 DUP3 LT ISZERO PUSH2 0x125D JUMPI PUSH2 0x125D PUSH2 0x12C4 JUMP JUMPDEST POP SUB SWAP1 JUMP JUMPDEST PUSH1 0x0 JUMPDEST DUP4 DUP2 LT ISZERO PUSH2 0x127D JUMPI DUP2 DUP2 ADD MLOAD DUP4 DUP3 ADD MSTORE PUSH1 0x20 ADD PUSH2 0x1265 JUMP JUMPDEST DUP4 DUP2 GT ISZERO PUSH2 0x128C JUMPI PUSH1 0x0 DUP5 DUP5 ADD MSTORE JUMPDEST POP POP POP POP JUMP JUMPDEST PUSH1 0x0 DUP2 PUSH2 0x12A1 JUMPI PUSH2 0x12A1 PUSH2 0x12C4 JUMP JUMPDEST POP PUSH1 0x0 NOT ADD SWAP1 JUMP JUMPDEST PUSH1 0x0 PUSH1 0x0 NOT DUP3 EQ ISZERO PUSH2 0x12BD JUMPI PUSH2 0x12BD PUSH2 0x12C4 JUMP JUMPDEST POP PUSH1 0x1 ADD SWAP1 JUMP JUMPDEST PUSH4 0x4E487B71 PUSH1 0xE0 SHL PUSH1 0x0 MSTORE PUSH1 0x11 PUSH1 0x4 MSTORE PUSH1 0x24 PUSH1 0x0 REVERT JUMPDEST PUSH4 0x4E487B71 PUSH1 0xE0 SHL PUSH1 0x0 MSTORE PUSH1 0x32 PUSH1 0x4 MSTORE PUSH1 0x24 PUSH1 0x0 REVERT JUMPDEST PUSH4 0x4E487B71 PUSH1 0xE0 SHL PUSH1 0x0 MSTORE PUSH1 0x41 PUSH1 0x4 MSTORE PUSH1 0x24 PUSH1 0x0 REVERT INVALID LOG2 PUSH5 0x6970667358 0x22 SLT KECCAK256 PUSH6 0x63613BE47541 0xAF 0xAD EXTCODEHASH TIMESTAMP LOG2 0x25 0xED COINBASE PUSH28 0x326433B584BF7F768FF93C8F2B5D797864736F6C6343000807003300 "
        },
        "methodIdentifiers": {
          "pair()": "a8aa1b31",
          "swapExactTokensForTokens(uint256,uint256,address,uint256,bytes)": "480bfcaa",
          "swapTokensForExactTokens(uint256,uint256,address,uint256,bytes)": "c1552186",
          "token0()": "0dfe1681",
          "token1()": "d21220a7",
          "token2()": "25be124e"
        }
      }
    }
  }
}