{
  "_format": "hh-sol-artifact-1",
  "contractName": "ERC20MintablePauseable",
  "sourceName": "contracts/ERC20MintablePauseable.sol",
  "abi": [
    {
      "inputs": [
        {
          "internalType": "string",
          "name": "name",
          "type": "string"
        },
        {
          "internalType": "string",
          "name": "symbol",
          "type": "string"
        },
        {
          "internalType": "uint256",
          "name": "initialSupply",
          "type": "uint256"
        },
        {
          "internalType": "address",
          "name": "owner",
          "type": "address"
        }
      ],
      "stateMutability": "nonpayable",
      "type": "constructor"
    },
    {
      "inputs": [],
      "name": "InvalidShortString",
      "type": "error"
    },
    {
      "inputs": [
        {
          "internalType": "string",
          "name": "str",
          "type": "string"
        }
      ],
      "name": "StringTooLong",
      "type": "error"
    },
    {
      "anonymous": false,
      "inputs": [
        {
          "indexed": true,
          "internalType": "address",
          "name": "owner",
          "type": "address"
        },
        {
          "indexed": true,
          "internalType": "address",
          "name": "spender",
          "type": "address"
        },
        {
          "indexed": false,
          "internalType": "uint256",
          "name": "value",
          "type": "uint256"
        }
      ],
      "name": "Approval",
      "type": "event"
    },
    {
      "anonymous": false,
      "inputs": [],
      "name": "EIP712DomainChanged",
      "type": "event"
    },
    {
      "anonymous": false,
      "inputs": [
        {
          "indexed": false,
          "internalType": "address",
          "name": "account",
          "type": "address"
        }
      ],
      "name": "Paused",
      "type": "event"
    },
    {
      "anonymous": false,
      "inputs": [
        {
          "indexed": true,
          "internalType": "bytes32",
          "name": "role",
          "type": "bytes32"
        },
        {
          "indexed": true,
          "internalType": "bytes32",
          "name": "previousAdminRole",
          "type": "bytes32"
        },
        {
          "indexed": true,
          "internalType": "bytes32",
          "name": "newAdminRole",
          "type": "bytes32"
        }
      ],
      "name": "RoleAdminChanged",
      "type": "event"
    },
    {
      "anonymous": false,
      "inputs": [
        {
          "indexed": true,
          "internalType": "bytes32",
          "name": "role",
          "type": "bytes32"
        },
        {
          "indexed": true,
          "internalType": "address",
          "name": "account",
          "type": "address"
        },
        {
          "indexed": true,
          "internalType": "address",
          "name": "sender",
          "type": "address"
        }
      ],
      "name": "RoleGranted",
      "type": "event"
    },
    {
      "anonymous": false,
      "inputs": [
        {
          "indexed": true,
          "internalType": "bytes32",
          "name": "role",
          "type": "bytes32"
        },
        {
          "indexed": true,
          "internalType": "address",
          "name": "account",
          "type": "address"
        },
        {
          "indexed": true,
          "internalType": "address",
          "name": "sender",
          "type": "address"
        }
      ],
      "name": "RoleRevoked",
      "type": "event"
    },
    {
      "anonymous": false,
      "inputs": [
        {
          "indexed": true,
          "internalType": "address",
          "name": "from",
          "type": "address"
        },
        {
          "indexed": true,
          "internalType": "address",
          "name": "to",
          "type": "address"
        },
        {
          "indexed": false,
          "internalType": "uint256",
          "name": "value",
          "type": "uint256"
        }
      ],
      "name": "Transfer",
      "type": "event"
    },
    {
      "anonymous": false,
      "inputs": [
        {
          "indexed": false,
          "internalType": "address",
          "name": "account",
          "type": "address"
        }
      ],
      "name": "Unpaused",
      "type": "event"
    },
    {
      "inputs": [],
      "name": "DEFAULT_ADMIN_ROLE",
      "outputs": [
        {
          "internalType": "bytes32",
          "name": "",
          "type": "bytes32"
        }
      ],
      "stateMutability": "view",
      "type": "function"
    },
    {
      "inputs": [],
      "name": "MINTER_ROLE",
      "outputs": [
        {
          "internalType": "bytes32",
          "name": "",
          "type": "bytes32"
        }
      ],
      "stateMutability": "view",
      "type": "function"
    },
    {
      "inputs": [],
      "name": "PERMIT_TYPEHASH",
      "outputs": [
        {
          "internalType": "bytes32",
          "name": "",
          "type": "bytes32"
        }
      ],
      "stateMutability": "view",
      "type": "function"
    },
    {
      "inputs": [
        {
          "internalType": "address",
          "name": "owner",
          "type": "address"
        },
        {
          "internalType": "address",
          "name": "spender",
          "type": "address"
        }
      ],
      "name": "allowance",
      "outputs": [
        {
          "internalType": "uint256",
          "name": "",
          "type": "uint256"
        }
      ],
      "stateMutability": "view",
      "type": "function"
    },
    {
      "inputs": [
        {
          "internalType": "address",
          "name": "spender",
          "type": "address"
        },
        {
          "internalType": "uint256",
          "name": "amount",
          "type": "uint256"
        }
      ],
      "name": "approve",
      "outputs": [
        {
          "internalType": "bool",
          "name": "",
          "type": "bool"
        }
      ],
      "stateMutability": "nonpayable",
      "type": "function"
    },
    {
      "inputs": [
        {
          "internalType": "address",
          "name": "account",
          "type": "address"
        }
      ],
      "name": "balanceOf",
      "outputs": [
        {
          "internalType": "uint256",
          "name": "",
          "type": "uint256"
        }
      ],
      "stateMutability": "view",
      "type": "function"
    },
    {
      "inputs": [
        {
          "internalType": "uint256",
          "name": "amount",
          "type": "uint256"
        }
      ],
      "name": "burn",
      "outputs": [],
      "stateMutability": "nonpayable",
      "type": "function"
    },
    {
      "inputs": [
        {
          "internalType": "address",
          "name": "account",
          "type": "address"
        },
        {
          "internalType": "uint256",
          "name": "amount",
          "type": "uint256"
        }
      ],
      "name": "burnFrom",
      "outputs": [],
      "stateMutability": "nonpayable",
      "type": "function"
    },
    {
      "inputs": [],
      "name": "decimals",
      "outputs": [
        {
          "internalType": "uint8",
          "name": "",
          "type": "uint8"
        }
      ],
      "stateMutability": "view",
      "type": "function"
    },
    {
      "inputs": [
        {
          "internalType": "address",
          "name": "spender",
          "type": "address"
        },
        {
          "internalType": "uint256",
          "name": "subtractedValue",
          "type": "uint256"
        }
      ],
      "name": "decreaseAllowance",
      "outputs": [
        {
          "internalType": "bool",
          "name": "",
          "type": "bool"
        }
      ],
      "stateMutability": "nonpayable",
      "type": "function"
    },
    {
      "inputs": [],
      "name": "eip712Domain",
      "outputs": [
        {
          "internalType": "bytes1",
          "name": "fields",
          "type": "bytes1"
        },
        {
          "internalType": "string",
          "name": "name",
          "type": "string"
        },
        {
          "internalType": "string",
          "name": "version",
          "type": "string"
        },
        {
          "internalType": "uint256",
          "name": "chainId",
          "type": "uint256"
        },
        {
          "internalType": "address",
          "name": "verifyingContract",
          "type": "address"
        },
        {
          "internalType": "bytes32",
          "name": "salt",
          "type": "bytes32"
        },
        {
          "internalType": "uint256[]",
          "name": "extensions",
          "type": "uint256[]"
        }
      ],
      "stateMutability": "view",
      "type": "function"
    },
    {
      "inputs": [
        {
          "internalType": "address",
          "name": "account",
          "type": "address"
        }
      ],
      "name": "getBlackList",
      "outputs": [
        {
          "internalType": "bool",
          "name": "",
          "type": "bool"
        }
      ],
      "stateMutability": "view",
      "type": "function"
    },
    {
      "inputs": [
        {
          "internalType": "bytes32",
          "name": "role",
          "type": "bytes32"
        }
      ],
      "name": "getRoleAdmin",
      "outputs": [
        {
          "internalType": "bytes32",
          "name": "",
          "type": "bytes32"
        }
      ],
      "stateMutability": "view",
      "type": "function"
    },
    {
      "inputs": [
        {
          "internalType": "bytes32",
          "name": "role",
          "type": "bytes32"
        },
        {
          "internalType": "uint256",
          "name": "index",
          "type": "uint256"
        }
      ],
      "name": "getRoleMember",
      "outputs": [
        {
          "internalType": "address",
          "name": "",
          "type": "address"
        }
      ],
      "stateMutability": "view",
      "type": "function"
    },
    {
      "inputs": [
        {
          "internalType": "bytes32",
          "name": "role",
          "type": "bytes32"
        }
      ],
      "name": "getRoleMemberCount",
      "outputs": [
        {
          "internalType": "uint256",
          "name": "",
          "type": "uint256"
        }
      ],
      "stateMutability": "view",
      "type": "function"
    },
    {
      "inputs": [
        {
          "internalType": "bytes32",
          "name": "role",
          "type": "bytes32"
        },
        {
          "internalType": "address",
          "name": "account",
          "type": "address"
        }
      ],
      "name": "grantRole",
      "outputs": [],
      "stateMutability": "nonpayable",
      "type": "function"
    },
    {
      "inputs": [
        {
          "internalType": "bytes32",
          "name": "role",
          "type": "bytes32"
        },
        {
          "internalType": "address",
          "name": "account",
          "type": "address"
        }
      ],
      "name": "hasRole",
      "outputs": [
        {
          "internalType": "bool",
          "name": "",
          "type": "bool"
        }
      ],
      "stateMutability": "view",
      "type": "function"
    },
    {
      "inputs": [
        {
          "internalType": "address",
          "name": "spender",
          "type": "address"
        },
        {
          "internalType": "uint256",
          "name": "addedValue",
          "type": "uint256"
        }
      ],
      "name": "increaseAllowance",
      "outputs": [
        {
          "internalType": "bool",
          "name": "",
          "type": "bool"
        }
      ],
      "stateMutability": "nonpayable",
      "type": "function"
    },
    {
      "inputs": [
        {
          "internalType": "address",
          "name": "to",
          "type": "address"
        },
        {
          "internalType": "uint256",
          "name": "amount",
          "type": "uint256"
        }
      ],
      "name": "mint",
      "outputs": [],
      "stateMutability": "nonpayable",
      "type": "function"
    },
    {
      "inputs": [],
      "name": "name",
      "outputs": [
        {
          "internalType": "string",
          "name": "",
          "type": "string"
        }
      ],
      "stateMutability": "view",
      "type": "function"
    },
    {
      "inputs": [
        {
          "internalType": "address",
          "name": "",
          "type": "address"
        }
      ],
      "name": "nonces",
      "outputs": [
        {
          "internalType": "uint256",
          "name": "",
          "type": "uint256"
        }
      ],
      "stateMutability": "view",
      "type": "function"
    },
    {
      "inputs": [],
      "name": "pause",
      "outputs": [],
      "stateMutability": "nonpayable",
      "type": "function"
    },
    {
      "inputs": [],
      "name": "paused",
      "outputs": [
        {
          "internalType": "bool",
          "name": "",
          "type": "bool"
        }
      ],
      "stateMutability": "view",
      "type": "function"
    },
    {
      "inputs": [
        {
          "internalType": "address",
          "name": "owner",
          "type": "address"
        },
        {
          "internalType": "address",
          "name": "spender",
          "type": "address"
        },
        {
          "internalType": "uint256",
          "name": "value",
          "type": "uint256"
        },
        {
          "internalType": "uint256",
          "name": "deadline",
          "type": "uint256"
        },
        {
          "internalType": "bytes",
          "name": "signature",
          "type": "bytes"
        }
      ],
      "name": "permit",
      "outputs": [],
      "stateMutability": "nonpayable",
      "type": "function"
    },
    {
      "inputs": [
        {
          "internalType": "bytes32",
          "name": "role",
          "type": "bytes32"
        },
        {
          "internalType": "address",
          "name": "account",
          "type": "address"
        }
      ],
      "name": "renounceRole",
      "outputs": [],
      "stateMutability": "nonpayable",
      "type": "function"
    },
    {
      "inputs": [
        {
          "internalType": "bytes32",
          "name": "role",
          "type": "bytes32"
        },
        {
          "internalType": "address",
          "name": "account",
          "type": "address"
        }
      ],
      "name": "revokeRole",
      "outputs": [],
      "stateMutability": "nonpayable",
      "type": "function"
    },
    {
      "inputs": [
        {
          "internalType": "address",
          "name": "account",
          "type": "address"
        }
      ],
      "name": "setBlackList",
      "outputs": [],
      "stateMutability": "nonpayable",
      "type": "function"
    },
    {
      "inputs": [
        {
          "internalType": "bytes4",
          "name": "interfaceId",
          "type": "bytes4"
        }
      ],
      "name": "supportsInterface",
      "outputs": [
        {
          "internalType": "bool",
          "name": "",
          "type": "bool"
        }
      ],
      "stateMutability": "view",
      "type": "function"
    },
    {
      "inputs": [],
      "name": "symbol",
      "outputs": [
        {
          "internalType": "string",
          "name": "",
          "type": "string"
        }
      ],
      "stateMutability": "view",
      "type": "function"
    },
    {
      "inputs": [],
      "name": "totalSupply",
      "outputs": [
        {
          "internalType": "uint256",
          "name": "",
          "type": "uint256"
        }
      ],
      "stateMutability": "view",
      "type": "function"
    },
    {
      "inputs": [
        {
          "internalType": "address",
          "name": "to",
          "type": "address"
        },
        {
          "internalType": "uint256",
          "name": "amount",
          "type": "uint256"
        }
      ],
      "name": "transfer",
      "outputs": [
        {
          "internalType": "bool",
          "name": "",
          "type": "bool"
        }
      ],
      "stateMutability": "nonpayable",
      "type": "function"
    },
    {
      "inputs": [
        {
          "internalType": "address",
          "name": "from",
          "type": "address"
        },
        {
          "internalType": "address",
          "name": "to",
          "type": "address"
        },
        {
          "internalType": "uint256",
          "name": "amount",
          "type": "uint256"
        }
      ],
      "name": "transferFrom",
      "outputs": [
        {
          "internalType": "bool",
          "name": "",
          "type": "bool"
        }
      ],
      "stateMutability": "nonpayable",
      "type": "function"
    },
    {
      "inputs": [],
      "name": "unpause",
      "outputs": [],
      "stateMutability": "nonpayable",
      "type": "function"
    }
  ],
  "bytecode": "0x6101606040523480156200001257600080fd5b5060405162002a8638038062002a868339810160408190526200003591620005e9565b83836040518060400160405280600b81526020016a2832b936b4ba2a37b5b2b760a91b815250604051806040016040528060038152602001620312e360ec1b8152506200008d600083620001ae60201b90919060201c565b610120526200009e816001620001ae565b61014052815160208084019190912060e052815190820120610100524660a0526200012c60e05161010051604080517f8b73c3c69bb8fe3d512ecc4cf759cc79239f7b179b0ffacaa9a75d522b39400f60208201529081019290925260608201524660808201523060a082015260009060c00160405160208183030381529060405280519060200120905090565b60805250503060c05260056200014383826200070c565b5060066200015282826200070c565b50506007805460ff19169055506200016c600033620001e7565b620001987f9f2df0fed2c77648de5860a4cc508cd0818c85b8b8a1ab4ceeef8d981c8956a633620001e7565b620001a48183620001f7565b5050505062000854565b6000602083511015620001ce57620001c683620002ce565b9050620001e1565b81620001db84826200070c565b5060ff90505b92915050565b620001f3828262000311565b5050565b6001600160a01b038216620002535760405162461bcd60e51b815260206004820152601f60248201527f45524332303a206d696e7420746f20746865207a65726f20616464726573730060448201526064015b60405180910390fd5b62000261600083836200033c565b8060046000828254620002759190620007d8565b90915550506001600160a01b0382166000818152600260209081526040808320805486019055518481527fddf252ad1be2c89b69c2b068fc378daa952ba7f163c4a11628f55a4df523b3ef910160405180910390a35050565b600080829050601f81511115620002fc578260405163305a27a960e01b81526004016200024a9190620007fa565b805162000309826200082f565b179392505050565b6200031d8282620003a0565b600082815260096020526040902062000337908262000444565b505050565b6001600160a01b0383166000908152600a602052604090205460ff1615620003935760405162461bcd60e51b81526020600482015260096024820152683337b93134b23232b760b91b60448201526064016200024a565b6200033783838362000462565b60008281526008602090815260408083206001600160a01b038516845290915290205460ff16620001f35760008281526008602090815260408083206001600160a01b03851684529091529020805460ff19166001179055620004003390565b6001600160a01b0316816001600160a01b0316837f2f8788117e7eff1d82e926ec794901d17c78024a50270940304540a733656f0d60405160405180910390a45050565b60006200045b836001600160a01b038416620004ca565b9392505050565b60075460ff1615620003375760405162461bcd60e51b815260206004820152602a60248201527f45524332305061757361626c653a20746f6b656e207472616e736665722077686044820152691a5b19481c185d5cd95960b21b60648201526084016200024a565b60008181526001830160205260408120546200051357508154600181810184556000848152602080822090930184905584548482528286019093526040902091909155620001e1565b506000620001e1565b634e487b7160e01b600052604160045260246000fd5b60005b838110156200054f57818101518382015260200162000535565b50506000910152565b600082601f8301126200056a57600080fd5b81516001600160401b03808211156200058757620005876200051c565b604051601f8301601f19908116603f01168101908282118183101715620005b257620005b26200051c565b81604052838152866020858801011115620005cc57600080fd5b620005df84602083016020890162000532565b9695505050505050565b600080600080608085870312156200060057600080fd5b84516001600160401b03808211156200061857600080fd5b620006268883890162000558565b955060208701519150808211156200063d57600080fd5b506200064c8782880162000558565b60408701516060880151919550935090506001600160a01b03811681146200067357600080fd5b939692955090935050565b600181811c908216806200069357607f821691505b602082108103620006b457634e487b7160e01b600052602260045260246000fd5b50919050565b601f8211156200033757600081815260208120601f850160051c81016020861015620006e35750805b601f850160051c820191505b818110156200070457828155600101620006ef565b505050505050565b81516001600160401b038111156200072857620007286200051c565b62000740816200073984546200067e565b84620006ba565b602080601f8311600181146200077857600084156200075f5750858301515b600019600386901b1c1916600185901b17855562000704565b600085815260208120601f198616915b82811015620007a95788860151825594840194600190910190840162000788565b5085821015620007c85787850151600019600388901b60f8161c191681555b5050505050600190811b01905550565b80820180821115620001e157634e487b7160e01b600052601160045260246000fd5b60208152600082518060208401526200081b81604085016020870162000532565b601f01601f19169190910160400192915050565b80516020808301519190811015620006b45760001960209190910360031b1b16919050565b60805160a05160c05160e0516101005161012051610140516121d7620008af600039600061088a015260006108600152600061169b01526000611673015260006115ce015260006115f80152600061162201526121d76000f3fe608060405234801561001057600080fd5b50600436106101fb5760003560e01c806370a082311161011a57806395d89b41116100ad578063a9059cbb1161007c578063a9059cbb1461045b578063ca15c8731461046e578063d539139314610481578063d547741f146104a8578063dd62ed3e146104bb57600080fd5b806395d89b41146104255780639fd5a6cf1461042d578063a217fddf14610440578063a457c2d71461044857600080fd5b80638456cb59116100e95780638456cb59146103c457806384b0196e146103cc5780639010d07c146103e757806391d148541461041257600080fd5b806370a0823114610355578063727002411461037e57806379cc6790146103915780637ecebe00146103a457600080fd5b8063313ce567116101925780633fbdc67d116101615780633fbdc67d1461031157806340c10f191461032457806342966c68146103375780635c975abb1461034a57600080fd5b8063313ce567146102d457806336568abe146102e357806339509351146102f65780633f4ba83a1461030957600080fd5b806323b872dd116101ce57806323b872dd14610262578063248a9ca3146102755780632f2ff15d1461029857806330adf81f146102ad57600080fd5b806301ffc9a71461020057806306fdde0314610228578063095ea7b31461023d57806318160ddd14610250575b600080fd5b61021361020e366004611cc2565b6104ce565b60405190151581526020015b60405180910390f35b6102306104f9565b60405161021f9190611d3c565b61021361024b366004611d66565b61058b565b6004545b60405190815260200161021f565b610213610270366004611d90565b6105a3565b610254610283366004611dcc565b60009081526008602052604090206001015490565b6102ab6102a6366004611de5565b6105c7565b005b6102547f6e71edae12b1b97f4d1f60370fef10105fa2faae0126114a169c64845d6126c981565b6040516012815260200161021f565b6102ab6102f1366004611de5565b6105f1565b610213610304366004611d66565b610674565b6102ab610696565b61021361031f366004611e11565b6106c7565b6102ab610332366004611d66565b610712565b6102ab610345366004611dcc565b6107b1565b60075460ff16610213565b610254610363366004611e11565b6001600160a01b031660009081526002602052604090205490565b6102ab61038c366004611e11565b6107be565b6102ab61039f366004611d66565b61080e565b6102546103b2366004611e11565b600b6020526000908152604090205481565b6102ab610823565b6103d4610852565b60405161021f9796959493929190611e2c565b6103fa6103f5366004611ec2565b6108da565b6040516001600160a01b03909116815260200161021f565b610213610420366004611de5565b6108f9565b610230610924565b6102ab61043b366004611efa565b610933565b610254600081565b610213610456366004611d66565b610aa0565b610213610469366004611d66565b610b1b565b61025461047c366004611dcc565b610b29565b6102547f9f2df0fed2c77648de5860a4cc508cd0818c85b8b8a1ab4ceeef8d981c8956a681565b6102ab6104b6366004611de5565b610b40565b6102546104c9366004611fe0565b610b65565b60006001600160e01b03198216635a05180f60e01b14806104f357506104f382610b90565b92915050565b6060600580546105089061200a565b80601f01602080910402602001604051908101604052809291908181526020018280546105349061200a565b80156105815780601f1061055657610100808354040283529160200191610581565b820191906000526020600020905b81548152906001019060200180831161056457829003601f168201915b5050505050905090565b600033610599818585610bc5565b5060019392505050565b6000336105b1858285610ce9565b6105bc858585610d63565b506001949350505050565b6000828152600860205260409020600101546105e281610f19565b6105ec8383610f23565b505050565b6001600160a01b03811633146106665760405162461bcd60e51b815260206004820152602f60248201527f416363657373436f6e74726f6c3a2063616e206f6e6c792072656e6f756e636560448201526e103937b632b9903337b91039b2b63360891b60648201526084015b60405180910390fd5b6106708282610f45565b5050565b6000336105998185856106878383610b65565b610691919061205a565b610bc5565b6106a16000336108f9565b6106bd5760405162461bcd60e51b815260040161065d9061206d565b6106c5610f67565b565b60006106d381336108f9565b6106ef5760405162461bcd60e51b815260040161065d9061206d565b506001600160a01b0381166000908152600a602052604090205460ff165b919050565b61073c7f9f2df0fed2c77648de5860a4cc508cd0818c85b8b8a1ab4ceeef8d981c8956a6336108f9565b6107a75760405162461bcd60e51b815260206004820152603660248201527f45524332305072657365744d696e7465725061757365723a206d7573742068616044820152751d99481b5a5b9d195c881c9bdb19481d1bc81b5a5b9d60521b606482015260840161065d565b6106708282610fb9565b6107bb3382611086565b50565b6107c96000336108f9565b6107e55760405162461bcd60e51b815260040161065d9061206d565b6001600160a01b03166000908152600a60205260409020805460ff19811660ff90911615179055565b610819823383610ce9565b6106708282611086565b61082e6000336108f9565b61084a5760405162461bcd60e51b815260040161065d9061206d565b6106c56111c6565b6000606080828080836108857f000000000000000000000000000000000000000000000000000000000000000083611203565b6108b07f00000000000000000000000000000000000000000000000000000000000000006001611203565b60408051600080825260208201909252600f60f81b9b939a50919850469750309650945092509050565b60008281526009602052604081206108f290836112ae565b9392505050565b60009182526008602090815260408084206001600160a01b0393909316845291905290205460ff1690565b6060600680546105089061200a565b4282101561096e5760405162461bcd60e51b8152602060048201526008602482015267657870697265642160c01b604482015260640161065d565b6001600160a01b0385166000908152600b6020526040812080547f6e71edae12b1b97f4d1f60370fef10105fa2faae0126114a169c64845d6126c99188918891889190866109bb83612090565b909155506040805160208101969096526001600160a01b0394851690860152929091166060840152608083015260a082015260c0810184905260e0016040516020818303038152906040528051906020012090506000610a1a826112ba565b90506000610a2882856112e7565b9050806001600160a01b0316886001600160a01b031614610a8b5760405162461bcd60e51b815260206004820152601960248201527f5065726d69743a20696e76616c6964207369676e617475726500000000000000604482015260640161065d565b610a96888888610bc5565b5050505050505050565b60003381610aae8286610b65565b905083811015610b0e5760405162461bcd60e51b815260206004820152602560248201527f45524332303a2064656372656173656420616c6c6f77616e63652062656c6f77604482015264207a65726f60d81b606482015260840161065d565b6105bc8286868403610bc5565b600033610599818585610d63565b60008181526009602052604081206104f39061130b565b600082815260086020526040902060010154610b5b81610f19565b6105ec8383610f45565b6001600160a01b03918216600090815260036020908152604080832093909416825291909152205490565b60006001600160e01b03198216637965db0b60e01b14806104f357506301ffc9a760e01b6001600160e01b03198316146104f3565b6001600160a01b038316610c275760405162461bcd60e51b8152602060048201526024808201527f45524332303a20617070726f76652066726f6d20746865207a65726f206164646044820152637265737360e01b606482015260840161065d565b6001600160a01b038216610c885760405162461bcd60e51b815260206004820152602260248201527f45524332303a20617070726f766520746f20746865207a65726f206164647265604482015261737360f01b606482015260840161065d565b6001600160a01b0383811660008181526003602090815260408083209487168084529482529182902085905590518481527f8c5be1e5ebec7d5bd14f71427d1e84f3dd0314c0f7b2291e5b200ac8c7c3b925910160405180910390a3505050565b6000610cf58484610b65565b90506000198114610d5d5781811015610d505760405162461bcd60e51b815260206004820152601d60248201527f45524332303a20696e73756666696369656e7420616c6c6f77616e6365000000604482015260640161065d565b610d5d8484848403610bc5565b50505050565b6001600160a01b038316610dc75760405162461bcd60e51b815260206004820152602560248201527f45524332303a207472616e736665722066726f6d20746865207a65726f206164604482015264647265737360d81b606482015260840161065d565b6001600160a01b038216610e295760405162461bcd60e51b815260206004820152602360248201527f45524332303a207472616e7366657220746f20746865207a65726f206164647260448201526265737360e81b606482015260840161065d565b610e34838383611315565b6001600160a01b03831660009081526002602052604090205481811015610eac5760405162461bcd60e51b815260206004820152602660248201527f45524332303a207472616e7366657220616d6f756e7420657863656564732062604482015265616c616e636560d01b606482015260840161065d565b6001600160a01b0380851660008181526002602052604080822086860390559286168082529083902080548601905591517fddf252ad1be2c89b69c2b068fc378daa952ba7f163c4a11628f55a4df523b3ef90610f0c9086815260200190565b60405180910390a3610d5d565b6107bb8133611359565b610f2d82826113b2565b60008281526009602052604090206105ec9082611438565b610f4f828261144d565b60008281526009602052604090206105ec90826114b4565b610f6f6114c9565b6007805460ff191690557f5db9ee0a495bf2e6ff9c91a7834c1ba4fdd244a5e8aa4e537bd38aeae4b073aa335b6040516001600160a01b03909116815260200160405180910390a1565b6001600160a01b03821661100f5760405162461bcd60e51b815260206004820152601f60248201527f45524332303a206d696e7420746f20746865207a65726f206164647265737300604482015260640161065d565b61101b60008383611315565b806004600082825461102d919061205a565b90915550506001600160a01b0382166000818152600260209081526040808320805486019055518481527fddf252ad1be2c89b69c2b068fc378daa952ba7f163c4a11628f55a4df523b3ef910160405180910390a35050565b6001600160a01b0382166110e65760405162461bcd60e51b815260206004820152602160248201527f45524332303a206275726e2066726f6d20746865207a65726f206164647265736044820152607360f81b606482015260840161065d565b6110f282600083611315565b6001600160a01b038216600090815260026020526040902054818110156111665760405162461bcd60e51b815260206004820152602260248201527f45524332303a206275726e20616d6f756e7420657863656564732062616c616e604482015261636560f01b606482015260840161065d565b6001600160a01b03831660008181526002602090815260408083208686039055600480548790039055518581529192917fddf252ad1be2c89b69c2b068fc378daa952ba7f163c4a11628f55a4df523b3ef910160405180910390a3505050565b6111ce611512565b6007805460ff191660011790557f62e78cea01bee320cd4e420270b5ea74000d11b0c9f74754ebdbfc544b05a258610f9c3390565b606060ff831461121d5761121683611558565b90506104f3565b8180546112299061200a565b80601f01602080910402602001604051908101604052809291908181526020018280546112559061200a565b80156112a25780601f10611277576101008083540402835291602001916112a2565b820191906000526020600020905b81548152906001019060200180831161128557829003601f168201915b505050505090506104f3565b60006108f28383611597565b60006104f36112c76115c1565b8360405161190160f01b8152600281019290925260228201526042902090565b60008060006112f685856116f1565b9150915061130381611736565b509392505050565b60006104f3825490565b6001600160a01b0383166000908152600a602052604090205460ff161561134e5760405162461bcd60e51b815260040161065d9061206d565b6105ec838383611880565b61136382826108f9565b61067057611370816118e6565b61137b8360206118f8565b60405160200161138c9291906120a9565b60408051601f198184030181529082905262461bcd60e51b825261065d91600401611d3c565b6113bc82826108f9565b6106705760008281526008602090815260408083206001600160a01b03851684529091529020805460ff191660011790556113f43390565b6001600160a01b0316816001600160a01b0316837f2f8788117e7eff1d82e926ec794901d17c78024a50270940304540a733656f0d60405160405180910390a45050565b60006108f2836001600160a01b038416611a94565b61145782826108f9565b156106705760008281526008602090815260408083206001600160a01b0385168085529252808320805460ff1916905551339285917ff6391f5c32d9c69d2a47ea670b442974b53935d1edc7fd64eb21e047a839171b9190a45050565b60006108f2836001600160a01b038416611ae3565b60075460ff166106c55760405162461bcd60e51b815260206004820152601460248201527314185d5cd8589b194e881b9bdd081c185d5cd95960621b604482015260640161065d565b60075460ff16156106c55760405162461bcd60e51b815260206004820152601060248201526f14185d5cd8589b194e881c185d5cd95960821b604482015260640161065d565b6060600061156583611bd6565b604080516020808252818301909252919250600091906020820181803683375050509182525060208101929092525090565b60008260000182815481106115ae576115ae61211e565b9060005260206000200154905092915050565b6000306001600160a01b037f00000000000000000000000000000000000000000000000000000000000000001614801561161a57507f000000000000000000000000000000000000000000000000000000000000000046145b1561164457507f000000000000000000000000000000000000000000000000000000000000000090565b6116ec604080517f8b73c3c69bb8fe3d512ecc4cf759cc79239f7b179b0ffacaa9a75d522b39400f60208201527f0000000000000000000000000000000000000000000000000000000000000000918101919091527f000000000000000000000000000000000000000000000000000000000000000060608201524660808201523060a082015260009060c00160405160208183030381529060405280519060200120905090565b905090565b60008082516041036117275760208301516040840151606085015160001a61171b87828585611bfe565b9450945050505061172f565b506000905060025b9250929050565b600081600481111561174a5761174a612134565b036117525750565b600181600481111561176657611766612134565b036117b35760405162461bcd60e51b815260206004820152601860248201527f45434453413a20696e76616c6964207369676e61747572650000000000000000604482015260640161065d565b60028160048111156117c7576117c7612134565b036118145760405162461bcd60e51b815260206004820152601f60248201527f45434453413a20696e76616c6964207369676e6174757265206c656e67746800604482015260640161065d565b600381600481111561182857611828612134565b036107bb5760405162461bcd60e51b815260206004820152602260248201527f45434453413a20696e76616c6964207369676e6174757265202773272076616c604482015261756560f01b606482015260840161065d565b60075460ff16156105ec5760405162461bcd60e51b815260206004820152602a60248201527f45524332305061757361626c653a20746f6b656e207472616e736665722077686044820152691a5b19481c185d5cd95960b21b606482015260840161065d565b60606104f36001600160a01b03831660145b6060600061190783600261214a565b61191290600261205a565b67ffffffffffffffff81111561192a5761192a611ee4565b6040519080825280601f01601f191660200182016040528015611954576020820181803683370190505b509050600360fc1b8160008151811061196f5761196f61211e565b60200101906001600160f81b031916908160001a905350600f60fb1b8160018151811061199e5761199e61211e565b60200101906001600160f81b031916908160001a90535060006119c284600261214a565b6119cd90600161205a565b90505b6001811115611a45576f181899199a1a9b1b9c1cb0b131b232b360811b85600f1660108110611a0157611a0161211e565b1a60f81b828281518110611a1757611a1761211e565b60200101906001600160f81b031916908160001a90535060049490941c93611a3e81612161565b90506119d0565b5083156108f25760405162461bcd60e51b815260206004820181905260248201527f537472696e67733a20686578206c656e67746820696e73756666696369656e74604482015260640161065d565b6000818152600183016020526040812054611adb575081546001818101845560008481526020808220909301849055845484825282860190935260409020919091556104f3565b5060006104f3565b60008181526001830160205260408120548015611bcc576000611b07600183612178565b8554909150600090611b1b90600190612178565b9050818114611b80576000866000018281548110611b3b57611b3b61211e565b9060005260206000200154905080876000018481548110611b5e57611b5e61211e565b6000918252602080832090910192909255918252600188019052604090208390555b8554869080611b9157611b9161218b565b6001900381819060005260206000200160009055905585600101600086815260200190815260200160002060009055600193505050506104f3565b60009150506104f3565b600060ff8216601f8111156104f357604051632cd44ac360e21b815260040160405180910390fd5b6000807f7fffffffffffffffffffffffffffffff5d576e7357a4501ddfe92f46681b20a0831115611c355750600090506003611cb9565b6040805160008082526020820180845289905260ff881692820192909252606081018690526080810185905260019060a0016020604051602081039080840390855afa158015611c89573d6000803e3d6000fd5b5050604051601f1901519150506001600160a01b038116611cb257600060019250925050611cb9565b9150600090505b94509492505050565b600060208284031215611cd457600080fd5b81356001600160e01b0319811681146108f257600080fd5b60005b83811015611d07578181015183820152602001611cef565b50506000910152565b60008151808452611d28816020860160208601611cec565b601f01601f19169290920160200192915050565b6020815260006108f26020830184611d10565b80356001600160a01b038116811461070d57600080fd5b60008060408385031215611d7957600080fd5b611d8283611d4f565b946020939093013593505050565b600080600060608486031215611da557600080fd5b611dae84611d4f565b9250611dbc60208501611d4f565b9150604084013590509250925092565b600060208284031215611dde57600080fd5b5035919050565b60008060408385031215611df857600080fd5b82359150611e0860208401611d4f565b90509250929050565b600060208284031215611e2357600080fd5b6108f282611d4f565b60ff60f81b881681526000602060e081840152611e4c60e084018a611d10565b8381036040850152611e5e818a611d10565b606085018990526001600160a01b038816608086015260a0850187905284810360c0860152855180825283870192509083019060005b81811015611eb057835183529284019291840191600101611e94565b50909c9b505050505050505050505050565b60008060408385031215611ed557600080fd5b50508035926020909101359150565b634e487b7160e01b600052604160045260246000fd5b600080600080600060a08688031215611f1257600080fd5b611f1b86611d4f565b9450611f2960208701611d4f565b93506040860135925060608601359150608086013567ffffffffffffffff80821115611f5457600080fd5b818801915088601f830112611f6857600080fd5b813581811115611f7a57611f7a611ee4565b604051601f8201601f19908116603f01168101908382118183101715611fa257611fa2611ee4565b816040528281528b6020848701011115611fbb57600080fd5b8260208601602083013760006020848301015280955050505050509295509295909350565b60008060408385031215611ff357600080fd5b611ffc83611d4f565b9150611e0860208401611d4f565b600181811c9082168061201e57607f821691505b60208210810361203e57634e487b7160e01b600052602260045260246000fd5b50919050565b634e487b7160e01b600052601160045260246000fd5b808201808211156104f3576104f3612044565b6020808252600990820152683337b93134b23232b760b91b604082015260600190565b6000600182016120a2576120a2612044565b5060010190565b7f416363657373436f6e74726f6c3a206163636f756e74200000000000000000008152600083516120e1816017850160208801611cec565b7001034b99036b4b9b9b4b733903937b6329607d1b6017918401918201528351612112816028840160208801611cec565b01602801949350505050565b634e487b7160e01b600052603260045260246000fd5b634e487b7160e01b600052602160045260246000fd5b80820281158282048414176104f3576104f3612044565b60008161217057612170612044565b506000190190565b818103818111156104f3576104f3612044565b634e487b7160e01b600052603160045260246000fdfea2646970667358221220af578916a8ecb78b9678e80be000ce675875b516ef4efa04d17c2d49f6820e8364736f6c63430008130033",
  "linkReferences": {},
  "deployedLinkReferences": {}
}