{
  "_format": "hh-sol-artifact-1",
  "contractName": "ERC20MintablePauseable",
  "sourceName": "contracts/ERC20MintablePauseable.sol",
  "abi": [
    {
      "inputs": [
        {
          "internalType": "string",
          "name": "name",
          "type": "string"
        },
        {
          "internalType": "string",
          "name": "symbol",
          "type": "string"
        },
        {
          "internalType": "uint256",
          "name": "initialSupply",
          "type": "uint256"
        },
        {
          "internalType": "address",
          "name": "owner",
          "type": "address"
        }
      ],
      "stateMutability": "nonpayable",
      "type": "constructor"
    },
    {
      "anonymous": false,
      "inputs": [
        {
          "indexed": true,
          "internalType": "address",
          "name": "owner",
          "type": "address"
        },
        {
          "indexed": true,
          "internalType": "address",
          "name": "spender",
          "type": "address"
        },
        {
          "indexed": false,
          "internalType": "uint256",
          "name": "value",
          "type": "uint256"
        }
      ],
      "name": "Approval",
      "type": "event"
    },
    {
      "anonymous": false,
      "inputs": [
        {
          "indexed": false,
          "internalType": "address",
          "name": "account",
          "type": "address"
        }
      ],
      "name": "Paused",
      "type": "event"
    },
    {
      "anonymous": false,
      "inputs": [
        {
          "indexed": true,
          "internalType": "bytes32",
          "name": "role",
          "type": "bytes32"
        },
        {
          "indexed": true,
          "internalType": "bytes32",
          "name": "previousAdminRole",
          "type": "bytes32"
        },
        {
          "indexed": true,
          "internalType": "bytes32",
          "name": "newAdminRole",
          "type": "bytes32"
        }
      ],
      "name": "RoleAdminChanged",
      "type": "event"
    },
    {
      "anonymous": false,
      "inputs": [
        {
          "indexed": true,
          "internalType": "bytes32",
          "name": "role",
          "type": "bytes32"
        },
        {
          "indexed": true,
          "internalType": "address",
          "name": "account",
          "type": "address"
        },
        {
          "indexed": true,
          "internalType": "address",
          "name": "sender",
          "type": "address"
        }
      ],
      "name": "RoleGranted",
      "type": "event"
    },
    {
      "anonymous": false,
      "inputs": [
        {
          "indexed": true,
          "internalType": "bytes32",
          "name": "role",
          "type": "bytes32"
        },
        {
          "indexed": true,
          "internalType": "address",
          "name": "account",
          "type": "address"
        },
        {
          "indexed": true,
          "internalType": "address",
          "name": "sender",
          "type": "address"
        }
      ],
      "name": "RoleRevoked",
      "type": "event"
    },
    {
      "anonymous": false,
      "inputs": [
        {
          "indexed": true,
          "internalType": "address",
          "name": "from",
          "type": "address"
        },
        {
          "indexed": true,
          "internalType": "address",
          "name": "to",
          "type": "address"
        },
        {
          "indexed": false,
          "internalType": "uint256",
          "name": "value",
          "type": "uint256"
        }
      ],
      "name": "Transfer",
      "type": "event"
    },
    {
      "anonymous": false,
      "inputs": [
        {
          "indexed": false,
          "internalType": "address",
          "name": "account",
          "type": "address"
        }
      ],
      "name": "Unpaused",
      "type": "event"
    },
    {
      "inputs": [],
      "name": "DEFAULT_ADMIN_ROLE",
      "outputs": [
        {
          "internalType": "bytes32",
          "name": "",
          "type": "bytes32"
        }
      ],
      "stateMutability": "view",
      "type": "function"
    },
    {
      "inputs": [],
      "name": "MINTER_ROLE",
      "outputs": [
        {
          "internalType": "bytes32",
          "name": "",
          "type": "bytes32"
        }
      ],
      "stateMutability": "view",
      "type": "function"
    },
    {
      "inputs": [],
      "name": "PERMIT_TYPEHASH",
      "outputs": [
        {
          "internalType": "bytes32",
          "name": "",
          "type": "bytes32"
        }
      ],
      "stateMutability": "view",
      "type": "function"
    },
    {
      "inputs": [
        {
          "internalType": "address",
          "name": "owner",
          "type": "address"
        },
        {
          "internalType": "address",
          "name": "spender",
          "type": "address"
        }
      ],
      "name": "allowance",
      "outputs": [
        {
          "internalType": "uint256",
          "name": "",
          "type": "uint256"
        }
      ],
      "stateMutability": "view",
      "type": "function"
    },
    {
      "inputs": [
        {
          "internalType": "address",
          "name": "spender",
          "type": "address"
        },
        {
          "internalType": "uint256",
          "name": "amount",
          "type": "uint256"
        }
      ],
      "name": "approve",
      "outputs": [
        {
          "internalType": "bool",
          "name": "",
          "type": "bool"
        }
      ],
      "stateMutability": "nonpayable",
      "type": "function"
    },
    {
      "inputs": [
        {
          "internalType": "address",
          "name": "account",
          "type": "address"
        }
      ],
      "name": "balanceOf",
      "outputs": [
        {
          "internalType": "uint256",
          "name": "",
          "type": "uint256"
        }
      ],
      "stateMutability": "view",
      "type": "function"
    },
    {
      "inputs": [
        {
          "internalType": "uint256",
          "name": "amount",
          "type": "uint256"
        }
      ],
      "name": "burn",
      "outputs": [],
      "stateMutability": "nonpayable",
      "type": "function"
    },
    {
      "inputs": [
        {
          "internalType": "address",
          "name": "account",
          "type": "address"
        },
        {
          "internalType": "uint256",
          "name": "amount",
          "type": "uint256"
        }
      ],
      "name": "burnFrom",
      "outputs": [],
      "stateMutability": "nonpayable",
      "type": "function"
    },
    {
      "inputs": [],
      "name": "decimals",
      "outputs": [
        {
          "internalType": "uint8",
          "name": "",
          "type": "uint8"
        }
      ],
      "stateMutability": "view",
      "type": "function"
    },
    {
      "inputs": [
        {
          "internalType": "address",
          "name": "spender",
          "type": "address"
        },
        {
          "internalType": "uint256",
          "name": "subtractedValue",
          "type": "uint256"
        }
      ],
      "name": "decreaseAllowance",
      "outputs": [
        {
          "internalType": "bool",
          "name": "",
          "type": "bool"
        }
      ],
      "stateMutability": "nonpayable",
      "type": "function"
    },
    {
      "inputs": [
        {
          "internalType": "address",
          "name": "account",
          "type": "address"
        }
      ],
      "name": "getBlackList",
      "outputs": [
        {
          "internalType": "bool",
          "name": "",
          "type": "bool"
        }
      ],
      "stateMutability": "view",
      "type": "function"
    },
    {
      "inputs": [
        {
          "internalType": "bytes32",
          "name": "role",
          "type": "bytes32"
        }
      ],
      "name": "getRoleAdmin",
      "outputs": [
        {
          "internalType": "bytes32",
          "name": "",
          "type": "bytes32"
        }
      ],
      "stateMutability": "view",
      "type": "function"
    },
    {
      "inputs": [
        {
          "internalType": "bytes32",
          "name": "role",
          "type": "bytes32"
        },
        {
          "internalType": "uint256",
          "name": "index",
          "type": "uint256"
        }
      ],
      "name": "getRoleMember",
      "outputs": [
        {
          "internalType": "address",
          "name": "",
          "type": "address"
        }
      ],
      "stateMutability": "view",
      "type": "function"
    },
    {
      "inputs": [
        {
          "internalType": "bytes32",
          "name": "role",
          "type": "bytes32"
        }
      ],
      "name": "getRoleMemberCount",
      "outputs": [
        {
          "internalType": "uint256",
          "name": "",
          "type": "uint256"
        }
      ],
      "stateMutability": "view",
      "type": "function"
    },
    {
      "inputs": [
        {
          "internalType": "bytes32",
          "name": "role",
          "type": "bytes32"
        },
        {
          "internalType": "address",
          "name": "account",
          "type": "address"
        }
      ],
      "name": "grantRole",
      "outputs": [],
      "stateMutability": "nonpayable",
      "type": "function"
    },
    {
      "inputs": [
        {
          "internalType": "bytes32",
          "name": "role",
          "type": "bytes32"
        },
        {
          "internalType": "address",
          "name": "account",
          "type": "address"
        }
      ],
      "name": "hasRole",
      "outputs": [
        {
          "internalType": "bool",
          "name": "",
          "type": "bool"
        }
      ],
      "stateMutability": "view",
      "type": "function"
    },
    {
      "inputs": [
        {
          "internalType": "address",
          "name": "spender",
          "type": "address"
        },
        {
          "internalType": "uint256",
          "name": "addedValue",
          "type": "uint256"
        }
      ],
      "name": "increaseAllowance",
      "outputs": [
        {
          "internalType": "bool",
          "name": "",
          "type": "bool"
        }
      ],
      "stateMutability": "nonpayable",
      "type": "function"
    },
    {
      "inputs": [
        {
          "internalType": "address",
          "name": "to",
          "type": "address"
        },
        {
          "internalType": "uint256",
          "name": "amount",
          "type": "uint256"
        }
      ],
      "name": "mint",
      "outputs": [],
      "stateMutability": "nonpayable",
      "type": "function"
    },
    {
      "inputs": [],
      "name": "name",
      "outputs": [
        {
          "internalType": "string",
          "name": "",
          "type": "string"
        }
      ],
      "stateMutability": "view",
      "type": "function"
    },
    {
      "inputs": [
        {
          "internalType": "address",
          "name": "",
          "type": "address"
        }
      ],
      "name": "nonces",
      "outputs": [
        {
          "internalType": "uint256",
          "name": "",
          "type": "uint256"
        }
      ],
      "stateMutability": "view",
      "type": "function"
    },
    {
      "inputs": [],
      "name": "pause",
      "outputs": [],
      "stateMutability": "nonpayable",
      "type": "function"
    },
    {
      "inputs": [],
      "name": "paused",
      "outputs": [
        {
          "internalType": "bool",
          "name": "",
          "type": "bool"
        }
      ],
      "stateMutability": "view",
      "type": "function"
    },
    {
      "inputs": [
        {
          "internalType": "address",
          "name": "owner",
          "type": "address"
        },
        {
          "internalType": "address",
          "name": "spender",
          "type": "address"
        },
        {
          "internalType": "uint256",
          "name": "value",
          "type": "uint256"
        },
        {
          "internalType": "uint256",
          "name": "deadline",
          "type": "uint256"
        },
        {
          "internalType": "bytes",
          "name": "signature",
          "type": "bytes"
        }
      ],
      "name": "permit",
      "outputs": [],
      "stateMutability": "nonpayable",
      "type": "function"
    },
    {
      "inputs": [
        {
          "internalType": "bytes32",
          "name": "role",
          "type": "bytes32"
        },
        {
          "internalType": "address",
          "name": "account",
          "type": "address"
        }
      ],
      "name": "renounceRole",
      "outputs": [],
      "stateMutability": "nonpayable",
      "type": "function"
    },
    {
      "inputs": [
        {
          "internalType": "bytes32",
          "name": "role",
          "type": "bytes32"
        },
        {
          "internalType": "address",
          "name": "account",
          "type": "address"
        }
      ],
      "name": "revokeRole",
      "outputs": [],
      "stateMutability": "nonpayable",
      "type": "function"
    },
    {
      "inputs": [
        {
          "internalType": "address",
          "name": "account",
          "type": "address"
        }
      ],
      "name": "setBlackList",
      "outputs": [],
      "stateMutability": "nonpayable",
      "type": "function"
    },
    {
      "inputs": [
        {
          "internalType": "bytes4",
          "name": "interfaceId",
          "type": "bytes4"
        }
      ],
      "name": "supportsInterface",
      "outputs": [
        {
          "internalType": "bool",
          "name": "",
          "type": "bool"
        }
      ],
      "stateMutability": "view",
      "type": "function"
    },
    {
      "inputs": [],
      "name": "symbol",
      "outputs": [
        {
          "internalType": "string",
          "name": "",
          "type": "string"
        }
      ],
      "stateMutability": "view",
      "type": "function"
    },
    {
      "inputs": [],
      "name": "totalSupply",
      "outputs": [
        {
          "internalType": "uint256",
          "name": "",
          "type": "uint256"
        }
      ],
      "stateMutability": "view",
      "type": "function"
    },
    {
      "inputs": [
        {
          "internalType": "address",
          "name": "recipient",
          "type": "address"
        },
        {
          "internalType": "uint256",
          "name": "amount",
          "type": "uint256"
        }
      ],
      "name": "transfer",
      "outputs": [
        {
          "internalType": "bool",
          "name": "",
          "type": "bool"
        }
      ],
      "stateMutability": "nonpayable",
      "type": "function"
    },
    {
      "inputs": [
        {
          "internalType": "address",
          "name": "sender",
          "type": "address"
        },
        {
          "internalType": "address",
          "name": "recipient",
          "type": "address"
        },
        {
          "internalType": "uint256",
          "name": "amount",
          "type": "uint256"
        }
      ],
      "name": "transferFrom",
      "outputs": [
        {
          "internalType": "bool",
          "name": "",
          "type": "bool"
        }
      ],
      "stateMutability": "nonpayable",
      "type": "function"
    },
    {
      "inputs": [],
      "name": "unpause",
      "outputs": [],
      "stateMutability": "nonpayable",
      "type": "function"
    }
  ],
  "bytecode": "0x6101206040523480156200001257600080fd5b50604051620028f8380380620028f8833981016040819052620000359162000641565b604080518082018252600b81526a2832b936b4ba2a37b5b2b760a91b60208083019182528351808501855260038152620312e360ec1b81830152835190922060c08181527fe6bbd6277e1bf288eed5e8d1780f9a50b239e86b153736bceebccf4ea79d90b360e08190524660a081815288517f8b73c3c69bb8fe3d512ecc4cf759cc79239f7b179b0ffacaa9a75d522b39400f818801819052818b0187905260608201859052608082019390935230818301528951808203909201825290930190975281519190930120899589959493916080526101005250508351620001269250600391506020850190620004e4565b5080516200013c906004906020840190620004e4565b50506005805460ff19169055506200015660003362000198565b620001827f9f2df0fed2c77648de5860a4cc508cd0818c85b8b8a1ab4ceeef8d981c8956a63362000198565b6200018e8183620001db565b5050505062000750565b620001af8282620002d360201b62000b8e1760201c565b6000828152600760209081526040909120620001d691839062000b98620002df821b17901c565b505050565b6001600160a01b038216620002375760405162461bcd60e51b815260206004820152601f60248201527f45524332303a206d696e7420746f20746865207a65726f20616464726573730060448201526064015b60405180910390fd5b6200024560008383620002ff565b8060026000828254620002599190620006d6565b90915550506001600160a01b0382166000908152602081905260408120805483929062000288908490620006d6565b90915550506040518181526001600160a01b038316906000907fddf252ad1be2c89b69c2b068fc378daa952ba7f163c4a11628f55a4df523b3ef9060200160405180910390a35b5050565b620002cf82826200036e565b6000620002f6836001600160a01b03841662000412565b90505b92915050565b6001600160a01b03831660009081526008602052604090205460ff1615620003565760405162461bcd60e51b81526020600482015260096024820152683337b93134b23232b760b91b60448201526064016200022e565b620001d68383836200046460201b62000bad1760201c565b60008281526006602090815260408083206001600160a01b038516845290915290205460ff16620002cf5760008281526006602090815260408083206001600160a01b03851684529091529020805460ff19166001179055620003ce3390565b6001600160a01b0316816001600160a01b0316837f2f8788117e7eff1d82e926ec794901d17c78024a50270940304540a733656f0d60405160405180910390a45050565b60008181526001830160205260408120546200045b57508154600181810184556000848152602080822090930184905584548482528286019093526040902091909155620002f9565b506000620002f9565b6200047c838383620001d660201b620006721760201c565b60055460ff1615620001d65760405162461bcd60e51b815260206004820152602a60248201527f45524332305061757361626c653a20746f6b656e207472616e736665722077686044820152691a5b19481c185d5cd95960b21b60648201526084016200022e565b828054620004f290620006fd565b90600052602060002090601f01602090048101928262000516576000855562000561565b82601f106200053157805160ff191683800117855562000561565b8280016001018555821562000561579182015b828111156200056157825182559160200191906001019062000544565b506200056f92915062000573565b5090565b5b808211156200056f576000815560010162000574565b600082601f8301126200059c57600080fd5b81516001600160401b0380821115620005b957620005b96200073a565b604051601f8301601f19908116603f01168101908282118183101715620005e457620005e46200073a565b816040528381526020925086838588010111156200060157600080fd5b600091505b8382101562000625578582018301518183018401529082019062000606565b83821115620006375760008385830101525b9695505050505050565b600080600080608085870312156200065857600080fd5b84516001600160401b03808211156200067057600080fd5b6200067e888389016200058a565b955060208701519150808211156200069557600080fd5b50620006a4878288016200058a565b60408701516060880151919550935090506001600160a01b0381168114620006cb57600080fd5b939692955090935050565b60008219821115620006f857634e487b7160e01b600052601160045260246000fd5b500190565b600181811c908216806200071257607f821691505b602082108114156200073457634e487b7160e01b600052602260045260246000fd5b50919050565b634e487b7160e01b600052604160045260246000fd5b60805160a05160c05160e05161010051612163620007956000396000611754015260006117a30152600061177e015260006117020152600061172b01526121636000f3fe608060405234801561001057600080fd5b50600436106101f05760003560e01c806370a082311161010f5780639fd5a6cf116100a2578063ca15c87311610071578063ca15c87314610448578063d53913931461045b578063d547741f14610482578063dd62ed3e1461049557600080fd5b80639fd5a6cf14610407578063a217fddf1461041a578063a457c2d714610422578063a9059cbb1461043557600080fd5b80638456cb59116100de5780638456cb59146103b95780639010d07c146103c157806391d14854146103ec57806395d89b41146103ff57600080fd5b806370a082311461034a578063727002411461037357806379cc6790146103865780637ecebe001461039957600080fd5b8063313ce567116101875780633fbdc67d116101565780633fbdc67d1461030657806340c10f191461031957806342966c681461032c5780635c975abb1461033f57600080fd5b8063313ce567146102c957806336568abe146102d857806339509351146102eb5780633f4ba83a146102fe57600080fd5b806323b872dd116101c357806323b872dd14610257578063248a9ca31461026a5780632f2ff15d1461028d57806330adf81f146102a257600080fd5b806301ffc9a7146101f557806306fdde031461021d578063095ea7b31461023257806318160ddd14610245575b600080fd5b610208610203366004611ee3565b6104ce565b60405190151581526020015b60405180910390f35b6102256104f9565b6040516102149190611f82565b610208610240366004611e5b565b61058b565b6002545b604051908152602001610214565b610208610265366004611d39565b6105a1565b610249610278366004611e85565b60009081526006602052604090206001015490565b6102a061029b366004611e9e565b610650565b005b6102497f6e71edae12b1b97f4d1f60370fef10105fa2faae0126114a169c64845d6126c981565b60405160128152602001610214565b6102a06102e6366004611e9e565b610677565b6102086102f9366004611e5b565b610699565b6102a06106d5565b610208610314366004611ceb565b610706565b6102a0610327366004611e5b565b610751565b6102a061033a366004611e85565b6107f4565b60055460ff16610208565b610249610358366004611ceb565b6001600160a01b031660009081526020819052604090205490565b6102a0610381366004611ceb565b610801565b6102a0610394366004611e5b565b610851565b6102496103a7366004611ceb565b60096020526000908152604090205481565b6102a06108d2565b6103d46103cf366004611ec1565b610901565b6040516001600160a01b039091168152602001610214565b6102086103fa366004611e9e565b610920565b61022561094b565b6102a0610415366004611d75565b61095a565b610249600081565b610208610430366004611e5b565b610ac7565b610208610443366004611e5b565b610b60565b610249610456366004611e85565b610b6d565b6102497f9f2df0fed2c77648de5860a4cc508cd0818c85b8b8a1ab4ceeef8d981c8956a681565b6102a0610490366004611e9e565b610b84565b6102496104a3366004611d06565b6001600160a01b03918216600090815260016020908152604080832093909416825291909152205490565b60006001600160e01b03198216635a05180f60e01b14806104f357506104f382610c13565b92915050565b60606003805461050890612069565b80601f016020809104026020016040519081016040528092919081815260200182805461053490612069565b80156105815780601f1061055657610100808354040283529160200191610581565b820191906000526020600020905b81548152906001019060200180831161056457829003601f168201915b5050505050905090565b6000610598338484610c48565b50600192915050565b60006105ae848484610d6c565b6001600160a01b0384166000908152600160209081526040808320338452909152902054828110156106385760405162461bcd60e51b815260206004820152602860248201527f45524332303a207472616e7366657220616d6f756e74206578636565647320616044820152676c6c6f77616e636560c01b60648201526084015b60405180910390fd5b6106458533858403610c48565b506001949350505050565b61065a8282610f47565b60008281526007602052604090206106729082610b98565b505050565b6106818282610f6d565b60008281526007602052604090206106729082610fe7565b3360008181526001602090815260408083206001600160a01b038716845290915281205490916105989185906106d0908690611fd8565b610c48565b6106e0600033610920565b6106fc5760405162461bcd60e51b815260040161062f90611fb5565b610704610ffc565b565b60006107128133610920565b61072e5760405162461bcd60e51b815260040161062f90611fb5565b506001600160a01b03811660009081526008602052604090205460ff165b919050565b61077b7f9f2df0fed2c77648de5860a4cc508cd0818c85b8b8a1ab4ceeef8d981c8956a633610920565b6107e65760405162461bcd60e51b815260206004820152603660248201527f45524332305072657365744d696e7465725061757365723a206d7573742068616044820152751d99481b5a5b9d195c881c9bdb19481d1bc81b5a5b9d60521b606482015260840161062f565b6107f0828261108f565b5050565b6107fe338261117a565b50565b61080c600033610920565b6108285760405162461bcd60e51b815260040161062f90611fb5565b6001600160a01b03166000908152600860205260409020805460ff19811660ff90911615179055565b600061085d83336104a3565b9050818110156108bb5760405162461bcd60e51b8152602060048201526024808201527f45524332303a206275726e20616d6f756e74206578636565647320616c6c6f77604482015263616e636560e01b606482015260840161062f565b6108c88333848403610c48565b610672838361117a565b6108dd600033610920565b6108f95760405162461bcd60e51b815260040161062f90611fb5565b6107046112d4565b6000828152600760205260408120610919908361134f565b9392505050565b60009182526006602090815260408084206001600160a01b0393909316845291905290205460ff1690565b60606004805461050890612069565b428210156109955760405162461bcd60e51b8152602060048201526008602482015267657870697265642160c01b604482015260640161062f565b6001600160a01b038516600090815260096020526040812080547f6e71edae12b1b97f4d1f60370fef10105fa2faae0126114a169c64845d6126c99188918891889190866109e2836120a4565b909155506040805160208101969096526001600160a01b0394851690860152929091166060840152608083015260a082015260c0810184905260e0016040516020818303038152906040528051906020012090506000610a418261135b565b90506000610a4f82856113a9565b9050806001600160a01b0316886001600160a01b031614610ab25760405162461bcd60e51b815260206004820152601960248201527f5065726d69743a20696e76616c6964207369676e617475726500000000000000604482015260640161062f565b610abd888888610c48565b5050505050505050565b3360009081526001602090815260408083206001600160a01b038616845290915281205482811015610b495760405162461bcd60e51b815260206004820152602560248201527f45524332303a2064656372656173656420616c6c6f77616e63652062656c6f77604482015264207a65726f60d81b606482015260840161062f565b610b563385858403610c48565b5060019392505050565b6000610598338484610d6c565b60008181526007602052604081206104f3906113cd565b61068182826113d7565b6107f082826113fd565b6000610919836001600160a01b038416611483565b60055460ff16156106725760405162461bcd60e51b815260206004820152602a60248201527f45524332305061757361626c653a20746f6b656e207472616e736665722077686044820152691a5b19481c185d5cd95960b21b606482015260840161062f565b60006001600160e01b03198216637965db0b60e01b14806104f357506301ffc9a760e01b6001600160e01b03198316146104f3565b6001600160a01b038316610caa5760405162461bcd60e51b8152602060048201526024808201527f45524332303a20617070726f76652066726f6d20746865207a65726f206164646044820152637265737360e01b606482015260840161062f565b6001600160a01b038216610d0b5760405162461bcd60e51b815260206004820152602260248201527f45524332303a20617070726f766520746f20746865207a65726f206164647265604482015261737360f01b606482015260840161062f565b6001600160a01b0383811660008181526001602090815260408083209487168084529482529182902085905590518481527f8c5be1e5ebec7d5bd14f71427d1e84f3dd0314c0f7b2291e5b200ac8c7c3b925910160405180910390a3505050565b6001600160a01b038316610dd05760405162461bcd60e51b815260206004820152602560248201527f45524332303a207472616e736665722066726f6d20746865207a65726f206164604482015264647265737360d81b606482015260840161062f565b6001600160a01b038216610e325760405162461bcd60e51b815260206004820152602360248201527f45524332303a207472616e7366657220746f20746865207a65726f206164647260448201526265737360e81b606482015260840161062f565b610e3d8383836114d2565b6001600160a01b03831660009081526020819052604090205481811015610eb55760405162461bcd60e51b815260206004820152602660248201527f45524332303a207472616e7366657220616d6f756e7420657863656564732062604482015265616c616e636560d01b606482015260840161062f565b6001600160a01b03808516600090815260208190526040808220858503905591851681529081208054849290610eec908490611fd8565b92505081905550826001600160a01b0316846001600160a01b03167fddf252ad1be2c89b69c2b068fc378daa952ba7f163c4a11628f55a4df523b3ef84604051610f3891815260200190565b60405180910390a35b50505050565b600082815260066020526040902060010154610f638133611516565b61067283836113fd565b6001600160a01b0381163314610fdd5760405162461bcd60e51b815260206004820152602f60248201527f416363657373436f6e74726f6c3a2063616e206f6e6c792072656e6f756e636560448201526e103937b632b9903337b91039b2b63360891b606482015260840161062f565b6107f0828261157a565b6000610919836001600160a01b0384166115e1565b60055460ff166110455760405162461bcd60e51b815260206004820152601460248201527314185d5cd8589b194e881b9bdd081c185d5cd95960621b604482015260640161062f565b6005805460ff191690557f5db9ee0a495bf2e6ff9c91a7834c1ba4fdd244a5e8aa4e537bd38aeae4b073aa335b6040516001600160a01b03909116815260200160405180910390a1565b6001600160a01b0382166110e55760405162461bcd60e51b815260206004820152601f60248201527f45524332303a206d696e7420746f20746865207a65726f206164647265737300604482015260640161062f565b6110f1600083836114d2565b80600260008282546111039190611fd8565b90915550506001600160a01b03821660009081526020819052604081208054839290611130908490611fd8565b90915550506040518181526001600160a01b038316906000907fddf252ad1be2c89b69c2b068fc378daa952ba7f163c4a11628f55a4df523b3ef9060200160405180910390a35050565b6001600160a01b0382166111da5760405162461bcd60e51b815260206004820152602160248201527f45524332303a206275726e2066726f6d20746865207a65726f206164647265736044820152607360f81b606482015260840161062f565b6111e6826000836114d2565b6001600160a01b0382166000908152602081905260409020548181101561125a5760405162461bcd60e51b815260206004820152602260248201527f45524332303a206275726e20616d6f756e7420657863656564732062616c616e604482015261636560f01b606482015260840161062f565b6001600160a01b038316600090815260208190526040812083830390556002805484929061128990849061200f565b90915550506040518281526000906001600160a01b038516907fddf252ad1be2c89b69c2b068fc378daa952ba7f163c4a11628f55a4df523b3ef9060200160405180910390a3505050565b60055460ff161561131a5760405162461bcd60e51b815260206004820152601060248201526f14185d5cd8589b194e881c185d5cd95960821b604482015260640161062f565b6005805460ff191660011790557f62e78cea01bee320cd4e420270b5ea74000d11b0c9f74754ebdbfc544b05a2586110723390565b600061091983836116d4565b60006104f36113686116fe565b8360405161190160f01b6020820152602281018390526042810182905260009060620160405160208183030381529060405280519060200120905092915050565b60008060006113b885856117f1565b915091506113c581611861565b509392505050565b60006104f3825490565b6000828152600660205260409020600101546113f38133611516565b610672838361157a565b6114078282610920565b6107f05760008281526006602090815260408083206001600160a01b03851684529091529020805460ff1916600117905561143f3390565b6001600160a01b0316816001600160a01b0316837f2f8788117e7eff1d82e926ec794901d17c78024a50270940304540a733656f0d60405160405180910390a45050565b60008181526001830160205260408120546114ca575081546001818101845560008481526020808220909301849055845484825282860190935260409020919091556104f3565b5060006104f3565b6001600160a01b03831660009081526008602052604090205460ff161561150b5760405162461bcd60e51b815260040161062f90611fb5565b610672838383610bad565b6115208282610920565b6107f057611538816001600160a01b03166014611a1c565b611543836020611a1c565b604051602001611554929190611f0d565b60408051601f198184030181529082905262461bcd60e51b825261062f91600401611f82565b6115848282610920565b156107f05760008281526006602090815260408083206001600160a01b0385168085529252808320805460ff1916905551339285917ff6391f5c32d9c69d2a47ea670b442974b53935d1edc7fd64eb21e047a839171b9190a45050565b600081815260018301602052604081205480156116ca57600061160560018361200f565b85549091506000906116199060019061200f565b905081811461167e57600086600001828154811061163957611639612101565b906000526020600020015490508087600001848154811061165c5761165c612101565b6000918252602080832090910192909255918252600188019052604090208390555b855486908061168f5761168f6120eb565b6001900381819060005260206000200160009055905585600101600086815260200190815260200160002060009055600193505050506104f3565b60009150506104f3565b60008260000182815481106116eb576116eb612101565b9060005260206000200154905092915050565b60007f000000000000000000000000000000000000000000000000000000000000000046141561174d57507f000000000000000000000000000000000000000000000000000000000000000090565b50604080517f00000000000000000000000000000000000000000000000000000000000000006020808301919091527f0000000000000000000000000000000000000000000000000000000000000000828401527f000000000000000000000000000000000000000000000000000000000000000060608301524660808301523060a0808401919091528351808403909101815260c0909201909252805191012090565b6000808251604114156118285760208301516040840151606085015160001a61181c87828585611bb8565b9450945050505061185a565b8251604014156118525760208301516040840151611847868383611ca5565b93509350505061185a565b506000905060025b9250929050565b6000816004811115611875576118756120d5565b141561187e5750565b6001816004811115611892576118926120d5565b14156118e05760405162461bcd60e51b815260206004820152601860248201527f45434453413a20696e76616c6964207369676e61747572650000000000000000604482015260640161062f565b60028160048111156118f4576118f46120d5565b14156119425760405162461bcd60e51b815260206004820152601f60248201527f45434453413a20696e76616c6964207369676e6174757265206c656e67746800604482015260640161062f565b6003816004811115611956576119566120d5565b14156119af5760405162461bcd60e51b815260206004820152602260248201527f45434453413a20696e76616c6964207369676e6174757265202773272076616c604482015261756560f01b606482015260840161062f565b60048160048111156119c3576119c36120d5565b14156107fe5760405162461bcd60e51b815260206004820152602260248201527f45434453413a20696e76616c6964207369676e6174757265202776272076616c604482015261756560f01b606482015260840161062f565b60606000611a2b836002611ff0565b611a36906002611fd8565b67ffffffffffffffff811115611a4e57611a4e612117565b6040519080825280601f01601f191660200182016040528015611a78576020820181803683370190505b509050600360fc1b81600081518110611a9357611a93612101565b60200101906001600160f81b031916908160001a905350600f60fb1b81600181518110611ac257611ac2612101565b60200101906001600160f81b031916908160001a9053506000611ae6846002611ff0565b611af1906001611fd8565b90505b6001811115611b69576f181899199a1a9b1b9c1cb0b131b232b360811b85600f1660108110611b2557611b25612101565b1a60f81b828281518110611b3b57611b3b612101565b60200101906001600160f81b031916908160001a90535060049490941c93611b6281612052565b9050611af4565b5083156109195760405162461bcd60e51b815260206004820181905260248201527f537472696e67733a20686578206c656e67746820696e73756666696369656e74604482015260640161062f565b6000807f7fffffffffffffffffffffffffffffff5d576e7357a4501ddfe92f46681b20a0831115611bef5750600090506003611c9c565b8460ff16601b14158015611c0757508460ff16601c14155b15611c185750600090506004611c9c565b6040805160008082526020820180845289905260ff881692820192909252606081018690526080810185905260019060a0016020604051602081039080840390855afa158015611c6c573d6000803e3d6000fd5b5050604051601f1901519150506001600160a01b038116611c9557600060019250925050611c9c565b9150600090505b94509492505050565b6000806001600160ff1b03831660ff84901c601b01611cc687828885611bb8565b935093505050935093915050565b80356001600160a01b038116811461074c57600080fd5b600060208284031215611cfd57600080fd5b61091982611cd4565b60008060408385031215611d1957600080fd5b611d2283611cd4565b9150611d3060208401611cd4565b90509250929050565b600080600060608486031215611d4e57600080fd5b611d5784611cd4565b9250611d6560208501611cd4565b9150604084013590509250925092565b600080600080600060a08688031215611d8d57600080fd5b611d9686611cd4565b9450611da460208701611cd4565b93506040860135925060608601359150608086013567ffffffffffffffff80821115611dcf57600080fd5b818801915088601f830112611de357600080fd5b813581811115611df557611df5612117565b604051601f8201601f19908116603f01168101908382118183101715611e1d57611e1d612117565b816040528281528b6020848701011115611e3657600080fd5b8260208601602083013760006020848301015280955050505050509295509295909350565b60008060408385031215611e6e57600080fd5b611e7783611cd4565b946020939093013593505050565b600060208284031215611e9757600080fd5b5035919050565b60008060408385031215611eb157600080fd5b82359150611d3060208401611cd4565b60008060408385031215611ed457600080fd5b50508035926020909101359150565b600060208284031215611ef557600080fd5b81356001600160e01b03198116811461091957600080fd5b7f416363657373436f6e74726f6c3a206163636f756e7420000000000000000000815260008351611f45816017850160208801612026565b7001034b99036b4b9b9b4b733903937b6329607d1b6017918401918201528351611f76816028840160208801612026565b01602801949350505050565b6020815260008251806020840152611fa1816040850160208701612026565b601f01601f19169190910160400192915050565b6020808252600990820152683337b93134b23232b760b91b604082015260600190565b60008219821115611feb57611feb6120bf565b500190565b600081600019048311821515161561200a5761200a6120bf565b500290565b600082821015612021576120216120bf565b500390565b60005b83811015612041578181015183820152602001612029565b83811115610f415750506000910152565b600081612061576120616120bf565b506000190190565b600181811c9082168061207d57607f821691505b6020821081141561209e57634e487b7160e01b600052602260045260246000fd5b50919050565b60006000198214156120b8576120b86120bf565b5060010190565b634e487b7160e01b600052601160045260246000fd5b634e487b7160e01b600052602160045260246000fd5b634e487b7160e01b600052603160045260246000fd5b634e487b7160e01b600052603260045260246000fd5b634e487b7160e01b600052604160045260246000fdfea2646970667358221220d8f2a03a921b883d795f7684601d95a6beb8d92b6a8392021be4b4ac89f0bacf64736f6c63430008070033",
  "linkReferences": {},
  "deployedLinkReferences": {}
}