{
  "_format": "hh-sol-artifact-1",
  "contractName": "ProxyOFT",
  "sourceName": "contracts/oft/ProxyOFT.sol",
  "abi": [
    {
      "inputs": [],
      "name": "LaneExisted",
      "type": "error"
    },
    {
      "inputs": [],
      "name": "LaneNotExist",
      "type": "error"
    },
    {
      "inputs": [],
      "name": "OwnerIsNotSender",
      "type": "error"
    },
    {
      "inputs": [],
      "name": "Paused",
      "type": "error"
    },
    {
      "inputs": [],
      "name": "ZeroAddressNotAllowed",
      "type": "error"
    },
    {
      "inputs": [],
      "name": "ZeroValueNotAllowed",
      "type": "error"
    },
    {
      "anonymous": false,
      "inputs": [
        {
          "indexed": false,
          "internalType": "uint8",
          "name": "version",
          "type": "uint8"
        }
      ],
      "name": "Initialized",
      "type": "event"
    },
    {
      "anonymous": false,
      "inputs": [
        {
          "indexed": false,
          "internalType": "uint16",
          "name": "_srcChainId",
          "type": "uint16"
        },
        {
          "indexed": false,
          "internalType": "bytes",
          "name": "_srcAddress",
          "type": "bytes"
        },
        {
          "indexed": false,
          "internalType": "uint64",
          "name": "_nonce",
          "type": "uint64"
        },
        {
          "indexed": false,
          "internalType": "bytes",
          "name": "_payload",
          "type": "bytes"
        }
      ],
      "name": "MessageFailed",
      "type": "event"
    },
    {
      "anonymous": false,
      "inputs": [
        {
          "indexed": true,
          "internalType": "address",
          "name": "_srcToken",
          "type": "address"
        },
        {
          "indexed": true,
          "internalType": "uint16",
          "name": "_srcChainId",
          "type": "uint16"
        },
        {
          "indexed": true,
          "internalType": "address",
          "name": "_to",
          "type": "address"
        },
        {
          "indexed": false,
          "internalType": "uint256",
          "name": "_amount",
          "type": "uint256"
        }
      ],
      "name": "ReceiveFromChain",
      "type": "event"
    },
    {
      "anonymous": false,
      "inputs": [
        {
          "indexed": true,
          "internalType": "bytes32",
          "name": "role",
          "type": "bytes32"
        },
        {
          "indexed": true,
          "internalType": "bytes32",
          "name": "previousAdminRole",
          "type": "bytes32"
        },
        {
          "indexed": true,
          "internalType": "bytes32",
          "name": "newAdminRole",
          "type": "bytes32"
        }
      ],
      "name": "RoleAdminChanged",
      "type": "event"
    },
    {
      "anonymous": false,
      "inputs": [
        {
          "indexed": true,
          "internalType": "bytes32",
          "name": "role",
          "type": "bytes32"
        },
        {
          "indexed": true,
          "internalType": "address",
          "name": "account",
          "type": "address"
        },
        {
          "indexed": true,
          "internalType": "address",
          "name": "sender",
          "type": "address"
        }
      ],
      "name": "RoleGranted",
      "type": "event"
    },
    {
      "anonymous": false,
      "inputs": [
        {
          "indexed": true,
          "internalType": "bytes32",
          "name": "role",
          "type": "bytes32"
        },
        {
          "indexed": true,
          "internalType": "address",
          "name": "account",
          "type": "address"
        },
        {
          "indexed": true,
          "internalType": "address",
          "name": "sender",
          "type": "address"
        }
      ],
      "name": "RoleRevoked",
      "type": "event"
    },
    {
      "anonymous": false,
      "inputs": [
        {
          "indexed": true,
          "internalType": "uint16",
          "name": "_dstChainId",
          "type": "uint16"
        },
        {
          "indexed": true,
          "internalType": "address",
          "name": "_token",
          "type": "address"
        },
        {
          "indexed": true,
          "internalType": "address",
          "name": "_from",
          "type": "address"
        },
        {
          "indexed": false,
          "internalType": "bytes",
          "name": "_toAddress",
          "type": "bytes"
        },
        {
          "indexed": false,
          "internalType": "uint256",
          "name": "_amount",
          "type": "uint256"
        }
      ],
      "name": "SendToChain",
      "type": "event"
    },
    {
      "anonymous": false,
      "inputs": [
        {
          "indexed": false,
          "internalType": "uint16",
          "name": "_dstChainId",
          "type": "uint16"
        },
        {
          "indexed": false,
          "internalType": "uint16",
          "name": "_type",
          "type": "uint16"
        },
        {
          "indexed": false,
          "internalType": "uint256",
          "name": "_minDstGas",
          "type": "uint256"
        }
      ],
      "name": "SetMinDstGas",
      "type": "event"
    },
    {
      "anonymous": false,
      "inputs": [
        {
          "indexed": false,
          "internalType": "uint16",
          "name": "_dstChainId",
          "type": "uint16"
        },
        {
          "indexed": false,
          "internalType": "uint256",
          "name": "_type",
          "type": "uint256"
        },
        {
          "indexed": false,
          "internalType": "uint256",
          "name": "_dstGasAmount",
          "type": "uint256"
        }
      ],
      "name": "SetMinDstGasLookup",
      "type": "event"
    },
    {
      "anonymous": false,
      "inputs": [
        {
          "indexed": false,
          "internalType": "address",
          "name": "precrime",
          "type": "address"
        }
      ],
      "name": "SetPrecrime",
      "type": "event"
    },
    {
      "anonymous": false,
      "inputs": [
        {
          "indexed": false,
          "internalType": "uint16",
          "name": "_srcChainId",
          "type": "uint16"
        },
        {
          "indexed": false,
          "internalType": "bytes",
          "name": "_srcAddress",
          "type": "bytes"
        }
      ],
      "name": "SetTrustedRemote",
      "type": "event"
    },
    {
      "anonymous": false,
      "inputs": [
        {
          "indexed": false,
          "internalType": "uint16",
          "name": "_remoteChainId",
          "type": "uint16"
        },
        {
          "indexed": false,
          "internalType": "bytes",
          "name": "_remoteAddress",
          "type": "bytes"
        }
      ],
      "name": "SetTrustedRemoteAddress",
      "type": "event"
    },
    {
      "anonymous": false,
      "inputs": [
        {
          "indexed": false,
          "internalType": "bool",
          "name": "_useCustomAdapterParams",
          "type": "bool"
        }
      ],
      "name": "SetUseCustomAdapterParams",
      "type": "event"
    },
    {
      "inputs": [],
      "name": "DEFAULT_ADMIN_ROLE",
      "outputs": [
        {
          "internalType": "bytes32",
          "name": "",
          "type": "bytes32"
        }
      ],
      "stateMutability": "view",
      "type": "function"
    },
    {
      "inputs": [],
      "name": "DEFAULT_PAYLOAD_SIZE_LIMIT",
      "outputs": [
        {
          "internalType": "uint256",
          "name": "",
          "type": "uint256"
        }
      ],
      "stateMutability": "view",
      "type": "function"
    },
    {
      "inputs": [],
      "name": "FUNCTION_TYPE_SEND",
      "outputs": [
        {
          "internalType": "uint256",
          "name": "",
          "type": "uint256"
        }
      ],
      "stateMutability": "view",
      "type": "function"
    },
    {
      "inputs": [],
      "name": "NO_EXTRA_GAS",
      "outputs": [
        {
          "internalType": "uint256",
          "name": "",
          "type": "uint256"
        }
      ],
      "stateMutability": "view",
      "type": "function"
    },
    {
      "inputs": [
        {
          "internalType": "uint16",
          "name": "srcEid",
          "type": "uint16"
        },
        {
          "internalType": "address",
          "name": "srcToken",
          "type": "address"
        },
        {
          "internalType": "address",
          "name": "dstToken",
          "type": "address"
        }
      ],
      "name": "addTokenMapping",
      "outputs": [],
      "stateMutability": "nonpayable",
      "type": "function"
    },
    {
      "inputs": [],
      "name": "circulatingSupply",
      "outputs": [
        {
          "internalType": "uint256",
          "name": "",
          "type": "uint256"
        }
      ],
      "stateMutability": "view",
      "type": "function"
    },
    {
      "inputs": [
        {
          "internalType": "address",
          "name": "token",
          "type": "address"
        },
        {
          "internalType": "uint16",
          "name": "_dstChainId",
          "type": "uint16"
        },
        {
          "internalType": "bytes",
          "name": "_toAddress",
          "type": "bytes"
        },
        {
          "internalType": "uint256",
          "name": "_amount",
          "type": "uint256"
        }
      ],
      "name": "estimateSendFee",
      "outputs": [
        {
          "internalType": "uint256",
          "name": "nativeFee",
          "type": "uint256"
        },
        {
          "internalType": "uint256",
          "name": "zroFee",
          "type": "uint256"
        }
      ],
      "stateMutability": "view",
      "type": "function"
    },
    {
      "inputs": [
        {
          "internalType": "uint16",
          "name": "",
          "type": "uint16"
        },
        {
          "internalType": "bytes",
          "name": "",
          "type": "bytes"
        },
        {
          "internalType": "uint64",
          "name": "",
          "type": "uint64"
        }
      ],
      "name": "failedMessages",
      "outputs": [
        {
          "internalType": "bytes32",
          "name": "",
          "type": "bytes32"
        }
      ],
      "stateMutability": "view",
      "type": "function"
    },
    {
      "inputs": [
        {
          "internalType": "uint16",
          "name": "_srcChainId",
          "type": "uint16"
        },
        {
          "internalType": "bytes",
          "name": "_srcAddress",
          "type": "bytes"
        }
      ],
      "name": "forceResumeReceive",
      "outputs": [],
      "stateMutability": "nonpayable",
      "type": "function"
    },
    {
      "inputs": [],
      "name": "getAllLane",
      "outputs": [
        {
          "components": [
            {
              "internalType": "uint16",
              "name": "srcEid",
              "type": "uint16"
            },
            {
              "internalType": "address",
              "name": "srcToken",
              "type": "address"
            },
            {
              "internalType": "address",
              "name": "dstToken",
              "type": "address"
            }
          ],
          "internalType": "struct BaseProxyOFT.LaneDetail[]",
          "name": "",
          "type": "tuple[]"
        }
      ],
      "stateMutability": "view",
      "type": "function"
    },
    {
      "inputs": [
        {
          "internalType": "uint16",
          "name": "_version",
          "type": "uint16"
        },
        {
          "internalType": "uint16",
          "name": "_chainId",
          "type": "uint16"
        },
        {
          "internalType": "address",
          "name": "",
          "type": "address"
        },
        {
          "internalType": "uint256",
          "name": "_configType",
          "type": "uint256"
        }
      ],
      "name": "getConfig",
      "outputs": [
        {
          "internalType": "bytes",
          "name": "",
          "type": "bytes"
        }
      ],
      "stateMutability": "view",
      "type": "function"
    },
    {
      "inputs": [
        {
          "internalType": "bytes32",
          "name": "role",
          "type": "bytes32"
        }
      ],
      "name": "getRoleAdmin",
      "outputs": [
        {
          "internalType": "bytes32",
          "name": "",
          "type": "bytes32"
        }
      ],
      "stateMutability": "view",
      "type": "function"
    },
    {
      "inputs": [
        {
          "internalType": "bytes32",
          "name": "role",
          "type": "bytes32"
        },
        {
          "internalType": "uint256",
          "name": "index",
          "type": "uint256"
        }
      ],
      "name": "getRoleMember",
      "outputs": [
        {
          "internalType": "address",
          "name": "",
          "type": "address"
        }
      ],
      "stateMutability": "view",
      "type": "function"
    },
    {
      "inputs": [
        {
          "internalType": "bytes32",
          "name": "role",
          "type": "bytes32"
        }
      ],
      "name": "getRoleMemberCount",
      "outputs": [
        {
          "internalType": "uint256",
          "name": "",
          "type": "uint256"
        }
      ],
      "stateMutability": "view",
      "type": "function"
    },
    {
      "inputs": [
        {
          "internalType": "uint16",
          "name": "_remoteChainId",
          "type": "uint16"
        }
      ],
      "name": "getTrustedRemoteAddress",
      "outputs": [
        {
          "internalType": "bytes",
          "name": "",
          "type": "bytes"
        }
      ],
      "stateMutability": "view",
      "type": "function"
    },
    {
      "inputs": [
        {
          "internalType": "bytes32",
          "name": "role",
          "type": "bytes32"
        },
        {
          "internalType": "address",
          "name": "account",
          "type": "address"
        }
      ],
      "name": "grantRole",
      "outputs": [],
      "stateMutability": "nonpayable",
      "type": "function"
    },
    {
      "inputs": [
        {
          "internalType": "bytes32",
          "name": "role",
          "type": "bytes32"
        },
        {
          "internalType": "address",
          "name": "account",
          "type": "address"
        }
      ],
      "name": "hasRole",
      "outputs": [
        {
          "internalType": "bool",
          "name": "",
          "type": "bool"
        }
      ],
      "stateMutability": "view",
      "type": "function"
    },
    {
      "inputs": [
        {
          "internalType": "address",
          "name": "_lzEndpoint",
          "type": "address"
        },
        {
          "internalType": "address",
          "name": "admin",
          "type": "address"
        }
      ],
      "name": "initialize",
      "outputs": [],
      "stateMutability": "nonpayable",
      "type": "function"
    },
    {
      "inputs": [
        {
          "internalType": "uint16",
          "name": "_srcChainId",
          "type": "uint16"
        },
        {
          "internalType": "bytes",
          "name": "_srcAddress",
          "type": "bytes"
        }
      ],
      "name": "isTrustedRemote",
      "outputs": [
        {
          "internalType": "bool",
          "name": "",
          "type": "bool"
        }
      ],
      "stateMutability": "view",
      "type": "function"
    },
    {
      "inputs": [
        {
          "internalType": "uint16",
          "name": "srcEid",
          "type": "uint16"
        },
        {
          "internalType": "address",
          "name": "srcToken",
          "type": "address"
        }
      ],
      "name": "laneExist",
      "outputs": [
        {
          "internalType": "bool",
          "name": "",
          "type": "bool"
        }
      ],
      "stateMutability": "view",
      "type": "function"
    },
    {
      "inputs": [],
      "name": "lzEndpoint",
      "outputs": [
        {
          "internalType": "contract ILayerZeroEndpointUpgradeable",
          "name": "",
          "type": "address"
        }
      ],
      "stateMutability": "view",
      "type": "function"
    },
    {
      "inputs": [
        {
          "internalType": "uint16",
          "name": "_srcChainId",
          "type": "uint16"
        },
        {
          "internalType": "bytes",
          "name": "_srcAddress",
          "type": "bytes"
        },
        {
          "internalType": "uint64",
          "name": "_nonce",
          "type": "uint64"
        },
        {
          "internalType": "bytes",
          "name": "_payload",
          "type": "bytes"
        }
      ],
      "name": "lzReceive",
      "outputs": [],
      "stateMutability": "nonpayable",
      "type": "function"
    },
    {
      "inputs": [
        {
          "internalType": "uint16",
          "name": "",
          "type": "uint16"
        },
        {
          "internalType": "uint256",
          "name": "",
          "type": "uint256"
        }
      ],
      "name": "minDstGasLookup",
      "outputs": [
        {
          "internalType": "uint256",
          "name": "",
          "type": "uint256"
        }
      ],
      "stateMutability": "view",
      "type": "function"
    },
    {
      "inputs": [
        {
          "internalType": "uint16",
          "name": "_srcChainId",
          "type": "uint16"
        },
        {
          "internalType": "bytes",
          "name": "_srcAddress",
          "type": "bytes"
        },
        {
          "internalType": "uint64",
          "name": "_nonce",
          "type": "uint64"
        },
        {
          "internalType": "bytes",
          "name": "_payload",
          "type": "bytes"
        }
      ],
      "name": "nonblockingLzReceive",
      "outputs": [],
      "stateMutability": "nonpayable",
      "type": "function"
    },
    {
      "inputs": [],
      "name": "pause",
      "outputs": [],
      "stateMutability": "nonpayable",
      "type": "function"
    },
    {
      "inputs": [],
      "name": "paused",
      "outputs": [
        {
          "internalType": "bool",
          "name": "",
          "type": "bool"
        }
      ],
      "stateMutability": "view",
      "type": "function"
    },
    {
      "inputs": [],
      "name": "precrime",
      "outputs": [
        {
          "internalType": "address",
          "name": "",
          "type": "address"
        }
      ],
      "stateMutability": "view",
      "type": "function"
    },
    {
      "inputs": [
        {
          "internalType": "uint16",
          "name": "srcEid",
          "type": "uint16"
        },
        {
          "internalType": "address",
          "name": "srcToken",
          "type": "address"
        }
      ],
      "name": "removeTokenMapping",
      "outputs": [],
      "stateMutability": "nonpayable",
      "type": "function"
    },
    {
      "inputs": [
        {
          "internalType": "bytes32",
          "name": "role",
          "type": "bytes32"
        },
        {
          "internalType": "address",
          "name": "account",
          "type": "address"
        }
      ],
      "name": "renounceRole",
      "outputs": [],
      "stateMutability": "nonpayable",
      "type": "function"
    },
    {
      "inputs": [
        {
          "internalType": "uint16",
          "name": "_srcChainId",
          "type": "uint16"
        },
        {
          "internalType": "bytes",
          "name": "_srcAddress",
          "type": "bytes"
        },
        {
          "internalType": "uint64",
          "name": "_nonce",
          "type": "uint64"
        },
        {
          "internalType": "bytes",
          "name": "_payload",
          "type": "bytes"
        }
      ],
      "name": "retryMessage",
      "outputs": [],
      "stateMutability": "payable",
      "type": "function"
    },
    {
      "inputs": [
        {
          "internalType": "bytes32",
          "name": "role",
          "type": "bytes32"
        },
        {
          "internalType": "address",
          "name": "account",
          "type": "address"
        }
      ],
      "name": "revokeRole",
      "outputs": [],
      "stateMutability": "nonpayable",
      "type": "function"
    },
    {
      "inputs": [
        {
          "internalType": "address",
          "name": "_token",
          "type": "address"
        },
        {
          "internalType": "uint16",
          "name": "_dstChainId",
          "type": "uint16"
        },
        {
          "internalType": "bytes",
          "name": "_toAddress",
          "type": "bytes"
        },
        {
          "internalType": "uint256",
          "name": "_amount",
          "type": "uint256"
        }
      ],
      "name": "sendFrom",
      "outputs": [],
      "stateMutability": "payable",
      "type": "function"
    },
    {
      "inputs": [
        {
          "internalType": "uint16",
          "name": "_version",
          "type": "uint16"
        },
        {
          "internalType": "uint16",
          "name": "_chainId",
          "type": "uint16"
        },
        {
          "internalType": "uint256",
          "name": "_configType",
          "type": "uint256"
        },
        {
          "internalType": "bytes",
          "name": "_config",
          "type": "bytes"
        }
      ],
      "name": "setConfig",
      "outputs": [],
      "stateMutability": "nonpayable",
      "type": "function"
    },
    {
      "inputs": [
        {
          "internalType": "uint16",
          "name": "_dstChainId",
          "type": "uint16"
        },
        {
          "internalType": "uint16",
          "name": "_packetType",
          "type": "uint16"
        },
        {
          "internalType": "uint256",
          "name": "_minGas",
          "type": "uint256"
        }
      ],
      "name": "setMinDstGas",
      "outputs": [],
      "stateMutability": "nonpayable",
      "type": "function"
    },
    {
      "inputs": [
        {
          "internalType": "address",
          "name": "_precrime",
          "type": "address"
        }
      ],
      "name": "setPrecrime",
      "outputs": [],
      "stateMutability": "nonpayable",
      "type": "function"
    },
    {
      "inputs": [
        {
          "internalType": "uint16",
          "name": "_version",
          "type": "uint16"
        }
      ],
      "name": "setReceiveVersion",
      "outputs": [],
      "stateMutability": "nonpayable",
      "type": "function"
    },
    {
      "inputs": [
        {
          "internalType": "uint16",
          "name": "_version",
          "type": "uint16"
        }
      ],
      "name": "setSendVersion",
      "outputs": [],
      "stateMutability": "nonpayable",
      "type": "function"
    },
    {
      "inputs": [
        {
          "internalType": "address",
          "name": "_timelock",
          "type": "address"
        }
      ],
      "name": "setTimelock",
      "outputs": [],
      "stateMutability": "nonpayable",
      "type": "function"
    },
    {
      "inputs": [
        {
          "internalType": "uint16",
          "name": "_srcChainId",
          "type": "uint16"
        },
        {
          "internalType": "bytes",
          "name": "_path",
          "type": "bytes"
        }
      ],
      "name": "setTrustedRemote",
      "outputs": [],
      "stateMutability": "nonpayable",
      "type": "function"
    },
    {
      "inputs": [
        {
          "internalType": "uint16",
          "name": "_remoteChainId",
          "type": "uint16"
        },
        {
          "internalType": "bytes",
          "name": "_remoteAddress",
          "type": "bytes"
        }
      ],
      "name": "setTrustedRemoteAddress",
      "outputs": [],
      "stateMutability": "nonpayable",
      "type": "function"
    },
    {
      "inputs": [
        {
          "internalType": "bool",
          "name": "_useCustomAdapterParams",
          "type": "bool"
        }
      ],
      "name": "setUseCustomAdapterParams",
      "outputs": [],
      "stateMutability": "nonpayable",
      "type": "function"
    },
    {
      "inputs": [
        {
          "internalType": "bytes4",
          "name": "interfaceId",
          "type": "bytes4"
        }
      ],
      "name": "supportsInterface",
      "outputs": [
        {
          "internalType": "bool",
          "name": "",
          "type": "bool"
        }
      ],
      "stateMutability": "view",
      "type": "function"
    },
    {
      "inputs": [],
      "name": "timelock",
      "outputs": [
        {
          "internalType": "address",
          "name": "",
          "type": "address"
        }
      ],
      "stateMutability": "view",
      "type": "function"
    },
    {
      "inputs": [],
      "name": "token",
      "outputs": [
        {
          "internalType": "address",
          "name": "",
          "type": "address"
        }
      ],
      "stateMutability": "view",
      "type": "function"
    },
    {
      "inputs": [
        {
          "internalType": "uint16",
          "name": "srcEid",
          "type": "uint16"
        },
        {
          "internalType": "address",
          "name": "srcToken",
          "type": "address"
        }
      ],
      "name": "tokenMapping",
      "outputs": [
        {
          "components": [
            {
              "internalType": "uint16",
              "name": "srcEid",
              "type": "uint16"
            },
            {
              "internalType": "address",
              "name": "srcToken",
              "type": "address"
            },
            {
              "internalType": "address",
              "name": "dstToken",
              "type": "address"
            }
          ],
          "internalType": "struct BaseProxyOFT.LaneDetail",
          "name": "",
          "type": "tuple"
        }
      ],
      "stateMutability": "view",
      "type": "function"
    },
    {
      "inputs": [
        {
          "internalType": "uint16",
          "name": "",
          "type": "uint16"
        }
      ],
      "name": "trustedRemoteLookup",
      "outputs": [
        {
          "internalType": "bytes",
          "name": "",
          "type": "bytes"
        }
      ],
      "stateMutability": "view",
      "type": "function"
    },
    {
      "inputs": [],
      "name": "unPause",
      "outputs": [],
      "stateMutability": "nonpayable",
      "type": "function"
    },
    {
      "inputs": [
        {
          "internalType": "uint16",
          "name": "srcEid",
          "type": "uint16"
        },
        {
          "internalType": "address",
          "name": "srcToken",
          "type": "address"
        },
        {
          "internalType": "address",
          "name": "dstToken",
          "type": "address"
        }
      ],
      "name": "updateTokenMapping",
      "outputs": [],
      "stateMutability": "nonpayable",
      "type": "function"
    },
    {
      "inputs": [],
      "name": "useCustomAdapterParams",
      "outputs": [
        {
          "internalType": "bool",
          "name": "",
          "type": "bool"
        }
      ],
      "stateMutability": "view",
      "type": "function"
    },
    {
      "inputs": [],
      "name": "version",
      "outputs": [
        {
          "internalType": "enum BaseProxyOFT.VERSION",
          "name": "",
          "type": "uint8"
        }
      ],
      "stateMutability": "pure",
      "type": "function"
    }
  ],
  "bytecode": "0x60806040523480156200001157600080fd5b506200001c62000022565b620000e3565b600054610100900460ff16156200008f5760405162461bcd60e51b815260206004820152602760248201527f496e697469616c697a61626c653a20636f6e747261637420697320696e697469604482015266616c697a696e6760c81b606482015260840160405180910390fd5b60005460ff90811614620000e1576000805460ff191660ff9081179091556040519081527f7f26b83ff96e1f2b6a682f133852f6798a09c465da95921460cefb38474024989060200160405180910390a15b565b61419b80620000f36000396000f3fe6080604052600436106102c85760003560e01c80639f38369a11610175578063ca15c873116100dc578063eab45d9c11610095578063f09c56991161006f578063f09c5699146108d8578063f5ecbdbc146108f8578063f7b188a514610918578063fc0c546a1461092d57600080fd5b8063eab45d9c1461087d578063eb8d72b71461089d578063ed629c5c146108bd57600080fd5b8063ca15c873146107c9578063cbed8b9c146107e9578063d1deba1f14610809578063d33219b41461081c578063d547741f1461083d578063df2a5b3b1461085d57600080fd5b8063b353aaa71161012e578063b353aaa714610720578063b414275d14610740578063b44e15e514610760578063baf3292d14610773578063bdacb30314610793578063c4461834146107b357600080fd5b80639f38369a14610676578063a217fddf1461047c578063a6c3d16514610696578063a7f342b0146106b6578063a9e48ca7146106d6578063af3fb21c1461070b57600080fd5b8063485cc9551161023457806371a86e91116101ed5780639010d07c116101c75780639010d07c146105e757806391d148541461061f5780639358928b1461063f578063950c8a741461065657600080fd5b806371a86e91146105855780637533d788146105a55780638456cb59146105d257600080fd5b8063485cc955146104915780634ae33529146104b157806354fd4d50146104de5780635b8c41e6146104fa5780635c975abb1461054a57806366ad5c8a1461056557600080fd5b80632f2ff15d116102865780632f2ff15d146103da57806336568abe146103fa57806336c6dd951461041a5780633d8b38f61461043c57806342d65a8d1461045c578063447705151461047c57600080fd5b80621d3567146102cd57806301ffc9a7146102ef578063078108671461032457806307e0db171461036a57806310ddb1371461038a578063248a9ca3146103aa575b600080fd5b3480156102d957600080fd5b506102ed6102e8366004613352565b61094e565b005b3480156102fb57600080fd5b5061030f61030a3660046133e7565b610b6a565b60405190151581526020015b60405180910390f35b34801561033057600080fd5b5061035c61033f366004613411565b60fc60209081526000928352604080842090915290825290205481565b60405190815260200161031b565b34801561037657600080fd5b506102ed61038536600461343d565b610b95565b34801561039657600080fd5b506102ed6103a536600461343d565b610c04565b3480156103b657600080fd5b5061035c6103c536600461345a565b60009081526065602052604090206001015490565b3480156103e657600080fd5b506102ed6103f5366004613488565b610c42565b34801561040657600080fd5b506102ed610415366004613488565b610c6c565b34801561042657600080fd5b5061042f610cea565b60405161031b91906134b8565b34801561044857600080fd5b5061030f61045736600461352d565b610dff565b34801561046857600080fd5b506102ed61047736600461352d565b610ecb565b34801561048857600080fd5b5061035c600081565b34801561049d57600080fd5b506102ed6104ac366004613581565b610f37565b3480156104bd57600080fd5b506104d16104cc3660046135af565b61104c565b60405161031b91906135cd565b3480156104ea57600080fd5b50600160405161031b9190613602565b34801561050657600080fd5b5061035c6105153660046136ed565b61012e602090815260009384526040808520845180860184018051928152908401958401959095209452929052825290205481565b34801561055657600080fd5b506101965461030f9060ff1681565b34801561057157600080fd5b506102ed61058036600461374c565b611116565b34801561059157600080fd5b506102ed6105a03660046137d2565b611186565b3480156105b157600080fd5b506105c56105c036600461343d565b6112f8565b60405161031b919061386d565b3480156105de57600080fd5b506102ed611392565b3480156105f357600080fd5b50610607610602366004613880565b6113ac565b6040516001600160a01b03909116815260200161031b565b34801561062b57600080fd5b5061030f61063a366004613488565b6113cb565b34801561064b57600080fd5b5061035c6101955481565b34801561066257600080fd5b5060fd54610607906001600160a01b031681565b34801561068257600080fd5b506105c561069136600461343d565b6113f6565b3480156106a257600080fd5b506102ed6106b136600461352d565b611505565b3480156106c257600080fd5b506102ed6106d13660046135af565b611583565b3480156106e257600080fd5b506106f66106f13660046138a2565b61167b565b6040805192835260208301919091520161031b565b34801561071757600080fd5b5061035c600181565b34801561072c57600080fd5b5060fa54610607906001600160a01b031681565b34801561074c57600080fd5b506102ed61075b3660046137d2565b611737565b6102ed61076e3660046138a2565b61189b565b34801561077f57600080fd5b506102ed61078e36600461390e565b6118ef565b34801561079f57600080fd5b506102ed6107ae36600461390e565b61194e565b3480156107bf57600080fd5b5061035c61271081565b3480156107d557600080fd5b5061035c6107e436600461345a565b6119a4565b3480156107f557600080fd5b506102ed61080436600461392b565b6119bb565b6102ed61081736600461374c565b611a36565b34801561082857600080fd5b5061019a54610607906001600160a01b031681565b34801561084957600080fd5b506102ed610858366004613488565b611b8a565b34801561086957600080fd5b506102ed61087836600461399d565b611baf565b34801561088957600080fd5b506102ed6108983660046139ec565b611c63565b3480156108a957600080fd5b506102ed6108b836600461352d565b611caf565b3480156108c957600080fd5b506101615461030f9060ff1681565b3480156108e457600080fd5b5061030f6108f33660046135af565b611d0b565b34801561090457600080fd5b506105c5610913366004613a09565b611d5b565b34801561092457600080fd5b506102ed611df0565b34801561093957600080fd5b5061019454610607906001600160a01b031681565b60fa546001600160a01b0316336001600160a01b0316146109b65760405162461bcd60e51b815260206004820152601e60248201527f4c7a4170703a20696e76616c696420656e64706f696e742063616c6c6572000060448201526064015b60405180910390fd5b61ffff8616600090815260fb6020526040812080546109d490613a5a565b80601f0160208091040260200160405190810160405280929190818152602001828054610a0090613a5a565b8015610a4d5780601f10610a2257610100808354040283529160200191610a4d565b820191906000526020600020905b815481529060010190602001808311610a3057829003601f168201915b50505050509050805186869050148015610a68575060008151115b8015610a90575080516020820120604051610a869088908890613a94565b6040518091039020145b610aeb5760405162461bcd60e51b815260206004820152602660248201527f4c7a4170703a20696e76616c696420736f757263652073656e64696e6720636f6044820152651b9d1c9858dd60d21b60648201526084016109ad565b610b618787878080601f01602080910402602001604051908101604052809392919081815260200183838082843760009201919091525050604080516020601f8a018190048102820181019092528881528a935091508890889081908401838280828437600092019190915250611e0792505050565b50505050505050565b60006001600160e01b03198216635a05180f60e01b1480610b8f5750610b8f82611ef9565b92915050565b610b9f6000611f2e565b60fa546040516307e0db1760e01b815261ffff831660048201526001600160a01b03909116906307e0db17906024015b600060405180830381600087803b158015610be957600080fd5b505af1158015610bfd573d6000803e3d6000fd5b5050505050565b610c0e6000611f2e565b60fa546040516310ddb13760e01b815261ffff831660048201526001600160a01b03909116906310ddb13790602401610bcf565b600082815260656020526040902060010154610c5d81611f2e565b610c678383611f3b565b505050565b6001600160a01b0381163314610cdc5760405162461bcd60e51b815260206004820152602f60248201527f416363657373436f6e74726f6c3a2063616e206f6e6c792072656e6f756e636560448201526e103937b632b9903337b91039b2b63360891b60648201526084016109ad565b610ce68282611f5d565b5050565b60606000610cf9610197611f7f565b90506000816001600160401b03811115610d1557610d1561362a565b604051908082528060200260200182016040528015610d6057816020015b6040805160608101825260008082526020808301829052928201528252600019909201910181610d335790505b50905060005b82811015610df8576101996000610d7f61019784611f89565b815260208082019290925260409081016000208151606081018352815461ffff811682526001600160a01b0362010000909104811694820194909452600190910154909216908201528251839083908110610ddc57610ddc613aa4565b602002602001018190525080610df190613ad0565b9050610d66565b5092915050565b61ffff8316600090815260fb602052604081208054829190610e2090613a5a565b80601f0160208091040260200160405190810160405280929190818152602001828054610e4c90613a5a565b8015610e995780601f10610e6e57610100808354040283529160200191610e99565b820191906000526020600020905b815481529060010190602001808311610e7c57829003601f168201915b505050505090508383604051610eb0929190613a94565b60405180910390208180519060200120149150509392505050565b610ed56000611f2e565b60fa546040516342d65a8d60e01b81526001600160a01b03909116906342d65a8d90610f0990869086908690600401613b12565b600060405180830381600087803b158015610f2357600080fd5b505af1158015610b61573d6000803e3d6000fd5b600054610100900460ff1615808015610f575750600054600160ff909116105b80610f715750303b158015610f71575060005460ff166001145b610fd45760405162461bcd60e51b815260206004820152602e60248201527f496e697469616c697a61626c653a20636f6e747261637420697320616c72656160448201526d191e481a5b9a5d1a585b1a5e995960921b60648201526084016109ad565b6000805460ff191660011790558015610ff7576000805461ff0019166101001790555b6110018383611f95565b8015610c67576000805461ff0019169055604051600181527f7f26b83ff96e1f2b6a682f133852f6798a09c465da95921460cefb3847402498906020015b60405180910390a1505050565b60408051606080820183526000808352602080840182905283850191909152835161ffff8716818301526001600160a01b03861681860152845180820386018152920190935280519201919091206110a661019782611fc6565b6110c3576040516309a93a6560e41b815260040160405180910390fd5b600090815261019960209081526040918290208251606081018452815461ffff811682526201000090046001600160a01b0390811693820193909352600190910154909116918101919091529392505050565b3330146111745760405162461bcd60e51b815260206004820152602660248201527f4e6f6e626c6f636b696e674c7a4170703a2063616c6c6572206d7573742062656044820152650204c7a4170760d41b60648201526084016109ad565b61118084848484611fde565b50505050565b8261ffff16806000036111ac5760405163273e150360e21b815260040160405180910390fd5b826001600160a01b0381166111d4576040516342bcdf7f60e11b815260040160405180910390fd5b826001600160a01b0381166111fc576040516342bcdf7f60e11b815260040160405180910390fd5b6112066000611f2e565b6040805161ffff88166020808301919091526001600160a01b038816828401528251808303840181526060909201909252805191012061124861019782611fc6565b156112665760405163645e8add60e11b815260040160405180910390fd5b61127261019782612048565b506040805160608101825261ffff98891681526001600160a01b03978816602080830191825297891682840190815260009485526101999098529190922091518254915198166001600160b01b031990911617620100009787169790970296909617865550509051600190930180546001600160a01b0319169390921692909217905550565b60fb602052600090815260409020805461131190613a5a565b80601f016020809104026020016040519081016040528092919081815260200182805461133d90613a5a565b801561138a5780601f1061135f5761010080835404028352916020019161138a565b820191906000526020600020905b81548152906001019060200180831161136d57829003601f168201915b505050505081565b61139c6000611f2e565b610196805460ff19166001179055565b60008281526097602052604081206113c49083611f89565b9392505050565b60009182526065602090815260408084206001600160a01b0393909316845291905290205460ff1690565b61ffff8116600090815260fb602052604081208054606092919061141990613a5a565b80601f016020809104026020016040519081016040528092919081815260200182805461144590613a5a565b80156114925780601f1061146757610100808354040283529160200191611492565b820191906000526020600020905b81548152906001019060200180831161147557829003601f168201915b5050505050905080516000036114ea5760405162461bcd60e51b815260206004820152601d60248201527f4c7a4170703a206e6f20747275737465642070617468207265636f726400000060448201526064016109ad565b6113c46000601483516114fd9190613b30565b839190612054565b61150f6000611f2e565b81813060405160200161152493929190613b43565b60408051601f1981840301815291815261ffff8516600090815260fb602052209061154f9082613baf565b507f8c0400cfe2d1199b1a725c78960bcc2a344d869b80590d0f2bd005db15a572ce83838360405161103f93929190613b12565b8161ffff16806000036115a95760405163273e150360e21b815260040160405180910390fd5b816001600160a01b0381166115d1576040516342bcdf7f60e11b815260040160405180910390fd5b6115db6000611f2e565b6040805161ffff86166020808301919091526001600160a01b038616828401528251808303840181526060909201909252805191012061161d61019782611fc6565b61163a576040516309a93a6560e41b815260040160405180910390fd5b61164661019782612161565b5060009081526101996020526040902080546001600160b01b031916815560010180546001600160a01b031916905550505050565b60008060008088878787604051602001611699959493929190613c6e565b60408051601f1981840301815260fa546000808552602085019384905263040a7bb160e41b9093529093506001600160a01b0316916340a7bb10916116e8918b91309187919060248101613cae565b6040805180830381865afa158015611704573d6000803e3d6000fd5b505050506040513d601f19601f820116820180604052508101906117289190613d02565b92509250509550959350505050565b8261ffff168060000361175d5760405163273e150360e21b815260040160405180910390fd5b826001600160a01b038116611785576040516342bcdf7f60e11b815260040160405180910390fd5b826001600160a01b0381166117ad576040516342bcdf7f60e11b815260040160405180910390fd5b6117b76000611f2e565b6040805161ffff88166020808301919091526001600160a01b03881682840152825180830384018152606090920190925280519101206117f961019782611fc6565b611816576040516309a93a6560e41b815260040160405180910390fd5b6040805160608101825261ffff98891681526001600160a01b03978816602080830191825297891682840190815260009485526101999098529190922091518254915198166001600160b01b031990911617620100009787169790970296909617865550509051600190930180546001600160a01b0319169390921692909217905550565b610bfd85338686868080601f016020809104026020016040519081016040528093929190818152602001838380828437600092018290525060408051828152602081019091528a945033935090915061216d565b6118f96000611f2e565b60fd80546001600160a01b0319166001600160a01b0383169081179091556040519081527f5db758e995a17ec1ad84bdef7e8c3293a0bd6179bcce400dff5d4c3d87db726b906020015b60405180910390a150565b806001600160a01b038116611976576040516342bcdf7f60e11b815260040160405180910390fd5b6119806000611f2e565b5061019a80546001600160a01b0319166001600160a01b0392909216919091179055565b6000818152609760205260408120610b8f90611f7f565b6119c56000611f2e565b60fa546040516332fb62e760e21b81526001600160a01b039091169063cbed8b9c906119fd9088908890889088908890600401613d26565b600060405180830381600087803b158015611a1757600080fd5b505af1158015611a2b573d6000803e3d6000fd5b505050505050505050565b61ffff8416600090815261012e60205260408082209051611a58908690613d54565b90815260408051602092819003830190206001600160401b03861660009081529252902054905080611ad85760405162461bcd60e51b815260206004820152602360248201527f4e6f6e626c6f636b696e674c7a4170703a206e6f2073746f726564206d65737360448201526261676560e81b60648201526084016109ad565b815160208301208114611b375760405162461bcd60e51b815260206004820152602160248201527f4e6f6e626c6f636b696e674c7a4170703a20696e76616c6964207061796c6f616044820152601960fa1b60648201526084016109ad565b61ffff8516600090815261012e60205260408082209051611b59908790613d54565b90815260408051602092819003830190206001600160401b03871660009081529252902055610bfd85858585611fde565b600082815260656020526040902060010154611ba581611f2e565b610c678383611f5d565b611bb96000611f2e565b60008111611c015760405162461bcd60e51b81526020600482015260156024820152744c7a4170703a20696e76616c6964206d696e47617360581b60448201526064016109ad565b61ffff838116600081815260fc602090815260408083209487168084529482529182902085905581519283528201929092529081018290527f9d5c7c0b934da8fefa9c7760c98383778a12dfbfc0c3b3106518f43fb9508ac09060600161103f565b611c6d6000611f2e565b610161805460ff19168215159081179091556040519081527f1584ad594a70cbe1e6515592e1272a987d922b097ead875069cebe8b40c004a490602001611943565b611cb96000611f2e565b61ffff8316600090815260fb60205260409020611cd7828483613d70565b507ffa41487ad5d6728f0b19276fa1eddc16558578f5109fc39d2dc33c3230470dab83838360405161103f93929190613b12565b6040805161ffff841660208201526001600160a01b038316918101919091526000906113c49060600160405160208183030381529060405280519060200120610197611fc690919063ffffffff16565b60fa54604051633d7b2f6f60e21b815261ffff808716600483015285166024820152306044820152606481018390526060916001600160a01b03169063f5ecbdbc90608401600060405180830381865afa158015611dbd573d6000803e3d6000fd5b505050506040513d6000823e601f3d908101601f19168201604052611de59190810190613e74565b90505b949350505050565b611dfa6000611f2e565b610196805460ff19169055565b604051633356ae4560e11b815230906366ad5c8a90611e30908790879087908790600401613ea8565b600060405180830381600087803b158015611e4a57600080fd5b505af1925050508015611e5b575060015b61118057808051906020012061012e60008661ffff1661ffff16815260200190815260200160002084604051611e919190613d54565b9081526040805191829003602090810183206001600160401b0387166000908152915220919091557fe6f254030bcb01ffd20558175c13fcaed6d1520be7becee4c961b65f79243b0d90611eec908690869086908690613ea8565b60405180910390a1611180565b60006001600160e01b03198216637965db0b60e01b1480610b8f57506301ffc9a760e01b6001600160e01b0319831614610b8f565b611f388133612222565b50565b611f45828261227b565b6000828152609760205260409020610c679082612301565b611f678282612316565b6000828152609760205260409020610c67908261237d565b6000610b8f825490565b60006113c48383612392565b600054610100900460ff16611fbc5760405162461bcd60e51b81526004016109ad90613ee6565b610ce682826123bc565b600081815260018301602052604081205415156113c4565b602081015161ffff811660000361200057611ffb858585856123ed565b610bfd565b60405162461bcd60e51b815260206004820152601c60248201527f4f4654436f72653a20756e6b6e6f776e207061636b657420747970650000000060448201526064016109ad565b60006113c48383612487565b60608161206281601f613f31565b10156120a15760405162461bcd60e51b815260206004820152600e60248201526d736c6963655f6f766572666c6f7760901b60448201526064016109ad565b6120ab8284613f31565b845110156120ef5760405162461bcd60e51b8152602060048201526011602482015270736c6963655f6f75744f66426f756e647360781b60448201526064016109ad565b60608215801561210e5760405191506000825260208201604052612158565b6040519150601f8416801560200281840101858101878315602002848b0101015b8183101561214757805183526020928301920161212f565b5050858452601f01601f1916604052505b50949350505050565b60006113c483836124d6565b61217b8660008360006125c9565b600061218a8989898989612644565b90506000808a88846040516020016121a59493929190613f44565b60405160208183030381529060405290506121c48882878787346127e8565b886001600160a01b03168a6001600160a01b03168961ffff167f862438c1aa68cd638fd7f177afa4b83b1297e06dc6fcaa6cabb5ed8ce6b1de758a8660405161220e929190613f82565b60405180910390a450505050505050505050565b61222c82826113cb565b610ce65761223981612966565b612244836020612978565b604051602001612255929190613fa4565b60408051601f198184030181529082905262461bcd60e51b82526109ad9160040161386d565b61228582826113cb565b610ce65760008281526065602090815260408083206001600160a01b03851684529091529020805460ff191660011790556122bd3390565b6001600160a01b0316816001600160a01b0316837f2f8788117e7eff1d82e926ec794901d17c78024a50270940304540a733656f0d60405160405180910390a45050565b60006113c4836001600160a01b038416612487565b61232082826113cb565b15610ce65760008281526065602090815260408083206001600160a01b0385168085529252808320805460ff1916905551339285917ff6391f5c32d9c69d2a47ea670b442974b53935d1edc7fd64eb21e047a839171b9190a45050565b60006113c4836001600160a01b0384166124d6565b60008260000182815481106123a9576123a9613aa4565b9060005260206000200154905092915050565b600054610100900460ff166123e35760405162461bcd60e51b81526004016109ad90613ee6565b610ce68282612b13565b6000806000838060200190518101906124069190614019565b919550935091506000905061241b8382612b44565b905061242984898385612ba9565b9150806001600160a01b03168861ffff16856001600160a01b03167faec3ee8f36dfc1298802f2e6692b3abba814ac6532cadf6c7e1c0e13610f1b688560405161247591815260200190565b60405180910390a45050505050505050565b60008181526001830160205260408120546124ce57508154600181810184556000848152602080822090930184905584548482528286019093526040902091909155610b8f565b506000610b8f565b600081815260018301602052604081205480156125bf5760006124fa600183613b30565b855490915060009061250e90600190613b30565b905081811461257357600086600001828154811061252e5761252e613aa4565b906000526020600020015490508087600001848154811061255157612551613aa4565b6000918252602080832090910192909255918252600188019052604090208390555b855486908061258457612584614084565b600190038181906000526020600020016000905590558560010160008681526020019081526020016000206000905560019350505050610b8f565b6000915050610b8f565b6101615460ff16156125e6576125e184848484613119565b611180565b8151156111805760405162461bcd60e51b815260206004820152602660248201527f4f4654436f72653a205f61646170746572506172616d73206d7573742062652060448201526532b6b83a3c9760d11b60648201526084016109ad565b6101965460009060ff161561266c576040516313d0ff5960e31b815260040160405180910390fd5b6001600160a01b0385163314612695576040516308f4d2af60e21b815260040160405180910390fd5b6040516370a0823160e01b81526001600160a01b038681166004830152600091908816906370a0823190602401602060405180830381865afa1580156126df573d6000803e3d6000fd5b505050506040513d601f19601f82011682018060405250810190612703919061409a565b60405163079cc67960e41b81526001600160a01b03888116600483015260248201869052919250908816906379cc679090604401600060405180830381600087803b15801561275157600080fd5b505af1158015612765573d6000803e3d6000fd5b50506040516370a0823160e01b81526001600160a01b0389811660048301528a1692506370a082319150602401602060405180830381865afa1580156127af573d6000803e3d6000fd5b505050506040513d601f19601f820116820180604052508101906127d3919061409a565b6127dd9082613b30565b979650505050505050565b61ffff8616600090815260fb60205260408120805461280690613a5a565b80601f016020809104026020016040519081016040528092919081815260200182805461283290613a5a565b801561287f5780601f106128545761010080835404028352916020019161287f565b820191906000526020600020905b81548152906001019060200180831161286257829003601f168201915b5050505050905080516000036128f05760405162461bcd60e51b815260206004820152603060248201527f4c7a4170703a2064657374696e6174696f6e20636861696e206973206e6f742060448201526f61207472757374656420736f7572636560801b60648201526084016109ad565b60fa5460405162c5803160e81b81526001600160a01b039091169063c580310090849061292b908b9086908c908c908c908c906004016140b3565b6000604051808303818588803b15801561294457600080fd5b505af1158015612958573d6000803e3d6000fd5b505050505050505050505050565b6060610b8f6001600160a01b03831660145b6060600061298783600261411a565b612992906002613f31565b6001600160401b038111156129a9576129a961362a565b6040519080825280601f01601f1916602001820160405280156129d3576020820181803683370190505b509050600360fc1b816000815181106129ee576129ee613aa4565b60200101906001600160f81b031916908160001a905350600f60fb1b81600181518110612a1d57612a1d613aa4565b60200101906001600160f81b031916908160001a9053506000612a4184600261411a565b612a4c906001613f31565b90505b6001811115612ac4576f181899199a1a9b1b9c1cb0b131b232b360811b85600f1660108110612a8057612a80613aa4565b1a60f81b828281518110612a9657612a96613aa4565b60200101906001600160f81b031916908160001a90535060049490941c93612abd81614131565b9050612a4f565b5083156113c45760405162461bcd60e51b815260206004820181905260248201527f537472696e67733a20686578206c656e67746820696e73756666696369656e7460448201526064016109ad565b600054610100900460ff16612b3a5760405162461bcd60e51b81526004016109ad90613ee6565b610ce68282613200565b6000612b51826014613f31565b83511015612b995760405162461bcd60e51b8152602060048201526015602482015274746f416464726573735f6f75744f66426f756e647360581b60448201526064016109ad565b500160200151600160601b900490565b600080612bb6858761104c565b60408101519091506001600160a01b038116612be5576040516342bcdf7f60e11b815260040160405180910390fd5b61019a5481906001600160a01b0316612d4d576040516370a0823160e01b81526001600160a01b038781166004830152600091908316906370a0823190602401602060405180830381865afa158015612c42573d6000803e3d6000fd5b505050506040513d601f19601f82011682018060405250810190612c66919061409a565b6040516340c10f1960e01b81526001600160a01b03898116600483015260248201899052919250908316906340c10f1990604401600060405180830381600087803b158015612cb457600080fd5b505af1158015612cc8573d6000803e3d6000fd5b50506040516370a0823160e01b81526001600160a01b038a81166004830152849350851691506370a0823190602401602060405180830381865afa158015612d14573d6000803e3d6000fd5b505050506040513d601f19601f82011682018060405250810190612d38919061409a565b612d429190613b30565b945050505050611de8565b61019a546040516320a8fc9b60e11b81526001600160a01b038481166004830152602482018890526000921690634151f93690604401602060405180830381865afa158015612da0573d6000803e3d6000fd5b505050506040513d601f19601f82011682018060405250810190612dc49190614148565b90508015612fae5761019a546040516370a0823160e01b81526001600160a01b0391821660048201526000918416906370a0823190602401602060405180830381865afa158015612e19573d6000803e3d6000fd5b505050506040513d601f19601f82011682018060405250810190612e3d919061409a565b61019a546040516340c10f1960e01b81526001600160a01b039182166004820152602481018a90529192508416906340c10f1990604401600060405180830381600087803b158015612e8e57600080fd5b505af1158015612ea2573d6000803e3d6000fd5b505061019a546040516391b5e57160e01b81526001600160a01b0388811660048301528c81166024830152604482018c905290911692506391b5e57191506064016020604051808303816000875af1158015612f02573d6000803e3d6000fd5b505050506040513d601f19601f82011682018060405250810190612f26919061409a565b5061019a546040516370a0823160e01b81526001600160a01b03918216600482015282918516906370a08231906024015b602060405180830381865afa158015612f74573d6000803e3d6000fd5b505050506040513d601f19601f82011682018060405250810190612f98919061409a565b612fa29190613b30565b95505050505050611de8565b6040516370a0823160e01b81526001600160a01b038881166004830152600091908416906370a0823190602401602060405180830381865afa158015612ff8573d6000803e3d6000fd5b505050506040513d601f19601f8201168201806040525081019061301c919061409a565b6040516340c10f1960e01b81526001600160a01b038a81166004830152602482018a9052919250908416906340c10f1990604401600060405180830381600087803b15801561306a57600080fd5b505af115801561307e573d6000803e3d6000fd5b505061019a5460405163ea783e4160e01b81526001600160a01b038881166004830152602482018c9052909116925063ea783e419150604401600060405180830381600087803b1580156130d157600080fd5b505af11580156130e5573d6000803e3d6000fd5b50506040516370a0823160e01b81526001600160a01b038b81166004830152849350861691506370a0823190602401612f57565b60006131248361324b565b61ffff808716600090815260fc6020908152604080832093891683529290529081205491925090613156908490613f31565b9050600081116131a85760405162461bcd60e51b815260206004820152601a60248201527f4c7a4170703a206d696e4761734c696d6974206e6f742073657400000000000060448201526064016109ad565b808210156131f85760405162461bcd60e51b815260206004820152601b60248201527f4c7a4170703a20676173206c696d697420697320746f6f206c6f77000000000060448201526064016109ad565b505050505050565b600054610100900460ff166132275760405162461bcd60e51b81526004016109ad90613ee6565b60fa80546001600160a01b0319166001600160a01b038416179055610ce6816132a7565b600060228251101561329f5760405162461bcd60e51b815260206004820152601c60248201527f4c7a4170703a20696e76616c69642061646170746572506172616d730000000060448201526064016109ad565b506022015190565b600054610100900460ff166132ce5760405162461bcd60e51b81526004016109ad90613ee6565b611f38600082610ce68282611f3b565b61ffff81168114611f3857600080fd5b60008083601f84011261330057600080fd5b5081356001600160401b0381111561331757600080fd5b60208301915083602082850101111561332f57600080fd5b9250929050565b80356001600160401b038116811461334d57600080fd5b919050565b6000806000806000806080878903121561336b57600080fd5b8635613376816132de565b955060208701356001600160401b038082111561339257600080fd5b61339e8a838b016132ee565b90975095508591506133b260408a01613336565b945060608901359150808211156133c857600080fd5b506133d589828a016132ee565b979a9699509497509295939492505050565b6000602082840312156133f957600080fd5b81356001600160e01b0319811681146113c457600080fd5b6000806040838503121561342457600080fd5b823561342f816132de565b946020939093013593505050565b60006020828403121561344f57600080fd5b81356113c4816132de565b60006020828403121561346c57600080fd5b5035919050565b6001600160a01b0381168114611f3857600080fd5b6000806040838503121561349b57600080fd5b8235915060208301356134ad81613473565b809150509250929050565b6020808252825182820181905260009190848201906040850190845b818110156135215761350e838551805161ffff1682526020808201516001600160a01b039081169184019190915260409182015116910152565b92840192606092909201916001016134d4565b50909695505050505050565b60008060006040848603121561354257600080fd5b833561354d816132de565b925060208401356001600160401b0381111561356857600080fd5b613574868287016132ee565b9497909650939450505050565b6000806040838503121561359457600080fd5b823561359f81613473565b915060208301356134ad81613473565b600080604083850312156135c257600080fd5b823561359f816132de565b60608101610b8f8284805161ffff1682526020808201516001600160a01b039081169184019190915260409182015116910152565b602081016003831061362457634e487b7160e01b600052602160045260246000fd5b91905290565b634e487b7160e01b600052604160045260246000fd5b604051601f8201601f191681016001600160401b03811182821017156136685761366861362a565b604052919050565b60006001600160401b038211156136895761368961362a565b50601f01601f191660200190565b600082601f8301126136a857600080fd5b81356136bb6136b682613670565b613640565b8181528460208386010111156136d057600080fd5b816020850160208301376000918101602001919091529392505050565b60008060006060848603121561370257600080fd5b833561370d816132de565b925060208401356001600160401b0381111561372857600080fd5b61373486828701613697565b92505061374360408501613336565b90509250925092565b6000806000806080858703121561376257600080fd5b843561376d816132de565b935060208501356001600160401b038082111561378957600080fd5b61379588838901613697565b94506137a360408801613336565b935060608701359150808211156137b957600080fd5b506137c687828801613697565b91505092959194509250565b6000806000606084860312156137e757600080fd5b83356137f2816132de565b9250602084013561380281613473565b9150604084013561381281613473565b809150509250925092565b60005b83811015613838578181015183820152602001613820565b50506000910152565b6000815180845261385981602086016020860161381d565b601f01601f19169290920160200192915050565b6020815260006113c46020830184613841565b6000806040838503121561389357600080fd5b50508035926020909101359150565b6000806000806000608086880312156138ba57600080fd5b85356138c581613473565b945060208601356138d5816132de565b935060408601356001600160401b038111156138f057600080fd5b6138fc888289016132ee565b96999598509660600135949350505050565b60006020828403121561392057600080fd5b81356113c481613473565b60008060008060006080868803121561394357600080fd5b853561394e816132de565b9450602086013561395e816132de565b93506040860135925060608601356001600160401b0381111561398057600080fd5b61398c888289016132ee565b969995985093965092949392505050565b6000806000606084860312156139b257600080fd5b83356139bd816132de565b925060208401356139cd816132de565b929592945050506040919091013590565b8015158114611f3857600080fd5b6000602082840312156139fe57600080fd5b81356113c4816139de565b60008060008060808587031215613a1f57600080fd5b8435613a2a816132de565b93506020850135613a3a816132de565b92506040850135613a4a81613473565b9396929550929360600135925050565b600181811c90821680613a6e57607f821691505b602082108103613a8e57634e487b7160e01b600052602260045260246000fd5b50919050565b8183823760009101908152919050565b634e487b7160e01b600052603260045260246000fd5b634e487b7160e01b600052601160045260246000fd5b600060018201613ae257613ae2613aba565b5060010190565b81835281816020850137506000828201602090810191909152601f909101601f19169091010190565b61ffff84168152604060208201526000611de5604083018486613ae9565b81810381811115610b8f57610b8f613aba565b8284823760609190911b6bffffffffffffffffffffffff19169101908152601401919050565b601f821115610c6757600081815260208120601f850160051c81016020861015613b905750805b601f850160051c820191505b818110156131f857828155600101613b9c565b81516001600160401b03811115613bc857613bc861362a565b613bdc81613bd68454613a5a565b84613b69565b602080601f831160018114613c115760008415613bf95750858301515b600019600386901b1c1916600185901b1785556131f8565b600085815260208120601f198616915b82811015613c4057888601518255948401946001909101908401613c21565b5085821015613c5e5787850151600019600388901b60f8161c191681555b5050505050600190811b01905550565b60ff861681526001600160a01b0385166020820152608060408201819052600090613c9c9083018587613ae9565b90508260608301529695505050505050565b61ffff861681526001600160a01b038516602082015260a060408201819052600090613cdc90830186613841565b84151560608401528281036080840152613cf68185613841565b98975050505050505050565b60008060408385031215613d1557600080fd5b505080516020909101519092909150565b600061ffff8088168352808716602084015250846040830152608060608301526127dd608083018486613ae9565b60008251613d6681846020870161381d565b9190910192915050565b6001600160401b03831115613d8757613d8761362a565b613d9b83613d958354613a5a565b83613b69565b6000601f841160018114613dcf5760008515613db75750838201355b600019600387901b1c1916600186901b178355610bfd565b600083815260209020601f19861690835b82811015613e005786850135825560209485019460019092019101613de0565b5086821015613e1d5760001960f88860031b161c19848701351681555b505060018560011b0183555050505050565b600082601f830112613e4057600080fd5b8151613e4e6136b682613670565b818152846020838601011115613e6357600080fd5b611de882602083016020870161381d565b600060208284031215613e8657600080fd5b81516001600160401b03811115613e9c57600080fd5b611de884828501613e2f565b61ffff85168152608060208201526000613ec56080830186613841565b6001600160401b038516604084015282810360608401526127dd8185613841565b6020808252602b908201527f496e697469616c697a61626c653a20636f6e7472616374206973206e6f74206960408201526a6e697469616c697a696e6760a81b606082015260800190565b80820180821115610b8f57610b8f613aba565b60ff851681526001600160a01b0384166020820152608060408201819052600090613f7190830185613841565b905082606083015295945050505050565b604081526000613f956040830185613841565b90508260208301529392505050565b7f416363657373436f6e74726f6c3a206163636f756e7420000000000000000000815260008351613fdc81601785016020880161381d565b7001034b99036b4b9b9b4b733903937b6329607d1b601791840191820152835161400d81602884016020880161381d565b01602801949350505050565b6000806000806080858703121561402f57600080fd5b845161403a816132de565b602086015190945061404b81613473565b60408601519093506001600160401b0381111561406757600080fd5b61407387828801613e2f565b606096909601519497939650505050565b634e487b7160e01b600052603160045260246000fd5b6000602082840312156140ac57600080fd5b5051919050565b61ffff8716815260c0602082015260006140d060c0830188613841565b82810360408401526140e28188613841565b6001600160a01b0387811660608601528616608085015283810360a0850152905061410d8185613841565b9998505050505050505050565b8082028115828204841417610b8f57610b8f613aba565b60008161414057614140613aba565b506000190190565b60006020828403121561415a57600080fd5b81516113c4816139de56fea26469706673582212208968ffdb0c215e026eb9b1cbaf80de02fb6dce7a88072d418e4ad63623885b4c64736f6c63430008130033",
  "linkReferences": {},
  "deployedLinkReferences": {}
}