{
  "_format": "hh-sol-artifact-1",
  "contractName": "SafeMint",
  "sourceName": "contracts/SafeMint.sol",
  "abi": [
    {
      "inputs": [],
      "stateMutability": "nonpayable",
      "type": "constructor"
    },
    {
      "anonymous": false,
      "inputs": [
        {
          "indexed": true,
          "internalType": "string",
          "name": "name",
          "type": "string"
        },
        {
          "indexed": true,
          "internalType": "address",
          "name": "arbitrator",
          "type": "address"
        },
        {
          "indexed": false,
          "internalType": "enum ISafeMint.Status",
          "name": "status",
          "type": "uint8"
        }
      ],
      "name": "ArbitrateProject",
      "type": "event"
    },
    {
      "anonymous": false,
      "inputs": [
        {
          "indexed": true,
          "internalType": "string",
          "name": "name",
          "type": "string"
        },
        {
          "indexed": true,
          "internalType": "address",
          "name": "auditor",
          "type": "address"
        },
        {
          "indexed": false,
          "internalType": "uint256",
          "name": "auditPrice",
          "type": "uint256"
        },
        {
          "indexed": false,
          "internalType": "string",
          "name": "comments",
          "type": "string"
        },
        {
          "indexed": false,
          "internalType": "enum ISafeMint.Status",
          "name": "status",
          "type": "uint8"
        }
      ],
      "name": "AuditProject",
      "type": "event"
    },
    {
      "anonymous": false,
      "inputs": [
        {
          "indexed": true,
          "internalType": "string",
          "name": "name",
          "type": "string"
        },
        {
          "indexed": true,
          "internalType": "address",
          "name": "challenger",
          "type": "address"
        },
        {
          "indexed": false,
          "internalType": "uint256",
          "name": "challengePrice",
          "type": "uint256"
        },
        {
          "indexed": false,
          "internalType": "string",
          "name": "comments",
          "type": "string"
        }
      ],
      "name": "ChallengeProject",
      "type": "event"
    },
    {
      "anonymous": false,
      "inputs": [
        {
          "indexed": true,
          "internalType": "string",
          "name": "name",
          "type": "string"
        },
        {
          "indexed": false,
          "internalType": "uint256",
          "name": "startTime",
          "type": "uint256"
        },
        {
          "indexed": false,
          "internalType": "uint256",
          "name": "endTime",
          "type": "uint256"
        },
        {
          "indexed": false,
          "internalType": "string",
          "name": "ipfsAddress",
          "type": "string"
        }
      ],
      "name": "EditProject",
      "type": "event"
    },
    {
      "anonymous": false,
      "inputs": [
        {
          "indexed": true,
          "internalType": "bytes32",
          "name": "role",
          "type": "bytes32"
        },
        {
          "indexed": true,
          "internalType": "address",
          "name": "account",
          "type": "address"
        },
        {
          "indexed": true,
          "internalType": "address",
          "name": "sender",
          "type": "address"
        }
      ],
      "name": "RoleGranted",
      "type": "event"
    },
    {
      "anonymous": false,
      "inputs": [
        {
          "indexed": true,
          "internalType": "bytes32",
          "name": "role",
          "type": "bytes32"
        },
        {
          "indexed": true,
          "internalType": "address",
          "name": "account",
          "type": "address"
        },
        {
          "indexed": true,
          "internalType": "address",
          "name": "sender",
          "type": "address"
        }
      ],
      "name": "RoleRevoked",
      "type": "event"
    },
    {
      "anonymous": false,
      "inputs": [
        {
          "indexed": true,
          "internalType": "string",
          "name": "name",
          "type": "string"
        },
        {
          "indexed": true,
          "internalType": "address",
          "name": "owner",
          "type": "address"
        },
        {
          "indexed": true,
          "internalType": "address",
          "name": "projectContract",
          "type": "address"
        },
        {
          "indexed": false,
          "internalType": "uint256",
          "name": "startTime",
          "type": "uint256"
        },
        {
          "indexed": false,
          "internalType": "uint256",
          "name": "endTime",
          "type": "uint256"
        },
        {
          "indexed": false,
          "internalType": "uint256",
          "name": "projectPrice",
          "type": "uint256"
        },
        {
          "indexed": false,
          "internalType": "string",
          "name": "ipfsAddress",
          "type": "string"
        },
        {
          "indexed": false,
          "internalType": "uint256",
          "name": "projectId",
          "type": "uint256"
        }
      ],
      "name": "SaveProject",
      "type": "event"
    },
    {
      "inputs": [],
      "name": "ARBITRATOR_ROLE",
      "outputs": [
        {
          "internalType": "bytes32",
          "name": "",
          "type": "bytes32"
        }
      ],
      "stateMutability": "view",
      "type": "function"
    },
    {
      "inputs": [],
      "name": "AUDITOR_ROLE",
      "outputs": [
        {
          "internalType": "bytes32",
          "name": "",
          "type": "bytes32"
        }
      ],
      "stateMutability": "view",
      "type": "function"
    },
    {
      "inputs": [
        {
          "internalType": "string",
          "name": "name",
          "type": "string"
        },
        {
          "internalType": "enum ISafeMint.Status",
          "name": "status",
          "type": "uint8"
        }
      ],
      "name": "Arbitrate",
      "outputs": [],
      "stateMutability": "nonpayable",
      "type": "function"
    },
    {
      "inputs": [],
      "name": "DEFAULT_ADMIN_ROLE",
      "outputs": [
        {
          "internalType": "bytes32",
          "name": "",
          "type": "bytes32"
        }
      ],
      "stateMutability": "view",
      "type": "function"
    },
    {
      "inputs": [
        {
          "internalType": "uint256",
          "name": "_price",
          "type": "uint256"
        }
      ],
      "name": "adminSetAuditPrice",
      "outputs": [],
      "stateMutability": "nonpayable",
      "type": "function"
    },
    {
      "inputs": [
        {
          "internalType": "uint256",
          "name": "_price",
          "type": "uint256"
        }
      ],
      "name": "adminSetChellengePrice",
      "outputs": [],
      "stateMutability": "nonpayable",
      "type": "function"
    },
    {
      "inputs": [
        {
          "internalType": "uint256",
          "name": "_duration",
          "type": "uint256"
        }
      ],
      "name": "adminSetDuration",
      "outputs": [],
      "stateMutability": "nonpayable",
      "type": "function"
    },
    {
      "inputs": [
        {
          "internalType": "uint256",
          "name": "_price",
          "type": "uint256"
        }
      ],
      "name": "adminSetProjectPrice",
      "outputs": [],
      "stateMutability": "nonpayable",
      "type": "function"
    },
    {
      "inputs": [
        {
          "internalType": "address payable",
          "name": "to",
          "type": "address"
        }
      ],
      "name": "adminWithdraw",
      "outputs": [],
      "stateMutability": "nonpayable",
      "type": "function"
    },
    {
      "inputs": [
        {
          "internalType": "string",
          "name": "name",
          "type": "string"
        },
        {
          "internalType": "string",
          "name": "comments",
          "type": "string"
        },
        {
          "internalType": "enum ISafeMint.Status",
          "name": "status",
          "type": "uint8"
        }
      ],
      "name": "audit",
      "outputs": [],
      "stateMutability": "payable",
      "type": "function"
    },
    {
      "inputs": [],
      "name": "auditPrice",
      "outputs": [
        {
          "internalType": "uint256",
          "name": "",
          "type": "uint256"
        }
      ],
      "stateMutability": "view",
      "type": "function"
    },
    {
      "inputs": [
        {
          "internalType": "uint256",
          "name": "",
          "type": "uint256"
        },
        {
          "internalType": "uint256",
          "name": "",
          "type": "uint256"
        }
      ],
      "name": "auditRecord",
      "outputs": [
        {
          "internalType": "uint256",
          "name": "projectId",
          "type": "uint256"
        },
        {
          "internalType": "address",
          "name": "auditor",
          "type": "address"
        },
        {
          "internalType": "uint256",
          "name": "auditTime",
          "type": "uint256"
        },
        {
          "internalType": "string",
          "name": "comments",
          "type": "string"
        },
        {
          "internalType": "uint256",
          "name": "auditFee",
          "type": "uint256"
        },
        {
          "internalType": "enum ISafeMint.Status",
          "name": "status",
          "type": "uint8"
        }
      ],
      "stateMutability": "view",
      "type": "function"
    },
    {
      "inputs": [
        {
          "internalType": "string",
          "name": "name",
          "type": "string"
        },
        {
          "internalType": "string",
          "name": "comments",
          "type": "string"
        }
      ],
      "name": "challenge",
      "outputs": [],
      "stateMutability": "payable",
      "type": "function"
    },
    {
      "inputs": [
        {
          "internalType": "uint256",
          "name": "",
          "type": "uint256"
        }
      ],
      "name": "challengeArr",
      "outputs": [
        {
          "internalType": "uint256",
          "name": "",
          "type": "uint256"
        }
      ],
      "stateMutability": "view",
      "type": "function"
    },
    {
      "inputs": [],
      "name": "challengePrice",
      "outputs": [
        {
          "internalType": "uint256",
          "name": "",
          "type": "uint256"
        }
      ],
      "stateMutability": "view",
      "type": "function"
    },
    {
      "inputs": [
        {
          "internalType": "uint256",
          "name": "",
          "type": "uint256"
        },
        {
          "internalType": "uint256",
          "name": "",
          "type": "uint256"
        }
      ],
      "name": "challengeRecord",
      "outputs": [
        {
          "internalType": "uint256",
          "name": "projectId",
          "type": "uint256"
        },
        {
          "internalType": "address",
          "name": "challenger",
          "type": "address"
        },
        {
          "internalType": "uint256",
          "name": "time",
          "type": "uint256"
        },
        {
          "internalType": "string",
          "name": "comments",
          "type": "string"
        },
        {
          "internalType": "uint256",
          "name": "challengeFee",
          "type": "uint256"
        }
      ],
      "stateMutability": "view",
      "type": "function"
    },
    {
      "inputs": [
        {
          "internalType": "uint256",
          "name": "_projectId",
          "type": "uint256"
        }
      ],
      "name": "claimAuditReward",
      "outputs": [],
      "stateMutability": "nonpayable",
      "type": "function"
    },
    {
      "inputs": [
        {
          "internalType": "uint256",
          "name": "_projectId",
          "type": "uint256"
        }
      ],
      "name": "claimChellengeReward",
      "outputs": [],
      "stateMutability": "nonpayable",
      "type": "function"
    },
    {
      "inputs": [
        {
          "internalType": "address",
          "name": "",
          "type": "address"
        }
      ],
      "name": "contractAddress",
      "outputs": [
        {
          "internalType": "bool",
          "name": "",
          "type": "bool"
        }
      ],
      "stateMutability": "view",
      "type": "function"
    },
    {
      "inputs": [],
      "name": "duration",
      "outputs": [
        {
          "internalType": "uint256",
          "name": "",
          "type": "uint256"
        }
      ],
      "stateMutability": "view",
      "type": "function"
    },
    {
      "inputs": [
        {
          "internalType": "string",
          "name": "name",
          "type": "string"
        },
        {
          "internalType": "uint256",
          "name": "startTime",
          "type": "uint256"
        },
        {
          "internalType": "uint256",
          "name": "endTime",
          "type": "uint256"
        },
        {
          "internalType": "string",
          "name": "ipfsAddress",
          "type": "string"
        }
      ],
      "name": "editProject",
      "outputs": [],
      "stateMutability": "nonpayable",
      "type": "function"
    },
    {
      "inputs": [
        {
          "internalType": "uint256",
          "name": "",
          "type": "uint256"
        }
      ],
      "name": "feeRecord",
      "outputs": [
        {
          "internalType": "uint256",
          "name": "auditTime",
          "type": "uint256"
        },
        {
          "internalType": "address",
          "name": "auditor",
          "type": "address"
        },
        {
          "internalType": "uint256",
          "name": "value",
          "type": "uint256"
        }
      ],
      "stateMutability": "view",
      "type": "function"
    },
    {
      "inputs": [
        {
          "internalType": "uint256",
          "name": "start",
          "type": "uint256"
        },
        {
          "internalType": "uint256",
          "name": "limit",
          "type": "uint256"
        }
      ],
      "name": "getChallenge",
      "outputs": [
        {
          "components": [
            {
              "internalType": "string",
              "name": "name",
              "type": "string"
            },
            {
              "internalType": "address",
              "name": "owner",
              "type": "address"
            },
            {
              "internalType": "uint256",
              "name": "createTime",
              "type": "uint256"
            },
            {
              "internalType": "address",
              "name": "projectContract",
              "type": "address"
            },
            {
              "internalType": "uint256",
              "name": "startTime",
              "type": "uint256"
            },
            {
              "internalType": "uint256",
              "name": "endTime",
              "type": "uint256"
            },
            {
              "internalType": "string",
              "name": "ipfsAddress",
              "type": "string"
            },
            {
              "internalType": "uint256",
              "name": "projectFee",
              "type": "uint256"
            },
            {
              "internalType": "enum ISafeMint.Status",
              "name": "status",
              "type": "uint8"
            }
          ],
          "internalType": "struct ISafeMint.Project[]",
          "name": "",
          "type": "tuple[]"
        }
      ],
      "stateMutability": "view",
      "type": "function"
    },
    {
      "inputs": [
        {
          "internalType": "uint256",
          "name": "start",
          "type": "uint256"
        },
        {
          "internalType": "uint256",
          "name": "limit",
          "type": "uint256"
        }
      ],
      "name": "getLocked",
      "outputs": [
        {
          "components": [
            {
              "internalType": "string",
              "name": "name",
              "type": "string"
            },
            {
              "internalType": "address",
              "name": "owner",
              "type": "address"
            },
            {
              "internalType": "uint256",
              "name": "createTime",
              "type": "uint256"
            },
            {
              "internalType": "address",
              "name": "projectContract",
              "type": "address"
            },
            {
              "internalType": "uint256",
              "name": "startTime",
              "type": "uint256"
            },
            {
              "internalType": "uint256",
              "name": "endTime",
              "type": "uint256"
            },
            {
              "internalType": "string",
              "name": "ipfsAddress",
              "type": "string"
            },
            {
              "internalType": "uint256",
              "name": "projectFee",
              "type": "uint256"
            },
            {
              "internalType": "enum ISafeMint.Status",
              "name": "status",
              "type": "uint8"
            }
          ],
          "internalType": "struct ISafeMint.Project[]",
          "name": "",
          "type": "tuple[]"
        }
      ],
      "stateMutability": "view",
      "type": "function"
    },
    {
      "inputs": [
        {
          "internalType": "uint256",
          "name": "start",
          "type": "uint256"
        },
        {
          "internalType": "uint256",
          "name": "limit",
          "type": "uint256"
        }
      ],
      "name": "getPassed",
      "outputs": [
        {
          "components": [
            {
              "internalType": "string",
              "name": "name",
              "type": "string"
            },
            {
              "internalType": "address",
              "name": "owner",
              "type": "address"
            },
            {
              "internalType": "uint256",
              "name": "createTime",
              "type": "uint256"
            },
            {
              "internalType": "address",
              "name": "projectContract",
              "type": "address"
            },
            {
              "internalType": "uint256",
              "name": "startTime",
              "type": "uint256"
            },
            {
              "internalType": "uint256",
              "name": "endTime",
              "type": "uint256"
            },
            {
              "internalType": "string",
              "name": "ipfsAddress",
              "type": "string"
            },
            {
              "internalType": "uint256",
              "name": "projectFee",
              "type": "uint256"
            },
            {
              "internalType": "enum ISafeMint.Status",
              "name": "status",
              "type": "uint8"
            }
          ],
          "internalType": "struct ISafeMint.Project[]",
          "name": "",
          "type": "tuple[]"
        }
      ],
      "stateMutability": "view",
      "type": "function"
    },
    {
      "inputs": [
        {
          "internalType": "uint256",
          "name": "start",
          "type": "uint256"
        },
        {
          "internalType": "uint256",
          "name": "limit",
          "type": "uint256"
        }
      ],
      "name": "getPending",
      "outputs": [
        {
          "components": [
            {
              "internalType": "string",
              "name": "name",
              "type": "string"
            },
            {
              "internalType": "address",
              "name": "owner",
              "type": "address"
            },
            {
              "internalType": "uint256",
              "name": "createTime",
              "type": "uint256"
            },
            {
              "internalType": "address",
              "name": "projectContract",
              "type": "address"
            },
            {
              "internalType": "uint256",
              "name": "startTime",
              "type": "uint256"
            },
            {
              "internalType": "uint256",
              "name": "endTime",
              "type": "uint256"
            },
            {
              "internalType": "string",
              "name": "ipfsAddress",
              "type": "string"
            },
            {
              "internalType": "uint256",
              "name": "projectFee",
              "type": "uint256"
            },
            {
              "internalType": "enum ISafeMint.Status",
              "name": "status",
              "type": "uint8"
            }
          ],
          "internalType": "struct ISafeMint.Project[]",
          "name": "",
          "type": "tuple[]"
        }
      ],
      "stateMutability": "view",
      "type": "function"
    },
    {
      "inputs": [
        {
          "internalType": "uint256",
          "name": "start",
          "type": "uint256"
        },
        {
          "internalType": "uint256",
          "name": "limit",
          "type": "uint256"
        }
      ],
      "name": "getReject",
      "outputs": [
        {
          "components": [
            {
              "internalType": "string",
              "name": "name",
              "type": "string"
            },
            {
              "internalType": "address",
              "name": "owner",
              "type": "address"
            },
            {
              "internalType": "uint256",
              "name": "createTime",
              "type": "uint256"
            },
            {
              "internalType": "address",
              "name": "projectContract",
              "type": "address"
            },
            {
              "internalType": "uint256",
              "name": "startTime",
              "type": "uint256"
            },
            {
              "internalType": "uint256",
              "name": "endTime",
              "type": "uint256"
            },
            {
              "internalType": "string",
              "name": "ipfsAddress",
              "type": "string"
            },
            {
              "internalType": "uint256",
              "name": "projectFee",
              "type": "uint256"
            },
            {
              "internalType": "enum ISafeMint.Status",
              "name": "status",
              "type": "uint8"
            }
          ],
          "internalType": "struct ISafeMint.Project[]",
          "name": "",
          "type": "tuple[]"
        }
      ],
      "stateMutability": "view",
      "type": "function"
    },
    {
      "inputs": [
        {
          "internalType": "bytes32",
          "name": "role",
          "type": "bytes32"
        }
      ],
      "name": "getRoleAdmin",
      "outputs": [
        {
          "internalType": "bytes32",
          "name": "",
          "type": "bytes32"
        }
      ],
      "stateMutability": "view",
      "type": "function"
    },
    {
      "inputs": [
        {
          "internalType": "bytes32",
          "name": "role",
          "type": "bytes32"
        },
        {
          "internalType": "uint256",
          "name": "index",
          "type": "uint256"
        }
      ],
      "name": "getRoleMember",
      "outputs": [
        {
          "internalType": "address",
          "name": "",
          "type": "address"
        }
      ],
      "stateMutability": "view",
      "type": "function"
    },
    {
      "inputs": [
        {
          "internalType": "bytes32",
          "name": "role",
          "type": "bytes32"
        }
      ],
      "name": "getRoleMemberCount",
      "outputs": [
        {
          "internalType": "uint256",
          "name": "",
          "type": "uint256"
        }
      ],
      "stateMutability": "view",
      "type": "function"
    },
    {
      "inputs": [
        {
          "internalType": "bytes32",
          "name": "role",
          "type": "bytes32"
        },
        {
          "internalType": "address",
          "name": "account",
          "type": "address"
        }
      ],
      "name": "getRoleMemberIndex",
      "outputs": [
        {
          "internalType": "uint256",
          "name": "",
          "type": "uint256"
        }
      ],
      "stateMutability": "view",
      "type": "function"
    },
    {
      "inputs": [
        {
          "internalType": "bytes32",
          "name": "role",
          "type": "bytes32"
        },
        {
          "internalType": "address",
          "name": "account",
          "type": "address"
        }
      ],
      "name": "grantRole",
      "outputs": [],
      "stateMutability": "nonpayable",
      "type": "function"
    },
    {
      "inputs": [
        {
          "internalType": "bytes32",
          "name": "role",
          "type": "bytes32"
        },
        {
          "internalType": "address",
          "name": "account",
          "type": "address"
        }
      ],
      "name": "hasRole",
      "outputs": [
        {
          "internalType": "bool",
          "name": "",
          "type": "bool"
        }
      ],
      "stateMutability": "view",
      "type": "function"
    },
    {
      "inputs": [
        {
          "internalType": "uint256",
          "name": "",
          "type": "uint256"
        }
      ],
      "name": "lockedArr",
      "outputs": [
        {
          "internalType": "uint256",
          "name": "",
          "type": "uint256"
        }
      ],
      "stateMutability": "view",
      "type": "function"
    },
    {
      "inputs": [
        {
          "internalType": "uint256",
          "name": "",
          "type": "uint256"
        }
      ],
      "name": "passedArr",
      "outputs": [
        {
          "internalType": "uint256",
          "name": "",
          "type": "uint256"
        }
      ],
      "stateMutability": "view",
      "type": "function"
    },
    {
      "inputs": [
        {
          "internalType": "uint256",
          "name": "",
          "type": "uint256"
        }
      ],
      "name": "pendingArr",
      "outputs": [
        {
          "internalType": "uint256",
          "name": "",
          "type": "uint256"
        }
      ],
      "stateMutability": "view",
      "type": "function"
    },
    {
      "inputs": [
        {
          "internalType": "uint256",
          "name": "",
          "type": "uint256"
        }
      ],
      "name": "projectArr",
      "outputs": [
        {
          "internalType": "string",
          "name": "name",
          "type": "string"
        },
        {
          "internalType": "address",
          "name": "owner",
          "type": "address"
        },
        {
          "internalType": "uint256",
          "name": "createTime",
          "type": "uint256"
        },
        {
          "internalType": "address",
          "name": "projectContract",
          "type": "address"
        },
        {
          "internalType": "uint256",
          "name": "startTime",
          "type": "uint256"
        },
        {
          "internalType": "uint256",
          "name": "endTime",
          "type": "uint256"
        },
        {
          "internalType": "string",
          "name": "ipfsAddress",
          "type": "string"
        },
        {
          "internalType": "uint256",
          "name": "projectFee",
          "type": "uint256"
        },
        {
          "internalType": "enum ISafeMint.Status",
          "name": "status",
          "type": "uint8"
        }
      ],
      "stateMutability": "view",
      "type": "function"
    },
    {
      "inputs": [
        {
          "internalType": "bytes32",
          "name": "",
          "type": "bytes32"
        }
      ],
      "name": "projectId",
      "outputs": [
        {
          "internalType": "uint256",
          "name": "",
          "type": "uint256"
        }
      ],
      "stateMutability": "view",
      "type": "function"
    },
    {
      "inputs": [
        {
          "internalType": "string",
          "name": "name",
          "type": "string"
        }
      ],
      "name": "projectName",
      "outputs": [
        {
          "internalType": "bool",
          "name": "",
          "type": "bool"
        }
      ],
      "stateMutability": "view",
      "type": "function"
    },
    {
      "inputs": [],
      "name": "projectPrice",
      "outputs": [
        {
          "internalType": "uint256",
          "name": "",
          "type": "uint256"
        }
      ],
      "stateMutability": "view",
      "type": "function"
    },
    {
      "inputs": [
        {
          "internalType": "uint256",
          "name": "",
          "type": "uint256"
        }
      ],
      "name": "rejectArr",
      "outputs": [
        {
          "internalType": "uint256",
          "name": "",
          "type": "uint256"
        }
      ],
      "stateMutability": "view",
      "type": "function"
    },
    {
      "inputs": [
        {
          "internalType": "bytes32",
          "name": "role",
          "type": "bytes32"
        },
        {
          "internalType": "address",
          "name": "account",
          "type": "address"
        }
      ],
      "name": "renounceRole",
      "outputs": [],
      "stateMutability": "nonpayable",
      "type": "function"
    },
    {
      "inputs": [
        {
          "internalType": "bytes32",
          "name": "role",
          "type": "bytes32"
        },
        {
          "internalType": "address",
          "name": "account",
          "type": "address"
        }
      ],
      "name": "revokeRole",
      "outputs": [],
      "stateMutability": "nonpayable",
      "type": "function"
    },
    {
      "inputs": [
        {
          "internalType": "string",
          "name": "name",
          "type": "string"
        },
        {
          "internalType": "address",
          "name": "projectContract",
          "type": "address"
        },
        {
          "internalType": "uint256",
          "name": "startTime",
          "type": "uint256"
        },
        {
          "internalType": "uint256",
          "name": "endTime",
          "type": "uint256"
        },
        {
          "internalType": "string",
          "name": "ipfsAddress",
          "type": "string"
        }
      ],
      "name": "saveProject",
      "outputs": [],
      "stateMutability": "payable",
      "type": "function"
    },
    {
      "inputs": [
        {
          "internalType": "address",
          "name": "",
          "type": "address"
        }
      ],
      "name": "user",
      "outputs": [
        {
          "internalType": "bool",
          "name": "",
          "type": "bool"
        }
      ],
      "stateMutability": "view",
      "type": "function"
    }
  ],
  "bytecode": "0x60806040523480156200001157600080fd5b506200001f60003362000025565b6200010e565b62000031828262000035565b5050565b6000828152602081815260409091206200005a91839062002a9b6200009c821b17901c565b15620000315760405133906001600160a01b0383169084907f2f8788117e7eff1d82e926ec794901d17c78024a50270940304540a733656f0d90600090a45050565b6000620000b3836001600160a01b038416620000bc565b90505b92915050565b60008181526001830160205260408120546200010557508154600181810184556000848152602080822090930184905584548482528286019093526040902091909155620000b6565b506000620000b6565b613a6e806200011e6000396000f3fe6080604052600436106102725760003560e01c806381e7e20e1161014f578063c9eec8f6116100c1578063e82f31271161007a578063e82f312714610846578063e98a06b014610866578063f1098a3114610886578063f6896b3f1461089c578063fde4887b146108d1578063fec549d1146108f157600080fd5b8063c9eec8f614610786578063ca15c873146107a6578063cd272f1b146107c6578063d547741f146107e6578063e4cd6c6414610806578063e55060361461082657600080fd5b806391d148541161011357806391d14854146106b65780639cea0787146106d65780639de7d7ba1461070a578063a217fddf14610720578063a28835b614610735578063a4e465aa1461075557600080fd5b806381e7e20e146105f85780638b9e260a146106285780638e73c7e6146106485780638e972034146106685780639010d07c1461067e57600080fd5b806339e31595116101e857806365a99186116101ac57806365a99186146105245780636e1d616e1461054457806371255039146105785780637720f1b61461059857806378d06d29146105b85780637fbdcd45146105d857600080fd5b806339e315951461044d5780634e0df3f61461046d578063565fbe13146104b25780635ed91333146104c557806361f0558e146104f257600080fd5b8063294e460c1161023a578063294e460c146103455780632e8f396d146103655780632ed9e812146103925780632f2ff15d146103fa57806334eaa5e11461041a57806336568abe1461042d57600080fd5b806309a33d4b146102775780630fb5a6b4146102bc5780631d54f0e8146102e057806323d35f7e14610302578063248a9ca314610315575b600080fd5b34801561028357600080fd5b506102a761029236600461316e565b60026020526000908152604090205460ff1681565b60405190151581526020015b60405180910390f35b3480156102c857600080fd5b506102d260105481565b6040519081526020016102b3565b3480156102ec57600080fd5b506103006102fb366004613192565b610911565b005b6103006103103660046131f4565b610946565b34801561032157600080fd5b506102d2610330366004613192565b60009081526020819052604090206002015490565b34801561035157600080fd5b50610300610360366004613192565b610c4d565b34801561037157600080fd5b50610385610380366004613260565b610c79565b6040516102b39190613307565b34801561039e57600080fd5b506103d76103ad366004613192565b60066020526000908152604090208054600182015460029092015490916001600160a01b03169083565b604080519384526001600160a01b039092166020840152908201526060016102b3565b34801561040657600080fd5b506103006104153660046133fd565b610cdf565b610300610428366004613441565b610d6d565b34801561043957600080fd5b506103006104483660046133fd565b61134a565b34801561045957600080fd5b50610300610468366004613192565b6113c4565b34801561047957600080fd5b506102d26104883660046133fd565b6000828152602081815260408083206001600160a01b038516845260010190915290205492915050565b6103006104c03660046134c2565b6113f0565b3480156104d157600080fd5b506102d26104e0366004613192565b60036020526000908152604090205481565b3480156104fe57600080fd5b5061051261050d366004613260565b611810565b6040516102b39695949392919061355a565b34801561053057600080fd5b506102d261053f366004613192565b6118fc565b34801561055057600080fd5b506102d27f59a1c48e5837ad7a7f3dcedcbe129bf3249ec4fbf651fd4f5e2600ead39fe2f581565b34801561058457600080fd5b50610385610593366004613260565b61191d565b3480156105a457600080fd5b506103006105b33660046135a7565b611978565b3480156105c457600080fd5b506103006105d3366004613192565b611eba565b3480156105e457600080fd5b506103856105f3366004613260565b6120e2565b34801561060457600080fd5b506102a761061336600461316e565b60016020526000908152604090205460ff1681565b34801561063457600080fd5b506102d2610643366004613192565b61213d565b34801561065457600080fd5b50610300610663366004613192565b61214d565b34801561067457600080fd5b506102d2600d5481565b34801561068a57600080fd5b5061069e610699366004613260565b612179565b6040516001600160a01b0390911681526020016102b3565b3480156106c257600080fd5b506102a76106d13660046133fd565b612191565b3480156106e257600080fd5b506102d27f16ceee8289685dd2a02b9c8ae81d2df373176ce53519e6284e2a2950d6546ffa81565b34801561071657600080fd5b506102d2600e5481565b34801561072c57600080fd5b506102d2600081565b34801561074157600080fd5b5061030061075036600461316e565b6121a9565b34801561076157600080fd5b50610775610770366004613260565b612205565b6040516102b39594939291906135fb565b34801561079257600080fd5b506103006107a136600461363a565b6122e7565b3480156107b257600080fd5b506102d26107c1366004613192565b612535565b3480156107d257600080fd5b506102d26107e1366004613192565b61254c565b3480156107f257600080fd5b506103006108013660046133fd565b61255c565b34801561081257600080fd5b506102a76108213660046136bd565b6125dd565b34801561083257600080fd5b506102d2610841366004613192565b612625565b34801561085257600080fd5b50610300610861366004613192565b612635565b34801561087257600080fd5b50610385610881366004613260565b612850565b34801561089257600080fd5b506102d2600f5481565b3480156108a857600080fd5b506108bc6108b7366004613192565b6128ab565b6040516102b3999897969594939291906136ff565b3480156108dd57600080fd5b506102d26108ec366004613192565b612a30565b3480156108fd57600080fd5b5061038561090c366004613260565b612a40565b61091c600033612191565b6109415760405162461bcd60e51b815260040161093890613778565b60405180910390fd5b601055565b600f543410156109685760405162461bcd60e51b8152600401610938906137af565b60006003600086866040516020016109819291906137d2565b604051602081830303815290604052805190602001208152602001908152602001600020549050600081116109c85760405162461bcd60e51b8152600401610938906137e2565b60105460008281526006602052604090205442916109e591613823565b11610a1d5760405162461bcd60e51b8152602060048201526008602482015267657870697265642160c01b6044820152606401610938565b6001600c610a2c60018461383b565b81548110610a3c57610a3c613852565b600091825260209091206008600990920201015460ff166004811115610a6457610a646132cf565b14610a815760405162461bcd60e51b815260040161093890613868565b600560008281526020019081526020016000206040518060a00160405280838152602001336001600160a01b0316815260200142815260200185858080601f0160208091040260200160405190810160405280939291908181526020018383808284376000920182905250938552505034602093840152508354600180820186559482529082902083516005909202019081558282015193810180546001600160a01b0319166001600160a01b03909516949094179093556040820151600284015560608201518051929392610b5d9260038501920190612fdb565b50608091909101516004909101556003600c610b7a60018461383b565b81548110610b8a57610b8a613852565b60009182526020909120600860099092020101805460ff19166001836004811115610bb757610bb76132cf565b0217905550600b80546001810182556000919091527f0175b7a638427703f0dbe7bb9bbf987a2551717b34e79f33b5b1008d1fa01db9018190556040513390610c0390879087906137d2565b60405180910390207fdc21ae6de88cd55439f170e62c30e773b86a29f909e825b0859b44bbdf79e9a9348686604051610c3e939291906138b8565b60405180910390a35050505050565b610c58600033612191565b610c745760405162461bcd60e51b815260040161093890613778565b600d55565b6060610cd6600b805480602002602001604051908101604052809291908181526020018280548015610cca57602002820191906000526020600020905b815481526020019060010190808311610cb6575b50505050508484612ab0565b90505b92915050565b600082815260208190526040902060020154610cfb9033612191565b610d5f5760405162461bcd60e51b815260206004820152602f60248201527f416363657373436f6e74726f6c3a2073656e646572206d75737420626520616e60448201526e0818591b5a5b881d1bc819dc985b9d608a1b6064820152608401610938565b610d698282612d70565b5050565b610d977f59a1c48e5837ad7a7f3dcedcbe129bf3249ec4fbf651fd4f5e2600ead39fe2f533612191565b610de35760405162461bcd60e51b815260206004820181905260248201527f73656e64657220646f65736e277420686176652061756469746f7220726f6c656044820152606401610938565b6000600360008787604051602001610dfc9291906137d2565b60405160208183030381529060405280519060200120815260200190815260200160002054905060008111610e435760405162461bcd60e51b8152600401610938906137e2565b6000600c610e5260018461383b565b81548110610e6257610e62613852565b600091825260209091206008600990920201015460ff166004811115610e8a57610e8a6132cf565b14610ecc5760405162461bcd60e51b8152602060048201526012602482015271537461747573206e6f742070656e64696e6760701b6044820152606401610938565b600081815260066020526040902054610f4457600e54341015610f015760405162461bcd60e51b8152600401610938906137af565b60008181526006602052604081204281556001810180546001600160a01b031916331790556002018054349290610f39908490613823565b90915550610f9e9050565b6000818152600660205260409020600101546001600160a01b03163314610f9e5760405162461bcd60e51b815260206004820152600e60248201526d61756469746f72206572726f722160901b6044820152606401610938565b6001826004811115610fb257610fb26132cf565b1480610fcf57506002826004811115610fcd57610fcd6132cf565b145b80610feb57506004826004811115610fe957610fe96132cf565b145b6110075760405162461bcd60e51b815260040161093890613868565b600460008281526020019081526020016000206040518060c00160405280838152602001336001600160a01b0316815260200142815260200186868080601f016020809104026020016040519081016040528093929190818152602001838380828437600092019190915250505090825250346020820152604001846004811115611094576110946132cf565b9052815460018082018455600093845260209384902083516006909302019182558284015190820180546001600160a01b0319166001600160a01b039092169190911790556040820151600282015560608201518051929391926110fe9260038501920190612fdb565b506080820151816004015560a08201518160050160006101000a81548160ff02191690836004811115611133576111336132cf565b02179055505060405163f3c0d27560e01b8152600860048201526024810183905273__$dd7e339caebe69876c52f244f0e45f1c53$__915063f3c0d2759060440160006040518083038186803b15801561118c57600080fd5b505af41580156111a0573d6000803e3d6000fd5b50600192506111ad915050565b8260048111156111bf576111bf6132cf565b14156111fb57600780546001810182556000919091527fa66cc928b5edb82af9bd49922954155ab7b0942694bea4ce44661d9a8736c688018190555b600282600481111561120f5761120f6132cf565b141561124b57600980546001810182556000919091527f6e1540171b6c0c960b71a7020d9f60077f6af931a8bbf590da0223dacf75c7af018190555b600482600481111561125f5761125f6132cf565b141561129b57600a80546001810182556000919091527fc65a7bb8d6351c1cf70c95a316cc6a92839c986682d98bc35f958f4883f9d2a8018190555b81600c6112a960018461383b565b815481106112b9576112b9613852565b60009182526020909120600860099092020101805460ff191660018360048111156112e6576112e66132cf565b021790555060405133906112fd90889088906137d2565b60405180910390207f7d2fafeb3b96c1bb326ed875134810bdead7730bf8bdb6856b1445085d61fe5e3487878760405161133a94939291906138db565b60405180910390a3505050505050565b6001600160a01b03811633146113ba5760405162461bcd60e51b815260206004820152602f60248201527f416363657373436f6e74726f6c3a2063616e206f6e6c792072656e6f756e636560448201526e103937b632b9903337b91039b2b63360891b6064820152608401610938565b610d698282612dc9565b6113cf600033612191565b6113eb5760405162461bcd60e51b815260040161093890613778565b600f55565b600d543410156114125760405162461bcd60e51b8152600401610938906137af565b3360009081526001602052604090205460ff1615801561143157503332145b6114725760405162461bcd60e51b81526020600482015260126024820152711d5cd95c88185b19585c991e481cd85d995960721b6044820152606401610938565b6001600160a01b03851660009081526002602052604090205460ff16156114db5760405162461bcd60e51b815260206004820152601d60248201527f636f6e74726163744164647265737320616c65617264792073617665640000006044820152606401610938565b6114e587876125dd565b156115265760405162461bcd60e51b81526020600482015260116024820152701b985b5948185b19585c991e481d5cd959607a1b6044820152606401610938565b604080516101406020601f8a01819004028201810190925261012081018881526000928291908b908b908190850183828082843760009201919091525050509082525033602080830191909152426040808401919091526001600160a01b038a1660608401526080830189905260a083018890528051601f870183900483028101830190915285815260c0909201919086908690819084018382808284376000920182905250938552505034602084015250604090910152600c805460018101825560009190915281518051929350839260099092027fdf6966c971051c3d54ec59162606531493a51404a002842f56009d7e5cf4a8c7019161163191839160209190910190612fdb565b506020828101516001830180546001600160a01b039283166001600160a01b0319918216179091556040850151600285015560608501516003850180549190931691161790556080830151600483015560a0830151600583015560c083015180516116a29260068501920190612fdb565b5060e0820151600782015561010082015160088201805460ff191660018360048111156116d1576116d16132cf565b02179055505060085460405190915081906003906000906116f8908d908d906020016137d2565b60408051808303601f1901815291815281516020928301208352828201939093529082016000908120939093556008805460018082019092557ff3f7a9fe364faab93b216da50a3214154f22a0a2b415b23a84c8169e8b636ee30185905582516060810184528481528083018581523482860190815287875260069094529484902090518155935190840180546001600160a01b0319166001600160a01b039283161790559051600290930192909255519088169033906117bc908c908c906137d2565b60405180910390207f9f500669409391db1d296b0288a5a0650c04ed38f4e1a9da300bf897e273982a8989348a8a896040516117fd96959493929190613904565b60405180910390a4505050505050505050565b6004602052816000526040600020818154811061182c57600080fd5b600091825260209091206006909102018054600182015460028301546003840180549396506001600160a01b03909216945092916118699061393d565b80601f01602080910402602001604051908101604052809291908181526020018280546118959061393d565b80156118e25780601f106118b7576101008083540402835291602001916118e2565b820191906000526020600020905b8154815290600101906020018083116118c557829003601f168201915b50505050600483015460059093015491929160ff16905086565b600a818154811061190c57600080fd5b600091825260209091200154905081565b6060610cd66007805480602002602001604051908101604052809291908181526020018280548015610cca5760200282019190600052602060002090815481526020019060010190808311610cb65750505050508484612ab0565b6119a27f16ceee8289685dd2a02b9c8ae81d2df373176ce53519e6284e2a2950d6546ffa33612191565b6119fa5760405162461bcd60e51b815260206004820152602360248201527f73656e64657220646f65736e277420686176652061726269747261746f7220726044820152626f6c6560e81b6064820152608401610938565b6001816004811115611a0e57611a0e6132cf565b1480611a2b57506004816004811115611a2957611a296132cf565b145b611a475760405162461bcd60e51b815260040161093890613868565b6000600360008585604051602001611a609291906137d2565b60405160208183030381529060405280519060200120815260200190815260200160002054905060008111611aa75760405162461bcd60e51b8152600401610938906137e2565b6003600c611ab660018461383b565b81548110611ac657611ac6613852565b600091825260209091206008600990920201015460ff166004811115611aee57611aee6132cf565b14611b0b5760405162461bcd60e51b815260040161093890613868565b60405163f3c0d27560e01b8152600b60048201526024810182905273__$dd7e339caebe69876c52f244f0e45f1c53$__9063f3c0d2759060440160006040518083038186803b158015611b5d57600080fd5b505af4158015611b71573d6000803e3d6000fd5b5060019250611b7e915050565b826004811115611b9057611b906132cf565b1415611c94576000805b600083815260056020526040902054811015611c36576000838152600560205260409020805482908110611bd057611bd0613852565b90600052602060002090600502016004015482611bed9190613823565b60008481526005602052604081208054929450909183908110611c1257611c12613852565b6000918252602090912060046005909202010155611c2f81613978565b9050611b9a565b5060008281526006602052604081206002018054839290611c58908490613823565b9091555050600780546001810182556000919091527fa66cc928b5edb82af9bd49922954155ab7b0942694bea4ce44661d9a8736c68801829055505b6004826004811115611ca857611ca86132cf565b1415611e135760405163f3c0d27560e01b8152600760048201526024810182905273__$dd7e339caebe69876c52f244f0e45f1c53$__9063f3c0d2759060440160006040518083038186803b158015611d0057600080fd5b505af4158015611d14573d6000803e3d6000fd5b50505060008281526005602090815260408083205460069092528220600201549092508290611d4b90670de0b6b3a7640000613993565b611d5591906139b2565b905060005b82811015611dca57611d74670de0b6b3a7640000836139b2565b6000858152600560205260409020805483908110611d9457611d94613852565b90600052602060002090600502016004016000828254611db49190613823565b90915550611dc3905081613978565b9050611d5a565b5050506000818152600660205260408120600201819055600a805460018101825591527fc65a7bb8d6351c1cf70c95a316cc6a92839c986682d98bc35f958f4883f9d2a8018190555b81600c611e2160018461383b565b81548110611e3157611e31613852565b60009182526020909120600860099092020101805460ff19166001836004811115611e5e57611e5e6132cf565b02179055506040513390611e7590869086906137d2565b60405180910390207fc3cfb93e98af5dbce223e3dce9c0bb9df1cc0a287fc736812a8cbdd20f34bbc984604051611eac91906139d4565b60405180910390a350505050565b600081118015611ecb5750600c5481105b611f0a5760405162461bcd60e51b815260206004820152601060248201526f383937b532b1ba1034b21032b93937b960811b6044820152606401610938565b6010546000828152600660205260409020544291611f2791613823565b10611f6c5760405162461bcd60e51b8152602060048201526015602482015274617564697454696d65203c206475726174696f6e2160581b6044820152606401610938565b6001600c611f7b60018461383b565b81548110611f8b57611f8b613852565b600091825260209091206008600990920201015460ff166004811115611fb357611fb36132cf565b148061200357506004600c611fc960018461383b565b81548110611fd957611fd9613852565b600091825260209091206008600990920201015460ff166004811115612001576120016132cf565b145b61203e5760405162461bcd60e51b815260206004820152600c60248201526b29ba30b93ab99032b93937b960a11b6044820152606401610938565b6000818152600660205260409020600101546001600160a01b031633146120985760405162461bcd60e51b815260206004820152600e60248201526d61756469746f72206572726f722160901b6044820152606401610938565b6000818152600660205260409020600201548015610d6957604051339082156108fc029083906000818181858888f193505050501580156120dd573d6000803e3d6000fd5b505050565b6060610cd66009805480602002602001604051908101604052809291908181526020018280548015610cca5760200282019190600052602060002090815481526020019060010190808311610cb65750505050508484612ab0565b6009818154811061190c57600080fd5b612158600033612191565b6121745760405162461bcd60e51b815260040161093890613778565b600e55565b6000828152602081905260408120610cd69083612e22565b6000828152602081905260408120610cd69083612e2e565b6121b4600033612191565b6121d05760405162461bcd60e51b815260040161093890613778565b6040516001600160a01b038216904780156108fc02916000818181858888f19350505050158015610d69573d6000803e3d6000fd5b6005602052816000526040600020818154811061222157600080fd5b600091825260209091206005909102018054600182015460028301546003840180549396506001600160a01b039092169450929161225e9061393d565b80601f016020809104026020016040519081016040528092919081815260200182805461228a9061393d565b80156122d75780601f106122ac576101008083540402835291602001916122d7565b820191906000526020600020905b8154815290600101906020018083116122ba57829003601f168201915b5050505050908060040154905085565b60006003600088886040516020016123009291906137d2565b604051602081830303815290604052805190602001208152602001908152602001600020549050600081116123475760405162461bcd60e51b8152600401610938906137e2565b6000600c61235660018461383b565b8154811061236657612366613852565b600091825260209091206001600990920201908101549091506001600160a01b031633146123d65760405162461bcd60e51b815260206004820152601b60248201527f63616c6c6572206973206e6f742070726f6a656374206f776e657200000000006044820152606401610938565b6002600882015460ff1660048111156123f1576123f16132cf565b1461240e5760405162461bcd60e51b815260040161093890613868565b600481018690556005810185905561242a60068201858561305f565b5060088101805460ff1916905560405163f3c0d27560e01b8152600960048201526024810183905273__$dd7e339caebe69876c52f244f0e45f1c53$__9063f3c0d2759060440160006040518083038186803b15801561248957600080fd5b505af415801561249d573d6000803e3d6000fd5b5050600880546001810182556000919091527ff3f7a9fe364faab93b216da50a3214154f22a0a2b415b23a84c8169e8b636ee30184905550506040516124e690899089906137d2565b60405180910390207f1b2b86e642d79d033dd484836d437bdc00063e69f684251b6f89015fb4ac1dd98787878760405161252394939291906139e2565b60405180910390a25050505050505050565b6000818152602081905260408120610cd990612e50565b6008818154811061190c57600080fd5b6000828152602081905260409020600201546125789033612191565b6113ba5760405162461bcd60e51b815260206004820152603060248201527f416363657373436f6e74726f6c3a2073656e646572206d75737420626520616e60448201526f2061646d696e20746f207265766f6b6560801b6064820152608401610938565b6000806003600085856040516020016125f79291906137d2565b6040516020818303038152906040528051906020012081526020019081526020016000205411905092915050565b600b818154811061190c57600080fd5b6000811180156126465750600c5481105b6126855760405162461bcd60e51b815260206004820152601060248201526f383937b532b1ba1034b21032b93937b960811b6044820152606401610938565b60105460008281526006602052604090205442916126a291613823565b106126e75760405162461bcd60e51b8152602060048201526015602482015274617564697454696d65203c206475726174696f6e2160581b6044820152606401610938565b6004600c6126f660018461383b565b8154811061270657612706613852565b600091825260209091206008600990920201015460ff16600481111561272e5761272e6132cf565b1461276a5760405162461bcd60e51b815260206004820152600c60248201526b29ba30b93ab99032b93937b960a11b6044820152606401610938565b6000805b60008381526005602052604090205481101561281c5760008381526005602052604090208054339190839081106127a7576127a7613852565b60009182526020909120600160059092020101546001600160a01b0316141561280a5760008381526005602052604090208054829081106127ea576127ea613852565b906000526020600020906005020160040154826128079190613823565b91505b8061281481613978565b91505061276e565b508015610d6957604051339082156108fc029083906000818181858888f193505050501580156120dd573d6000803e3d6000fd5b6060610cd6600a805480602002602001604051908101604052809291908181526020018280548015610cca5760200282019190600052602060002090815481526020019060010190808311610cb65750505050508484612ab0565b600c81815481106128bb57600080fd5b90600052602060002090600902016000915090508060000180546128de9061393d565b80601f016020809104026020016040519081016040528092919081815260200182805461290a9061393d565b80156129575780601f1061292c57610100808354040283529160200191612957565b820191906000526020600020905b81548152906001019060200180831161293a57829003601f168201915b5050506001840154600285015460038601546004870154600588015460068901805498996001600160a01b03968716999598509390951695509093909261299d9061393d565b80601f01602080910402602001604051908101604052809291908181526020018280546129c99061393d565b8015612a165780601f106129eb57610100808354040283529160200191612a16565b820191906000526020600020905b8154815290600101906020018083116129f957829003601f168201915b50505050600783015460089093015491929160ff16905089565b6007818154811061190c57600080fd5b6060610cd66008805480602002602001604051908101604052809291908181526020018280548015610cca5760200282019190600052602060002090815481526020019060010190808311610cb65750505050508484612ab0565b6000610cd6836001600160a01b038416612e5a565b8251606090600081612ac28587613823565b1115612ad757612ad2858361383b565b612ad9565b835b905060008167ffffffffffffffff811115612af657612af6613a0c565b604051908082528060200260200182016040528015612b2f57816020015b612b1c6130d3565b815260200190600190039081612b145790505b5090508560005b83811015612d6357600c898381518110612b5257612b52613852565b602002602001015181548110612b6a57612b6a613852565b906000526020600020906009020160405180610120016040529081600082018054612b949061393d565b80601f0160208091040260200160405190810160405280929190818152602001828054612bc09061393d565b8015612c0d5780601f10612be257610100808354040283529160200191612c0d565b820191906000526020600020905b815481529060010190602001808311612bf057829003601f168201915b505050918352505060018201546001600160a01b03908116602083015260028301546040830152600383015416606082015260048201546080820152600582015460a082015260068201805460c090920191612c689061393d565b80601f0160208091040260200160405190810160405280929190818152602001828054612c949061393d565b8015612ce15780601f10612cb657610100808354040283529160200191612ce1565b820191906000526020600020905b815481529060010190602001808311612cc457829003601f168201915b505050918352505060078201546020820152600882015460409091019060ff166004811115612d1257612d126132cf565b6004811115612d2357612d236132cf565b81525050838281518110612d3957612d39613852565b60200260200101819052508180612d4f90613978565b92505080612d5c90613978565b9050612b36565b5090979650505050505050565b6000828152602081905260409020612d889082612a9b565b15610d695760405133906001600160a01b0383169084907f2f8788117e7eff1d82e926ec794901d17c78024a50270940304540a733656f0d90600090a45050565b6000828152602081905260409020612de19082612ea9565b15610d695760405133906001600160a01b0383169084907ff6391f5c32d9c69d2a47ea670b442974b53935d1edc7fd64eb21e047a839171b90600090a45050565b6000610cd68383612ebe565b6001600160a01b03811660009081526001830160205260408120541515610cd6565b6000610cd9825490565b6000818152600183016020526040812054612ea157508154600181810184556000848152602080822090930184905584548482528286019093526040902091909155610cd9565b506000610cd9565b6000610cd6836001600160a01b038416612ee8565b6000826000018281548110612ed557612ed5613852565b9060005260206000200154905092915050565b60008181526001830160205260408120548015612fd1576000612f0c60018361383b565b8554909150600090612f209060019061383b565b9050818114612f85576000866000018281548110612f4057612f40613852565b9060005260206000200154905080876000018481548110612f6357612f63613852565b6000918252602080832090910192909255918252600188019052604090208390555b8554869080612f9657612f96613a22565b600190038181906000526020600020016000905590558560010160008681526020019081526020016000206000905560019350505050610cd9565b6000915050610cd9565b828054612fe79061393d565b90600052602060002090601f016020900481019282613009576000855561304f565b82601f1061302257805160ff191683800117855561304f565b8280016001018555821561304f579182015b8281111561304f578251825591602001919060010190613034565b5061305b929150613141565b5090565b82805461306b9061393d565b90600052602060002090601f01602090048101928261308d576000855561304f565b82601f106130a65782800160ff1982351617855561304f565b8280016001018555821561304f579182015b8281111561304f5782358255916020019190600101906130b8565b6040518061012001604052806060815260200160006001600160a01b031681526020016000815260200160006001600160a01b03168152602001600081526020016000815260200160608152602001600081526020016000600481111561313c5761313c6132cf565b905290565b5b8082111561305b5760008155600101613142565b6001600160a01b038116811461316b57600080fd5b50565b60006020828403121561318057600080fd5b813561318b81613156565b9392505050565b6000602082840312156131a457600080fd5b5035919050565b60008083601f8401126131bd57600080fd5b50813567ffffffffffffffff8111156131d557600080fd5b6020830191508360208285010111156131ed57600080fd5b9250929050565b6000806000806040858703121561320a57600080fd5b843567ffffffffffffffff8082111561322257600080fd5b61322e888389016131ab565b9096509450602087013591508082111561324757600080fd5b50613254878288016131ab565b95989497509550505050565b6000806040838503121561327357600080fd5b50508035926020909101359150565b6000815180845260005b818110156132a85760208185018101518683018201520161328c565b818111156132ba576000602083870101525b50601f01601f19169290920160200192915050565b634e487b7160e01b600052602160045260246000fd5b6005811061330357634e487b7160e01b600052602160045260246000fd5b9052565b60006020808301818452808551808352604092508286019150828160051b87010184880160005b838110156133ef57603f198984030185528151610120815181865261335582870182613282565b915050888201516133708a8701826001600160a01b03169052565b5087820151858901526060808301516001600160a01b0316908601526080808301519086015260a0808301519086015260c080830151868303828801526133b78382613282565b9250505060e08083015181870152506101008083015192506133db818701846132e5565b50958801959350509086019060010161332e565b509098975050505050505050565b6000806040838503121561341057600080fd5b82359150602083013561342281613156565b809150509250929050565b80356005811061343c57600080fd5b919050565b60008060008060006060868803121561345957600080fd5b853567ffffffffffffffff8082111561347157600080fd5b61347d89838a016131ab565b9097509550602088013591508082111561349657600080fd5b506134a3888289016131ab565b90945092506134b690506040870161342d565b90509295509295909350565b600080600080600080600060a0888a0312156134dd57600080fd5b873567ffffffffffffffff808211156134f557600080fd5b6135018b838c016131ab565b909950975060208a0135915061351682613156565b90955060408901359450606089013593506080890135908082111561353a57600080fd5b506135478a828b016131ab565b989b979a50959850939692959293505050565b86815260018060a01b038616602082015284604082015260c06060820152600061358760c0830186613282565b905083608083015261359c60a08301846132e5565b979650505050505050565b6000806000604084860312156135bc57600080fd5b833567ffffffffffffffff8111156135d357600080fd5b6135df868287016131ab565b90945092506135f290506020850161342d565b90509250925092565b85815260018060a01b038516602082015283604082015260a06060820152600061362860a0830185613282565b90508260808301529695505050505050565b6000806000806000806080878903121561365357600080fd5b863567ffffffffffffffff8082111561366b57600080fd5b6136778a838b016131ab565b90985096506020890135955060408901359450606089013591508082111561369e57600080fd5b506136ab89828a016131ab565b979a9699509497509295939492505050565b600080602083850312156136d057600080fd5b823567ffffffffffffffff8111156136e757600080fd5b6136f3858286016131ab565b90969095509350505050565b60006101208083526137138184018d613282565b6001600160a01b038c81166020860152604085018c90528a1660608501526080840189905260a0840188905283810360c085015290506137538187613282565b9150508360e083015261376a6101008301846132e5565b9a9950505050505050505050565b6020808252601e908201527f73656e64657220646f65736e277420686176652061646d696e20726f6c650000604082015260600190565b6020808252600990820152686c6f7720707269636560b81b604082015260600190565b8183823760009101908152919050565b6020808252601190820152701c1c9bda9958dd081b9bdd08195e1a5cdd607a1b604082015260600190565b634e487b7160e01b600052601160045260246000fd5b600082198211156138365761383661380d565b500190565b60008282101561384d5761384d61380d565b500390565b634e487b7160e01b600052603260045260246000fd5b6020808252600d908201526c537461747573206572726f722160981b604082015260600190565b81835281816020850137506000828201602090810191909152601f909101601f19169091010190565b8381526040602082015260006138d260408301848661388f565b95945050505050565b8481526060602082015260006138f560608301858761388f565b90506138d260408301846132e5565b86815285602082015284604082015260a06060820152600061392a60a08301858761388f565b9050826080830152979650505050505050565b600181811c9082168061395157607f821691505b6020821081141561397257634e487b7160e01b600052602260045260246000fd5b50919050565b600060001982141561398c5761398c61380d565b5060010190565b60008160001904831182151516156139ad576139ad61380d565b500290565b6000826139cf57634e487b7160e01b600052601260045260246000fd5b500490565b60208101610cd982846132e5565b848152836020820152606060408201526000613a0260608301848661388f565b9695505050505050565b634e487b7160e01b600052604160045260246000fd5b634e487b7160e01b600052603160045260246000fdfea26469706673582212202040ee90929c5b5553e0065bbb2fe4848497f918c3eaeb7def46be79caa9aa1964736f6c634300080b0033",
  "linkReferences": {
    "contracts/utils/Arrays.sol": {
      "Arrays": [
        {
          "length": 20,
          "start": 4724
        },
        {
          "length": 20,
          "start": 7238
        },
        {
          "length": 20,
          "start": 7657
        },
        {
          "length": 20,
          "start": 9586
        }
      ]
    }
  },
  "deployedLinkReferences": {
    "contracts/utils/Arrays.sol": {
      "Arrays": [
        {
          "length": 20,
          "start": 4438
        },
        {
          "length": 20,
          "start": 6952
        },
        {
          "length": 20,
          "start": 7371
        },
        {
          "length": 20,
          "start": 9300
        }
      ]
    }
  }
}