{
  "_format": "hh-sol-artifact-1",
  "contractName": "OFTAccessControlUpgradeable",
  "sourceName": "contracts/OFT-upgradable/OFTAccessControlUpgradeable.sol",
  "abi": [
    {
      "anonymous": false,
      "inputs": [
        {
          "indexed": false,
          "internalType": "uint8",
          "name": "version",
          "type": "uint8"
        }
      ],
      "name": "Initialized",
      "type": "event"
    },
    {
      "anonymous": false,
      "inputs": [
        {
          "indexed": true,
          "internalType": "bytes32",
          "name": "role",
          "type": "bytes32"
        },
        {
          "indexed": true,
          "internalType": "bytes32",
          "name": "previousAdminRole",
          "type": "bytes32"
        },
        {
          "indexed": true,
          "internalType": "bytes32",
          "name": "newAdminRole",
          "type": "bytes32"
        }
      ],
      "name": "RoleAdminChanged",
      "type": "event"
    },
    {
      "anonymous": false,
      "inputs": [
        {
          "indexed": true,
          "internalType": "bytes32",
          "name": "role",
          "type": "bytes32"
        },
        {
          "indexed": true,
          "internalType": "address",
          "name": "account",
          "type": "address"
        },
        {
          "indexed": true,
          "internalType": "address",
          "name": "sender",
          "type": "address"
        }
      ],
      "name": "RoleGranted",
      "type": "event"
    },
    {
      "anonymous": false,
      "inputs": [
        {
          "indexed": true,
          "internalType": "bytes32",
          "name": "role",
          "type": "bytes32"
        },
        {
          "indexed": true,
          "internalType": "address",
          "name": "account",
          "type": "address"
        },
        {
          "indexed": true,
          "internalType": "address",
          "name": "sender",
          "type": "address"
        }
      ],
      "name": "RoleRevoked",
      "type": "event"
    },
    {
      "inputs": [],
      "name": "DEFAULT_ADMIN_ROLE",
      "outputs": [
        {
          "internalType": "bytes32",
          "name": "",
          "type": "bytes32"
        }
      ],
      "stateMutability": "view",
      "type": "function"
    },
    {
      "inputs": [],
      "name": "MINTER_ROLE",
      "outputs": [
        {
          "internalType": "bytes32",
          "name": "",
          "type": "bytes32"
        }
      ],
      "stateMutability": "view",
      "type": "function"
    },
    {
      "inputs": [],
      "name": "PAUSER_ROLE",
      "outputs": [
        {
          "internalType": "bytes32",
          "name": "",
          "type": "bytes32"
        }
      ],
      "stateMutability": "view",
      "type": "function"
    },
    {
      "inputs": [
        {
          "internalType": "bytes32",
          "name": "role",
          "type": "bytes32"
        }
      ],
      "name": "getRoleAdmin",
      "outputs": [
        {
          "internalType": "bytes32",
          "name": "",
          "type": "bytes32"
        }
      ],
      "stateMutability": "view",
      "type": "function"
    },
    {
      "inputs": [
        {
          "internalType": "bytes32",
          "name": "role",
          "type": "bytes32"
        },
        {
          "internalType": "uint256",
          "name": "index",
          "type": "uint256"
        }
      ],
      "name": "getRoleMember",
      "outputs": [
        {
          "internalType": "address",
          "name": "",
          "type": "address"
        }
      ],
      "stateMutability": "view",
      "type": "function"
    },
    {
      "inputs": [
        {
          "internalType": "bytes32",
          "name": "role",
          "type": "bytes32"
        }
      ],
      "name": "getRoleMemberCount",
      "outputs": [
        {
          "internalType": "uint256",
          "name": "",
          "type": "uint256"
        }
      ],
      "stateMutability": "view",
      "type": "function"
    },
    {
      "inputs": [
        {
          "internalType": "bytes32",
          "name": "role",
          "type": "bytes32"
        },
        {
          "internalType": "address",
          "name": "account",
          "type": "address"
        }
      ],
      "name": "grantRole",
      "outputs": [],
      "stateMutability": "nonpayable",
      "type": "function"
    },
    {
      "inputs": [
        {
          "internalType": "bytes32",
          "name": "role",
          "type": "bytes32"
        },
        {
          "internalType": "address",
          "name": "account",
          "type": "address"
        }
      ],
      "name": "hasRole",
      "outputs": [
        {
          "internalType": "bool",
          "name": "",
          "type": "bool"
        }
      ],
      "stateMutability": "view",
      "type": "function"
    },
    {
      "inputs": [
        {
          "internalType": "bytes32",
          "name": "role",
          "type": "bytes32"
        },
        {
          "internalType": "address",
          "name": "account",
          "type": "address"
        }
      ],
      "name": "renounceRole",
      "outputs": [],
      "stateMutability": "nonpayable",
      "type": "function"
    },
    {
      "inputs": [
        {
          "internalType": "bytes32",
          "name": "role",
          "type": "bytes32"
        },
        {
          "internalType": "address",
          "name": "account",
          "type": "address"
        }
      ],
      "name": "revokeRole",
      "outputs": [],
      "stateMutability": "nonpayable",
      "type": "function"
    },
    {
      "inputs": [
        {
          "internalType": "bytes4",
          "name": "interfaceId",
          "type": "bytes4"
        }
      ],
      "name": "supportsInterface",
      "outputs": [
        {
          "internalType": "bool",
          "name": "",
          "type": "bool"
        }
      ],
      "stateMutability": "view",
      "type": "function"
    }
  ],
  "bytecode": "0x608060405234801561001057600080fd5b50610abc806100206000396000f3fe608060405234801561001057600080fd5b50600436106100a95760003560e01c806391d148541161007157806391d148541461015a578063a217fddf1461016d578063ca15c87314610175578063d539139314610188578063d547741f146101af578063e63ab1e9146101c257600080fd5b806301ffc9a7146100ae578063248a9ca3146100d65780632f2ff15d1461010757806336568abe1461011c5780639010d07c1461012f575b600080fd5b6100c16100bc36600461086d565b6101e9565b60405190151581526020015b60405180910390f35b6100f96100e4366004610897565b60009081526065602052604090206001015490565b6040519081526020016100cd565b61011a6101153660046108b0565b610214565b005b61011a61012a3660046108b0565b61023e565b61014261013d3660046108ec565b6102c1565b6040516001600160a01b0390911681526020016100cd565b6100c16101683660046108b0565b6102e0565b6100f9600081565b6100f9610183366004610897565b61030b565b6100f97f9f2df0fed2c77648de5860a4cc508cd0818c85b8b8a1ab4ceeef8d981c8956a681565b61011a6101bd3660046108b0565b610322565b6100f97f65d7a28e3265b37a6474929f336521b332c1681b933f6cb9f3376673440d862a81565b60006001600160e01b03198216635a05180f60e01b148061020e575061020e82610347565b92915050565b60008281526065602052604090206001015461022f8161037c565b6102398383610389565b505050565b6001600160a01b03811633146102b35760405162461bcd60e51b815260206004820152602f60248201527f416363657373436f6e74726f6c3a2063616e206f6e6c792072656e6f756e636560448201526e103937b632b9903337b91039b2b63360891b60648201526084015b60405180910390fd5b6102bd82826103ab565b5050565b60008281526097602052604081206102d990836103cd565b9392505050565b60009182526065602090815260408084206001600160a01b0393909316845291905290205460ff1690565b600081815260976020526040812061020e906103d9565b60008281526065602052604090206001015461033d8161037c565b61023983836103ab565b60006001600160e01b03198216637965db0b60e01b148061020e57506301ffc9a760e01b6001600160e01b031983161461020e565b61038681336103e3565b50565b610393828261043c565b600082815260976020526040902061023990826104c2565b6103b582826104d7565b6000828152609760205260409020610239908261053e565b60006102d98383610553565b600061020e825490565b6103ed82826102e0565b6102bd576103fa8161057d565b61040583602061058f565b604051602001610416929190610932565b60408051601f198184030181529082905262461bcd60e51b82526102aa916004016109a7565b61044682826102e0565b6102bd5760008281526065602090815260408083206001600160a01b03851684529091529020805460ff1916600117905561047e3390565b6001600160a01b0316816001600160a01b0316837f2f8788117e7eff1d82e926ec794901d17c78024a50270940304540a733656f0d60405160405180910390a45050565b60006102d9836001600160a01b03841661072b565b6104e182826102e0565b156102bd5760008281526065602090815260408083206001600160a01b0385168085529252808320805460ff1916905551339285917ff6391f5c32d9c69d2a47ea670b442974b53935d1edc7fd64eb21e047a839171b9190a45050565b60006102d9836001600160a01b03841661077a565b600082600001828154811061056a5761056a6109da565b9060005260206000200154905092915050565b606061020e6001600160a01b03831660145b6060600061059e836002610a06565b6105a9906002610a1d565b67ffffffffffffffff8111156105c1576105c1610a30565b6040519080825280601f01601f1916602001820160405280156105eb576020820181803683370190505b509050600360fc1b81600081518110610606576106066109da565b60200101906001600160f81b031916908160001a905350600f60fb1b81600181518110610635576106356109da565b60200101906001600160f81b031916908160001a9053506000610659846002610a06565b610664906001610a1d565b90505b60018111156106dc576f181899199a1a9b1b9c1cb0b131b232b360811b85600f1660108110610698576106986109da565b1a60f81b8282815181106106ae576106ae6109da565b60200101906001600160f81b031916908160001a90535060049490941c936106d581610a46565b9050610667565b5083156102d95760405162461bcd60e51b815260206004820181905260248201527f537472696e67733a20686578206c656e67746820696e73756666696369656e7460448201526064016102aa565b60008181526001830160205260408120546107725750815460018181018455600084815260208082209093018490558454848252828601909352604090209190915561020e565b50600061020e565b6000818152600183016020526040812054801561086357600061079e600183610a5d565b85549091506000906107b290600190610a5d565b90508181146108175760008660000182815481106107d2576107d26109da565b90600052602060002001549050808760000184815481106107f5576107f56109da565b6000918252602080832090910192909255918252600188019052604090208390555b855486908061082857610828610a70565b60019003818190600052602060002001600090559055856001016000868152602001908152602001600020600090556001935050505061020e565b600091505061020e565b60006020828403121561087f57600080fd5b81356001600160e01b0319811681146102d957600080fd5b6000602082840312156108a957600080fd5b5035919050565b600080604083850312156108c357600080fd5b8235915060208301356001600160a01b03811681146108e157600080fd5b809150509250929050565b600080604083850312156108ff57600080fd5b50508035926020909101359150565b60005b83811015610929578181015183820152602001610911565b50506000910152565b7f416363657373436f6e74726f6c3a206163636f756e742000000000000000000081526000835161096a81601785016020880161090e565b7001034b99036b4b9b9b4b733903937b6329607d1b601791840191820152835161099b81602884016020880161090e565b01602801949350505050565b60208152600082518060208401526109c681604085016020870161090e565b601f01601f19169190910160400192915050565b634e487b7160e01b600052603260045260246000fd5b634e487b7160e01b600052601160045260246000fd5b808202811582820484141761020e5761020e6109f0565b8082018082111561020e5761020e6109f0565b634e487b7160e01b600052604160045260246000fd5b600081610a5557610a556109f0565b506000190190565b8181038181111561020e5761020e6109f0565b634e487b7160e01b600052603160045260246000fdfea2646970667358221220cb6bbfe064912a676525319f3d7838669762d9d25172b7db3c22aa0c0b09dafb64736f6c63430008130033",
  "linkReferences": {},
  "deployedLinkReferences": {}
}