{
  "_format": "hh-sol-artifact-1",
  "contractName": "MeterERC20",
  "sourceName": "contracts/MeterERC20.sol",
  "abi": [
    {
      "inputs": [],
      "stateMutability": "nonpayable",
      "type": "constructor"
    },
    {
      "anonymous": false,
      "inputs": [
        {
          "indexed": true,
          "internalType": "address",
          "name": "owner",
          "type": "address"
        },
        {
          "indexed": true,
          "internalType": "address",
          "name": "spender",
          "type": "address"
        },
        {
          "indexed": false,
          "internalType": "uint256",
          "name": "value",
          "type": "uint256"
        }
      ],
      "name": "Approval",
      "type": "event"
    },
    {
      "anonymous": false,
      "inputs": [
        {
          "indexed": true,
          "internalType": "bytes32",
          "name": "role",
          "type": "bytes32"
        },
        {
          "indexed": true,
          "internalType": "bytes32",
          "name": "previousAdminRole",
          "type": "bytes32"
        },
        {
          "indexed": true,
          "internalType": "bytes32",
          "name": "newAdminRole",
          "type": "bytes32"
        }
      ],
      "name": "RoleAdminChanged",
      "type": "event"
    },
    {
      "anonymous": false,
      "inputs": [
        {
          "indexed": true,
          "internalType": "bytes32",
          "name": "role",
          "type": "bytes32"
        },
        {
          "indexed": true,
          "internalType": "address",
          "name": "account",
          "type": "address"
        },
        {
          "indexed": true,
          "internalType": "address",
          "name": "sender",
          "type": "address"
        }
      ],
      "name": "RoleGranted",
      "type": "event"
    },
    {
      "anonymous": false,
      "inputs": [
        {
          "indexed": true,
          "internalType": "bytes32",
          "name": "role",
          "type": "bytes32"
        },
        {
          "indexed": true,
          "internalType": "address",
          "name": "account",
          "type": "address"
        },
        {
          "indexed": true,
          "internalType": "address",
          "name": "sender",
          "type": "address"
        }
      ],
      "name": "RoleRevoked",
      "type": "event"
    },
    {
      "anonymous": false,
      "inputs": [
        {
          "indexed": true,
          "internalType": "address",
          "name": "from",
          "type": "address"
        },
        {
          "indexed": true,
          "internalType": "address",
          "name": "to",
          "type": "address"
        },
        {
          "indexed": false,
          "internalType": "uint256",
          "name": "value",
          "type": "uint256"
        }
      ],
      "name": "Transfer",
      "type": "event"
    },
    {
      "inputs": [],
      "name": "DEFAULT_ADMIN_ROLE",
      "outputs": [
        {
          "internalType": "bytes32",
          "name": "",
          "type": "bytes32"
        }
      ],
      "stateMutability": "view",
      "type": "function"
    },
    {
      "inputs": [],
      "name": "PERMIT_TYPEHASH",
      "outputs": [
        {
          "internalType": "bytes32",
          "name": "",
          "type": "bytes32"
        }
      ],
      "stateMutability": "view",
      "type": "function"
    },
    {
      "inputs": [
        {
          "internalType": "address",
          "name": "_owner",
          "type": "address"
        },
        {
          "internalType": "address",
          "name": "_spender",
          "type": "address"
        }
      ],
      "name": "allowance",
      "outputs": [
        {
          "internalType": "uint256",
          "name": "remaining",
          "type": "uint256"
        }
      ],
      "stateMutability": "view",
      "type": "function"
    },
    {
      "inputs": [
        {
          "internalType": "address",
          "name": "_spender",
          "type": "address"
        },
        {
          "internalType": "uint256",
          "name": "_value",
          "type": "uint256"
        }
      ],
      "name": "approve",
      "outputs": [
        {
          "internalType": "bool",
          "name": "success",
          "type": "bool"
        }
      ],
      "stateMutability": "nonpayable",
      "type": "function"
    },
    {
      "inputs": [
        {
          "internalType": "address",
          "name": "_owner",
          "type": "address"
        }
      ],
      "name": "balanceOf",
      "outputs": [
        {
          "internalType": "uint256",
          "name": "balance",
          "type": "uint256"
        }
      ],
      "stateMutability": "view",
      "type": "function"
    },
    {
      "inputs": [],
      "name": "decimals",
      "outputs": [
        {
          "internalType": "uint8",
          "name": "",
          "type": "uint8"
        }
      ],
      "stateMutability": "pure",
      "type": "function"
    },
    {
      "inputs": [
        {
          "internalType": "address",
          "name": "account",
          "type": "address"
        }
      ],
      "name": "getBlackList",
      "outputs": [
        {
          "internalType": "bool",
          "name": "",
          "type": "bool"
        }
      ],
      "stateMutability": "view",
      "type": "function"
    },
    {
      "inputs": [
        {
          "internalType": "bytes32",
          "name": "role",
          "type": "bytes32"
        }
      ],
      "name": "getRoleAdmin",
      "outputs": [
        {
          "internalType": "bytes32",
          "name": "",
          "type": "bytes32"
        }
      ],
      "stateMutability": "view",
      "type": "function"
    },
    {
      "inputs": [
        {
          "internalType": "bytes32",
          "name": "role",
          "type": "bytes32"
        },
        {
          "internalType": "uint256",
          "name": "index",
          "type": "uint256"
        }
      ],
      "name": "getRoleMember",
      "outputs": [
        {
          "internalType": "address",
          "name": "",
          "type": "address"
        }
      ],
      "stateMutability": "view",
      "type": "function"
    },
    {
      "inputs": [
        {
          "internalType": "bytes32",
          "name": "role",
          "type": "bytes32"
        }
      ],
      "name": "getRoleMemberCount",
      "outputs": [
        {
          "internalType": "uint256",
          "name": "",
          "type": "uint256"
        }
      ],
      "stateMutability": "view",
      "type": "function"
    },
    {
      "inputs": [
        {
          "internalType": "bytes32",
          "name": "role",
          "type": "bytes32"
        },
        {
          "internalType": "address",
          "name": "account",
          "type": "address"
        }
      ],
      "name": "grantRole",
      "outputs": [],
      "stateMutability": "nonpayable",
      "type": "function"
    },
    {
      "inputs": [
        {
          "internalType": "bytes32",
          "name": "role",
          "type": "bytes32"
        },
        {
          "internalType": "address",
          "name": "account",
          "type": "address"
        }
      ],
      "name": "hasRole",
      "outputs": [
        {
          "internalType": "bool",
          "name": "",
          "type": "bool"
        }
      ],
      "stateMutability": "view",
      "type": "function"
    },
    {
      "inputs": [],
      "name": "name",
      "outputs": [
        {
          "internalType": "string",
          "name": "",
          "type": "string"
        }
      ],
      "stateMutability": "pure",
      "type": "function"
    },
    {
      "inputs": [
        {
          "internalType": "address",
          "name": "",
          "type": "address"
        }
      ],
      "name": "nonces",
      "outputs": [
        {
          "internalType": "uint256",
          "name": "",
          "type": "uint256"
        }
      ],
      "stateMutability": "view",
      "type": "function"
    },
    {
      "inputs": [
        {
          "internalType": "address",
          "name": "owner",
          "type": "address"
        },
        {
          "internalType": "address",
          "name": "spender",
          "type": "address"
        },
        {
          "internalType": "uint256",
          "name": "value",
          "type": "uint256"
        },
        {
          "internalType": "uint256",
          "name": "deadline",
          "type": "uint256"
        },
        {
          "internalType": "bytes",
          "name": "signature",
          "type": "bytes"
        }
      ],
      "name": "permit",
      "outputs": [
        {
          "internalType": "bool",
          "name": "",
          "type": "bool"
        }
      ],
      "stateMutability": "nonpayable",
      "type": "function"
    },
    {
      "inputs": [
        {
          "internalType": "bytes32",
          "name": "role",
          "type": "bytes32"
        },
        {
          "internalType": "address",
          "name": "account",
          "type": "address"
        }
      ],
      "name": "renounceRole",
      "outputs": [],
      "stateMutability": "nonpayable",
      "type": "function"
    },
    {
      "inputs": [
        {
          "internalType": "bytes32",
          "name": "role",
          "type": "bytes32"
        },
        {
          "internalType": "address",
          "name": "account",
          "type": "address"
        }
      ],
      "name": "revokeRole",
      "outputs": [],
      "stateMutability": "nonpayable",
      "type": "function"
    },
    {
      "inputs": [
        {
          "internalType": "address",
          "name": "account",
          "type": "address"
        }
      ],
      "name": "setBlackList",
      "outputs": [],
      "stateMutability": "nonpayable",
      "type": "function"
    },
    {
      "inputs": [
        {
          "internalType": "bytes4",
          "name": "interfaceId",
          "type": "bytes4"
        }
      ],
      "name": "supportsInterface",
      "outputs": [
        {
          "internalType": "bool",
          "name": "",
          "type": "bool"
        }
      ],
      "stateMutability": "view",
      "type": "function"
    },
    {
      "inputs": [],
      "name": "symbol",
      "outputs": [
        {
          "internalType": "string",
          "name": "",
          "type": "string"
        }
      ],
      "stateMutability": "pure",
      "type": "function"
    },
    {
      "inputs": [],
      "name": "totalBurned",
      "outputs": [
        {
          "internalType": "uint256",
          "name": "",
          "type": "uint256"
        }
      ],
      "stateMutability": "view",
      "type": "function"
    },
    {
      "inputs": [],
      "name": "totalSupply",
      "outputs": [
        {
          "internalType": "uint256",
          "name": "",
          "type": "uint256"
        }
      ],
      "stateMutability": "view",
      "type": "function"
    },
    {
      "inputs": [
        {
          "internalType": "address",
          "name": "_to",
          "type": "address"
        },
        {
          "internalType": "uint256",
          "name": "_amount",
          "type": "uint256"
        }
      ],
      "name": "transfer",
      "outputs": [
        {
          "internalType": "bool",
          "name": "success",
          "type": "bool"
        }
      ],
      "stateMutability": "nonpayable",
      "type": "function"
    },
    {
      "inputs": [
        {
          "internalType": "address",
          "name": "_from",
          "type": "address"
        },
        {
          "internalType": "address",
          "name": "_to",
          "type": "address"
        },
        {
          "internalType": "uint256",
          "name": "_amount",
          "type": "uint256"
        }
      ],
      "name": "transferFrom",
      "outputs": [
        {
          "internalType": "bool",
          "name": "success",
          "type": "bool"
        }
      ],
      "stateMutability": "nonpayable",
      "type": "function"
    }
  ],
  "bytecode": "0x6101206040523480156200001257600080fd5b50604080518082018252600581526426b2ba32b960d91b6020808301918252835180850185526004815263076312e360e41b908201529151902060c08181527fe8245ed8f93ccf147bc8972ab6d5f8278ed994d647700daaa5b7ebde9370aa6f60e08190524660a081815286517f8b73c3c69bb8fe3d512ecc4cf759cc79239f7b179b0ffacaa9a75d522b39400f8188018190528189019690965260608101939093526080808401929092523083820152865180840390910181529190920190945283519390920192909220905261010052600380546001600160a01b0319166a4d657465724e61746976651790556200010e60003362000114565b62000279565b6200012b82826200015760201b620009681760201c565b6000828152600160209081526040909120620001529183906200097662000167821b17901c565b505050565b62000163828262000187565b5050565b60006200017e836001600160a01b03841662000227565b90505b92915050565b6000828152602081815260408083206001600160a01b038516845290915290205460ff1662000163576000828152602081815260408083206001600160a01b03851684529091529020805460ff19166001179055620001e33390565b6001600160a01b0316816001600160a01b0316837f2f8788117e7eff1d82e926ec794901d17c78024a50270940304540a733656f0d60405160405180910390a45050565b6000818152600183016020526040812054620002705750815460018181018455600084815260208082209093018490558454848252828601909352604090209190915562000181565b50600062000181565b60805160a05160c05160e05161010051611a03620002be6000396000610fed0152600061103c0152600061101701526000610f9b01526000610fc40152611a036000f3fe608060405234801561001057600080fd5b50600436106101585760003560e01c806372700241116100c3578063a217fddf1161007c578063a217fddf14610335578063a9059cbb1461033d578063ca15c87314610350578063d547741f14610363578063d89135cd14610376578063dd62ed3e1461037e57600080fd5b806372700241146102925780637ecebe00146102a55780639010d07c146102c557806391d14854146102f057806395d89b41146103035780639fd5a6cf1461032257600080fd5b80632f2ff15d116101155780632f2ff15d1461020e57806330adf81f14610223578063313ce5671461024a57806336568abe146102595780633fbdc67d1461026c57806370a082311461027f57600080fd5b806301ffc9a71461015d57806306fdde0314610185578063095ea7b3146101af57806318160ddd146101c257806323b872dd146101d8578063248a9ca3146101eb575b600080fd5b61017061016b366004611570565b6103b7565b60405190151581526020015b60405180910390f35b60408051808201909152600581526426b2ba32b960d91b60208201525b60405161017c91906115ca565b6101706101bd366004611614565b6103e2565b6101ca61044e565b60405190815260200161017c565b6101706101e636600461163e565b6104c1565b6101ca6101f936600461167a565b60009081526020819052604090206001015490565b61022161021c366004611693565b610587565b005b6101ca7f6e71edae12b1b97f4d1f60370fef10105fa2faae0126114a169c64845d6126c981565b6040516012815260200161017c565b610221610267366004611693565b6105ae565b61017061027a3660046116bf565b6105d0565b6101ca61028d3660046116bf565b61061b565b6102216102a03660046116bf565b61068a565b6101ca6102b33660046116bf565b60056020526000908152604090205481565b6102d86102d33660046116da565b6106da565b6040516001600160a01b03909116815260200161017c565b6101706102fe366004611693565b6106f9565b60408051808201909152600381526226aa2960e91b60208201526101a2565b610170610330366004611712565b610722565b6101ca600081565b61017061034b366004611614565b6108e7565b6101ca61035e36600461167a565b6108fd565b610221610371366004611693565b610914565b6101ca61091e565b6101ca61038c3660046117f8565b6001600160a01b03918216600090815260026020908152604080832093909416825291909152205490565b60006001600160e01b03198216635a05180f60e01b14806103dc57506103dc8261098b565b92915050565b3360008181526002602090815260408083206001600160a01b038716808552925280832085905551919290917f8c5be1e5ebec7d5bd14f71427d1e84f3dd0314c0f7b2291e5b200ac8c7c3b9259061043d9086815260200190565b60405180910390a350600192915050565b6003546040805163076e361d60e01b815290516000926001600160a01b03169163076e361d9160048083019260209291908290030181865afa158015610498573d6000803e3d6000fd5b505050506040513d601f19601f820116820180604052508101906104bc9190611822565b905090565b6001600160a01b03831660009081526002602090815260408083203384529091528120548211156105395760405162461bcd60e51b815260206004820152601f60248201527f6275696c74696e3a20696e73756666696369656e7420616c6c6f77616e63650060448201526064015b60405180910390fd5b6001600160a01b03841660009081526002602090815260408083203384529091528120805484929061056c908490611851565b9091555061057d90508484846109c0565b5060019392505050565b6105918282610b7b565b60008281526001602052604090206105a99082610976565b505050565b6105b88282610ba1565b60008281526001602052604090206105a99082610c1b565b60006105dc81336106f9565b6105f85760405162461bcd60e51b815260040161053090611868565b506001600160a01b03811660009081526004602052604090205460ff165b919050565b600354604051630511d90360e01b81526001600160a01b0383811660048301526000921690630511d90390602401602060405180830381865afa158015610666573d6000803e3d6000fd5b505050506040513d601f19601f820116820180604052508101906103dc9190611822565b6106956000336106f9565b6106b15760405162461bcd60e51b815260040161053090611868565b6001600160a01b03166000908152600460205260409020805460ff19811660ff90911615179055565b60008281526001602052604081206106f29083610c30565b9392505050565b6000918252602082815260408084206001600160a01b0393909316845291905290205460ff1690565b60004283101561075f5760405162461bcd60e51b8152602060048201526008602482015267657870697265642160c01b6044820152606401610530565b6001600160a01b038616600090815260056020526040812080547f6e71edae12b1b97f4d1f60370fef10105fa2faae0126114a169c64845d6126c99189918991899190866107ac8361188b565b909155506040805160208101969096526001600160a01b0394851690860152929091166060840152608083015260a082015260c0810185905260e001604051602081830303815290604052805190602001209050600061080b82610c3c565b905060006108198286610c8a565b9050806001600160a01b0316896001600160a01b03161461087c5760405162461bcd60e51b815260206004820152601960248201527f5065726d69743a20696e76616c6964207369676e6174757265000000000000006044820152606401610530565b6001600160a01b038981166000818152600260209081526040808320948d16808452948252918290208b905590518a81527f8c5be1e5ebec7d5bd14f71427d1e84f3dd0314c0f7b2291e5b200ac8c7c3b925910160405180910390a350600198975050505050505050565b60006108f43384846109c0565b50600192915050565b60008181526001602052604081206103dc90610cae565b6105b88282610cb8565b6003546040805163ccc7df9d60e01b815290516000926001600160a01b03169163ccc7df9d9160048083019260209291908290030181865afa158015610498573d6000803e3d6000fd5b6109728282610cde565b5050565b60006106f2836001600160a01b038416610d62565b60006001600160e01b03198216637965db0b60e01b14806103dc57506301ffc9a760e01b6001600160e01b03198316146103dc565b6001600160a01b03831660009081526004602052604090205460ff16156109f95760405162461bcd60e51b815260040161053090611868565b8015610b295760035460405163f14645f560e01b81526001600160a01b038581166004830152602482018490529091169063f14645f5906044016020604051808303816000875af1158015610a52573d6000803e3d6000fd5b505050506040513d601f19601f82011682018060405250810190610a7691906118a6565b610ac25760405162461bcd60e51b815260206004820152601d60248201527f6275696c74696e3a20696e73756666696369656e742062616c616e63650000006044820152606401610530565b60035460405163740b155f60e01b81526001600160a01b038481166004830152602482018490529091169063740b155f90604401600060405180830381600087803b158015610b1057600080fd5b505af1158015610b24573d6000803e3d6000fd5b505050505b816001600160a01b0316836001600160a01b03167fddf252ad1be2c89b69c2b068fc378daa952ba7f163c4a11628f55a4df523b3ef83604051610b6e91815260200190565b60405180910390a3505050565b600082815260208190526040902060010154610b978133610db1565b6105a98383610cde565b6001600160a01b0381163314610c115760405162461bcd60e51b815260206004820152602f60248201527f416363657373436f6e74726f6c3a2063616e206f6e6c792072656e6f756e636560448201526e103937b632b9903337b91039b2b63360891b6064820152608401610530565b6109728282610e15565b60006106f2836001600160a01b038416610e7a565b60006106f28383610f6d565b60006103dc610c49610f97565b8360405161190160f01b6020820152602281018390526042810182905260009060620160405160208183030381529060405280519060200120905092915050565b6000806000610c99858561108a565b91509150610ca6816110fa565b509392505050565b60006103dc825490565b600082815260208190526040902060010154610cd48133610db1565b6105a98383610e15565b610ce882826106f9565b610972576000828152602081815260408083206001600160a01b03851684529091529020805460ff19166001179055610d1e3390565b6001600160a01b0316816001600160a01b0316837f2f8788117e7eff1d82e926ec794901d17c78024a50270940304540a733656f0d60405160405180910390a45050565b6000818152600183016020526040812054610da9575081546001818101845560008481526020808220909301849055845484825282860190935260409020919091556103dc565b5060006103dc565b610dbb82826106f9565b61097257610dd3816001600160a01b031660146112b8565b610dde8360206112b8565b604051602001610def9291906118c8565b60408051601f198184030181529082905262461bcd60e51b8252610530916004016115ca565b610e1f82826106f9565b15610972576000828152602081815260408083206001600160a01b0385168085529252808320805460ff1916905551339285917ff6391f5c32d9c69d2a47ea670b442974b53935d1edc7fd64eb21e047a839171b9190a45050565b60008181526001830160205260408120548015610f63576000610e9e600183611851565b8554909150600090610eb290600190611851565b9050818114610f17576000866000018281548110610ed257610ed261193d565b9060005260206000200154905080876000018481548110610ef557610ef561193d565b6000918252602080832090910192909255918252600188019052604090208390555b8554869080610f2857610f28611953565b6001900381819060005260206000200160009055905585600101600086815260200190815260200160002060009055600193505050506103dc565b60009150506103dc565b6000826000018281548110610f8457610f8461193d565b9060005260206000200154905092915050565b60007f0000000000000000000000000000000000000000000000000000000000000000461415610fe657507f000000000000000000000000000000000000000000000000000000000000000090565b50604080517f00000000000000000000000000000000000000000000000000000000000000006020808301919091527f0000000000000000000000000000000000000000000000000000000000000000828401527f000000000000000000000000000000000000000000000000000000000000000060608301524660808301523060a0808401919091528351808403909101815260c0909201909252805191012090565b6000808251604114156110c15760208301516040840151606085015160001a6110b587828585611454565b945094505050506110f3565b8251604014156110eb57602083015160408401516110e0868383611541565b9350935050506110f3565b506000905060025b9250929050565b600081600481111561110e5761110e611969565b14156111175750565b600181600481111561112b5761112b611969565b14156111795760405162461bcd60e51b815260206004820152601860248201527f45434453413a20696e76616c6964207369676e617475726500000000000000006044820152606401610530565b600281600481111561118d5761118d611969565b14156111db5760405162461bcd60e51b815260206004820152601f60248201527f45434453413a20696e76616c6964207369676e6174757265206c656e677468006044820152606401610530565b60038160048111156111ef576111ef611969565b14156112485760405162461bcd60e51b815260206004820152602260248201527f45434453413a20696e76616c6964207369676e6174757265202773272076616c604482015261756560f01b6064820152608401610530565b600481600481111561125c5761125c611969565b14156112b55760405162461bcd60e51b815260206004820152602260248201527f45434453413a20696e76616c6964207369676e6174757265202776272076616c604482015261756560f01b6064820152608401610530565b50565b606060006112c783600261197f565b6112d290600261199e565b67ffffffffffffffff8111156112ea576112ea6116fc565b6040519080825280601f01601f191660200182016040528015611314576020820181803683370190505b509050600360fc1b8160008151811061132f5761132f61193d565b60200101906001600160f81b031916908160001a905350600f60fb1b8160018151811061135e5761135e61193d565b60200101906001600160f81b031916908160001a905350600061138284600261197f565b61138d90600161199e565b90505b6001811115611405576f181899199a1a9b1b9c1cb0b131b232b360811b85600f16601081106113c1576113c161193d565b1a60f81b8282815181106113d7576113d761193d565b60200101906001600160f81b031916908160001a90535060049490941c936113fe816119b6565b9050611390565b5083156106f25760405162461bcd60e51b815260206004820181905260248201527f537472696e67733a20686578206c656e67746820696e73756666696369656e746044820152606401610530565b6000807f7fffffffffffffffffffffffffffffff5d576e7357a4501ddfe92f46681b20a083111561148b5750600090506003611538565b8460ff16601b141580156114a357508460ff16601c14155b156114b45750600090506004611538565b6040805160008082526020820180845289905260ff881692820192909252606081018690526080810185905260019060a0016020604051602081039080840390855afa158015611508573d6000803e3d6000fd5b5050604051601f1901519150506001600160a01b03811661153157600060019250925050611538565b9150600090505b94509492505050565b6000806001600160ff1b03831660ff84901c601b0161156287828885611454565b935093505050935093915050565b60006020828403121561158257600080fd5b81356001600160e01b0319811681146106f257600080fd5b60005b838110156115b557818101518382015260200161159d565b838111156115c4576000848401525b50505050565b60208152600082518060208401526115e981604085016020870161159a565b601f01601f19169190910160400192915050565b80356001600160a01b038116811461061657600080fd5b6000806040838503121561162757600080fd5b611630836115fd565b946020939093013593505050565b60008060006060848603121561165357600080fd5b61165c846115fd565b925061166a602085016115fd565b9150604084013590509250925092565b60006020828403121561168c57600080fd5b5035919050565b600080604083850312156116a657600080fd5b823591506116b6602084016115fd565b90509250929050565b6000602082840312156116d157600080fd5b6106f2826115fd565b600080604083850312156116ed57600080fd5b50508035926020909101359150565b634e487b7160e01b600052604160045260246000fd5b600080600080600060a0868803121561172a57600080fd5b611733866115fd565b9450611741602087016115fd565b93506040860135925060608601359150608086013567ffffffffffffffff8082111561176c57600080fd5b818801915088601f83011261178057600080fd5b813581811115611792576117926116fc565b604051601f8201601f19908116603f011681019083821181831017156117ba576117ba6116fc565b816040528281528b60208487010111156117d357600080fd5b8260208601602083013760006020848301015280955050505050509295509295909350565b6000806040838503121561180b57600080fd5b611814836115fd565b91506116b6602084016115fd565b60006020828403121561183457600080fd5b5051919050565b634e487b7160e01b600052601160045260246000fd5b6000828210156118635761186361183b565b500390565b6020808252600990820152683337b93134b23232b760b91b604082015260600190565b600060001982141561189f5761189f61183b565b5060010190565b6000602082840312156118b857600080fd5b815180151581146106f257600080fd5b7f416363657373436f6e74726f6c3a206163636f756e742000000000000000000081526000835161190081601785016020880161159a565b7001034b99036b4b9b9b4b733903937b6329607d1b601791840191820152835161193181602884016020880161159a565b01602801949350505050565b634e487b7160e01b600052603260045260246000fd5b634e487b7160e01b600052603160045260246000fd5b634e487b7160e01b600052602160045260246000fd5b60008160001904831182151516156119995761199961183b565b500290565b600082198211156119b1576119b161183b565b500190565b6000816119c5576119c561183b565b50600019019056fea264697066735822122081d3c7a61188fcdd3cd42e47a34645d0a07576fc81c42b954618b378c8de6f4b64736f6c634300080b0033",
  "linkReferences": {},
  "deployedLinkReferences": {}
}