{
  "_format": "hh-sol-artifact-1",
  "contractName": "MeterERC20Upgradeable",
  "sourceName": "contracts/MeterERC20Upgradeable.sol",
  "abi": [
    {
      "anonymous": false,
      "inputs": [
        {
          "indexed": true,
          "internalType": "address",
          "name": "owner",
          "type": "address"
        },
        {
          "indexed": true,
          "internalType": "address",
          "name": "spender",
          "type": "address"
        },
        {
          "indexed": false,
          "internalType": "uint256",
          "name": "value",
          "type": "uint256"
        }
      ],
      "name": "Approval",
      "type": "event"
    },
    {
      "anonymous": false,
      "inputs": [
        {
          "indexed": true,
          "internalType": "bytes32",
          "name": "role",
          "type": "bytes32"
        },
        {
          "indexed": true,
          "internalType": "bytes32",
          "name": "previousAdminRole",
          "type": "bytes32"
        },
        {
          "indexed": true,
          "internalType": "bytes32",
          "name": "newAdminRole",
          "type": "bytes32"
        }
      ],
      "name": "RoleAdminChanged",
      "type": "event"
    },
    {
      "anonymous": false,
      "inputs": [
        {
          "indexed": true,
          "internalType": "bytes32",
          "name": "role",
          "type": "bytes32"
        },
        {
          "indexed": true,
          "internalType": "address",
          "name": "account",
          "type": "address"
        },
        {
          "indexed": true,
          "internalType": "address",
          "name": "sender",
          "type": "address"
        }
      ],
      "name": "RoleGranted",
      "type": "event"
    },
    {
      "anonymous": false,
      "inputs": [
        {
          "indexed": true,
          "internalType": "bytes32",
          "name": "role",
          "type": "bytes32"
        },
        {
          "indexed": true,
          "internalType": "address",
          "name": "account",
          "type": "address"
        },
        {
          "indexed": true,
          "internalType": "address",
          "name": "sender",
          "type": "address"
        }
      ],
      "name": "RoleRevoked",
      "type": "event"
    },
    {
      "anonymous": false,
      "inputs": [
        {
          "indexed": true,
          "internalType": "address",
          "name": "from",
          "type": "address"
        },
        {
          "indexed": true,
          "internalType": "address",
          "name": "to",
          "type": "address"
        },
        {
          "indexed": false,
          "internalType": "uint256",
          "name": "value",
          "type": "uint256"
        }
      ],
      "name": "Transfer",
      "type": "event"
    },
    {
      "inputs": [],
      "name": "DEFAULT_ADMIN_ROLE",
      "outputs": [
        {
          "internalType": "bytes32",
          "name": "",
          "type": "bytes32"
        }
      ],
      "stateMutability": "view",
      "type": "function"
    },
    {
      "inputs": [],
      "name": "PERMIT_TYPEHASH",
      "outputs": [
        {
          "internalType": "bytes32",
          "name": "",
          "type": "bytes32"
        }
      ],
      "stateMutability": "view",
      "type": "function"
    },
    {
      "inputs": [
        {
          "internalType": "address",
          "name": "_owner",
          "type": "address"
        },
        {
          "internalType": "address",
          "name": "_spender",
          "type": "address"
        }
      ],
      "name": "allowance",
      "outputs": [
        {
          "internalType": "uint256",
          "name": "remaining",
          "type": "uint256"
        }
      ],
      "stateMutability": "view",
      "type": "function"
    },
    {
      "inputs": [
        {
          "internalType": "address",
          "name": "_spender",
          "type": "address"
        },
        {
          "internalType": "uint256",
          "name": "_value",
          "type": "uint256"
        }
      ],
      "name": "approve",
      "outputs": [
        {
          "internalType": "bool",
          "name": "success",
          "type": "bool"
        }
      ],
      "stateMutability": "nonpayable",
      "type": "function"
    },
    {
      "inputs": [
        {
          "internalType": "address",
          "name": "_owner",
          "type": "address"
        }
      ],
      "name": "balanceOf",
      "outputs": [
        {
          "internalType": "uint256",
          "name": "balance",
          "type": "uint256"
        }
      ],
      "stateMutability": "view",
      "type": "function"
    },
    {
      "inputs": [],
      "name": "decimals",
      "outputs": [
        {
          "internalType": "uint8",
          "name": "",
          "type": "uint8"
        }
      ],
      "stateMutability": "pure",
      "type": "function"
    },
    {
      "inputs": [
        {
          "internalType": "address",
          "name": "account",
          "type": "address"
        }
      ],
      "name": "getBlackList",
      "outputs": [
        {
          "internalType": "bool",
          "name": "",
          "type": "bool"
        }
      ],
      "stateMutability": "view",
      "type": "function"
    },
    {
      "inputs": [
        {
          "internalType": "bytes32",
          "name": "role",
          "type": "bytes32"
        }
      ],
      "name": "getRoleAdmin",
      "outputs": [
        {
          "internalType": "bytes32",
          "name": "",
          "type": "bytes32"
        }
      ],
      "stateMutability": "view",
      "type": "function"
    },
    {
      "inputs": [
        {
          "internalType": "bytes32",
          "name": "role",
          "type": "bytes32"
        },
        {
          "internalType": "uint256",
          "name": "index",
          "type": "uint256"
        }
      ],
      "name": "getRoleMember",
      "outputs": [
        {
          "internalType": "address",
          "name": "",
          "type": "address"
        }
      ],
      "stateMutability": "view",
      "type": "function"
    },
    {
      "inputs": [
        {
          "internalType": "bytes32",
          "name": "role",
          "type": "bytes32"
        }
      ],
      "name": "getRoleMemberCount",
      "outputs": [
        {
          "internalType": "uint256",
          "name": "",
          "type": "uint256"
        }
      ],
      "stateMutability": "view",
      "type": "function"
    },
    {
      "inputs": [
        {
          "internalType": "bytes32",
          "name": "role",
          "type": "bytes32"
        },
        {
          "internalType": "address",
          "name": "account",
          "type": "address"
        }
      ],
      "name": "grantRole",
      "outputs": [],
      "stateMutability": "nonpayable",
      "type": "function"
    },
    {
      "inputs": [
        {
          "internalType": "bytes32",
          "name": "role",
          "type": "bytes32"
        },
        {
          "internalType": "address",
          "name": "account",
          "type": "address"
        }
      ],
      "name": "hasRole",
      "outputs": [
        {
          "internalType": "bool",
          "name": "",
          "type": "bool"
        }
      ],
      "stateMutability": "view",
      "type": "function"
    },
    {
      "inputs": [],
      "name": "initialize",
      "outputs": [],
      "stateMutability": "nonpayable",
      "type": "function"
    },
    {
      "inputs": [],
      "name": "name",
      "outputs": [
        {
          "internalType": "string",
          "name": "",
          "type": "string"
        }
      ],
      "stateMutability": "pure",
      "type": "function"
    },
    {
      "inputs": [
        {
          "internalType": "address",
          "name": "",
          "type": "address"
        }
      ],
      "name": "nonces",
      "outputs": [
        {
          "internalType": "uint256",
          "name": "",
          "type": "uint256"
        }
      ],
      "stateMutability": "view",
      "type": "function"
    },
    {
      "inputs": [
        {
          "internalType": "address",
          "name": "owner",
          "type": "address"
        },
        {
          "internalType": "address",
          "name": "spender",
          "type": "address"
        },
        {
          "internalType": "uint256",
          "name": "value",
          "type": "uint256"
        },
        {
          "internalType": "uint256",
          "name": "deadline",
          "type": "uint256"
        },
        {
          "internalType": "bytes",
          "name": "signature",
          "type": "bytes"
        }
      ],
      "name": "permit",
      "outputs": [
        {
          "internalType": "bool",
          "name": "",
          "type": "bool"
        }
      ],
      "stateMutability": "nonpayable",
      "type": "function"
    },
    {
      "inputs": [
        {
          "internalType": "bytes32",
          "name": "role",
          "type": "bytes32"
        },
        {
          "internalType": "address",
          "name": "account",
          "type": "address"
        }
      ],
      "name": "renounceRole",
      "outputs": [],
      "stateMutability": "nonpayable",
      "type": "function"
    },
    {
      "inputs": [
        {
          "internalType": "bytes32",
          "name": "role",
          "type": "bytes32"
        },
        {
          "internalType": "address",
          "name": "account",
          "type": "address"
        }
      ],
      "name": "revokeRole",
      "outputs": [],
      "stateMutability": "nonpayable",
      "type": "function"
    },
    {
      "inputs": [
        {
          "internalType": "address",
          "name": "account",
          "type": "address"
        }
      ],
      "name": "setBlackList",
      "outputs": [],
      "stateMutability": "nonpayable",
      "type": "function"
    },
    {
      "inputs": [
        {
          "internalType": "bytes4",
          "name": "interfaceId",
          "type": "bytes4"
        }
      ],
      "name": "supportsInterface",
      "outputs": [
        {
          "internalType": "bool",
          "name": "",
          "type": "bool"
        }
      ],
      "stateMutability": "view",
      "type": "function"
    },
    {
      "inputs": [],
      "name": "symbol",
      "outputs": [
        {
          "internalType": "string",
          "name": "",
          "type": "string"
        }
      ],
      "stateMutability": "pure",
      "type": "function"
    },
    {
      "inputs": [],
      "name": "totalBurned",
      "outputs": [
        {
          "internalType": "uint256",
          "name": "",
          "type": "uint256"
        }
      ],
      "stateMutability": "view",
      "type": "function"
    },
    {
      "inputs": [],
      "name": "totalSupply",
      "outputs": [
        {
          "internalType": "uint256",
          "name": "",
          "type": "uint256"
        }
      ],
      "stateMutability": "view",
      "type": "function"
    },
    {
      "inputs": [
        {
          "internalType": "address",
          "name": "_to",
          "type": "address"
        },
        {
          "internalType": "uint256",
          "name": "_amount",
          "type": "uint256"
        }
      ],
      "name": "transfer",
      "outputs": [
        {
          "internalType": "bool",
          "name": "success",
          "type": "bool"
        }
      ],
      "stateMutability": "nonpayable",
      "type": "function"
    },
    {
      "inputs": [
        {
          "internalType": "address",
          "name": "_from",
          "type": "address"
        },
        {
          "internalType": "address",
          "name": "_to",
          "type": "address"
        },
        {
          "internalType": "uint256",
          "name": "_amount",
          "type": "uint256"
        }
      ],
      "name": "transferFrom",
      "outputs": [
        {
          "internalType": "bool",
          "name": "success",
          "type": "bool"
        }
      ],
      "stateMutability": "nonpayable",
      "type": "function"
    }
  ],
  "bytecode": "0x608060405234801561001057600080fd5b50611c14806100206000396000f3fe608060405234801561001057600080fd5b50600436106101735760003560e01c806372700241116100de5780639fd5a6cf11610097578063ca15c87311610071578063ca15c87314610374578063d547741f14610387578063d89135cd1461039a578063dd62ed3e146103a257600080fd5b80639fd5a6cf14610346578063a217fddf14610359578063a9059cbb1461036157600080fd5b806372700241146102ad5780637ecebe00146102c05780638129fc1c146102e15780639010d07c146102e957806391d148541461031457806395d89b411461032757600080fd5b80632f2ff15d116101305780632f2ff15d1461022957806330adf81f1461023e578063313ce5671461026557806336568abe146102745780633fbdc67d1461028757806370a082311461029a57600080fd5b806301ffc9a71461017857806306fdde03146101a0578063095ea7b3146101ca57806318160ddd146101dd57806323b872dd146101f3578063248a9ca314610206575b600080fd5b61018b610186366004611964565b6103db565b60405190151581526020015b60405180910390f35b60408051808201909152600581526426b2ba32b960d91b60208201525b6040516101979190611a1c565b61018b6101d83660046118ba565b610406565b6101e5610472565b604051908152602001610197565b61018b610201366004611798565b6104f4565b6101e5610214366004611906565b60009081526099602052604090206001015490565b61023c61023736600461191f565b6105ba565b005b6101e57f6e71edae12b1b97f4d1f60370fef10105fa2faae0126114a169c64845d6126c981565b60405160128152602001610197565b61023c61028236600461191f565b6105e1565b61018b61029536600461174a565b610603565b6101e56102a836600461174a565b61064f565b61023c6102bb36600461174a565b6106cd565b6101e56102ce36600461174a565b6101006020526000908152604090205481565b61023c610720565b6102fc6102f7366004611942565b6107fb565b6040516001600160a01b039091168152602001610197565b61018b61032236600461191f565b61081a565b60408051808201909152600381526226aa2960e91b60208201526101bd565b61018b6103543660046117d4565b610845565b6101e5600081565b61018b61036f3660046118ba565b610a0b565b6101e5610382366004611906565b610a21565b61023c61039536600461191f565b610a38565b6101e5610a42565b6101e56103b0366004611765565b6001600160a01b03918216600090815260fd6020908152604080832093909416825291909152205490565b60006001600160e01b03198216635a05180f60e01b1480610400575061040082610a87565b92915050565b33600081815260fd602090815260408083206001600160a01b038716808552925280832085905551919290917f8c5be1e5ebec7d5bd14f71427d1e84f3dd0314c0f7b2291e5b200ac8c7c3b925906104619086815260200190565b60405180910390a350600192915050565b60fe546040805163076e361d60e01b815290516000926001600160a01b03169163076e361d916004808301926020929190829003018186803b1580156104b757600080fd5b505afa1580156104cb573d6000803e3d6000fd5b505050506040513d601f19601f820116820180604052508101906104ef919061198e565b905090565b6001600160a01b038316600090815260fd6020908152604080832033845290915281205482111561056c5760405162461bcd60e51b815260206004820152601f60248201527f6275696c74696e3a20696e73756666696369656e7420616c6c6f77616e63650060448201526064015b60405180910390fd5b6001600160a01b038416600090815260fd602090815260408083203384529091528120805484929061059f908490611af7565b909155506105b09050848484610abc565b5060019392505050565b6105c48282610c87565b600082815260cb602052604090206105dc9082610cad565b505050565b6105eb8282610cc2565b600082815260cb602052604090206105dc9082610d40565b600061060f813361081a565b61062b5760405162461bcd60e51b815260040161056390611a4f565b506001600160a01b038116600090815260ff6020819052604090912054165b919050565b60fe54604051630511d90360e01b81526001600160a01b0383811660048301526000921690630511d9039060240160206040518083038186803b15801561069557600080fd5b505afa1580156106a9573d6000803e3d6000fd5b505050506040513d601f19601f82011682018060405250810190610400919061198e565b6106d860003361081a565b6106f45760405162461bcd60e51b815260040161056390611a4f565b6001600160a01b0316600090815260ff60208190526040909120805460ff198116921615919091179055565b600054610100900460ff1680610739575060005460ff16155b6107555760405162461bcd60e51b815260040161056390611a72565b600054610100900460ff16158015610777576000805461ffff19166101011790555b6107be61079c60408051808201909152600581526426b2ba32b960d91b602082015290565b60405180604001604052806004815260200163076312e360e41b815250610d55565b6107c9600033610dcc565b60fe80546001600160a01b0319166a4d657465724e617469766517905580156107f8576000805461ff00191690555b50565b600082815260cb602052604081206108139083610dd6565b9392505050565b60009182526099602090815260408084206001600160a01b0393909316845291905290205460ff1690565b6000428310156108825760405162461bcd60e51b8152602060048201526008602482015267657870697265642160c01b6044820152606401610563565b6001600160a01b03861660009081526101006020526040812080547f6e71edae12b1b97f4d1f60370fef10105fa2faae0126114a169c64845d6126c99189918991899190866108d083611b55565b909155506040805160208101969096526001600160a01b0394851690860152929091166060840152608083015260a082015260c0810185905260e001604051602081830303815290604052805190602001209050600061092f82610de2565b9050600061093d8286610e30565b9050806001600160a01b0316896001600160a01b0316146109a05760405162461bcd60e51b815260206004820152601960248201527f5065726d69743a20696e76616c6964207369676e6174757265000000000000006044820152606401610563565b6001600160a01b03898116600081815260fd60209081526040808320948d16808452948252918290208b905590518a81527f8c5be1e5ebec7d5bd14f71427d1e84f3dd0314c0f7b2291e5b200ac8c7c3b925910160405180910390a350600198975050505050505050565b6000610a18338484610abc565b50600192915050565b600081815260cb6020526040812061040090610e54565b6105eb8282610e5e565b60fe546040805163ccc7df9d60e01b815290516000926001600160a01b03169163ccc7df9d916004808301926020929190829003018186803b1580156104b757600080fd5b60006001600160e01b03198216637965db0b60e01b148061040057506301ffc9a760e01b6001600160e01b0319831614610400565b6001600160a01b038316600090815260ff60208190526040909120541615610af65760405162461bcd60e51b815260040161056390611a4f565b8015610c355760fe5460405163f14645f560e01b81526001600160a01b038581166004830152602482018490529091169063f14645f590604401602060405180830381600087803b158015610b4a57600080fd5b505af1158015610b5e573d6000803e3d6000fd5b505050506040513d601f19601f82011682018060405250810190610b8291906118e4565b610bce5760405162461bcd60e51b815260206004820152601d60248201527f6275696c74696e3a20696e73756666696369656e742062616c616e63650000006044820152606401610563565b60fe5460405163740b155f60e01b81526001600160a01b038481166004830152602482018490529091169063740b155f90604401600060405180830381600087803b158015610c1c57600080fd5b505af1158015610c30573d6000803e3d6000fd5b505050505b816001600160a01b0316836001600160a01b03167fddf252ad1be2c89b69c2b068fc378daa952ba7f163c4a11628f55a4df523b3ef83604051610c7a91815260200190565b60405180910390a3505050565b600082815260996020526040902060010154610ca38133610e84565b6105dc8383610ee8565b6000610813836001600160a01b038416610f6e565b6001600160a01b0381163314610d325760405162461bcd60e51b815260206004820152602f60248201527f416363657373436f6e74726f6c3a2063616e206f6e6c792072656e6f756e636560448201526e103937b632b9903337b91039b2b63360891b6064820152608401610563565b610d3c8282610fbd565b5050565b6000610813836001600160a01b038416611024565b600054610100900460ff1680610d6e575060005460ff16155b610d8a5760405162461bcd60e51b815260040161056390611a72565b600054610100900460ff16158015610dac576000805461ffff19166101011790555b610db68383611117565b80156105dc576000805461ff0019169055505050565b6105c482826111a1565b600061081383836111ab565b6000610400610def6111d5565b8360405161190160f01b6020820152602281018390526042810182905260009060620160405160208183030381529060405280519060200120905092915050565b6000806000610e3f8585611250565b91509150610e4c816112c0565b509392505050565b6000610400825490565b600082815260996020526040902060010154610e7a8133610e84565b6105dc8383610fbd565b610e8e828261081a565b610d3c57610ea6816001600160a01b0316601461147b565b610eb183602061147b565b604051602001610ec29291906119a7565b60408051601f198184030181529082905262461bcd60e51b825261056391600401611a1c565b610ef2828261081a565b610d3c5760008281526099602090815260408083206001600160a01b03851684529091529020805460ff19166001179055610f2a3390565b6001600160a01b0316816001600160a01b0316837f2f8788117e7eff1d82e926ec794901d17c78024a50270940304540a733656f0d60405160405180910390a45050565b6000818152600183016020526040812054610fb557508154600181810184556000848152602080822090930184905584548482528286019093526040902091909155610400565b506000610400565b610fc7828261081a565b15610d3c5760008281526099602090815260408083206001600160a01b0385168085529252808320805460ff1916905551339285917ff6391f5c32d9c69d2a47ea670b442974b53935d1edc7fd64eb21e047a839171b9190a45050565b6000818152600183016020526040812054801561110d576000611048600183611af7565b855490915060009061105c90600190611af7565b90508181146110c157600086600001828154811061107c5761107c611bb2565b906000526020600020015490508087600001848154811061109f5761109f611bb2565b6000918252602080832090910192909255918252600188019052604090208390555b85548690806110d2576110d2611b9c565b600190038181906000526020600020016000905590558560010160008681526020019081526020016000206000905560019350505050610400565b6000915050610400565b600054610100900460ff1680611130575060005460ff16155b61114c5760405162461bcd60e51b815260040161056390611a72565b600054610100900460ff1615801561116e576000805461ffff19166101011790555b825160208085019190912083519184019190912060019190915560025580156105dc576000805461ff0019169055505050565b610d3c8282610ee8565b60008260000182815481106111c2576111c2611bb2565b9060005260206000200154905092915050565b60006104ef7f8b73c3c69bb8fe3d512ecc4cf759cc79239f7b179b0ffacaa9a75d522b39400f61120460015490565b6002546040805160208101859052908101839052606081018290524660808201523060a082015260009060c0016040516020818303038152906040528051906020012090509392505050565b6000808251604114156112875760208301516040840151606085015160001a61127b87828585611617565b945094505050506112b9565b8251604014156112b157602083015160408401516112a6868383611704565b9350935050506112b9565b506000905060025b9250929050565b60008160048111156112d4576112d4611b86565b14156112dd5750565b60018160048111156112f1576112f1611b86565b141561133f5760405162461bcd60e51b815260206004820152601860248201527f45434453413a20696e76616c6964207369676e617475726500000000000000006044820152606401610563565b600281600481111561135357611353611b86565b14156113a15760405162461bcd60e51b815260206004820152601f60248201527f45434453413a20696e76616c6964207369676e6174757265206c656e677468006044820152606401610563565b60038160048111156113b5576113b5611b86565b141561140e5760405162461bcd60e51b815260206004820152602260248201527f45434453413a20696e76616c6964207369676e6174757265202773272076616c604482015261756560f01b6064820152608401610563565b600481600481111561142257611422611b86565b14156107f85760405162461bcd60e51b815260206004820152602260248201527f45434453413a20696e76616c6964207369676e6174757265202776272076616c604482015261756560f01b6064820152608401610563565b6060600061148a836002611ad8565b611495906002611ac0565b67ffffffffffffffff8111156114ad576114ad611bc8565b6040519080825280601f01601f1916602001820160405280156114d7576020820181803683370190505b509050600360fc1b816000815181106114f2576114f2611bb2565b60200101906001600160f81b031916908160001a905350600f60fb1b8160018151811061152157611521611bb2565b60200101906001600160f81b031916908160001a9053506000611545846002611ad8565b611550906001611ac0565b90505b60018111156115c8576f181899199a1a9b1b9c1cb0b131b232b360811b85600f166010811061158457611584611bb2565b1a60f81b82828151811061159a5761159a611bb2565b60200101906001600160f81b031916908160001a90535060049490941c936115c181611b3e565b9050611553565b5083156108135760405162461bcd60e51b815260206004820181905260248201527f537472696e67733a20686578206c656e67746820696e73756666696369656e746044820152606401610563565b6000807f7fffffffffffffffffffffffffffffff5d576e7357a4501ddfe92f46681b20a083111561164e57506000905060036116fb565b8460ff16601b1415801561166657508460ff16601c14155b1561167757506000905060046116fb565b6040805160008082526020820180845289905260ff881692820192909252606081018690526080810185905260019060a0016020604051602081039080840390855afa1580156116cb573d6000803e3d6000fd5b5050604051601f1901519150506001600160a01b0381166116f4576000600192509250506116fb565b9150600090505b94509492505050565b6000806001600160ff1b03831660ff84901c601b0161172587828885611617565b935093505050935093915050565b80356001600160a01b038116811461064a57600080fd5b60006020828403121561175c57600080fd5b61081382611733565b6000806040838503121561177857600080fd5b61178183611733565b915061178f60208401611733565b90509250929050565b6000806000606084860312156117ad57600080fd5b6117b684611733565b92506117c460208501611733565b9150604084013590509250925092565b600080600080600060a086880312156117ec57600080fd5b6117f586611733565b945061180360208701611733565b93506040860135925060608601359150608086013567ffffffffffffffff8082111561182e57600080fd5b818801915088601f83011261184257600080fd5b81358181111561185457611854611bc8565b604051601f8201601f19908116603f0116810190838211818310171561187c5761187c611bc8565b816040528281528b602084870101111561189557600080fd5b8260208601602083013760006020848301015280955050505050509295509295909350565b600080604083850312156118cd57600080fd5b6118d683611733565b946020939093013593505050565b6000602082840312156118f657600080fd5b8151801515811461081357600080fd5b60006020828403121561191857600080fd5b5035919050565b6000806040838503121561193257600080fd5b8235915061178f60208401611733565b6000806040838503121561195557600080fd5b50508035926020909101359150565b60006020828403121561197657600080fd5b81356001600160e01b03198116811461081357600080fd5b6000602082840312156119a057600080fd5b5051919050565b7f416363657373436f6e74726f6c3a206163636f756e74200000000000000000008152600083516119df816017850160208801611b0e565b7001034b99036b4b9b9b4b733903937b6329607d1b6017918401918201528351611a10816028840160208801611b0e565b01602801949350505050565b6020815260008251806020840152611a3b816040850160208701611b0e565b601f01601f19169190910160400192915050565b6020808252600990820152683337b93134b23232b760b91b604082015260600190565b6020808252602e908201527f496e697469616c697a61626c653a20636f6e747261637420697320616c72656160408201526d191e481a5b9a5d1a585b1a5e995960921b606082015260800190565b60008219821115611ad357611ad3611b70565b500190565b6000816000190483118215151615611af257611af2611b70565b500290565b600082821015611b0957611b09611b70565b500390565b60005b83811015611b29578181015183820152602001611b11565b83811115611b38576000848401525b50505050565b600081611b4d57611b4d611b70565b506000190190565b6000600019821415611b6957611b69611b70565b5060010190565b634e487b7160e01b600052601160045260246000fd5b634e487b7160e01b600052602160045260246000fd5b634e487b7160e01b600052603160045260246000fd5b634e487b7160e01b600052603260045260246000fd5b634e487b7160e01b600052604160045260246000fdfea26469706673582212209bb4394de85981b49adb58150216b48088d999cd28854994d18b994b3ab9f84564736f6c63430008070033",
  "linkReferences": {},
  "deployedLinkReferences": {}
}