{
  "_format": "hh-sol-artifact-1",
  "contractName": "LockedMeterGovERC20",
  "sourceName": "contracts/LockedMeterGovERC20.sol",
  "abi": [
    {
      "inputs": [],
      "stateMutability": "nonpayable",
      "type": "constructor"
    },
    {
      "inputs": [
        {
          "internalType": "address",
          "name": "_owner",
          "type": "address"
        }
      ],
      "name": "balanceOf",
      "outputs": [
        {
          "internalType": "uint256",
          "name": "balance",
          "type": "uint256"
        }
      ],
      "stateMutability": "view",
      "type": "function"
    },
    {
      "inputs": [],
      "name": "decimals",
      "outputs": [
        {
          "internalType": "uint8",
          "name": "",
          "type": "uint8"
        }
      ],
      "stateMutability": "pure",
      "type": "function"
    },
    {
      "inputs": [],
      "name": "name",
      "outputs": [
        {
          "internalType": "string",
          "name": "",
          "type": "string"
        }
      ],
      "stateMutability": "pure",
      "type": "function"
    },
    {
      "inputs": [],
      "name": "symbol",
      "outputs": [
        {
          "internalType": "string",
          "name": "",
          "type": "string"
        }
      ],
      "stateMutability": "pure",
      "type": "function"
    }
  ],
  "bytecode": "0x608060405234801561001057600080fd5b50600180546001600160a01b0319166a4d657465724e617469766517905561022c8061003d6000396000f3fe608060405234801561001057600080fd5b506004361061004c5760003560e01c806306fdde0314610051578063313ce5671461008d57806370a082311461009c57806395d89b41146100bd575b600080fd5b60408051808201909152600e81526d29ba30b5b2b226b2ba32b923b7bb60911b60208201525b6040516100849190610158565b60405180910390f35b60405160128152602001610084565b6100af6100aa3660046101ad565b6100e3565b604051908152602001610084565b60408051808201909152600a8152695354414b45444d54524760b01b6020820152610077565b6001546040516398c6fb8d60e01b81526001600160a01b03838116600483015260009216906398c6fb8d90602401602060405180830381865afa15801561012e573d6000803e3d6000fd5b505050506040513d601f19601f8201168201806040525081019061015291906101dd565b92915050565b600060208083528351808285015260005b8181101561018557858101830151858201604001528201610169565b81811115610197576000604083870101525b50601f01601f1916929092016040019392505050565b6000602082840312156101bf57600080fd5b81356001600160a01b03811681146101d657600080fd5b9392505050565b6000602082840312156101ef57600080fd5b505191905056fea264697066735822122027d712ed0ca30a09c04265510c2faeb343c806e0478b0ea02b5d4dfb9afe3a3964736f6c634300080b0033",
  "linkReferences": {},
  "deployedLinkReferences": {}
}