{
  "_format": "hh-sol-artifact-1",
  "contractName": "ERC20MinterBurnerPauserPermit",
  "sourceName": "contracts/erc20/ERC20MinterBurnerPauserPermit.sol",
  "abi": [
    {
      "inputs": [
        {
          "internalType": "string",
          "name": "_name",
          "type": "string"
        },
        {
          "internalType": "string",
          "name": "_symbol",
          "type": "string"
        },
        {
          "internalType": "uint8",
          "name": "decimals_",
          "type": "uint8"
        }
      ],
      "stateMutability": "nonpayable",
      "type": "constructor"
    },
    {
      "anonymous": false,
      "inputs": [
        {
          "indexed": true,
          "internalType": "address",
          "name": "owner",
          "type": "address"
        },
        {
          "indexed": true,
          "internalType": "address",
          "name": "spender",
          "type": "address"
        },
        {
          "indexed": false,
          "internalType": "uint256",
          "name": "value",
          "type": "uint256"
        }
      ],
      "name": "Approval",
      "type": "event"
    },
    {
      "anonymous": false,
      "inputs": [
        {
          "indexed": false,
          "internalType": "address",
          "name": "account",
          "type": "address"
        }
      ],
      "name": "Paused",
      "type": "event"
    },
    {
      "anonymous": false,
      "inputs": [
        {
          "indexed": true,
          "internalType": "bytes32",
          "name": "role",
          "type": "bytes32"
        },
        {
          "indexed": true,
          "internalType": "bytes32",
          "name": "previousAdminRole",
          "type": "bytes32"
        },
        {
          "indexed": true,
          "internalType": "bytes32",
          "name": "newAdminRole",
          "type": "bytes32"
        }
      ],
      "name": "RoleAdminChanged",
      "type": "event"
    },
    {
      "anonymous": false,
      "inputs": [
        {
          "indexed": true,
          "internalType": "bytes32",
          "name": "role",
          "type": "bytes32"
        },
        {
          "indexed": true,
          "internalType": "address",
          "name": "account",
          "type": "address"
        },
        {
          "indexed": true,
          "internalType": "address",
          "name": "sender",
          "type": "address"
        }
      ],
      "name": "RoleGranted",
      "type": "event"
    },
    {
      "anonymous": false,
      "inputs": [
        {
          "indexed": true,
          "internalType": "bytes32",
          "name": "role",
          "type": "bytes32"
        },
        {
          "indexed": true,
          "internalType": "address",
          "name": "account",
          "type": "address"
        },
        {
          "indexed": true,
          "internalType": "address",
          "name": "sender",
          "type": "address"
        }
      ],
      "name": "RoleRevoked",
      "type": "event"
    },
    {
      "anonymous": false,
      "inputs": [
        {
          "indexed": true,
          "internalType": "address",
          "name": "from",
          "type": "address"
        },
        {
          "indexed": true,
          "internalType": "address",
          "name": "to",
          "type": "address"
        },
        {
          "indexed": false,
          "internalType": "uint256",
          "name": "value",
          "type": "uint256"
        }
      ],
      "name": "Transfer",
      "type": "event"
    },
    {
      "anonymous": false,
      "inputs": [
        {
          "indexed": false,
          "internalType": "address",
          "name": "account",
          "type": "address"
        }
      ],
      "name": "Unpaused",
      "type": "event"
    },
    {
      "inputs": [],
      "name": "DEFAULT_ADMIN_ROLE",
      "outputs": [
        {
          "internalType": "bytes32",
          "name": "",
          "type": "bytes32"
        }
      ],
      "stateMutability": "view",
      "type": "function"
    },
    {
      "inputs": [],
      "name": "DOMAIN_SEPARATOR",
      "outputs": [
        {
          "internalType": "bytes32",
          "name": "",
          "type": "bytes32"
        }
      ],
      "stateMutability": "view",
      "type": "function"
    },
    {
      "inputs": [],
      "name": "MINTER_ROLE",
      "outputs": [
        {
          "internalType": "bytes32",
          "name": "",
          "type": "bytes32"
        }
      ],
      "stateMutability": "view",
      "type": "function"
    },
    {
      "inputs": [],
      "name": "PAUSER_ROLE",
      "outputs": [
        {
          "internalType": "bytes32",
          "name": "",
          "type": "bytes32"
        }
      ],
      "stateMutability": "view",
      "type": "function"
    },
    {
      "inputs": [
        {
          "internalType": "address",
          "name": "owner",
          "type": "address"
        },
        {
          "internalType": "address",
          "name": "spender",
          "type": "address"
        }
      ],
      "name": "allowance",
      "outputs": [
        {
          "internalType": "uint256",
          "name": "",
          "type": "uint256"
        }
      ],
      "stateMutability": "view",
      "type": "function"
    },
    {
      "inputs": [
        {
          "internalType": "address",
          "name": "spender",
          "type": "address"
        },
        {
          "internalType": "uint256",
          "name": "amount",
          "type": "uint256"
        }
      ],
      "name": "approve",
      "outputs": [
        {
          "internalType": "bool",
          "name": "",
          "type": "bool"
        }
      ],
      "stateMutability": "nonpayable",
      "type": "function"
    },
    {
      "inputs": [
        {
          "internalType": "address",
          "name": "account",
          "type": "address"
        }
      ],
      "name": "balanceOf",
      "outputs": [
        {
          "internalType": "uint256",
          "name": "",
          "type": "uint256"
        }
      ],
      "stateMutability": "view",
      "type": "function"
    },
    {
      "inputs": [
        {
          "internalType": "uint256",
          "name": "amount",
          "type": "uint256"
        }
      ],
      "name": "burn",
      "outputs": [],
      "stateMutability": "nonpayable",
      "type": "function"
    },
    {
      "inputs": [
        {
          "internalType": "address",
          "name": "account",
          "type": "address"
        },
        {
          "internalType": "uint256",
          "name": "amount",
          "type": "uint256"
        }
      ],
      "name": "burnFrom",
      "outputs": [],
      "stateMutability": "nonpayable",
      "type": "function"
    },
    {
      "inputs": [],
      "name": "decimals",
      "outputs": [
        {
          "internalType": "uint8",
          "name": "",
          "type": "uint8"
        }
      ],
      "stateMutability": "view",
      "type": "function"
    },
    {
      "inputs": [
        {
          "internalType": "address",
          "name": "spender",
          "type": "address"
        },
        {
          "internalType": "uint256",
          "name": "subtractedValue",
          "type": "uint256"
        }
      ],
      "name": "decreaseAllowance",
      "outputs": [
        {
          "internalType": "bool",
          "name": "",
          "type": "bool"
        }
      ],
      "stateMutability": "nonpayable",
      "type": "function"
    },
    {
      "inputs": [
        {
          "internalType": "bytes32",
          "name": "role",
          "type": "bytes32"
        }
      ],
      "name": "getRoleAdmin",
      "outputs": [
        {
          "internalType": "bytes32",
          "name": "",
          "type": "bytes32"
        }
      ],
      "stateMutability": "view",
      "type": "function"
    },
    {
      "inputs": [
        {
          "internalType": "bytes32",
          "name": "role",
          "type": "bytes32"
        },
        {
          "internalType": "uint256",
          "name": "index",
          "type": "uint256"
        }
      ],
      "name": "getRoleMember",
      "outputs": [
        {
          "internalType": "address",
          "name": "",
          "type": "address"
        }
      ],
      "stateMutability": "view",
      "type": "function"
    },
    {
      "inputs": [
        {
          "internalType": "bytes32",
          "name": "role",
          "type": "bytes32"
        }
      ],
      "name": "getRoleMemberCount",
      "outputs": [
        {
          "internalType": "uint256",
          "name": "",
          "type": "uint256"
        }
      ],
      "stateMutability": "view",
      "type": "function"
    },
    {
      "inputs": [
        {
          "internalType": "bytes32",
          "name": "role",
          "type": "bytes32"
        },
        {
          "internalType": "address",
          "name": "account",
          "type": "address"
        }
      ],
      "name": "grantRole",
      "outputs": [],
      "stateMutability": "nonpayable",
      "type": "function"
    },
    {
      "inputs": [
        {
          "internalType": "bytes32",
          "name": "role",
          "type": "bytes32"
        },
        {
          "internalType": "address",
          "name": "account",
          "type": "address"
        }
      ],
      "name": "hasRole",
      "outputs": [
        {
          "internalType": "bool",
          "name": "",
          "type": "bool"
        }
      ],
      "stateMutability": "view",
      "type": "function"
    },
    {
      "inputs": [
        {
          "internalType": "address",
          "name": "spender",
          "type": "address"
        },
        {
          "internalType": "uint256",
          "name": "addedValue",
          "type": "uint256"
        }
      ],
      "name": "increaseAllowance",
      "outputs": [
        {
          "internalType": "bool",
          "name": "",
          "type": "bool"
        }
      ],
      "stateMutability": "nonpayable",
      "type": "function"
    },
    {
      "inputs": [
        {
          "internalType": "address",
          "name": "to",
          "type": "address"
        },
        {
          "internalType": "uint256",
          "name": "amount",
          "type": "uint256"
        }
      ],
      "name": "mint",
      "outputs": [],
      "stateMutability": "nonpayable",
      "type": "function"
    },
    {
      "inputs": [],
      "name": "name",
      "outputs": [
        {
          "internalType": "string",
          "name": "",
          "type": "string"
        }
      ],
      "stateMutability": "view",
      "type": "function"
    },
    {
      "inputs": [
        {
          "internalType": "address",
          "name": "owner",
          "type": "address"
        }
      ],
      "name": "nonces",
      "outputs": [
        {
          "internalType": "uint256",
          "name": "",
          "type": "uint256"
        }
      ],
      "stateMutability": "view",
      "type": "function"
    },
    {
      "inputs": [],
      "name": "pause",
      "outputs": [],
      "stateMutability": "nonpayable",
      "type": "function"
    },
    {
      "inputs": [],
      "name": "paused",
      "outputs": [
        {
          "internalType": "bool",
          "name": "",
          "type": "bool"
        }
      ],
      "stateMutability": "view",
      "type": "function"
    },
    {
      "inputs": [
        {
          "internalType": "address",
          "name": "owner",
          "type": "address"
        },
        {
          "internalType": "address",
          "name": "spender",
          "type": "address"
        },
        {
          "internalType": "uint256",
          "name": "value",
          "type": "uint256"
        },
        {
          "internalType": "uint256",
          "name": "deadline",
          "type": "uint256"
        },
        {
          "internalType": "bytes",
          "name": "signature",
          "type": "bytes"
        }
      ],
      "name": "permit",
      "outputs": [],
      "stateMutability": "nonpayable",
      "type": "function"
    },
    {
      "inputs": [
        {
          "internalType": "address",
          "name": "owner",
          "type": "address"
        },
        {
          "internalType": "address",
          "name": "spender",
          "type": "address"
        },
        {
          "internalType": "uint256",
          "name": "value",
          "type": "uint256"
        },
        {
          "internalType": "uint256",
          "name": "deadline",
          "type": "uint256"
        },
        {
          "internalType": "uint8",
          "name": "v",
          "type": "uint8"
        },
        {
          "internalType": "bytes32",
          "name": "r",
          "type": "bytes32"
        },
        {
          "internalType": "bytes32",
          "name": "s",
          "type": "bytes32"
        }
      ],
      "name": "permit",
      "outputs": [],
      "stateMutability": "nonpayable",
      "type": "function"
    },
    {
      "inputs": [
        {
          "internalType": "bytes32",
          "name": "role",
          "type": "bytes32"
        },
        {
          "internalType": "address",
          "name": "account",
          "type": "address"
        }
      ],
      "name": "renounceRole",
      "outputs": [],
      "stateMutability": "nonpayable",
      "type": "function"
    },
    {
      "inputs": [
        {
          "internalType": "bytes32",
          "name": "role",
          "type": "bytes32"
        },
        {
          "internalType": "address",
          "name": "account",
          "type": "address"
        }
      ],
      "name": "revokeRole",
      "outputs": [],
      "stateMutability": "nonpayable",
      "type": "function"
    },
    {
      "inputs": [
        {
          "internalType": "bytes4",
          "name": "interfaceId",
          "type": "bytes4"
        }
      ],
      "name": "supportsInterface",
      "outputs": [
        {
          "internalType": "bool",
          "name": "",
          "type": "bool"
        }
      ],
      "stateMutability": "view",
      "type": "function"
    },
    {
      "inputs": [],
      "name": "symbol",
      "outputs": [
        {
          "internalType": "string",
          "name": "",
          "type": "string"
        }
      ],
      "stateMutability": "view",
      "type": "function"
    },
    {
      "inputs": [],
      "name": "totalSupply",
      "outputs": [
        {
          "internalType": "uint256",
          "name": "",
          "type": "uint256"
        }
      ],
      "stateMutability": "view",
      "type": "function"
    },
    {
      "inputs": [
        {
          "internalType": "address",
          "name": "recipient",
          "type": "address"
        },
        {
          "internalType": "uint256",
          "name": "amount",
          "type": "uint256"
        }
      ],
      "name": "transfer",
      "outputs": [
        {
          "internalType": "bool",
          "name": "",
          "type": "bool"
        }
      ],
      "stateMutability": "nonpayable",
      "type": "function"
    },
    {
      "inputs": [
        {
          "internalType": "address",
          "name": "sender",
          "type": "address"
        },
        {
          "internalType": "address",
          "name": "recipient",
          "type": "address"
        },
        {
          "internalType": "uint256",
          "name": "amount",
          "type": "uint256"
        }
      ],
      "name": "transferFrom",
      "outputs": [
        {
          "internalType": "bool",
          "name": "",
          "type": "bool"
        }
      ],
      "stateMutability": "nonpayable",
      "type": "function"
    },
    {
      "inputs": [],
      "name": "unpause",
      "outputs": [],
      "stateMutability": "nonpayable",
      "type": "function"
    }
  ],
  "bytecode": "0x6101406040527f6e71edae12b1b97f4d1f60370fef10105fa2faae0126114a169c64845d6126c9610120523480156200003757600080fd5b506040516200273238038062002732833981810160405260608110156200005d57600080fd5b81019080805160405193929190846401000000008211156200007e57600080fd5b9083019060208201858111156200009457600080fd5b8251640100000000811182820188101715620000af57600080fd5b82525081516020918201929091019080838360005b83811015620000de578181015183820152602001620000c4565b50505050905090810190601f1680156200010c5780820380516001836020036101000a031916815260200191505b50604052602001805160405193929190846401000000008211156200013057600080fd5b9083019060208201858111156200014657600080fd5b82516401000000008111828201881017156200016157600080fd5b82525081516020918201929091019080838360005b838110156200019057818101518382015260200162000176565b50505050905090810190601f168015620001be5780820380516001836020036101000a031916815260200191505b5060408181526020928301518282018252600b83526a2832b936b4ba2a37b5b2b760a91b84840152815180830190925260038252620312e360ec1b8285015287519095509193509186918691839183916200021f916004918501906200059b565b508051620002359060059060208401906200059b565b50506006805461ff001960ff19909116601217169055506200026260006200025c62000384565b62000388565b620002917f9f2df0fed2c77648de5860a4cc508cd0818c85b8b8a1ab4ceeef8d981c8956a66200025c62000384565b620002c07f65d7a28e3265b37a6474929f336521b332c1681b933f6cb9f3376673440d862a6200025c62000384565b5050815160208084019190912082519183019190912060c082905260e08190527f8b73c3c69bb8fe3d512ecc4cf759cc79239f7b179b0ffacaa9a75d522b39400f6200030b62000398565b60a0526200031b8184846200039c565b60805261010052506200033a92506301ffc9a760e01b91505062000400565b620003458162000485565b62000357639fd5a6cf60e01b62000400565b62000369634ec7fbed60e11b62000400565b6200037b6336372b0760e01b62000400565b50505062000637565b3390565b6200039482826200049b565b5050565b4690565b6000838383620003ab62000398565b3060405160200180868152602001858152602001848152602001838152602001826001600160a01b03168152602001955050505050506040516020818303038152906040528051906020012090509392505050565b6001600160e01b0319808216141562000460576040805162461bcd60e51b815260206004820152601c60248201527f4552433136353a20696e76616c696420696e7465726661636520696400000000604482015290519081900360640190fd5b6001600160e01b0319166000908152600760205260409020805460ff19166001179055565b6006805460ff191660ff92909216919091179055565b600082815260208181526040909120620004c091839062000fd962000514821b17901c565b156200039457620004d062000384565b6001600160a01b0316816001600160a01b0316837f2f8788117e7eff1d82e926ec794901d17c78024a50270940304540a733656f0d60405160405180910390a45050565b60006200052b836001600160a01b03841662000534565b90505b92915050565b600062000542838362000583565b6200057a575081546001818101845560008481526020808220909301849055845484825282860190935260409020919091556200052e565b5060006200052e565b60009081526001919091016020526040902054151590565b828054600181600116156101000203166002900490600052602060002090601f016020900481019282601f10620005de57805160ff19168380011785556200060e565b828001600101855582156200060e579182015b828111156200060e578251825591602001919060010190620005f1565b506200061c92915062000620565b5090565b5b808211156200061c576000815560010162000621565b60805160a05160c05160e05161010051610120516120b16200068160003980610deb5250806113985250806113da5250806113b952508061133f52508061136f52506120b16000f3fe608060405234801561001057600080fd5b50600436106101f05760003560e01c806379cc67901161010f578063a457c2d7116100a2578063d539139311610071578063d5391393146106d7578063d547741f146106df578063dd62ed3e1461070b578063e63ab1e914610739576101f0565b8063a457c2d714610611578063a9059cbb1461063d578063ca15c87314610669578063d505accf14610686576101f0565b806391d14854116100de57806391d148541461050a57806395d89b41146105365780639fd5a6cf1461053e578063a217fddf14610609576101f0565b806379cc6790146104715780637ecebe001461049d5780638456cb59146104c35780639010d07c146104cb576101f0565b80633644e5151161018757806340c10f191161015657806340c10f19146103fa57806342966c68146104265780635c975abb1461044357806370a082311461044b576101f0565b80633644e5151461039257806336568abe1461039a57806339509351146103c65780633f4ba83a146103f2576101f0565b806323b872dd116101c357806323b872dd146102f3578063248a9ca3146103295780632f2ff15d14610346578063313ce56714610374576101f0565b806301ffc9a7146101f557806306fdde0314610230578063095ea7b3146102ad57806318160ddd146102d9575b600080fd5b61021c6004803603602081101561020b57600080fd5b50356001600160e01b031916610741565b604080519115158252519081900360200190f35b610238610760565b6040805160208082528351818301528351919283929083019185019080838360005b8381101561027257818101518382015260200161025a565b50505050905090810190601f16801561029f5780820380516001836020036101000a031916815260200191505b509250505060405180910390f35b61021c600480360360408110156102c357600080fd5b506001600160a01b0381351690602001356107f7565b6102e1610815565b60408051918252519081900360200190f35b61021c6004803603606081101561030957600080fd5b506001600160a01b0381358116916020810135909116906040013561081b565b6102e16004803603602081101561033f57600080fd5b50356108a2565b6103726004803603604081101561035c57600080fd5b50803590602001356001600160a01b03166108b7565b005b61037c610923565b6040805160ff9092168252519081900360200190f35b6102e161092c565b610372600480360360408110156103b057600080fd5b50803590602001356001600160a01b031661093b565b61021c600480360360408110156103dc57600080fd5b506001600160a01b03813516906020013561099c565b6103726109ea565b6103726004803603604081101561041057600080fd5b506001600160a01b038135169060200135610a5b565b6103726004803603602081101561043c57600080fd5b5035610acc565b61021c610ae0565b6102e16004803603602081101561046157600080fd5b50356001600160a01b0316610aee565b6103726004803603604081101561048757600080fd5b506001600160a01b038135169060200135610b09565b6102e1600480360360208110156104b357600080fd5b50356001600160a01b0316610b63565b610372610b84565b6104ee600480360360408110156104e157600080fd5b5080359060200135610bf3565b604080516001600160a01b039092168252519081900360200190f35b61021c6004803603604081101561052057600080fd5b50803590602001356001600160a01b0316610c12565b610238610c2a565b610372600480360360a081101561055457600080fd5b6001600160a01b03823581169260208101359091169160408201359160608101359181019060a08101608082013564010000000081111561059457600080fd5b8201836020820111156105a657600080fd5b803590602001918460018302840111640100000000831117156105c857600080fd5b91908080601f016020809104026020016040519081016040528093929190818152602001838380828437600092019190915250929550610c8b945050505050565b6102e1610cc3565b61021c6004803603604081101561062757600080fd5b506001600160a01b038135169060200135610cc8565b61021c6004803603604081101561065357600080fd5b506001600160a01b038135169060200135610d30565b6102e16004803603602081101561067f57600080fd5b5035610d44565b610372600480360360e081101561069c57600080fd5b506001600160a01b03813581169160208101359091169060408101359060608101359060ff6080820135169060a08101359060c00135610d5b565b6102e1610f0d565b610372600480360360408110156106f557600080fd5b50803590602001356001600160a01b0316610f31565b6102e16004803603604081101561072157600080fd5b506001600160a01b0381358116916020013516610f8a565b6102e1610fb5565b6001600160e01b03191660009081526007602052604090205460ff1690565b60048054604080516020601f60026000196101006001881615020190951694909404938401819004810282018101909252828152606093909290918301828280156107ec5780601f106107c1576101008083540402835291602001916107ec565b820191906000526020600020905b8154815290600101906020018083116107cf57829003601f168201915b505050505090505b90565b600061080b610804610fee565b8484610ff2565b5060015b92915050565b60035490565b60006108288484846110de565b61089884610834610fee565b61089385604051806060016040528060288152602001611edb602891396001600160a01b038a16600090815260026020526040812090610872610fee565b6001600160a01b03168152602081019190915260400160002054919061123b565b610ff2565b5060019392505050565b60009081526020819052604090206002015490565b6000828152602081905260409020600201546108da906108d5610fee565b610c12565b6109155760405162461bcd60e51b815260040180806020018281038252602f815260200180611d95602f913960400191505060405180910390fd5b61091f82826112d2565b5050565b60065460ff1690565b600061093661133b565b905090565b610943610fee565b6001600160a01b0316816001600160a01b0316146109925760405162461bcd60e51b815260040180806020018281038252602f815260200180612023602f913960400191505060405180910390fd5b61091f8282611405565b600061080b6109a9610fee565b8461089385600260006109ba610fee565b6001600160a01b03908116825260208083019390935260409182016000908120918c16815292529020549061146e565b610a167f65d7a28e3265b37a6474929f336521b332c1681b933f6cb9f3376673440d862a6108d5610fee565b610a515760405162461bcd60e51b8152600401808060200182810382526039815260200180611de66039913960400191505060405180910390fd5b610a596114c8565b565b610a877f9f2df0fed2c77648de5860a4cc508cd0818c85b8b8a1ab4ceeef8d981c8956a66108d5610fee565b610ac25760405162461bcd60e51b8152600401808060200182810382526036815260200180611f036036913960400191505060405180910390fd5b61091f8282611569565b610add610ad7610fee565b8261165b565b50565b600654610100900460ff1690565b6001600160a01b031660009081526001602052604090205490565b6000610b4082604051806060016040528060248152602001611f3960249139610b3986610b34610fee565b610f8a565b919061123b565b9050610b5483610b4e610fee565b83610ff2565b610b5e838361165b565b505050565b6001600160a01b038116600090815260086020526040812061080f90611757565b610bb07f65d7a28e3265b37a6474929f336521b332c1681b933f6cb9f3376673440d862a6108d5610fee565b610beb5760405162461bcd60e51b8152600401808060200182810382526037815260200180611fc76037913960400191505060405180910390fd5b610a5961175b565b6000828152602081905260408120610c0b90836117e0565b9392505050565b6000828152602081905260408120610c0b90836117ec565b60058054604080516020601f60026000196101006001881615020190951694909404938401819004810282018101909252828152606093909290918301828280156107ec5780601f106107c1576101008083540402835291602001916107ec565b60208101516040820151604183015160ff16601b811015610caa57601b015b610cb988888888858888610d5b565b5050505050505050565b600081565b600061080b610cd5610fee565b8461089385604051806060016040528060258152602001611ffe6025913960026000610cff610fee565b6001600160a01b03908116825260208083019390935260409182016000908120918d1681529252902054919061123b565b600061080b610d3d610fee565b84846110de565b600081815260208190526040812061080f90611801565b60408051602081018490528082018390526001600160f81b031960f886901b16606082015281516041818303018152606190910190915242851015610de7576040805162461bcd60e51b815260206004820152601d60248201527f45524332305065726d69743a206578706972656420646561646c696e65000000604482015290519081900360640190fd5b60007f0000000000000000000000000000000000000000000000000000000000000000898989610e168d61180c565b8a60405160200180878152602001866001600160a01b03168152602001856001600160a01b0316815260200184815260200183815260200182815260200196505050505050506040516020818303038152906040528051906020012090506000610e7f8261183e565b90506000610e8d828561188a565b90508a6001600160a01b0316816001600160a01b031614610ef5576040805162461bcd60e51b815260206004820152601e60248201527f45524332305065726d69743a20696e76616c6964207369676e61747572650000604482015290519081900360640190fd5b610f008b8b8b610ff2565b5050505050505050505050565b7f9f2df0fed2c77648de5860a4cc508cd0818c85b8b8a1ab4ceeef8d981c8956a681565b600082815260208190526040902060020154610f4f906108d5610fee565b6109925760405162461bcd60e51b8152600401808060200182810382526030815260200180611e896030913960400191505060405180910390fd5b6001600160a01b03918216600090815260026020908152604080832093909416825291909152205490565b7f65d7a28e3265b37a6474929f336521b332c1681b933f6cb9f3376673440d862a81565b6000610c0b836001600160a01b03841661190a565b3390565b6001600160a01b0383166110375760405162461bcd60e51b8152600401808060200182810382526024815260200180611fa36024913960400191505060405180910390fd5b6001600160a01b03821661107c5760405162461bcd60e51b8152600401808060200182810382526022815260200180611e1f6022913960400191505060405180910390fd5b6001600160a01b03808416600081815260026020908152604080832094871680845294825291829020859055815185815291517f8c5be1e5ebec7d5bd14f71427d1e84f3dd0314c0f7b2291e5b200ac8c7c3b9259281900390910190a3505050565b6001600160a01b0383166111235760405162461bcd60e51b8152600401808060200182810382526025815260200180611f7e6025913960400191505060405180910390fd5b6001600160a01b0382166111685760405162461bcd60e51b8152600401808060200182810382526023815260200180611d726023913960400191505060405180910390fd5b611173838383611954565b6111b081604051806060016040528060268152602001611e41602691396001600160a01b038616600090815260016020526040902054919061123b565b6001600160a01b0380851660009081526001602052604080822093909355908416815220546111df908261146e565b6001600160a01b0380841660008181526001602090815260409182902094909455805185815290519193928716927fddf252ad1be2c89b69c2b068fc378daa952ba7f163c4a11628f55a4df523b3ef92918290030190a3505050565b600081848411156112ca5760405162461bcd60e51b81526004018080602001828103825283818151815260200191508051906020019080838360005b8381101561128f578181015183820152602001611277565b50505050905090810190601f1680156112bc5780820380516001836020036101000a031916815260200191505b509250505060405180910390fd5b505050900390565b60008281526020819052604090206112ea9082610fd9565b1561091f576112f7610fee565b6001600160a01b0316816001600160a01b0316837f2f8788117e7eff1d82e926ec794901d17c78024a50270940304540a733656f0d60405160405180910390a45050565b60007f000000000000000000000000000000000000000000000000000000000000000061136661195f565b141561139357507f00000000000000000000000000000000000000000000000000000000000000006107f4565b6113fe7f00000000000000000000000000000000000000000000000000000000000000007f00000000000000000000000000000000000000000000000000000000000000007f0000000000000000000000000000000000000000000000000000000000000000611963565b90506107f4565b600082815260208190526040902061141d90826119c5565b1561091f5761142a610fee565b6001600160a01b0316816001600160a01b0316837ff6391f5c32d9c69d2a47ea670b442974b53935d1edc7fd64eb21e047a839171b60405160405180910390a45050565b600082820183811015610c0b576040805162461bcd60e51b815260206004820152601b60248201527f536166654d6174683a206164646974696f6e206f766572666c6f770000000000604482015290519081900360640190fd5b6114d0610ae0565b611518576040805162461bcd60e51b815260206004820152601460248201527314185d5cd8589b194e881b9bdd081c185d5cd95960621b604482015290519081900360640190fd5b6006805461ff00191690557f5db9ee0a495bf2e6ff9c91a7834c1ba4fdd244a5e8aa4e537bd38aeae4b073aa61154c610fee565b604080516001600160a01b039092168252519081900360200190a1565b6001600160a01b0382166115c4576040805162461bcd60e51b815260206004820152601f60248201527f45524332303a206d696e7420746f20746865207a65726f206164647265737300604482015290519081900360640190fd5b6115d060008383611954565b6003546115dd908261146e565b6003556001600160a01b038216600090815260016020526040902054611603908261146e565b6001600160a01b03831660008181526001602090815260408083209490945583518581529351929391927fddf252ad1be2c89b69c2b068fc378daa952ba7f163c4a11628f55a4df523b3ef9281900390910190a35050565b6001600160a01b0382166116a05760405162461bcd60e51b8152600401808060200182810382526021815260200180611f5d6021913960400191505060405180910390fd5b6116ac82600083611954565b6116e981604051806060016040528060228152602001611dc4602291396001600160a01b038516600090815260016020526040902054919061123b565b6001600160a01b03831660009081526001602052604090205560035461170f90826119da565b6003556040805182815290516000916001600160a01b038516917fddf252ad1be2c89b69c2b068fc378daa952ba7f163c4a11628f55a4df523b3ef9181900360200190a35050565b5490565b611763610ae0565b156117a8576040805162461bcd60e51b815260206004820152601060248201526f14185d5cd8589b194e881c185d5cd95960821b604482015290519081900360640190fd5b6006805461ff0019166101001790557f62e78cea01bee320cd4e420270b5ea74000d11b0c9f74754ebdbfc544b05a25861154c610fee565b6000610c0b8383611a37565b6000610c0b836001600160a01b038416611a9b565b600061080f82611757565b6001600160a01b038116600090815260086020526040812061182d81611757565b915061183881611ab3565b50919050565b600061184861133b565b82604051602001808061190160f01b81525060020183815260200182815260200192505050604051602081830303815290604052805190602001209050919050565b600081516041146118e2576040805162461bcd60e51b815260206004820152601f60248201527f45434453413a20696e76616c6964207369676e6174757265206c656e67746800604482015290519081900360640190fd5b60208201516040830151606084015160001a61190086828585611abc565b9695505050505050565b60006119168383611a9b565b61194c5750815460018181018455600084815260208082209093018490558454848252828601909352604090209190915561080f565b50600061080f565b610b5e838383611c3a565b4690565b600083838361197061195f565b3060405160200180868152602001858152602001848152602001838152602001826001600160a01b03168152602001955050505050506040516020818303038152906040528051906020012090509392505050565b6000610c0b836001600160a01b038416611c89565b600082821115611a31576040805162461bcd60e51b815260206004820152601e60248201527f536166654d6174683a207375627472616374696f6e206f766572666c6f770000604482015290519081900360640190fd5b50900390565b81546000908210611a795760405162461bcd60e51b8152600401808060200182810382526022815260200180611d506022913960400191505060405180910390fd5b826000018281548110611a8857fe5b9060005260206000200154905092915050565b60009081526001919091016020526040902054151590565b80546001019055565b60007f7fffffffffffffffffffffffffffffff5d576e7357a4501ddfe92f46681b20a0821115611b1d5760405162461bcd60e51b8152600401808060200182810382526022815260200180611e676022913960400191505060405180910390fd5b8360ff16601b1480611b3257508360ff16601c145b611b6d5760405162461bcd60e51b8152600401808060200182810382526022815260200180611eb96022913960400191505060405180910390fd5b600060018686868660405160008152602001604052604051808581526020018460ff1681526020018381526020018281526020019450505050506020604051602081039080840390855afa158015611bc9573d6000803e3d6000fd5b5050604051601f1901519150506001600160a01b038116611c31576040805162461bcd60e51b815260206004820152601860248201527f45434453413a20696e76616c6964207369676e61747572650000000000000000604482015290519081900360640190fd5b95945050505050565b611c45838383610b5e565b611c4d610ae0565b15610b5e5760405162461bcd60e51b815260040180806020018281038252602a815260200180612052602a913960400191505060405180910390fd5b60008181526001830160205260408120548015611d455783546000198083019190810190600090879083908110611cbc57fe5b9060005260206000200154905080876000018481548110611cd957fe5b600091825260208083209091019290925582815260018981019092526040902090840190558654879080611d0957fe5b6001900381819060005260206000200160009055905586600101600087815260200190815260200160002060009055600194505050505061080f565b600091505061080f56fe456e756d657261626c655365743a20696e646578206f7574206f6620626f756e647345524332303a207472616e7366657220746f20746865207a65726f2061646472657373416363657373436f6e74726f6c3a2073656e646572206d75737420626520616e2061646d696e20746f206772616e7445524332303a206275726e20616d6f756e7420657863656564732062616c616e636545524332305072657365744d696e7465725061757365723a206d75737420686176652070617573657220726f6c6520746f20756e706175736545524332303a20617070726f766520746f20746865207a65726f206164647265737345524332303a207472616e7366657220616d6f756e7420657863656564732062616c616e636545434453413a20696e76616c6964207369676e6174757265202773272076616c7565416363657373436f6e74726f6c3a2073656e646572206d75737420626520616e2061646d696e20746f207265766f6b6545434453413a20696e76616c6964207369676e6174757265202776272076616c756545524332303a207472616e7366657220616d6f756e74206578636565647320616c6c6f77616e636545524332305072657365744d696e7465725061757365723a206d7573742068617665206d696e74657220726f6c6520746f206d696e7445524332303a206275726e20616d6f756e74206578636565647320616c6c6f77616e636545524332303a206275726e2066726f6d20746865207a65726f206164647265737345524332303a207472616e736665722066726f6d20746865207a65726f206164647265737345524332303a20617070726f76652066726f6d20746865207a65726f206164647265737345524332305072657365744d696e7465725061757365723a206d75737420686176652070617573657220726f6c6520746f20706175736545524332303a2064656372656173656420616c6c6f77616e63652062656c6f77207a65726f416363657373436f6e74726f6c3a2063616e206f6e6c792072656e6f756e636520726f6c657320666f722073656c6645524332305061757361626c653a20746f6b656e207472616e73666572207768696c6520706175736564a26469706673582212206b4c7c22a6588b8201cdbee32a82c6967798bd87a4209832478de797aa3c27d564736f6c63430007000033",
  "linkReferences": {},
  "deployedLinkReferences": {}
}