{
  "_format": "hh-sol-artifact-1",
  "contractName": "PermitRouter",
  "sourceName": "contracts/PermitRouter.sol",
  "abi": [
    {
      "inputs": [
        {
          "internalType": "address",
          "name": "_pair",
          "type": "address"
        },
        {
          "internalType": "address",
          "name": "_token0",
          "type": "address"
        },
        {
          "internalType": "address",
          "name": "_token1",
          "type": "address"
        },
        {
          "internalType": "address",
          "name": "_token2",
          "type": "address"
        },
        {
          "internalType": "uint256",
          "name": "_fee",
          "type": "uint256"
        }
      ],
      "stateMutability": "nonpayable",
      "type": "constructor"
    },
    {
      "anonymous": false,
      "inputs": [
        {
          "indexed": true,
          "internalType": "address",
          "name": "owner",
          "type": "address"
        },
        {
          "indexed": false,
          "internalType": "uint256",
          "name": "amountIn",
          "type": "uint256"
        },
        {
          "indexed": false,
          "internalType": "uint256",
          "name": "amountOut",
          "type": "uint256"
        },
        {
          "indexed": false,
          "internalType": "uint256",
          "name": "deadline",
          "type": "uint256"
        },
        {
          "indexed": false,
          "internalType": "bytes",
          "name": "signature",
          "type": "bytes"
        }
      ],
      "name": "GaslessSwap",
      "type": "event"
    },
    {
      "anonymous": false,
      "inputs": [
        {
          "indexed": true,
          "internalType": "address",
          "name": "previousOwner",
          "type": "address"
        },
        {
          "indexed": true,
          "internalType": "address",
          "name": "newOwner",
          "type": "address"
        }
      ],
      "name": "OwnershipTransferred",
      "type": "event"
    },
    {
      "inputs": [],
      "name": "fee",
      "outputs": [
        {
          "internalType": "uint256",
          "name": "",
          "type": "uint256"
        }
      ],
      "stateMutability": "view",
      "type": "function"
    },
    {
      "inputs": [],
      "name": "feeBalance",
      "outputs": [
        {
          "internalType": "uint256",
          "name": "",
          "type": "uint256"
        }
      ],
      "stateMutability": "view",
      "type": "function"
    },
    {
      "inputs": [
        {
          "internalType": "uint256",
          "name": "amountIn",
          "type": "uint256"
        }
      ],
      "name": "getAmountsOut",
      "outputs": [
        {
          "internalType": "uint256[]",
          "name": "amounts",
          "type": "uint256[]"
        }
      ],
      "stateMutability": "view",
      "type": "function"
    },
    {
      "inputs": [],
      "name": "owner",
      "outputs": [
        {
          "internalType": "address",
          "name": "",
          "type": "address"
        }
      ],
      "stateMutability": "view",
      "type": "function"
    },
    {
      "inputs": [],
      "name": "pair",
      "outputs": [
        {
          "internalType": "address",
          "name": "",
          "type": "address"
        }
      ],
      "stateMutability": "view",
      "type": "function"
    },
    {
      "inputs": [],
      "name": "renounceOwnership",
      "outputs": [],
      "stateMutability": "nonpayable",
      "type": "function"
    },
    {
      "inputs": [
        {
          "internalType": "uint256",
          "name": "_fee",
          "type": "uint256"
        }
      ],
      "name": "setFee",
      "outputs": [],
      "stateMutability": "nonpayable",
      "type": "function"
    },
    {
      "inputs": [
        {
          "internalType": "address",
          "name": "owner",
          "type": "address"
        },
        {
          "internalType": "uint256",
          "name": "amountIn",
          "type": "uint256"
        },
        {
          "internalType": "uint256",
          "name": "amountOutMin",
          "type": "uint256"
        },
        {
          "internalType": "uint256",
          "name": "deadline",
          "type": "uint256"
        },
        {
          "internalType": "bytes",
          "name": "signature",
          "type": "bytes"
        }
      ],
      "name": "swapExactTokensForTokens",
      "outputs": [
        {
          "internalType": "uint256[]",
          "name": "amounts",
          "type": "uint256[]"
        }
      ],
      "stateMutability": "nonpayable",
      "type": "function"
    },
    {
      "inputs": [
        {
          "internalType": "address",
          "name": "owner",
          "type": "address"
        },
        {
          "internalType": "uint256",
          "name": "amountOut",
          "type": "uint256"
        },
        {
          "internalType": "uint256",
          "name": "amountInMax",
          "type": "uint256"
        },
        {
          "internalType": "uint256",
          "name": "deadline",
          "type": "uint256"
        },
        {
          "internalType": "bytes",
          "name": "signature",
          "type": "bytes"
        }
      ],
      "name": "swapTokensForExactTokens",
      "outputs": [
        {
          "internalType": "uint256[]",
          "name": "amounts",
          "type": "uint256[]"
        }
      ],
      "stateMutability": "nonpayable",
      "type": "function"
    },
    {
      "inputs": [],
      "name": "token0",
      "outputs": [
        {
          "internalType": "address",
          "name": "",
          "type": "address"
        }
      ],
      "stateMutability": "view",
      "type": "function"
    },
    {
      "inputs": [],
      "name": "token1",
      "outputs": [
        {
          "internalType": "address",
          "name": "",
          "type": "address"
        }
      ],
      "stateMutability": "view",
      "type": "function"
    },
    {
      "inputs": [],
      "name": "token2",
      "outputs": [
        {
          "internalType": "address",
          "name": "",
          "type": "address"
        }
      ],
      "stateMutability": "view",
      "type": "function"
    },
    {
      "inputs": [
        {
          "internalType": "address",
          "name": "newOwner",
          "type": "address"
        }
      ],
      "name": "transferOwnership",
      "outputs": [],
      "stateMutability": "nonpayable",
      "type": "function"
    },
    {
      "inputs": [],
      "name": "withdrawFee",
      "outputs": [],
      "stateMutability": "nonpayable",
      "type": "function"
    }
  ],
  "bytecode": "0x6101006040523480156200001257600080fd5b5060405162001e7a38038062001e7a8339810160408190526200003591620000e0565b620000403362000073565b6001600160601b0319606095861b811660805293851b841660a05291841b831660c05290921b1660e05260015562000147565b600080546001600160a01b038381166001600160a01b0319831681178455604051919092169283917f8be0079c531659141344cd1fd0a4f28419497f9722a3daafe3b4186f6b6457e09190a35050565b80516001600160a01b0381168114620000db57600080fd5b919050565b600080600080600060a08688031215620000f957600080fd5b6200010486620000c3565b94506200011460208701620000c3565b93506200012460408701620000c3565b92506200013460608701620000c3565b9150608086015190509295509295909350565b60805160601c60a05160601c60c05160601c60e05160601c611c5a620002206000396000818161015c01528181610325015281816106690152818161093c015281816109ff01528181610b1f0152818161105f015281816110e701526111d0015260008181610215015281816102d10152818161061501526108e801526000818161011d01528181610435015281816104a90152818161078901526107fd0152600081816101db0152818161037c015281816104cb015281816106c00152818161081f015281816109930152610fc40152611c5a6000f3fe608060405234801561001057600080fd5b50600436106100ea5760003560e01c80638da5cb5b1161008c578063d21220a711610066578063d21220a714610210578063ddca3f4314610237578063e941fa7814610240578063f2fde38b1461024857600080fd5b80638da5cb5b146101c5578063a8aa1b31146101d6578063c1153aaa146101fd57600080fd5b806354a45957116100c857806354a459571461017e57806360b71d4e1461019157806369fe0e2d146101a8578063715018a6146101bd57600080fd5b806304464220146100ef5780630dfe16811461011857806325be124e14610157575b600080fd5b6101026100fd3660046117f8565b61025b565b60405161010f91906119fd565b60405180910390f35b61013f7f000000000000000000000000000000000000000000000000000000000000000081565b6040516001600160a01b03909116815260200161010f565b61013f7f000000000000000000000000000000000000000000000000000000000000000081565b61010261018c3660046117f8565b6105a4565b61019a60025481565b60405190815260200161010f565b6101bb6101b6366004611949565b61085c565b005b6101bb61088b565b6000546001600160a01b031661013f565b61013f7f000000000000000000000000000000000000000000000000000000000000000081565b61010261020b366004611949565b6108c1565b61013f7f000000000000000000000000000000000000000000000000000000000000000081565b61019a60015481565b6101bb6109c0565b6101bb6102563660046117dd565b610ba6565b606082428110156102ae5760405162461bcd60e51b8152602060048201526018602482015277155b9a5cddd85c158c949bdd5d195c8e881156141254915160421b60448201526064015b60405180910390fd5b6040805160028082526060820183526000926020830190803683370190505090507f00000000000000000000000000000000000000000000000000000000000000008160008151811061030357610303611bf8565b60200260200101906001600160a01b031690816001600160a01b0316815250507f00000000000000000000000000000000000000000000000000000000000000008160018151811061035757610357611bf8565b60200260200101906001600160a01b031690816001600160a01b0316815250506103a27f00000000000000000000000000000000000000000000000000000000000000008883610c41565b925085836000815181106103b8576103b8611bf8565b6020026020010151111561041e5760405162461bcd60e51b815260206004820152602760248201527f556e69737761705632526f757465723a204558434553534956455f494e50555460448201526617d05353d5539560ca1b60648201526084016102a5565b604051639fd5a6cf60e01b81526001600160a01b037f00000000000000000000000000000000000000000000000000000000000000001690639fd5a6cf90610472908b9030908b908b908b906004016119c3565b600060405180830381600087803b15801561048c57600080fd5b505af11580156104a0573d6000803e3d6000fd5b5050505061050a7f0000000000000000000000000000000000000000000000000000000000000000897f0000000000000000000000000000000000000000000000000000000000000000866000815181106104fd576104fd611bf8565b6020026020010151610dd7565b61051583828a610f07565b61051e8861103b565b876001600160a01b03167f3c0992b39b2bf28fd0beb1a02e8e8e6d77db5c47f25f3e7acc4f031f294067878460008151811061055c5761055c611bf8565b60200260200101518560018151811061057757610577611bf8565b602002602001015188886040516105919493929190611aeb565b60405180910390a2505095945050505050565b606082428110156105f25760405162461bcd60e51b8152602060048201526018602482015277155b9a5cddd85c158c949bdd5d195c8e881156141254915160421b60448201526064016102a5565b6040805160028082526060820183526000926020830190803683370190505090507f00000000000000000000000000000000000000000000000000000000000000008160008151811061064757610647611bf8565b60200260200101906001600160a01b031690816001600160a01b0316815250507f00000000000000000000000000000000000000000000000000000000000000008160018151811061069b5761069b611bf8565b60200260200101906001600160a01b031690816001600160a01b0316815250506106e67f00000000000000000000000000000000000000000000000000000000000000008883611259565b92508583600185516106f89190611b69565b8151811061070857610708611bf8565b602002602001015110156107725760405162461bcd60e51b815260206004820152602b60248201527f556e69737761705632526f757465723a20494e53554646494349454e545f4f5560448201526a1514155517d05353d5539560aa1b60648201526084016102a5565b604051639fd5a6cf60e01b81526001600160a01b037f00000000000000000000000000000000000000000000000000000000000000001690639fd5a6cf906107c6908b9030908c908b908b906004016119c3565b600060405180830381600087803b1580156107e057600080fd5b505af11580156107f4573d6000803e3d6000fd5b505050506108517f0000000000000000000000000000000000000000000000000000000000000000897f0000000000000000000000000000000000000000000000000000000000000000866000815181106104fd576104fd611bf8565b610515838230610f07565b6000546001600160a01b031633146108865760405162461bcd60e51b81526004016102a590611a89565b600155565b6000546001600160a01b031633146108b55760405162461bcd60e51b81526004016102a590611a89565b6108bf60006113cf565b565b604080516002808252606080830184529260009291906020830190803683370190505090507f00000000000000000000000000000000000000000000000000000000000000008160008151811061091a5761091a611bf8565b60200260200101906001600160a01b031690816001600160a01b0316815250507f00000000000000000000000000000000000000000000000000000000000000008160018151811061096e5761096e611bf8565b60200260200101906001600160a01b031690816001600160a01b0316815250506109b97f00000000000000000000000000000000000000000000000000000000000000008483611259565b9392505050565b6000546001600160a01b031633146109ea5760405162461bcd60e51b81526004016102a590611a89565b6040516370a0823160e01b81523060048201527f00000000000000000000000000000000000000000000000000000000000000006001600160a01b03169063a9059cbb90339083906370a082319060240160206040518083038186803b158015610a5357600080fd5b505afa158015610a67573d6000803e3d6000fd5b505050506040513d601f19601f82011682018060405250810190610a8b9190611962565b6040516001600160e01b031960e085901b1681526001600160a01b0390921660048301526024820152604401602060405180830381600087803b158015610ad157600080fd5b505af1158015610ae5573d6000803e3d6000fd5b505050506040513d601f19601f82011682018060405250810190610b0991906118d7565b506040516370a0823160e01b81523060048201527f00000000000000000000000000000000000000000000000000000000000000006001600160a01b0316906370a082319060240160206040518083038186803b158015610b6957600080fd5b505afa158015610b7d573d6000803e3d6000fd5b505050506040513d601f19601f82011682018060405250810190610ba19190611962565b600255565b6000546001600160a01b03163314610bd05760405162461bcd60e51b81526004016102a590611a89565b6001600160a01b038116610c355760405162461bcd60e51b815260206004820152602660248201527f4f776e61626c653a206e6577206f776e657220697320746865207a65726f206160448201526564647265737360d01b60648201526084016102a5565b610c3e816113cf565b50565b6060600282511015610c955760405162461bcd60e51b815260206004820152601e60248201527f556e697377617056324c6962726172793a20494e56414c49445f50415448000060448201526064016102a5565b815167ffffffffffffffff811115610caf57610caf611c0e565b604051908082528060200260200182016040528015610cd8578160200160208202803683370190505b509050828160018351610ceb9190611b69565b81518110610cfb57610cfb611bf8565b602002602001018181525050600060018351610d179190611b69565b90505b8015610dcf57600080610d6a8786610d33600187611b69565b81518110610d4357610d43611bf8565b6020026020010151878681518110610d5d57610d5d611bf8565b602002602001015161141f565b91509150610d92848481518110610d8357610d83611bf8565b602002602001015183836114ee565b84610d9e600186611b69565b81518110610dae57610dae611bf8565b60200260200101818152505050508080610dc790611bb0565b915050610d1a565b509392505050565b604080516001600160a01b0385811660248301528481166044830152606480830185905283518084039091018152608490920183526020820180516001600160e01b03166323b872dd60e01b1790529151600092839290881691610e3b91906119a7565b6000604051808303816000865af19150503d8060008114610e78576040519150601f19603f3d011682016040523d82523d6000602084013e610e7d565b606091505b5091509150818015610ea7575080511580610ea7575080806020019051810190610ea791906118d7565b610eff5760405162461bcd60e51b8152602060048201526024808201527f5472616e7366657248656c7065723a205452414e534645525f46524f4d5f46416044820152631253115160e21b60648201526084016102a5565b505050505050565b60008083600081518110610f1d57610f1d611bf8565b602002602001015184600181518110610f3857610f38611bf8565b6020026020010151915091506000610f5083836115d3565b509050600086600181518110610f6857610f68611bf8565b60200260200101519050600080836001600160a01b0316866001600160a01b031614610f9657826000610f9a565b6000835b6040805160008152602081019182905263022c0d9f60e01b90915291935091506001600160a01b037f0000000000000000000000000000000000000000000000000000000000000000169063022c0d9f90610ffe90859085908c9060248101611abe565b600060405180830381600087803b15801561101857600080fd5b505af115801561102c573d6000803e3d6000fd5b50505050505050505050505050565b6002546040516370a0823160e01b8152306004820152600091906001600160a01b037f000000000000000000000000000000000000000000000000000000000000000016906370a082319060240160206040518083038186803b1580156110a157600080fd5b505afa1580156110b5573d6000803e3d6000fd5b505050506040513d601f19601f820116820180604052508101906110d99190611962565b6110e39190611b69565b90507f00000000000000000000000000000000000000000000000000000000000000006001600160a01b031663a9059cbb836127106001546127106111289190611b69565b6111329086611b4a565b61113c9190611b28565b6040516001600160e01b031960e085901b1681526001600160a01b0390921660048301526024820152604401602060405180830381600087803b15801561118257600080fd5b505af1158015611196573d6000803e3d6000fd5b505050506040513d601f19601f820116820180604052508101906111ba91906118d7565b506040516370a0823160e01b81523060048201527f00000000000000000000000000000000000000000000000000000000000000006001600160a01b0316906370a082319060240160206040518083038186803b15801561121a57600080fd5b505afa15801561122e573d6000803e3d6000fd5b505050506040513d601f19601f820116820180604052508101906112529190611962565b6002555050565b60606002825110156112ad5760405162461bcd60e51b815260206004820152601e60248201527f556e697377617056324c6962726172793a20494e56414c49445f50415448000060448201526064016102a5565b815167ffffffffffffffff8111156112c7576112c7611c0e565b6040519080825280602002602001820160405280156112f0578160200160208202803683370190505b509050828160008151811061130757611307611bf8565b60200260200101818152505060005b600183516113249190611b69565b811015610dcf5760008061136a8786858151811061134457611344611bf8565b60200260200101518786600161135a9190611b10565b81518110610d5d57610d5d611bf8565b9150915061139284848151811061138357611383611bf8565b602002602001015183836116cb565b8461139e856001611b10565b815181106113ae576113ae611bf8565b602002602001018181525050505080806113c790611bc7565b915050611316565b600080546001600160a01b038381166001600160a01b0319831681178455604051919092169283917f8be0079c531659141344cd1fd0a4f28419497f9722a3daafe3b4186f6b6457e09190a35050565b600080600061142e85856115d3565b509050600080876001600160a01b0316630902f1ac6040518163ffffffff1660e01b815260040160606040518083038186803b15801561146d57600080fd5b505afa158015611481573d6000803e3d6000fd5b505050506040513d601f19601f820116820180604052508101906114a591906118f9565b506001600160701b031691506001600160701b03169150826001600160a01b0316876001600160a01b0316146114dc5780826114df565b81815b90999098509650505050505050565b60008084116115545760405162461bcd60e51b815260206004820152602c60248201527f556e697377617056324c6962726172793a20494e53554646494349454e545f4f60448201526b155514155517d05353d5539560a21b60648201526084016102a5565b6000831180156115645750600082115b6115805760405162461bcd60e51b81526004016102a590611a41565b600061158c8585611b4a565b611598906103e8611b4a565b905060006115a68685611b69565b6115b2906103e5611b4a565b90506115be8183611b28565b6115c9906001611b10565b9695505050505050565b600080826001600160a01b0316846001600160a01b031614156116465760405162461bcd60e51b815260206004820152602560248201527f556e697377617056324c6962726172793a204944454e544943414c5f41444452604482015264455353455360d81b60648201526084016102a5565b826001600160a01b0316846001600160a01b031610611666578284611669565b83835b90925090506001600160a01b0382166116c45760405162461bcd60e51b815260206004820152601e60248201527f556e697377617056324c6962726172793a205a45524f5f41444452455353000060448201526064016102a5565b9250929050565b60008084116117305760405162461bcd60e51b815260206004820152602b60248201527f556e697377617056324c6962726172793a20494e53554646494349454e545f4960448201526a1394155517d05353d5539560aa1b60648201526084016102a5565b6000831180156117405750600082115b61175c5760405162461bcd60e51b81526004016102a590611a41565b600061176a856103e5611b4a565b905060006117788483611b4a565b9050600082611789876103e8611b4a565b6117939190611b10565b905061179f8183611b28565b979650505050505050565b80356001600160a01b03811681146117c157600080fd5b919050565b80516001600160701b03811681146117c157600080fd5b6000602082840312156117ef57600080fd5b6109b9826117aa565b600080600080600060a0868803121561181057600080fd5b611819866117aa565b9450602086013593506040860135925060608601359150608086013567ffffffffffffffff8082111561184b57600080fd5b818801915088601f83011261185f57600080fd5b81358181111561187157611871611c0e565b604051601f8201601f19908116603f0116810190838211818310171561189957611899611c0e565b816040528281528b60208487010111156118b257600080fd5b8260208601602083013760006020848301015280955050505050509295509295909350565b6000602082840312156118e957600080fd5b815180151581146109b957600080fd5b60008060006060848603121561190e57600080fd5b611917846117c6565b9250611925602085016117c6565b9150604084015163ffffffff8116811461193e57600080fd5b809150509250925092565b60006020828403121561195b57600080fd5b5035919050565b60006020828403121561197457600080fd5b5051919050565b60008151808452611993816020860160208601611b80565b601f01601f19169290920160200192915050565b600082516119b9818460208701611b80565b9190910192915050565b6001600160a01b03868116825285166020820152604081018490526060810183905260a06080820181905260009061179f9083018461197b565b6020808252825182820181905260009190848201906040850190845b81811015611a3557835183529284019291840191600101611a19565b50909695505050505050565b60208082526028908201527f556e697377617056324c6962726172793a20494e53554646494349454e545f4c604082015267495155494449545960c01b606082015260800190565b6020808252818101527f4f776e61626c653a2063616c6c6572206973206e6f7420746865206f776e6572604082015260600190565b84815283602082015260018060a01b03831660408201526080606082015260006115c9608083018461197b565b8481528360208201528260408201526080606082015260006115c9608083018461197b565b60008219821115611b2357611b23611be2565b500190565b600082611b4557634e487b7160e01b600052601260045260246000fd5b500490565b6000816000190483118215151615611b6457611b64611be2565b500290565b600082821015611b7b57611b7b611be2565b500390565b60005b83811015611b9b578181015183820152602001611b83565b83811115611baa576000848401525b50505050565b600081611bbf57611bbf611be2565b506000190190565b6000600019821415611bdb57611bdb611be2565b5060010190565b634e487b7160e01b600052601160045260246000fd5b634e487b7160e01b600052603260045260246000fd5b634e487b7160e01b600052604160045260246000fdfea264697066735822122002ac664c3680361ab97ac9eb55e4f360e921821cbb5a5afaa6c6217900e5a3bf64736f6c63430008070033",
  "linkReferences": {},
  "deployedLinkReferences": {}
}