{
  "_format": "hh-sol-artifact-1",
  "contractName": "PermitRouter",
  "sourceName": "contracts/PermitRouter.sol",
  "abi": [
    {
      "inputs": [
        {
          "internalType": "address",
          "name": "_pair",
          "type": "address"
        },
        {
          "internalType": "address",
          "name": "_token0",
          "type": "address"
        },
        {
          "internalType": "address",
          "name": "_token1",
          "type": "address"
        },
        {
          "internalType": "address",
          "name": "_token2",
          "type": "address"
        },
        {
          "internalType": "uint256",
          "name": "_fee",
          "type": "uint256"
        }
      ],
      "stateMutability": "nonpayable",
      "type": "constructor"
    },
    {
      "anonymous": false,
      "inputs": [
        {
          "indexed": true,
          "internalType": "address",
          "name": "owner",
          "type": "address"
        },
        {
          "indexed": false,
          "internalType": "uint256",
          "name": "amountIn",
          "type": "uint256"
        },
        {
          "indexed": false,
          "internalType": "uint256",
          "name": "amountOut",
          "type": "uint256"
        },
        {
          "indexed": false,
          "internalType": "uint256",
          "name": "deadline",
          "type": "uint256"
        },
        {
          "indexed": false,
          "internalType": "bytes",
          "name": "signature",
          "type": "bytes"
        }
      ],
      "name": "GaslessSwap",
      "type": "event"
    },
    {
      "anonymous": false,
      "inputs": [
        {
          "indexed": true,
          "internalType": "address",
          "name": "previousOwner",
          "type": "address"
        },
        {
          "indexed": true,
          "internalType": "address",
          "name": "newOwner",
          "type": "address"
        }
      ],
      "name": "OwnershipTransferred",
      "type": "event"
    },
    {
      "inputs": [],
      "name": "fee",
      "outputs": [
        {
          "internalType": "uint256",
          "name": "",
          "type": "uint256"
        }
      ],
      "stateMutability": "view",
      "type": "function"
    },
    {
      "inputs": [],
      "name": "feeBalance",
      "outputs": [
        {
          "internalType": "uint256",
          "name": "",
          "type": "uint256"
        }
      ],
      "stateMutability": "view",
      "type": "function"
    },
    {
      "inputs": [
        {
          "internalType": "uint256",
          "name": "amountOut",
          "type": "uint256"
        }
      ],
      "name": "getAmountsIn",
      "outputs": [
        {
          "internalType": "uint256[]",
          "name": "amounts",
          "type": "uint256[]"
        }
      ],
      "stateMutability": "view",
      "type": "function"
    },
    {
      "inputs": [
        {
          "internalType": "uint256",
          "name": "amountIn",
          "type": "uint256"
        }
      ],
      "name": "getAmountsOut",
      "outputs": [
        {
          "internalType": "uint256[]",
          "name": "amounts",
          "type": "uint256[]"
        }
      ],
      "stateMutability": "view",
      "type": "function"
    },
    {
      "inputs": [],
      "name": "owner",
      "outputs": [
        {
          "internalType": "address",
          "name": "",
          "type": "address"
        }
      ],
      "stateMutability": "view",
      "type": "function"
    },
    {
      "inputs": [],
      "name": "pair",
      "outputs": [
        {
          "internalType": "address",
          "name": "",
          "type": "address"
        }
      ],
      "stateMutability": "view",
      "type": "function"
    },
    {
      "inputs": [],
      "name": "renounceOwnership",
      "outputs": [],
      "stateMutability": "nonpayable",
      "type": "function"
    },
    {
      "inputs": [
        {
          "internalType": "uint256",
          "name": "_fee",
          "type": "uint256"
        }
      ],
      "name": "setFee",
      "outputs": [],
      "stateMutability": "nonpayable",
      "type": "function"
    },
    {
      "inputs": [
        {
          "internalType": "address",
          "name": "owner",
          "type": "address"
        },
        {
          "internalType": "uint256",
          "name": "amountIn",
          "type": "uint256"
        },
        {
          "internalType": "uint256",
          "name": "amountOutMin",
          "type": "uint256"
        },
        {
          "internalType": "uint256",
          "name": "deadline",
          "type": "uint256"
        },
        {
          "internalType": "bytes",
          "name": "signature",
          "type": "bytes"
        }
      ],
      "name": "swapExactTokensForTokens",
      "outputs": [
        {
          "internalType": "uint256[]",
          "name": "amounts",
          "type": "uint256[]"
        }
      ],
      "stateMutability": "nonpayable",
      "type": "function"
    },
    {
      "inputs": [
        {
          "internalType": "address",
          "name": "owner",
          "type": "address"
        },
        {
          "internalType": "uint256",
          "name": "amountOut",
          "type": "uint256"
        },
        {
          "internalType": "uint256",
          "name": "amountInMax",
          "type": "uint256"
        },
        {
          "internalType": "uint256",
          "name": "deadline",
          "type": "uint256"
        },
        {
          "internalType": "bytes",
          "name": "signature",
          "type": "bytes"
        }
      ],
      "name": "swapTokensForExactTokens",
      "outputs": [
        {
          "internalType": "uint256[]",
          "name": "amounts",
          "type": "uint256[]"
        }
      ],
      "stateMutability": "nonpayable",
      "type": "function"
    },
    {
      "inputs": [],
      "name": "token0",
      "outputs": [
        {
          "internalType": "address",
          "name": "",
          "type": "address"
        }
      ],
      "stateMutability": "view",
      "type": "function"
    },
    {
      "inputs": [],
      "name": "token1",
      "outputs": [
        {
          "internalType": "address",
          "name": "",
          "type": "address"
        }
      ],
      "stateMutability": "view",
      "type": "function"
    },
    {
      "inputs": [],
      "name": "token2",
      "outputs": [
        {
          "internalType": "address",
          "name": "",
          "type": "address"
        }
      ],
      "stateMutability": "view",
      "type": "function"
    },
    {
      "inputs": [
        {
          "internalType": "address",
          "name": "newOwner",
          "type": "address"
        }
      ],
      "name": "transferOwnership",
      "outputs": [],
      "stateMutability": "nonpayable",
      "type": "function"
    },
    {
      "inputs": [],
      "name": "withdrawFee",
      "outputs": [],
      "stateMutability": "nonpayable",
      "type": "function"
    }
  ],
  "bytecode": "0x6101006040523480156200001257600080fd5b5060405162001fa538038062001fa58339810160408190526200003591620000e0565b620000403362000073565b6001600160601b0319606095861b811660805293851b841660a05291841b831660c05290921b1660e05260015562000147565b600080546001600160a01b038381166001600160a01b0319831681178455604051919092169283917f8be0079c531659141344cd1fd0a4f28419497f9722a3daafe3b4186f6b6457e09190a35050565b80516001600160a01b0381168114620000db57600080fd5b919050565b600080600080600060a08688031215620000f957600080fd5b6200010486620000c3565b94506200011460208701620000c3565b93506200012460408701620000c3565b92506200013460608701620000c3565b9150608086015190509295509295909350565b60805160601c60a05160601c60c05160601c60e05160601c611d70620002356000396000818161017a015281816103430152818161063d0152818161078601528181610a5901528181610b1501528181610c3501528181611175015281816111fd01526112e6015260008181610233015281816102ef015281816105e9015281816107320152610a0501526000818161012801528181610453015281816104c7015281816108a6015261091a0152600081816101f90152818161039a015281816104e901528181610694015281816107dd0152818161093c01528181610ab001526110da0152611d706000f3fe608060405234801561001057600080fd5b50600436106100f55760003560e01c8063715018a611610097578063d21220a711610066578063d21220a71461022e578063ddca3f4314610255578063e941fa781461025e578063f2fde38b1461026657600080fd5b8063715018a6146101db5780638da5cb5b146101e3578063a8aa1b31146101f4578063c1153aaa1461021b57600080fd5b806325be124e116100d357806325be124e1461017557806354a459571461019c57806360b71d4e146101af57806369fe0e2d146101c657600080fd5b806304464220146100fa5780630dfe168114610123578063255d591e14610162575b600080fd5b61010d61010836600461190e565b610279565b60405161011a9190611b13565b60405180910390f35b61014a7f000000000000000000000000000000000000000000000000000000000000000081565b6040516001600160a01b03909116815260200161011a565b61010d610170366004611a5f565b6105c2565b61014a7f000000000000000000000000000000000000000000000000000000000000000081565b61010d6101aa36600461190e565b6106c1565b6101b860025481565b60405190815260200161011a565b6101d96101d4366004611a5f565b610979565b005b6101d96109a8565b6000546001600160a01b031661014a565b61014a7f000000000000000000000000000000000000000000000000000000000000000081565b61010d610229366004611a5f565b6109de565b61014a7f000000000000000000000000000000000000000000000000000000000000000081565b6101b860015481565b6101d9610ad6565b6101d96102743660046118f3565b610cbc565b606082428110156102cc5760405162461bcd60e51b8152602060048201526018602482015277155b9a5cddd85c158c949bdd5d195c8e881156141254915160421b60448201526064015b60405180910390fd5b6040805160028082526060820183526000926020830190803683370190505090507f00000000000000000000000000000000000000000000000000000000000000008160008151811061032157610321611d0e565b60200260200101906001600160a01b031690816001600160a01b0316815250507f00000000000000000000000000000000000000000000000000000000000000008160018151811061037557610375611d0e565b60200260200101906001600160a01b031690816001600160a01b0316815250506103c07f00000000000000000000000000000000000000000000000000000000000000008883610d57565b925085836000815181106103d6576103d6611d0e565b6020026020010151111561043c5760405162461bcd60e51b815260206004820152602760248201527f556e69737761705632526f757465723a204558434553534956455f494e50555460448201526617d05353d5539560ca1b60648201526084016102c3565b604051639fd5a6cf60e01b81526001600160a01b037f00000000000000000000000000000000000000000000000000000000000000001690639fd5a6cf90610490908b9030908b908b908b90600401611ad9565b600060405180830381600087803b1580156104aa57600080fd5b505af11580156104be573d6000803e3d6000fd5b505050506105287f0000000000000000000000000000000000000000000000000000000000000000897f00000000000000000000000000000000000000000000000000000000000000008660008151811061051b5761051b611d0e565b6020026020010151610eed565b61053383828a61101d565b61053c88611151565b876001600160a01b03167f3c0992b39b2bf28fd0beb1a02e8e8e6d77db5c47f25f3e7acc4f031f294067878460008151811061057a5761057a611d0e565b60200260200101518560018151811061059557610595611d0e565b602002602001015188886040516105af9493929190611c01565b60405180910390a2505095945050505050565b604080516002808252606080830184529260009291906020830190803683370190505090507f00000000000000000000000000000000000000000000000000000000000000008160008151811061061b5761061b611d0e565b60200260200101906001600160a01b031690816001600160a01b0316815250507f00000000000000000000000000000000000000000000000000000000000000008160018151811061066f5761066f611d0e565b60200260200101906001600160a01b031690816001600160a01b0316815250506106ba7f00000000000000000000000000000000000000000000000000000000000000008483610d57565b9392505050565b6060824281101561070f5760405162461bcd60e51b8152602060048201526018602482015277155b9a5cddd85c158c949bdd5d195c8e881156141254915160421b60448201526064016102c3565b6040805160028082526060820183526000926020830190803683370190505090507f00000000000000000000000000000000000000000000000000000000000000008160008151811061076457610764611d0e565b60200260200101906001600160a01b031690816001600160a01b0316815250507f0000000000000000000000000000000000000000000000000000000000000000816001815181106107b8576107b8611d0e565b60200260200101906001600160a01b031690816001600160a01b0316815250506108037f0000000000000000000000000000000000000000000000000000000000000000888361136f565b92508583600185516108159190611c7f565b8151811061082557610825611d0e565b6020026020010151101561088f5760405162461bcd60e51b815260206004820152602b60248201527f556e69737761705632526f757465723a20494e53554646494349454e545f4f5560448201526a1514155517d05353d5539560aa1b60648201526084016102c3565b604051639fd5a6cf60e01b81526001600160a01b037f00000000000000000000000000000000000000000000000000000000000000001690639fd5a6cf906108e3908b9030908c908b908b90600401611ad9565b600060405180830381600087803b1580156108fd57600080fd5b505af1158015610911573d6000803e3d6000fd5b5050505061096e7f0000000000000000000000000000000000000000000000000000000000000000897f00000000000000000000000000000000000000000000000000000000000000008660008151811061051b5761051b611d0e565b61053383823061101d565b6000546001600160a01b031633146109a35760405162461bcd60e51b81526004016102c390611b9f565b600155565b6000546001600160a01b031633146109d25760405162461bcd60e51b81526004016102c390611b9f565b6109dc60006114e5565b565b604080516002808252606080830184529260009291906020830190803683370190505090507f000000000000000000000000000000000000000000000000000000000000000081600081518110610a3757610a37611d0e565b60200260200101906001600160a01b031690816001600160a01b0316815250507f000000000000000000000000000000000000000000000000000000000000000081600181518110610a8b57610a8b611d0e565b60200260200101906001600160a01b031690816001600160a01b0316815250506106ba7f0000000000000000000000000000000000000000000000000000000000000000848361136f565b6000546001600160a01b03163314610b005760405162461bcd60e51b81526004016102c390611b9f565b6040516370a0823160e01b81523060048201527f00000000000000000000000000000000000000000000000000000000000000006001600160a01b03169063a9059cbb90339083906370a082319060240160206040518083038186803b158015610b6957600080fd5b505afa158015610b7d573d6000803e3d6000fd5b505050506040513d601f19601f82011682018060405250810190610ba19190611a78565b6040516001600160e01b031960e085901b1681526001600160a01b0390921660048301526024820152604401602060405180830381600087803b158015610be757600080fd5b505af1158015610bfb573d6000803e3d6000fd5b505050506040513d601f19601f82011682018060405250810190610c1f91906119ed565b506040516370a0823160e01b81523060048201527f00000000000000000000000000000000000000000000000000000000000000006001600160a01b0316906370a082319060240160206040518083038186803b158015610c7f57600080fd5b505afa158015610c93573d6000803e3d6000fd5b505050506040513d601f19601f82011682018060405250810190610cb79190611a78565b600255565b6000546001600160a01b03163314610ce65760405162461bcd60e51b81526004016102c390611b9f565b6001600160a01b038116610d4b5760405162461bcd60e51b815260206004820152602660248201527f4f776e61626c653a206e6577206f776e657220697320746865207a65726f206160448201526564647265737360d01b60648201526084016102c3565b610d54816114e5565b50565b6060600282511015610dab5760405162461bcd60e51b815260206004820152601e60248201527f556e697377617056324c6962726172793a20494e56414c49445f50415448000060448201526064016102c3565b815167ffffffffffffffff811115610dc557610dc5611d24565b604051908082528060200260200182016040528015610dee578160200160208202803683370190505b509050828160018351610e019190611c7f565b81518110610e1157610e11611d0e565b602002602001018181525050600060018351610e2d9190611c7f565b90505b8015610ee557600080610e808786610e49600187611c7f565b81518110610e5957610e59611d0e565b6020026020010151878681518110610e7357610e73611d0e565b6020026020010151611535565b91509150610ea8848481518110610e9957610e99611d0e565b60200260200101518383611604565b84610eb4600186611c7f565b81518110610ec457610ec4611d0e565b60200260200101818152505050508080610edd90611cc6565b915050610e30565b509392505050565b604080516001600160a01b0385811660248301528481166044830152606480830185905283518084039091018152608490920183526020820180516001600160e01b03166323b872dd60e01b1790529151600092839290881691610f519190611abd565b6000604051808303816000865af19150503d8060008114610f8e576040519150601f19603f3d011682016040523d82523d6000602084013e610f93565b606091505b5091509150818015610fbd575080511580610fbd575080806020019051810190610fbd91906119ed565b6110155760405162461bcd60e51b8152602060048201526024808201527f5472616e7366657248656c7065723a205452414e534645525f46524f4d5f46416044820152631253115160e21b60648201526084016102c3565b505050505050565b6000808360008151811061103357611033611d0e565b60200260200101518460018151811061104e5761104e611d0e565b602002602001015191509150600061106683836116e9565b50905060008660018151811061107e5761107e611d0e565b60200260200101519050600080836001600160a01b0316866001600160a01b0316146110ac578260006110b0565b6000835b6040805160008152602081019182905263022c0d9f60e01b90915291935091506001600160a01b037f0000000000000000000000000000000000000000000000000000000000000000169063022c0d9f9061111490859085908c9060248101611bd4565b600060405180830381600087803b15801561112e57600080fd5b505af1158015611142573d6000803e3d6000fd5b50505050505050505050505050565b6002546040516370a0823160e01b8152306004820152600091906001600160a01b037f000000000000000000000000000000000000000000000000000000000000000016906370a082319060240160206040518083038186803b1580156111b757600080fd5b505afa1580156111cb573d6000803e3d6000fd5b505050506040513d601f19601f820116820180604052508101906111ef9190611a78565b6111f99190611c7f565b90507f00000000000000000000000000000000000000000000000000000000000000006001600160a01b031663a9059cbb8361271060015461271061123e9190611c7f565b6112489086611c60565b6112529190611c3e565b6040516001600160e01b031960e085901b1681526001600160a01b0390921660048301526024820152604401602060405180830381600087803b15801561129857600080fd5b505af11580156112ac573d6000803e3d6000fd5b505050506040513d601f19601f820116820180604052508101906112d091906119ed565b506040516370a0823160e01b81523060048201527f00000000000000000000000000000000000000000000000000000000000000006001600160a01b0316906370a082319060240160206040518083038186803b15801561133057600080fd5b505afa158015611344573d6000803e3d6000fd5b505050506040513d601f19601f820116820180604052508101906113689190611a78565b6002555050565b60606002825110156113c35760405162461bcd60e51b815260206004820152601e60248201527f556e697377617056324c6962726172793a20494e56414c49445f50415448000060448201526064016102c3565b815167ffffffffffffffff8111156113dd576113dd611d24565b604051908082528060200260200182016040528015611406578160200160208202803683370190505b509050828160008151811061141d5761141d611d0e565b60200260200101818152505060005b6001835161143a9190611c7f565b811015610ee5576000806114808786858151811061145a5761145a611d0e565b6020026020010151878660016114709190611c26565b81518110610e7357610e73611d0e565b915091506114a884848151811061149957611499611d0e565b602002602001015183836117e1565b846114b4856001611c26565b815181106114c4576114c4611d0e565b602002602001018181525050505080806114dd90611cdd565b91505061142c565b600080546001600160a01b038381166001600160a01b0319831681178455604051919092169283917f8be0079c531659141344cd1fd0a4f28419497f9722a3daafe3b4186f6b6457e09190a35050565b600080600061154485856116e9565b509050600080876001600160a01b0316630902f1ac6040518163ffffffff1660e01b815260040160606040518083038186803b15801561158357600080fd5b505afa158015611597573d6000803e3d6000fd5b505050506040513d601f19601f820116820180604052508101906115bb9190611a0f565b506001600160701b031691506001600160701b03169150826001600160a01b0316876001600160a01b0316146115f25780826115f5565b81815b90999098509650505050505050565b600080841161166a5760405162461bcd60e51b815260206004820152602c60248201527f556e697377617056324c6962726172793a20494e53554646494349454e545f4f60448201526b155514155517d05353d5539560a21b60648201526084016102c3565b60008311801561167a5750600082115b6116965760405162461bcd60e51b81526004016102c390611b57565b60006116a28585611c60565b6116ae906103e8611c60565b905060006116bc8685611c7f565b6116c8906103e5611c60565b90506116d48183611c3e565b6116df906001611c26565b9695505050505050565b600080826001600160a01b0316846001600160a01b0316141561175c5760405162461bcd60e51b815260206004820152602560248201527f556e697377617056324c6962726172793a204944454e544943414c5f41444452604482015264455353455360d81b60648201526084016102c3565b826001600160a01b0316846001600160a01b03161061177c57828461177f565b83835b90925090506001600160a01b0382166117da5760405162461bcd60e51b815260206004820152601e60248201527f556e697377617056324c6962726172793a205a45524f5f41444452455353000060448201526064016102c3565b9250929050565b60008084116118465760405162461bcd60e51b815260206004820152602b60248201527f556e697377617056324c6962726172793a20494e53554646494349454e545f4960448201526a1394155517d05353d5539560aa1b60648201526084016102c3565b6000831180156118565750600082115b6118725760405162461bcd60e51b81526004016102c390611b57565b6000611880856103e5611c60565b9050600061188e8483611c60565b905060008261189f876103e8611c60565b6118a99190611c26565b90506118b58183611c3e565b979650505050505050565b80356001600160a01b03811681146118d757600080fd5b919050565b80516001600160701b03811681146118d757600080fd5b60006020828403121561190557600080fd5b6106ba826118c0565b600080600080600060a0868803121561192657600080fd5b61192f866118c0565b9450602086013593506040860135925060608601359150608086013567ffffffffffffffff8082111561196157600080fd5b818801915088601f83011261197557600080fd5b81358181111561198757611987611d24565b604051601f8201601f19908116603f011681019083821181831017156119af576119af611d24565b816040528281528b60208487010111156119c857600080fd5b8260208601602083013760006020848301015280955050505050509295509295909350565b6000602082840312156119ff57600080fd5b815180151581146106ba57600080fd5b600080600060608486031215611a2457600080fd5b611a2d846118dc565b9250611a3b602085016118dc565b9150604084015163ffffffff81168114611a5457600080fd5b809150509250925092565b600060208284031215611a7157600080fd5b5035919050565b600060208284031215611a8a57600080fd5b5051919050565b60008151808452611aa9816020860160208601611c96565b601f01601f19169290920160200192915050565b60008251611acf818460208701611c96565b9190910192915050565b6001600160a01b03868116825285166020820152604081018490526060810183905260a0608082018190526000906118b590830184611a91565b6020808252825182820181905260009190848201906040850190845b81811015611b4b57835183529284019291840191600101611b2f565b50909695505050505050565b60208082526028908201527f556e697377617056324c6962726172793a20494e53554646494349454e545f4c604082015267495155494449545960c01b606082015260800190565b6020808252818101527f4f776e61626c653a2063616c6c6572206973206e6f7420746865206f776e6572604082015260600190565b84815283602082015260018060a01b03831660408201526080606082015260006116df6080830184611a91565b8481528360208201528260408201526080606082015260006116df6080830184611a91565b60008219821115611c3957611c39611cf8565b500190565b600082611c5b57634e487b7160e01b600052601260045260246000fd5b500490565b6000816000190483118215151615611c7a57611c7a611cf8565b500290565b600082821015611c9157611c91611cf8565b500390565b60005b83811015611cb1578181015183820152602001611c99565b83811115611cc0576000848401525b50505050565b600081611cd557611cd5611cf8565b506000190190565b6000600019821415611cf157611cf1611cf8565b5060010190565b634e487b7160e01b600052601160045260246000fd5b634e487b7160e01b600052603260045260246000fd5b634e487b7160e01b600052604160045260246000fdfea2646970667358221220c04d8315723fd697f99581493c32b57fdbd172d571cd7dcf976d98d085980f3664736f6c63430008070033",
  "linkReferences": {},
  "deployedLinkReferences": {}
}