{
  "_format": "hh-sol-artifact-1",
  "contractName": "PermitRouter",
  "sourceName": "contracts/PermitRouter.sol",
  "abi": [
    {
      "inputs": [
        {
          "internalType": "address",
          "name": "_pair",
          "type": "address"
        },
        {
          "internalType": "address",
          "name": "_token0",
          "type": "address"
        },
        {
          "internalType": "address",
          "name": "_token1",
          "type": "address"
        },
        {
          "internalType": "address",
          "name": "_token2",
          "type": "address"
        }
      ],
      "stateMutability": "nonpayable",
      "type": "constructor"
    },
    {
      "inputs": [],
      "name": "pair",
      "outputs": [
        {
          "internalType": "address",
          "name": "",
          "type": "address"
        }
      ],
      "stateMutability": "view",
      "type": "function"
    },
    {
      "inputs": [
        {
          "internalType": "uint256",
          "name": "amountIn",
          "type": "uint256"
        },
        {
          "internalType": "uint256",
          "name": "amountOutMin",
          "type": "uint256"
        },
        {
          "internalType": "address",
          "name": "to",
          "type": "address"
        },
        {
          "internalType": "uint256",
          "name": "deadline",
          "type": "uint256"
        },
        {
          "internalType": "bytes",
          "name": "signature",
          "type": "bytes"
        }
      ],
      "name": "swapExactTokensForTokens",
      "outputs": [
        {
          "internalType": "uint256[]",
          "name": "amounts",
          "type": "uint256[]"
        }
      ],
      "stateMutability": "nonpayable",
      "type": "function"
    },
    {
      "inputs": [
        {
          "internalType": "uint256",
          "name": "amountOut",
          "type": "uint256"
        },
        {
          "internalType": "uint256",
          "name": "amountInMax",
          "type": "uint256"
        },
        {
          "internalType": "address",
          "name": "to",
          "type": "address"
        },
        {
          "internalType": "uint256",
          "name": "deadline",
          "type": "uint256"
        },
        {
          "internalType": "bytes",
          "name": "signature",
          "type": "bytes"
        }
      ],
      "name": "swapTokensForExactTokens",
      "outputs": [
        {
          "internalType": "uint256[]",
          "name": "amounts",
          "type": "uint256[]"
        }
      ],
      "stateMutability": "nonpayable",
      "type": "function"
    },
    {
      "inputs": [],
      "name": "token0",
      "outputs": [
        {
          "internalType": "address",
          "name": "",
          "type": "address"
        }
      ],
      "stateMutability": "view",
      "type": "function"
    },
    {
      "inputs": [],
      "name": "token1",
      "outputs": [
        {
          "internalType": "address",
          "name": "",
          "type": "address"
        }
      ],
      "stateMutability": "view",
      "type": "function"
    },
    {
      "inputs": [],
      "name": "token2",
      "outputs": [
        {
          "internalType": "address",
          "name": "",
          "type": "address"
        }
      ],
      "stateMutability": "view",
      "type": "function"
    }
  ],
  "bytecode": "0x6101006040523480156200001257600080fd5b50604051620015bc380380620015bc833981016040819052620000359162000082565b6001600160601b0319606094851b811660805292841b831660a05290831b821660c05290911b1660e052620000de565b80516001600160a01b03811681146200007d57600080fd5b919050565b6000806000806080858703121562000098578384fd5b620000a38562000065565b9350620000b36020860162000065565b9250620000c36040860162000065565b9150620000d36060860162000065565b905092959194509250565b60805160601c60a05160601c60c05160601c60e05160601c61144e6200016e6000396000818160b00152818161022b0152610533015260008181610131015281816101c901526104d1015260008181606c01528181610367015281816103db015261065f01526000818160f701528181610290015281816103fd015281816105980152610a92015261144e6000f3fe608060405234801561001057600080fd5b50600436106100625760003560e01c80630dfe16811461006757806325be124e146100ab578063480bfcaa146100d2578063a8aa1b31146100f2578063c155218614610119578063d21220a71461012c575b600080fd5b61008e7f000000000000000000000000000000000000000000000000000000000000000081565b6040516001600160a01b0390911681526020015b60405180910390f35b61008e7f000000000000000000000000000000000000000000000000000000000000000081565b6100e56100e03660046110fa565b610153565b6040516100a29190611263565b61008e7f000000000000000000000000000000000000000000000000000000000000000081565b6100e56101273660046110fa565b610460565b61008e7f000000000000000000000000000000000000000000000000000000000000000081565b606082428110156101a65760405162461bcd60e51b8152602060048201526018602482015277155b9a5cddd85c158c949bdd5d195c8e881156141254915160421b60448201526064015b60405180910390fd5b6040805160028082526060820183526000926020830190803683370190505090507f00000000000000000000000000000000000000000000000000000000000000008160008151811061020957634e487b7160e01b600052603260045260246000fd5b60200260200101906001600160a01b031690816001600160a01b0316815250507f00000000000000000000000000000000000000000000000000000000000000008160018151811061026b57634e487b7160e01b600052603260045260246000fd5b60200260200101906001600160a01b031690816001600160a01b0316815250506102b67f0000000000000000000000000000000000000000000000000000000000000000898361069c565b92508683600185516102c89190611373565b815181106102e657634e487b7160e01b600052603260045260246000fd5b602002602001015110156103505760405162461bcd60e51b815260206004820152602b60248201527f556e69737761705632526f757465723a20494e53554646494349454e545f4f5560448201526a1514155517d05353d5539560aa1b606482015260840161019d565b604051639fd5a6cf60e01b81526001600160a01b037f00000000000000000000000000000000000000000000000000000000000000001690639fd5a6cf906103a490339030908d908b908b90600401611229565b600060405180830381600087803b1580156103be57600080fd5b505af11580156103d2573d6000803e3d6000fd5b5050505061044a7f0000000000000000000000000000000000000000000000000000000000000000337f00000000000000000000000000000000000000000000000000000000000000008660008151811061043d57634e487b7160e01b600052603260045260246000fd5b602002602001015161087b565b6104558382886109ab565b505095945050505050565b606082428110156104ae5760405162461bcd60e51b8152602060048201526018602482015277155b9a5cddd85c158c949bdd5d195c8e881156141254915160421b604482015260640161019d565b6040805160028082526060820183526000926020830190803683370190505090507f00000000000000000000000000000000000000000000000000000000000000008160008151811061051157634e487b7160e01b600052603260045260246000fd5b60200260200101906001600160a01b031690816001600160a01b0316815250507f00000000000000000000000000000000000000000000000000000000000000008160018151811061057357634e487b7160e01b600052603260045260246000fd5b60200260200101906001600160a01b031690816001600160a01b0316815250506105be7f00000000000000000000000000000000000000000000000000000000000000008983610b09565b925086836000815181106105e257634e487b7160e01b600052603260045260246000fd5b602002602001015111156106485760405162461bcd60e51b815260206004820152602760248201527f556e69737761705632526f757465723a204558434553534956455f494e50555460448201526617d05353d5539560ca1b606482015260840161019d565b604051639fd5a6cf60e01b81526001600160a01b037f00000000000000000000000000000000000000000000000000000000000000001690639fd5a6cf906103a490339030908c908b908b90600401611229565b60606002825110156106f05760405162461bcd60e51b815260206004820152601e60248201527f556e697377617056324c6962726172793a20494e56414c49445f504154480000604482015260640161019d565b815167ffffffffffffffff81111561071857634e487b7160e01b600052604160045260246000fd5b604051908082528060200260200182016040528015610741578160200160208202803683370190505b509050828160008151811061076657634e487b7160e01b600052603260045260246000fd5b60200260200101818152505060005b600183516107839190611373565b811015610873576000806107f2878685815181106107b157634e487b7160e01b600052603260045260246000fd5b6020026020010151878660016107c7919061131c565b815181106107e557634e487b7160e01b600052603260045260246000fd5b6020026020010151610cde565b9150915061082884848151811061081957634e487b7160e01b600052603260045260246000fd5b60200260200101518383610dad565b8461083485600161131c565b8151811061085257634e487b7160e01b600052603260045260246000fd5b6020026020010181815250505050808061086b906113d1565b915050610775565b509392505050565b604080516001600160a01b0385811660248301528481166044830152606480830185905283518084039091018152608490920183526020820180516001600160e01b03166323b872dd60e01b17905291516000928392908816916108df919061120d565b6000604051808303816000865af19150503d806000811461091c576040519150601f19603f3d011682016040523d82523d6000602084013e610921565b606091505b509150915081801561094b57508051158061094b57508080602001905181019061094b9190611085565b6109a35760405162461bcd60e51b8152602060048201526024808201527f5472616e7366657248656c7065723a205452414e534645525f46524f4d5f46416044820152631253115160e21b606482015260840161019d565b505050505050565b600080836000815181106109cf57634e487b7160e01b600052603260045260246000fd5b6020026020010151846001815181106109f857634e487b7160e01b600052603260045260246000fd5b6020026020010151915091506000610a108383610e8c565b509050600086600181518110610a3657634e487b7160e01b600052603260045260246000fd5b60200260200101519050600080836001600160a01b0316866001600160a01b031614610a6457826000610a68565b6000835b6040805160008152602081019182905263022c0d9f60e01b90915291935091506001600160a01b037f0000000000000000000000000000000000000000000000000000000000000000169063022c0d9f90610acc90859085908c90602481016112ef565b600060405180830381600087803b158015610ae657600080fd5b505af1158015610afa573d6000803e3d6000fd5b50505050505050505050505050565b6060600282511015610b5d5760405162461bcd60e51b815260206004820152601e60248201527f556e697377617056324c6962726172793a20494e56414c49445f504154480000604482015260640161019d565b815167ffffffffffffffff811115610b8557634e487b7160e01b600052604160045260246000fd5b604051908082528060200260200182016040528015610bae578160200160208202803683370190505b509050828160018351610bc19190611373565b81518110610bdf57634e487b7160e01b600052603260045260246000fd5b602002602001018181525050600060018351610bfb9190611373565b90505b801561087357600080610c5d8786610c17600187611373565b81518110610c3557634e487b7160e01b600052603260045260246000fd5b60200260200101518786815181106107e557634e487b7160e01b600052603260045260246000fd5b91509150610c93848481518110610c8457634e487b7160e01b600052603260045260246000fd5b60200260200101518383610f84565b84610c9f600186611373565b81518110610cbd57634e487b7160e01b600052603260045260246000fd5b60200260200101818152505050508080610cd6906113ba565b915050610bfe565b6000806000610ced8585610e8c565b509050600080876001600160a01b0316630902f1ac6040518163ffffffff1660e01b815260040160606040518083038186803b158015610d2c57600080fd5b505afa158015610d40573d6000803e3d6000fd5b505050506040513d601f19601f82011682018060405250810190610d6491906110ac565b506001600160701b031691506001600160701b03169150826001600160a01b0316876001600160a01b031614610d9b578082610d9e565b81815b90999098509650505050505050565b6000808411610e125760405162461bcd60e51b815260206004820152602b60248201527f556e697377617056324c6962726172793a20494e53554646494349454e545f4960448201526a1394155517d05353d5539560aa1b606482015260840161019d565b600083118015610e225750600082115b610e3e5760405162461bcd60e51b815260040161019d906112a7565b6000610e4c856103e5611354565b90506000610e5a8483611354565b9050600082610e6b876103e8611354565b610e75919061131c565b9050610e818183611334565b979650505050505050565b600080826001600160a01b0316846001600160a01b03161415610eff5760405162461bcd60e51b815260206004820152602560248201527f556e697377617056324c6962726172793a204944454e544943414c5f41444452604482015264455353455360d81b606482015260840161019d565b826001600160a01b0316846001600160a01b031610610f1f578284610f22565b83835b90925090506001600160a01b038216610f7d5760405162461bcd60e51b815260206004820152601e60248201527f556e697377617056324c6962726172793a205a45524f5f414444524553530000604482015260640161019d565b9250929050565b6000808411610fea5760405162461bcd60e51b815260206004820152602c60248201527f556e697377617056324c6962726172793a20494e53554646494349454e545f4f60448201526b155514155517d05353d5539560a21b606482015260840161019d565b600083118015610ffa5750600082115b6110165760405162461bcd60e51b815260040161019d906112a7565b60006110228585611354565b61102e906103e8611354565b9050600061103c8685611373565b611048906103e5611354565b90506110548183611334565b61105f90600161131c565b9695505050505050565b80516001600160701b038116811461108057600080fd5b919050565b600060208284031215611096578081fd5b815180151581146110a5578182fd5b9392505050565b6000806000606084860312156110c0578182fd5b6110c984611069565b92506110d760208501611069565b9150604084015163ffffffff811681146110ef578182fd5b809150509250925092565b600080600080600060a08688031215611111578081fd5b853594506020860135935060408601356001600160a01b0381168114611135578182fd5b925060608601359150608086013567ffffffffffffffff80821115611158578283fd5b818801915088601f83011261116b578283fd5b81358181111561117d5761117d611402565b604051601f8201601f19908116603f011681019083821181831017156111a5576111a5611402565b816040528281528b60208487010111156111bd578586fd5b82602086016020830137856020848301015280955050505050509295509295909350565b600081518084526111f981602086016020860161138a565b601f01601f19169290920160200192915050565b6000825161121f81846020870161138a565b9190910192915050565b6001600160a01b03868116825285166020820152604081018490526060810183905260a060808201819052600090610e81908301846111e1565b6020808252825182820181905260009190848201906040850190845b8181101561129b5783518352928401929184019160010161127f565b50909695505050505050565b60208082526028908201527f556e697377617056324c6962726172793a20494e53554646494349454e545f4c604082015267495155494449545960c01b606082015260800190565b84815283602082015260018060a01b038316604082015260806060820152600061105f60808301846111e1565b6000821982111561132f5761132f6113ec565b500190565b60008261134f57634e487b7160e01b81526012600452602481fd5b500490565b600081600019048311821515161561136e5761136e6113ec565b500290565b600082821015611385576113856113ec565b500390565b60005b838110156113a557818101518382015260200161138d565b838111156113b4576000848401525b50505050565b6000816113c9576113c96113ec565b506000190190565b60006000198214156113e5576113e56113ec565b5060010190565b634e487b7160e01b600052601160045260246000fd5b634e487b7160e01b600052604160045260246000fdfea2646970667358221220f3f9cd8c5946d7ec9207bb4ea435769c08e53b675fe88034ed312b51528d5c8f64736f6c63430008040033",
  "linkReferences": {},
  "deployedLinkReferences": {}
}