{
  "_format": "hh-sol-artifact-1",
  "contractName": "PermitRouter",
  "sourceName": "contracts/PermitRouter.sol",
  "abi": [
    {
      "inputs": [
        {
          "internalType": "address",
          "name": "_pair",
          "type": "address"
        },
        {
          "internalType": "address",
          "name": "_token0",
          "type": "address"
        },
        {
          "internalType": "address",
          "name": "_token1",
          "type": "address"
        },
        {
          "internalType": "address",
          "name": "_token2",
          "type": "address"
        }
      ],
      "stateMutability": "nonpayable",
      "type": "constructor"
    },
    {
      "inputs": [],
      "name": "pair",
      "outputs": [
        {
          "internalType": "address",
          "name": "",
          "type": "address"
        }
      ],
      "stateMutability": "view",
      "type": "function"
    },
    {
      "inputs": [
        {
          "internalType": "uint256",
          "name": "amountIn",
          "type": "uint256"
        },
        {
          "internalType": "uint256",
          "name": "amountOutMin",
          "type": "uint256"
        },
        {
          "internalType": "address",
          "name": "to",
          "type": "address"
        },
        {
          "internalType": "uint256",
          "name": "deadline",
          "type": "uint256"
        },
        {
          "internalType": "bytes",
          "name": "signature",
          "type": "bytes"
        }
      ],
      "name": "swapExactTokensForTokens",
      "outputs": [
        {
          "internalType": "uint256[]",
          "name": "amounts",
          "type": "uint256[]"
        }
      ],
      "stateMutability": "nonpayable",
      "type": "function"
    },
    {
      "inputs": [
        {
          "internalType": "uint256",
          "name": "amountOut",
          "type": "uint256"
        },
        {
          "internalType": "uint256",
          "name": "amountInMax",
          "type": "uint256"
        },
        {
          "internalType": "address",
          "name": "to",
          "type": "address"
        },
        {
          "internalType": "uint256",
          "name": "deadline",
          "type": "uint256"
        },
        {
          "internalType": "bytes",
          "name": "signature",
          "type": "bytes"
        }
      ],
      "name": "swapTokensForExactTokens",
      "outputs": [
        {
          "internalType": "uint256[]",
          "name": "amounts",
          "type": "uint256[]"
        }
      ],
      "stateMutability": "nonpayable",
      "type": "function"
    },
    {
      "inputs": [],
      "name": "token0",
      "outputs": [
        {
          "internalType": "address",
          "name": "",
          "type": "address"
        }
      ],
      "stateMutability": "view",
      "type": "function"
    },
    {
      "inputs": [],
      "name": "token1",
      "outputs": [
        {
          "internalType": "address",
          "name": "",
          "type": "address"
        }
      ],
      "stateMutability": "view",
      "type": "function"
    },
    {
      "inputs": [],
      "name": "token2",
      "outputs": [
        {
          "internalType": "address",
          "name": "",
          "type": "address"
        }
      ],
      "stateMutability": "view",
      "type": "function"
    }
  ],
  "bytecode": "0x6101006040523480156200001257600080fd5b50604051620014ab380380620014ab833981016040819052620000359162000082565b6001600160601b0319606094851b811660805292841b831660a05290831b821660c05290911b1660e052620000df565b80516001600160a01b03811681146200007d57600080fd5b919050565b600080600080608085870312156200009957600080fd5b620000a48562000065565b9350620000b46020860162000065565b9250620000c46040860162000065565b9150620000d46060860162000065565b905092959194509250565b60805160601c60a05160601c60c05160601c60e05160601c61133c6200016f6000396000818160b00152818161021d01526104ed015260008181610131015281816101c90152610499015260008181606c0152818161033d015281816103b101526105fd01526000818160f701528181610274015281816103d30152818161054401526109b2015261133c6000f3fe608060405234801561001057600080fd5b50600436106100625760003560e01c80630dfe16811461006757806325be124e146100ab578063480bfcaa146100d2578063a8aa1b31146100f2578063c155218614610119578063d21220a71461012c575b600080fd5b61008e7f000000000000000000000000000000000000000000000000000000000000000081565b6040516001600160a01b0390911681526020015b60405180910390f35b61008e7f000000000000000000000000000000000000000000000000000000000000000081565b6100e56100e0366004610fca565b610153565b6040516100a29190611139565b61008e7f000000000000000000000000000000000000000000000000000000000000000081565b6100e5610127366004610fca565b610428565b61008e7f000000000000000000000000000000000000000000000000000000000000000081565b606082428110156101a65760405162461bcd60e51b8152602060048201526018602482015277155b9a5cddd85c158c949bdd5d195c8e881156141254915160421b60448201526064015b60405180910390fd5b6040805160028082526060820183526000926020830190803683370190505090507f0000000000000000000000000000000000000000000000000000000000000000816000815181106101fb576101fb6112da565b60200260200101906001600160a01b031690816001600160a01b0316815250507f00000000000000000000000000000000000000000000000000000000000000008160018151811061024f5761024f6112da565b60200260200101906001600160a01b031690816001600160a01b03168152505061029a7f0000000000000000000000000000000000000000000000000000000000000000898361063a565b92508683600185516102ac919061124b565b815181106102bc576102bc6112da565b602002602001015110156103265760405162461bcd60e51b815260206004820152602b60248201527f556e69737761705632526f757465723a20494e53554646494349454e545f4f5560448201526a1514155517d05353d5539560aa1b606482015260840161019d565b604051639fd5a6cf60e01b81526001600160a01b037f00000000000000000000000000000000000000000000000000000000000000001690639fd5a6cf9061037a90339030908d908b908b906004016110ff565b600060405180830381600087803b15801561039457600080fd5b505af11580156103a8573d6000803e3d6000fd5b505050506104127f0000000000000000000000000000000000000000000000000000000000000000337f000000000000000000000000000000000000000000000000000000000000000086600081518110610405576104056112da565b60200260200101516107c5565b61041d8382886108f5565b505095945050505050565b606082428110156104765760405162461bcd60e51b8152602060048201526018602482015277155b9a5cddd85c158c949bdd5d195c8e881156141254915160421b604482015260640161019d565b6040805160028082526060820183526000926020830190803683370190505090507f0000000000000000000000000000000000000000000000000000000000000000816000815181106104cb576104cb6112da565b60200260200101906001600160a01b031690816001600160a01b0316815250507f00000000000000000000000000000000000000000000000000000000000000008160018151811061051f5761051f6112da565b60200260200101906001600160a01b031690816001600160a01b03168152505061056a7f00000000000000000000000000000000000000000000000000000000000000008983610a29565b92508683600081518110610580576105806112da565b602002602001015111156105e65760405162461bcd60e51b815260206004820152602760248201527f556e69737761705632526f757465723a204558434553534956455f494e50555460448201526617d05353d5539560ca1b606482015260840161019d565b604051639fd5a6cf60e01b81526001600160a01b037f00000000000000000000000000000000000000000000000000000000000000001690639fd5a6cf9061037a90339030908c908b908b906004016110ff565b606060028251101561068e5760405162461bcd60e51b815260206004820152601e60248201527f556e697377617056324c6962726172793a20494e56414c49445f504154480000604482015260640161019d565b815167ffffffffffffffff8111156106a8576106a86112f0565b6040519080825280602002602001820160405280156106d1578160200160208202803683370190505b50905082816000815181106106e8576106e86112da565b60200260200101818152505060005b60018351610705919061124b565b8110156107bd5760008061075887868581518110610725576107256112da565b60200260200101518786600161073b91906111f2565b8151811061074b5761074b6112da565b6020026020010151610baa565b91509150610780848481518110610771576107716112da565b60200260200101518383610c79565b8461078c8560016111f2565b8151811061079c5761079c6112da565b602002602001018181525050505080806107b5906112a9565b9150506106f7565b509392505050565b604080516001600160a01b0385811660248301528481166044830152606480830185905283518084039091018152608490920183526020820180516001600160e01b03166323b872dd60e01b179052915160009283929088169161082991906110e3565b6000604051808303816000865af19150503d8060008114610866576040519150601f19603f3d011682016040523d82523d6000602084013e61086b565b606091505b50915091508180156108955750805115806108955750808060200190518101906108959190610f51565b6108ed5760405162461bcd60e51b8152602060048201526024808201527f5472616e7366657248656c7065723a205452414e534645525f46524f4d5f46416044820152631253115160e21b606482015260840161019d565b505050505050565b6000808360008151811061090b5761090b6112da565b602002602001015184600181518110610926576109266112da565b602002602001015191509150600061093e8383610d58565b509050600086600181518110610956576109566112da565b60200260200101519050600080836001600160a01b0316866001600160a01b03161461098457826000610988565b6000835b6040805160008152602081019182905263022c0d9f60e01b90915291935091506001600160a01b037f0000000000000000000000000000000000000000000000000000000000000000169063022c0d9f906109ec90859085908c90602481016111c5565b600060405180830381600087803b158015610a0657600080fd5b505af1158015610a1a573d6000803e3d6000fd5b50505050505050505050505050565b6060600282511015610a7d5760405162461bcd60e51b815260206004820152601e60248201527f556e697377617056324c6962726172793a20494e56414c49445f504154480000604482015260640161019d565b815167ffffffffffffffff811115610a9757610a976112f0565b604051908082528060200260200182016040528015610ac0578160200160208202803683370190505b509050828160018351610ad3919061124b565b81518110610ae357610ae36112da565b602002602001018181525050600060018351610aff919061124b565b90505b80156107bd57600080610b458786610b1b60018761124b565b81518110610b2b57610b2b6112da565b602002602001015187868151811061074b5761074b6112da565b91509150610b6d848481518110610b5e57610b5e6112da565b60200260200101518383610e50565b84610b7960018661124b565b81518110610b8957610b896112da565b60200260200101818152505050508080610ba290611292565b915050610b02565b6000806000610bb98585610d58565b509050600080876001600160a01b0316630902f1ac6040518163ffffffff1660e01b815260040160606040518083038186803b158015610bf857600080fd5b505afa158015610c0c573d6000803e3d6000fd5b505050506040513d601f19601f82011682018060405250810190610c309190610f7a565b506001600160701b031691506001600160701b03169150826001600160a01b0316876001600160a01b031614610c67578082610c6a565b81815b90999098509650505050505050565b6000808411610cde5760405162461bcd60e51b815260206004820152602b60248201527f556e697377617056324c6962726172793a20494e53554646494349454e545f4960448201526a1394155517d05353d5539560aa1b606482015260840161019d565b600083118015610cee5750600082115b610d0a5760405162461bcd60e51b815260040161019d9061117d565b6000610d18856103e561122c565b90506000610d26848361122c565b9050600082610d37876103e861122c565b610d4191906111f2565b9050610d4d818361120a565b979650505050505050565b600080826001600160a01b0316846001600160a01b03161415610dcb5760405162461bcd60e51b815260206004820152602560248201527f556e697377617056324c6962726172793a204944454e544943414c5f41444452604482015264455353455360d81b606482015260840161019d565b826001600160a01b0316846001600160a01b031610610deb578284610dee565b83835b90925090506001600160a01b038216610e495760405162461bcd60e51b815260206004820152601e60248201527f556e697377617056324c6962726172793a205a45524f5f414444524553530000604482015260640161019d565b9250929050565b6000808411610eb65760405162461bcd60e51b815260206004820152602c60248201527f556e697377617056324c6962726172793a20494e53554646494349454e545f4f60448201526b155514155517d05353d5539560a21b606482015260840161019d565b600083118015610ec65750600082115b610ee25760405162461bcd60e51b815260040161019d9061117d565b6000610eee858561122c565b610efa906103e861122c565b90506000610f08868561124b565b610f14906103e561122c565b9050610f20818361120a565b610f2b9060016111f2565b9695505050505050565b80516001600160701b0381168114610f4c57600080fd5b919050565b600060208284031215610f6357600080fd5b81518015158114610f7357600080fd5b9392505050565b600080600060608486031215610f8f57600080fd5b610f9884610f35565b9250610fa660208501610f35565b9150604084015163ffffffff81168114610fbf57600080fd5b809150509250925092565b600080600080600060a08688031215610fe257600080fd5b853594506020860135935060408601356001600160a01b038116811461100757600080fd5b925060608601359150608086013567ffffffffffffffff8082111561102b57600080fd5b818801915088601f83011261103f57600080fd5b813581811115611051576110516112f0565b604051601f8201601f19908116603f01168101908382118183101715611079576110796112f0565b816040528281528b602084870101111561109257600080fd5b8260208601602083013760006020848301015280955050505050509295509295909350565b600081518084526110cf816020860160208601611262565b601f01601f19169290920160200192915050565b600082516110f5818460208701611262565b9190910192915050565b6001600160a01b03868116825285166020820152604081018490526060810183905260a060808201819052600090610d4d908301846110b7565b6020808252825182820181905260009190848201906040850190845b8181101561117157835183529284019291840191600101611155565b50909695505050505050565b60208082526028908201527f556e697377617056324c6962726172793a20494e53554646494349454e545f4c604082015267495155494449545960c01b606082015260800190565b84815283602082015260018060a01b0383166040820152608060608201526000610f2b60808301846110b7565b60008219821115611205576112056112c4565b500190565b60008261122757634e487b7160e01b600052601260045260246000fd5b500490565b6000816000190483118215151615611246576112466112c4565b500290565b60008282101561125d5761125d6112c4565b500390565b60005b8381101561127d578181015183820152602001611265565b8381111561128c576000848401525b50505050565b6000816112a1576112a16112c4565b506000190190565b60006000198214156112bd576112bd6112c4565b5060010190565b634e487b7160e01b600052601160045260246000fd5b634e487b7160e01b600052603260045260246000fd5b634e487b7160e01b600052604160045260246000fdfea26469706673582212206563613be47541afad3f42a225ed417b326433b584bf7f768ff93c8f2b5d797864736f6c63430008070033",
  "linkReferences": {},
  "deployedLinkReferences": {}
}