{
  "_format": "hh-sol-artifact-1",
  "contractName": "EIP712MetaTransaction",
  "sourceName": "contracts/GasSwap.sol",
  "abi": [
    {
      "inputs": [
        {
          "internalType": "string",
          "name": "name",
          "type": "string"
        },
        {
          "internalType": "string",
          "name": "version",
          "type": "string"
        }
      ],
      "stateMutability": "nonpayable",
      "type": "constructor"
    },
    {
      "anonymous": false,
      "inputs": [
        {
          "indexed": false,
          "internalType": "address",
          "name": "userAddress",
          "type": "address"
        },
        {
          "indexed": false,
          "internalType": "address payable",
          "name": "relayerAddress",
          "type": "address"
        },
        {
          "indexed": false,
          "internalType": "bytes",
          "name": "functionSignature",
          "type": "bytes"
        }
      ],
      "name": "MetaTransactionExecuted",
      "type": "event"
    },
    {
      "inputs": [
        {
          "internalType": "address",
          "name": "userAddress",
          "type": "address"
        },
        {
          "internalType": "bytes",
          "name": "functionSignature",
          "type": "bytes"
        },
        {
          "internalType": "bytes32",
          "name": "sigR",
          "type": "bytes32"
        },
        {
          "internalType": "bytes32",
          "name": "sigS",
          "type": "bytes32"
        },
        {
          "internalType": "uint8",
          "name": "sigV",
          "type": "uint8"
        }
      ],
      "name": "executeMetaTransaction",
      "outputs": [
        {
          "internalType": "bytes",
          "name": "",
          "type": "bytes"
        }
      ],
      "stateMutability": "payable",
      "type": "function"
    },
    {
      "inputs": [
        {
          "internalType": "address",
          "name": "user",
          "type": "address"
        }
      ],
      "name": "getNonce",
      "outputs": [
        {
          "internalType": "uint256",
          "name": "nonce",
          "type": "uint256"
        }
      ],
      "stateMutability": "view",
      "type": "function"
    }
  ],
  "bytecode": "0x608060405234801561001057600080fd5b506040516109d33803806109d383398101604081905261002f91610175565b81816040518060800160405280604f8152602001610984604f91398051906020012082805190602001208280519060200120306100706100c560201b60201c565b60408051602081019690965285019390935260608401919091526001600160a01b0316608083015260a082015260c00160405160208183030381529060405280519060200120600081905550505050506101ee565b4690565b600082601f8301126100da57600080fd5b81516001600160401b03808211156100f4576100f46101d8565b604051601f8301601f19908116603f0116810190828211818310171561011c5761011c6101d8565b8160405283815260209250868385880101111561013857600080fd5b600091505b8382101561015a578582018301518183018401529082019061013d565b8382111561016b5760008385830101525b9695505050505050565b6000806040838503121561018857600080fd5b82516001600160401b038082111561019f57600080fd5b6101ab868387016100c9565b935060208501519150808211156101c157600080fd5b506101ce858286016100c9565b9150509250929050565b634e487b7160e01b600052604160045260246000fd5b610787806101fd6000396000f3fe6080604052600436106100295760003560e01c80630c53c51c1461002e5780632d0335ab14610057575b600080fd5b61004161003c3660046104f5565b61009b565b60405161004e919061068f565b60405180910390f35b34801561006357600080fd5b5061008d6100723660046104d3565b6001600160a01b031660009081526001602052604090205490565b60405190815260200161004e565b606060006100a886610308565b90506000356001600160e01b031990811690821614156101355760405162461bcd60e51b815260206004820152603d60248201527f66756e6374696f6e5369676e61747572652063616e206e6f74206265206f662060448201527f657865637574654d6574615472616e73616374696f6e206d6574686f6400000060648201526084015b60405180910390fd5b604080516060810182526001600160a01b038916600081815260016020908152908490205483528201529081018790526101728882888888610324565b6101c85760405162461bcd60e51b815260206004820152602160248201527f5369676e657220616e64207369676e617475726520646f206e6f74206d6174636044820152600d60fb1b606482015260840161012c565b6001600160a01b038816600090815260016020819052604082208054919290916101f39084906106a2565b909155505060405160009081903090610212908b908d90602001610623565b60408051601f198184030181529082905261022c91610607565b6000604051808303816000865af19150503d8060008114610269576040519150601f19603f3d011682016040523d82523d6000602084013e61026e565b606091505b5091509150816102c05760405162461bcd60e51b815260206004820152601c60248201527f46756e6374696f6e2063616c6c206e6f74207375636365737366756c00000000604482015260640161012c565b7f5845892132946850460bff5a0083f71031bc5bf9aadcd40f1de79423eac9b10b8a338b6040516102f39392919061065a565b60405180910390a19998505050505050505050565b600081516000141561031c57506000919050565b506020015190565b600080600161033a61033588610400565b61047d565b6040805160008152602081018083529290925260ff861690820152606081018790526080810186905260a0016020604051602081039080840390855afa158015610388573d6000803e3d6000fd5b5050604051601f1901519150506001600160a01b0381166103df5760405162461bcd60e51b8152602060048201526011602482015270496e76616c6964207369676e617475726560781b604482015260640161012c565b866001600160a01b0316816001600160a01b03161491505095945050505050565b600060405180608001604052806043815260200161070f6043913980516020918201208351848301516040808701518051908601209051610460950193845260208401929092526001600160a01b03166040830152606082015260800190565b604051602081830303815290604052805190602001209050919050565b6000805460405161190160f01b6020820152602281019190915260428101839052606201610460565b80356001600160a01b03811681146104bd57600080fd5b919050565b803560ff811681146104bd57600080fd5b6000602082840312156104e557600080fd5b6104ee826104a6565b9392505050565b600080600080600060a0868803121561050d57600080fd5b610516866104a6565b9450602086013567ffffffffffffffff8082111561053357600080fd5b818801915088601f83011261054757600080fd5b813581811115610559576105596106f8565b604051601f8201601f19908116603f01168101908382118183101715610581576105816106f8565b816040528281528b602084870101111561059a57600080fd5b82602086016020830137600060208483010152809850505050505060408601359250606086013591506105cf608087016104c2565b90509295509295909350565b600081518084526105f38160208601602086016106c8565b601f01601f19169290920160200192915050565b600082516106198184602087016106c8565b9190910192915050565b600083516106358184602088016106c8565b60609390931b6bffffffffffffffffffffffff19169190920190815260140192915050565b6001600160a01b03848116825283166020820152606060408201819052600090610686908301846105db565b95945050505050565b6020815260006104ee60208301846105db565b600082198211156106c357634e487b7160e01b600052601160045260246000fd5b500190565b60005b838110156106e35781810151838201526020016106cb565b838111156106f2576000848401525b50505050565b634e487b7160e01b600052604160045260246000fdfe4d6574615472616e73616374696f6e2875696e74323536206e6f6e63652c616464726573732066726f6d2c62797465732066756e6374696f6e5369676e617475726529a2646970667358221220baa015887542ea654581bf4530ed293f291c720827a005d8bc766e41707580c164736f6c63430008070033454950373132446f6d61696e28737472696e67206e616d652c737472696e672076657273696f6e2c6164647265737320766572696679696e67436f6e74726163742c627974657333322073616c7429",
  "linkReferences": {},
  "deployedLinkReferences": {}
}