{
  "_format": "hh-sol-artifact-1",
  "contractName": "EIP712MetaTransaction",
  "sourceName": "contracts/GasSwap.sol",
  "abi": [
    {
      "inputs": [
        {
          "internalType": "string",
          "name": "name",
          "type": "string"
        },
        {
          "internalType": "string",
          "name": "version",
          "type": "string"
        }
      ],
      "stateMutability": "nonpayable",
      "type": "constructor"
    },
    {
      "anonymous": false,
      "inputs": [
        {
          "indexed": false,
          "internalType": "address",
          "name": "userAddress",
          "type": "address"
        },
        {
          "indexed": false,
          "internalType": "address payable",
          "name": "relayerAddress",
          "type": "address"
        },
        {
          "indexed": false,
          "internalType": "bytes",
          "name": "functionSignature",
          "type": "bytes"
        }
      ],
      "name": "MetaTransactionExecuted",
      "type": "event"
    },
    {
      "inputs": [
        {
          "internalType": "address",
          "name": "userAddress",
          "type": "address"
        },
        {
          "internalType": "bytes",
          "name": "functionSignature",
          "type": "bytes"
        },
        {
          "internalType": "bytes32",
          "name": "sigR",
          "type": "bytes32"
        },
        {
          "internalType": "bytes32",
          "name": "sigS",
          "type": "bytes32"
        },
        {
          "internalType": "uint8",
          "name": "sigV",
          "type": "uint8"
        }
      ],
      "name": "executeMetaTransaction",
      "outputs": [
        {
          "internalType": "bytes",
          "name": "",
          "type": "bytes"
        }
      ],
      "stateMutability": "payable",
      "type": "function"
    },
    {
      "inputs": [
        {
          "internalType": "address",
          "name": "user",
          "type": "address"
        }
      ],
      "name": "getNonce",
      "outputs": [
        {
          "internalType": "uint256",
          "name": "nonce",
          "type": "uint256"
        }
      ],
      "stateMutability": "view",
      "type": "function"
    }
  ],
  "bytecode": "0x608060405234801561001057600080fd5b506040516109be3803806109be83398101604081905261002f91610184565b81816040518060800160405280604f815260200161096f604f91398051906020012082805190602001208280519060200120306100706100c560201b60201c565b60408051602081019690965285019390935260608401919091526001600160a01b0316608083015260a082015260c00160405160208183030381529060405280519060200120600081905550505050506101e7565b4690565b634e487b7160e01b600052604160045260246000fd5b600082601f8301126100f057600080fd5b81516001600160401b038082111561010a5761010a6100c9565b604051601f8301601f19908116603f01168101908282118183101715610132576101326100c9565b8160405283815260209250868385880101111561014e57600080fd5b600091505b838210156101705785820183015181830184015290820190610153565b600093810190920192909252949350505050565b6000806040838503121561019757600080fd5b82516001600160401b03808211156101ae57600080fd5b6101ba868387016100df565b935060208501519150808211156101d057600080fd5b506101dd858286016100df565b9150509250929050565b610779806101f66000396000f3fe6080604052600436106100295760003560e01c80630c53c51c1461002e5780632d0335ab14610057575b600080fd5b61004161003c3660046104e6565b61009b565b60405161004e919061061c565b60405180910390f35b34801561006357600080fd5b5061008d610072366004610636565b6001600160a01b031660009081526001602052604090205490565b60405190815260200161004e565b606060006100a886610306565b90506001600160e01b03196000358116908216036101335760405162461bcd60e51b815260206004820152603d60248201527f66756e6374696f6e5369676e61747572652063616e206e6f74206265206f662060448201527f657865637574654d6574615472616e73616374696f6e206d6574686f6400000060648201526084015b60405180910390fd5b604080516060810182526001600160a01b038916600081815260016020908152908490205483528201529081018790526101708882888888610321565b6101c65760405162461bcd60e51b815260206004820152602160248201527f5369676e657220616e64207369676e617475726520646f206e6f74206d6174636044820152600d60fb1b606482015260840161012a565b6001600160a01b038816600090815260016020819052604082208054919290916101f1908490610651565b909155505060405160009081903090610210908b908d90602001610678565b60408051601f198184030181529082905261022a916106af565b6000604051808303816000865af19150503d8060008114610267576040519150601f19603f3d011682016040523d82523d6000602084013e61026c565b606091505b5091509150816102be5760405162461bcd60e51b815260206004820152601c60248201527f46756e6374696f6e2063616c6c206e6f74207375636365737366756c00000000604482015260640161012a565b7f5845892132946850460bff5a0083f71031bc5bf9aadcd40f1de79423eac9b10b8a338b6040516102f1939291906106cb565b60405180910390a19998505050505050505050565b6000815160000361031957506000919050565b506020015190565b6000806001610337610332886103fd565b61047a565b6040805160008152602081018083529290925260ff861690820152606081018790526080810186905260a0016020604051602081039080840390855afa158015610385573d6000803e3d6000fd5b5050604051601f1901519150506001600160a01b0381166103dc5760405162461bcd60e51b8152602060048201526011602482015270496e76616c6964207369676e617475726560781b604482015260640161012a565b866001600160a01b0316816001600160a01b03161491505095945050505050565b6000604051806080016040528060438152602001610701604391398051602091820120835184830151604080870151805190860120905161045d950193845260208401929092526001600160a01b03166040830152606082015260800190565b604051602081830303815290604052805190602001209050919050565b6000805460405161190160f01b602082015260228101919091526042810183905260620161045d565b80356001600160a01b03811681146104ba57600080fd5b919050565b634e487b7160e01b600052604160045260246000fd5b803560ff811681146104ba57600080fd5b600080600080600060a086880312156104fe57600080fd5b610507866104a3565b9450602086013567ffffffffffffffff8082111561052457600080fd5b818801915088601f83011261053857600080fd5b81358181111561054a5761054a6104bf565b604051601f8201601f19908116603f01168101908382118183101715610572576105726104bf565b816040528281528b602084870101111561058b57600080fd5b82602086016020830137600060208483010152809850505050505060408601359250606086013591506105c0608087016104d5565b90509295509295909350565b60005b838110156105e75781810151838201526020016105cf565b50506000910152565b600081518084526106088160208601602086016105cc565b601f01601f19169290920160200192915050565b60208152600061062f60208301846105f0565b9392505050565b60006020828403121561064857600080fd5b61062f826104a3565b8082018082111561067257634e487b7160e01b600052601160045260246000fd5b92915050565b6000835161068a8184602088016105cc565b60609390931b6bffffffffffffffffffffffff19169190920190815260140192915050565b600082516106c18184602087016105cc565b9190910192915050565b6001600160a01b038481168252831660208201526060604082018190526000906106f7908301846105f0565b9594505050505056fe4d6574615472616e73616374696f6e2875696e74323536206e6f6e63652c616464726573732066726f6d2c62797465732066756e6374696f6e5369676e617475726529a26469706673582212204cc4622c4faa1e707f7ba121853b175d93815a21140c31a9820b980a0283760a64736f6c63430008130033454950373132446f6d61696e28737472696e67206e616d652c737472696e672076657273696f6e2c6164647265737320766572696679696e67436f6e74726163742c627974657333322073616c7429",
  "linkReferences": {},
  "deployedLinkReferences": {}
}