{
  "_format": "hh-sol-artifact-1",
  "contractName": "GasSwap",
  "sourceName": "contracts/GasSwap.sol",
  "abi": [
    {
      "inputs": [
        {
          "internalType": "address",
          "name": "_router",
          "type": "address"
        }
      ],
      "stateMutability": "nonpayable",
      "type": "constructor"
    },
    {
      "anonymous": false,
      "inputs": [
        {
          "indexed": false,
          "internalType": "address",
          "name": "userAddress",
          "type": "address"
        },
        {
          "indexed": false,
          "internalType": "address payable",
          "name": "relayerAddress",
          "type": "address"
        },
        {
          "indexed": false,
          "internalType": "bytes",
          "name": "functionSignature",
          "type": "bytes"
        }
      ],
      "name": "MetaTransactionExecuted",
      "type": "event"
    },
    {
      "anonymous": false,
      "inputs": [
        {
          "indexed": true,
          "internalType": "address",
          "name": "previousOwner",
          "type": "address"
        },
        {
          "indexed": true,
          "internalType": "address",
          "name": "newOwner",
          "type": "address"
        }
      ],
      "name": "OwnershipTransferred",
      "type": "event"
    },
    {
      "inputs": [],
      "name": "WGMLR",
      "outputs": [
        {
          "internalType": "address",
          "name": "",
          "type": "address"
        }
      ],
      "stateMutability": "view",
      "type": "function"
    },
    {
      "inputs": [
        {
          "internalType": "address",
          "name": "newFeeAddress",
          "type": "address"
        }
      ],
      "name": "changeFeeAddress",
      "outputs": [],
      "stateMutability": "nonpayable",
      "type": "function"
    },
    {
      "inputs": [
        {
          "internalType": "uint256",
          "name": "newFeePercent",
          "type": "uint256"
        }
      ],
      "name": "changeFeePercent",
      "outputs": [],
      "stateMutability": "nonpayable",
      "type": "function"
    },
    {
      "inputs": [
        {
          "internalType": "address",
          "name": "newTarget",
          "type": "address"
        }
      ],
      "name": "changeRouter",
      "outputs": [],
      "stateMutability": "nonpayable",
      "type": "function"
    },
    {
      "inputs": [
        {
          "internalType": "address",
          "name": "userAddress",
          "type": "address"
        },
        {
          "internalType": "bytes",
          "name": "functionSignature",
          "type": "bytes"
        },
        {
          "internalType": "bytes32",
          "name": "sigR",
          "type": "bytes32"
        },
        {
          "internalType": "bytes32",
          "name": "sigS",
          "type": "bytes32"
        },
        {
          "internalType": "uint8",
          "name": "sigV",
          "type": "uint8"
        }
      ],
      "name": "executeMetaTransaction",
      "outputs": [
        {
          "internalType": "bytes",
          "name": "",
          "type": "bytes"
        }
      ],
      "stateMutability": "payable",
      "type": "function"
    },
    {
      "inputs": [],
      "name": "feeAddress",
      "outputs": [
        {
          "internalType": "address",
          "name": "",
          "type": "address"
        }
      ],
      "stateMutability": "view",
      "type": "function"
    },
    {
      "inputs": [],
      "name": "feePercent",
      "outputs": [
        {
          "internalType": "uint256",
          "name": "",
          "type": "uint256"
        }
      ],
      "stateMutability": "view",
      "type": "function"
    },
    {
      "inputs": [
        {
          "internalType": "address",
          "name": "user",
          "type": "address"
        }
      ],
      "name": "getNonce",
      "outputs": [
        {
          "internalType": "uint256",
          "name": "nonce",
          "type": "uint256"
        }
      ],
      "stateMutability": "view",
      "type": "function"
    },
    {
      "inputs": [],
      "name": "owner",
      "outputs": [
        {
          "internalType": "address",
          "name": "",
          "type": "address"
        }
      ],
      "stateMutability": "view",
      "type": "function"
    },
    {
      "inputs": [],
      "name": "renounceOwnership",
      "outputs": [],
      "stateMutability": "nonpayable",
      "type": "function"
    },
    {
      "inputs": [],
      "name": "router",
      "outputs": [
        {
          "internalType": "contract IRouter",
          "name": "",
          "type": "address"
        }
      ],
      "stateMutability": "view",
      "type": "function"
    },
    {
      "inputs": [
        {
          "internalType": "bytes",
          "name": "swapCallData",
          "type": "bytes"
        }
      ],
      "name": "swap",
      "outputs": [
        {
          "internalType": "uint256",
          "name": "",
          "type": "uint256"
        }
      ],
      "stateMutability": "nonpayable",
      "type": "function"
    },
    {
      "inputs": [
        {
          "internalType": "address",
          "name": "",
          "type": "address"
        }
      ],
      "name": "tokenWhitelist",
      "outputs": [
        {
          "internalType": "bool",
          "name": "",
          "type": "bool"
        }
      ],
      "stateMutability": "view",
      "type": "function"
    },
    {
      "inputs": [
        {
          "internalType": "address",
          "name": "newOwner",
          "type": "address"
        }
      ],
      "name": "transferOwnership",
      "outputs": [],
      "stateMutability": "nonpayable",
      "type": "function"
    },
    {
      "inputs": [
        {
          "internalType": "address",
          "name": "tokenAddress",
          "type": "address"
        },
        {
          "internalType": "bool",
          "name": "whitelisted",
          "type": "bool"
        }
      ],
      "name": "whitelistToken",
      "outputs": [],
      "stateMutability": "nonpayable",
      "type": "function"
    },
    {
      "inputs": [
        {
          "internalType": "uint256",
          "name": "amount",
          "type": "uint256"
        }
      ],
      "name": "withdrawETH",
      "outputs": [],
      "stateMutability": "nonpayable",
      "type": "function"
    },
    {
      "inputs": [
        {
          "internalType": "contract IToken",
          "name": "token",
          "type": "address"
        },
        {
          "internalType": "uint256",
          "name": "amount",
          "type": "uint256"
        }
      ],
      "name": "withdrawToken",
      "outputs": [],
      "stateMutability": "nonpayable",
      "type": "function"
    },
    {
      "stateMutability": "payable",
      "type": "receive"
    }
  ],
  "bytecode": "0x60a060405273acc15dc74880c9944775448304b263d191c6077f60805260646005553480156200002e57600080fd5b506040516200190e3803806200190e8339810160408190526200005191620001b8565b604051806040016040528060078152602001660476173537761760cc1b815250604051806040016040528060018152602001601960f91b8152508181620000a7620000a16200016060201b60201c565b62000164565b6040518060800160405280604f8152602001620018bf604f9139805190602001208280519060200120828051906020012030620000e9620001b460201b60201c565b60408051602081019690965285019390935260608401919091526001600160a01b0316608083015260a082015260c00160408051808303601f1901815291905280516020909101206001555050600380546001600160a01b0319166001600160a01b03949094169390931790925550620001ea9050565b3390565b600080546001600160a01b038381166001600160a01b0319831681178455604051919092169283917f8be0079c531659141344cd1fd0a4f28419497f9722a3daafe3b4186f6b6457e09190a35050565b4690565b600060208284031215620001cb57600080fd5b81516001600160a01b0381168114620001e357600080fd5b9392505050565b6080516116b26200020d60003960008181610365015261083801526116b26000f3fe6080604052600436106101025760003560e01c8063715018a6116100955780639e281a98116100645780639e281a9814610333578063a1b0ee9814610353578063f14210a614610387578063f2fde38b146103a7578063f887ea40146103c757600080fd5b8063715018a6146102aa578063753d7563146102bf5780637fd6f15c146102ff5780638da5cb5b1461031557600080fd5b8063340ac20f116100d1578063340ac20f1461021257806334eddf3e146102325780634127535814610252578063627dd56a1461028a57600080fd5b80630c53c51c146101655780630ffb1d8b1461018e578063285e1406146101ae5780632d0335ab146101ce57600080fd5b36610160576101186101126103e7565b3b151590565b61015e5760405162461bcd60e51b815260206004820152601260248201527114915591549517d153d057d1115413d4d25560721b60448201526064015b60405180910390fd5b005b600080fd5b610178610173366004611094565b610443565b60405161018591906111b0565b60405180910390f35b34801561019a57600080fd5b5061015e6101a93660046111d8565b6106a7565b3480156101ba57600080fd5b5061015e6101c9366004611211565b610721565b3480156101da57600080fd5b506102046101e9366004611211565b6001600160a01b031660009081526002602052604090205490565b604051908152602001610185565b34801561021e57600080fd5b5061015e61022d366004611211565b61074b565b34801561023e57600080fd5b5061015e61024d36600461122e565b6107bc565b34801561025e57600080fd5b50600454610272906001600160a01b031681565b6040516001600160a01b039091168152602001610185565b34801561029657600080fd5b506102046102a5366004611247565b610812565b3480156102b657600080fd5b5061015e610c90565b3480156102cb57600080fd5b506102ef6102da366004611211565b60066020526000908152604090205460ff1681565b6040519015158152602001610185565b34801561030b57600080fd5b5061020460055481565b34801561032157600080fd5b506000546001600160a01b0316610272565b34801561033f57600080fd5b5061015e61034e3660046112b9565b610ca4565b34801561035f57600080fd5b506102727f000000000000000000000000000000000000000000000000000000000000000081565b34801561039357600080fd5b5061015e6103a236600461122e565b610d22565b3480156103b357600080fd5b5061015e6103c2366004611211565b610d5b565b3480156103d357600080fd5b50600354610272906001600160a01b031681565b600030330361043d57600080368080601f0160208091040260200160405190810160405280939291908181526020018383808284376000920191909152505050503601516001600160a01b031691506104409050565b50335b90565b6060600061045086610dd4565b90506001600160e01b03196000358116908216036104d65760405162461bcd60e51b815260206004820152603d60248201527f66756e6374696f6e5369676e61747572652063616e206e6f74206265206f662060448201527f657865637574654d6574615472616e73616374696f6e206d6574686f640000006064820152608401610155565b604080516060810182526001600160a01b038916600081815260026020908152908490205483528201529081018790526105138882888888610def565b6105695760405162461bcd60e51b815260206004820152602160248201527f5369676e657220616e64207369676e617475726520646f206e6f74206d6174636044820152600d60fb1b6064820152608401610155565b6001600160a01b03881660009081526002602052604081208054600192906105929084906112fb565b9091555050604051600090819030906105b1908b908d9060200161130e565b60408051601f19818403018152908290526105cb91611345565b6000604051808303816000865af19150503d8060008114610608576040519150601f19603f3d011682016040523d82523d6000602084013e61060d565b606091505b50915091508161065f5760405162461bcd60e51b815260206004820152601c60248201527f46756e6374696f6e2063616c6c206e6f74207375636365737366756c000000006044820152606401610155565b7f5845892132946850460bff5a0083f71031bc5bf9aadcd40f1de79423eac9b10b8a338b60405161069293929190611361565b60405180910390a19998505050505050505050565b6106af610ecb565b813b6106f65760405162461bcd60e51b81526020600482015260166024820152754e4f5f434f4e54524143545f41545f4144445245535360501b6044820152606401610155565b6001600160a01b03919091166000908152600660205260409020805460ff1916911515919091179055565b610729610ecb565b600480546001600160a01b0319166001600160a01b0392909216919091179055565b610753610ecb565b803b61079a5760405162461bcd60e51b81526020600482015260166024820152754e4f5f434f4e54524143545f41545f4144445245535360501b6044820152606401610155565b600380546001600160a01b0319166001600160a01b0392909216919091179055565b6107c4610ecb565b6127106005541061080d5760405162461bcd60e51b81526020600482015260136024820152721253959053125117d1915157d4115490d15395606a1b6044820152606401610155565b600555565b600080808080808080610827898b018b6113c5565b9750975097509750509650965096507f00000000000000000000000000000000000000000000000000000000000000006001600160a01b0316856001875161086f91906114b8565b8151811061087f5761087f6114cb565b60200260200101516001600160a01b0316146108d45760405162461bcd60e51b815260206004820152601460248201527324a72b20a624a22fa7aaaa282aaa2faa27a5a2a760611b6044820152606401610155565b60066000866000815181106108eb576108eb6114cb565b6020908102919091018101516001600160a01b031682528101919091526040016000205460ff1615156001146109595760405162461bcd60e51b815260206004820152601360248201527224a72b20a624a22fa4a7282aaa2faa27a5a2a760691b6044820152606401610155565b60008560008151811061096e5761096e6114cb565b60200260200101519050806001600160a01b031663d505accf61098f6103e7565b6040516001600160e01b031960e084901b1681526001600160a01b039091166004820152306024820152604481018b90526064810188905260ff8716608482015260a4810186905260c4810185905260e401600060405180830381600087803b1580156109fb57600080fd5b505af1158015610a0f573d6000803e3d6000fd5b50505050806001600160a01b03166323b872dd610a2a6103e7565b6040516001600160e01b031960e084901b1681526001600160a01b039091166004820152306024820152604481018b90526064016020604051808303816000875af1158015610a7d573d6000803e3d6000fd5b505050506040513d601f19601f82011682018060405250810190610aa191906114e1565b5060035460405163095ea7b360e01b81526001600160a01b039182166004820152602481018a9052479183169063095ea7b3906044016020604051808303816000875af1158015610af6573d6000803e3d6000fd5b505050506040513d601f19601f82011682018060405250810190610b1a91906114e1565b506003546040516318cbafe560e01b81526001600160a01b03909116906318cbafe590610b53908c908c908c9030908d906004016114fe565b6000604051808303816000875af1158015610b72573d6000803e3d6000fd5b505050506040513d6000823e601f3d908101601f19168201604052610b9a919081019061156f565b506000610ba782476114b8565b9050600061271060055483610bbc9190611600565b610bc884612710611600565b610bd291906114b8565b610bdc9190611617565b90506000610bea82846114b8565b6004549091506001600160a01b031615610c3a576004546040516001600160a01b039091169082156108fc029083906000818181858888f19350505050158015610c38573d6000803e3d6000fd5b505b610c426103e7565b6001600160a01b03166108fc839081150290604051600060405180830381858888f19350505050158015610c7a573d6000803e3d6000fd5b50909b5050505050505050505050505b92915050565b610c98610ecb565b610ca26000610f25565b565b610cac610ecb565b60405163a9059cbb60e01b8152336004820152602481018290526001600160a01b0383169063a9059cbb906044016020604051808303816000875af1158015610cf9573d6000803e3d6000fd5b505050506040513d601f19601f82011682018060405250810190610d1d91906114e1565b505050565b610d2a610ecb565b604051339082156108fc029083906000818181858888f19350505050158015610d57573d6000803e3d6000fd5b5050565b610d63610ecb565b6001600160a01b038116610dc85760405162461bcd60e51b815260206004820152602660248201527f4f776e61626c653a206e6577206f776e657220697320746865207a65726f206160448201526564647265737360d01b6064820152608401610155565b610dd181610f25565b50565b60008151600003610de757506000919050565b506020015190565b6000806001610e05610e0088610f75565b610ff2565b6040805160008152602081018083529290925260ff861690820152606081018790526080810186905260a0016020604051602081039080840390855afa158015610e53573d6000803e3d6000fd5b5050604051601f1901519150506001600160a01b038116610eaa5760405162461bcd60e51b8152602060048201526011602482015270496e76616c6964207369676e617475726560781b6044820152606401610155565b866001600160a01b0316816001600160a01b03161491505095945050505050565b6000546001600160a01b03163314610ca25760405162461bcd60e51b815260206004820181905260248201527f4f776e61626c653a2063616c6c6572206973206e6f7420746865206f776e65726044820152606401610155565b600080546001600160a01b038381166001600160a01b0319831681178455604051919092169283917f8be0079c531659141344cd1fd0a4f28419497f9722a3daafe3b4186f6b6457e09190a35050565b600060405180608001604052806043815260200161163a6043913980516020918201208351848301516040808701518051908601209051610fd5950193845260208401929092526001600160a01b03166040830152606082015260800190565b604051602081830303815290604052805190602001209050919050565b6000610ffd60015490565b60405161190160f01b6020820152602281019190915260428101839052606201610fd5565b6001600160a01b0381168114610dd157600080fd5b634e487b7160e01b600052604160045260246000fd5b604051601f8201601f1916810167ffffffffffffffff8111828210171561107657611076611037565b604052919050565b803560ff8116811461108f57600080fd5b919050565b600080600080600060a086880312156110ac57600080fd5b85356110b781611022565b945060208681013567ffffffffffffffff808211156110d557600080fd5b818901915089601f8301126110e957600080fd5b8135818111156110fb576110fb611037565b61110d601f8201601f1916850161104d565b91508082528a8482850101111561112357600080fd5b808484018584013760008482840101525080965050505060408601359250606086013591506111546080870161107e565b90509295509295909350565b60005b8381101561117b578181015183820152602001611163565b50506000910152565b6000815180845261119c816020860160208601611160565b601f01601f19169290920160200192915050565b6020815260006111c36020830184611184565b9392505050565b8015158114610dd157600080fd5b600080604083850312156111eb57600080fd5b82356111f681611022565b91506020830135611206816111ca565b809150509250929050565b60006020828403121561122357600080fd5b81356111c381611022565b60006020828403121561124057600080fd5b5035919050565b6000806020838503121561125a57600080fd5b823567ffffffffffffffff8082111561127257600080fd5b818501915085601f83011261128657600080fd5b81358181111561129557600080fd5b8660208285010111156112a757600080fd5b60209290920196919550909350505050565b600080604083850312156112cc57600080fd5b82356112d781611022565b946020939093013593505050565b634e487b7160e01b600052601160045260246000fd5b80820180821115610c8a57610c8a6112e5565b60008351611320818460208801611160565b60609390931b6bffffffffffffffffffffffff19169190920190815260140192915050565b60008251611357818460208701611160565b9190910192915050565b6001600160a01b0384811682528316602082015260606040820181905260009061138d90830184611184565b95945050505050565b600067ffffffffffffffff8211156113b0576113b0611037565b5060051b60200190565b803561108f81611022565b600080600080600080600080610100898b0312156113e257600080fd5b883597506020808a0135975060408a013567ffffffffffffffff81111561140857600080fd5b8a01601f81018c1361141957600080fd5b803561142c61142782611396565b61104d565b81815260059190911b8201830190838101908e83111561144b57600080fd5b928401925b8284101561147257833561146381611022565b82529284019290840190611450565b809a50505050505061148660608a016113ba565b94506080890135935061149b60a08a0161107e565b925060c0890135915060e089013590509295985092959890939650565b81810381811115610c8a57610c8a6112e5565b634e487b7160e01b600052603260045260246000fd5b6000602082840312156114f357600080fd5b81516111c3816111ca565b600060a082018783526020878185015260a0604085015281875180845260c086019150828901935060005b8181101561154e5784516001600160a01b031683529383019391830191600101611529565b50506001600160a01b03969096166060850152505050608001529392505050565b6000602080838503121561158257600080fd5b825167ffffffffffffffff81111561159957600080fd5b8301601f810185136115aa57600080fd5b80516115b861142782611396565b81815260059190911b820183019083810190878311156115d757600080fd5b928401925b828410156115f5578351825292840192908401906115dc565b979650505050505050565b8082028115828204841417610c8a57610c8a6112e5565b60008261163457634e487b7160e01b600052601260045260246000fd5b50049056fe4d6574615472616e73616374696f6e2875696e74323536206e6f6e63652c616464726573732066726f6d2c62797465732066756e6374696f6e5369676e617475726529a264697066735822122041a1b0ba65c65627748b6de46235aaaca1a3feb3b15956f78cd249863fbf15c864736f6c63430008130033454950373132446f6d61696e28737472696e67206e616d652c737472696e672076657273696f6e2c6164647265737320766572696679696e67436f6e74726163742c627974657333322073616c7429",
  "linkReferences": {},
  "deployedLinkReferences": {}
}