{
  "_format": "hh-sol-artifact-1",
  "contractName": "GasSwap",
  "sourceName": "contracts/GasSwap.sol",
  "abi": [
    {
      "inputs": [
        {
          "internalType": "address",
          "name": "_router",
          "type": "address"
        }
      ],
      "stateMutability": "nonpayable",
      "type": "constructor"
    },
    {
      "anonymous": false,
      "inputs": [
        {
          "indexed": false,
          "internalType": "address",
          "name": "userAddress",
          "type": "address"
        },
        {
          "indexed": false,
          "internalType": "address payable",
          "name": "relayerAddress",
          "type": "address"
        },
        {
          "indexed": false,
          "internalType": "bytes",
          "name": "functionSignature",
          "type": "bytes"
        }
      ],
      "name": "MetaTransactionExecuted",
      "type": "event"
    },
    {
      "anonymous": false,
      "inputs": [
        {
          "indexed": true,
          "internalType": "address",
          "name": "previousOwner",
          "type": "address"
        },
        {
          "indexed": true,
          "internalType": "address",
          "name": "newOwner",
          "type": "address"
        }
      ],
      "name": "OwnershipTransferred",
      "type": "event"
    },
    {
      "inputs": [],
      "name": "WGMLR",
      "outputs": [
        {
          "internalType": "address",
          "name": "",
          "type": "address"
        }
      ],
      "stateMutability": "view",
      "type": "function"
    },
    {
      "inputs": [
        {
          "internalType": "address",
          "name": "newFeeAddress",
          "type": "address"
        }
      ],
      "name": "changeFeeAddress",
      "outputs": [],
      "stateMutability": "nonpayable",
      "type": "function"
    },
    {
      "inputs": [
        {
          "internalType": "uint256",
          "name": "newFeePercent",
          "type": "uint256"
        }
      ],
      "name": "changeFeePercent",
      "outputs": [],
      "stateMutability": "nonpayable",
      "type": "function"
    },
    {
      "inputs": [
        {
          "internalType": "address",
          "name": "newTarget",
          "type": "address"
        }
      ],
      "name": "changeRouter",
      "outputs": [],
      "stateMutability": "nonpayable",
      "type": "function"
    },
    {
      "inputs": [
        {
          "internalType": "address",
          "name": "userAddress",
          "type": "address"
        },
        {
          "internalType": "bytes",
          "name": "functionSignature",
          "type": "bytes"
        },
        {
          "internalType": "bytes32",
          "name": "sigR",
          "type": "bytes32"
        },
        {
          "internalType": "bytes32",
          "name": "sigS",
          "type": "bytes32"
        },
        {
          "internalType": "uint8",
          "name": "sigV",
          "type": "uint8"
        }
      ],
      "name": "executeMetaTransaction",
      "outputs": [
        {
          "internalType": "bytes",
          "name": "",
          "type": "bytes"
        }
      ],
      "stateMutability": "payable",
      "type": "function"
    },
    {
      "inputs": [],
      "name": "feeAddress",
      "outputs": [
        {
          "internalType": "address",
          "name": "",
          "type": "address"
        }
      ],
      "stateMutability": "view",
      "type": "function"
    },
    {
      "inputs": [],
      "name": "feePercent",
      "outputs": [
        {
          "internalType": "uint256",
          "name": "",
          "type": "uint256"
        }
      ],
      "stateMutability": "view",
      "type": "function"
    },
    {
      "inputs": [
        {
          "internalType": "address",
          "name": "user",
          "type": "address"
        }
      ],
      "name": "getNonce",
      "outputs": [
        {
          "internalType": "uint256",
          "name": "nonce",
          "type": "uint256"
        }
      ],
      "stateMutability": "view",
      "type": "function"
    },
    {
      "inputs": [],
      "name": "owner",
      "outputs": [
        {
          "internalType": "address",
          "name": "",
          "type": "address"
        }
      ],
      "stateMutability": "view",
      "type": "function"
    },
    {
      "inputs": [],
      "name": "renounceOwnership",
      "outputs": [],
      "stateMutability": "nonpayable",
      "type": "function"
    },
    {
      "inputs": [],
      "name": "router",
      "outputs": [
        {
          "internalType": "contract IRouter",
          "name": "",
          "type": "address"
        }
      ],
      "stateMutability": "view",
      "type": "function"
    },
    {
      "inputs": [
        {
          "internalType": "bytes",
          "name": "swapCallData",
          "type": "bytes"
        }
      ],
      "name": "swap",
      "outputs": [
        {
          "internalType": "uint256",
          "name": "",
          "type": "uint256"
        }
      ],
      "stateMutability": "nonpayable",
      "type": "function"
    },
    {
      "inputs": [
        {
          "internalType": "address",
          "name": "",
          "type": "address"
        }
      ],
      "name": "tokenWhitelist",
      "outputs": [
        {
          "internalType": "bool",
          "name": "",
          "type": "bool"
        }
      ],
      "stateMutability": "view",
      "type": "function"
    },
    {
      "inputs": [
        {
          "internalType": "address",
          "name": "newOwner",
          "type": "address"
        }
      ],
      "name": "transferOwnership",
      "outputs": [],
      "stateMutability": "nonpayable",
      "type": "function"
    },
    {
      "inputs": [
        {
          "internalType": "address",
          "name": "tokenAddress",
          "type": "address"
        },
        {
          "internalType": "bool",
          "name": "whitelisted",
          "type": "bool"
        }
      ],
      "name": "whitelistToken",
      "outputs": [],
      "stateMutability": "nonpayable",
      "type": "function"
    },
    {
      "inputs": [
        {
          "internalType": "uint256",
          "name": "amount",
          "type": "uint256"
        }
      ],
      "name": "withdrawETH",
      "outputs": [],
      "stateMutability": "nonpayable",
      "type": "function"
    },
    {
      "inputs": [
        {
          "internalType": "contract IToken",
          "name": "token",
          "type": "address"
        },
        {
          "internalType": "uint256",
          "name": "amount",
          "type": "uint256"
        }
      ],
      "name": "withdrawToken",
      "outputs": [],
      "stateMutability": "nonpayable",
      "type": "function"
    },
    {
      "stateMutability": "payable",
      "type": "receive"
    }
  ],
  "bytecode": "0x60a060405273acc15dc74880c9944775448304b263d191c6077f60805260646005553480156200002e57600080fd5b5060405162001a1838038062001a188339810160408190526200005191620001b8565b604051806040016040528060078152602001660476173537761760cc1b815250604051806040016040528060018152602001601960f91b8152508181620000a7620000a16200016060201b60201c565b62000164565b6040518060800160405280604f8152602001620019c9604f9139805190602001208280519060200120828051906020012030620000e9620001b460201b60201c565b60408051602081019690965285019390935260608401919091526001600160a01b0316608083015260a082015260c00160408051808303601f1901815291905280516020909101206001555050600380546001600160a01b0319166001600160a01b03949094169390931790925550620001ea9050565b3390565b600080546001600160a01b038381166001600160a01b0319831681178455604051919092169283917f8be0079c531659141344cd1fd0a4f28419497f9722a3daafe3b4186f6b6457e09190a35050565b4690565b600060208284031215620001cb57600080fd5b81516001600160a01b0381168114620001e357600080fd5b9392505050565b6080516117bc6200020d6000396000818161036501526108c301526117bc6000f3fe6080604052600436106101025760003560e01c8063715018a6116100955780639e281a98116100645780639e281a9814610333578063a1b0ee9814610353578063f14210a614610387578063f2fde38b146103a7578063f887ea40146103c757600080fd5b8063715018a6146102aa578063753d7563146102bf5780637fd6f15c146102ff5780638da5cb5b1461031557600080fd5b8063340ac20f116100d1578063340ac20f1461021257806334eddf3e146102325780634127535814610252578063627dd56a1461028a57600080fd5b80630c53c51c146101655780630ffb1d8b1461018e578063285e1406146101ae5780632d0335ab146101ce57600080fd5b36610160576101186101126103e7565b3b151590565b61015e5760405162461bcd60e51b815260206004820152601260248201527114915591549517d153d057d1115413d4d25560721b60448201526064015b60405180910390fd5b005b600080fd5b61017861017336600461114c565b610444565b6040516101859190611274565b60405180910390f35b34801561019a57600080fd5b5061015e6101a936600461129c565b6106aa565b3480156101ba57600080fd5b5061015e6101c93660046112d5565b610746565b3480156101da57600080fd5b506102046101e93660046112d5565b6001600160a01b031660009081526002602052604090205490565b604051908152602001610185565b34801561021e57600080fd5b5061015e61022d3660046112d5565b610792565b34801561023e57600080fd5b5061015e61024d3660046112f2565b610825565b34801561025e57600080fd5b50600454610272906001600160a01b031681565b6040516001600160a01b039091168152602001610185565b34801561029657600080fd5b506102046102a536600461130b565b61089d565b3480156102b657600080fd5b5061015e610d19565b3480156102cb57600080fd5b506102ef6102da3660046112d5565b60066020526000908152604090205460ff1681565b6040519015158152602001610185565b34801561030b57600080fd5b5061020460055481565b34801561032157600080fd5b506000546001600160a01b0316610272565b34801561033f57600080fd5b5061015e61034e36600461137d565b610d4f565b34801561035f57600080fd5b506102727f000000000000000000000000000000000000000000000000000000000000000081565b34801561039357600080fd5b5061015e6103a23660046112f2565b610def565b3480156103b357600080fd5b5061015e6103c23660046112d5565b610e4a565b3480156103d357600080fd5b50600354610272906001600160a01b031681565b60003330141561043e57600080368080601f0160208091040260200160405190810160405280939291908181526020018383808284376000920191909152505050503601516001600160a01b031691506104419050565b50335b90565b6060600061045186610ee5565b90506000356001600160e01b031990811690821614156104d95760405162461bcd60e51b815260206004820152603d60248201527f66756e6374696f6e5369676e61747572652063616e206e6f74206265206f662060448201527f657865637574654d6574615472616e73616374696f6e206d6574686f640000006064820152608401610155565b604080516060810182526001600160a01b038916600081815260026020908152908490205483528201529081018790526105168882888888610f01565b61056c5760405162461bcd60e51b815260206004820152602160248201527f5369676e657220616e64207369676e617475726520646f206e6f74206d6174636044820152600d60fb1b6064820152608401610155565b6001600160a01b03881660009081526002602052604081208054600192906105959084906113bf565b9091555050604051600090819030906105b4908b908d906020016113d7565b60408051601f19818403018152908290526105ce9161140e565b6000604051808303816000865af19150503d806000811461060b576040519150601f19603f3d011682016040523d82523d6000602084013e610610565b606091505b5091509150816106625760405162461bcd60e51b815260206004820152601c60248201527f46756e6374696f6e2063616c6c206e6f74207375636365737366756c000000006044820152606401610155565b7f5845892132946850460bff5a0083f71031bc5bf9aadcd40f1de79423eac9b10b8a338b6040516106959392919061142a565b60405180910390a19998505050505050505050565b6000546001600160a01b031633146106d45760405162461bcd60e51b81526004016101559061145f565b813b61071b5760405162461bcd60e51b81526020600482015260166024820152754e4f5f434f4e54524143545f41545f4144445245535360501b6044820152606401610155565b6001600160a01b03919091166000908152600660205260409020805460ff1916911515919091179055565b6000546001600160a01b031633146107705760405162461bcd60e51b81526004016101559061145f565b600480546001600160a01b0319166001600160a01b0392909216919091179055565b6000546001600160a01b031633146107bc5760405162461bcd60e51b81526004016101559061145f565b803b6108035760405162461bcd60e51b81526020600482015260166024820152754e4f5f434f4e54524143545f41545f4144445245535360501b6044820152606401610155565b600380546001600160a01b0319166001600160a01b0392909216919091179055565b6000546001600160a01b0316331461084f5760405162461bcd60e51b81526004016101559061145f565b612710600554106108985760405162461bcd60e51b81526020600482015260136024820152721253959053125117d1915157d4115490d15395606a1b6044820152606401610155565b600555565b6000808080808080806108b2898b018b6114c3565b9750975097509750509650965096507f00000000000000000000000000000000000000000000000000000000000000006001600160a01b031685600187516108fa91906115b6565b8151811061090a5761090a6115cd565b60200260200101516001600160a01b03161461095f5760405162461bcd60e51b815260206004820152601460248201527324a72b20a624a22fa7aaaa282aaa2faa27a5a2a760611b6044820152606401610155565b6006600086600081518110610976576109766115cd565b6020908102919091018101516001600160a01b031682528101919091526040016000205460ff1615156001146109e45760405162461bcd60e51b815260206004820152601360248201527224a72b20a624a22fa4a7282aaa2faa27a5a2a760691b6044820152606401610155565b6000856000815181106109f9576109f96115cd565b60200260200101519050806001600160a01b031663d505accf610a1a6103e7565b6040516001600160e01b031960e084901b1681526001600160a01b039091166004820152306024820152604481018b90526064810188905260ff8716608482015260a4810186905260c4810185905260e401600060405180830381600087803b158015610a8657600080fd5b505af1158015610a9a573d6000803e3d6000fd5b50505050806001600160a01b03166323b872dd610ab56103e7565b6040516001600160e01b031960e084901b1681526001600160a01b039091166004820152306024820152604481018b90526064016020604051808303816000875af1158015610b08573d6000803e3d6000fd5b505050506040513d601f19601f82011682018060405250810190610b2c91906115e3565b5060035460405163095ea7b360e01b81526001600160a01b039182166004820152602481018a9052479183169063095ea7b3906044016020604051808303816000875af1158015610b81573d6000803e3d6000fd5b505050506040513d601f19601f82011682018060405250810190610ba591906115e3565b506003546040516318cbafe560e01b81526001600160a01b03909116906318cbafe590610bde908c908c908c9030908d90600401611600565b6000604051808303816000875af1158015610bfd573d6000803e3d6000fd5b505050506040513d6000823e601f3d908101601f19168201604052610c259190810190611671565b506000610c3282476115b6565b9050600061271060055483610c479190611702565b610c5384612710611702565b610c5d91906115b6565b610c679190611721565b90506000610c7582846115b6565b6004549091506001600160a01b031615610cc5576004546040516001600160a01b039091169082156108fc029083906000818181858888f19350505050158015610cc3573d6000803e3d6000fd5b505b610ccd6103e7565b6001600160a01b03166108fc839081150290604051600060405180830381858888f19350505050158015610d05573d6000803e3d6000fd5b50909e9d5050505050505050505050505050565b6000546001600160a01b03163314610d435760405162461bcd60e51b81526004016101559061145f565b610d4d6000610fdd565b565b6000546001600160a01b03163314610d795760405162461bcd60e51b81526004016101559061145f565b60405163a9059cbb60e01b8152336004820152602481018290526001600160a01b0383169063a9059cbb906044016020604051808303816000875af1158015610dc6573d6000803e3d6000fd5b505050506040513d601f19601f82011682018060405250810190610dea91906115e3565b505050565b6000546001600160a01b03163314610e195760405162461bcd60e51b81526004016101559061145f565b604051339082156108fc029083906000818181858888f19350505050158015610e46573d6000803e3d6000fd5b5050565b6000546001600160a01b03163314610e745760405162461bcd60e51b81526004016101559061145f565b6001600160a01b038116610ed95760405162461bcd60e51b815260206004820152602660248201527f4f776e61626c653a206e6577206f776e657220697320746865207a65726f206160448201526564647265737360d01b6064820152608401610155565b610ee281610fdd565b50565b6000815160001415610ef957506000919050565b506020015190565b6000806001610f17610f128861102d565b6110aa565b6040805160008152602081018083529290925260ff861690820152606081018790526080810186905260a0016020604051602081039080840390855afa158015610f65573d6000803e3d6000fd5b5050604051601f1901519150506001600160a01b038116610fbc5760405162461bcd60e51b8152602060048201526011602482015270496e76616c6964207369676e617475726560781b6044820152606401610155565b866001600160a01b0316816001600160a01b03161491505095945050505050565b600080546001600160a01b038381166001600160a01b0319831681178455604051919092169283917f8be0079c531659141344cd1fd0a4f28419497f9722a3daafe3b4186f6b6457e09190a35050565b6000604051806080016040528060438152602001611744604391398051602091820120835184830151604080870151805190860120905161108d950193845260208401929092526001600160a01b03166040830152606082015260800190565b604051602081830303815290604052805190602001209050919050565b60006110b560015490565b60405161190160f01b602082015260228101919091526042810183905260620161108d565b6001600160a01b0381168114610ee257600080fd5b634e487b7160e01b600052604160045260246000fd5b604051601f8201601f1916810167ffffffffffffffff8111828210171561112e5761112e6110ef565b604052919050565b803560ff8116811461114757600080fd5b919050565b600080600080600060a0868803121561116457600080fd5b853561116f816110da565b945060208681013567ffffffffffffffff8082111561118d57600080fd5b818901915089601f8301126111a157600080fd5b8135818111156111b3576111b36110ef565b6111c5601f8201601f19168501611105565b91508082528a848285010111156111db57600080fd5b8084840185840137600084828401015250809650505050604086013592506060860135915061120c60808701611136565b90509295509295909350565b60005b8381101561123357818101518382015260200161121b565b83811115611242576000848401525b50505050565b60008151808452611260816020860160208601611218565b601f01601f19169290920160200192915050565b6020815260006112876020830184611248565b9392505050565b8015158114610ee257600080fd5b600080604083850312156112af57600080fd5b82356112ba816110da565b915060208301356112ca8161128e565b809150509250929050565b6000602082840312156112e757600080fd5b8135611287816110da565b60006020828403121561130457600080fd5b5035919050565b6000806020838503121561131e57600080fd5b823567ffffffffffffffff8082111561133657600080fd5b818501915085601f83011261134a57600080fd5b81358181111561135957600080fd5b86602082850101111561136b57600080fd5b60209290920196919550909350505050565b6000806040838503121561139057600080fd5b823561139b816110da565b946020939093013593505050565b634e487b7160e01b600052601160045260246000fd5b600082198211156113d2576113d26113a9565b500190565b600083516113e9818460208801611218565b60609390931b6bffffffffffffffffffffffff19169190920190815260140192915050565b60008251611420818460208701611218565b9190910192915050565b6001600160a01b0384811682528316602082015260606040820181905260009061145690830184611248565b95945050505050565b6020808252818101527f4f776e61626c653a2063616c6c6572206973206e6f7420746865206f776e6572604082015260600190565b600067ffffffffffffffff8211156114ae576114ae6110ef565b5060051b60200190565b8035611147816110da565b600080600080600080600080610100898b0312156114e057600080fd5b883597506020808a0135975060408a013567ffffffffffffffff81111561150657600080fd5b8a01601f81018c1361151757600080fd5b803561152a61152582611494565b611105565b81815260059190911b8201830190838101908e83111561154957600080fd5b928401925b82841015611570578335611561816110da565b8252928401929084019061154e565b809a50505050505061158460608a016114b8565b94506080890135935061159960a08a01611136565b925060c0890135915060e089013590509295985092959890939650565b6000828210156115c8576115c86113a9565b500390565b634e487b7160e01b600052603260045260246000fd5b6000602082840312156115f557600080fd5b81516112878161128e565b600060a082018783526020878185015260a0604085015281875180845260c086019150828901935060005b818110156116505784516001600160a01b03168352938301939183019160010161162b565b50506001600160a01b03969096166060850152505050608001529392505050565b6000602080838503121561168457600080fd5b825167ffffffffffffffff81111561169b57600080fd5b8301601f810185136116ac57600080fd5b80516116ba61152582611494565b81815260059190911b820183019083810190878311156116d957600080fd5b928401925b828410156116f7578351825292840192908401906116de565b979650505050505050565b600081600019048311821515161561171c5761171c6113a9565b500290565b60008261173e57634e487b7160e01b600052601260045260246000fd5b50049056fe4d6574615472616e73616374696f6e2875696e74323536206e6f6e63652c616464726573732066726f6d2c62797465732066756e6374696f6e5369676e617475726529a264697066735822122087fdd12fed5a7f34380f3ab20228bac905694a5f68420152f7946695a61b2d0d64736f6c634300080b0033454950373132446f6d61696e28737472696e67206e616d652c737472696e672076657273696f6e2c6164647265737320766572696679696e67436f6e74726163742c627974657333322073616c7429",
  "linkReferences": {},
  "deployedLinkReferences": {}
}