{
  "_format": "hh-sol-artifact-1",
  "contractName": "PermitRouterV2",
  "sourceName": "contracts/PermitRouterV2.sol",
  "abi": [
    {
      "inputs": [
        {
          "internalType": "uint256",
          "name": "_fee",
          "type": "uint256"
        },
        {
          "internalType": "address",
          "name": "_tokenIn",
          "type": "address"
        },
        {
          "internalType": "contract IWMTR",
          "name": "_wmtr",
          "type": "address"
        },
        {
          "internalType": "address[]",
          "name": "_path",
          "type": "address[]"
        }
      ],
      "stateMutability": "nonpayable",
      "type": "constructor"
    },
    {
      "anonymous": false,
      "inputs": [
        {
          "indexed": true,
          "internalType": "address",
          "name": "previousOwner",
          "type": "address"
        },
        {
          "indexed": true,
          "internalType": "address",
          "name": "newOwner",
          "type": "address"
        }
      ],
      "name": "OwnershipTransferred",
      "type": "event"
    },
    {
      "inputs": [],
      "name": "fee",
      "outputs": [
        {
          "internalType": "uint256",
          "name": "",
          "type": "uint256"
        }
      ],
      "stateMutability": "view",
      "type": "function"
    },
    {
      "inputs": [
        {
          "internalType": "uint256",
          "name": "amountIn",
          "type": "uint256"
        }
      ],
      "name": "getAmountsOut",
      "outputs": [
        {
          "internalType": "uint256[]",
          "name": "",
          "type": "uint256[]"
        }
      ],
      "stateMutability": "view",
      "type": "function"
    },
    {
      "inputs": [],
      "name": "owner",
      "outputs": [
        {
          "internalType": "address",
          "name": "",
          "type": "address"
        }
      ],
      "stateMutability": "view",
      "type": "function"
    },
    {
      "inputs": [
        {
          "internalType": "uint256",
          "name": "",
          "type": "uint256"
        }
      ],
      "name": "path",
      "outputs": [
        {
          "internalType": "address",
          "name": "",
          "type": "address"
        }
      ],
      "stateMutability": "view",
      "type": "function"
    },
    {
      "inputs": [],
      "name": "renounceOwnership",
      "outputs": [],
      "stateMutability": "nonpayable",
      "type": "function"
    },
    {
      "inputs": [
        {
          "internalType": "uint256",
          "name": "_fee",
          "type": "uint256"
        }
      ],
      "name": "setFee",
      "outputs": [],
      "stateMutability": "nonpayable",
      "type": "function"
    },
    {
      "inputs": [
        {
          "internalType": "address",
          "name": "_owner",
          "type": "address"
        },
        {
          "internalType": "uint256",
          "name": "amountIn",
          "type": "uint256"
        },
        {
          "internalType": "uint256",
          "name": "amountOutMin",
          "type": "uint256"
        },
        {
          "internalType": "uint256",
          "name": "deadline",
          "type": "uint256"
        },
        {
          "internalType": "bytes",
          "name": "signature",
          "type": "bytes"
        }
      ],
      "name": "swapExactTokensForTokens",
      "outputs": [
        {
          "internalType": "uint256[]",
          "name": "amounts",
          "type": "uint256[]"
        }
      ],
      "stateMutability": "nonpayable",
      "type": "function"
    },
    {
      "inputs": [],
      "name": "tokenIn",
      "outputs": [
        {
          "internalType": "address",
          "name": "",
          "type": "address"
        }
      ],
      "stateMutability": "view",
      "type": "function"
    },
    {
      "inputs": [
        {
          "internalType": "address",
          "name": "newOwner",
          "type": "address"
        }
      ],
      "name": "transferOwnership",
      "outputs": [],
      "stateMutability": "nonpayable",
      "type": "function"
    },
    {
      "inputs": [],
      "name": "wmtr",
      "outputs": [
        {
          "internalType": "contract IWMTR",
          "name": "",
          "type": "address"
        }
      ],
      "stateMutability": "view",
      "type": "function"
    },
    {
      "stateMutability": "payable",
      "type": "receive"
    }
  ],
  "bytecode": "0x60a06040523480156200001157600080fd5b506040516200151d3803806200151d833981016040819052620000349162000194565b6200003f3362000082565b805162000054906002906020840190620000d2565b5050600192909255600380546001600160a01b0319166001600160a01b03928316179055166080526200029b565b600080546001600160a01b038381166001600160a01b0319831681178455604051919092169283917f8be0079c531659141344cd1fd0a4f28419497f9722a3daafe3b4186f6b6457e09190a35050565b8280548282559060005260206000209081019282156200012a579160200282015b828111156200012a57825182546001600160a01b0319166001600160a01b03909116178255602090920191600190910190620000f3565b50620001389291506200013c565b5090565b5b808211156200013857600081556001016200013d565b6001600160a01b03811681146200016957600080fd5b50565b8051620001798162000153565b919050565b634e487b7160e01b600052604160045260246000fd5b60008060008060808587031215620001ab57600080fd5b84519350602080860151620001c08162000153565b6040870151909450620001d38162000153565b60608701519093506001600160401b0380821115620001f157600080fd5b818801915088601f8301126200020657600080fd5b8151818111156200021b576200021b6200017e565b8060051b604051601f19603f830116810181811085821117156200024357620002436200017e565b60405291825284820192508381018501918b8311156200026257600080fd5b938501935b828510156200028b576200027b856200016c565b8452938501939285019262000267565b989b979a50959850505050505050565b608051611252620002cb6000396000818160a501528181610159015281816107160152610c9a01526112526000f3fe6080604052600436106100955760003560e01c80638da5cb5b116100595780638da5cb5b146101e8578063af6d1fe414610206578063c1153aaa14610226578063ddca3f4314610246578063f2fde38b1461026a57600080fd5b806354a4595714610111578063688475c71461014757806369fe0e2d146101935780636daf390b146101b3578063715018a6146101d357600080fd5b3661010c57336001600160a01b037f0000000000000000000000000000000000000000000000000000000000000000161461010a5760405162461bcd60e51b815260206004820152601060248201526f2937baba32b91d102727aa2faba6aa2960811b60448201526064015b60405180910390fd5b005b600080fd5b34801561011d57600080fd5b5061013161012c366004610ed0565b61028a565b60405161013e9190610fb1565b60405180910390f35b34801561015357600080fd5b5061017b7f000000000000000000000000000000000000000000000000000000000000000081565b6040516001600160a01b03909116815260200161013e565b34801561019f57600080fd5b5061010a6101ae366004610ff5565b610805565b3480156101bf57600080fd5b5060035461017b906001600160a01b031681565b3480156101df57600080fd5b5061010a610812565b3480156101f457600080fd5b506000546001600160a01b031661017b565b34801561021257600080fd5b5061017b610221366004610ff5565b610826565b34801561023257600080fd5b50610131610241366004610ff5565b610850565b34801561025257600080fd5b5061025c60015481565b60405190815260200161013e565b34801561027657600080fd5b5061010a61028536600461100e565b610adb565b606082428110156102dd5760405162461bcd60e51b815260206004820152601860248201527f556e69737761705632526f757465723a204558504952454400000000000000006044820152606401610101565b600354604051639fd5a6cf60e01b81526001600160a01b0390911690639fd5a6cf90610315908a9030908b908a908a90600401611082565b600060405180830381600087803b15801561032f57600080fd5b505af1158015610343573d6000803e3d6000fd5b50506003546002805461038a94506001600160a01b0390921692508a9160009061036f5761036f6110c7565b6000918252602090912001546001600160a01b031689610b54565b6002546103989060016110f3565b67ffffffffffffffff8111156103b0576103b0610eba565b6040519080825280602002602001820160405280156103d9578160200160208202803683370190505b50915085826000815181106103f0576103f06110c7565b60209081029190910101526003546001600160a01b031660005b6002548110156106fd57600060028281548110610429576104296110c7565b600091825260208083209091015460408051630dfe168160e01b815290516001600160a01b0390921694508492630dfe1681926004808401938290030181865afa15801561047b573d6000803e3d6000fd5b505050506040513d601f19601f8201168201806040525081019061049f919061110c565b90506000826001600160a01b031663d21220a76040518163ffffffff1660e01b8152600401602060405180830381865afa1580156104e1573d6000803e3d6000fd5b505050506040513d601f19601f82011682018060405250810190610505919061110c565b90506000836001600160a01b031663f140a35a89878151811061052a5761052a6110c7565b6020026020010151886040518363ffffffff1660e01b81526004016105629291909182526001600160a01b0316602082015260400190565b602060405180830381865afa15801561057f573d6000803e3d6000fd5b505050506040513d601f19601f820116820180604052508101906105a39190611129565b9050600080846001600160a01b0316886001600160a01b0316146105c9578260006105cd565b6000835b60025491935091506000906105e490600190611142565b88146106215760026105f78960016110f3565b81548110610607576106076110c7565b6000918252602090912001546001600160a01b0316610623565b305b6040805160008152602081019182905263022c0d9f60e01b9091529091506001600160a01b0388169063022c0d9f906106659086908690869060248101611155565b600060405180830381600087803b15801561067f57600080fd5b505af1158015610693573d6000803e3d6000fd5b50505050838b8960016106a691906110f3565b815181106106b6576106b66110c7565b602002602001018181525050856001600160a01b0316896001600160a01b0316146106e157856106e3565b845b985050505050505050806106f69061118c565b905061040a565b506040516370a0823160e01b81523060048201526000907f00000000000000000000000000000000000000000000000000000000000000006001600160a01b0316906370a0823190602401602060405180830381865afa158015610765573d6000803e3d6000fd5b505050506040513d601f19601f820116820180604052508101906107899190611129565b9050868110156107ef5760405162461bcd60e51b815260206004820152602b60248201527f556e69737761705632526f757465723a20494e53554646494349454e545f4f5560448201526a1514155517d05353d5539560aa1b6064820152608401610101565b6107f9818a610c84565b50505095945050505050565b61080d610d3e565b600155565b61081a610d3e565b6108246000610d98565b565b6002818154811061083657600080fd5b6000918252602090912001546001600160a01b0316905081565b6002546060906000906108649060016110f3565b67ffffffffffffffff81111561087c5761087c610eba565b6040519080825280602002602001820160405280156108a5578160200160208202803683370190505b50905082816000815181106108bc576108bc6110c7565b60209081029190910101526003546001600160a01b031660005b600254811015610ad2576000600282815481106108f5576108f56110c7565b600091825260208083209091015460408051630dfe168160e01b815290516001600160a01b0390921694508492630dfe1681926004808401938290030181865afa158015610947573d6000803e3d6000fd5b505050506040513d601f19601f8201168201806040525081019061096b919061110c565b90506000826001600160a01b031663d21220a76040518163ffffffff1660e01b8152600401602060405180830381865afa1580156109ad573d6000803e3d6000fd5b505050506040513d601f19601f820116820180604052508101906109d1919061110c565b90506000836001600160a01b031663f140a35a8887815181106109f6576109f66110c7565b6020026020010151886040518363ffffffff1660e01b8152600401610a2e9291909182526001600160a01b0316602082015260400190565b602060405180830381865afa158015610a4b573d6000803e3d6000fd5b505050506040513d601f19601f82011682018060405250810190610a6f9190611129565b90508087610a7e8760016110f3565b81518110610a8e57610a8e6110c7565b602002602001018181525050826001600160a01b0316866001600160a01b031614610ab95782610abb565b815b95505050505080610acb9061118c565b90506108d6565b50909392505050565b610ae3610d3e565b6001600160a01b038116610b485760405162461bcd60e51b815260206004820152602660248201527f4f776e61626c653a206e6577206f776e657220697320746865207a65726f206160448201526564647265737360d01b6064820152608401610101565b610b5181610d98565b50565b604080516001600160a01b0385811660248301528481166044830152606480830185905283518084039091018152608490920183526020820180516001600160e01b03166323b872dd60e01b1790529151600092839290881691610bb891906111a5565b6000604051808303816000865af19150503d8060008114610bf5576040519150601f19603f3d011682016040523d82523d6000602084013e610bfa565b606091505b5091509150818015610c24575080511580610c24575080806020019051810190610c2491906111c1565b610c7c5760405162461bcd60e51b8152602060048201526024808201527f5472616e7366657248656c7065723a205452414e534645525f46524f4d5f46416044820152631253115160e21b6064820152608401610101565b505050505050565b604051632e1a7d4d60e01b8152600481018390527f00000000000000000000000000000000000000000000000000000000000000006001600160a01b031690632e1a7d4d90602401600060405180830381600087803b158015610ce657600080fd5b505af1158015610cfa573d6000803e3d6000fd5b50505050610d2e81612710600154612710610d159190611142565b610d1f90866111e3565b610d2991906111fa565b610de8565b47610d393382610de8565b505050565b6000546001600160a01b031633146108245760405162461bcd60e51b815260206004820181905260248201527f4f776e61626c653a2063616c6c6572206973206e6f7420746865206f776e65726044820152606401610101565b600080546001600160a01b038381166001600160a01b0319831681178455604051919092169283917f8be0079c531659141344cd1fd0a4f28419497f9722a3daafe3b4186f6b6457e09190a35050565b604080516000808252602082019092526001600160a01b038416908390604051610e1291906111a5565b60006040518083038185875af1925050503d8060008114610e4f576040519150601f19603f3d011682016040523d82523d6000602084013e610e54565b606091505b5050905080610d395760405162461bcd60e51b815260206004820152601f60248201527f566f6c74526f757465723a204554485f5452414e534645525f4641494c4544006044820152606401610101565b6001600160a01b0381168114610b5157600080fd5b634e487b7160e01b600052604160045260246000fd5b600080600080600060a08688031215610ee857600080fd5b8535610ef381610ea5565b9450602086013593506040860135925060608601359150608086013567ffffffffffffffff80821115610f2557600080fd5b818801915088601f830112610f3957600080fd5b813581811115610f4b57610f4b610eba565b604051601f8201601f19908116603f01168101908382118183101715610f7357610f73610eba565b816040528281528b6020848701011115610f8c57600080fd5b8260208601602083013760006020848301015280955050505050509295509295909350565b6020808252825182820181905260009190848201906040850190845b81811015610fe957835183529284019291840191600101610fcd565b50909695505050505050565b60006020828403121561100757600080fd5b5035919050565b60006020828403121561102057600080fd5b813561102b81610ea5565b9392505050565b60005b8381101561104d578181015183820152602001611035565b50506000910152565b6000815180845261106e816020860160208601611032565b601f01601f19169290920160200192915050565b6001600160a01b03868116825285166020820152604081018490526060810183905260a0608082018190526000906110bc90830184611056565b979650505050505050565b634e487b7160e01b600052603260045260246000fd5b634e487b7160e01b600052601160045260246000fd5b80820180821115611106576111066110dd565b92915050565b60006020828403121561111e57600080fd5b815161102b81610ea5565b60006020828403121561113b57600080fd5b5051919050565b81810381811115611106576111066110dd565b84815283602082015260018060a01b03831660408201526080606082015260006111826080830184611056565b9695505050505050565b60006001820161119e5761119e6110dd565b5060010190565b600082516111b7818460208701611032565b9190910192915050565b6000602082840312156111d357600080fd5b8151801515811461102b57600080fd5b8082028115828204841417611106576111066110dd565b60008261121757634e487b7160e01b600052601260045260246000fd5b50049056fea264697066735822122045e6119854db61bfb71ea445dc10417d14baa7e6cb4cfcdfe6e5c6469474b5dd64736f6c63430008130033",
  "linkReferences": {},
  "deployedLinkReferences": {}
}