{
  "_format": "hh-sol-artifact-1",
  "contractName": "ProxyOFTV2",
  "sourceName": "contracts/oft/ProxyOFTV2.sol",
  "abi": [
    {
      "inputs": [],
      "name": "LaneExisted",
      "type": "error"
    },
    {
      "inputs": [],
      "name": "LaneNotExist",
      "type": "error"
    },
    {
      "inputs": [],
      "name": "OwnerIsNotSender",
      "type": "error"
    },
    {
      "inputs": [],
      "name": "Paused",
      "type": "error"
    },
    {
      "inputs": [],
      "name": "ZeroAddressNotAllowed",
      "type": "error"
    },
    {
      "inputs": [],
      "name": "ZeroValueNotAllowed",
      "type": "error"
    },
    {
      "anonymous": false,
      "inputs": [
        {
          "indexed": false,
          "internalType": "uint8",
          "name": "version",
          "type": "uint8"
        }
      ],
      "name": "Initialized",
      "type": "event"
    },
    {
      "anonymous": false,
      "inputs": [
        {
          "indexed": false,
          "internalType": "uint16",
          "name": "_srcChainId",
          "type": "uint16"
        },
        {
          "indexed": false,
          "internalType": "bytes",
          "name": "_srcAddress",
          "type": "bytes"
        },
        {
          "indexed": false,
          "internalType": "uint64",
          "name": "_nonce",
          "type": "uint64"
        },
        {
          "indexed": false,
          "internalType": "bytes",
          "name": "_payload",
          "type": "bytes"
        }
      ],
      "name": "MessageFailed",
      "type": "event"
    },
    {
      "anonymous": false,
      "inputs": [
        {
          "indexed": true,
          "internalType": "address",
          "name": "_srcToken",
          "type": "address"
        },
        {
          "indexed": true,
          "internalType": "uint16",
          "name": "_srcChainId",
          "type": "uint16"
        },
        {
          "indexed": true,
          "internalType": "address",
          "name": "_to",
          "type": "address"
        },
        {
          "indexed": false,
          "internalType": "uint256",
          "name": "_amount",
          "type": "uint256"
        }
      ],
      "name": "ReceiveFromChain",
      "type": "event"
    },
    {
      "anonymous": false,
      "inputs": [
        {
          "indexed": true,
          "internalType": "bytes32",
          "name": "role",
          "type": "bytes32"
        },
        {
          "indexed": true,
          "internalType": "bytes32",
          "name": "previousAdminRole",
          "type": "bytes32"
        },
        {
          "indexed": true,
          "internalType": "bytes32",
          "name": "newAdminRole",
          "type": "bytes32"
        }
      ],
      "name": "RoleAdminChanged",
      "type": "event"
    },
    {
      "anonymous": false,
      "inputs": [
        {
          "indexed": true,
          "internalType": "bytes32",
          "name": "role",
          "type": "bytes32"
        },
        {
          "indexed": true,
          "internalType": "address",
          "name": "account",
          "type": "address"
        },
        {
          "indexed": true,
          "internalType": "address",
          "name": "sender",
          "type": "address"
        }
      ],
      "name": "RoleGranted",
      "type": "event"
    },
    {
      "anonymous": false,
      "inputs": [
        {
          "indexed": true,
          "internalType": "bytes32",
          "name": "role",
          "type": "bytes32"
        },
        {
          "indexed": true,
          "internalType": "address",
          "name": "account",
          "type": "address"
        },
        {
          "indexed": true,
          "internalType": "address",
          "name": "sender",
          "type": "address"
        }
      ],
      "name": "RoleRevoked",
      "type": "event"
    },
    {
      "anonymous": false,
      "inputs": [
        {
          "indexed": true,
          "internalType": "uint16",
          "name": "_dstChainId",
          "type": "uint16"
        },
        {
          "indexed": true,
          "internalType": "address",
          "name": "_token",
          "type": "address"
        },
        {
          "indexed": true,
          "internalType": "address",
          "name": "_from",
          "type": "address"
        },
        {
          "indexed": false,
          "internalType": "bytes",
          "name": "_toAddress",
          "type": "bytes"
        },
        {
          "indexed": false,
          "internalType": "uint256",
          "name": "_amount",
          "type": "uint256"
        }
      ],
      "name": "SendToChain",
      "type": "event"
    },
    {
      "anonymous": false,
      "inputs": [
        {
          "indexed": false,
          "internalType": "uint16",
          "name": "_dstChainId",
          "type": "uint16"
        },
        {
          "indexed": false,
          "internalType": "uint16",
          "name": "_type",
          "type": "uint16"
        },
        {
          "indexed": false,
          "internalType": "uint256",
          "name": "_minDstGas",
          "type": "uint256"
        }
      ],
      "name": "SetMinDstGas",
      "type": "event"
    },
    {
      "anonymous": false,
      "inputs": [
        {
          "indexed": false,
          "internalType": "uint16",
          "name": "_dstChainId",
          "type": "uint16"
        },
        {
          "indexed": false,
          "internalType": "uint256",
          "name": "_type",
          "type": "uint256"
        },
        {
          "indexed": false,
          "internalType": "uint256",
          "name": "_dstGasAmount",
          "type": "uint256"
        }
      ],
      "name": "SetMinDstGasLookup",
      "type": "event"
    },
    {
      "anonymous": false,
      "inputs": [
        {
          "indexed": false,
          "internalType": "address",
          "name": "precrime",
          "type": "address"
        }
      ],
      "name": "SetPrecrime",
      "type": "event"
    },
    {
      "anonymous": false,
      "inputs": [
        {
          "indexed": false,
          "internalType": "uint16",
          "name": "_srcChainId",
          "type": "uint16"
        },
        {
          "indexed": false,
          "internalType": "bytes",
          "name": "_srcAddress",
          "type": "bytes"
        }
      ],
      "name": "SetTrustedRemote",
      "type": "event"
    },
    {
      "anonymous": false,
      "inputs": [
        {
          "indexed": false,
          "internalType": "uint16",
          "name": "_remoteChainId",
          "type": "uint16"
        },
        {
          "indexed": false,
          "internalType": "bytes",
          "name": "_remoteAddress",
          "type": "bytes"
        }
      ],
      "name": "SetTrustedRemoteAddress",
      "type": "event"
    },
    {
      "anonymous": false,
      "inputs": [
        {
          "indexed": false,
          "internalType": "bool",
          "name": "_useCustomAdapterParams",
          "type": "bool"
        }
      ],
      "name": "SetUseCustomAdapterParams",
      "type": "event"
    },
    {
      "inputs": [],
      "name": "DEFAULT_ADMIN_ROLE",
      "outputs": [
        {
          "internalType": "bytes32",
          "name": "",
          "type": "bytes32"
        }
      ],
      "stateMutability": "view",
      "type": "function"
    },
    {
      "inputs": [],
      "name": "DEFAULT_PAYLOAD_SIZE_LIMIT",
      "outputs": [
        {
          "internalType": "uint256",
          "name": "",
          "type": "uint256"
        }
      ],
      "stateMutability": "view",
      "type": "function"
    },
    {
      "inputs": [],
      "name": "FUNCTION_TYPE_SEND",
      "outputs": [
        {
          "internalType": "uint256",
          "name": "",
          "type": "uint256"
        }
      ],
      "stateMutability": "view",
      "type": "function"
    },
    {
      "inputs": [],
      "name": "NO_EXTRA_GAS",
      "outputs": [
        {
          "internalType": "uint256",
          "name": "",
          "type": "uint256"
        }
      ],
      "stateMutability": "view",
      "type": "function"
    },
    {
      "inputs": [
        {
          "internalType": "uint16",
          "name": "srcEid",
          "type": "uint16"
        },
        {
          "internalType": "address",
          "name": "srcToken",
          "type": "address"
        },
        {
          "internalType": "address",
          "name": "dstToken",
          "type": "address"
        }
      ],
      "name": "addTokenMapping",
      "outputs": [],
      "stateMutability": "nonpayable",
      "type": "function"
    },
    {
      "inputs": [
        {
          "internalType": "address",
          "name": "token",
          "type": "address"
        },
        {
          "internalType": "address",
          "name": "to",
          "type": "address"
        },
        {
          "internalType": "uint256",
          "name": "amount",
          "type": "uint256"
        }
      ],
      "name": "adminWithdraw",
      "outputs": [],
      "stateMutability": "nonpayable",
      "type": "function"
    },
    {
      "inputs": [],
      "name": "circulatingSupply",
      "outputs": [
        {
          "internalType": "uint256",
          "name": "",
          "type": "uint256"
        }
      ],
      "stateMutability": "view",
      "type": "function"
    },
    {
      "inputs": [
        {
          "internalType": "address",
          "name": "token",
          "type": "address"
        },
        {
          "internalType": "uint16",
          "name": "_dstChainId",
          "type": "uint16"
        },
        {
          "internalType": "bytes",
          "name": "_toAddress",
          "type": "bytes"
        },
        {
          "internalType": "uint256",
          "name": "_amount",
          "type": "uint256"
        }
      ],
      "name": "estimateSendFee",
      "outputs": [
        {
          "internalType": "uint256",
          "name": "nativeFee",
          "type": "uint256"
        },
        {
          "internalType": "uint256",
          "name": "zroFee",
          "type": "uint256"
        }
      ],
      "stateMutability": "view",
      "type": "function"
    },
    {
      "inputs": [
        {
          "internalType": "uint16",
          "name": "",
          "type": "uint16"
        },
        {
          "internalType": "bytes",
          "name": "",
          "type": "bytes"
        },
        {
          "internalType": "uint64",
          "name": "",
          "type": "uint64"
        }
      ],
      "name": "failedMessages",
      "outputs": [
        {
          "internalType": "bytes32",
          "name": "",
          "type": "bytes32"
        }
      ],
      "stateMutability": "view",
      "type": "function"
    },
    {
      "inputs": [
        {
          "internalType": "uint16",
          "name": "_srcChainId",
          "type": "uint16"
        },
        {
          "internalType": "bytes",
          "name": "_srcAddress",
          "type": "bytes"
        }
      ],
      "name": "forceResumeReceive",
      "outputs": [],
      "stateMutability": "nonpayable",
      "type": "function"
    },
    {
      "inputs": [],
      "name": "getAllLane",
      "outputs": [
        {
          "components": [
            {
              "internalType": "uint16",
              "name": "srcEid",
              "type": "uint16"
            },
            {
              "internalType": "address",
              "name": "srcToken",
              "type": "address"
            },
            {
              "internalType": "address",
              "name": "dstToken",
              "type": "address"
            }
          ],
          "internalType": "struct BaseProxyOFT.LaneDetail[]",
          "name": "",
          "type": "tuple[]"
        }
      ],
      "stateMutability": "view",
      "type": "function"
    },
    {
      "inputs": [
        {
          "internalType": "uint16",
          "name": "_version",
          "type": "uint16"
        },
        {
          "internalType": "uint16",
          "name": "_chainId",
          "type": "uint16"
        },
        {
          "internalType": "address",
          "name": "",
          "type": "address"
        },
        {
          "internalType": "uint256",
          "name": "_configType",
          "type": "uint256"
        }
      ],
      "name": "getConfig",
      "outputs": [
        {
          "internalType": "bytes",
          "name": "",
          "type": "bytes"
        }
      ],
      "stateMutability": "view",
      "type": "function"
    },
    {
      "inputs": [
        {
          "internalType": "bytes32",
          "name": "role",
          "type": "bytes32"
        }
      ],
      "name": "getRoleAdmin",
      "outputs": [
        {
          "internalType": "bytes32",
          "name": "",
          "type": "bytes32"
        }
      ],
      "stateMutability": "view",
      "type": "function"
    },
    {
      "inputs": [
        {
          "internalType": "bytes32",
          "name": "role",
          "type": "bytes32"
        },
        {
          "internalType": "uint256",
          "name": "index",
          "type": "uint256"
        }
      ],
      "name": "getRoleMember",
      "outputs": [
        {
          "internalType": "address",
          "name": "",
          "type": "address"
        }
      ],
      "stateMutability": "view",
      "type": "function"
    },
    {
      "inputs": [
        {
          "internalType": "bytes32",
          "name": "role",
          "type": "bytes32"
        }
      ],
      "name": "getRoleMemberCount",
      "outputs": [
        {
          "internalType": "uint256",
          "name": "",
          "type": "uint256"
        }
      ],
      "stateMutability": "view",
      "type": "function"
    },
    {
      "inputs": [
        {
          "internalType": "uint16",
          "name": "_remoteChainId",
          "type": "uint16"
        }
      ],
      "name": "getTrustedRemoteAddress",
      "outputs": [
        {
          "internalType": "bytes",
          "name": "",
          "type": "bytes"
        }
      ],
      "stateMutability": "view",
      "type": "function"
    },
    {
      "inputs": [
        {
          "internalType": "bytes32",
          "name": "role",
          "type": "bytes32"
        },
        {
          "internalType": "address",
          "name": "account",
          "type": "address"
        }
      ],
      "name": "grantRole",
      "outputs": [],
      "stateMutability": "nonpayable",
      "type": "function"
    },
    {
      "inputs": [
        {
          "internalType": "bytes32",
          "name": "role",
          "type": "bytes32"
        },
        {
          "internalType": "address",
          "name": "account",
          "type": "address"
        }
      ],
      "name": "hasRole",
      "outputs": [
        {
          "internalType": "bool",
          "name": "",
          "type": "bool"
        }
      ],
      "stateMutability": "view",
      "type": "function"
    },
    {
      "inputs": [
        {
          "internalType": "address",
          "name": "_lzEndpoint",
          "type": "address"
        },
        {
          "internalType": "address",
          "name": "admin",
          "type": "address"
        }
      ],
      "name": "initialize",
      "outputs": [],
      "stateMutability": "nonpayable",
      "type": "function"
    },
    {
      "inputs": [
        {
          "internalType": "uint16",
          "name": "_srcChainId",
          "type": "uint16"
        },
        {
          "internalType": "bytes",
          "name": "_srcAddress",
          "type": "bytes"
        }
      ],
      "name": "isTrustedRemote",
      "outputs": [
        {
          "internalType": "bool",
          "name": "",
          "type": "bool"
        }
      ],
      "stateMutability": "view",
      "type": "function"
    },
    {
      "inputs": [
        {
          "internalType": "uint16",
          "name": "srcEid",
          "type": "uint16"
        },
        {
          "internalType": "address",
          "name": "srcToken",
          "type": "address"
        }
      ],
      "name": "laneExist",
      "outputs": [
        {
          "internalType": "bool",
          "name": "",
          "type": "bool"
        }
      ],
      "stateMutability": "view",
      "type": "function"
    },
    {
      "inputs": [],
      "name": "lzEndpoint",
      "outputs": [
        {
          "internalType": "contract ILayerZeroEndpointUpgradeable",
          "name": "",
          "type": "address"
        }
      ],
      "stateMutability": "view",
      "type": "function"
    },
    {
      "inputs": [
        {
          "internalType": "uint16",
          "name": "_srcChainId",
          "type": "uint16"
        },
        {
          "internalType": "bytes",
          "name": "_srcAddress",
          "type": "bytes"
        },
        {
          "internalType": "uint64",
          "name": "_nonce",
          "type": "uint64"
        },
        {
          "internalType": "bytes",
          "name": "_payload",
          "type": "bytes"
        }
      ],
      "name": "lzReceive",
      "outputs": [],
      "stateMutability": "nonpayable",
      "type": "function"
    },
    {
      "inputs": [
        {
          "internalType": "uint16",
          "name": "",
          "type": "uint16"
        },
        {
          "internalType": "uint256",
          "name": "",
          "type": "uint256"
        }
      ],
      "name": "minDstGasLookup",
      "outputs": [
        {
          "internalType": "uint256",
          "name": "",
          "type": "uint256"
        }
      ],
      "stateMutability": "view",
      "type": "function"
    },
    {
      "inputs": [
        {
          "internalType": "uint16",
          "name": "_srcChainId",
          "type": "uint16"
        },
        {
          "internalType": "bytes",
          "name": "_srcAddress",
          "type": "bytes"
        },
        {
          "internalType": "uint64",
          "name": "_nonce",
          "type": "uint64"
        },
        {
          "internalType": "bytes",
          "name": "_payload",
          "type": "bytes"
        }
      ],
      "name": "nonblockingLzReceive",
      "outputs": [],
      "stateMutability": "nonpayable",
      "type": "function"
    },
    {
      "inputs": [],
      "name": "pause",
      "outputs": [],
      "stateMutability": "nonpayable",
      "type": "function"
    },
    {
      "inputs": [],
      "name": "paused",
      "outputs": [
        {
          "internalType": "bool",
          "name": "",
          "type": "bool"
        }
      ],
      "stateMutability": "view",
      "type": "function"
    },
    {
      "inputs": [],
      "name": "precrime",
      "outputs": [
        {
          "internalType": "address",
          "name": "",
          "type": "address"
        }
      ],
      "stateMutability": "view",
      "type": "function"
    },
    {
      "inputs": [
        {
          "internalType": "uint16",
          "name": "srcEid",
          "type": "uint16"
        },
        {
          "internalType": "address",
          "name": "srcToken",
          "type": "address"
        }
      ],
      "name": "removeTokenMapping",
      "outputs": [],
      "stateMutability": "nonpayable",
      "type": "function"
    },
    {
      "inputs": [
        {
          "internalType": "bytes32",
          "name": "role",
          "type": "bytes32"
        },
        {
          "internalType": "address",
          "name": "account",
          "type": "address"
        }
      ],
      "name": "renounceRole",
      "outputs": [],
      "stateMutability": "nonpayable",
      "type": "function"
    },
    {
      "inputs": [
        {
          "internalType": "uint16",
          "name": "_srcChainId",
          "type": "uint16"
        },
        {
          "internalType": "bytes",
          "name": "_srcAddress",
          "type": "bytes"
        },
        {
          "internalType": "uint64",
          "name": "_nonce",
          "type": "uint64"
        },
        {
          "internalType": "bytes",
          "name": "_payload",
          "type": "bytes"
        }
      ],
      "name": "retryMessage",
      "outputs": [],
      "stateMutability": "payable",
      "type": "function"
    },
    {
      "inputs": [
        {
          "internalType": "bytes32",
          "name": "role",
          "type": "bytes32"
        },
        {
          "internalType": "address",
          "name": "account",
          "type": "address"
        }
      ],
      "name": "revokeRole",
      "outputs": [],
      "stateMutability": "nonpayable",
      "type": "function"
    },
    {
      "inputs": [
        {
          "internalType": "address",
          "name": "_token",
          "type": "address"
        },
        {
          "internalType": "uint16",
          "name": "_dstChainId",
          "type": "uint16"
        },
        {
          "internalType": "bytes",
          "name": "_toAddress",
          "type": "bytes"
        },
        {
          "internalType": "uint256",
          "name": "_amount",
          "type": "uint256"
        }
      ],
      "name": "sendFrom",
      "outputs": [],
      "stateMutability": "payable",
      "type": "function"
    },
    {
      "inputs": [
        {
          "internalType": "uint16",
          "name": "_version",
          "type": "uint16"
        },
        {
          "internalType": "uint16",
          "name": "_chainId",
          "type": "uint16"
        },
        {
          "internalType": "uint256",
          "name": "_configType",
          "type": "uint256"
        },
        {
          "internalType": "bytes",
          "name": "_config",
          "type": "bytes"
        }
      ],
      "name": "setConfig",
      "outputs": [],
      "stateMutability": "nonpayable",
      "type": "function"
    },
    {
      "inputs": [
        {
          "internalType": "uint16",
          "name": "_dstChainId",
          "type": "uint16"
        },
        {
          "internalType": "uint16",
          "name": "_packetType",
          "type": "uint16"
        },
        {
          "internalType": "uint256",
          "name": "_minGas",
          "type": "uint256"
        }
      ],
      "name": "setMinDstGas",
      "outputs": [],
      "stateMutability": "nonpayable",
      "type": "function"
    },
    {
      "inputs": [
        {
          "internalType": "address",
          "name": "_precrime",
          "type": "address"
        }
      ],
      "name": "setPrecrime",
      "outputs": [],
      "stateMutability": "nonpayable",
      "type": "function"
    },
    {
      "inputs": [
        {
          "internalType": "uint16",
          "name": "_version",
          "type": "uint16"
        }
      ],
      "name": "setReceiveVersion",
      "outputs": [],
      "stateMutability": "nonpayable",
      "type": "function"
    },
    {
      "inputs": [
        {
          "internalType": "uint16",
          "name": "_version",
          "type": "uint16"
        }
      ],
      "name": "setSendVersion",
      "outputs": [],
      "stateMutability": "nonpayable",
      "type": "function"
    },
    {
      "inputs": [
        {
          "internalType": "address",
          "name": "_timelock",
          "type": "address"
        }
      ],
      "name": "setTimelock",
      "outputs": [],
      "stateMutability": "nonpayable",
      "type": "function"
    },
    {
      "inputs": [
        {
          "internalType": "uint16",
          "name": "_srcChainId",
          "type": "uint16"
        },
        {
          "internalType": "bytes",
          "name": "_path",
          "type": "bytes"
        }
      ],
      "name": "setTrustedRemote",
      "outputs": [],
      "stateMutability": "nonpayable",
      "type": "function"
    },
    {
      "inputs": [
        {
          "internalType": "uint16",
          "name": "_remoteChainId",
          "type": "uint16"
        },
        {
          "internalType": "bytes",
          "name": "_remoteAddress",
          "type": "bytes"
        }
      ],
      "name": "setTrustedRemoteAddress",
      "outputs": [],
      "stateMutability": "nonpayable",
      "type": "function"
    },
    {
      "inputs": [
        {
          "internalType": "bool",
          "name": "_useCustomAdapterParams",
          "type": "bool"
        }
      ],
      "name": "setUseCustomAdapterParams",
      "outputs": [],
      "stateMutability": "nonpayable",
      "type": "function"
    },
    {
      "inputs": [
        {
          "internalType": "bytes4",
          "name": "interfaceId",
          "type": "bytes4"
        }
      ],
      "name": "supportsInterface",
      "outputs": [
        {
          "internalType": "bool",
          "name": "",
          "type": "bool"
        }
      ],
      "stateMutability": "view",
      "type": "function"
    },
    {
      "inputs": [],
      "name": "timelock",
      "outputs": [
        {
          "internalType": "address",
          "name": "",
          "type": "address"
        }
      ],
      "stateMutability": "view",
      "type": "function"
    },
    {
      "inputs": [],
      "name": "token",
      "outputs": [
        {
          "internalType": "address",
          "name": "",
          "type": "address"
        }
      ],
      "stateMutability": "view",
      "type": "function"
    },
    {
      "inputs": [
        {
          "internalType": "uint16",
          "name": "srcEid",
          "type": "uint16"
        },
        {
          "internalType": "address",
          "name": "srcToken",
          "type": "address"
        }
      ],
      "name": "tokenMapping",
      "outputs": [
        {
          "components": [
            {
              "internalType": "uint16",
              "name": "srcEid",
              "type": "uint16"
            },
            {
              "internalType": "address",
              "name": "srcToken",
              "type": "address"
            },
            {
              "internalType": "address",
              "name": "dstToken",
              "type": "address"
            }
          ],
          "internalType": "struct BaseProxyOFT.LaneDetail",
          "name": "",
          "type": "tuple"
        }
      ],
      "stateMutability": "view",
      "type": "function"
    },
    {
      "inputs": [
        {
          "internalType": "uint16",
          "name": "",
          "type": "uint16"
        }
      ],
      "name": "trustedRemoteLookup",
      "outputs": [
        {
          "internalType": "bytes",
          "name": "",
          "type": "bytes"
        }
      ],
      "stateMutability": "view",
      "type": "function"
    },
    {
      "inputs": [],
      "name": "unPause",
      "outputs": [],
      "stateMutability": "nonpayable",
      "type": "function"
    },
    {
      "inputs": [
        {
          "internalType": "uint16",
          "name": "srcEid",
          "type": "uint16"
        },
        {
          "internalType": "address",
          "name": "srcToken",
          "type": "address"
        },
        {
          "internalType": "address",
          "name": "dstToken",
          "type": "address"
        }
      ],
      "name": "updateTokenMapping",
      "outputs": [],
      "stateMutability": "nonpayable",
      "type": "function"
    },
    {
      "inputs": [],
      "name": "useCustomAdapterParams",
      "outputs": [
        {
          "internalType": "bool",
          "name": "",
          "type": "bool"
        }
      ],
      "stateMutability": "view",
      "type": "function"
    },
    {
      "inputs": [],
      "name": "version",
      "outputs": [
        {
          "internalType": "enum BaseProxyOFT.VERSION",
          "name": "",
          "type": "uint8"
        }
      ],
      "stateMutability": "pure",
      "type": "function"
    }
  ],
  "bytecode": "0x60806040523480156200001157600080fd5b506200001c62000022565b620000e3565b600054610100900460ff16156200008f5760405162461bcd60e51b815260206004820152602760248201527f496e697469616c697a61626c653a20636f6e747261637420697320696e697469604482015266616c697a696e6760c81b606482015260840160405180910390fd5b60005460ff90811614620000e1576000805460ff191660ff9081179091556040519081527f7f26b83ff96e1f2b6a682f133852f6798a09c465da95921460cefb38474024989060200160405180910390a15b565b6142f980620000f36000396000f3fe6080604052600436106102e35760003560e01c8063950c8a7411610190578063ca15c873116100dc578063eab45d9c11610095578063f09c56991161006f578063f09c569914610913578063f5ecbdbc14610933578063f7b188a514610953578063fc0c546a1461096857600080fd5b8063eab45d9c146108b8578063eb8d72b7146108d8578063ed629c5c146108f857600080fd5b8063ca15c87314610804578063cbed8b9c14610824578063d1deba1f14610844578063d33219b414610857578063d547741f14610878578063df2a5b3b1461089857600080fd5b8063af3fb21c11610149578063b44e15e511610123578063b44e15e51461079b578063baf3292d146107ae578063bdacb303146107ce578063c4461834146107ee57600080fd5b8063af3fb21c14610746578063b353aaa71461075b578063b414275d1461077b57600080fd5b8063950c8a74146106915780639f38369a146106b1578063a217fddf146104b7578063a6c3d165146106d1578063a7f342b0146106f1578063a9e48ca71461071157600080fd5b8063447705151161024f57806366ad5c8a116102085780638456cb59116101e25780638456cb591461060d5780639010d07c1461062257806391d148541461065a5780639358928b1461067a57600080fd5b806366ad5c8a146105a057806371a86e91146105c05780637533d788146105e057600080fd5b806344770515146104b7578063485cc955146104cc5780634ae33529146104ec57806354fd4d50146105195780635b8c41e6146105355780635c975abb1461058557600080fd5b8063248a9ca3116102a1578063248a9ca3146103e55780632f2ff15d1461041557806336568abe1461043557806336c6dd95146104555780633d8b38f61461047757806342d65a8d1461049757600080fd5b80621d3567146102e857806301ffc9a71461030a578063078108671461033f57806307e0db171461038557806310ddb137146103a55780631f9119b0146103c5575b600080fd5b3480156102f457600080fd5b50610308610303366004613481565b610989565b005b34801561031657600080fd5b5061032a610325366004613516565b610ba5565b60405190151581526020015b60405180910390f35b34801561034b57600080fd5b5061037761035a366004613540565b60fc60209081526000928352604080842090915290825290205481565b604051908152602001610336565b34801561039157600080fd5b506103086103a036600461356c565b610bd0565b3480156103b157600080fd5b506103086103c036600461356c565b610c3f565b3480156103d157600080fd5b506103086103e036600461359e565b610c7d565b3480156103f157600080fd5b506103776104003660046135df565b60009081526065602052604090206001015490565b34801561042157600080fd5b506103086104303660046135f8565b610d22565b34801561044157600080fd5b506103086104503660046135f8565b610d4c565b34801561046157600080fd5b5061046a610dca565b6040516103369190613628565b34801561048357600080fd5b5061032a61049236600461369d565b610edf565b3480156104a357600080fd5b506103086104b236600461369d565b610fab565b3480156104c357600080fd5b50610377600081565b3480156104d857600080fd5b506103086104e73660046136f1565b611017565b3480156104f857600080fd5b5061050c61050736600461371f565b61112c565b604051610336919061373d565b34801561052557600080fd5b5060026040516103369190613772565b34801561054157600080fd5b5061037761055036600461385d565b61012e602090815260009384526040808520845180860184018051928152908401958401959095209452929052825290205481565b34801561059157600080fd5b506101965461032a9060ff1681565b3480156105ac57600080fd5b506103086105bb3660046138bc565b6111f6565b3480156105cc57600080fd5b506103086105db366004613942565b611266565b3480156105ec57600080fd5b506106006105fb36600461356c565b6113d8565b60405161033691906139dd565b34801561061957600080fd5b50610308611472565b34801561062e57600080fd5b5061064261063d3660046139f0565b61148c565b6040516001600160a01b039091168152602001610336565b34801561066657600080fd5b5061032a6106753660046135f8565b6114ab565b34801561068657600080fd5b506103776101955481565b34801561069d57600080fd5b5060fd54610642906001600160a01b031681565b3480156106bd57600080fd5b506106006106cc36600461356c565b6114d6565b3480156106dd57600080fd5b506103086106ec36600461369d565b6115e5565b3480156106fd57600080fd5b5061030861070c36600461371f565b611663565b34801561071d57600080fd5b5061073161072c366004613a12565b61175b565b60408051928352602083019190915201610336565b34801561075257600080fd5b50610377600181565b34801561076757600080fd5b5060fa54610642906001600160a01b031681565b34801561078757600080fd5b50610308610796366004613942565b611817565b6103086107a9366004613a12565b61197b565b3480156107ba57600080fd5b506103086107c9366004613a7e565b6119cf565b3480156107da57600080fd5b506103086107e9366004613a7e565b611a2e565b3480156107fa57600080fd5b5061037761271081565b34801561081057600080fd5b5061037761081f3660046135df565b611a84565b34801561083057600080fd5b5061030861083f366004613a9b565b611a9b565b6103086108523660046138bc565b611b16565b34801561086357600080fd5b5061019a54610642906001600160a01b031681565b34801561088457600080fd5b506103086108933660046135f8565b611c6a565b3480156108a457600080fd5b506103086108b3366004613b0d565b611c8f565b3480156108c457600080fd5b506103086108d3366004613b4b565b611d43565b3480156108e457600080fd5b506103086108f336600461369d565b611d8f565b34801561090457600080fd5b506101615461032a9060ff1681565b34801561091f57600080fd5b5061032a61092e36600461371f565b611deb565b34801561093f57600080fd5b5061060061094e366004613b68565b611e3b565b34801561095f57600080fd5b50610308611ed0565b34801561097457600080fd5b5061019454610642906001600160a01b031681565b60fa546001600160a01b0316336001600160a01b0316146109f15760405162461bcd60e51b815260206004820152601e60248201527f4c7a4170703a20696e76616c696420656e64706f696e742063616c6c6572000060448201526064015b60405180910390fd5b61ffff8616600090815260fb602052604081208054610a0f90613bb9565b80601f0160208091040260200160405190810160405280929190818152602001828054610a3b90613bb9565b8015610a885780601f10610a5d57610100808354040283529160200191610a88565b820191906000526020600020905b815481529060010190602001808311610a6b57829003601f168201915b50505050509050805186869050148015610aa3575060008151115b8015610acb575080516020820120604051610ac19088908890613bf3565b6040518091039020145b610b265760405162461bcd60e51b815260206004820152602660248201527f4c7a4170703a20696e76616c696420736f757263652073656e64696e6720636f6044820152651b9d1c9858dd60d21b60648201526084016109e8565b610b9c8787878080601f01602080910402602001604051908101604052809392919081815260200183838082843760009201919091525050604080516020601f8a018190048102820181019092528881528a935091508890889081908401838280828437600092019190915250611ee792505050565b50505050505050565b60006001600160e01b03198216635a05180f60e01b1480610bca5750610bca82611fd9565b92915050565b610bda600061200e565b60fa546040516307e0db1760e01b815261ffff831660048201526001600160a01b03909116906307e0db17906024015b600060405180830381600087803b158015610c2457600080fd5b505af1158015610c38573d6000803e3d6000fd5b5050505050565b610c49600061200e565b60fa546040516310ddb13760e01b815261ffff831660048201526001600160a01b03909116906310ddb13790602401610c0a565b816001600160a01b038116610ca5576040516342bcdf7f60e11b815260040160405180910390fd5b610caf600061200e565b60405163a9059cbb60e01b81526001600160a01b0384811660048301526024820184905285169063a9059cbb906044016020604051808303816000875af1158015610cfe573d6000803e3d6000fd5b505050506040513d601f19601f82011682018060405250810190610c389190613c03565b600082815260656020526040902060010154610d3d8161200e565b610d47838361201b565b505050565b6001600160a01b0381163314610dbc5760405162461bcd60e51b815260206004820152602f60248201527f416363657373436f6e74726f6c3a2063616e206f6e6c792072656e6f756e636560448201526e103937b632b9903337b91039b2b63360891b60648201526084016109e8565b610dc6828261203d565b5050565b60606000610dd961019761205f565b90506000816001600160401b03811115610df557610df561379a565b604051908082528060200260200182016040528015610e4057816020015b6040805160608101825260008082526020808301829052928201528252600019909201910181610e135790505b50905060005b82811015610ed8576101996000610e5f61019784612069565b815260208082019290925260409081016000208151606081018352815461ffff811682526001600160a01b0362010000909104811694820194909452600190910154909216908201528251839083908110610ebc57610ebc613c20565b602002602001018190525080610ed190613c4c565b9050610e46565b5092915050565b61ffff8316600090815260fb602052604081208054829190610f0090613bb9565b80601f0160208091040260200160405190810160405280929190818152602001828054610f2c90613bb9565b8015610f795780601f10610f4e57610100808354040283529160200191610f79565b820191906000526020600020905b815481529060010190602001808311610f5c57829003601f168201915b505050505090508383604051610f90929190613bf3565b60405180910390208180519060200120149150509392505050565b610fb5600061200e565b60fa546040516342d65a8d60e01b81526001600160a01b03909116906342d65a8d90610fe990869086908690600401613c8e565b600060405180830381600087803b15801561100357600080fd5b505af1158015610b9c573d6000803e3d6000fd5b600054610100900460ff16158080156110375750600054600160ff909116105b806110515750303b158015611051575060005460ff166001145b6110b45760405162461bcd60e51b815260206004820152602e60248201527f496e697469616c697a61626c653a20636f6e747261637420697320616c72656160448201526d191e481a5b9a5d1a585b1a5e995960921b60648201526084016109e8565b6000805460ff1916600117905580156110d7576000805461ff0019166101001790555b6110e18383612075565b8015610d47576000805461ff0019169055604051600181527f7f26b83ff96e1f2b6a682f133852f6798a09c465da95921460cefb3847402498906020015b60405180910390a1505050565b60408051606080820183526000808352602080840182905283850191909152835161ffff8716818301526001600160a01b0386168186015284518082038601815292019093528051920191909120611186610197826120a6565b6111a3576040516309a93a6560e41b815260040160405180910390fd5b600090815261019960209081526040918290208251606081018452815461ffff811682526201000090046001600160a01b0390811693820193909352600190910154909116918101919091529392505050565b3330146112545760405162461bcd60e51b815260206004820152602660248201527f4e6f6e626c6f636b696e674c7a4170703a2063616c6c6572206d7573742062656044820152650204c7a4170760d41b60648201526084016109e8565b611260848484846120be565b50505050565b8261ffff168060000361128c5760405163273e150360e21b815260040160405180910390fd5b826001600160a01b0381166112b4576040516342bcdf7f60e11b815260040160405180910390fd5b826001600160a01b0381166112dc576040516342bcdf7f60e11b815260040160405180910390fd5b6112e6600061200e565b6040805161ffff88166020808301919091526001600160a01b0388168284015282518083038401815260609092019092528051910120611328610197826120a6565b156113465760405163645e8add60e11b815260040160405180910390fd5b61135261019782612128565b506040805160608101825261ffff98891681526001600160a01b03978816602080830191825297891682840190815260009485526101999098529190922091518254915198166001600160b01b031990911617620100009787169790970296909617865550509051600190930180546001600160a01b0319169390921692909217905550565b60fb60205260009081526040902080546113f190613bb9565b80601f016020809104026020016040519081016040528092919081815260200182805461141d90613bb9565b801561146a5780601f1061143f5761010080835404028352916020019161146a565b820191906000526020600020905b81548152906001019060200180831161144d57829003601f168201915b505050505081565b61147c600061200e565b610196805460ff19166001179055565b60008281526097602052604081206114a49083612069565b9392505050565b60009182526065602090815260408084206001600160a01b0393909316845291905290205460ff1690565b61ffff8116600090815260fb60205260408120805460609291906114f990613bb9565b80601f016020809104026020016040519081016040528092919081815260200182805461152590613bb9565b80156115725780601f1061154757610100808354040283529160200191611572565b820191906000526020600020905b81548152906001019060200180831161155557829003601f168201915b5050505050905080516000036115ca5760405162461bcd60e51b815260206004820152601d60248201527f4c7a4170703a206e6f20747275737465642070617468207265636f726400000060448201526064016109e8565b6114a46000601483516115dd9190613cac565b839190612134565b6115ef600061200e565b81813060405160200161160493929190613cbf565b60408051601f1981840301815291815261ffff8516600090815260fb602052209061162f9082613d2b565b507f8c0400cfe2d1199b1a725c78960bcc2a344d869b80590d0f2bd005db15a572ce83838360405161111f93929190613c8e565b8161ffff16806000036116895760405163273e150360e21b815260040160405180910390fd5b816001600160a01b0381166116b1576040516342bcdf7f60e11b815260040160405180910390fd5b6116bb600061200e565b6040805161ffff86166020808301919091526001600160a01b03861682840152825180830384018152606090920190925280519101206116fd610197826120a6565b61171a576040516309a93a6560e41b815260040160405180910390fd5b61172661019782612241565b5060009081526101996020526040902080546001600160b01b031916815560010180546001600160a01b031916905550505050565b60008060008088878787604051602001611779959493929190613dea565b60408051601f1981840301815260fa546000808552602085019384905263040a7bb160e41b9093529093506001600160a01b0316916340a7bb10916117c8918b91309187919060248101613e2a565b6040805180830381865afa1580156117e4573d6000803e3d6000fd5b505050506040513d601f19601f820116820180604052508101906118089190613e72565b92509250509550959350505050565b8261ffff168060000361183d5760405163273e150360e21b815260040160405180910390fd5b826001600160a01b038116611865576040516342bcdf7f60e11b815260040160405180910390fd5b826001600160a01b03811661188d576040516342bcdf7f60e11b815260040160405180910390fd5b611897600061200e565b6040805161ffff88166020808301919091526001600160a01b03881682840152825180830384018152606090920190925280519101206118d9610197826120a6565b6118f6576040516309a93a6560e41b815260040160405180910390fd5b6040805160608101825261ffff98891681526001600160a01b03978816602080830191825297891682840190815260009485526101999098529190922091518254915198166001600160b01b031990911617620100009787169790970296909617865550509051600190930180546001600160a01b0319169390921692909217905550565b610c3885338686868080601f016020809104026020016040519081016040528093929190818152602001838380828437600092018290525060408051828152602081019091528a945033935090915061224d565b6119d9600061200e565b60fd80546001600160a01b0319166001600160a01b0383169081179091556040519081527f5db758e995a17ec1ad84bdef7e8c3293a0bd6179bcce400dff5d4c3d87db726b906020015b60405180910390a150565b806001600160a01b038116611a56576040516342bcdf7f60e11b815260040160405180910390fd5b611a60600061200e565b5061019a80546001600160a01b0319166001600160a01b0392909216919091179055565b6000818152609760205260408120610bca9061205f565b611aa5600061200e565b60fa546040516332fb62e760e21b81526001600160a01b039091169063cbed8b9c90611add9088908890889088908890600401613e96565b600060405180830381600087803b158015611af757600080fd5b505af1158015611b0b573d6000803e3d6000fd5b505050505050505050565b61ffff8416600090815261012e60205260408082209051611b38908690613ecf565b90815260408051602092819003830190206001600160401b03861660009081529252902054905080611bb85760405162461bcd60e51b815260206004820152602360248201527f4e6f6e626c6f636b696e674c7a4170703a206e6f2073746f726564206d65737360448201526261676560e81b60648201526084016109e8565b815160208301208114611c175760405162461bcd60e51b815260206004820152602160248201527f4e6f6e626c6f636b696e674c7a4170703a20696e76616c6964207061796c6f616044820152601960fa1b60648201526084016109e8565b61ffff8516600090815261012e60205260408082209051611c39908790613ecf565b90815260408051602092819003830190206001600160401b03871660009081529252902055610c38858585856120be565b600082815260656020526040902060010154611c858161200e565b610d47838361203d565b611c99600061200e565b60008111611ce15760405162461bcd60e51b81526020600482015260156024820152744c7a4170703a20696e76616c6964206d696e47617360581b60448201526064016109e8565b61ffff838116600081815260fc602090815260408083209487168084529482529182902085905581519283528201929092529081018290527f9d5c7c0b934da8fefa9c7760c98383778a12dfbfc0c3b3106518f43fb9508ac09060600161111f565b611d4d600061200e565b610161805460ff19168215159081179091556040519081527f1584ad594a70cbe1e6515592e1272a987d922b097ead875069cebe8b40c004a490602001611a23565b611d99600061200e565b61ffff8316600090815260fb60205260409020611db7828483613eeb565b507ffa41487ad5d6728f0b19276fa1eddc16558578f5109fc39d2dc33c3230470dab83838360405161111f93929190613c8e565b6040805161ffff841660208201526001600160a01b038316918101919091526000906114a490606001604051602081830303815290604052805190602001206101976120a690919063ffffffff16565b60fa54604051633d7b2f6f60e21b815261ffff808716600483015285166024820152306044820152606481018390526060916001600160a01b03169063f5ecbdbc90608401600060405180830381865afa158015611e9d573d6000803e3d6000fd5b505050506040513d6000823e601f3d908101601f19168201604052611ec59190810190613fef565b90505b949350505050565b611eda600061200e565b610196805460ff19169055565b604051633356ae4560e11b815230906366ad5c8a90611f10908790879087908790600401614023565b600060405180830381600087803b158015611f2a57600080fd5b505af1925050508015611f3b575060015b61126057808051906020012061012e60008661ffff1661ffff16815260200190815260200160002084604051611f719190613ecf565b9081526040805191829003602090810183206001600160401b0387166000908152915220919091557fe6f254030bcb01ffd20558175c13fcaed6d1520be7becee4c961b65f79243b0d90611fcc908690869086908690614023565b60405180910390a1611260565b60006001600160e01b03198216637965db0b60e01b1480610bca57506301ffc9a760e01b6001600160e01b0319831614610bca565b6120188133612302565b50565b612025828261235b565b6000828152609760205260409020610d4790826123e1565b61204782826123f6565b6000828152609760205260409020610d47908261245d565b6000610bca825490565b60006114a48383612472565b600054610100900460ff1661209c5760405162461bcd60e51b81526004016109e890614061565b610dc6828261249c565b600081815260018301602052604081205415156114a4565b602081015161ffff81166000036120e0576120db858585856124cd565b610c38565b60405162461bcd60e51b815260206004820152601c60248201527f4f4654436f72653a20756e6b6e6f776e207061636b657420747970650000000060448201526064016109e8565b60006114a48383612567565b60608161214281601f6140ac565b10156121815760405162461bcd60e51b815260206004820152600e60248201526d736c6963655f6f766572666c6f7760901b60448201526064016109e8565b61218b82846140ac565b845110156121cf5760405162461bcd60e51b8152602060048201526011602482015270736c6963655f6f75744f66426f756e647360781b60448201526064016109e8565b6060821580156121ee5760405191506000825260208201604052612238565b6040519150601f8416801560200281840101858101878315602002848b0101015b8183101561222757805183526020928301920161220f565b5050858452601f01601f1916604052505b50949350505050565b60006114a483836125b6565b61225b8660008360006126a9565b600061226a8989898989612724565b90506000808a888460405160200161228594939291906140bf565b60405160208183030381529060405290506122a48882878787346128e0565b886001600160a01b03168a6001600160a01b03168961ffff167f862438c1aa68cd638fd7f177afa4b83b1297e06dc6fcaa6cabb5ed8ce6b1de758a866040516122ee9291906140fd565b60405180910390a450505050505050505050565b61230c82826114ab565b610dc65761231981612a5e565b612324836020612a70565b60405160200161233592919061411f565b60408051601f198184030181529082905262461bcd60e51b82526109e8916004016139dd565b61236582826114ab565b610dc65760008281526065602090815260408083206001600160a01b03851684529091529020805460ff1916600117905561239d3390565b6001600160a01b0316816001600160a01b0316837f2f8788117e7eff1d82e926ec794901d17c78024a50270940304540a733656f0d60405160405180910390a45050565b60006114a4836001600160a01b038416612567565b61240082826114ab565b15610dc65760008281526065602090815260408083206001600160a01b0385168085529252808320805460ff1916905551339285917ff6391f5c32d9c69d2a47ea670b442974b53935d1edc7fd64eb21e047a839171b9190a45050565b60006114a4836001600160a01b0384166125b6565b600082600001828154811061248957612489613c20565b9060005260206000200154905092915050565b600054610100900460ff166124c35760405162461bcd60e51b81526004016109e890614061565b610dc68282612c0b565b6000806000838060200190518101906124e69190614194565b91955093509150600090506124fb8382612c3c565b905061250984898385612ca1565b9150806001600160a01b03168861ffff16856001600160a01b03167faec3ee8f36dfc1298802f2e6692b3abba814ac6532cadf6c7e1c0e13610f1b688560405161255591815260200190565b60405180910390a45050505050505050565b60008181526001830160205260408120546125ae57508154600181810184556000848152602080822090930184905584548482528286019093526040902091909155610bca565b506000610bca565b6000818152600183016020526040812054801561269f5760006125da600183613cac565b85549091506000906125ee90600190613cac565b905081811461265357600086600001828154811061260e5761260e613c20565b906000526020600020015490508087600001848154811061263157612631613c20565b6000918252602080832090910192909255918252600188019052604090208390555b8554869080612664576126646141ff565b600190038181906000526020600020016000905590558560010160008681526020019081526020016000206000905560019350505050610bca565b6000915050610bca565b6101615460ff16156126c6576126c184848484613248565b611260565b8151156112605760405162461bcd60e51b815260206004820152602660248201527f4f4654436f72653a205f61646170746572506172616d73206d7573742062652060448201526532b6b83a3c9760d11b60648201526084016109e8565b6101965460009060ff161561274c576040516313d0ff5960e31b815260040160405180910390fd5b6001600160a01b0385163314612775576040516308f4d2af60e21b815260040160405180910390fd5b6040516370a0823160e01b815230600482015286906000906001600160a01b038316906370a0823190602401602060405180830381865afa1580156127be573d6000803e3d6000fd5b505050506040513d601f19601f820116820180604052508101906127e29190614215565b6040516323b872dd60e01b81526001600160a01b03898116600483015230602483015260448201879052919250908316906323b872dd906064016020604051808303816000875af115801561283b573d6000803e3d6000fd5b505050506040513d601f19601f8201168201806040525081019061285f9190613c03565b506040516370a0823160e01b815230600482015281906001600160a01b038416906370a0823190602401602060405180830381865afa1580156128a6573d6000803e3d6000fd5b505050506040513d601f19601f820116820180604052508101906128ca9190614215565b6128d49190613cac565b98975050505050505050565b61ffff8616600090815260fb6020526040812080546128fe90613bb9565b80601f016020809104026020016040519081016040528092919081815260200182805461292a90613bb9565b80156129775780601f1061294c57610100808354040283529160200191612977565b820191906000526020600020905b81548152906001019060200180831161295a57829003601f168201915b5050505050905080516000036129e85760405162461bcd60e51b815260206004820152603060248201527f4c7a4170703a2064657374696e6174696f6e20636861696e206973206e6f742060448201526f61207472757374656420736f7572636560801b60648201526084016109e8565b60fa5460405162c5803160e81b81526001600160a01b039091169063c5803100908490612a23908b9086908c908c908c908c9060040161422e565b6000604051808303818588803b158015612a3c57600080fd5b505af1158015612a50573d6000803e3d6000fd5b505050505050505050505050565b6060610bca6001600160a01b03831660145b60606000612a7f836002614295565b612a8a9060026140ac565b6001600160401b03811115612aa157612aa161379a565b6040519080825280601f01601f191660200182016040528015612acb576020820181803683370190505b509050600360fc1b81600081518110612ae657612ae6613c20565b60200101906001600160f81b031916908160001a905350600f60fb1b81600181518110612b1557612b15613c20565b60200101906001600160f81b031916908160001a9053506000612b39846002614295565b612b449060016140ac565b90505b6001811115612bbc576f181899199a1a9b1b9c1cb0b131b232b360811b85600f1660108110612b7857612b78613c20565b1a60f81b828281518110612b8e57612b8e613c20565b60200101906001600160f81b031916908160001a90535060049490941c93612bb5816142ac565b9050612b47565b5083156114a45760405162461bcd60e51b815260206004820181905260248201527f537472696e67733a20686578206c656e67746820696e73756666696369656e7460448201526064016109e8565b600054610100900460ff16612c325760405162461bcd60e51b81526004016109e890614061565b610dc6828261332f565b6000612c498260146140ac565b83511015612c915760405162461bcd60e51b8152602060048201526015602482015274746f416464726573735f6f75744f66426f756e647360581b60448201526064016109e8565b500160200151600160601b900490565b600080612cae858761112c565b60408101519091506001600160a01b038116612cdd576040516342bcdf7f60e11b815260040160405180910390fd5b61019a5481906001600160a01b0316612e58576040516370a0823160e01b81526001600160a01b038781166004830152600091908316906370a0823190602401602060405180830381865afa158015612d3a573d6000803e3d6000fd5b505050506040513d601f19601f82011682018060405250810190612d5e9190614215565b60405163a9059cbb60e01b81526001600160a01b038981166004830152602482018990529192509083169063a9059cbb906044016020604051808303816000875af1158015612db1573d6000803e3d6000fd5b505050506040513d601f19601f82011682018060405250810190612dd59190613c03565b506040516370a0823160e01b81526001600160a01b0388811660048301528291908416906370a0823190602401602060405180830381865afa158015612e1f573d6000803e3d6000fd5b505050506040513d601f19601f82011682018060405250810190612e439190614215565b612e4d9190613cac565b945050505050611ec8565b61019a546040516320a8fc9b60e11b81526001600160a01b038481166004830152602482018890526000921690634151f93690604401602060405180830381865afa158015612eab573d6000803e3d6000fd5b505050506040513d601f19601f82011682018060405250810190612ecf9190613c03565b905080156130cb5761019a546040516370a0823160e01b81526001600160a01b0391821660048201526000918416906370a0823190602401602060405180830381865afa158015612f24573d6000803e3d6000fd5b505050506040513d601f19601f82011682018060405250810190612f489190614215565b61019a5460405163a9059cbb60e01b81526001600160a01b039182166004820152602481018a905291925084169063a9059cbb906044016020604051808303816000875af1158015612f9e573d6000803e3d6000fd5b505050506040513d601f19601f82011682018060405250810190612fc29190613c03565b5061019a546040516391b5e57160e01b81526001600160a01b0386811660048301528a81166024830152604482018a9052909116906391b5e571906064016020604051808303816000875af115801561301f573d6000803e3d6000fd5b505050506040513d601f19601f820116820180604052508101906130439190614215565b5061019a546040516370a0823160e01b81526001600160a01b03918216600482015282918516906370a08231906024015b602060405180830381865afa158015613091573d6000803e3d6000fd5b505050506040513d601f19601f820116820180604052508101906130b59190614215565b6130bf9190613cac565b95505050505050611ec8565b6040516370a0823160e01b81526001600160a01b038881166004830152600091908416906370a0823190602401602060405180830381865afa158015613115573d6000803e3d6000fd5b505050506040513d601f19601f820116820180604052508101906131399190614215565b60405163a9059cbb60e01b81526001600160a01b038a81166004830152602482018a90529192509084169063a9059cbb906044016020604051808303816000875af115801561318c573d6000803e3d6000fd5b505050506040513d601f19601f820116820180604052508101906131b09190613c03565b5061019a5460405163ea783e4160e01b81526001600160a01b038681166004830152602482018a90529091169063ea783e4190604401600060405180830381600087803b15801561320057600080fd5b505af1158015613214573d6000803e3d6000fd5b50506040516370a0823160e01b81526001600160a01b038b81166004830152849350861691506370a0823190602401613074565b60006132538361337a565b61ffff808716600090815260fc60209081526040808320938916835292905290812054919250906132859084906140ac565b9050600081116132d75760405162461bcd60e51b815260206004820152601a60248201527f4c7a4170703a206d696e4761734c696d6974206e6f742073657400000000000060448201526064016109e8565b808210156133275760405162461bcd60e51b815260206004820152601b60248201527f4c7a4170703a20676173206c696d697420697320746f6f206c6f77000000000060448201526064016109e8565b505050505050565b600054610100900460ff166133565760405162461bcd60e51b81526004016109e890614061565b60fa80546001600160a01b0319166001600160a01b038416179055610dc6816133d6565b60006022825110156133ce5760405162461bcd60e51b815260206004820152601c60248201527f4c7a4170703a20696e76616c69642061646170746572506172616d730000000060448201526064016109e8565b506022015190565b600054610100900460ff166133fd5760405162461bcd60e51b81526004016109e890614061565b612018600082610dc6828261201b565b61ffff8116811461201857600080fd5b60008083601f84011261342f57600080fd5b5081356001600160401b0381111561344657600080fd5b60208301915083602082850101111561345e57600080fd5b9250929050565b80356001600160401b038116811461347c57600080fd5b919050565b6000806000806000806080878903121561349a57600080fd5b86356134a58161340d565b955060208701356001600160401b03808211156134c157600080fd5b6134cd8a838b0161341d565b90975095508591506134e160408a01613465565b945060608901359150808211156134f757600080fd5b5061350489828a0161341d565b979a9699509497509295939492505050565b60006020828403121561352857600080fd5b81356001600160e01b0319811681146114a457600080fd5b6000806040838503121561355357600080fd5b823561355e8161340d565b946020939093013593505050565b60006020828403121561357e57600080fd5b81356114a48161340d565b6001600160a01b038116811461201857600080fd5b6000806000606084860312156135b357600080fd5b83356135be81613589565b925060208401356135ce81613589565b929592945050506040919091013590565b6000602082840312156135f157600080fd5b5035919050565b6000806040838503121561360b57600080fd5b82359150602083013561361d81613589565b809150509250929050565b6020808252825182820181905260009190848201906040850190845b818110156136915761367e838551805161ffff1682526020808201516001600160a01b039081169184019190915260409182015116910152565b9284019260609290920191600101613644565b50909695505050505050565b6000806000604084860312156136b257600080fd5b83356136bd8161340d565b925060208401356001600160401b038111156136d857600080fd5b6136e48682870161341d565b9497909650939450505050565b6000806040838503121561370457600080fd5b823561370f81613589565b9150602083013561361d81613589565b6000806040838503121561373257600080fd5b823561370f8161340d565b60608101610bca8284805161ffff1682526020808201516001600160a01b039081169184019190915260409182015116910152565b602081016003831061379457634e487b7160e01b600052602160045260246000fd5b91905290565b634e487b7160e01b600052604160045260246000fd5b604051601f8201601f191681016001600160401b03811182821017156137d8576137d861379a565b604052919050565b60006001600160401b038211156137f9576137f961379a565b50601f01601f191660200190565b600082601f83011261381857600080fd5b813561382b613826826137e0565b6137b0565b81815284602083860101111561384057600080fd5b816020850160208301376000918101602001919091529392505050565b60008060006060848603121561387257600080fd5b833561387d8161340d565b925060208401356001600160401b0381111561389857600080fd5b6138a486828701613807565b9250506138b360408501613465565b90509250925092565b600080600080608085870312156138d257600080fd5b84356138dd8161340d565b935060208501356001600160401b03808211156138f957600080fd5b61390588838901613807565b945061391360408801613465565b9350606087013591508082111561392957600080fd5b5061393687828801613807565b91505092959194509250565b60008060006060848603121561395757600080fd5b83356139628161340d565b9250602084013561397281613589565b9150604084013561398281613589565b809150509250925092565b60005b838110156139a8578181015183820152602001613990565b50506000910152565b600081518084526139c981602086016020860161398d565b601f01601f19169290920160200192915050565b6020815260006114a460208301846139b1565b60008060408385031215613a0357600080fd5b50508035926020909101359150565b600080600080600060808688031215613a2a57600080fd5b8535613a3581613589565b94506020860135613a458161340d565b935060408601356001600160401b03811115613a6057600080fd5b613a6c8882890161341d565b96999598509660600135949350505050565b600060208284031215613a9057600080fd5b81356114a481613589565b600080600080600060808688031215613ab357600080fd5b8535613abe8161340d565b94506020860135613ace8161340d565b93506040860135925060608601356001600160401b03811115613af057600080fd5b613afc8882890161341d565b969995985093965092949392505050565b600080600060608486031215613b2257600080fd5b8335613b2d8161340d565b925060208401356135ce8161340d565b801515811461201857600080fd5b600060208284031215613b5d57600080fd5b81356114a481613b3d565b60008060008060808587031215613b7e57600080fd5b8435613b898161340d565b93506020850135613b998161340d565b92506040850135613ba981613589565b9396929550929360600135925050565b600181811c90821680613bcd57607f821691505b602082108103613bed57634e487b7160e01b600052602260045260246000fd5b50919050565b8183823760009101908152919050565b600060208284031215613c1557600080fd5b81516114a481613b3d565b634e487b7160e01b600052603260045260246000fd5b634e487b7160e01b600052601160045260246000fd5b600060018201613c5e57613c5e613c36565b5060010190565b81835281816020850137506000828201602090810191909152601f909101601f19169091010190565b61ffff84168152604060208201526000611ec5604083018486613c65565b81810381811115610bca57610bca613c36565b8284823760609190911b6bffffffffffffffffffffffff19169101908152601401919050565b601f821115610d4757600081815260208120601f850160051c81016020861015613d0c5750805b601f850160051c820191505b8181101561332757828155600101613d18565b81516001600160401b03811115613d4457613d4461379a565b613d5881613d528454613bb9565b84613ce5565b602080601f831160018114613d8d5760008415613d755750858301515b600019600386901b1c1916600185901b178555613327565b600085815260208120601f198616915b82811015613dbc57888601518255948401946001909101908401613d9d565b5085821015613dda5787850151600019600388901b60f8161c191681555b5050505050600190811b01905550565b60ff861681526001600160a01b0385166020820152608060408201819052600090613e189083018587613c65565b90508260608301529695505050505050565b61ffff861681526001600160a01b038516602082015260a060408201819052600090613e58908301866139b1565b841515606084015282810360808401526128d481856139b1565b60008060408385031215613e8557600080fd5b505080516020909101519092909150565b600061ffff808816835280871660208401525084604083015260806060830152613ec4608083018486613c65565b979650505050505050565b60008251613ee181846020870161398d565b9190910192915050565b6001600160401b03831115613f0257613f0261379a565b613f1683613f108354613bb9565b83613ce5565b6000601f841160018114613f4a5760008515613f325750838201355b600019600387901b1c1916600186901b178355610c38565b600083815260209020601f19861690835b82811015613f7b5786850135825560209485019460019092019101613f5b565b5086821015613f985760001960f88860031b161c19848701351681555b505060018560011b0183555050505050565b600082601f830112613fbb57600080fd5b8151613fc9613826826137e0565b818152846020838601011115613fde57600080fd5b611ec882602083016020870161398d565b60006020828403121561400157600080fd5b81516001600160401b0381111561401757600080fd5b611ec884828501613faa565b61ffff8516815260806020820152600061404060808301866139b1565b6001600160401b03851660408401528281036060840152613ec481856139b1565b6020808252602b908201527f496e697469616c697a61626c653a20636f6e7472616374206973206e6f74206960408201526a6e697469616c697a696e6760a81b606082015260800190565b80820180821115610bca57610bca613c36565b60ff851681526001600160a01b03841660208201526080604082018190526000906140ec908301856139b1565b905082606083015295945050505050565b60408152600061411060408301856139b1565b90508260208301529392505050565b7f416363657373436f6e74726f6c3a206163636f756e742000000000000000000081526000835161415781601785016020880161398d565b7001034b99036b4b9b9b4b733903937b6329607d1b601791840191820152835161418881602884016020880161398d565b01602801949350505050565b600080600080608085870312156141aa57600080fd5b84516141b58161340d565b60208601519094506141c681613589565b60408601519093506001600160401b038111156141e257600080fd5b6141ee87828801613faa565b606096909601519497939650505050565b634e487b7160e01b600052603160045260246000fd5b60006020828403121561422757600080fd5b5051919050565b61ffff8716815260c06020820152600061424b60c08301886139b1565b828103604084015261425d81886139b1565b6001600160a01b0387811660608601528616608085015283810360a0850152905061428881856139b1565b9998505050505050505050565b8082028115828204841417610bca57610bca613c36565b6000816142bb576142bb613c36565b50600019019056fea264697066735822122029f0eb2b7b6cea44e85fcb6a14cf3a73922d9544cc1ee229cbee448bc52bf25b64736f6c63430008130033",
  "linkReferences": {},
  "deployedLinkReferences": {}
}