{
  "_format": "hh-sol-artifact-1",
  "contractName": "OFTUpgradeable",
  "sourceName": "contracts/OFT-upgradable/OFTUpgradeable.sol",
  "abi": [
    {
      "anonymous": false,
      "inputs": [
        {
          "indexed": true,
          "internalType": "address",
          "name": "owner",
          "type": "address"
        },
        {
          "indexed": true,
          "internalType": "address",
          "name": "spender",
          "type": "address"
        },
        {
          "indexed": false,
          "internalType": "uint256",
          "name": "value",
          "type": "uint256"
        }
      ],
      "name": "Approval",
      "type": "event"
    },
    {
      "anonymous": false,
      "inputs": [
        {
          "indexed": false,
          "internalType": "uint8",
          "name": "version",
          "type": "uint8"
        }
      ],
      "name": "Initialized",
      "type": "event"
    },
    {
      "anonymous": false,
      "inputs": [
        {
          "indexed": false,
          "internalType": "uint16",
          "name": "_srcChainId",
          "type": "uint16"
        },
        {
          "indexed": false,
          "internalType": "bytes",
          "name": "_srcAddress",
          "type": "bytes"
        },
        {
          "indexed": false,
          "internalType": "uint64",
          "name": "_nonce",
          "type": "uint64"
        },
        {
          "indexed": false,
          "internalType": "bytes",
          "name": "_payload",
          "type": "bytes"
        }
      ],
      "name": "MessageFailed",
      "type": "event"
    },
    {
      "anonymous": false,
      "inputs": [
        {
          "indexed": true,
          "internalType": "uint16",
          "name": "_srcChainId",
          "type": "uint16"
        },
        {
          "indexed": true,
          "internalType": "address",
          "name": "_to",
          "type": "address"
        },
        {
          "indexed": false,
          "internalType": "uint256",
          "name": "_amount",
          "type": "uint256"
        }
      ],
      "name": "ReceiveFromChain",
      "type": "event"
    },
    {
      "anonymous": false,
      "inputs": [
        {
          "indexed": true,
          "internalType": "bytes32",
          "name": "role",
          "type": "bytes32"
        },
        {
          "indexed": true,
          "internalType": "bytes32",
          "name": "previousAdminRole",
          "type": "bytes32"
        },
        {
          "indexed": true,
          "internalType": "bytes32",
          "name": "newAdminRole",
          "type": "bytes32"
        }
      ],
      "name": "RoleAdminChanged",
      "type": "event"
    },
    {
      "anonymous": false,
      "inputs": [
        {
          "indexed": true,
          "internalType": "bytes32",
          "name": "role",
          "type": "bytes32"
        },
        {
          "indexed": true,
          "internalType": "address",
          "name": "account",
          "type": "address"
        },
        {
          "indexed": true,
          "internalType": "address",
          "name": "sender",
          "type": "address"
        }
      ],
      "name": "RoleGranted",
      "type": "event"
    },
    {
      "anonymous": false,
      "inputs": [
        {
          "indexed": true,
          "internalType": "bytes32",
          "name": "role",
          "type": "bytes32"
        },
        {
          "indexed": true,
          "internalType": "address",
          "name": "account",
          "type": "address"
        },
        {
          "indexed": true,
          "internalType": "address",
          "name": "sender",
          "type": "address"
        }
      ],
      "name": "RoleRevoked",
      "type": "event"
    },
    {
      "anonymous": false,
      "inputs": [
        {
          "indexed": true,
          "internalType": "uint16",
          "name": "_dstChainId",
          "type": "uint16"
        },
        {
          "indexed": true,
          "internalType": "address",
          "name": "_from",
          "type": "address"
        },
        {
          "indexed": false,
          "internalType": "bytes",
          "name": "_toAddress",
          "type": "bytes"
        },
        {
          "indexed": false,
          "internalType": "uint256",
          "name": "_amount",
          "type": "uint256"
        }
      ],
      "name": "SendToChain",
      "type": "event"
    },
    {
      "anonymous": false,
      "inputs": [
        {
          "indexed": false,
          "internalType": "uint16",
          "name": "_dstChainId",
          "type": "uint16"
        },
        {
          "indexed": false,
          "internalType": "uint16",
          "name": "_type",
          "type": "uint16"
        },
        {
          "indexed": false,
          "internalType": "uint256",
          "name": "_minDstGas",
          "type": "uint256"
        }
      ],
      "name": "SetMinDstGas",
      "type": "event"
    },
    {
      "anonymous": false,
      "inputs": [
        {
          "indexed": false,
          "internalType": "uint16",
          "name": "_dstChainId",
          "type": "uint16"
        },
        {
          "indexed": false,
          "internalType": "uint256",
          "name": "_type",
          "type": "uint256"
        },
        {
          "indexed": false,
          "internalType": "uint256",
          "name": "_dstGasAmount",
          "type": "uint256"
        }
      ],
      "name": "SetMinDstGasLookup",
      "type": "event"
    },
    {
      "anonymous": false,
      "inputs": [
        {
          "indexed": false,
          "internalType": "address",
          "name": "precrime",
          "type": "address"
        }
      ],
      "name": "SetPrecrime",
      "type": "event"
    },
    {
      "anonymous": false,
      "inputs": [
        {
          "indexed": false,
          "internalType": "uint16",
          "name": "_srcChainId",
          "type": "uint16"
        },
        {
          "indexed": false,
          "internalType": "bytes",
          "name": "_srcAddress",
          "type": "bytes"
        }
      ],
      "name": "SetTrustedRemote",
      "type": "event"
    },
    {
      "anonymous": false,
      "inputs": [
        {
          "indexed": false,
          "internalType": "uint16",
          "name": "_remoteChainId",
          "type": "uint16"
        },
        {
          "indexed": false,
          "internalType": "bytes",
          "name": "_remoteAddress",
          "type": "bytes"
        }
      ],
      "name": "SetTrustedRemoteAddress",
      "type": "event"
    },
    {
      "anonymous": false,
      "inputs": [
        {
          "indexed": false,
          "internalType": "bool",
          "name": "_useCustomAdapterParams",
          "type": "bool"
        }
      ],
      "name": "SetUseCustomAdapterParams",
      "type": "event"
    },
    {
      "anonymous": false,
      "inputs": [
        {
          "indexed": true,
          "internalType": "address",
          "name": "from",
          "type": "address"
        },
        {
          "indexed": true,
          "internalType": "address",
          "name": "to",
          "type": "address"
        },
        {
          "indexed": false,
          "internalType": "uint256",
          "name": "value",
          "type": "uint256"
        }
      ],
      "name": "Transfer",
      "type": "event"
    },
    {
      "inputs": [],
      "name": "DEFAULT_ADMIN_ROLE",
      "outputs": [
        {
          "internalType": "bytes32",
          "name": "",
          "type": "bytes32"
        }
      ],
      "stateMutability": "view",
      "type": "function"
    },
    {
      "inputs": [],
      "name": "DEFAULT_PAYLOAD_SIZE_LIMIT",
      "outputs": [
        {
          "internalType": "uint256",
          "name": "",
          "type": "uint256"
        }
      ],
      "stateMutability": "view",
      "type": "function"
    },
    {
      "inputs": [],
      "name": "FUNCTION_TYPE_SEND",
      "outputs": [
        {
          "internalType": "uint256",
          "name": "",
          "type": "uint256"
        }
      ],
      "stateMutability": "view",
      "type": "function"
    },
    {
      "inputs": [],
      "name": "MINTER_ROLE",
      "outputs": [
        {
          "internalType": "bytes32",
          "name": "",
          "type": "bytes32"
        }
      ],
      "stateMutability": "view",
      "type": "function"
    },
    {
      "inputs": [],
      "name": "NO_EXTRA_GAS",
      "outputs": [
        {
          "internalType": "uint256",
          "name": "",
          "type": "uint256"
        }
      ],
      "stateMutability": "view",
      "type": "function"
    },
    {
      "inputs": [],
      "name": "PAUSER_ROLE",
      "outputs": [
        {
          "internalType": "bytes32",
          "name": "",
          "type": "bytes32"
        }
      ],
      "stateMutability": "view",
      "type": "function"
    },
    {
      "inputs": [
        {
          "internalType": "address",
          "name": "owner",
          "type": "address"
        },
        {
          "internalType": "address",
          "name": "spender",
          "type": "address"
        }
      ],
      "name": "allowance",
      "outputs": [
        {
          "internalType": "uint256",
          "name": "",
          "type": "uint256"
        }
      ],
      "stateMutability": "view",
      "type": "function"
    },
    {
      "inputs": [
        {
          "internalType": "address",
          "name": "spender",
          "type": "address"
        },
        {
          "internalType": "uint256",
          "name": "amount",
          "type": "uint256"
        }
      ],
      "name": "approve",
      "outputs": [
        {
          "internalType": "bool",
          "name": "",
          "type": "bool"
        }
      ],
      "stateMutability": "nonpayable",
      "type": "function"
    },
    {
      "inputs": [
        {
          "internalType": "address",
          "name": "account",
          "type": "address"
        }
      ],
      "name": "balanceOf",
      "outputs": [
        {
          "internalType": "uint256",
          "name": "",
          "type": "uint256"
        }
      ],
      "stateMutability": "view",
      "type": "function"
    },
    {
      "inputs": [],
      "name": "circulatingSupply",
      "outputs": [
        {
          "internalType": "uint256",
          "name": "",
          "type": "uint256"
        }
      ],
      "stateMutability": "view",
      "type": "function"
    },
    {
      "inputs": [],
      "name": "decimals",
      "outputs": [
        {
          "internalType": "uint8",
          "name": "",
          "type": "uint8"
        }
      ],
      "stateMutability": "view",
      "type": "function"
    },
    {
      "inputs": [
        {
          "internalType": "address",
          "name": "spender",
          "type": "address"
        },
        {
          "internalType": "uint256",
          "name": "subtractedValue",
          "type": "uint256"
        }
      ],
      "name": "decreaseAllowance",
      "outputs": [
        {
          "internalType": "bool",
          "name": "",
          "type": "bool"
        }
      ],
      "stateMutability": "nonpayable",
      "type": "function"
    },
    {
      "inputs": [
        {
          "internalType": "uint16",
          "name": "_dstChainId",
          "type": "uint16"
        },
        {
          "internalType": "bytes",
          "name": "_toAddress",
          "type": "bytes"
        },
        {
          "internalType": "uint256",
          "name": "_amount",
          "type": "uint256"
        },
        {
          "internalType": "bool",
          "name": "_useZro",
          "type": "bool"
        },
        {
          "internalType": "bytes",
          "name": "_adapterParams",
          "type": "bytes"
        }
      ],
      "name": "estimateSendFee",
      "outputs": [
        {
          "internalType": "uint256",
          "name": "nativeFee",
          "type": "uint256"
        },
        {
          "internalType": "uint256",
          "name": "zroFee",
          "type": "uint256"
        }
      ],
      "stateMutability": "view",
      "type": "function"
    },
    {
      "inputs": [
        {
          "internalType": "uint16",
          "name": "",
          "type": "uint16"
        },
        {
          "internalType": "bytes",
          "name": "",
          "type": "bytes"
        },
        {
          "internalType": "uint64",
          "name": "",
          "type": "uint64"
        }
      ],
      "name": "failedMessages",
      "outputs": [
        {
          "internalType": "bytes32",
          "name": "",
          "type": "bytes32"
        }
      ],
      "stateMutability": "view",
      "type": "function"
    },
    {
      "inputs": [
        {
          "internalType": "uint16",
          "name": "_srcChainId",
          "type": "uint16"
        },
        {
          "internalType": "bytes",
          "name": "_srcAddress",
          "type": "bytes"
        }
      ],
      "name": "forceResumeReceive",
      "outputs": [],
      "stateMutability": "nonpayable",
      "type": "function"
    },
    {
      "inputs": [
        {
          "internalType": "uint16",
          "name": "_version",
          "type": "uint16"
        },
        {
          "internalType": "uint16",
          "name": "_chainId",
          "type": "uint16"
        },
        {
          "internalType": "address",
          "name": "",
          "type": "address"
        },
        {
          "internalType": "uint256",
          "name": "_configType",
          "type": "uint256"
        }
      ],
      "name": "getConfig",
      "outputs": [
        {
          "internalType": "bytes",
          "name": "",
          "type": "bytes"
        }
      ],
      "stateMutability": "view",
      "type": "function"
    },
    {
      "inputs": [
        {
          "internalType": "bytes32",
          "name": "role",
          "type": "bytes32"
        }
      ],
      "name": "getRoleAdmin",
      "outputs": [
        {
          "internalType": "bytes32",
          "name": "",
          "type": "bytes32"
        }
      ],
      "stateMutability": "view",
      "type": "function"
    },
    {
      "inputs": [
        {
          "internalType": "bytes32",
          "name": "role",
          "type": "bytes32"
        },
        {
          "internalType": "uint256",
          "name": "index",
          "type": "uint256"
        }
      ],
      "name": "getRoleMember",
      "outputs": [
        {
          "internalType": "address",
          "name": "",
          "type": "address"
        }
      ],
      "stateMutability": "view",
      "type": "function"
    },
    {
      "inputs": [
        {
          "internalType": "bytes32",
          "name": "role",
          "type": "bytes32"
        }
      ],
      "name": "getRoleMemberCount",
      "outputs": [
        {
          "internalType": "uint256",
          "name": "",
          "type": "uint256"
        }
      ],
      "stateMutability": "view",
      "type": "function"
    },
    {
      "inputs": [
        {
          "internalType": "uint16",
          "name": "_remoteChainId",
          "type": "uint16"
        }
      ],
      "name": "getTrustedRemoteAddress",
      "outputs": [
        {
          "internalType": "bytes",
          "name": "",
          "type": "bytes"
        }
      ],
      "stateMutability": "view",
      "type": "function"
    },
    {
      "inputs": [
        {
          "internalType": "bytes32",
          "name": "role",
          "type": "bytes32"
        },
        {
          "internalType": "address",
          "name": "account",
          "type": "address"
        }
      ],
      "name": "grantRole",
      "outputs": [],
      "stateMutability": "nonpayable",
      "type": "function"
    },
    {
      "inputs": [
        {
          "internalType": "bytes32",
          "name": "role",
          "type": "bytes32"
        },
        {
          "internalType": "address",
          "name": "account",
          "type": "address"
        }
      ],
      "name": "hasRole",
      "outputs": [
        {
          "internalType": "bool",
          "name": "",
          "type": "bool"
        }
      ],
      "stateMutability": "view",
      "type": "function"
    },
    {
      "inputs": [
        {
          "internalType": "address",
          "name": "spender",
          "type": "address"
        },
        {
          "internalType": "uint256",
          "name": "addedValue",
          "type": "uint256"
        }
      ],
      "name": "increaseAllowance",
      "outputs": [
        {
          "internalType": "bool",
          "name": "",
          "type": "bool"
        }
      ],
      "stateMutability": "nonpayable",
      "type": "function"
    },
    {
      "inputs": [
        {
          "internalType": "uint16",
          "name": "_srcChainId",
          "type": "uint16"
        },
        {
          "internalType": "bytes",
          "name": "_srcAddress",
          "type": "bytes"
        }
      ],
      "name": "isTrustedRemote",
      "outputs": [
        {
          "internalType": "bool",
          "name": "",
          "type": "bool"
        }
      ],
      "stateMutability": "view",
      "type": "function"
    },
    {
      "inputs": [],
      "name": "lzEndpoint",
      "outputs": [
        {
          "internalType": "contract ILayerZeroEndpointUpgradeable",
          "name": "",
          "type": "address"
        }
      ],
      "stateMutability": "view",
      "type": "function"
    },
    {
      "inputs": [
        {
          "internalType": "uint16",
          "name": "_srcChainId",
          "type": "uint16"
        },
        {
          "internalType": "bytes",
          "name": "_srcAddress",
          "type": "bytes"
        },
        {
          "internalType": "uint64",
          "name": "_nonce",
          "type": "uint64"
        },
        {
          "internalType": "bytes",
          "name": "_payload",
          "type": "bytes"
        }
      ],
      "name": "lzReceive",
      "outputs": [],
      "stateMutability": "nonpayable",
      "type": "function"
    },
    {
      "inputs": [
        {
          "internalType": "uint16",
          "name": "",
          "type": "uint16"
        },
        {
          "internalType": "uint256",
          "name": "",
          "type": "uint256"
        }
      ],
      "name": "minDstGasLookup",
      "outputs": [
        {
          "internalType": "uint256",
          "name": "",
          "type": "uint256"
        }
      ],
      "stateMutability": "view",
      "type": "function"
    },
    {
      "inputs": [],
      "name": "name",
      "outputs": [
        {
          "internalType": "string",
          "name": "",
          "type": "string"
        }
      ],
      "stateMutability": "view",
      "type": "function"
    },
    {
      "inputs": [
        {
          "internalType": "uint16",
          "name": "_srcChainId",
          "type": "uint16"
        },
        {
          "internalType": "bytes",
          "name": "_srcAddress",
          "type": "bytes"
        },
        {
          "internalType": "uint64",
          "name": "_nonce",
          "type": "uint64"
        },
        {
          "internalType": "bytes",
          "name": "_payload",
          "type": "bytes"
        }
      ],
      "name": "nonblockingLzReceive",
      "outputs": [],
      "stateMutability": "nonpayable",
      "type": "function"
    },
    {
      "inputs": [],
      "name": "precrime",
      "outputs": [
        {
          "internalType": "address",
          "name": "",
          "type": "address"
        }
      ],
      "stateMutability": "view",
      "type": "function"
    },
    {
      "inputs": [
        {
          "internalType": "bytes32",
          "name": "role",
          "type": "bytes32"
        },
        {
          "internalType": "address",
          "name": "account",
          "type": "address"
        }
      ],
      "name": "renounceRole",
      "outputs": [],
      "stateMutability": "nonpayable",
      "type": "function"
    },
    {
      "inputs": [
        {
          "internalType": "uint16",
          "name": "_srcChainId",
          "type": "uint16"
        },
        {
          "internalType": "bytes",
          "name": "_srcAddress",
          "type": "bytes"
        },
        {
          "internalType": "uint64",
          "name": "_nonce",
          "type": "uint64"
        },
        {
          "internalType": "bytes",
          "name": "_payload",
          "type": "bytes"
        }
      ],
      "name": "retryMessage",
      "outputs": [],
      "stateMutability": "payable",
      "type": "function"
    },
    {
      "inputs": [
        {
          "internalType": "bytes32",
          "name": "role",
          "type": "bytes32"
        },
        {
          "internalType": "address",
          "name": "account",
          "type": "address"
        }
      ],
      "name": "revokeRole",
      "outputs": [],
      "stateMutability": "nonpayable",
      "type": "function"
    },
    {
      "inputs": [
        {
          "internalType": "address",
          "name": "_from",
          "type": "address"
        },
        {
          "internalType": "uint16",
          "name": "_dstChainId",
          "type": "uint16"
        },
        {
          "internalType": "bytes",
          "name": "_toAddress",
          "type": "bytes"
        },
        {
          "internalType": "uint256",
          "name": "_amount",
          "type": "uint256"
        },
        {
          "internalType": "address payable",
          "name": "_refundAddress",
          "type": "address"
        },
        {
          "internalType": "address",
          "name": "_zroPaymentAddress",
          "type": "address"
        },
        {
          "internalType": "bytes",
          "name": "_adapterParams",
          "type": "bytes"
        }
      ],
      "name": "sendFrom",
      "outputs": [],
      "stateMutability": "payable",
      "type": "function"
    },
    {
      "inputs": [
        {
          "internalType": "uint16",
          "name": "_version",
          "type": "uint16"
        },
        {
          "internalType": "uint16",
          "name": "_chainId",
          "type": "uint16"
        },
        {
          "internalType": "uint256",
          "name": "_configType",
          "type": "uint256"
        },
        {
          "internalType": "bytes",
          "name": "_config",
          "type": "bytes"
        }
      ],
      "name": "setConfig",
      "outputs": [],
      "stateMutability": "nonpayable",
      "type": "function"
    },
    {
      "inputs": [
        {
          "internalType": "uint16",
          "name": "_dstChainId",
          "type": "uint16"
        },
        {
          "internalType": "uint16",
          "name": "_packetType",
          "type": "uint16"
        },
        {
          "internalType": "uint256",
          "name": "_minGas",
          "type": "uint256"
        }
      ],
      "name": "setMinDstGas",
      "outputs": [],
      "stateMutability": "nonpayable",
      "type": "function"
    },
    {
      "inputs": [
        {
          "internalType": "address",
          "name": "_precrime",
          "type": "address"
        }
      ],
      "name": "setPrecrime",
      "outputs": [],
      "stateMutability": "nonpayable",
      "type": "function"
    },
    {
      "inputs": [
        {
          "internalType": "uint16",
          "name": "_version",
          "type": "uint16"
        }
      ],
      "name": "setReceiveVersion",
      "outputs": [],
      "stateMutability": "nonpayable",
      "type": "function"
    },
    {
      "inputs": [
        {
          "internalType": "uint16",
          "name": "_version",
          "type": "uint16"
        }
      ],
      "name": "setSendVersion",
      "outputs": [],
      "stateMutability": "nonpayable",
      "type": "function"
    },
    {
      "inputs": [
        {
          "internalType": "uint16",
          "name": "_srcChainId",
          "type": "uint16"
        },
        {
          "internalType": "bytes",
          "name": "_path",
          "type": "bytes"
        }
      ],
      "name": "setTrustedRemote",
      "outputs": [],
      "stateMutability": "nonpayable",
      "type": "function"
    },
    {
      "inputs": [
        {
          "internalType": "uint16",
          "name": "_remoteChainId",
          "type": "uint16"
        },
        {
          "internalType": "bytes",
          "name": "_remoteAddress",
          "type": "bytes"
        }
      ],
      "name": "setTrustedRemoteAddress",
      "outputs": [],
      "stateMutability": "nonpayable",
      "type": "function"
    },
    {
      "inputs": [
        {
          "internalType": "bool",
          "name": "_useCustomAdapterParams",
          "type": "bool"
        }
      ],
      "name": "setUseCustomAdapterParams",
      "outputs": [],
      "stateMutability": "nonpayable",
      "type": "function"
    },
    {
      "inputs": [
        {
          "internalType": "bytes4",
          "name": "interfaceId",
          "type": "bytes4"
        }
      ],
      "name": "supportsInterface",
      "outputs": [
        {
          "internalType": "bool",
          "name": "",
          "type": "bool"
        }
      ],
      "stateMutability": "view",
      "type": "function"
    },
    {
      "inputs": [],
      "name": "symbol",
      "outputs": [
        {
          "internalType": "string",
          "name": "",
          "type": "string"
        }
      ],
      "stateMutability": "view",
      "type": "function"
    },
    {
      "inputs": [],
      "name": "token",
      "outputs": [
        {
          "internalType": "address",
          "name": "",
          "type": "address"
        }
      ],
      "stateMutability": "view",
      "type": "function"
    },
    {
      "inputs": [],
      "name": "totalSupply",
      "outputs": [
        {
          "internalType": "uint256",
          "name": "",
          "type": "uint256"
        }
      ],
      "stateMutability": "view",
      "type": "function"
    },
    {
      "inputs": [
        {
          "internalType": "address",
          "name": "to",
          "type": "address"
        },
        {
          "internalType": "uint256",
          "name": "amount",
          "type": "uint256"
        }
      ],
      "name": "transfer",
      "outputs": [
        {
          "internalType": "bool",
          "name": "",
          "type": "bool"
        }
      ],
      "stateMutability": "nonpayable",
      "type": "function"
    },
    {
      "inputs": [
        {
          "internalType": "address",
          "name": "from",
          "type": "address"
        },
        {
          "internalType": "address",
          "name": "to",
          "type": "address"
        },
        {
          "internalType": "uint256",
          "name": "amount",
          "type": "uint256"
        }
      ],
      "name": "transferFrom",
      "outputs": [
        {
          "internalType": "bool",
          "name": "",
          "type": "bool"
        }
      ],
      "stateMutability": "nonpayable",
      "type": "function"
    },
    {
      "inputs": [
        {
          "internalType": "uint16",
          "name": "",
          "type": "uint16"
        }
      ],
      "name": "trustedRemoteLookup",
      "outputs": [
        {
          "internalType": "bytes",
          "name": "",
          "type": "bytes"
        }
      ],
      "stateMutability": "view",
      "type": "function"
    },
    {
      "inputs": [],
      "name": "useCustomAdapterParams",
      "outputs": [
        {
          "internalType": "bool",
          "name": "",
          "type": "bool"
        }
      ],
      "stateMutability": "view",
      "type": "function"
    }
  ],
  "bytecode": "0x608060405234801561001057600080fd5b5061389b806100206000396000f3fe6080604052600436106102c85760003560e01c80639358928b11610175578063ca15c873116100dc578063df2a5b3b11610095578063eb8d72b71161006f578063eb8d72b7146108fa578063ed629c5c1461091a578063f5ecbdbc14610935578063fc0c546a1461095557600080fd5b8063df2a5b3b14610886578063e63ab1e9146108a6578063eab45d9c146108da57600080fd5b8063ca15c873146107bf578063cbed8b9c146107df578063d1deba1f146107ff578063d539139314610812578063d547741f14610846578063dd62ed3e1461086657600080fd5b8063a6c3d1651161012e578063a6c3d16514610714578063a9059cbb14610734578063af3fb21c14610754578063b353aaa714610769578063baf3292d14610789578063c4461834146107a957600080fd5b80639358928b1461068a578063950c8a741461069f57806395d89b41146106bf5780639f38369a146106d4578063a217fddf14610543578063a457c2d7146106f457600080fd5b8063313ce5671161023457806351905636116101ed57806370a08231116101c757806370a08231146105db5780637533d788146106125780639010d07c1461063257806391d148541461066a57600080fd5b806351905636146105585780635b8c41e61461056b57806366ad5c8a146105bb57600080fd5b8063313ce567146104a757806336568abe146104c357806339509351146104e35780633d8b38f61461050357806342d65a8d14610523578063447705151461054357600080fd5b806310ddb1371161028657806310ddb137146103cc57806318160ddd146103ec57806323b872dd14610402578063248a9ca3146104225780632a205e3d146104525780632f2ff15d1461048757600080fd5b80621d3567146102cd57806301ffc9a7146102ef57806306fdde0314610324578063078108671461034657806307e0db171461038c578063095ea7b3146103ac575b600080fd5b3480156102d957600080fd5b506102ed6102e8366004612b0b565b610968565b005b3480156102fb57600080fd5b5061030f61030a366004612ba0565b610b84565b60405190151581526020015b60405180910390f35b34801561033057600080fd5b50610339610bc2565b60405161031b9190612c1a565b34801561035257600080fd5b5061037e610361366004612c2d565b60fc60209081526000928352604080842090915290825290205481565b60405190815260200161031b565b34801561039857600080fd5b506102ed6103a7366004612c59565b610c55565b3480156103b857600080fd5b5061030f6103c7366004612c8b565b610cc4565b3480156103d857600080fd5b506102ed6103e7366004612c59565b610cdc565b3480156103f857600080fd5b506101965461037e565b34801561040e57600080fd5b5061030f61041d366004612ca9565b610d1a565b34801561042e57600080fd5b5061037e61043d366004612cea565b60009081526065602052604090206001015490565b34801561045e57600080fd5b5061047261046d366004612d13565b610d3e565b6040805192835260208301919091520161031b565b34801561049357600080fd5b506102ed6104a2366004612db2565b610df4565b3480156104b357600080fd5b506040516012815260200161031b565b3480156104cf57600080fd5b506102ed6104de366004612db2565b610e1e565b3480156104ef57600080fd5b5061030f6104fe366004612c8b565b610e9c565b34801561050f57600080fd5b5061030f61051e366004612de2565b610ebe565b34801561052f57600080fd5b506102ed61053e366004612de2565b610f8a565b34801561054f57600080fd5b5061037e600081565b6102ed610566366004612e36565b610ff6565b34801561057757600080fd5b5061037e610586366004612fc2565b61012e602090815260009384526040808520845180860184018051928152908401958401959095209452929052825290205481565b3480156105c757600080fd5b506102ed6105d6366004613021565b61107b565b3480156105e757600080fd5b5061037e6105f63660046130a7565b6001600160a01b03166000908152610194602052604090205490565b34801561061e57600080fd5b5061033961062d366004612c59565b6110eb565b34801561063e57600080fd5b5061065261064d3660046130c4565b611185565b6040516001600160a01b03909116815260200161031b565b34801561067657600080fd5b5061030f610685366004612db2565b6111a4565b34801561069657600080fd5b5061037e6111cf565b3480156106ab57600080fd5b5060fd54610652906001600160a01b031681565b3480156106cb57600080fd5b506103396111e0565b3480156106e057600080fd5b506103396106ef366004612c59565b6111f0565b34801561070057600080fd5b5061030f61070f366004612c8b565b6112ff565b34801561072057600080fd5b506102ed61072f366004612de2565b61137a565b34801561074057600080fd5b5061030f61074f366004612c8b565b611405565b34801561076057600080fd5b5061037e600181565b34801561077557600080fd5b5060fa54610652906001600160a01b031681565b34801561079557600080fd5b506102ed6107a43660046130a7565b611413565b3480156107b557600080fd5b5061037e61271081565b3480156107cb57600080fd5b5061037e6107da366004612cea565b611472565b3480156107eb57600080fd5b506102ed6107fa3660046130e6565b611489565b6102ed61080d366004613021565b6114f9565b34801561081e57600080fd5b5061037e7f9f2df0fed2c77648de5860a4cc508cd0818c85b8b8a1ab4ceeef8d981c8956a681565b34801561085257600080fd5b506102ed610861366004612db2565b61164d565b34801561087257600080fd5b5061037e610881366004613158565b611672565b34801561089257600080fd5b506102ed6108a1366004613186565b61169e565b3480156108b257600080fd5b5061037e7f65d7a28e3265b37a6474929f336521b332c1681b933f6cb9f3376673440d862a81565b3480156108e657600080fd5b506102ed6108f53660046131b6565b611752565b34801561090657600080fd5b506102ed610915366004612de2565b61179e565b34801561092657600080fd5b506101615461030f9060ff1681565b34801561094157600080fd5b506103396109503660046131d1565b6117fa565b34801561096157600080fd5b5030610652565b60fa546001600160a01b0316336001600160a01b0316146109d05760405162461bcd60e51b815260206004820152601e60248201527f4c7a4170703a20696e76616c696420656e64706f696e742063616c6c6572000060448201526064015b60405180910390fd5b61ffff8616600090815260fb6020526040812080546109ee90613222565b80601f0160208091040260200160405190810160405280929190818152602001828054610a1a90613222565b8015610a675780601f10610a3c57610100808354040283529160200191610a67565b820191906000526020600020905b815481529060010190602001808311610a4a57829003601f168201915b50505050509050805186869050148015610a82575060008151115b8015610aaa575080516020820120604051610aa0908890889061325c565b6040518091039020145b610b055760405162461bcd60e51b815260206004820152602660248201527f4c7a4170703a20696e76616c696420736f757263652073656e64696e6720636f6044820152651b9d1c9858dd60d21b60648201526084016109c7565b610b7b8787878080601f01602080910402602001604051908101604052809392919081815260200183838082843760009201919091525050604080516020601f8a018190048102820181019092528881528a93509150889088908190840183828082843760009201919091525061188d92505050565b50505050505050565b60006001600160e01b031982161580610bad57506001600160e01b031982166336372b0760e01b145b80610bbc5750610bbc8261197f565b92915050565b60606101978054610bd290613222565b80601f0160208091040260200160405190810160405280929190818152602001828054610bfe90613222565b8015610c4b5780601f10610c2057610100808354040283529160200191610c4b565b820191906000526020600020905b815481529060010190602001808311610c2e57829003601f168201915b5050505050905090565b610c5f60006119a4565b60fa546040516307e0db1760e01b815261ffff831660048201526001600160a01b03909116906307e0db17906024015b600060405180830381600087803b158015610ca957600080fd5b505af1158015610cbd573d6000803e3d6000fd5b5050505050565b600033610cd28185856119b1565b5060019392505050565b610ce660006119a4565b60fa546040516310ddb13760e01b815261ffff831660048201526001600160a01b03909116906310ddb13790602401610c8f565b600033610d28858285611ad6565b610d33858585611b4a565b506001949350505050565b600080600080898989604051602001610d5a9493929190613295565b60408051601f198184030181529082905260fa5463040a7bb160e41b83529092506001600160a01b0316906340a7bb1090610da3908d90309086908c908c908c906004016132c3565b6040805180830381865afa158015610dbf573d6000803e3d6000fd5b505050506040513d601f19601f82011682018060405250810190610de39190613319565b925092505097509795505050505050565b600082815260656020526040902060010154610e0f816119a4565b610e198383611cf7565b505050565b6001600160a01b0381163314610e8e5760405162461bcd60e51b815260206004820152602f60248201527f416363657373436f6e74726f6c3a2063616e206f6e6c792072656e6f756e636560448201526e103937b632b9903337b91039b2b63360891b60648201526084016109c7565b610e988282611d19565b5050565b600033610cd2818585610eaf8383611672565b610eb99190613353565b6119b1565b61ffff8316600090815260fb602052604081208054829190610edf90613222565b80601f0160208091040260200160405190810160405280929190818152602001828054610f0b90613222565b8015610f585780601f10610f2d57610100808354040283529160200191610f58565b820191906000526020600020905b815481529060010190602001808311610f3b57829003601f168201915b505050505090508383604051610f6f92919061325c565b60405180910390208180519060200120149150509392505050565b610f9460006119a4565b60fa546040516342d65a8d60e01b81526001600160a01b03909116906342d65a8d90610fc890869086908690600401613366565b600060405180830381600087803b158015610fe257600080fd5b505af1158015610b7b573d6000803e3d6000fd5b611070898989898080601f01602080910402602001604051908101604052809392919081815260200183838082843760009201919091525050604080516020601f8a018190048102820181019092528881528c93508b92508a918a908a9081908401838280828437600092019190915250611d3b92505050565b505050505050505050565b3330146110d95760405162461bcd60e51b815260206004820152602660248201527f4e6f6e626c6f636b696e674c7a4170703a2063616c6c6572206d7573742062656044820152650204c7a4170760d41b60648201526084016109c7565b6110e584848484611de2565b50505050565b60fb602052600090815260409020805461110490613222565b80601f016020809104026020016040519081016040528092919081815260200182805461113090613222565b801561117d5780601f106111525761010080835404028352916020019161117d565b820191906000526020600020905b81548152906001019060200180831161116057829003601f168201915b505050505081565b600082815260976020526040812061119d9083611e4c565b9392505050565b60009182526065602090815260408084206001600160a01b0393909316845291905290205460ff1690565b60006111db6101965490565b905090565b60606101988054610bd290613222565b61ffff8116600090815260fb602052604081208054606092919061121390613222565b80601f016020809104026020016040519081016040528092919081815260200182805461123f90613222565b801561128c5780601f106112615761010080835404028352916020019161128c565b820191906000526020600020905b81548152906001019060200180831161126f57829003601f168201915b5050505050905080516000036112e45760405162461bcd60e51b815260206004820152601d60248201527f4c7a4170703a206e6f20747275737465642070617468207265636f726400000060448201526064016109c7565b61119d6000601483516112f79190613384565b839190611e58565b6000338161130d8286611672565b90508381101561136d5760405162461bcd60e51b815260206004820152602560248201527f45524332303a2064656372656173656420616c6c6f77616e63652062656c6f77604482015264207a65726f60d81b60648201526084016109c7565b610d3382868684036119b1565b61138460006119a4565b81813060405160200161139993929190613397565b60408051601f1981840301815291815261ffff8516600090815260fb60205220906113c49082613403565b507f8c0400cfe2d1199b1a725c78960bcc2a344d869b80590d0f2bd005db15a572ce8383836040516113f893929190613366565b60405180910390a1505050565b600033610cd2818585611b4a565b61141d60006119a4565b60fd80546001600160a01b0319166001600160a01b0383169081179091556040519081527f5db758e995a17ec1ad84bdef7e8c3293a0bd6179bcce400dff5d4c3d87db726b906020015b60405180910390a150565b6000818152609760205260408120610bbc90611f65565b61149360006119a4565b60fa546040516332fb62e760e21b81526001600160a01b039091169063cbed8b9c906114cb90889088908890889088906004016134c2565b600060405180830381600087803b1580156114e557600080fd5b505af1158015611070573d6000803e3d6000fd5b61ffff8416600090815261012e6020526040808220905161151b9086906134fb565b90815260408051602092819003830190206001600160401b0386166000908152925290205490508061159b5760405162461bcd60e51b815260206004820152602360248201527f4e6f6e626c6f636b696e674c7a4170703a206e6f2073746f726564206d65737360448201526261676560e81b60648201526084016109c7565b8151602083012081146115fa5760405162461bcd60e51b815260206004820152602160248201527f4e6f6e626c6f636b696e674c7a4170703a20696e76616c6964207061796c6f616044820152601960fa1b60648201526084016109c7565b61ffff8516600090815261012e6020526040808220905161161c9087906134fb565b90815260408051602092819003830190206001600160401b03871660009081529252902055610cbd85858585611de2565b600082815260656020526040902060010154611668816119a4565b610e198383611d19565b6001600160a01b0391821660009081526101956020908152604080832093909416825291909152205490565b6116a860006119a4565b600081116116f05760405162461bcd60e51b81526020600482015260156024820152744c7a4170703a20696e76616c6964206d696e47617360581b60448201526064016109c7565b61ffff838116600081815260fc602090815260408083209487168084529482529182902085905581519283528201929092529081018290527f9d5c7c0b934da8fefa9c7760c98383778a12dfbfc0c3b3106518f43fb9508ac0906060016113f8565b61175c60006119a4565b610161805460ff19168215159081179091556040519081527f1584ad594a70cbe1e6515592e1272a987d922b097ead875069cebe8b40c004a490602001611467565b6117a860006119a4565b61ffff8316600090815260fb602052604090206117c6828483613517565b507ffa41487ad5d6728f0b19276fa1eddc16558578f5109fc39d2dc33c3230470dab8383836040516113f893929190613366565b60fa54604051633d7b2f6f60e21b815261ffff808716600483015285166024820152306044820152606481018390526060916001600160a01b03169063f5ecbdbc90608401600060405180830381865afa15801561185c573d6000803e3d6000fd5b505050506040513d6000823e601f3d908101601f191682016040526118849190810190613623565b95945050505050565b604051633356ae4560e11b815230906366ad5c8a906118b6908790879087908790600401613657565b600060405180830381600087803b1580156118d057600080fd5b505af19250505080156118e1575060015b6110e557808051906020012061012e60008661ffff1661ffff1681526020019081526020016000208460405161191791906134fb565b9081526040805191829003602090810183206001600160401b0387166000908152915220919091557fe6f254030bcb01ffd20558175c13fcaed6d1520be7becee4c961b65f79243b0d90611972908690869086908690613657565b60405180910390a16110e5565b60006001600160e01b03198216635a05180f60e01b1480610bbc5750610bbc82611f6f565b6119ae8133611fa4565b50565b6001600160a01b038316611a135760405162461bcd60e51b8152602060048201526024808201527f45524332303a20617070726f76652066726f6d20746865207a65726f206164646044820152637265737360e01b60648201526084016109c7565b6001600160a01b038216611a745760405162461bcd60e51b815260206004820152602260248201527f45524332303a20617070726f766520746f20746865207a65726f206164647265604482015261737360f01b60648201526084016109c7565b6001600160a01b038381166000818152610195602090815260408083209487168084529482529182902085905590518481527f8c5be1e5ebec7d5bd14f71427d1e84f3dd0314c0f7b2291e5b200ac8c7c3b925910160405180910390a3505050565b6000611ae28484611672565b905060001981146110e55781811015611b3d5760405162461bcd60e51b815260206004820152601d60248201527f45524332303a20696e73756666696369656e7420616c6c6f77616e636500000060448201526064016109c7565b6110e584848484036119b1565b6001600160a01b038316611bae5760405162461bcd60e51b815260206004820152602560248201527f45524332303a207472616e736665722066726f6d20746865207a65726f206164604482015264647265737360d81b60648201526084016109c7565b6001600160a01b038216611c105760405162461bcd60e51b815260206004820152602360248201527f45524332303a207472616e7366657220746f20746865207a65726f206164647260448201526265737360e81b60648201526084016109c7565b6001600160a01b0383166000908152610194602052604090205481811015611c895760405162461bcd60e51b815260206004820152602660248201527f45524332303a207472616e7366657220616d6f756e7420657863656564732062604482015265616c616e636560d01b60648201526084016109c7565b6001600160a01b038085166000818152610194602052604080822086860390559286168082529083902080548601905591517fddf252ad1be2c89b69c2b068fc378daa952ba7f163c4a11628f55a4df523b3ef90611cea9086815260200190565b60405180910390a36110e5565b611d018282611ffd565b6000828152609760205260409020610e199082612083565b611d238282612098565b6000828152609760205260409020610e1990826120ff565b611d49866000836000612114565b6000611d578888888861218f565b90506000808783604051602001611d7093929190613695565b6040516020818303038152906040529050611d8f8882878787346121c1565b886001600160a01b03168861ffff167f39a4c66499bcf4b56d79f0dde8ed7a9d4925a0df55825206b2b8531e202be0d08985604051611dcf9291906136c1565b60405180910390a3505050505050505050565b602081015161ffff8116600003611e0457611dff8585858561233f565b610cbd565b60405162461bcd60e51b815260206004820152601c60248201527f4f4654436f72653a20756e6b6e6f776e207061636b657420747970650000000060448201526064016109c7565b600061119d83836123c9565b606081611e6681601f613353565b1015611ea55760405162461bcd60e51b815260206004820152600e60248201526d736c6963655f6f766572666c6f7760901b60448201526064016109c7565b611eaf8284613353565b84511015611ef35760405162461bcd60e51b8152602060048201526011602482015270736c6963655f6f75744f66426f756e647360781b60448201526064016109c7565b606082158015611f125760405191506000825260208201604052611f5c565b6040519150601f8416801560200281840101858101878315602002848b0101015b81831015611f4b578051835260209283019201611f33565b5050858452601f01601f1916604052505b50949350505050565b6000610bbc825490565b60006001600160e01b03198216637965db0b60e01b1480610bbc57506301ffc9a760e01b6001600160e01b0319831614610bbc565b611fae82826111a4565b610e9857611fbb816123f3565b611fc6836020612405565b604051602001611fd79291906136e3565b60408051601f198184030181529082905262461bcd60e51b82526109c791600401612c1a565b61200782826111a4565b610e985760008281526065602090815260408083206001600160a01b03851684529091529020805460ff1916600117905561203f3390565b6001600160a01b0316816001600160a01b0316837f2f8788117e7eff1d82e926ec794901d17c78024a50270940304540a733656f0d60405160405180910390a45050565b600061119d836001600160a01b0384166125a0565b6120a282826111a4565b15610e985760008281526065602090815260408083206001600160a01b0385168085529252808320805460ff1916905551339285917ff6391f5c32d9c69d2a47ea670b442974b53935d1edc7fd64eb21e047a839171b9190a45050565b600061119d836001600160a01b0384166125ef565b6101615460ff16156121315761212c848484846126e2565b6110e5565b8151156110e55760405162461bcd60e51b815260206004820152602660248201527f4f4654436f72653a205f61646170746572506172616d73206d7573742062652060448201526532b6b83a3c9760d11b60648201526084016109c7565b6000336001600160a01b03861681146121ad576121ad868285611ad6565b6121b786846127c9565b5090949350505050565b61ffff8616600090815260fb6020526040812080546121df90613222565b80601f016020809104026020016040519081016040528092919081815260200182805461220b90613222565b80156122585780601f1061222d57610100808354040283529160200191612258565b820191906000526020600020905b81548152906001019060200180831161223b57829003601f168201915b5050505050905080516000036122c95760405162461bcd60e51b815260206004820152603060248201527f4c7a4170703a2064657374696e6174696f6e20636861696e206973206e6f742060448201526f61207472757374656420736f7572636560801b60648201526084016109c7565b60fa5460405162c5803160e81b81526001600160a01b039091169063c5803100908490612304908b9086908c908c908c908c90600401613758565b6000604051808303818588803b15801561231d57600080fd5b505af1158015612331573d6000803e3d6000fd5b505050505050505050505050565b6000808280602001905181019061235691906137b2565b9093509150600090506123698382612900565b9050612376878284612965565b9150806001600160a01b03168761ffff167fbf551ec93859b170f9b2141bd9298bf3f64322c6f7beb2543a0cb669834118bf846040516123b891815260200190565b60405180910390a350505050505050565b60008260000182815481106123e0576123e061380b565b9060005260206000200154905092915050565b6060610bbc6001600160a01b03831660145b60606000612414836002613821565b61241f906002613353565b6001600160401b0381111561243657612436612eff565b6040519080825280601f01601f191660200182016040528015612460576020820181803683370190505b509050600360fc1b8160008151811061247b5761247b61380b565b60200101906001600160f81b031916908160001a905350600f60fb1b816001815181106124aa576124aa61380b565b60200101906001600160f81b031916908160001a90535060006124ce846002613821565b6124d9906001613353565b90505b6001811115612551576f181899199a1a9b1b9c1cb0b131b232b360811b85600f166010811061250d5761250d61380b565b1a60f81b8282815181106125235761252361380b565b60200101906001600160f81b031916908160001a90535060049490941c9361254a81613838565b90506124dc565b50831561119d5760405162461bcd60e51b815260206004820181905260248201527f537472696e67733a20686578206c656e67746820696e73756666696369656e7460448201526064016109c7565b60008181526001830160205260408120546125e757508154600181810184556000848152602080822090930184905584548482528286019093526040902091909155610bbc565b506000610bbc565b600081815260018301602052604081205480156126d8576000612613600183613384565b855490915060009061262790600190613384565b905081811461268c5760008660000182815481106126475761264761380b565b906000526020600020015490508087600001848154811061266a5761266a61380b565b6000918252602080832090910192909255918252600188019052604090208390555b855486908061269d5761269d61384f565b600190038181906000526020600020016000905590558560010160008681526020019081526020016000206000905560019350505050610bbc565b6000915050610bbc565b60006126ed83612978565b61ffff808716600090815260fc602090815260408083209389168352929052908120549192509061271f908490613353565b9050600081116127715760405162461bcd60e51b815260206004820152601a60248201527f4c7a4170703a206d696e4761734c696d6974206e6f742073657400000000000060448201526064016109c7565b808210156127c15760405162461bcd60e51b815260206004820152601b60248201527f4c7a4170703a20676173206c696d697420697320746f6f206c6f77000000000060448201526064016109c7565b505050505050565b6001600160a01b0382166128295760405162461bcd60e51b815260206004820152602160248201527f45524332303a206275726e2066726f6d20746865207a65726f206164647265736044820152607360f81b60648201526084016109c7565b6001600160a01b038216600090815261019460205260409020548181101561289e5760405162461bcd60e51b815260206004820152602260248201527f45524332303a206275726e20616d6f756e7420657863656564732062616c616e604482015261636560f01b60648201526084016109c7565b6001600160a01b038316600081815261019460209081526040808320868603905561019680548790039055518581529192917fddf252ad1be2c89b69c2b068fc378daa952ba7f163c4a11628f55a4df523b3ef910160405180910390a3505050565b600061290d826014613353565b835110156129555760405162461bcd60e51b8152602060048201526015602482015274746f416464726573735f6f75744f66426f756e647360581b60448201526064016109c7565b500160200151600160601b900490565b600061297183836129d4565b5092915050565b60006022825110156129cc5760405162461bcd60e51b815260206004820152601c60248201527f4c7a4170703a20696e76616c69642061646170746572506172616d730000000060448201526064016109c7565b506022015190565b6001600160a01b038216612a2a5760405162461bcd60e51b815260206004820152601f60248201527f45524332303a206d696e7420746f20746865207a65726f20616464726573730060448201526064016109c7565b806101966000828254612a3d9190613353565b90915550506001600160a01b038216600081815261019460209081526040808320805486019055518481527fddf252ad1be2c89b69c2b068fc378daa952ba7f163c4a11628f55a4df523b3ef910160405180910390a35050565b61ffff811681146119ae57600080fd5b60008083601f840112612ab957600080fd5b5081356001600160401b03811115612ad057600080fd5b602083019150836020828501011115612ae857600080fd5b9250929050565b80356001600160401b0381168114612b0657600080fd5b919050565b60008060008060008060808789031215612b2457600080fd5b8635612b2f81612a97565b955060208701356001600160401b0380821115612b4b57600080fd5b612b578a838b01612aa7565b9097509550859150612b6b60408a01612aef565b94506060890135915080821115612b8157600080fd5b50612b8e89828a01612aa7565b979a9699509497509295939492505050565b600060208284031215612bb257600080fd5b81356001600160e01b03198116811461119d57600080fd5b60005b83811015612be5578181015183820152602001612bcd565b50506000910152565b60008151808452612c06816020860160208601612bca565b601f01601f19169290920160200192915050565b60208152600061119d6020830184612bee565b60008060408385031215612c4057600080fd5b8235612c4b81612a97565b946020939093013593505050565b600060208284031215612c6b57600080fd5b813561119d81612a97565b6001600160a01b03811681146119ae57600080fd5b60008060408385031215612c9e57600080fd5b8235612c4b81612c76565b600080600060608486031215612cbe57600080fd5b8335612cc981612c76565b92506020840135612cd981612c76565b929592945050506040919091013590565b600060208284031215612cfc57600080fd5b5035919050565b80358015158114612b0657600080fd5b600080600080600080600060a0888a031215612d2e57600080fd5b8735612d3981612a97565b965060208801356001600160401b0380821115612d5557600080fd5b612d618b838c01612aa7565b909850965060408a01359550869150612d7c60608b01612d03565b945060808a0135915080821115612d9257600080fd5b50612d9f8a828b01612aa7565b989b979a50959850939692959293505050565b60008060408385031215612dc557600080fd5b823591506020830135612dd781612c76565b809150509250929050565b600080600060408486031215612df757600080fd5b8335612e0281612a97565b925060208401356001600160401b03811115612e1d57600080fd5b612e2986828701612aa7565b9497909650939450505050565b600080600080600080600080600060e08a8c031215612e5457600080fd5b8935612e5f81612c76565b985060208a0135612e6f81612a97565b975060408a01356001600160401b0380821115612e8b57600080fd5b612e978d838e01612aa7565b909950975060608c0135965060808c01359150612eb382612c76565b90945060a08b013590612ec582612c76565b90935060c08b01359080821115612edb57600080fd5b50612ee88c828d01612aa7565b915080935050809150509295985092959850929598565b634e487b7160e01b600052604160045260246000fd5b604051601f8201601f191681016001600160401b0381118282101715612f3d57612f3d612eff565b604052919050565b60006001600160401b03821115612f5e57612f5e612eff565b50601f01601f191660200190565b600082601f830112612f7d57600080fd5b8135612f90612f8b82612f45565b612f15565b818152846020838601011115612fa557600080fd5b816020850160208301376000918101602001919091529392505050565b600080600060608486031215612fd757600080fd5b8335612fe281612a97565b925060208401356001600160401b03811115612ffd57600080fd5b61300986828701612f6c565b92505061301860408501612aef565b90509250925092565b6000806000806080858703121561303757600080fd5b843561304281612a97565b935060208501356001600160401b038082111561305e57600080fd5b61306a88838901612f6c565b945061307860408801612aef565b9350606087013591508082111561308e57600080fd5b5061309b87828801612f6c565b91505092959194509250565b6000602082840312156130b957600080fd5b813561119d81612c76565b600080604083850312156130d757600080fd5b50508035926020909101359150565b6000806000806000608086880312156130fe57600080fd5b853561310981612a97565b9450602086013561311981612a97565b93506040860135925060608601356001600160401b0381111561313b57600080fd5b61314788828901612aa7565b969995985093965092949392505050565b6000806040838503121561316b57600080fd5b823561317681612c76565b91506020830135612dd781612c76565b60008060006060848603121561319b57600080fd5b83356131a681612a97565b92506020840135612cd981612a97565b6000602082840312156131c857600080fd5b61119d82612d03565b600080600080608085870312156131e757600080fd5b84356131f281612a97565b9350602085013561320281612a97565b9250604085013561321281612c76565b9396929550929360600135925050565b600181811c9082168061323657607f821691505b60208210810361325657634e487b7160e01b600052602260045260246000fd5b50919050565b8183823760009101908152919050565b81835281816020850137506000828201602090810191909152601f909101601f19169091010190565b60ff851681526060602082015260006132b260608301858761326c565b905082604083015295945050505050565b61ffff871681526001600160a01b038616602082015260a0604082018190526000906132f190830187612bee565b8515156060840152828103608084015261330c81858761326c565b9998505050505050505050565b6000806040838503121561332c57600080fd5b505080516020909101519092909150565b634e487b7160e01b600052601160045260246000fd5b80820180821115610bbc57610bbc61333d565b61ffff8416815260406020820152600061188460408301848661326c565b81810381811115610bbc57610bbc61333d565b8284823760609190911b6bffffffffffffffffffffffff19169101908152601401919050565b601f821115610e1957600081815260208120601f850160051c810160208610156133e45750805b601f850160051c820191505b818110156127c1578281556001016133f0565b81516001600160401b0381111561341c5761341c612eff565b6134308161342a8454613222565b846133bd565b602080601f831160018114613465576000841561344d5750858301515b600019600386901b1c1916600185901b1785556127c1565b600085815260208120601f198616915b8281101561349457888601518255948401946001909101908401613475565b50858210156134b25787850151600019600388901b60f8161c191681555b5050505050600190811b01905550565b600061ffff8088168352808716602084015250846040830152608060608301526134f060808301848661326c565b979650505050505050565b6000825161350d818460208701612bca565b9190910192915050565b6001600160401b0383111561352e5761352e612eff565b6135428361353c8354613222565b836133bd565b6000601f841160018114613576576000851561355e5750838201355b600019600387901b1c1916600186901b178355610cbd565b600083815260209020601f19861690835b828110156135a75786850135825560209485019460019092019101613587565b50868210156135c45760001960f88860031b161c19848701351681555b505060018560011b0183555050505050565b600082601f8301126135e757600080fd5b81516135f5612f8b82612f45565b81815284602083860101111561360a57600080fd5b61361b826020830160208701612bca565b949350505050565b60006020828403121561363557600080fd5b81516001600160401b0381111561364b57600080fd5b61361b848285016135d6565b61ffff851681526080602082015260006136746080830186612bee565b6001600160401b038516604084015282810360608401526134f08185612bee565b60ff841681526060602082015260006136b16060830185612bee565b9050826040830152949350505050565b6040815260006136d46040830185612bee565b90508260208301529392505050565b7f416363657373436f6e74726f6c3a206163636f756e742000000000000000000081526000835161371b816017850160208801612bca565b7001034b99036b4b9b9b4b733903937b6329607d1b601791840191820152835161374c816028840160208801612bca565b01602801949350505050565b61ffff8716815260c06020820152600061377560c0830188612bee565b82810360408401526137878188612bee565b6001600160a01b0387811660608601528616608085015283810360a0850152905061330c8185612bee565b6000806000606084860312156137c757600080fd5b83516137d281612a97565b60208501519093506001600160401b038111156137ee57600080fd5b6137fa868287016135d6565b925050604084015190509250925092565b634e487b7160e01b600052603260045260246000fd5b8082028115828204841417610bbc57610bbc61333d565b6000816138475761384761333d565b506000190190565b634e487b7160e01b600052603160045260246000fdfea2646970667358221220cb6614a5edb4e02e58fc7596f814d254a9395ad73b8f5b4d0d36b37cb0aa632964736f6c63430008130033",
  "linkReferences": {},
  "deployedLinkReferences": {}
}