{
  "_format": "hh-sol-artifact-1",
  "contractName": "ERC20MintablePauseableUpgradeable",
  "sourceName": "contracts/ERC20MintablePauseableUpgradeable.sol",
  "abi": [
    {
      "anonymous": false,
      "inputs": [
        {
          "indexed": true,
          "internalType": "address",
          "name": "owner",
          "type": "address"
        },
        {
          "indexed": true,
          "internalType": "address",
          "name": "spender",
          "type": "address"
        },
        {
          "indexed": false,
          "internalType": "uint256",
          "name": "value",
          "type": "uint256"
        }
      ],
      "name": "Approval",
      "type": "event"
    },
    {
      "anonymous": false,
      "inputs": [],
      "name": "EIP712DomainChanged",
      "type": "event"
    },
    {
      "anonymous": false,
      "inputs": [
        {
          "indexed": false,
          "internalType": "uint8",
          "name": "version",
          "type": "uint8"
        }
      ],
      "name": "Initialized",
      "type": "event"
    },
    {
      "anonymous": false,
      "inputs": [
        {
          "indexed": false,
          "internalType": "address",
          "name": "account",
          "type": "address"
        }
      ],
      "name": "Paused",
      "type": "event"
    },
    {
      "anonymous": false,
      "inputs": [
        {
          "indexed": true,
          "internalType": "bytes32",
          "name": "role",
          "type": "bytes32"
        },
        {
          "indexed": true,
          "internalType": "bytes32",
          "name": "previousAdminRole",
          "type": "bytes32"
        },
        {
          "indexed": true,
          "internalType": "bytes32",
          "name": "newAdminRole",
          "type": "bytes32"
        }
      ],
      "name": "RoleAdminChanged",
      "type": "event"
    },
    {
      "anonymous": false,
      "inputs": [
        {
          "indexed": true,
          "internalType": "bytes32",
          "name": "role",
          "type": "bytes32"
        },
        {
          "indexed": true,
          "internalType": "address",
          "name": "account",
          "type": "address"
        },
        {
          "indexed": true,
          "internalType": "address",
          "name": "sender",
          "type": "address"
        }
      ],
      "name": "RoleGranted",
      "type": "event"
    },
    {
      "anonymous": false,
      "inputs": [
        {
          "indexed": true,
          "internalType": "bytes32",
          "name": "role",
          "type": "bytes32"
        },
        {
          "indexed": true,
          "internalType": "address",
          "name": "account",
          "type": "address"
        },
        {
          "indexed": true,
          "internalType": "address",
          "name": "sender",
          "type": "address"
        }
      ],
      "name": "RoleRevoked",
      "type": "event"
    },
    {
      "anonymous": false,
      "inputs": [
        {
          "indexed": true,
          "internalType": "address",
          "name": "from",
          "type": "address"
        },
        {
          "indexed": true,
          "internalType": "address",
          "name": "to",
          "type": "address"
        },
        {
          "indexed": false,
          "internalType": "uint256",
          "name": "value",
          "type": "uint256"
        }
      ],
      "name": "Transfer",
      "type": "event"
    },
    {
      "anonymous": false,
      "inputs": [
        {
          "indexed": false,
          "internalType": "address",
          "name": "account",
          "type": "address"
        }
      ],
      "name": "Unpaused",
      "type": "event"
    },
    {
      "inputs": [],
      "name": "DEFAULT_ADMIN_ROLE",
      "outputs": [
        {
          "internalType": "bytes32",
          "name": "",
          "type": "bytes32"
        }
      ],
      "stateMutability": "view",
      "type": "function"
    },
    {
      "inputs": [],
      "name": "MINTER_ROLE",
      "outputs": [
        {
          "internalType": "bytes32",
          "name": "",
          "type": "bytes32"
        }
      ],
      "stateMutability": "view",
      "type": "function"
    },
    {
      "inputs": [],
      "name": "PERMIT_TYPEHASH",
      "outputs": [
        {
          "internalType": "bytes32",
          "name": "",
          "type": "bytes32"
        }
      ],
      "stateMutability": "view",
      "type": "function"
    },
    {
      "inputs": [
        {
          "internalType": "address",
          "name": "owner",
          "type": "address"
        },
        {
          "internalType": "address",
          "name": "spender",
          "type": "address"
        }
      ],
      "name": "allowance",
      "outputs": [
        {
          "internalType": "uint256",
          "name": "",
          "type": "uint256"
        }
      ],
      "stateMutability": "view",
      "type": "function"
    },
    {
      "inputs": [
        {
          "internalType": "address",
          "name": "spender",
          "type": "address"
        },
        {
          "internalType": "uint256",
          "name": "amount",
          "type": "uint256"
        }
      ],
      "name": "approve",
      "outputs": [
        {
          "internalType": "bool",
          "name": "",
          "type": "bool"
        }
      ],
      "stateMutability": "nonpayable",
      "type": "function"
    },
    {
      "inputs": [
        {
          "internalType": "address",
          "name": "account",
          "type": "address"
        }
      ],
      "name": "balanceOf",
      "outputs": [
        {
          "internalType": "uint256",
          "name": "",
          "type": "uint256"
        }
      ],
      "stateMutability": "view",
      "type": "function"
    },
    {
      "inputs": [
        {
          "internalType": "uint256",
          "name": "amount",
          "type": "uint256"
        }
      ],
      "name": "burn",
      "outputs": [],
      "stateMutability": "nonpayable",
      "type": "function"
    },
    {
      "inputs": [
        {
          "internalType": "address",
          "name": "account",
          "type": "address"
        },
        {
          "internalType": "uint256",
          "name": "amount",
          "type": "uint256"
        }
      ],
      "name": "burnFrom",
      "outputs": [],
      "stateMutability": "nonpayable",
      "type": "function"
    },
    {
      "inputs": [],
      "name": "decimals",
      "outputs": [
        {
          "internalType": "uint8",
          "name": "",
          "type": "uint8"
        }
      ],
      "stateMutability": "view",
      "type": "function"
    },
    {
      "inputs": [
        {
          "internalType": "address",
          "name": "spender",
          "type": "address"
        },
        {
          "internalType": "uint256",
          "name": "subtractedValue",
          "type": "uint256"
        }
      ],
      "name": "decreaseAllowance",
      "outputs": [
        {
          "internalType": "bool",
          "name": "",
          "type": "bool"
        }
      ],
      "stateMutability": "nonpayable",
      "type": "function"
    },
    {
      "inputs": [],
      "name": "eip712Domain",
      "outputs": [
        {
          "internalType": "bytes1",
          "name": "fields",
          "type": "bytes1"
        },
        {
          "internalType": "string",
          "name": "name",
          "type": "string"
        },
        {
          "internalType": "string",
          "name": "version",
          "type": "string"
        },
        {
          "internalType": "uint256",
          "name": "chainId",
          "type": "uint256"
        },
        {
          "internalType": "address",
          "name": "verifyingContract",
          "type": "address"
        },
        {
          "internalType": "bytes32",
          "name": "salt",
          "type": "bytes32"
        },
        {
          "internalType": "uint256[]",
          "name": "extensions",
          "type": "uint256[]"
        }
      ],
      "stateMutability": "view",
      "type": "function"
    },
    {
      "inputs": [
        {
          "internalType": "address",
          "name": "account",
          "type": "address"
        }
      ],
      "name": "getBlackList",
      "outputs": [
        {
          "internalType": "bool",
          "name": "",
          "type": "bool"
        }
      ],
      "stateMutability": "view",
      "type": "function"
    },
    {
      "inputs": [
        {
          "internalType": "bytes32",
          "name": "role",
          "type": "bytes32"
        }
      ],
      "name": "getRoleAdmin",
      "outputs": [
        {
          "internalType": "bytes32",
          "name": "",
          "type": "bytes32"
        }
      ],
      "stateMutability": "view",
      "type": "function"
    },
    {
      "inputs": [
        {
          "internalType": "bytes32",
          "name": "role",
          "type": "bytes32"
        },
        {
          "internalType": "uint256",
          "name": "index",
          "type": "uint256"
        }
      ],
      "name": "getRoleMember",
      "outputs": [
        {
          "internalType": "address",
          "name": "",
          "type": "address"
        }
      ],
      "stateMutability": "view",
      "type": "function"
    },
    {
      "inputs": [
        {
          "internalType": "bytes32",
          "name": "role",
          "type": "bytes32"
        }
      ],
      "name": "getRoleMemberCount",
      "outputs": [
        {
          "internalType": "uint256",
          "name": "",
          "type": "uint256"
        }
      ],
      "stateMutability": "view",
      "type": "function"
    },
    {
      "inputs": [
        {
          "internalType": "bytes32",
          "name": "role",
          "type": "bytes32"
        },
        {
          "internalType": "address",
          "name": "account",
          "type": "address"
        }
      ],
      "name": "grantRole",
      "outputs": [],
      "stateMutability": "nonpayable",
      "type": "function"
    },
    {
      "inputs": [
        {
          "internalType": "bytes32",
          "name": "role",
          "type": "bytes32"
        },
        {
          "internalType": "address",
          "name": "account",
          "type": "address"
        }
      ],
      "name": "hasRole",
      "outputs": [
        {
          "internalType": "bool",
          "name": "",
          "type": "bool"
        }
      ],
      "stateMutability": "view",
      "type": "function"
    },
    {
      "inputs": [],
      "name": "implementation",
      "outputs": [
        {
          "internalType": "address",
          "name": "",
          "type": "address"
        }
      ],
      "stateMutability": "view",
      "type": "function"
    },
    {
      "inputs": [
        {
          "internalType": "address",
          "name": "spender",
          "type": "address"
        },
        {
          "internalType": "uint256",
          "name": "addedValue",
          "type": "uint256"
        }
      ],
      "name": "increaseAllowance",
      "outputs": [
        {
          "internalType": "bool",
          "name": "",
          "type": "bool"
        }
      ],
      "stateMutability": "nonpayable",
      "type": "function"
    },
    {
      "inputs": [
        {
          "internalType": "string",
          "name": "name",
          "type": "string"
        },
        {
          "internalType": "string",
          "name": "symbol",
          "type": "string"
        },
        {
          "internalType": "uint256",
          "name": "initialSupply",
          "type": "uint256"
        },
        {
          "internalType": "address",
          "name": "owner",
          "type": "address"
        }
      ],
      "name": "initialize",
      "outputs": [],
      "stateMutability": "nonpayable",
      "type": "function"
    },
    {
      "inputs": [
        {
          "internalType": "address",
          "name": "to",
          "type": "address"
        },
        {
          "internalType": "uint256",
          "name": "amount",
          "type": "uint256"
        }
      ],
      "name": "mint",
      "outputs": [],
      "stateMutability": "nonpayable",
      "type": "function"
    },
    {
      "inputs": [],
      "name": "name",
      "outputs": [
        {
          "internalType": "string",
          "name": "",
          "type": "string"
        }
      ],
      "stateMutability": "view",
      "type": "function"
    },
    {
      "inputs": [
        {
          "internalType": "address",
          "name": "",
          "type": "address"
        }
      ],
      "name": "nonces",
      "outputs": [
        {
          "internalType": "uint256",
          "name": "",
          "type": "uint256"
        }
      ],
      "stateMutability": "view",
      "type": "function"
    },
    {
      "inputs": [],
      "name": "pause",
      "outputs": [],
      "stateMutability": "nonpayable",
      "type": "function"
    },
    {
      "inputs": [],
      "name": "paused",
      "outputs": [
        {
          "internalType": "bool",
          "name": "",
          "type": "bool"
        }
      ],
      "stateMutability": "view",
      "type": "function"
    },
    {
      "inputs": [
        {
          "internalType": "address",
          "name": "owner",
          "type": "address"
        },
        {
          "internalType": "address",
          "name": "spender",
          "type": "address"
        },
        {
          "internalType": "uint256",
          "name": "value",
          "type": "uint256"
        },
        {
          "internalType": "uint256",
          "name": "deadline",
          "type": "uint256"
        },
        {
          "internalType": "bytes",
          "name": "signature",
          "type": "bytes"
        }
      ],
      "name": "permit",
      "outputs": [],
      "stateMutability": "nonpayable",
      "type": "function"
    },
    {
      "inputs": [
        {
          "internalType": "bytes32",
          "name": "role",
          "type": "bytes32"
        },
        {
          "internalType": "address",
          "name": "account",
          "type": "address"
        }
      ],
      "name": "renounceRole",
      "outputs": [],
      "stateMutability": "nonpayable",
      "type": "function"
    },
    {
      "inputs": [
        {
          "internalType": "bytes32",
          "name": "role",
          "type": "bytes32"
        },
        {
          "internalType": "address",
          "name": "account",
          "type": "address"
        }
      ],
      "name": "revokeRole",
      "outputs": [],
      "stateMutability": "nonpayable",
      "type": "function"
    },
    {
      "inputs": [
        {
          "internalType": "address",
          "name": "account",
          "type": "address"
        }
      ],
      "name": "setBlackList",
      "outputs": [],
      "stateMutability": "nonpayable",
      "type": "function"
    },
    {
      "inputs": [
        {
          "internalType": "bytes4",
          "name": "interfaceId",
          "type": "bytes4"
        }
      ],
      "name": "supportsInterface",
      "outputs": [
        {
          "internalType": "bool",
          "name": "",
          "type": "bool"
        }
      ],
      "stateMutability": "view",
      "type": "function"
    },
    {
      "inputs": [],
      "name": "symbol",
      "outputs": [
        {
          "internalType": "string",
          "name": "",
          "type": "string"
        }
      ],
      "stateMutability": "view",
      "type": "function"
    },
    {
      "inputs": [],
      "name": "totalSupply",
      "outputs": [
        {
          "internalType": "uint256",
          "name": "",
          "type": "uint256"
        }
      ],
      "stateMutability": "view",
      "type": "function"
    },
    {
      "inputs": [
        {
          "internalType": "address",
          "name": "to",
          "type": "address"
        },
        {
          "internalType": "uint256",
          "name": "amount",
          "type": "uint256"
        }
      ],
      "name": "transfer",
      "outputs": [
        {
          "internalType": "bool",
          "name": "",
          "type": "bool"
        }
      ],
      "stateMutability": "nonpayable",
      "type": "function"
    },
    {
      "inputs": [
        {
          "internalType": "address",
          "name": "from",
          "type": "address"
        },
        {
          "internalType": "address",
          "name": "to",
          "type": "address"
        },
        {
          "internalType": "uint256",
          "name": "amount",
          "type": "uint256"
        }
      ],
      "name": "transferFrom",
      "outputs": [
        {
          "internalType": "bool",
          "name": "",
          "type": "bool"
        }
      ],
      "stateMutability": "nonpayable",
      "type": "function"
    },
    {
      "inputs": [],
      "name": "unpause",
      "outputs": [],
      "stateMutability": "nonpayable",
      "type": "function"
    }
  ],
  "bytecode": "0x608060405234801561001057600080fd5b5061258d806100206000396000f3fe608060405234801561001057600080fd5b50600436106102115760003560e01c806370a08231116101255780639fd5a6cf116100ad578063bd3a13f61161007c578063bd3a13f61461049a578063ca15c873146104ad578063d5391393146104c0578063d547741f146104e7578063dd62ed3e146104fa57600080fd5b80639fd5a6cf14610459578063a217fddf1461046c578063a457c2d714610474578063a9059cbb1461048757600080fd5b80638456cb59116100f45780638456cb591461040857806384b0196e146104105780639010d07c1461042b57806391d148541461043e57806395d89b411461045157600080fd5b806370a082311461039857806372700241146103c157806379cc6790146103d45780637ecebe00146103e757600080fd5b8063313ce567116101a85780633fbdc67d116101775780633fbdc67d1461032857806340c10f191461033b57806342966c681461034e5780635c60da1b146103615780635c975abb1461038d57600080fd5b8063313ce567146102eb57806336568abe146102fa578063395093511461030d5780633f4ba83a1461032057600080fd5b806323b872dd116101e457806323b872dd14610278578063248a9ca31461028b5780632f2ff15d146102af57806330adf81f146102c457600080fd5b806301ffc9a71461021657806306fdde031461023e578063095ea7b31461025357806318160ddd14610266575b600080fd5b610229610224366004611e6b565b61050d565b60405190151581526020015b60405180910390f35b610246610538565b6040516102359190611ee5565b610229610261366004611f0f565b6105ca565b6035545b604051908152602001610235565b610229610286366004611f39565b6105e2565b61026a610299366004611f75565b6000908152610161602052604090206001015490565b6102c26102bd366004611f8e565b610606565b005b61026a7f6e71edae12b1b97f4d1f60370fef10105fa2faae0126114a169c64845d6126c981565b60405160128152602001610235565b6102c2610308366004611f8e565b610631565b61022961031b366004611f0f565b6106b4565b6102c26106d6565b610229610336366004611fba565b610707565b6102c2610349366004611f0f565b610753565b6102c261035c366004611f75565b6107f2565b6101c554610375906001600160a01b031681565b6040516001600160a01b039091168152602001610235565b60655460ff16610229565b61026a6103a6366004611fba565b6001600160a01b031660009081526033602052604090205490565b6102c26103cf366004611fba565b6107ff565b6102c26103e2366004611f0f565b610850565b61026a6103f5366004611fba565b6101c76020526000908152604090205481565b6102c2610865565b610418610894565b6040516102359796959493929190611fd5565b61037561043936600461206b565b610932565b61022961044c366004611f8e565b610952565b61024661097e565b6102c2610467366004612119565b61098d565b61026a600081565b610229610482366004611f0f565b610ac0565b610229610495366004611f0f565b610b3b565b6102c26104a83660046121bf565b610b49565b61026a6104bb366004611f75565b610ce7565b61026a7f9f2df0fed2c77648de5860a4cc508cd0818c85b8b8a1ab4ceeef8d981c8956a681565b6102c26104f5366004611f8e565b610cff565b61026a61050836600461223d565b610d25565b60006001600160e01b03198216635a05180f60e01b1480610532575061053282610d50565b92915050565b60606036805461054790612267565b80601f016020809104026020016040519081016040528092919081815260200182805461057390612267565b80156105c05780601f10610595576101008083540402835291602001916105c0565b820191906000526020600020905b8154815290600101906020018083116105a357829003601f168201915b5050505050905090565b6000336105d8818585610d85565b5060019392505050565b6000336105f0858285610ea9565b6105fb858585610f23565b506001949350505050565b60008281526101616020526040902060010154610622816110d9565b61062c83836110e3565b505050565b6001600160a01b03811633146106a65760405162461bcd60e51b815260206004820152602f60248201527f416363657373436f6e74726f6c3a2063616e206f6e6c792072656e6f756e636560448201526e103937b632b9903337b91039b2b63360891b60648201526084015b60405180910390fd5b6106b08282611106565b5050565b6000336105d88185856106c78383610d25565b6106d191906122b7565b610d85565b6106e1600033610952565b6106fd5760405162461bcd60e51b815260040161069d906122ca565b610705611129565b565b60006107138133610952565b61072f5760405162461bcd60e51b815260040161069d906122ca565b506001600160a01b03811660009081526101c6602052604090205460ff165b919050565b61077d7f9f2df0fed2c77648de5860a4cc508cd0818c85b8b8a1ab4ceeef8d981c8956a633610952565b6107e85760405162461bcd60e51b815260206004820152603660248201527f45524332305072657365744d696e7465725061757365723a206d7573742068616044820152751d99481b5a5b9d195c881c9bdb19481d1bc81b5a5b9d60521b606482015260840161069d565b6106b0828261117b565b6107fc3382611248565b50565b61080a600033610952565b6108265760405162461bcd60e51b815260040161069d906122ca565b6001600160a01b031660009081526101c660205260409020805460ff19811660ff90911615179055565b61085b823383610ea9565b6106b08282611248565b610870600033610952565b61088c5760405162461bcd60e51b815260040161069d906122ca565b610705611388565b60006060806000806000606060fb546000801b1480156108b4575060fc54155b6108f85760405162461bcd60e51b81526020600482015260156024820152741152540dcc4c8e88155b9a5b9a5d1a585b1a5e9959605a1b604482015260640161069d565b6109006113c5565b6109086113d4565b60408051600080825260208201909252600f60f81b9b939a50919850469750309650945092509050565b60008281526101936020526040812061094b90836113e3565b9392505050565b6000918252610161602090815260408084206001600160a01b0393909316845291905290205460ff1690565b60606037805461054790612267565b6001600160a01b03851660009081526101c76020526040812080547f6e71edae12b1b97f4d1f60370fef10105fa2faae0126114a169c64845d6126c99188918891889190866109db836122ed565b909155506040805160208101969096526001600160a01b0394851690860152929091166060840152608083015260a082015260c0810184905260e0016040516020818303038152906040528051906020012090506000610a3a826113ef565b90506000610a48828561141c565b9050806001600160a01b0316886001600160a01b031614610aab5760405162461bcd60e51b815260206004820152601960248201527f5065726d69743a20696e76616c6964207369676e617475726500000000000000604482015260640161069d565b610ab6888888610d85565b5050505050505050565b60003381610ace8286610d25565b905083811015610b2e5760405162461bcd60e51b815260206004820152602560248201527f45524332303a2064656372656173656420616c6c6f77616e63652062656c6f77604482015264207a65726f60d81b606482015260840161069d565b6105fb8286868403610d85565b6000336105d8818585610f23565b600054610100900460ff1615808015610b695750600054600160ff909116105b80610b835750303b158015610b83575060005460ff166001145b610be65760405162461bcd60e51b815260206004820152602e60248201527f496e697469616c697a61626c653a20636f6e747261637420697320616c72656160448201526d191e481a5b9a5d1a585b1a5e995960921b606482015260840161069d565b6000805460ff191660011790558015610c09576000805461ff0019166101001790555b610c138585611440565b610c5b6040518060400160405280600b81526020016a2832b936b4ba2a37b5b2b760a91b815250604051806040016040528060038152602001620312e360ec1b815250611471565b610c666000336114a2565b610c907f9f2df0fed2c77648de5860a4cc508cd0818c85b8b8a1ab4ceeef8d981c8956a6336114a2565b610c9a828461117b565b8015610ce0576000805461ff0019169055604051600181527f7f26b83ff96e1f2b6a682f133852f6798a09c465da95921460cefb38474024989060200160405180910390a15b5050505050565b600081815261019360205260408120610532906114ac565b60008281526101616020526040902060010154610d1b816110d9565b61062c8383611106565b6001600160a01b03918216600090815260346020908152604080832093909416825291909152205490565b60006001600160e01b03198216637965db0b60e01b148061053257506301ffc9a760e01b6001600160e01b0319831614610532565b6001600160a01b038316610de75760405162461bcd60e51b8152602060048201526024808201527f45524332303a20617070726f76652066726f6d20746865207a65726f206164646044820152637265737360e01b606482015260840161069d565b6001600160a01b038216610e485760405162461bcd60e51b815260206004820152602260248201527f45524332303a20617070726f766520746f20746865207a65726f206164647265604482015261737360f01b606482015260840161069d565b6001600160a01b0383811660008181526034602090815260408083209487168084529482529182902085905590518481527f8c5be1e5ebec7d5bd14f71427d1e84f3dd0314c0f7b2291e5b200ac8c7c3b925910160405180910390a3505050565b6000610eb58484610d25565b90506000198114610f1d5781811015610f105760405162461bcd60e51b815260206004820152601d60248201527f45524332303a20696e73756666696369656e7420616c6c6f77616e6365000000604482015260640161069d565b610f1d8484848403610d85565b50505050565b6001600160a01b038316610f875760405162461bcd60e51b815260206004820152602560248201527f45524332303a207472616e736665722066726f6d20746865207a65726f206164604482015264647265737360d81b606482015260840161069d565b6001600160a01b038216610fe95760405162461bcd60e51b815260206004820152602360248201527f45524332303a207472616e7366657220746f20746865207a65726f206164647260448201526265737360e81b606482015260840161069d565b610ff48383836114b6565b6001600160a01b0383166000908152603360205260409020548181101561106c5760405162461bcd60e51b815260206004820152602660248201527f45524332303a207472616e7366657220616d6f756e7420657863656564732062604482015265616c616e636560d01b606482015260840161069d565b6001600160a01b0380851660008181526033602052604080822086860390559286168082529083902080548601905591517fddf252ad1be2c89b69c2b068fc378daa952ba7f163c4a11628f55a4df523b3ef906110cc9086815260200190565b60405180910390a3610f1d565b6107fc81336114fb565b6110ed8282611554565b60008281526101936020526040902061062c90826115db565b61111082826115f0565b60008281526101936020526040902061062c9082611658565b61113161166d565b6065805460ff191690557f5db9ee0a495bf2e6ff9c91a7834c1ba4fdd244a5e8aa4e537bd38aeae4b073aa335b6040516001600160a01b03909116815260200160405180910390a1565b6001600160a01b0382166111d15760405162461bcd60e51b815260206004820152601f60248201527f45524332303a206d696e7420746f20746865207a65726f206164647265737300604482015260640161069d565b6111dd600083836114b6565b80603560008282546111ef91906122b7565b90915550506001600160a01b0382166000818152603360209081526040808320805486019055518481527fddf252ad1be2c89b69c2b068fc378daa952ba7f163c4a11628f55a4df523b3ef910160405180910390a35050565b6001600160a01b0382166112a85760405162461bcd60e51b815260206004820152602160248201527f45524332303a206275726e2066726f6d20746865207a65726f206164647265736044820152607360f81b606482015260840161069d565b6112b4826000836114b6565b6001600160a01b038216600090815260336020526040902054818110156113285760405162461bcd60e51b815260206004820152602260248201527f45524332303a206275726e20616d6f756e7420657863656564732062616c616e604482015261636560f01b606482015260840161069d565b6001600160a01b03831660008181526033602090815260408083208686039055603580548790039055518581529192917fddf252ad1be2c89b69c2b068fc378daa952ba7f163c4a11628f55a4df523b3ef910160405180910390a3505050565b6113906116b6565b6065805460ff191660011790557f62e78cea01bee320cd4e420270b5ea74000d11b0c9f74754ebdbfc544b05a25861115e3390565b606060fd805461054790612267565b606060fe805461054790612267565b600061094b83836116fc565b60006105326113fc611726565b8360405161190160f01b8152600281019290925260228201526042902090565b600080600061142b8585611735565b915091506114388161177a565b509392505050565b600054610100900460ff166114675760405162461bcd60e51b815260040161069d90612306565b6106b082826118c4565b600054610100900460ff166114985760405162461bcd60e51b815260040161069d90612306565b6106b08282611904565b6106b082826110e3565b6000610532825490565b6001600160a01b03831660009081526101c6602052604090205460ff16156114f05760405162461bcd60e51b815260040161069d906122ca565b61062c838383611953565b6115058282610952565b6106b057611512816119b9565b61151d8360206119cb565b60405160200161152e929190612351565b60408051601f198184030181529082905262461bcd60e51b825261069d91600401611ee5565b61155e8282610952565b6106b0576000828152610161602090815260408083206001600160a01b03851684529091529020805460ff191660011790556115973390565b6001600160a01b0316816001600160a01b0316837f2f8788117e7eff1d82e926ec794901d17c78024a50270940304540a733656f0d60405160405180910390a45050565b600061094b836001600160a01b038416611b67565b6115fa8282610952565b156106b0576000828152610161602090815260408083206001600160a01b0385168085529252808320805460ff1916905551339285917ff6391f5c32d9c69d2a47ea670b442974b53935d1edc7fd64eb21e047a839171b9190a45050565b600061094b836001600160a01b038416611bb6565b60655460ff166107055760405162461bcd60e51b815260206004820152601460248201527314185d5cd8589b194e881b9bdd081c185d5cd95960621b604482015260640161069d565b60655460ff16156107055760405162461bcd60e51b815260206004820152601060248201526f14185d5cd8589b194e881c185d5cd95960821b604482015260640161069d565b6000826000018281548110611713576117136123c6565b9060005260206000200154905092915050565b6000611730611ca9565b905090565b600080825160410361176b5760208301516040840151606085015160001a61175f87828585611d1d565b94509450505050611773565b506000905060025b9250929050565b600081600481111561178e5761178e6123dc565b036117965750565b60018160048111156117aa576117aa6123dc565b036117f75760405162461bcd60e51b815260206004820152601860248201527f45434453413a20696e76616c6964207369676e61747572650000000000000000604482015260640161069d565b600281600481111561180b5761180b6123dc565b036118585760405162461bcd60e51b815260206004820152601f60248201527f45434453413a20696e76616c6964207369676e6174757265206c656e67746800604482015260640161069d565b600381600481111561186c5761186c6123dc565b036107fc5760405162461bcd60e51b815260206004820152602260248201527f45434453413a20696e76616c6964207369676e6174757265202773272076616c604482015261756560f01b606482015260840161069d565b600054610100900460ff166118eb5760405162461bcd60e51b815260040161069d90612306565b60366118f78382612440565b50603761062c8282612440565b600054610100900460ff1661192b5760405162461bcd60e51b815260040161069d90612306565b60fd6119378382612440565b5060fe6119448282612440565b5050600060fb81905560fc5550565b60655460ff161561062c5760405162461bcd60e51b815260206004820152602a60248201527f45524332305061757361626c653a20746f6b656e207472616e736665722077686044820152691a5b19481c185d5cd95960b21b606482015260840161069d565b60606105326001600160a01b03831660145b606060006119da836002612500565b6119e59060026122b7565b67ffffffffffffffff8111156119fd576119fd61208d565b6040519080825280601f01601f191660200182016040528015611a27576020820181803683370190505b509050600360fc1b81600081518110611a4257611a426123c6565b60200101906001600160f81b031916908160001a905350600f60fb1b81600181518110611a7157611a716123c6565b60200101906001600160f81b031916908160001a9053506000611a95846002612500565b611aa09060016122b7565b90505b6001811115611b18576f181899199a1a9b1b9c1cb0b131b232b360811b85600f1660108110611ad457611ad46123c6565b1a60f81b828281518110611aea57611aea6123c6565b60200101906001600160f81b031916908160001a90535060049490941c93611b1181612517565b9050611aa3565b50831561094b5760405162461bcd60e51b815260206004820181905260248201527f537472696e67733a20686578206c656e67746820696e73756666696369656e74604482015260640161069d565b6000818152600183016020526040812054611bae57508154600181810184556000848152602080822090930184905584548482528286019093526040902091909155610532565b506000610532565b60008181526001830160205260408120548015611c9f576000611bda60018361252e565b8554909150600090611bee9060019061252e565b9050818114611c53576000866000018281548110611c0e57611c0e6123c6565b9060005260206000200154905080876000018481548110611c3157611c316123c6565b6000918252602080832090910192909255918252600188019052604090208390555b8554869080611c6457611c64612541565b600190038181906000526020600020016000905590558560010160008681526020019081526020016000206000905560019350505050610532565b6000915050610532565b60007f8b73c3c69bb8fe3d512ecc4cf759cc79239f7b179b0ffacaa9a75d522b39400f611cd4611de1565b611cdc611e3a565b60408051602081019490945283019190915260608201524660808201523060a082015260c00160405160208183030381529060405280519060200120905090565b6000807f7fffffffffffffffffffffffffffffff5d576e7357a4501ddfe92f46681b20a0831115611d545750600090506003611dd8565b6040805160008082526020820180845289905260ff881692820192909252606081018690526080810185905260019060a0016020604051602081039080840390855afa158015611da8573d6000803e3d6000fd5b5050604051601f1901519150506001600160a01b038116611dd157600060019250925050611dd8565b9150600090505b94509492505050565b600080611dec6113c5565b805190915015611e03578051602090910120919050565b60fb548015611e125792915050565b7fc5d2460186f7233c927e7db2dcc703c0e500b653ca82273b7bfad8045d85a4709250505090565b600080611e456113d4565b805190915015611e5c578051602090910120919050565b60fc548015611e125792915050565b600060208284031215611e7d57600080fd5b81356001600160e01b03198116811461094b57600080fd5b60005b83811015611eb0578181015183820152602001611e98565b50506000910152565b60008151808452611ed1816020860160208601611e95565b601f01601f19169290920160200192915050565b60208152600061094b6020830184611eb9565b80356001600160a01b038116811461074e57600080fd5b60008060408385031215611f2257600080fd5b611f2b83611ef8565b946020939093013593505050565b600080600060608486031215611f4e57600080fd5b611f5784611ef8565b9250611f6560208501611ef8565b9150604084013590509250925092565b600060208284031215611f8757600080fd5b5035919050565b60008060408385031215611fa157600080fd5b82359150611fb160208401611ef8565b90509250929050565b600060208284031215611fcc57600080fd5b61094b82611ef8565b60ff60f81b881681526000602060e081840152611ff560e084018a611eb9565b8381036040850152612007818a611eb9565b606085018990526001600160a01b038816608086015260a0850187905284810360c0860152855180825283870192509083019060005b818110156120595783518352928401929184019160010161203d565b50909c9b505050505050505050505050565b6000806040838503121561207e57600080fd5b50508035926020909101359150565b634e487b7160e01b600052604160045260246000fd5b600067ffffffffffffffff808411156120be576120be61208d565b604051601f8501601f19908116603f011681019082821181831017156120e6576120e661208d565b816040528093508581528686860111156120ff57600080fd5b858560208301376000602087830101525050509392505050565b600080600080600060a0868803121561213157600080fd5b61213a86611ef8565b945061214860208701611ef8565b93506040860135925060608601359150608086013567ffffffffffffffff81111561217257600080fd5b8601601f8101881361218357600080fd5b612192888235602084016120a3565b9150509295509295909350565b600082601f8301126121b057600080fd5b61094b838335602085016120a3565b600080600080608085870312156121d557600080fd5b843567ffffffffffffffff808211156121ed57600080fd5b6121f98883890161219f565b9550602087013591508082111561220f57600080fd5b5061221c8782880161219f565b9350506040850135915061223260608601611ef8565b905092959194509250565b6000806040838503121561225057600080fd5b61225983611ef8565b9150611fb160208401611ef8565b600181811c9082168061227b57607f821691505b60208210810361229b57634e487b7160e01b600052602260045260246000fd5b50919050565b634e487b7160e01b600052601160045260246000fd5b80820180821115610532576105326122a1565b6020808252600990820152683337b93134b23232b760b91b604082015260600190565b6000600182016122ff576122ff6122a1565b5060010190565b6020808252602b908201527f496e697469616c697a61626c653a20636f6e7472616374206973206e6f74206960408201526a6e697469616c697a696e6760a81b606082015260800190565b7f416363657373436f6e74726f6c3a206163636f756e7420000000000000000000815260008351612389816017850160208801611e95565b7001034b99036b4b9b9b4b733903937b6329607d1b60179184019182015283516123ba816028840160208801611e95565b01602801949350505050565b634e487b7160e01b600052603260045260246000fd5b634e487b7160e01b600052602160045260246000fd5b601f82111561062c57600081815260208120601f850160051c810160208610156124195750805b601f850160051c820191505b8181101561243857828155600101612425565b505050505050565b815167ffffffffffffffff81111561245a5761245a61208d565b61246e816124688454612267565b846123f2565b602080601f8311600181146124a3576000841561248b5750858301515b600019600386901b1c1916600185901b178555612438565b600085815260208120601f198616915b828110156124d2578886015182559484019460019091019084016124b3565b50858210156124f05787850151600019600388901b60f8161c191681555b5050505050600190811b01905550565b8082028115828204841417610532576105326122a1565b600081612526576125266122a1565b506000190190565b81810381811115610532576105326122a1565b634e487b7160e01b600052603160045260246000fdfea2646970667358221220d0ffc4e12e9afe7abc46d553aa1f00c903119e7ead52cfed22a3f3069098780464736f6c63430008130033",
  "linkReferences": {},
  "deployedLinkReferences": {}
}