{
  "_format": "hh-sol-artifact-1",
  "contractName": "ERC20MintablePauseableUpgradeable",
  "sourceName": "contracts/ERC20MintablePauseableUpgradeable.sol",
  "abi": [
    {
      "anonymous": false,
      "inputs": [
        {
          "indexed": true,
          "internalType": "address",
          "name": "owner",
          "type": "address"
        },
        {
          "indexed": true,
          "internalType": "address",
          "name": "spender",
          "type": "address"
        },
        {
          "indexed": false,
          "internalType": "uint256",
          "name": "value",
          "type": "uint256"
        }
      ],
      "name": "Approval",
      "type": "event"
    },
    {
      "anonymous": false,
      "inputs": [
        {
          "indexed": false,
          "internalType": "address",
          "name": "account",
          "type": "address"
        }
      ],
      "name": "Paused",
      "type": "event"
    },
    {
      "anonymous": false,
      "inputs": [
        {
          "indexed": true,
          "internalType": "bytes32",
          "name": "role",
          "type": "bytes32"
        },
        {
          "indexed": true,
          "internalType": "bytes32",
          "name": "previousAdminRole",
          "type": "bytes32"
        },
        {
          "indexed": true,
          "internalType": "bytes32",
          "name": "newAdminRole",
          "type": "bytes32"
        }
      ],
      "name": "RoleAdminChanged",
      "type": "event"
    },
    {
      "anonymous": false,
      "inputs": [
        {
          "indexed": true,
          "internalType": "bytes32",
          "name": "role",
          "type": "bytes32"
        },
        {
          "indexed": true,
          "internalType": "address",
          "name": "account",
          "type": "address"
        },
        {
          "indexed": true,
          "internalType": "address",
          "name": "sender",
          "type": "address"
        }
      ],
      "name": "RoleGranted",
      "type": "event"
    },
    {
      "anonymous": false,
      "inputs": [
        {
          "indexed": true,
          "internalType": "bytes32",
          "name": "role",
          "type": "bytes32"
        },
        {
          "indexed": true,
          "internalType": "address",
          "name": "account",
          "type": "address"
        },
        {
          "indexed": true,
          "internalType": "address",
          "name": "sender",
          "type": "address"
        }
      ],
      "name": "RoleRevoked",
      "type": "event"
    },
    {
      "anonymous": false,
      "inputs": [
        {
          "indexed": true,
          "internalType": "address",
          "name": "from",
          "type": "address"
        },
        {
          "indexed": true,
          "internalType": "address",
          "name": "to",
          "type": "address"
        },
        {
          "indexed": false,
          "internalType": "uint256",
          "name": "value",
          "type": "uint256"
        }
      ],
      "name": "Transfer",
      "type": "event"
    },
    {
      "anonymous": false,
      "inputs": [
        {
          "indexed": false,
          "internalType": "address",
          "name": "account",
          "type": "address"
        }
      ],
      "name": "Unpaused",
      "type": "event"
    },
    {
      "inputs": [],
      "name": "DEFAULT_ADMIN_ROLE",
      "outputs": [
        {
          "internalType": "bytes32",
          "name": "",
          "type": "bytes32"
        }
      ],
      "stateMutability": "view",
      "type": "function"
    },
    {
      "inputs": [],
      "name": "MINTER_ROLE",
      "outputs": [
        {
          "internalType": "bytes32",
          "name": "",
          "type": "bytes32"
        }
      ],
      "stateMutability": "view",
      "type": "function"
    },
    {
      "inputs": [],
      "name": "PERMIT_TYPEHASH",
      "outputs": [
        {
          "internalType": "bytes32",
          "name": "",
          "type": "bytes32"
        }
      ],
      "stateMutability": "view",
      "type": "function"
    },
    {
      "inputs": [
        {
          "internalType": "address",
          "name": "owner",
          "type": "address"
        },
        {
          "internalType": "address",
          "name": "spender",
          "type": "address"
        }
      ],
      "name": "allowance",
      "outputs": [
        {
          "internalType": "uint256",
          "name": "",
          "type": "uint256"
        }
      ],
      "stateMutability": "view",
      "type": "function"
    },
    {
      "inputs": [
        {
          "internalType": "address",
          "name": "spender",
          "type": "address"
        },
        {
          "internalType": "uint256",
          "name": "amount",
          "type": "uint256"
        }
      ],
      "name": "approve",
      "outputs": [
        {
          "internalType": "bool",
          "name": "",
          "type": "bool"
        }
      ],
      "stateMutability": "nonpayable",
      "type": "function"
    },
    {
      "inputs": [
        {
          "internalType": "address",
          "name": "account",
          "type": "address"
        }
      ],
      "name": "balanceOf",
      "outputs": [
        {
          "internalType": "uint256",
          "name": "",
          "type": "uint256"
        }
      ],
      "stateMutability": "view",
      "type": "function"
    },
    {
      "inputs": [
        {
          "internalType": "uint256",
          "name": "amount",
          "type": "uint256"
        }
      ],
      "name": "burn",
      "outputs": [],
      "stateMutability": "nonpayable",
      "type": "function"
    },
    {
      "inputs": [
        {
          "internalType": "address",
          "name": "account",
          "type": "address"
        },
        {
          "internalType": "uint256",
          "name": "amount",
          "type": "uint256"
        }
      ],
      "name": "burnFrom",
      "outputs": [],
      "stateMutability": "nonpayable",
      "type": "function"
    },
    {
      "inputs": [],
      "name": "decimals",
      "outputs": [
        {
          "internalType": "uint8",
          "name": "",
          "type": "uint8"
        }
      ],
      "stateMutability": "view",
      "type": "function"
    },
    {
      "inputs": [
        {
          "internalType": "address",
          "name": "spender",
          "type": "address"
        },
        {
          "internalType": "uint256",
          "name": "subtractedValue",
          "type": "uint256"
        }
      ],
      "name": "decreaseAllowance",
      "outputs": [
        {
          "internalType": "bool",
          "name": "",
          "type": "bool"
        }
      ],
      "stateMutability": "nonpayable",
      "type": "function"
    },
    {
      "inputs": [
        {
          "internalType": "address",
          "name": "account",
          "type": "address"
        }
      ],
      "name": "getBlackList",
      "outputs": [
        {
          "internalType": "bool",
          "name": "",
          "type": "bool"
        }
      ],
      "stateMutability": "view",
      "type": "function"
    },
    {
      "inputs": [
        {
          "internalType": "bytes32",
          "name": "role",
          "type": "bytes32"
        }
      ],
      "name": "getRoleAdmin",
      "outputs": [
        {
          "internalType": "bytes32",
          "name": "",
          "type": "bytes32"
        }
      ],
      "stateMutability": "view",
      "type": "function"
    },
    {
      "inputs": [
        {
          "internalType": "bytes32",
          "name": "role",
          "type": "bytes32"
        },
        {
          "internalType": "uint256",
          "name": "index",
          "type": "uint256"
        }
      ],
      "name": "getRoleMember",
      "outputs": [
        {
          "internalType": "address",
          "name": "",
          "type": "address"
        }
      ],
      "stateMutability": "view",
      "type": "function"
    },
    {
      "inputs": [
        {
          "internalType": "bytes32",
          "name": "role",
          "type": "bytes32"
        }
      ],
      "name": "getRoleMemberCount",
      "outputs": [
        {
          "internalType": "uint256",
          "name": "",
          "type": "uint256"
        }
      ],
      "stateMutability": "view",
      "type": "function"
    },
    {
      "inputs": [
        {
          "internalType": "bytes32",
          "name": "role",
          "type": "bytes32"
        },
        {
          "internalType": "address",
          "name": "account",
          "type": "address"
        }
      ],
      "name": "grantRole",
      "outputs": [],
      "stateMutability": "nonpayable",
      "type": "function"
    },
    {
      "inputs": [
        {
          "internalType": "bytes32",
          "name": "role",
          "type": "bytes32"
        },
        {
          "internalType": "address",
          "name": "account",
          "type": "address"
        }
      ],
      "name": "hasRole",
      "outputs": [
        {
          "internalType": "bool",
          "name": "",
          "type": "bool"
        }
      ],
      "stateMutability": "view",
      "type": "function"
    },
    {
      "inputs": [],
      "name": "implementation",
      "outputs": [
        {
          "internalType": "address",
          "name": "",
          "type": "address"
        }
      ],
      "stateMutability": "view",
      "type": "function"
    },
    {
      "inputs": [
        {
          "internalType": "address",
          "name": "spender",
          "type": "address"
        },
        {
          "internalType": "uint256",
          "name": "addedValue",
          "type": "uint256"
        }
      ],
      "name": "increaseAllowance",
      "outputs": [
        {
          "internalType": "bool",
          "name": "",
          "type": "bool"
        }
      ],
      "stateMutability": "nonpayable",
      "type": "function"
    },
    {
      "inputs": [
        {
          "internalType": "string",
          "name": "name",
          "type": "string"
        },
        {
          "internalType": "string",
          "name": "symbol",
          "type": "string"
        },
        {
          "internalType": "uint256",
          "name": "initialSupply",
          "type": "uint256"
        },
        {
          "internalType": "address",
          "name": "owner",
          "type": "address"
        }
      ],
      "name": "initialize",
      "outputs": [],
      "stateMutability": "nonpayable",
      "type": "function"
    },
    {
      "inputs": [
        {
          "internalType": "address",
          "name": "to",
          "type": "address"
        },
        {
          "internalType": "uint256",
          "name": "amount",
          "type": "uint256"
        }
      ],
      "name": "mint",
      "outputs": [],
      "stateMutability": "nonpayable",
      "type": "function"
    },
    {
      "inputs": [],
      "name": "name",
      "outputs": [
        {
          "internalType": "string",
          "name": "",
          "type": "string"
        }
      ],
      "stateMutability": "view",
      "type": "function"
    },
    {
      "inputs": [
        {
          "internalType": "address",
          "name": "",
          "type": "address"
        }
      ],
      "name": "nonces",
      "outputs": [
        {
          "internalType": "uint256",
          "name": "",
          "type": "uint256"
        }
      ],
      "stateMutability": "view",
      "type": "function"
    },
    {
      "inputs": [],
      "name": "pause",
      "outputs": [],
      "stateMutability": "nonpayable",
      "type": "function"
    },
    {
      "inputs": [],
      "name": "paused",
      "outputs": [
        {
          "internalType": "bool",
          "name": "",
          "type": "bool"
        }
      ],
      "stateMutability": "view",
      "type": "function"
    },
    {
      "inputs": [
        {
          "internalType": "address",
          "name": "owner",
          "type": "address"
        },
        {
          "internalType": "address",
          "name": "spender",
          "type": "address"
        },
        {
          "internalType": "uint256",
          "name": "value",
          "type": "uint256"
        },
        {
          "internalType": "uint256",
          "name": "deadline",
          "type": "uint256"
        },
        {
          "internalType": "bytes",
          "name": "signature",
          "type": "bytes"
        }
      ],
      "name": "permit",
      "outputs": [],
      "stateMutability": "nonpayable",
      "type": "function"
    },
    {
      "inputs": [
        {
          "internalType": "bytes32",
          "name": "role",
          "type": "bytes32"
        },
        {
          "internalType": "address",
          "name": "account",
          "type": "address"
        }
      ],
      "name": "renounceRole",
      "outputs": [],
      "stateMutability": "nonpayable",
      "type": "function"
    },
    {
      "inputs": [
        {
          "internalType": "bytes32",
          "name": "role",
          "type": "bytes32"
        },
        {
          "internalType": "address",
          "name": "account",
          "type": "address"
        }
      ],
      "name": "revokeRole",
      "outputs": [],
      "stateMutability": "nonpayable",
      "type": "function"
    },
    {
      "inputs": [
        {
          "internalType": "address",
          "name": "account",
          "type": "address"
        }
      ],
      "name": "setBlackList",
      "outputs": [],
      "stateMutability": "nonpayable",
      "type": "function"
    },
    {
      "inputs": [
        {
          "internalType": "bytes4",
          "name": "interfaceId",
          "type": "bytes4"
        }
      ],
      "name": "supportsInterface",
      "outputs": [
        {
          "internalType": "bool",
          "name": "",
          "type": "bool"
        }
      ],
      "stateMutability": "view",
      "type": "function"
    },
    {
      "inputs": [],
      "name": "symbol",
      "outputs": [
        {
          "internalType": "string",
          "name": "",
          "type": "string"
        }
      ],
      "stateMutability": "view",
      "type": "function"
    },
    {
      "inputs": [],
      "name": "totalSupply",
      "outputs": [
        {
          "internalType": "uint256",
          "name": "",
          "type": "uint256"
        }
      ],
      "stateMutability": "view",
      "type": "function"
    },
    {
      "inputs": [
        {
          "internalType": "address",
          "name": "recipient",
          "type": "address"
        },
        {
          "internalType": "uint256",
          "name": "amount",
          "type": "uint256"
        }
      ],
      "name": "transfer",
      "outputs": [
        {
          "internalType": "bool",
          "name": "",
          "type": "bool"
        }
      ],
      "stateMutability": "nonpayable",
      "type": "function"
    },
    {
      "inputs": [
        {
          "internalType": "address",
          "name": "sender",
          "type": "address"
        },
        {
          "internalType": "address",
          "name": "recipient",
          "type": "address"
        },
        {
          "internalType": "uint256",
          "name": "amount",
          "type": "uint256"
        }
      ],
      "name": "transferFrom",
      "outputs": [
        {
          "internalType": "bool",
          "name": "",
          "type": "bool"
        }
      ],
      "stateMutability": "nonpayable",
      "type": "function"
    },
    {
      "inputs": [],
      "name": "unpause",
      "outputs": [],
      "stateMutability": "nonpayable",
      "type": "function"
    }
  ],
  "bytecode": "0x608060405234801561001057600080fd5b50612683806100206000396000f3fe608060405234801561001057600080fd5b50600436106102065760003560e01c806370a082311161011a5780639fd5a6cf116100ad578063bd3a13f61161007c578063bd3a13f614610474578063ca15c87314610487578063d53913931461049a578063d547741f146104c1578063dd62ed3e146104d457600080fd5b80639fd5a6cf14610433578063a217fddf14610446578063a457c2d71461044e578063a9059cbb1461046157600080fd5b80638456cb59116100e95780638456cb59146103fd5780639010d07c1461040557806391d148541461041857806395d89b411461042b57600080fd5b806370a082311461038d57806372700241146103b657806379cc6790146103c95780637ecebe00146103dc57600080fd5b8063313ce5671161019d5780633fbdc67d1161016c5780633fbdc67d1461031d57806340c10f191461033057806342966c68146103435780635c60da1b146103565780635c975abb1461038257600080fd5b8063313ce567146102e057806336568abe146102ef57806339509351146103025780633f4ba83a1461031557600080fd5b806323b872dd116101d957806323b872dd1461026d578063248a9ca3146102805780632f2ff15d146102a457806330adf81f146102b957600080fd5b806301ffc9a71461020b57806306fdde0314610233578063095ea7b31461024857806318160ddd1461025b575b600080fd5b61021e61021936600461237e565b61050d565b60405190151581526020015b60405180910390f35b61023b610538565b60405161022a9190612496565b61021e6102563660046122fa565b6105ca565b6035545b60405190815260200161022a565b61021e61027b36600461223c565b6105e0565b61025f61028e366004612323565b6000908152610161602052604090206001015490565b6102b76102b236600461233b565b61068f565b005b61025f7f6e71edae12b1b97f4d1f60370fef10105fa2faae0126114a169c64845d6126c981565b6040516012815260200161022a565b6102b76102fd36600461233b565b6106b7565b61021e6103103660046122fa565b6106da565b6102b7610716565b61021e61032b3660046121f0565b610747565b6102b761033e3660046122fa565b610793565b6102b7610351366004612323565b610836565b6101c55461036a906001600160a01b031681565b6040516001600160a01b03909116815260200161022a565b60655460ff1661021e565b61025f61039b3660046121f0565b6001600160a01b031660009081526033602052604090205490565b6102b76103c43660046121f0565b610843565b6102b76103d73660046122fa565b610894565b61025f6103ea3660046121f0565b6101c76020526000908152604090205481565b6102b7610915565b61036a61041336600461235d565b610944565b61021e61042636600461233b565b610964565b61023b610990565b6102b7610441366004612277565b61099f565b61025f600081565b61021e61045c3660046122fa565b610ad2565b61021e61046f3660046122fa565b610b6b565b6102b76104823660046123a6565b610b78565b61025f610495366004612323565b610c79565b61025f7f9f2df0fed2c77648de5860a4cc508cd0818c85b8b8a1ab4ceeef8d981c8956a681565b6102b76104cf36600461233b565b610c91565b61025f6104e236600461220a565b6001600160a01b03918216600090815260346020908152604080832093909416825291909152205490565b60006001600160e01b03198216635a05180f60e01b1480610532575061053282610c9b565b92915050565b606060368054610547906125cb565b80601f0160208091040260200160405190810160405280929190818152602001828054610573906125cb565b80156105c05780601f10610595576101008083540402835291602001916105c0565b820191906000526020600020905b8154815290600101906020018083116105a357829003601f168201915b5050505050905090565b60006105d7338484610cd0565b50600192915050565b60006105ed848484610df4565b6001600160a01b0384166000908152603460209081526040808320338452909152902054828110156106775760405162461bcd60e51b815260206004820152602860248201527f45524332303a207472616e7366657220616d6f756e74206578636565647320616044820152676c6c6f77616e636560c01b60648201526084015b60405180910390fd5b6106848533858403610cd0565b506001949350505050565b6106998282610fcf565b6000828152610193602052604090206106b29082610ff6565b505050565b6106c1828261100b565b6000828152610193602052604090206106b29082611085565b3360008181526034602090815260408083206001600160a01b038716845290915281205490916105d791859061071190869061253a565b610cd0565b610721600033610964565b61073d5760405162461bcd60e51b815260040161066e906124c9565b61074561109a565b565b60006107538133610964565b61076f5760405162461bcd60e51b815260040161066e906124c9565b506001600160a01b03811660009081526101c6602052604090205460ff165b919050565b6107bd7f9f2df0fed2c77648de5860a4cc508cd0818c85b8b8a1ab4ceeef8d981c8956a633610964565b6108285760405162461bcd60e51b815260206004820152603660248201527f45524332305072657365744d696e7465725061757365723a206d7573742068616044820152751d99481b5a5b9d195c881c9bdb19481d1bc81b5a5b9d60521b606482015260840161066e565b610832828261112d565b5050565b6108403382611218565b50565b61084e600033610964565b61086a5760405162461bcd60e51b815260040161066e906124c9565b6001600160a01b031660009081526101c660205260409020805460ff19811660ff90911615179055565b60006108a083336104e2565b9050818110156108fe5760405162461bcd60e51b8152602060048201526024808201527f45524332303a206275726e20616d6f756e74206578636565647320616c6c6f77604482015263616e636560e01b606482015260840161066e565b61090b8333848403610cd0565b6106b28383611218565b610920600033610964565b61093c5760405162461bcd60e51b815260040161066e906124c9565b610745611372565b60008281526101936020526040812061095d90836113ed565b9392505050565b6000918252610161602090815260408084206001600160a01b0393909316845291905290205460ff1690565b606060378054610547906125cb565b6001600160a01b03851660009081526101c76020526040812080547f6e71edae12b1b97f4d1f60370fef10105fa2faae0126114a169c64845d6126c99188918891889190866109ed83612606565b909155506040805160208101969096526001600160a01b0394851690860152929091166060840152608083015260a082015260c0810184905260e0016040516020818303038152906040528051906020012090506000610a4c826113f9565b90506000610a5a8285611447565b9050806001600160a01b0316886001600160a01b031614610abd5760405162461bcd60e51b815260206004820152601960248201527f5065726d69743a20696e76616c6964207369676e617475726500000000000000604482015260640161066e565b610ac8888888610cd0565b5050505050505050565b3360009081526034602090815260408083206001600160a01b038616845290915281205482811015610b545760405162461bcd60e51b815260206004820152602560248201527f45524332303a2064656372656173656420616c6c6f77616e63652062656c6f77604482015264207a65726f60d81b606482015260840161066e565b610b613385858403610cd0565b5060019392505050565b60006105d7338484610df4565b600054610100900460ff1680610b91575060005460ff16155b610bad5760405162461bcd60e51b815260040161066e906124ec565b600054610100900460ff16158015610bcf576000805461ffff19166101011790555b610bd9858561146b565b610c216040518060400160405280600b81526020016a2832b936b4ba2a37b5b2b760a91b815250604051806040016040528060038152602001620312e360ec1b8152506114ea565b610c2c60003361154b565b610c567f9f2df0fed2c77648de5860a4cc508cd0818c85b8b8a1ab4ceeef8d981c8956a63361154b565b610c60828461112d565b8015610c72576000805461ff00191690555b5050505050565b60008181526101936020526040812061053290611555565b6106c1828261155f565b60006001600160e01b03198216637965db0b60e01b148061053257506301ffc9a760e01b6001600160e01b0319831614610532565b6001600160a01b038316610d325760405162461bcd60e51b8152602060048201526024808201527f45524332303a20617070726f76652066726f6d20746865207a65726f206164646044820152637265737360e01b606482015260840161066e565b6001600160a01b038216610d935760405162461bcd60e51b815260206004820152602260248201527f45524332303a20617070726f766520746f20746865207a65726f206164647265604482015261737360f01b606482015260840161066e565b6001600160a01b0383811660008181526034602090815260408083209487168084529482529182902085905590518481527f8c5be1e5ebec7d5bd14f71427d1e84f3dd0314c0f7b2291e5b200ac8c7c3b925910160405180910390a3505050565b6001600160a01b038316610e585760405162461bcd60e51b815260206004820152602560248201527f45524332303a207472616e736665722066726f6d20746865207a65726f206164604482015264647265737360d81b606482015260840161066e565b6001600160a01b038216610eba5760405162461bcd60e51b815260206004820152602360248201527f45524332303a207472616e7366657220746f20746865207a65726f206164647260448201526265737360e81b606482015260840161066e565b610ec5838383611586565b6001600160a01b03831660009081526033602052604090205481811015610f3d5760405162461bcd60e51b815260206004820152602660248201527f45524332303a207472616e7366657220616d6f756e7420657863656564732062604482015265616c616e636560d01b606482015260840161066e565b6001600160a01b03808516600090815260336020526040808220858503905591851681529081208054849290610f7490849061253a565b92505081905550826001600160a01b0316846001600160a01b03167fddf252ad1be2c89b69c2b068fc378daa952ba7f163c4a11628f55a4df523b3ef84604051610fc091815260200190565b60405180910390a35b50505050565b60008281526101616020526040902060010154610fec81336115cb565b6106b2838361162f565b600061095d836001600160a01b0384166116b6565b6001600160a01b038116331461107b5760405162461bcd60e51b815260206004820152602f60248201527f416363657373436f6e74726f6c3a2063616e206f6e6c792072656e6f756e636560448201526e103937b632b9903337b91039b2b63360891b606482015260840161066e565b6108328282611705565b600061095d836001600160a01b03841661176d565b60655460ff166110e35760405162461bcd60e51b815260206004820152601460248201527314185d5cd8589b194e881b9bdd081c185d5cd95960621b604482015260640161066e565b6065805460ff191690557f5db9ee0a495bf2e6ff9c91a7834c1ba4fdd244a5e8aa4e537bd38aeae4b073aa335b6040516001600160a01b03909116815260200160405180910390a1565b6001600160a01b0382166111835760405162461bcd60e51b815260206004820152601f60248201527f45524332303a206d696e7420746f20746865207a65726f206164647265737300604482015260640161066e565b61118f60008383611586565b80603560008282546111a1919061253a565b90915550506001600160a01b038216600090815260336020526040812080548392906111ce90849061253a565b90915550506040518181526001600160a01b038316906000907fddf252ad1be2c89b69c2b068fc378daa952ba7f163c4a11628f55a4df523b3ef9060200160405180910390a35050565b6001600160a01b0382166112785760405162461bcd60e51b815260206004820152602160248201527f45524332303a206275726e2066726f6d20746865207a65726f206164647265736044820152607360f81b606482015260840161066e565b61128482600083611586565b6001600160a01b038216600090815260336020526040902054818110156112f85760405162461bcd60e51b815260206004820152602260248201527f45524332303a206275726e20616d6f756e7420657863656564732062616c616e604482015261636560f01b606482015260840161066e565b6001600160a01b0383166000908152603360205260408120838303905560358054849290611327908490612571565b90915550506040518281526000906001600160a01b038516907fddf252ad1be2c89b69c2b068fc378daa952ba7f163c4a11628f55a4df523b3ef9060200160405180910390a3505050565b60655460ff16156113b85760405162461bcd60e51b815260206004820152601060248201526f14185d5cd8589b194e881c185d5cd95960821b604482015260640161066e565b6065805460ff191660011790557f62e78cea01bee320cd4e420270b5ea74000d11b0c9f74754ebdbfc544b05a2586111103390565b600061095d838361188a565b60006105326114066118c2565b8360405161190160f01b6020820152602281018390526042810182905260009060620160405160208183030381529060405280519060200120905092915050565b60008060006114568585611942565b91509150611463816119b2565b509392505050565b600054610100900460ff1680611484575060005460ff16155b6114a05760405162461bcd60e51b815260040161066e906124ec565b600054610100900460ff161580156114c2576000805461ffff19166101011790555b6114ca611bb3565b6114d48383611c1e565b80156106b2576000805461ff0019169055505050565b600054610100900460ff1680611503575060005460ff16155b61151f5760405162461bcd60e51b815260040161066e906124ec565b600054610100900460ff16158015611541576000805461ffff19166101011790555b6114d48383611cb3565b6106998282611d3d565b6000610532825490565b6000828152610161602052604090206001015461157c81336115cb565b6106b28383611705565b6001600160a01b03831660009081526101c6602052604090205460ff16156115c05760405162461bcd60e51b815260040161066e906124c9565b6106b2838383611d47565b6115d58282610964565b610832576115ed816001600160a01b03166014611dad565b6115f8836020611dad565b604051602001611609929190612421565b60408051601f198184030181529082905262461bcd60e51b825261066e91600401612496565b6116398282610964565b610832576000828152610161602090815260408083206001600160a01b03851684529091529020805460ff191660011790556116723390565b6001600160a01b0316816001600160a01b0316837f2f8788117e7eff1d82e926ec794901d17c78024a50270940304540a733656f0d60405160405180910390a45050565b60008181526001830160205260408120546116fd57508154600181810184556000848152602080822090930184905584548482528286019093526040902091909155610532565b506000610532565b61170f8282610964565b15610832576000828152610161602090815260408083206001600160a01b0385168085529252808320805460ff1916905551339285917ff6391f5c32d9c69d2a47ea670b442974b53935d1edc7fd64eb21e047a839171b9190a45050565b60008181526001830160205260408120548015611880576000611791600183612571565b85549091506000906117a590600190612571565b90508181146118265760008660000182815481106117d357634e487b7160e01b600052603260045260246000fd5b906000526020600020015490508087600001848154811061180457634e487b7160e01b600052603260045260246000fd5b6000918252602080832090910192909255918252600188019052604090208390555b855486908061184557634e487b7160e01b600052603160045260246000fd5b600190038181906000526020600020016000905590558560010160008681526020019081526020016000206000905560019350505050610532565b6000915050610532565b60008260000182815481106118af57634e487b7160e01b600052603260045260246000fd5b9060005260206000200154905092915050565b600061193d7f8b73c3c69bb8fe3d512ecc4cf759cc79239f7b179b0ffacaa9a75d522b39400f6118f160fb5490565b60fc546040805160208101859052908101839052606081018290524660808201523060a082015260009060c0016040516020818303038152906040528051906020012090509392505050565b905090565b6000808251604114156119795760208301516040840151606085015160001a61196d87828585611f8f565b945094505050506119ab565b8251604014156119a3576020830151604084015161199886838361207c565b9350935050506119ab565b506000905060025b9250929050565b60008160048111156119d457634e487b7160e01b600052602160045260246000fd5b14156119dd5750565b60018160048111156119ff57634e487b7160e01b600052602160045260246000fd5b1415611a4d5760405162461bcd60e51b815260206004820152601860248201527f45434453413a20696e76616c6964207369676e61747572650000000000000000604482015260640161066e565b6002816004811115611a6f57634e487b7160e01b600052602160045260246000fd5b1415611abd5760405162461bcd60e51b815260206004820152601f60248201527f45434453413a20696e76616c6964207369676e6174757265206c656e67746800604482015260640161066e565b6003816004811115611adf57634e487b7160e01b600052602160045260246000fd5b1415611b385760405162461bcd60e51b815260206004820152602260248201527f45434453413a20696e76616c6964207369676e6174757265202773272076616c604482015261756560f01b606482015260840161066e565b6004816004811115611b5a57634e487b7160e01b600052602160045260246000fd5b14156108405760405162461bcd60e51b815260206004820152602260248201527f45434453413a20696e76616c6964207369676e6174757265202776272076616c604482015261756560f01b606482015260840161066e565b600054610100900460ff1680611bcc575060005460ff16155b611be85760405162461bcd60e51b815260040161066e906124ec565b600054610100900460ff16158015611c0a576000805461ffff19166101011790555b8015610840576000805461ff001916905550565b600054610100900460ff1680611c37575060005460ff16155b611c535760405162461bcd60e51b815260040161066e906124ec565b600054610100900460ff16158015611c75576000805461ffff19166101011790555b8251611c889060369060208601906120ab565b508151611c9c9060379060208501906120ab565b5080156106b2576000805461ff0019169055505050565b600054610100900460ff1680611ccc575060005460ff16155b611ce85760405162461bcd60e51b815260040161066e906124ec565b600054610100900460ff16158015611d0a576000805461ffff19166101011790555b825160208085019190912083519184019190912060fb9190915560fc5580156106b2576000805461ff0019169055505050565b610832828261162f565b60655460ff16156106b25760405162461bcd60e51b815260206004820152602a60248201527f45524332305061757361626c653a20746f6b656e207472616e736665722077686044820152691a5b19481c185d5cd95960b21b606482015260840161066e565b60606000611dbc836002612552565b611dc790600261253a565b67ffffffffffffffff811115611ded57634e487b7160e01b600052604160045260246000fd5b6040519080825280601f01601f191660200182016040528015611e17576020820181803683370190505b509050600360fc1b81600081518110611e4057634e487b7160e01b600052603260045260246000fd5b60200101906001600160f81b031916908160001a905350600f60fb1b81600181518110611e7d57634e487b7160e01b600052603260045260246000fd5b60200101906001600160f81b031916908160001a9053506000611ea1846002612552565b611eac90600161253a565b90505b6001811115611f40576f181899199a1a9b1b9c1cb0b131b232b360811b85600f1660108110611eee57634e487b7160e01b600052603260045260246000fd5b1a60f81b828281518110611f1257634e487b7160e01b600052603260045260246000fd5b60200101906001600160f81b031916908160001a90535060049490941c93611f39816125b4565b9050611eaf565b50831561095d5760405162461bcd60e51b815260206004820181905260248201527f537472696e67733a20686578206c656e67746820696e73756666696369656e74604482015260640161066e565b6000807f7fffffffffffffffffffffffffffffff5d576e7357a4501ddfe92f46681b20a0831115611fc65750600090506003612073565b8460ff16601b14158015611fde57508460ff16601c14155b15611fef5750600090506004612073565b6040805160008082526020820180845289905260ff881692820192909252606081018690526080810185905260019060a0016020604051602081039080840390855afa158015612043573d6000803e3d6000fd5b5050604051601f1901519150506001600160a01b03811661206c57600060019250925050612073565b9150600090505b94509492505050565b6000806001600160ff1b03831660ff84901c601b0161209d87828885611f8f565b935093505050935093915050565b8280546120b7906125cb565b90600052602060002090601f0160209004810192826120d9576000855561211f565b82601f106120f257805160ff191683800117855561211f565b8280016001018555821561211f579182015b8281111561211f578251825591602001919060010190612104565b5061212b92915061212f565b5090565b5b8082111561212b5760008155600101612130565b600067ffffffffffffffff8084111561215f5761215f612637565b604051601f8501601f19908116603f0116810190828211818310171561218757612187612637565b816040528093508581528686860111156121a057600080fd5b858560208301376000602087830101525050509392505050565b80356001600160a01b038116811461078e57600080fd5b600082601f8301126121e1578081fd5b61095d83833560208501612144565b600060208284031215612201578081fd5b61095d826121ba565b6000806040838503121561221c578081fd5b612225836121ba565b9150612233602084016121ba565b90509250929050565b600080600060608486031215612250578081fd5b612259846121ba565b9250612267602085016121ba565b9150604084013590509250925092565b600080600080600060a0868803121561228e578081fd5b612297866121ba565b94506122a5602087016121ba565b93506040860135925060608601359150608086013567ffffffffffffffff8111156122ce578182fd5b8601601f810188136122de578182fd5b6122ed88823560208401612144565b9150509295509295909350565b6000806040838503121561230c578182fd5b612315836121ba565b946020939093013593505050565b600060208284031215612334578081fd5b5035919050565b6000806040838503121561234d578182fd5b82359150612233602084016121ba565b6000806040838503121561236f578182fd5b50508035926020909101359150565b60006020828403121561238f578081fd5b81356001600160e01b03198116811461095d578182fd5b600080600080608085870312156123bb578384fd5b843567ffffffffffffffff808211156123d2578586fd5b6123de888389016121d1565b955060208701359150808211156123f3578485fd5b50612400878288016121d1565b93505060408501359150612416606086016121ba565b905092959194509250565b7f416363657373436f6e74726f6c3a206163636f756e7420000000000000000000815260008351612459816017850160208801612588565b7001034b99036b4b9b9b4b733903937b6329607d1b601791840191820152835161248a816028840160208801612588565b01602801949350505050565b60208152600082518060208401526124b5816040850160208701612588565b601f01601f19169190910160400192915050565b6020808252600990820152683337b93134b23232b760b91b604082015260600190565b6020808252602e908201527f496e697469616c697a61626c653a20636f6e747261637420697320616c72656160408201526d191e481a5b9a5d1a585b1a5e995960921b606082015260800190565b6000821982111561254d5761254d612621565b500190565b600081600019048311821515161561256c5761256c612621565b500290565b60008282101561258357612583612621565b500390565b60005b838110156125a357818101518382015260200161258b565b83811115610fc95750506000910152565b6000816125c3576125c3612621565b506000190190565b600181811c908216806125df57607f821691505b6020821081141561260057634e487b7160e01b600052602260045260246000fd5b50919050565b600060001982141561261a5761261a612621565b5060010190565b634e487b7160e01b600052601160045260246000fd5b634e487b7160e01b600052604160045260246000fdfea2646970667358221220728eb3ce3d2386129e6737e03e0b1651949ec0733b4078407689e14760d3432d64736f6c63430008040033",
  "linkReferences": {},
  "deployedLinkReferences": {}
}