{
  "_format": "hh-sol-artifact-1",
  "contractName": "SimpleERC20",
  "sourceName": "contracts/SimpleERC20.sol",
  "abi": [
    {
      "inputs": [
        {
          "internalType": "string",
          "name": "_name",
          "type": "string"
        },
        {
          "internalType": "string",
          "name": "_symbol",
          "type": "string"
        },
        {
          "internalType": "uint256",
          "name": "initialSupply",
          "type": "uint256"
        }
      ],
      "stateMutability": "nonpayable",
      "type": "constructor"
    },
    {
      "anonymous": false,
      "inputs": [
        {
          "indexed": true,
          "internalType": "address",
          "name": "owner",
          "type": "address"
        },
        {
          "indexed": true,
          "internalType": "address",
          "name": "spender",
          "type": "address"
        },
        {
          "indexed": false,
          "internalType": "uint256",
          "name": "value",
          "type": "uint256"
        }
      ],
      "name": "Approval",
      "type": "event"
    },
    {
      "anonymous": false,
      "inputs": [
        {
          "indexed": true,
          "internalType": "address",
          "name": "from",
          "type": "address"
        },
        {
          "indexed": true,
          "internalType": "address",
          "name": "to",
          "type": "address"
        },
        {
          "indexed": false,
          "internalType": "uint256",
          "name": "value",
          "type": "uint256"
        }
      ],
      "name": "Transfer",
      "type": "event"
    },
    {
      "inputs": [
        {
          "internalType": "address",
          "name": "",
          "type": "address"
        },
        {
          "internalType": "address",
          "name": "",
          "type": "address"
        }
      ],
      "name": "allowance",
      "outputs": [
        {
          "internalType": "uint256",
          "name": "",
          "type": "uint256"
        }
      ],
      "stateMutability": "view",
      "type": "function"
    },
    {
      "inputs": [
        {
          "internalType": "address",
          "name": "_spender",
          "type": "address"
        },
        {
          "internalType": "uint256",
          "name": "_value",
          "type": "uint256"
        }
      ],
      "name": "approve",
      "outputs": [
        {
          "internalType": "bool",
          "name": "",
          "type": "bool"
        }
      ],
      "stateMutability": "nonpayable",
      "type": "function"
    },
    {
      "inputs": [
        {
          "internalType": "address",
          "name": "",
          "type": "address"
        }
      ],
      "name": "balanceOf",
      "outputs": [
        {
          "internalType": "uint256",
          "name": "",
          "type": "uint256"
        }
      ],
      "stateMutability": "view",
      "type": "function"
    },
    {
      "inputs": [],
      "name": "decimals",
      "outputs": [
        {
          "internalType": "uint8",
          "name": "",
          "type": "uint8"
        }
      ],
      "stateMutability": "view",
      "type": "function"
    },
    {
      "inputs": [
        {
          "internalType": "address",
          "name": "account",
          "type": "address"
        },
        {
          "internalType": "uint256",
          "name": "amount",
          "type": "uint256"
        }
      ],
      "name": "mint",
      "outputs": [
        {
          "internalType": "bool",
          "name": "",
          "type": "bool"
        }
      ],
      "stateMutability": "nonpayable",
      "type": "function"
    },
    {
      "inputs": [],
      "name": "minter",
      "outputs": [
        {
          "internalType": "address",
          "name": "",
          "type": "address"
        }
      ],
      "stateMutability": "view",
      "type": "function"
    },
    {
      "inputs": [],
      "name": "name",
      "outputs": [
        {
          "internalType": "string",
          "name": "",
          "type": "string"
        }
      ],
      "stateMutability": "view",
      "type": "function"
    },
    {
      "inputs": [
        {
          "internalType": "address",
          "name": "_minter",
          "type": "address"
        }
      ],
      "name": "setMinter",
      "outputs": [],
      "stateMutability": "nonpayable",
      "type": "function"
    },
    {
      "inputs": [],
      "name": "symbol",
      "outputs": [
        {
          "internalType": "string",
          "name": "",
          "type": "string"
        }
      ],
      "stateMutability": "view",
      "type": "function"
    },
    {
      "inputs": [],
      "name": "totalSupply",
      "outputs": [
        {
          "internalType": "uint256",
          "name": "",
          "type": "uint256"
        }
      ],
      "stateMutability": "view",
      "type": "function"
    },
    {
      "inputs": [
        {
          "internalType": "address",
          "name": "_to",
          "type": "address"
        },
        {
          "internalType": "uint256",
          "name": "_value",
          "type": "uint256"
        }
      ],
      "name": "transfer",
      "outputs": [
        {
          "internalType": "bool",
          "name": "",
          "type": "bool"
        }
      ],
      "stateMutability": "nonpayable",
      "type": "function"
    },
    {
      "inputs": [
        {
          "internalType": "address",
          "name": "_from",
          "type": "address"
        },
        {
          "internalType": "address",
          "name": "_to",
          "type": "address"
        },
        {
          "internalType": "uint256",
          "name": "_value",
          "type": "uint256"
        }
      ],
      "name": "transferFrom",
      "outputs": [
        {
          "internalType": "bool",
          "name": "",
          "type": "bool"
        }
      ],
      "stateMutability": "nonpayable",
      "type": "function"
    }
  ],
  "bytecode": "0x608060405260006002553480156200001657600080fd5b5060405162000a8938038062000a89833981016040819052620000399162000299565b82516200004e90600190602086019062000126565b5081516200006490600090602085019062000126565b50600580546001600160a01b0319163390811790915562000086908262000090565b5050505062000370565b6001600160a01b038216600090815260036020526040812080548391908390620000bc9084906200030c565b925050819055508160026000828254620000d791906200030c565b90915550506040518281526001600160a01b038416906000907fddf252ad1be2c89b69c2b068fc378daa952ba7f163c4a11628f55a4df523b3ef9060200160405180910390a350600192915050565b828054620001349062000333565b90600052602060002090601f016020900481019282620001585760008555620001a3565b82601f106200017357805160ff1916838001178555620001a3565b82800160010185558215620001a3579182015b82811115620001a357825182559160200191906001019062000186565b50620001b1929150620001b5565b5090565b5b80821115620001b15760008155600101620001b6565b634e487b7160e01b600052604160045260246000fd5b600082601f830112620001f457600080fd5b81516001600160401b0380821115620002115762000211620001cc565b604051601f8301601f19908116603f011681019082821181831017156200023c576200023c620001cc565b816040528381526020925086838588010111156200025957600080fd5b600091505b838210156200027d57858201830151818301840152908201906200025e565b838211156200028f5760008385830101525b9695505050505050565b600080600060608486031215620002af57600080fd5b83516001600160401b0380821115620002c757600080fd5b620002d587838801620001e2565b94506020860151915080821115620002ec57600080fd5b50620002fb86828701620001e2565b925050604084015190509250925092565b600082198211156200032e57634e487b7160e01b600052601160045260246000fd5b500190565b600181811c908216806200034857607f821691505b602082108114156200036a57634e487b7160e01b600052602260045260246000fd5b50919050565b61070980620003806000396000f3fe608060405234801561001057600080fd5b50600436106100b45760003560e01c806340c10f191161007157806340c10f191461016957806370a082311461017c57806395d89b411461019c578063a9059cbb146101a4578063dd62ed3e146101b7578063fca3b5aa146101e257600080fd5b806306fdde03146100b957806307546172146100d7578063095ea7b31461010257806318160ddd1461012557806323b872dd1461013c578063313ce5671461014f575b600080fd5b6100c16101f7565b6040516100ce919061052e565b60405180910390f35b6005546100ea906001600160a01b031681565b6040516001600160a01b0390911681526020016100ce565b61011561011036600461059f565b610285565b60405190151581526020016100ce565b61012e60025481565b6040519081526020016100ce565b61011561014a3660046105c9565b6102f1565b610157601281565b60405160ff90911681526020016100ce565b61011561017736600461059f565b61036b565b61012e61018a366004610605565b60036020526000908152604090205481565b6100c1610399565b6101156101b236600461059f565b6103a6565b61012e6101c5366004610620565b600460209081526000928352604080842090915290825290205481565b6101f56101f0366004610605565b6103ba565b005b6001805461020490610653565b80601f016020809104026020016040519081016040528092919081815260200182805461023090610653565b801561027d5780601f106102525761010080835404028352916020019161027d565b820191906000526020600020905b81548152906001019060200180831161026057829003601f168201915b505050505081565b3360008181526004602090815260408083206001600160a01b038716808552925280832085905551919290917f8c5be1e5ebec7d5bd14f71427d1e84f3dd0314c0f7b2291e5b200ac8c7c3b925906102e09086815260200190565b60405180910390a350600192915050565b6001600160a01b03831660009081526004602090815260408083203384529091528120546000198114610357576001600160a01b0385166000908152600460209081526040808320338452909152812080548592906103519084906106a4565b90915550505b6103628585856103f3565b95945050505050565b6005546000906001600160a01b0316331461038557600080fd5b61038f83836104a8565b5060019392505050565b6000805461020490610653565b60006103b33384846103f3565b9392505050565b6005546001600160a01b031633146103d157600080fd5b600580546001600160a01b0319166001600160a01b0392909216919091179055565b6001600160a01b03831660009081526003602052604081208054839190839061041d9084906106a4565b90915550506001600160a01b0383166000908152600360205260408120805484929061044a9084906106bb565b92505081905550826001600160a01b0316846001600160a01b03167fddf252ad1be2c89b69c2b068fc378daa952ba7f163c4a11628f55a4df523b3ef8460405161049691815260200190565b60405180910390a35060019392505050565b6001600160a01b0382166000908152600360205260408120805483919083906104d29084906106bb565b9250508190555081600260008282546104eb91906106bb565b90915550506040518281526001600160a01b038416906000907fddf252ad1be2c89b69c2b068fc378daa952ba7f163c4a11628f55a4df523b3ef906020016102e0565b600060208083528351808285015260005b8181101561055b5785810183015185820160400152820161053f565b8181111561056d576000604083870101525b50601f01601f1916929092016040019392505050565b80356001600160a01b038116811461059a57600080fd5b919050565b600080604083850312156105b257600080fd5b6105bb83610583565b946020939093013593505050565b6000806000606084860312156105de57600080fd5b6105e784610583565b92506105f560208501610583565b9150604084013590509250925092565b60006020828403121561061757600080fd5b6103b382610583565b6000806040838503121561063357600080fd5b61063c83610583565b915061064a60208401610583565b90509250929050565b600181811c9082168061066757607f821691505b6020821081141561068857634e487b7160e01b600052602260045260246000fd5b50919050565b634e487b7160e01b600052601160045260246000fd5b6000828210156106b6576106b661068e565b500390565b600082198211156106ce576106ce61068e565b50019056fea2646970667358221220df10a2643d17eadaa5c243994a5f4d9f103d7e6f52b75065147c60897986f5fa64736f6c634300080b0033",
  "linkReferences": {},
  "deployedLinkReferences": {}
}