{
  "_format": "hh-sol-artifact-1",
  "contractName": "PermitRouterV2",
  "sourceName": "contracts/gasless/PermitRouterV2.sol",
  "abi": [
    {
      "inputs": [
        {
          "internalType": "uint256",
          "name": "_fee",
          "type": "uint256"
        }
      ],
      "stateMutability": "nonpayable",
      "type": "constructor"
    },
    {
      "anonymous": false,
      "inputs": [
        {
          "indexed": true,
          "internalType": "address",
          "name": "previousOwner",
          "type": "address"
        },
        {
          "indexed": true,
          "internalType": "address",
          "name": "newOwner",
          "type": "address"
        }
      ],
      "name": "OwnershipTransferred",
      "type": "event"
    },
    {
      "inputs": [],
      "name": "fee",
      "outputs": [
        {
          "internalType": "uint256",
          "name": "",
          "type": "uint256"
        }
      ],
      "stateMutability": "view",
      "type": "function"
    },
    {
      "inputs": [
        {
          "internalType": "uint256",
          "name": "amountIn",
          "type": "uint256"
        },
        {
          "internalType": "address",
          "name": "tokenIn",
          "type": "address"
        },
        {
          "internalType": "address[]",
          "name": "path",
          "type": "address[]"
        }
      ],
      "name": "getAmountsOut",
      "outputs": [
        {
          "internalType": "uint256[]",
          "name": "",
          "type": "uint256[]"
        }
      ],
      "stateMutability": "view",
      "type": "function"
    },
    {
      "inputs": [],
      "name": "owner",
      "outputs": [
        {
          "internalType": "address",
          "name": "",
          "type": "address"
        }
      ],
      "stateMutability": "view",
      "type": "function"
    },
    {
      "inputs": [],
      "name": "renounceOwnership",
      "outputs": [],
      "stateMutability": "nonpayable",
      "type": "function"
    },
    {
      "inputs": [
        {
          "internalType": "uint256",
          "name": "_fee",
          "type": "uint256"
        }
      ],
      "name": "setFee",
      "outputs": [],
      "stateMutability": "nonpayable",
      "type": "function"
    },
    {
      "inputs": [
        {
          "internalType": "address",
          "name": "_owner",
          "type": "address"
        },
        {
          "internalType": "uint256",
          "name": "amountIn",
          "type": "uint256"
        },
        {
          "internalType": "uint256",
          "name": "amountOutMin",
          "type": "uint256"
        },
        {
          "internalType": "uint256",
          "name": "deadline",
          "type": "uint256"
        },
        {
          "internalType": "address",
          "name": "tokenIn",
          "type": "address"
        },
        {
          "internalType": "address[]",
          "name": "path",
          "type": "address[]"
        },
        {
          "internalType": "bytes",
          "name": "signature",
          "type": "bytes"
        }
      ],
      "name": "swapExactTokensForTokens",
      "outputs": [
        {
          "internalType": "uint256[]",
          "name": "amounts",
          "type": "uint256[]"
        }
      ],
      "stateMutability": "nonpayable",
      "type": "function"
    },
    {
      "inputs": [
        {
          "internalType": "address",
          "name": "newOwner",
          "type": "address"
        }
      ],
      "name": "transferOwnership",
      "outputs": [],
      "stateMutability": "nonpayable",
      "type": "function"
    },
    {
      "inputs": [],
      "name": "wmtr",
      "outputs": [
        {
          "internalType": "contract IWMTR",
          "name": "",
          "type": "address"
        }
      ],
      "stateMutability": "view",
      "type": "function"
    },
    {
      "stateMutability": "payable",
      "type": "receive"
    }
  ],
  "bytecode": "0x608060405234801561001057600080fd5b5060405161164b38038061164b83398101604081905261002f91610090565b61003833610040565b6001556100a9565b600080546001600160a01b038381166001600160a01b0319831681178455604051919092169283917f8be0079c531659141344cd1fd0a4f28419497f9722a3daafe3b4186f6b6457e09190a35050565b6000602082840312156100a257600080fd5b5051919050565b611593806100b86000396000f3fe60806040526004361061007f5760003560e01c80638da5cb5b1161004e5780638da5cb5b1461018d578063ddca3f43146101ab578063f0024dff146101cf578063f2fde38b146101ef57600080fd5b8063688475c7146100e657806369fe0e2d1461012b578063715018a61461014b5780638ad2f4e51461016057600080fd5b366100e1573373160361ce13ec33c993b5cca8f62b6864943eb083146100df5760405162461bcd60e51b815260206004820152601060248201526f2937baba32b91d102727aa2faba6aa2960811b60448201526064015b60405180910390fd5b005b600080fd5b3480156100f257600080fd5b5061010e73160361ce13ec33c993b5cca8f62b6864943eb08381565b6040516001600160a01b0390911681526020015b60405180910390f35b34801561013757600080fd5b506100df610146366004611082565b61020f565b34801561015757600080fd5b506100df61021c565b34801561016c57600080fd5b5061018061017b366004611180565b610230565b604051610122919061127c565b34801561019957600080fd5b506000546001600160a01b031661010e565b3480156101b757600080fd5b506101c160015481565b604051908152602001610122565b3480156101db57600080fd5b506101806101ea3660046112c0565b6108d3565b3480156101fb57600080fd5b506100df61020a366004611319565b610ccd565b610217610d46565b600155565b610224610d46565b61022e6000610da0565b565b606084428110156102835760405162461bcd60e51b815260206004820152601860248201527f556e69737761705632526f757465723a2045585049524544000000000000000060448201526064016100d6565b60008451116102c35760405162461bcd60e51b815260206004820152600c60248201526b0d2dcecc2d8d2c840e0c2e8d60a31b60448201526064016100d6565b846001600160a01b0316846000815181106102e0576102e061133d565b60200260200101516001600160a01b0316630dfe16816040518163ffffffff1660e01b8152600401602060405180830381865afa158015610325573d6000803e3d6000fd5b505050506040513d601f19601f820116820180604052508101906103499190611353565b6001600160a01b031614806103ea5750846001600160a01b0316846000815181106103765761037661133d565b60200260200101516001600160a01b031663d21220a76040518163ffffffff1660e01b8152600401602060405180830381865afa1580156103bb573d6000803e3d6000fd5b505050506040513d601f19601f820116820180604052508101906103df9190611353565b6001600160a01b0316145b6104065760405162461bcd60e51b81526004016100d690611370565b604051639fd5a6cf60e01b81526001600160a01b03861690639fd5a6cf9061043a908c9030908d908c908a90600401611401565b600060405180830381600087803b15801561045457600080fd5b505af1158015610468573d6000803e3d6000fd5b50505050610492858a866000815181106104845761048461133d565b60200260200101518b610df0565b835161049f906001611451565b67ffffffffffffffff8111156104b7576104b76110b0565b6040519080825280602002602001820160405280156104e0578160200160208202803683370190505b50915087826000815181106104f7576104f761133d565b60209081029190910101528460005b85518110156107de5760008682815181106105235761052361133d565b602002602001015190506000816001600160a01b0316630dfe16816040518163ffffffff1660e01b8152600401602060405180830381865afa15801561056d573d6000803e3d6000fd5b505050506040513d601f19601f820116820180604052508101906105919190611353565b90506000826001600160a01b031663d21220a76040518163ffffffff1660e01b8152600401602060405180830381865afa1580156105d3573d6000803e3d6000fd5b505050506040513d601f19601f820116820180604052508101906105f79190611353565b90506000836001600160a01b031663f140a35a89878151811061061c5761061c61133d565b6020026020010151886040518363ffffffff1660e01b81526004016106549291909182526001600160a01b0316602082015260400190565b602060405180830381865afa158015610671573d6000803e3d6000fd5b505050506040513d601f19601f82011682018060405250810190610695919061146a565b9050600080846001600160a01b0316886001600160a01b0316146106bb578260006106bf565b6000835b91509150600060018d516106d39190611483565b8814610702578c6106e5896001611451565b815181106106f5576106f561133d565b6020026020010151610704565b305b6040805160008152602081019182905263022c0d9f60e01b9091529091506001600160a01b0388169063022c0d9f906107469086908690869060248101611496565b600060405180830381600087803b15801561076057600080fd5b505af1158015610774573d6000803e3d6000fd5b50505050838b8960016107879190611451565b815181106107975761079761133d565b602002602001018181525050856001600160a01b0316896001600160a01b0316146107c257856107c4565b845b985050505050505050806107d7906114cd565b9050610506565b506040516370a0823160e01b815230600482015260009073160361ce13ec33c993b5cca8f62b6864943eb083906370a0823190602401602060405180830381865afa158015610831573d6000803e3d6000fd5b505050506040513d601f19601f82011682018060405250810190610855919061146a565b9050888110156108bb5760405162461bcd60e51b815260206004820152602b60248201527f556e69737761705632526f757465723a20494e53554646494349454e545f4f5560448201526a1514155517d05353d5539560aa1b60648201526084016100d6565b6108c5818c610f20565b505050979650505050505050565b60606000825160016108e59190611451565b67ffffffffffffffff8111156108fd576108fd6110b0565b604051908082528060200260200182016040528015610926578160200160208202803683370190505b509050848160008151811061093d5761093d61133d565b60200260200101818152505060008351116109895760405162461bcd60e51b815260206004820152600c60248201526b0d2dcecc2d8d2c840e0c2e8d60a31b60448201526064016100d6565b836001600160a01b0316836000815181106109a6576109a661133d565b60200260200101516001600160a01b0316630dfe16816040518163ffffffff1660e01b8152600401602060405180830381865afa1580156109eb573d6000803e3d6000fd5b505050506040513d601f19601f82011682018060405250810190610a0f9190611353565b6001600160a01b03161480610ab05750836001600160a01b031683600081518110610a3c57610a3c61133d565b60200260200101516001600160a01b031663d21220a76040518163ffffffff1660e01b8152600401602060405180830381865afa158015610a81573d6000803e3d6000fd5b505050506040513d601f19601f82011682018060405250810190610aa59190611353565b6001600160a01b0316145b610acc5760405162461bcd60e51b81526004016100d690611370565b8360005b8451811015610cc2576000858281518110610aed57610aed61133d565b602002602001015190506000816001600160a01b0316630dfe16816040518163ffffffff1660e01b8152600401602060405180830381865afa158015610b37573d6000803e3d6000fd5b505050506040513d601f19601f82011682018060405250810190610b5b9190611353565b90506000826001600160a01b031663d21220a76040518163ffffffff1660e01b8152600401602060405180830381865afa158015610b9d573d6000803e3d6000fd5b505050506040513d601f19601f82011682018060405250810190610bc19190611353565b90506000836001600160a01b031663f140a35a888781518110610be657610be661133d565b6020026020010151886040518363ffffffff1660e01b8152600401610c1e9291909182526001600160a01b0316602082015260400190565b602060405180830381865afa158015610c3b573d6000803e3d6000fd5b505050506040513d601f19601f82011682018060405250810190610c5f919061146a565b90508087610c6e876001611451565b81518110610c7e57610c7e61133d565b602002602001018181525050826001600160a01b0316866001600160a01b031614610ca95782610cab565b815b95505050505080610cbb906114cd565b9050610ad0565b509095945050505050565b610cd5610d46565b6001600160a01b038116610d3a5760405162461bcd60e51b815260206004820152602660248201527f4f776e61626c653a206e6577206f776e657220697320746865207a65726f206160448201526564647265737360d01b60648201526084016100d6565b610d4381610da0565b50565b6000546001600160a01b0316331461022e5760405162461bcd60e51b815260206004820181905260248201527f4f776e61626c653a2063616c6c6572206973206e6f7420746865206f776e657260448201526064016100d6565b600080546001600160a01b038381166001600160a01b0319831681178455604051919092169283917f8be0079c531659141344cd1fd0a4f28419497f9722a3daafe3b4186f6b6457e09190a35050565b604080516001600160a01b0385811660248301528481166044830152606480830185905283518084039091018152608490920183526020820180516001600160e01b03166323b872dd60e01b1790529151600092839290881691610e5491906114e6565b6000604051808303816000865af19150503d8060008114610e91576040519150601f19603f3d011682016040523d82523d6000602084013e610e96565b606091505b5091509150818015610ec0575080511580610ec0575080806020019051810190610ec09190611502565b610f185760405162461bcd60e51b8152602060048201526024808201527f5472616e7366657248656c7065723a205452414e534645525f46524f4d5f46416044820152631253115160e21b60648201526084016100d6565b505050505050565b604051632e1a7d4d60e01b81526004810183905273160361ce13ec33c993b5cca8f62b6864943eb08390632e1a7d4d90602401600060405180830381600087803b158015610f6d57600080fd5b505af1158015610f81573d6000803e3d6000fd5b50505050610fb581612710600154612710610f9c9190611483565b610fa69086611524565b610fb0919061153b565b610fc5565b47610fc03382610fc5565b505050565b604080516000808252602082019092526001600160a01b038416908390604051610fef91906114e6565b60006040518083038185875af1925050503d806000811461102c576040519150601f19603f3d011682016040523d82523d6000602084013e611031565b606091505b5050905080610fc05760405162461bcd60e51b815260206004820152601f60248201527f566f6c74526f757465723a204554485f5452414e534645525f4641494c45440060448201526064016100d6565b60006020828403121561109457600080fd5b5035919050565b6001600160a01b0381168114610d4357600080fd5b634e487b7160e01b600052604160045260246000fd5b604051601f8201601f1916810167ffffffffffffffff811182821017156110ef576110ef6110b0565b604052919050565b600082601f83011261110857600080fd5b8135602067ffffffffffffffff821115611124576111246110b0565b8160051b6111338282016110c6565b928352848101820192828101908785111561114d57600080fd5b83870192505b848310156111755782356111668161109b565b82529183019190830190611153565b979650505050505050565b600080600080600080600060e0888a03121561119b57600080fd5b87356111a68161109b565b96506020888101359650604089013595506060890135945060808901356111cc8161109b565b935060a089013567ffffffffffffffff808211156111e957600080fd5b6111f58c838d016110f7565b945060c08b013591508082111561120b57600080fd5b818b0191508b601f83011261121f57600080fd5b813581811115611231576112316110b0565b611243601f8201601f191685016110c6565b91508082528c8482850101111561125957600080fd5b808484018584013760008482840101525080935050505092959891949750929550565b6020808252825182820181905260009190848201906040850190845b818110156112b457835183529284019291840191600101611298565b50909695505050505050565b6000806000606084860312156112d557600080fd5b8335925060208401356112e78161109b565b9150604084013567ffffffffffffffff81111561130357600080fd5b61130f868287016110f7565b9150509250925092565b60006020828403121561132b57600080fd5b81356113368161109b565b9392505050565b634e487b7160e01b600052603260045260246000fd5b60006020828403121561136557600080fd5b81516113368161109b565b60208082526021908201527f696e76616c696420706174683a206e6f7420696e636c75646520746f6b656e496040820152603760f91b606082015260800190565b60005b838110156113cc5781810151838201526020016113b4565b50506000910152565b600081518084526113ed8160208601602086016113b1565b601f01601f19169290920160200192915050565b6001600160a01b03868116825285166020820152604081018490526060810183905260a060808201819052600090611175908301846113d5565b634e487b7160e01b600052601160045260246000fd5b808201808211156114645761146461143b565b92915050565b60006020828403121561147c57600080fd5b5051919050565b818103818111156114645761146461143b565b84815283602082015260018060a01b03831660408201526080606082015260006114c360808301846113d5565b9695505050505050565b6000600182016114df576114df61143b565b5060010190565b600082516114f88184602087016113b1565b9190910192915050565b60006020828403121561151457600080fd5b8151801515811461133657600080fd5b80820281158282048414176114645761146461143b565b60008261155857634e487b7160e01b600052601260045260246000fd5b50049056fea26469706673582212209c3dca4845da501dbd55db4c48473aab4ba858b2f0173253a0a26a793f0d894664736f6c63430008130033",
  "linkReferences": {},
  "deployedLinkReferences": {}
}