{
  "_format": "hh-sol-artifact-1",
  "contractName": "MeterGovERC20",
  "sourceName": "contracts/MeterGovERC20.sol",
  "abi": [
    {
      "inputs": [],
      "stateMutability": "nonpayable",
      "type": "constructor"
    },
    {
      "anonymous": false,
      "inputs": [
        {
          "indexed": true,
          "internalType": "address",
          "name": "owner",
          "type": "address"
        },
        {
          "indexed": true,
          "internalType": "address",
          "name": "spender",
          "type": "address"
        },
        {
          "indexed": false,
          "internalType": "uint256",
          "name": "value",
          "type": "uint256"
        }
      ],
      "name": "Approval",
      "type": "event"
    },
    {
      "anonymous": false,
      "inputs": [
        {
          "indexed": true,
          "internalType": "bytes32",
          "name": "role",
          "type": "bytes32"
        },
        {
          "indexed": true,
          "internalType": "bytes32",
          "name": "previousAdminRole",
          "type": "bytes32"
        },
        {
          "indexed": true,
          "internalType": "bytes32",
          "name": "newAdminRole",
          "type": "bytes32"
        }
      ],
      "name": "RoleAdminChanged",
      "type": "event"
    },
    {
      "anonymous": false,
      "inputs": [
        {
          "indexed": true,
          "internalType": "bytes32",
          "name": "role",
          "type": "bytes32"
        },
        {
          "indexed": true,
          "internalType": "address",
          "name": "account",
          "type": "address"
        },
        {
          "indexed": true,
          "internalType": "address",
          "name": "sender",
          "type": "address"
        }
      ],
      "name": "RoleGranted",
      "type": "event"
    },
    {
      "anonymous": false,
      "inputs": [
        {
          "indexed": true,
          "internalType": "bytes32",
          "name": "role",
          "type": "bytes32"
        },
        {
          "indexed": true,
          "internalType": "address",
          "name": "account",
          "type": "address"
        },
        {
          "indexed": true,
          "internalType": "address",
          "name": "sender",
          "type": "address"
        }
      ],
      "name": "RoleRevoked",
      "type": "event"
    },
    {
      "anonymous": false,
      "inputs": [
        {
          "indexed": true,
          "internalType": "address",
          "name": "from",
          "type": "address"
        },
        {
          "indexed": true,
          "internalType": "address",
          "name": "to",
          "type": "address"
        },
        {
          "indexed": false,
          "internalType": "uint256",
          "name": "value",
          "type": "uint256"
        }
      ],
      "name": "Transfer",
      "type": "event"
    },
    {
      "inputs": [],
      "name": "DEFAULT_ADMIN_ROLE",
      "outputs": [
        {
          "internalType": "bytes32",
          "name": "",
          "type": "bytes32"
        }
      ],
      "stateMutability": "view",
      "type": "function"
    },
    {
      "inputs": [],
      "name": "PERMIT_TYPEHASH",
      "outputs": [
        {
          "internalType": "bytes32",
          "name": "",
          "type": "bytes32"
        }
      ],
      "stateMutability": "view",
      "type": "function"
    },
    {
      "inputs": [
        {
          "internalType": "address",
          "name": "_owner",
          "type": "address"
        },
        {
          "internalType": "address",
          "name": "_spender",
          "type": "address"
        }
      ],
      "name": "allowance",
      "outputs": [
        {
          "internalType": "uint256",
          "name": "remaining",
          "type": "uint256"
        }
      ],
      "stateMutability": "view",
      "type": "function"
    },
    {
      "inputs": [
        {
          "internalType": "address",
          "name": "_spender",
          "type": "address"
        },
        {
          "internalType": "uint256",
          "name": "_value",
          "type": "uint256"
        }
      ],
      "name": "approve",
      "outputs": [
        {
          "internalType": "bool",
          "name": "success",
          "type": "bool"
        }
      ],
      "stateMutability": "nonpayable",
      "type": "function"
    },
    {
      "inputs": [
        {
          "internalType": "address",
          "name": "_owner",
          "type": "address"
        }
      ],
      "name": "balanceOf",
      "outputs": [
        {
          "internalType": "uint256",
          "name": "balance",
          "type": "uint256"
        }
      ],
      "stateMutability": "view",
      "type": "function"
    },
    {
      "inputs": [],
      "name": "decimals",
      "outputs": [
        {
          "internalType": "uint8",
          "name": "",
          "type": "uint8"
        }
      ],
      "stateMutability": "pure",
      "type": "function"
    },
    {
      "inputs": [
        {
          "internalType": "address",
          "name": "account",
          "type": "address"
        }
      ],
      "name": "getBlackList",
      "outputs": [
        {
          "internalType": "bool",
          "name": "",
          "type": "bool"
        }
      ],
      "stateMutability": "view",
      "type": "function"
    },
    {
      "inputs": [
        {
          "internalType": "bytes32",
          "name": "role",
          "type": "bytes32"
        }
      ],
      "name": "getRoleAdmin",
      "outputs": [
        {
          "internalType": "bytes32",
          "name": "",
          "type": "bytes32"
        }
      ],
      "stateMutability": "view",
      "type": "function"
    },
    {
      "inputs": [
        {
          "internalType": "bytes32",
          "name": "role",
          "type": "bytes32"
        },
        {
          "internalType": "uint256",
          "name": "index",
          "type": "uint256"
        }
      ],
      "name": "getRoleMember",
      "outputs": [
        {
          "internalType": "address",
          "name": "",
          "type": "address"
        }
      ],
      "stateMutability": "view",
      "type": "function"
    },
    {
      "inputs": [
        {
          "internalType": "bytes32",
          "name": "role",
          "type": "bytes32"
        }
      ],
      "name": "getRoleMemberCount",
      "outputs": [
        {
          "internalType": "uint256",
          "name": "",
          "type": "uint256"
        }
      ],
      "stateMutability": "view",
      "type": "function"
    },
    {
      "inputs": [
        {
          "internalType": "bytes32",
          "name": "role",
          "type": "bytes32"
        },
        {
          "internalType": "address",
          "name": "account",
          "type": "address"
        }
      ],
      "name": "grantRole",
      "outputs": [],
      "stateMutability": "nonpayable",
      "type": "function"
    },
    {
      "inputs": [
        {
          "internalType": "bytes32",
          "name": "role",
          "type": "bytes32"
        },
        {
          "internalType": "address",
          "name": "account",
          "type": "address"
        }
      ],
      "name": "hasRole",
      "outputs": [
        {
          "internalType": "bool",
          "name": "",
          "type": "bool"
        }
      ],
      "stateMutability": "view",
      "type": "function"
    },
    {
      "inputs": [],
      "name": "name",
      "outputs": [
        {
          "internalType": "string",
          "name": "",
          "type": "string"
        }
      ],
      "stateMutability": "pure",
      "type": "function"
    },
    {
      "inputs": [
        {
          "internalType": "address",
          "name": "",
          "type": "address"
        }
      ],
      "name": "nonces",
      "outputs": [
        {
          "internalType": "uint256",
          "name": "",
          "type": "uint256"
        }
      ],
      "stateMutability": "view",
      "type": "function"
    },
    {
      "inputs": [
        {
          "internalType": "address",
          "name": "owner",
          "type": "address"
        },
        {
          "internalType": "address",
          "name": "spender",
          "type": "address"
        },
        {
          "internalType": "uint256",
          "name": "value",
          "type": "uint256"
        },
        {
          "internalType": "uint256",
          "name": "deadline",
          "type": "uint256"
        },
        {
          "internalType": "bytes",
          "name": "signature",
          "type": "bytes"
        }
      ],
      "name": "permit",
      "outputs": [
        {
          "internalType": "bool",
          "name": "",
          "type": "bool"
        }
      ],
      "stateMutability": "nonpayable",
      "type": "function"
    },
    {
      "inputs": [
        {
          "internalType": "bytes32",
          "name": "role",
          "type": "bytes32"
        },
        {
          "internalType": "address",
          "name": "account",
          "type": "address"
        }
      ],
      "name": "renounceRole",
      "outputs": [],
      "stateMutability": "nonpayable",
      "type": "function"
    },
    {
      "inputs": [
        {
          "internalType": "bytes32",
          "name": "role",
          "type": "bytes32"
        },
        {
          "internalType": "address",
          "name": "account",
          "type": "address"
        }
      ],
      "name": "revokeRole",
      "outputs": [],
      "stateMutability": "nonpayable",
      "type": "function"
    },
    {
      "inputs": [
        {
          "internalType": "address",
          "name": "account",
          "type": "address"
        }
      ],
      "name": "setBlackList",
      "outputs": [],
      "stateMutability": "nonpayable",
      "type": "function"
    },
    {
      "inputs": [
        {
          "internalType": "address",
          "name": "_owner",
          "type": "address"
        }
      ],
      "name": "stakeBalance",
      "outputs": [
        {
          "internalType": "uint256",
          "name": "balance",
          "type": "uint256"
        }
      ],
      "stateMutability": "view",
      "type": "function"
    },
    {
      "inputs": [
        {
          "internalType": "bytes4",
          "name": "interfaceId",
          "type": "bytes4"
        }
      ],
      "name": "supportsInterface",
      "outputs": [
        {
          "internalType": "bool",
          "name": "",
          "type": "bool"
        }
      ],
      "stateMutability": "view",
      "type": "function"
    },
    {
      "inputs": [],
      "name": "symbol",
      "outputs": [
        {
          "internalType": "string",
          "name": "",
          "type": "string"
        }
      ],
      "stateMutability": "pure",
      "type": "function"
    },
    {
      "inputs": [],
      "name": "totalBurned",
      "outputs": [
        {
          "internalType": "uint256",
          "name": "",
          "type": "uint256"
        }
      ],
      "stateMutability": "view",
      "type": "function"
    },
    {
      "inputs": [],
      "name": "totalSupply",
      "outputs": [
        {
          "internalType": "uint256",
          "name": "",
          "type": "uint256"
        }
      ],
      "stateMutability": "view",
      "type": "function"
    },
    {
      "inputs": [
        {
          "internalType": "address",
          "name": "_to",
          "type": "address"
        },
        {
          "internalType": "uint256",
          "name": "_amount",
          "type": "uint256"
        }
      ],
      "name": "transfer",
      "outputs": [
        {
          "internalType": "bool",
          "name": "success",
          "type": "bool"
        }
      ],
      "stateMutability": "nonpayable",
      "type": "function"
    },
    {
      "inputs": [
        {
          "internalType": "address",
          "name": "_from",
          "type": "address"
        },
        {
          "internalType": "address",
          "name": "_to",
          "type": "address"
        },
        {
          "internalType": "uint256",
          "name": "_amount",
          "type": "uint256"
        }
      ],
      "name": "transferFrom",
      "outputs": [
        {
          "internalType": "bool",
          "name": "success",
          "type": "bool"
        }
      ],
      "stateMutability": "nonpayable",
      "type": "function"
    }
  ],
  "bytecode": "0x6101206040523480156200001257600080fd5b50604080518082018252600881526726b2ba32b923b7bb60c11b6020808301918252835180850185526004815263076312e360e41b908201529151902060c08181527fe8245ed8f93ccf147bc8972ab6d5f8278ed994d647700daaa5b7ebde9370aa6f60e08190524660a081815286517f8b73c3c69bb8fe3d512ecc4cf759cc79239f7b179b0ffacaa9a75d522b39400f8188018190528189019690965260608101939093526080808401929092523083820152865180840390910181529190920190945283519390920192909220905261010052600380546001600160a01b0319166a4d657465724e61746976651790556200011160003362000117565b6200027c565b6200012e82826200015a60201b620009e61760201c565b600082815260016020908152604090912062000155918390620009f46200016a821b17901c565b505050565b6200016682826200018a565b5050565b600062000181836001600160a01b0384166200022a565b90505b92915050565b6000828152602081815260408083206001600160a01b038516845290915290205460ff1662000166576000828152602081815260408083206001600160a01b03851684529091529020805460ff19166001179055620001e63390565b6001600160a01b0316816001600160a01b0316837f2f8788117e7eff1d82e926ec794901d17c78024a50270940304540a733656f0d60405160405180910390a45050565b6000818152600183016020526040812054620002735750815460018181018455600084815260208082209093018490558454848252828601909352604090209190915562000184565b50600062000184565b60805160a05160c05160e05161010051611a90620002c1600039600061107a015260006110c9015260006110a401526000611028015260006110510152611a906000f3fe608060405234801561001057600080fd5b50600436106101735760003560e01c806370a08231116100de5780639fd5a6cf11610097578063ca15c87311610071578063ca15c87314610382578063d547741f14610395578063d89135cd146103a8578063dd62ed3e146103b057600080fd5b80639fd5a6cf14610354578063a217fddf14610367578063a9059cbb1461036f57600080fd5b806370a08231146102b057806372700241146102c35780637ecebe00146102d65780639010d07c146102f657806391d148541461032157806395d89b411461033457600080fd5b80632f2ff15d116101305780632f2ff15d1461022c57806330adf81f14610241578063313ce5671461026857806336568abe146102775780633fbdc67d1461028a5780634e7c57a61461029d57600080fd5b806301ffc9a71461017857806306fdde03146101a0578063095ea7b3146101cd57806318160ddd146101e057806323b872dd146101f6578063248a9ca314610209575b600080fd5b61018b61018636600461182e565b6103e9565b60405190151581526020015b60405180910390f35b60408051808201909152600881526726b2ba32b923b7bb60c11b60208201525b60405161019791906118e6565b61018b6101db366004611784565b610414565b6101e8610480565b604051908152602001610197565b61018b610204366004611662565b610501565b6101e86102173660046117d0565b60009081526020819052604090206001015490565b61023f61023a3660046117e9565b6105c7565b005b6101e87f6e71edae12b1b97f4d1f60370fef10105fa2faae0126114a169c64845d6126c981565b60405160128152602001610197565b61023f6102853660046117e9565b6105ee565b61018b610298366004611614565b610610565b6101e86102ab366004611614565b61065b565b6101e86102be366004611614565b6106da565b61023f6102d1366004611614565b61070d565b6101e86102e4366004611614565b60056020526000908152604090205481565b61030961030436600461180c565b61075d565b6040516001600160a01b039091168152602001610197565b61018b61032f3660046117e9565b61077c565b6040805180820190915260048152634d54524760e01b60208201526101c0565b61018b61036236600461169e565b6107a5565b6101e8600081565b61018b61037d366004611784565b61096a565b6101e86103903660046117d0565b610980565b61023f6103a33660046117e9565b610997565b6101e86109a1565b6101e86103be36600461162f565b6001600160a01b03918216600090815260026020908152604080832093909416825291909152205490565b60006001600160e01b03198216635a05180f60e01b148061040e575061040e82610a09565b92915050565b3360008181526002602090815260408083206001600160a01b038716808552925280832085905551919290917f8c5be1e5ebec7d5bd14f71427d1e84f3dd0314c0f7b2291e5b200ac8c7c3b9259061046f9086815260200190565b60405180910390a350600192915050565b60035460408051620511b760ed1b815290516000926001600160a01b03169163a236e000916004808301926020929190829003018186803b1580156104c457600080fd5b505afa1580156104d8573d6000803e3d6000fd5b505050506040513d601f19601f820116820180604052508101906104fc9190611858565b905090565b6001600160a01b03831660009081526002602090815260408083203384529091528120548211156105795760405162461bcd60e51b815260206004820152601f60248201527f6275696c74696e3a20696e73756666696369656e7420616c6c6f77616e63650060448201526064015b60405180910390fd5b6001600160a01b0384166000908152600260209081526040808320338452909152812080548492906105ac908490611973565b909155506105bd9050848484610a3e565b5060019392505050565b6105d18282610c08565b60008281526001602052604090206105e990826109f4565b505050565b6105f88282610c2e565b60008281526001602052604090206105e99082610ca8565b600061061c813361077c565b6106385760405162461bcd60e51b815260040161057090611919565b506001600160a01b03811660009081526004602052604090205460ff165b919050565b6003546040516398c6fb8d60e01b81526001600160a01b03838116600483015260009216906398c6fb8d906024015b60206040518083038186803b1580156106a257600080fd5b505afa1580156106b6573d6000803e3d6000fd5b505050506040513d601f19601f8201168201806040525081019061040e9190611858565b600354604051630a30af2760e41b81526001600160a01b038381166004830152600092169063a30af2709060240161068a565b61071860003361077c565b6107345760405162461bcd60e51b815260040161057090611919565b6001600160a01b03166000908152600460205260409020805460ff19811660ff90911615179055565b60008281526001602052604081206107759083610cbd565b9392505050565b6000918252602082815260408084206001600160a01b0393909316845291905290205460ff1690565b6000428310156107e25760405162461bcd60e51b8152602060048201526008602482015267657870697265642160c01b6044820152606401610570565b6001600160a01b038616600090815260056020526040812080547f6e71edae12b1b97f4d1f60370fef10105fa2faae0126114a169c64845d6126c991899189918991908661082f836119d1565b909155506040805160208101969096526001600160a01b0394851690860152929091166060840152608083015260a082015260c0810185905260e001604051602081830303815290604052805190602001209050600061088e82610cc9565b9050600061089c8286610d17565b9050806001600160a01b0316896001600160a01b0316146108ff5760405162461bcd60e51b815260206004820152601960248201527f5065726d69743a20696e76616c6964207369676e6174757265000000000000006044820152606401610570565b6001600160a01b038981166000818152600260209081526040808320948d16808452948252918290208b905590518a81527f8c5be1e5ebec7d5bd14f71427d1e84f3dd0314c0f7b2291e5b200ac8c7c3b925910160405180910390a350600198975050505050505050565b6000610977338484610a3e565b50600192915050565b600081815260016020526040812061040e90610d3b565b6105f88282610d45565b6003546040805163eaa93f6b60e01b815290516000926001600160a01b03169163eaa93f6b916004808301926020929190829003018186803b1580156104c457600080fd5b6109f08282610d6b565b5050565b6000610775836001600160a01b038416610def565b60006001600160e01b03198216637965db0b60e01b148061040e57506301ffc9a760e01b6001600160e01b031983161461040e565b6001600160a01b03831660009081526004602052604090205460ff1615610a775760405162461bcd60e51b815260040161057090611919565b8015610bb6576003546040516315df233f60e11b81526001600160a01b0385811660048301526024820184905290911690632bbe467e90604401602060405180830381600087803b158015610acb57600080fd5b505af1158015610adf573d6000803e3d6000fd5b505050506040513d601f19601f82011682018060405250810190610b0391906117ae565b610b4f5760405162461bcd60e51b815260206004820152601d60248201527f6275696c74696e3a20696e73756666696369656e742062616c616e63650000006044820152606401610570565b6003546040516337dde9b560e21b81526001600160a01b038481166004830152602482018490529091169063df77a6d490604401600060405180830381600087803b158015610b9d57600080fd5b505af1158015610bb1573d6000803e3d6000fd5b505050505b816001600160a01b0316836001600160a01b03167fddf252ad1be2c89b69c2b068fc378daa952ba7f163c4a11628f55a4df523b3ef83604051610bfb91815260200190565b60405180910390a3505050565b600082815260208190526040902060010154610c248133610e3e565b6105e98383610d6b565b6001600160a01b0381163314610c9e5760405162461bcd60e51b815260206004820152602f60248201527f416363657373436f6e74726f6c3a2063616e206f6e6c792072656e6f756e636560448201526e103937b632b9903337b91039b2b63360891b6064820152608401610570565b6109f08282610ea2565b6000610775836001600160a01b038416610f07565b60006107758383610ffa565b600061040e610cd6611024565b8360405161190160f01b6020820152602281018390526042810182905260009060620160405160208183030381529060405280519060200120905092915050565b6000806000610d268585611117565b91509150610d3381611187565b509392505050565b600061040e825490565b600082815260208190526040902060010154610d618133610e3e565b6105e98383610ea2565b610d75828261077c565b6109f0576000828152602081815260408083206001600160a01b03851684529091529020805460ff19166001179055610dab3390565b6001600160a01b0316816001600160a01b0316837f2f8788117e7eff1d82e926ec794901d17c78024a50270940304540a733656f0d60405160405180910390a45050565b6000818152600183016020526040812054610e365750815460018181018455600084815260208082209093018490558454848252828601909352604090209190915561040e565b50600061040e565b610e48828261077c565b6109f057610e60816001600160a01b03166014611345565b610e6b836020611345565b604051602001610e7c929190611871565b60408051601f198184030181529082905262461bcd60e51b8252610570916004016118e6565b610eac828261077c565b156109f0576000828152602081815260408083206001600160a01b0385168085529252808320805460ff1916905551339285917ff6391f5c32d9c69d2a47ea670b442974b53935d1edc7fd64eb21e047a839171b9190a45050565b60008181526001830160205260408120548015610ff0576000610f2b600183611973565b8554909150600090610f3f90600190611973565b9050818114610fa4576000866000018281548110610f5f57610f5f611a2e565b9060005260206000200154905080876000018481548110610f8257610f82611a2e565b6000918252602080832090910192909255918252600188019052604090208390555b8554869080610fb557610fb5611a18565b60019003818190600052602060002001600090559055856001016000868152602001908152602001600020600090556001935050505061040e565b600091505061040e565b600082600001828154811061101157611011611a2e565b9060005260206000200154905092915050565b60007f000000000000000000000000000000000000000000000000000000000000000046141561107357507f000000000000000000000000000000000000000000000000000000000000000090565b50604080517f00000000000000000000000000000000000000000000000000000000000000006020808301919091527f0000000000000000000000000000000000000000000000000000000000000000828401527f000000000000000000000000000000000000000000000000000000000000000060608301524660808301523060a0808401919091528351808403909101815260c0909201909252805191012090565b60008082516041141561114e5760208301516040840151606085015160001a611142878285856114e1565b94509450505050611180565b825160401415611178576020830151604084015161116d8683836115ce565b935093505050611180565b506000905060025b9250929050565b600081600481111561119b5761119b611a02565b14156111a45750565b60018160048111156111b8576111b8611a02565b14156112065760405162461bcd60e51b815260206004820152601860248201527f45434453413a20696e76616c6964207369676e617475726500000000000000006044820152606401610570565b600281600481111561121a5761121a611a02565b14156112685760405162461bcd60e51b815260206004820152601f60248201527f45434453413a20696e76616c6964207369676e6174757265206c656e677468006044820152606401610570565b600381600481111561127c5761127c611a02565b14156112d55760405162461bcd60e51b815260206004820152602260248201527f45434453413a20696e76616c6964207369676e6174757265202773272076616c604482015261756560f01b6064820152608401610570565b60048160048111156112e9576112e9611a02565b14156113425760405162461bcd60e51b815260206004820152602260248201527f45434453413a20696e76616c6964207369676e6174757265202776272076616c604482015261756560f01b6064820152608401610570565b50565b60606000611354836002611954565b61135f90600261193c565b67ffffffffffffffff81111561137757611377611a44565b6040519080825280601f01601f1916602001820160405280156113a1576020820181803683370190505b509050600360fc1b816000815181106113bc576113bc611a2e565b60200101906001600160f81b031916908160001a905350600f60fb1b816001815181106113eb576113eb611a2e565b60200101906001600160f81b031916908160001a905350600061140f846002611954565b61141a90600161193c565b90505b6001811115611492576f181899199a1a9b1b9c1cb0b131b232b360811b85600f166010811061144e5761144e611a2e565b1a60f81b82828151811061146457611464611a2e565b60200101906001600160f81b031916908160001a90535060049490941c9361148b816119ba565b905061141d565b5083156107755760405162461bcd60e51b815260206004820181905260248201527f537472696e67733a20686578206c656e67746820696e73756666696369656e746044820152606401610570565b6000807f7fffffffffffffffffffffffffffffff5d576e7357a4501ddfe92f46681b20a083111561151857506000905060036115c5565b8460ff16601b1415801561153057508460ff16601c14155b1561154157506000905060046115c5565b6040805160008082526020820180845289905260ff881692820192909252606081018690526080810185905260019060a0016020604051602081039080840390855afa158015611595573d6000803e3d6000fd5b5050604051601f1901519150506001600160a01b0381166115be576000600192509250506115c5565b9150600090505b94509492505050565b6000806001600160ff1b03831660ff84901c601b016115ef878288856114e1565b935093505050935093915050565b80356001600160a01b038116811461065657600080fd5b60006020828403121561162657600080fd5b610775826115fd565b6000806040838503121561164257600080fd5b61164b836115fd565b9150611659602084016115fd565b90509250929050565b60008060006060848603121561167757600080fd5b611680846115fd565b925061168e602085016115fd565b9150604084013590509250925092565b600080600080600060a086880312156116b657600080fd5b6116bf866115fd565b94506116cd602087016115fd565b93506040860135925060608601359150608086013567ffffffffffffffff808211156116f857600080fd5b818801915088601f83011261170c57600080fd5b81358181111561171e5761171e611a44565b604051601f8201601f19908116603f0116810190838211818310171561174657611746611a44565b816040528281528b602084870101111561175f57600080fd5b8260208601602083013760006020848301015280955050505050509295509295909350565b6000806040838503121561179757600080fd5b6117a0836115fd565b946020939093013593505050565b6000602082840312156117c057600080fd5b8151801515811461077557600080fd5b6000602082840312156117e257600080fd5b5035919050565b600080604083850312156117fc57600080fd5b82359150611659602084016115fd565b6000806040838503121561181f57600080fd5b50508035926020909101359150565b60006020828403121561184057600080fd5b81356001600160e01b03198116811461077557600080fd5b60006020828403121561186a57600080fd5b5051919050565b7f416363657373436f6e74726f6c3a206163636f756e74200000000000000000008152600083516118a981601785016020880161198a565b7001034b99036b4b9b9b4b733903937b6329607d1b60179184019182015283516118da81602884016020880161198a565b01602801949350505050565b602081526000825180602084015261190581604085016020870161198a565b601f01601f19169190910160400192915050565b6020808252600990820152683337b93134b23232b760b91b604082015260600190565b6000821982111561194f5761194f6119ec565b500190565b600081600019048311821515161561196e5761196e6119ec565b500290565b600082821015611985576119856119ec565b500390565b60005b838110156119a557818101518382015260200161198d565b838111156119b4576000848401525b50505050565b6000816119c9576119c96119ec565b506000190190565b60006000198214156119e5576119e56119ec565b5060010190565b634e487b7160e01b600052601160045260246000fd5b634e487b7160e01b600052602160045260246000fd5b634e487b7160e01b600052603160045260246000fd5b634e487b7160e01b600052603260045260246000fd5b634e487b7160e01b600052604160045260246000fdfea26469706673582212207b65f512750d9903b562274c72fb85066a7d0d143525ea9832b45e95312ef41f64736f6c63430008070033",
  "linkReferences": {},
  "deployedLinkReferences": {}
}