{
  "_format": "hh-sol-artifact-1",
  "contractName": "MeterGovERC20",
  "sourceName": "contracts/MeterGovERC20.sol",
  "abi": [
    {
      "inputs": [],
      "stateMutability": "nonpayable",
      "type": "constructor"
    },
    {
      "anonymous": false,
      "inputs": [
        {
          "indexed": true,
          "internalType": "address",
          "name": "owner",
          "type": "address"
        },
        {
          "indexed": true,
          "internalType": "address",
          "name": "spender",
          "type": "address"
        },
        {
          "indexed": false,
          "internalType": "uint256",
          "name": "value",
          "type": "uint256"
        }
      ],
      "name": "Approval",
      "type": "event"
    },
    {
      "anonymous": false,
      "inputs": [
        {
          "indexed": true,
          "internalType": "bytes32",
          "name": "role",
          "type": "bytes32"
        },
        {
          "indexed": true,
          "internalType": "bytes32",
          "name": "previousAdminRole",
          "type": "bytes32"
        },
        {
          "indexed": true,
          "internalType": "bytes32",
          "name": "newAdminRole",
          "type": "bytes32"
        }
      ],
      "name": "RoleAdminChanged",
      "type": "event"
    },
    {
      "anonymous": false,
      "inputs": [
        {
          "indexed": true,
          "internalType": "bytes32",
          "name": "role",
          "type": "bytes32"
        },
        {
          "indexed": true,
          "internalType": "address",
          "name": "account",
          "type": "address"
        },
        {
          "indexed": true,
          "internalType": "address",
          "name": "sender",
          "type": "address"
        }
      ],
      "name": "RoleGranted",
      "type": "event"
    },
    {
      "anonymous": false,
      "inputs": [
        {
          "indexed": true,
          "internalType": "bytes32",
          "name": "role",
          "type": "bytes32"
        },
        {
          "indexed": true,
          "internalType": "address",
          "name": "account",
          "type": "address"
        },
        {
          "indexed": true,
          "internalType": "address",
          "name": "sender",
          "type": "address"
        }
      ],
      "name": "RoleRevoked",
      "type": "event"
    },
    {
      "anonymous": false,
      "inputs": [
        {
          "indexed": true,
          "internalType": "address",
          "name": "from",
          "type": "address"
        },
        {
          "indexed": true,
          "internalType": "address",
          "name": "to",
          "type": "address"
        },
        {
          "indexed": false,
          "internalType": "uint256",
          "name": "value",
          "type": "uint256"
        }
      ],
      "name": "Transfer",
      "type": "event"
    },
    {
      "inputs": [],
      "name": "DEFAULT_ADMIN_ROLE",
      "outputs": [
        {
          "internalType": "bytes32",
          "name": "",
          "type": "bytes32"
        }
      ],
      "stateMutability": "view",
      "type": "function"
    },
    {
      "inputs": [],
      "name": "PERMIT_TYPEHASH",
      "outputs": [
        {
          "internalType": "bytes32",
          "name": "",
          "type": "bytes32"
        }
      ],
      "stateMutability": "view",
      "type": "function"
    },
    {
      "inputs": [
        {
          "internalType": "address",
          "name": "_owner",
          "type": "address"
        },
        {
          "internalType": "address",
          "name": "_spender",
          "type": "address"
        }
      ],
      "name": "allowance",
      "outputs": [
        {
          "internalType": "uint256",
          "name": "remaining",
          "type": "uint256"
        }
      ],
      "stateMutability": "view",
      "type": "function"
    },
    {
      "inputs": [
        {
          "internalType": "address",
          "name": "_spender",
          "type": "address"
        },
        {
          "internalType": "uint256",
          "name": "_value",
          "type": "uint256"
        }
      ],
      "name": "approve",
      "outputs": [
        {
          "internalType": "bool",
          "name": "success",
          "type": "bool"
        }
      ],
      "stateMutability": "nonpayable",
      "type": "function"
    },
    {
      "inputs": [
        {
          "internalType": "address",
          "name": "_owner",
          "type": "address"
        }
      ],
      "name": "balanceOf",
      "outputs": [
        {
          "internalType": "uint256",
          "name": "balance",
          "type": "uint256"
        }
      ],
      "stateMutability": "view",
      "type": "function"
    },
    {
      "inputs": [],
      "name": "decimals",
      "outputs": [
        {
          "internalType": "uint8",
          "name": "",
          "type": "uint8"
        }
      ],
      "stateMutability": "pure",
      "type": "function"
    },
    {
      "inputs": [
        {
          "internalType": "address",
          "name": "account",
          "type": "address"
        }
      ],
      "name": "getBlackList",
      "outputs": [
        {
          "internalType": "bool",
          "name": "",
          "type": "bool"
        }
      ],
      "stateMutability": "view",
      "type": "function"
    },
    {
      "inputs": [
        {
          "internalType": "bytes32",
          "name": "role",
          "type": "bytes32"
        }
      ],
      "name": "getRoleAdmin",
      "outputs": [
        {
          "internalType": "bytes32",
          "name": "",
          "type": "bytes32"
        }
      ],
      "stateMutability": "view",
      "type": "function"
    },
    {
      "inputs": [
        {
          "internalType": "bytes32",
          "name": "role",
          "type": "bytes32"
        },
        {
          "internalType": "uint256",
          "name": "index",
          "type": "uint256"
        }
      ],
      "name": "getRoleMember",
      "outputs": [
        {
          "internalType": "address",
          "name": "",
          "type": "address"
        }
      ],
      "stateMutability": "view",
      "type": "function"
    },
    {
      "inputs": [
        {
          "internalType": "bytes32",
          "name": "role",
          "type": "bytes32"
        }
      ],
      "name": "getRoleMemberCount",
      "outputs": [
        {
          "internalType": "uint256",
          "name": "",
          "type": "uint256"
        }
      ],
      "stateMutability": "view",
      "type": "function"
    },
    {
      "inputs": [
        {
          "internalType": "bytes32",
          "name": "role",
          "type": "bytes32"
        },
        {
          "internalType": "address",
          "name": "account",
          "type": "address"
        }
      ],
      "name": "grantRole",
      "outputs": [],
      "stateMutability": "nonpayable",
      "type": "function"
    },
    {
      "inputs": [
        {
          "internalType": "bytes32",
          "name": "role",
          "type": "bytes32"
        },
        {
          "internalType": "address",
          "name": "account",
          "type": "address"
        }
      ],
      "name": "hasRole",
      "outputs": [
        {
          "internalType": "bool",
          "name": "",
          "type": "bool"
        }
      ],
      "stateMutability": "view",
      "type": "function"
    },
    {
      "inputs": [],
      "name": "name",
      "outputs": [
        {
          "internalType": "string",
          "name": "",
          "type": "string"
        }
      ],
      "stateMutability": "pure",
      "type": "function"
    },
    {
      "inputs": [
        {
          "internalType": "address",
          "name": "",
          "type": "address"
        }
      ],
      "name": "nonces",
      "outputs": [
        {
          "internalType": "uint256",
          "name": "",
          "type": "uint256"
        }
      ],
      "stateMutability": "view",
      "type": "function"
    },
    {
      "inputs": [
        {
          "internalType": "address",
          "name": "owner",
          "type": "address"
        },
        {
          "internalType": "address",
          "name": "spender",
          "type": "address"
        },
        {
          "internalType": "uint256",
          "name": "value",
          "type": "uint256"
        },
        {
          "internalType": "uint256",
          "name": "deadline",
          "type": "uint256"
        },
        {
          "internalType": "bytes",
          "name": "signature",
          "type": "bytes"
        }
      ],
      "name": "permit",
      "outputs": [
        {
          "internalType": "bool",
          "name": "",
          "type": "bool"
        }
      ],
      "stateMutability": "nonpayable",
      "type": "function"
    },
    {
      "inputs": [
        {
          "internalType": "bytes32",
          "name": "role",
          "type": "bytes32"
        },
        {
          "internalType": "address",
          "name": "account",
          "type": "address"
        }
      ],
      "name": "renounceRole",
      "outputs": [],
      "stateMutability": "nonpayable",
      "type": "function"
    },
    {
      "inputs": [
        {
          "internalType": "bytes32",
          "name": "role",
          "type": "bytes32"
        },
        {
          "internalType": "address",
          "name": "account",
          "type": "address"
        }
      ],
      "name": "revokeRole",
      "outputs": [],
      "stateMutability": "nonpayable",
      "type": "function"
    },
    {
      "inputs": [
        {
          "internalType": "address",
          "name": "account",
          "type": "address"
        }
      ],
      "name": "setBlackList",
      "outputs": [],
      "stateMutability": "nonpayable",
      "type": "function"
    },
    {
      "inputs": [
        {
          "internalType": "address",
          "name": "_owner",
          "type": "address"
        }
      ],
      "name": "stakeBalance",
      "outputs": [
        {
          "internalType": "uint256",
          "name": "balance",
          "type": "uint256"
        }
      ],
      "stateMutability": "view",
      "type": "function"
    },
    {
      "inputs": [
        {
          "internalType": "bytes4",
          "name": "interfaceId",
          "type": "bytes4"
        }
      ],
      "name": "supportsInterface",
      "outputs": [
        {
          "internalType": "bool",
          "name": "",
          "type": "bool"
        }
      ],
      "stateMutability": "view",
      "type": "function"
    },
    {
      "inputs": [],
      "name": "symbol",
      "outputs": [
        {
          "internalType": "string",
          "name": "",
          "type": "string"
        }
      ],
      "stateMutability": "pure",
      "type": "function"
    },
    {
      "inputs": [],
      "name": "totalBurned",
      "outputs": [
        {
          "internalType": "uint256",
          "name": "",
          "type": "uint256"
        }
      ],
      "stateMutability": "view",
      "type": "function"
    },
    {
      "inputs": [],
      "name": "totalSupply",
      "outputs": [
        {
          "internalType": "uint256",
          "name": "",
          "type": "uint256"
        }
      ],
      "stateMutability": "view",
      "type": "function"
    },
    {
      "inputs": [
        {
          "internalType": "address",
          "name": "_to",
          "type": "address"
        },
        {
          "internalType": "uint256",
          "name": "_amount",
          "type": "uint256"
        }
      ],
      "name": "transfer",
      "outputs": [
        {
          "internalType": "bool",
          "name": "success",
          "type": "bool"
        }
      ],
      "stateMutability": "nonpayable",
      "type": "function"
    },
    {
      "inputs": [
        {
          "internalType": "address",
          "name": "_from",
          "type": "address"
        },
        {
          "internalType": "address",
          "name": "_to",
          "type": "address"
        },
        {
          "internalType": "uint256",
          "name": "_amount",
          "type": "uint256"
        }
      ],
      "name": "transferFrom",
      "outputs": [
        {
          "internalType": "bool",
          "name": "success",
          "type": "bool"
        }
      ],
      "stateMutability": "nonpayable",
      "type": "function"
    }
  ],
  "bytecode": "0x6101406040523480156200001257600080fd5b50604080518082018252600881526726b2ba32b923b7bb60c11b6020808301918252835180850185526004815263076312e360e41b908201529151902060e08190527fe8245ed8f93ccf147bc8972ab6d5f8278ed994d647700daaa5b7ebde9370aa6f6101008190524660a081815285517f8b73c3c69bb8fe3d512ecc4cf759cc79239f7b179b0ffacaa9a75d522b39400f818701819052818801959095526060810193909352608080840192909252308382018190528651808503909201825260c0938401909652805194019390932090925291905261012052600380546001600160a01b0319166a4d657465724e6174697665179055620001176000336200011d565b62000282565b6200012982826200012d565b5050565b6200014482826200017060201b62000a471760201c565b60008281526001602090815260409091206200016b91839062000acb62000210821b17901c565b505050565b6000828152602081815260408083206001600160a01b038516845290915290205460ff1662000129576000828152602081815260408083206001600160a01b03851684529091529020805460ff19166001179055620001cc3390565b6001600160a01b0316816001600160a01b0316837f2f8788117e7eff1d82e926ec794901d17c78024a50270940304540a733656f0d60405160405180910390a45050565b600062000227836001600160a01b03841662000230565b90505b92915050565b600081815260018301602052604081205462000279575081546001818101845560008481526020808220909301849055845484825282860190935260409020919091556200022a565b5060006200022a565b60805160a05160c05160e0516101005161012051611a37620002d26000396000610f8a01526000610fd901526000610fb401526000610f0d01526000610f3701526000610f610152611a376000f3fe608060405234801561001057600080fd5b50600436106101735760003560e01c806370a08231116100de5780639fd5a6cf11610097578063ca15c87311610071578063ca15c87314610382578063d547741f14610395578063d89135cd146103a8578063dd62ed3e146103b057600080fd5b80639fd5a6cf14610354578063a217fddf14610367578063a9059cbb1461036f57600080fd5b806370a08231146102b057806372700241146102c35780637ecebe00146102d65780639010d07c146102f657806391d148541461032157806395d89b411461033457600080fd5b80632f2ff15d116101305780632f2ff15d1461022c57806330adf81f14610241578063313ce5671461026857806336568abe146102775780633fbdc67d1461028a5780634e7c57a61461029d57600080fd5b806301ffc9a71461017857806306fdde03146101a0578063095ea7b3146101cd57806318160ddd146101e057806323b872dd146101f6578063248a9ca314610209575b600080fd5b61018b6101863660046115a4565b6103e9565b60405190151581526020015b60405180910390f35b60408051808201909152600881526726b2ba32b923b7bb60c11b60208201525b60405161019791906115fe565b61018b6101db366004611648565b610414565b6101e8610480565b604051908152602001610197565b61018b610204366004611672565b6104f2565b6101e86102173660046116ae565b60009081526020819052604090206001015490565b61023f61023a3660046116c7565b6105b8565b005b6101e87f6e71edae12b1b97f4d1f60370fef10105fa2faae0126114a169c64845d6126c981565b60405160128152602001610197565b61023f6102853660046116c7565b6105e2565b61018b6102983660046116f3565b610660565b6101e86102ab3660046116f3565b6106ab565b6101e86102be3660046116f3565b61071b565b61023f6102d13660046116f3565b61074e565b6101e86102e43660046116f3565b60056020526000908152604090205481565b61030961030436600461170e565b61079e565b6040516001600160a01b039091168152602001610197565b61018b61032f3660046116c7565b6107bd565b6040805180820190915260048152634d54524760e01b60208201526101c0565b61018b610362366004611746565b6107e6565b6101e8600081565b61018b61037d366004611648565b6109ab565b6101e86103903660046116ae565b6109c1565b61023f6103a33660046116c7565b6109d8565b6101e86109fd565b6101e86103be36600461182c565b6001600160a01b03918216600090815260026020908152604080832093909416825291909152205490565b60006001600160e01b03198216635a05180f60e01b148061040e575061040e82610ae0565b92915050565b3360008181526002602090815260408083206001600160a01b038716808552925280832085905551919290917f8c5be1e5ebec7d5bd14f71427d1e84f3dd0314c0f7b2291e5b200ac8c7c3b9259061046f9086815260200190565b60405180910390a350600192915050565b60035460408051620511b760ed1b815290516000926001600160a01b03169163a236e0009160048083019260209291908290030181865afa1580156104c9573d6000803e3d6000fd5b505050506040513d601f19601f820116820180604052508101906104ed9190611856565b905090565b6001600160a01b038316600090815260026020908152604080832033845290915281205482111561056a5760405162461bcd60e51b815260206004820152601f60248201527f6275696c74696e3a20696e73756666696369656e7420616c6c6f77616e63650060448201526064015b60405180910390fd5b6001600160a01b03841660009081526002602090815260408083203384529091528120805484929061059d908490611885565b909155506105ae9050848484610b15565b5060019392505050565b6000828152602081905260409020600101546105d381610cd0565b6105dd8383610cdd565b505050565b6001600160a01b03811633146106525760405162461bcd60e51b815260206004820152602f60248201527f416363657373436f6e74726f6c3a2063616e206f6e6c792072656e6f756e636560448201526e103937b632b9903337b91039b2b63360891b6064820152608401610561565b61065c8282610cff565b5050565b600061066c81336107bd565b6106885760405162461bcd60e51b81526004016105619061189c565b506001600160a01b03811660009081526004602052604090205460ff165b919050565b6003546040516398c6fb8d60e01b81526001600160a01b03838116600483015260009216906398c6fb8d906024015b602060405180830381865afa1580156106f7573d6000803e3d6000fd5b505050506040513d601f19601f8201168201806040525081019061040e9190611856565b600354604051630a30af2760e41b81526001600160a01b038381166004830152600092169063a30af270906024016106da565b6107596000336107bd565b6107755760405162461bcd60e51b81526004016105619061189c565b6001600160a01b03166000908152600460205260409020805460ff19811660ff90911615179055565b60008281526001602052604081206107b69083610d21565b9392505050565b6000918252602082815260408084206001600160a01b0393909316845291905290205460ff1690565b6000428310156108235760405162461bcd60e51b8152602060048201526008602482015267657870697265642160c01b6044820152606401610561565b6001600160a01b038616600090815260056020526040812080547f6e71edae12b1b97f4d1f60370fef10105fa2faae0126114a169c64845d6126c9918991899189919086610870836118bf565b909155506040805160208101969096526001600160a01b0394851690860152929091166060840152608083015260a082015260c0810185905260e00160405160208183030381529060405280519060200120905060006108cf82610d2d565b905060006108dd8286610d7b565b9050806001600160a01b0316896001600160a01b0316146109405760405162461bcd60e51b815260206004820152601960248201527f5065726d69743a20696e76616c6964207369676e6174757265000000000000006044820152606401610561565b6001600160a01b038981166000818152600260209081526040808320948d16808452948252918290208b905590518a81527f8c5be1e5ebec7d5bd14f71427d1e84f3dd0314c0f7b2291e5b200ac8c7c3b925910160405180910390a350600198975050505050505050565b60006109b8338484610b15565b50600192915050565b600081815260016020526040812061040e90610d9f565b6000828152602081905260409020600101546109f381610cd0565b6105dd8383610cff565b6003546040805163eaa93f6b60e01b815290516000926001600160a01b03169163eaa93f6b9160048083019260209291908290030181865afa1580156104c9573d6000803e3d6000fd5b610a5182826107bd565b61065c576000828152602081815260408083206001600160a01b03851684529091529020805460ff19166001179055610a873390565b6001600160a01b0316816001600160a01b0316837f2f8788117e7eff1d82e926ec794901d17c78024a50270940304540a733656f0d60405160405180910390a45050565b60006107b6836001600160a01b038416610da9565b60006001600160e01b03198216637965db0b60e01b148061040e57506301ffc9a760e01b6001600160e01b031983161461040e565b6001600160a01b03831660009081526004602052604090205460ff1615610b4e5760405162461bcd60e51b81526004016105619061189c565b8015610c7e576003546040516315df233f60e11b81526001600160a01b0385811660048301526024820184905290911690632bbe467e906044016020604051808303816000875af1158015610ba7573d6000803e3d6000fd5b505050506040513d601f19601f82011682018060405250810190610bcb91906118da565b610c175760405162461bcd60e51b815260206004820152601d60248201527f6275696c74696e3a20696e73756666696369656e742062616c616e63650000006044820152606401610561565b6003546040516337dde9b560e21b81526001600160a01b038481166004830152602482018490529091169063df77a6d490604401600060405180830381600087803b158015610c6557600080fd5b505af1158015610c79573d6000803e3d6000fd5b505050505b816001600160a01b0316836001600160a01b03167fddf252ad1be2c89b69c2b068fc378daa952ba7f163c4a11628f55a4df523b3ef83604051610cc391815260200190565b60405180910390a3505050565b610cda8133610df8565b50565b610ce78282610a47565b60008281526001602052604090206105dd9082610acb565b610d098282610e5c565b60008281526001602052604090206105dd9082610ec1565b60006107b68383610ed6565b600061040e610d3a610f00565b8360405161190160f01b6020820152602281018390526042810182905260009060620160405160208183030381529060405280519060200120905092915050565b6000806000610d8a8585611027565b91509150610d978161106d565b509392505050565b600061040e825490565b6000818152600183016020526040812054610df05750815460018181018455600084815260208082209093018490558454848252828601909352604090209190915561040e565b50600061040e565b610e0282826107bd565b61065c57610e1a816001600160a01b03166014611228565b610e25836020611228565b604051602001610e369291906118fc565b60408051601f198184030181529082905262461bcd60e51b8252610561916004016115fe565b610e6682826107bd565b1561065c576000828152602081815260408083206001600160a01b0385168085529252808320805460ff1916905551339285917ff6391f5c32d9c69d2a47ea670b442974b53935d1edc7fd64eb21e047a839171b9190a45050565b60006107b6836001600160a01b0384166113c4565b6000826000018281548110610eed57610eed611971565b9060005260206000200154905092915050565b6000306001600160a01b037f000000000000000000000000000000000000000000000000000000000000000016148015610f5957507f000000000000000000000000000000000000000000000000000000000000000046145b15610f8357507f000000000000000000000000000000000000000000000000000000000000000090565b50604080517f00000000000000000000000000000000000000000000000000000000000000006020808301919091527f0000000000000000000000000000000000000000000000000000000000000000828401527f000000000000000000000000000000000000000000000000000000000000000060608301524660808301523060a0808401919091528351808403909101815260c0909201909252805191012090565b60008082516041141561105e5760208301516040840151606085015160001a611052878285856114b7565b94509450505050611066565b506000905060025b9250929050565b600081600481111561108157611081611987565b141561108a5750565b600181600481111561109e5761109e611987565b14156110ec5760405162461bcd60e51b815260206004820152601860248201527f45434453413a20696e76616c6964207369676e617475726500000000000000006044820152606401610561565b600281600481111561110057611100611987565b141561114e5760405162461bcd60e51b815260206004820152601f60248201527f45434453413a20696e76616c6964207369676e6174757265206c656e677468006044820152606401610561565b600381600481111561116257611162611987565b14156111bb5760405162461bcd60e51b815260206004820152602260248201527f45434453413a20696e76616c6964207369676e6174757265202773272076616c604482015261756560f01b6064820152608401610561565b60048160048111156111cf576111cf611987565b1415610cda5760405162461bcd60e51b815260206004820152602260248201527f45434453413a20696e76616c6964207369676e6174757265202776272076616c604482015261756560f01b6064820152608401610561565b6060600061123783600261199d565b6112429060026119bc565b67ffffffffffffffff81111561125a5761125a611730565b6040519080825280601f01601f191660200182016040528015611284576020820181803683370190505b509050600360fc1b8160008151811061129f5761129f611971565b60200101906001600160f81b031916908160001a905350600f60fb1b816001815181106112ce576112ce611971565b60200101906001600160f81b031916908160001a90535060006112f284600261199d565b6112fd9060016119bc565b90505b6001811115611375576f181899199a1a9b1b9c1cb0b131b232b360811b85600f166010811061133157611331611971565b1a60f81b82828151811061134757611347611971565b60200101906001600160f81b031916908160001a90535060049490941c9361136e816119d4565b9050611300565b5083156107b65760405162461bcd60e51b815260206004820181905260248201527f537472696e67733a20686578206c656e67746820696e73756666696369656e746044820152606401610561565b600081815260018301602052604081205480156114ad5760006113e8600183611885565b85549091506000906113fc90600190611885565b905081811461146157600086600001828154811061141c5761141c611971565b906000526020600020015490508087600001848154811061143f5761143f611971565b6000918252602080832090910192909255918252600188019052604090208390555b8554869080611472576114726119eb565b60019003818190600052602060002001600090559055856001016000868152602001908152602001600020600090556001935050505061040e565b600091505061040e565b6000807f7fffffffffffffffffffffffffffffff5d576e7357a4501ddfe92f46681b20a08311156114ee575060009050600361159b565b8460ff16601b1415801561150657508460ff16601c14155b15611517575060009050600461159b565b6040805160008082526020820180845289905260ff881692820192909252606081018690526080810185905260019060a0016020604051602081039080840390855afa15801561156b573d6000803e3d6000fd5b5050604051601f1901519150506001600160a01b0381166115945760006001925092505061159b565b9150600090505b94509492505050565b6000602082840312156115b657600080fd5b81356001600160e01b0319811681146107b657600080fd5b60005b838110156115e95781810151838201526020016115d1565b838111156115f8576000848401525b50505050565b602081526000825180602084015261161d8160408501602087016115ce565b601f01601f19169190910160400192915050565b80356001600160a01b03811681146106a657600080fd5b6000806040838503121561165b57600080fd5b61166483611631565b946020939093013593505050565b60008060006060848603121561168757600080fd5b61169084611631565b925061169e60208501611631565b9150604084013590509250925092565b6000602082840312156116c057600080fd5b5035919050565b600080604083850312156116da57600080fd5b823591506116ea60208401611631565b90509250929050565b60006020828403121561170557600080fd5b6107b682611631565b6000806040838503121561172157600080fd5b50508035926020909101359150565b634e487b7160e01b600052604160045260246000fd5b600080600080600060a0868803121561175e57600080fd5b61176786611631565b945061177560208701611631565b93506040860135925060608601359150608086013567ffffffffffffffff808211156117a057600080fd5b818801915088601f8301126117b457600080fd5b8135818111156117c6576117c6611730565b604051601f8201601f19908116603f011681019083821181831017156117ee576117ee611730565b816040528281528b602084870101111561180757600080fd5b8260208601602083013760006020848301015280955050505050509295509295909350565b6000806040838503121561183f57600080fd5b61184883611631565b91506116ea60208401611631565b60006020828403121561186857600080fd5b5051919050565b634e487b7160e01b600052601160045260246000fd5b6000828210156118975761189761186f565b500390565b6020808252600990820152683337b93134b23232b760b91b604082015260600190565b60006000198214156118d3576118d361186f565b5060010190565b6000602082840312156118ec57600080fd5b815180151581146107b657600080fd5b7f416363657373436f6e74726f6c3a206163636f756e74200000000000000000008152600083516119348160178501602088016115ce565b7001034b99036b4b9b9b4b733903937b6329607d1b60179184019182015283516119658160288401602088016115ce565b01602801949350505050565b634e487b7160e01b600052603260045260246000fd5b634e487b7160e01b600052602160045260246000fd5b60008160001904831182151516156119b7576119b761186f565b500290565b600082198211156119cf576119cf61186f565b500190565b6000816119e3576119e361186f565b506000190190565b634e487b7160e01b600052603160045260246000fdfea26469706673582212209a53810b2550af7326abc656d8af52960a14da213963d42edc4a1f310447124064736f6c634300080b0033",
  "linkReferences": {},
  "deployedLinkReferences": {}
}