{
  "_format": "hh-sol-artifact-1",
  "contractName": "MeterGovERC20",
  "sourceName": "contracts/MeterGovERC20.sol",
  "abi": [
    {
      "inputs": [],
      "stateMutability": "nonpayable",
      "type": "constructor"
    },
    {
      "inputs": [],
      "name": "InvalidShortString",
      "type": "error"
    },
    {
      "inputs": [
        {
          "internalType": "string",
          "name": "str",
          "type": "string"
        }
      ],
      "name": "StringTooLong",
      "type": "error"
    },
    {
      "anonymous": false,
      "inputs": [
        {
          "indexed": true,
          "internalType": "address",
          "name": "owner",
          "type": "address"
        },
        {
          "indexed": true,
          "internalType": "address",
          "name": "spender",
          "type": "address"
        },
        {
          "indexed": false,
          "internalType": "uint256",
          "name": "value",
          "type": "uint256"
        }
      ],
      "name": "Approval",
      "type": "event"
    },
    {
      "anonymous": false,
      "inputs": [],
      "name": "EIP712DomainChanged",
      "type": "event"
    },
    {
      "anonymous": false,
      "inputs": [
        {
          "indexed": true,
          "internalType": "bytes32",
          "name": "role",
          "type": "bytes32"
        },
        {
          "indexed": true,
          "internalType": "bytes32",
          "name": "previousAdminRole",
          "type": "bytes32"
        },
        {
          "indexed": true,
          "internalType": "bytes32",
          "name": "newAdminRole",
          "type": "bytes32"
        }
      ],
      "name": "RoleAdminChanged",
      "type": "event"
    },
    {
      "anonymous": false,
      "inputs": [
        {
          "indexed": true,
          "internalType": "bytes32",
          "name": "role",
          "type": "bytes32"
        },
        {
          "indexed": true,
          "internalType": "address",
          "name": "account",
          "type": "address"
        },
        {
          "indexed": true,
          "internalType": "address",
          "name": "sender",
          "type": "address"
        }
      ],
      "name": "RoleGranted",
      "type": "event"
    },
    {
      "anonymous": false,
      "inputs": [
        {
          "indexed": true,
          "internalType": "bytes32",
          "name": "role",
          "type": "bytes32"
        },
        {
          "indexed": true,
          "internalType": "address",
          "name": "account",
          "type": "address"
        },
        {
          "indexed": true,
          "internalType": "address",
          "name": "sender",
          "type": "address"
        }
      ],
      "name": "RoleRevoked",
      "type": "event"
    },
    {
      "anonymous": false,
      "inputs": [
        {
          "indexed": true,
          "internalType": "address",
          "name": "from",
          "type": "address"
        },
        {
          "indexed": true,
          "internalType": "address",
          "name": "to",
          "type": "address"
        },
        {
          "indexed": false,
          "internalType": "uint256",
          "name": "value",
          "type": "uint256"
        }
      ],
      "name": "Transfer",
      "type": "event"
    },
    {
      "inputs": [],
      "name": "DEFAULT_ADMIN_ROLE",
      "outputs": [
        {
          "internalType": "bytes32",
          "name": "",
          "type": "bytes32"
        }
      ],
      "stateMutability": "view",
      "type": "function"
    },
    {
      "inputs": [],
      "name": "PERMIT_TYPEHASH",
      "outputs": [
        {
          "internalType": "bytes32",
          "name": "",
          "type": "bytes32"
        }
      ],
      "stateMutability": "view",
      "type": "function"
    },
    {
      "inputs": [
        {
          "internalType": "address",
          "name": "_owner",
          "type": "address"
        },
        {
          "internalType": "address",
          "name": "_spender",
          "type": "address"
        }
      ],
      "name": "allowance",
      "outputs": [
        {
          "internalType": "uint256",
          "name": "remaining",
          "type": "uint256"
        }
      ],
      "stateMutability": "view",
      "type": "function"
    },
    {
      "inputs": [
        {
          "internalType": "address",
          "name": "_spender",
          "type": "address"
        },
        {
          "internalType": "uint256",
          "name": "_value",
          "type": "uint256"
        }
      ],
      "name": "approve",
      "outputs": [
        {
          "internalType": "bool",
          "name": "success",
          "type": "bool"
        }
      ],
      "stateMutability": "nonpayable",
      "type": "function"
    },
    {
      "inputs": [
        {
          "internalType": "address",
          "name": "_owner",
          "type": "address"
        }
      ],
      "name": "balanceOf",
      "outputs": [
        {
          "internalType": "uint256",
          "name": "balance",
          "type": "uint256"
        }
      ],
      "stateMutability": "view",
      "type": "function"
    },
    {
      "inputs": [],
      "name": "decimals",
      "outputs": [
        {
          "internalType": "uint8",
          "name": "",
          "type": "uint8"
        }
      ],
      "stateMutability": "pure",
      "type": "function"
    },
    {
      "inputs": [],
      "name": "eip712Domain",
      "outputs": [
        {
          "internalType": "bytes1",
          "name": "fields",
          "type": "bytes1"
        },
        {
          "internalType": "string",
          "name": "name",
          "type": "string"
        },
        {
          "internalType": "string",
          "name": "version",
          "type": "string"
        },
        {
          "internalType": "uint256",
          "name": "chainId",
          "type": "uint256"
        },
        {
          "internalType": "address",
          "name": "verifyingContract",
          "type": "address"
        },
        {
          "internalType": "bytes32",
          "name": "salt",
          "type": "bytes32"
        },
        {
          "internalType": "uint256[]",
          "name": "extensions",
          "type": "uint256[]"
        }
      ],
      "stateMutability": "view",
      "type": "function"
    },
    {
      "inputs": [
        {
          "internalType": "address",
          "name": "account",
          "type": "address"
        }
      ],
      "name": "getBlackList",
      "outputs": [
        {
          "internalType": "bool",
          "name": "",
          "type": "bool"
        }
      ],
      "stateMutability": "view",
      "type": "function"
    },
    {
      "inputs": [
        {
          "internalType": "bytes32",
          "name": "role",
          "type": "bytes32"
        }
      ],
      "name": "getRoleAdmin",
      "outputs": [
        {
          "internalType": "bytes32",
          "name": "",
          "type": "bytes32"
        }
      ],
      "stateMutability": "view",
      "type": "function"
    },
    {
      "inputs": [
        {
          "internalType": "bytes32",
          "name": "role",
          "type": "bytes32"
        },
        {
          "internalType": "uint256",
          "name": "index",
          "type": "uint256"
        }
      ],
      "name": "getRoleMember",
      "outputs": [
        {
          "internalType": "address",
          "name": "",
          "type": "address"
        }
      ],
      "stateMutability": "view",
      "type": "function"
    },
    {
      "inputs": [
        {
          "internalType": "bytes32",
          "name": "role",
          "type": "bytes32"
        }
      ],
      "name": "getRoleMemberCount",
      "outputs": [
        {
          "internalType": "uint256",
          "name": "",
          "type": "uint256"
        }
      ],
      "stateMutability": "view",
      "type": "function"
    },
    {
      "inputs": [
        {
          "internalType": "bytes32",
          "name": "role",
          "type": "bytes32"
        },
        {
          "internalType": "address",
          "name": "account",
          "type": "address"
        }
      ],
      "name": "grantRole",
      "outputs": [],
      "stateMutability": "nonpayable",
      "type": "function"
    },
    {
      "inputs": [
        {
          "internalType": "bytes32",
          "name": "role",
          "type": "bytes32"
        },
        {
          "internalType": "address",
          "name": "account",
          "type": "address"
        }
      ],
      "name": "hasRole",
      "outputs": [
        {
          "internalType": "bool",
          "name": "",
          "type": "bool"
        }
      ],
      "stateMutability": "view",
      "type": "function"
    },
    {
      "inputs": [],
      "name": "name",
      "outputs": [
        {
          "internalType": "string",
          "name": "",
          "type": "string"
        }
      ],
      "stateMutability": "pure",
      "type": "function"
    },
    {
      "inputs": [
        {
          "internalType": "address",
          "name": "",
          "type": "address"
        }
      ],
      "name": "nonces",
      "outputs": [
        {
          "internalType": "uint256",
          "name": "",
          "type": "uint256"
        }
      ],
      "stateMutability": "view",
      "type": "function"
    },
    {
      "inputs": [
        {
          "internalType": "address",
          "name": "owner",
          "type": "address"
        },
        {
          "internalType": "address",
          "name": "spender",
          "type": "address"
        },
        {
          "internalType": "uint256",
          "name": "value",
          "type": "uint256"
        },
        {
          "internalType": "uint256",
          "name": "deadline",
          "type": "uint256"
        },
        {
          "internalType": "bytes",
          "name": "signature",
          "type": "bytes"
        }
      ],
      "name": "permit",
      "outputs": [
        {
          "internalType": "bool",
          "name": "",
          "type": "bool"
        }
      ],
      "stateMutability": "nonpayable",
      "type": "function"
    },
    {
      "inputs": [
        {
          "internalType": "bytes32",
          "name": "role",
          "type": "bytes32"
        },
        {
          "internalType": "address",
          "name": "account",
          "type": "address"
        }
      ],
      "name": "renounceRole",
      "outputs": [],
      "stateMutability": "nonpayable",
      "type": "function"
    },
    {
      "inputs": [
        {
          "internalType": "bytes32",
          "name": "role",
          "type": "bytes32"
        },
        {
          "internalType": "address",
          "name": "account",
          "type": "address"
        }
      ],
      "name": "revokeRole",
      "outputs": [],
      "stateMutability": "nonpayable",
      "type": "function"
    },
    {
      "inputs": [
        {
          "internalType": "address",
          "name": "account",
          "type": "address"
        }
      ],
      "name": "setBlackList",
      "outputs": [],
      "stateMutability": "nonpayable",
      "type": "function"
    },
    {
      "inputs": [
        {
          "internalType": "address",
          "name": "_owner",
          "type": "address"
        }
      ],
      "name": "stakeBalance",
      "outputs": [
        {
          "internalType": "uint256",
          "name": "balance",
          "type": "uint256"
        }
      ],
      "stateMutability": "view",
      "type": "function"
    },
    {
      "inputs": [
        {
          "internalType": "bytes4",
          "name": "interfaceId",
          "type": "bytes4"
        }
      ],
      "name": "supportsInterface",
      "outputs": [
        {
          "internalType": "bool",
          "name": "",
          "type": "bool"
        }
      ],
      "stateMutability": "view",
      "type": "function"
    },
    {
      "inputs": [],
      "name": "symbol",
      "outputs": [
        {
          "internalType": "string",
          "name": "",
          "type": "string"
        }
      ],
      "stateMutability": "pure",
      "type": "function"
    },
    {
      "inputs": [],
      "name": "totalBurned",
      "outputs": [
        {
          "internalType": "uint256",
          "name": "",
          "type": "uint256"
        }
      ],
      "stateMutability": "view",
      "type": "function"
    },
    {
      "inputs": [],
      "name": "totalSupply",
      "outputs": [
        {
          "internalType": "uint256",
          "name": "",
          "type": "uint256"
        }
      ],
      "stateMutability": "view",
      "type": "function"
    },
    {
      "inputs": [
        {
          "internalType": "address",
          "name": "_to",
          "type": "address"
        },
        {
          "internalType": "uint256",
          "name": "_amount",
          "type": "uint256"
        }
      ],
      "name": "transfer",
      "outputs": [
        {
          "internalType": "bool",
          "name": "success",
          "type": "bool"
        }
      ],
      "stateMutability": "nonpayable",
      "type": "function"
    },
    {
      "inputs": [
        {
          "internalType": "address",
          "name": "_from",
          "type": "address"
        },
        {
          "internalType": "address",
          "name": "_to",
          "type": "address"
        },
        {
          "internalType": "uint256",
          "name": "_amount",
          "type": "uint256"
        }
      ],
      "name": "transferFrom",
      "outputs": [
        {
          "internalType": "bool",
          "name": "success",
          "type": "bool"
        }
      ],
      "stateMutability": "nonpayable",
      "type": "function"
    }
  ],
  "bytecode": "0x6101606040523480156200001257600080fd5b5060408051808201909152600881526726b2ba32b923b7bb60c11b6020820152604080518082019091526004815263076312e360e41b60208201526200005a82600062000139565b610120526200006b81600162000139565b61014052815160208084019190912060e052815190820120610100524660a052620000f960e05161010051604080517f8b73c3c69bb8fe3d512ecc4cf759cc79239f7b179b0ffacaa9a75d522b39400f60208201529081019290925260608201524660808201523060a082015260009060c00160405160208183030381529060405280519060200120905090565b60805250503060c052600580546001600160a01b0319166a4d657465724e61746976651790556200013360006200012d3390565b62000172565b620004f2565b60006020835110156200015957620001518362000182565b90506200016c565b81620001668482620003b1565b5060ff90505b92915050565b6200017e8282620001ce565b5050565b600080829050601f81511115620001b9578260405163305a27a960e01b8152600401620001b091906200047d565b60405180910390fd5b8051620001c682620004cd565b179392505050565b620001da8282620001f9565b6000828152600360205260409020620001f490826200029d565b505050565b60008281526002602090815260408083206001600160a01b038516845290915290205460ff166200017e5760008281526002602090815260408083206001600160a01b03851684529091529020805460ff19166001179055620002593390565b6001600160a01b0316816001600160a01b0316837f2f8788117e7eff1d82e926ec794901d17c78024a50270940304540a733656f0d60405160405180910390a45050565b6000620002b4836001600160a01b038416620002bb565b9392505050565b600081815260018301602052604081205462000304575081546001818101845560008481526020808220909301849055845484825282860190935260409020919091556200016c565b5060006200016c565b634e487b7160e01b600052604160045260246000fd5b600181811c908216806200033857607f821691505b6020821081036200035957634e487b7160e01b600052602260045260246000fd5b50919050565b601f821115620001f457600081815260208120601f850160051c81016020861015620003885750805b601f850160051c820191505b81811015620003a95782815560010162000394565b505050505050565b81516001600160401b03811115620003cd57620003cd6200030d565b620003e581620003de845462000323565b846200035f565b602080601f8311600181146200041d5760008415620004045750858301515b600019600386901b1c1916600185901b178555620003a9565b600085815260208120601f198616915b828110156200044e578886015182559484019460019091019084016200042d565b50858210156200046d5787850151600019600388901b60f8161c191681555b5050505050600190811b01905550565b600060208083528351808285015260005b81811015620004ac578581018301518582016040015282016200048e565b506000604082860101526040601f19601f8301168501019250505092915050565b80516020808301519190811015620003595760001960209190910360031b1b16919050565b60805160a05160c05160e051610100516101205161014051611c196200054d600039600061080c015260006107e20152600061110d015260006110e5015260006110400152600061106a015260006110940152611c196000f3fe608060405234801561001057600080fd5b506004361061018e5760003560e01c806372700241116100de5780639fd5a6cf11610097578063ca15c87311610071578063ca15c873146103b8578063d547741f146103cb578063d89135cd146103de578063dd62ed3e146103e657600080fd5b80639fd5a6cf1461038a578063a217fddf1461039d578063a9059cbb146103a557600080fd5b806372700241146102de5780637ecebe00146102f157806384b0196e146103115780639010d07c1461032c57806391d148541461035757806395d89b411461036a57600080fd5b80632f2ff15d1161014b57806336568abe1161012557806336568abe146102925780633fbdc67d146102a55780634e7c57a6146102b857806370a08231146102cb57600080fd5b80632f2ff15d1461024757806330adf81f1461025c578063313ce5671461028357600080fd5b806301ffc9a71461019357806306fdde03146101bb578063095ea7b3146101e857806318160ddd146101fb57806323b872dd14610211578063248a9ca314610224575b600080fd5b6101a66101a13660046116c9565b61041f565b60405190151581526020015b60405180910390f35b60408051808201909152600881526726b2ba32b923b7bb60c11b60208201525b6040516101b29190611743565b6101a66101f636600461176d565b61044a565b6102036104b6565b6040519081526020016101b2565b6101a661021f366004611797565b610528565b6102036102323660046117d3565b60009081526002602052604090206001015490565b61025a6102553660046117ec565b6105ee565b005b6102037f6e71edae12b1b97f4d1f60370fef10105fa2faae0126114a169c64845d6126c981565b604051601281526020016101b2565b61025a6102a03660046117ec565b610618565b6101a66102b3366004611818565b610696565b6102036102c6366004611818565b6106e1565b6102036102d9366004611818565b610751565b61025a6102ec366004611818565b610784565b6102036102ff366004611818565b60076020526000908152604090205481565b6103196107d4565b6040516101b29796959493929190611833565b61033f61033a3660046118c9565b61085c565b6040516001600160a01b0390911681526020016101b2565b6101a66103653660046117ec565b61087b565b6040805180820190915260048152634d54524760e01b60208201526101db565b6101a6610398366004611901565b6108a6565b610203600081565b6101a66103b336600461176d565b610a6b565b6102036103c63660046117d3565b610a81565b61025a6103d93660046117ec565b610a98565b610203610abd565b6102036103f43660046119e7565b6001600160a01b03918216600090815260046020908152604080832093909416825291909152205490565b60006001600160e01b03198216635a05180f60e01b1480610444575061044482610b07565b92915050565b3360008181526004602090815260408083206001600160a01b038716808552925280832085905551919290917f8c5be1e5ebec7d5bd14f71427d1e84f3dd0314c0f7b2291e5b200ac8c7c3b925906104a59086815260200190565b60405180910390a350600192915050565b60055460408051620511b760ed1b815290516000926001600160a01b03169163a236e0009160048083019260209291908290030181865afa1580156104ff573d6000803e3d6000fd5b505050506040513d601f19601f820116820180604052508101906105239190611a11565b905090565b6001600160a01b03831660009081526004602090815260408083203384529091528120548211156105a05760405162461bcd60e51b815260206004820152601f60248201527f6275696c74696e3a20696e73756666696369656e7420616c6c6f77616e63650060448201526064015b60405180910390fd5b6001600160a01b0384166000908152600460209081526040808320338452909152812080548492906105d3908490611a40565b909155506105e49050848484610b3c565b5060019392505050565b60008281526002602052604090206001015461060981610cf7565b6106138383610d04565b505050565b6001600160a01b03811633146106885760405162461bcd60e51b815260206004820152602f60248201527f416363657373436f6e74726f6c3a2063616e206f6e6c792072656e6f756e636560448201526e103937b632b9903337b91039b2b63360891b6064820152608401610597565b6106928282610d26565b5050565b60006106a2813361087b565b6106be5760405162461bcd60e51b815260040161059790611a53565b506001600160a01b03811660009081526006602052604090205460ff165b919050565b6005546040516398c6fb8d60e01b81526001600160a01b03838116600483015260009216906398c6fb8d906024015b602060405180830381865afa15801561072d573d6000803e3d6000fd5b505050506040513d601f19601f820116820180604052508101906104449190611a11565b600554604051630a30af2760e41b81526001600160a01b038381166004830152600092169063a30af27090602401610710565b61078f60003361087b565b6107ab5760405162461bcd60e51b815260040161059790611a53565b6001600160a01b03166000908152600660205260409020805460ff19811660ff90911615179055565b6000606080828080836108077f000000000000000000000000000000000000000000000000000000000000000083610d48565b6108327f00000000000000000000000000000000000000000000000000000000000000006001610d48565b60408051600080825260208201909252600f60f81b9b939a50919850469750309650945092509050565b60008281526003602052604081206108749083610df3565b9392505050565b60009182526002602090815260408084206001600160a01b0393909316845291905290205460ff1690565b6000428310156108e35760405162461bcd60e51b8152602060048201526008602482015267657870697265642160c01b6044820152606401610597565b6001600160a01b038616600090815260076020526040812080547f6e71edae12b1b97f4d1f60370fef10105fa2faae0126114a169c64845d6126c991899189918991908661093083611a76565b909155506040805160208101969096526001600160a01b0394851690860152929091166060840152608083015260a082015260c0810185905260e001604051602081830303815290604052805190602001209050600061098f82610dff565b9050600061099d8286610e2c565b9050806001600160a01b0316896001600160a01b031614610a005760405162461bcd60e51b815260206004820152601960248201527f5065726d69743a20696e76616c6964207369676e6174757265000000000000006044820152606401610597565b6001600160a01b038981166000818152600460209081526040808320948d16808452948252918290208b905590518a81527f8c5be1e5ebec7d5bd14f71427d1e84f3dd0314c0f7b2291e5b200ac8c7c3b925910160405180910390a350600198975050505050505050565b6000610a78338484610b3c565b50600192915050565b600081815260036020526040812061044490610e50565b600082815260026020526040902060010154610ab381610cf7565b6106138383610d26565b6005546040805163eaa93f6b60e01b815290516000926001600160a01b03169163eaa93f6b9160048083019260209291908290030181865afa1580156104ff573d6000803e3d6000fd5b60006001600160e01b03198216637965db0b60e01b148061044457506301ffc9a760e01b6001600160e01b0319831614610444565b6001600160a01b03831660009081526006602052604090205460ff1615610b755760405162461bcd60e51b815260040161059790611a53565b8015610ca5576005546040516315df233f60e11b81526001600160a01b0385811660048301526024820184905290911690632bbe467e906044016020604051808303816000875af1158015610bce573d6000803e3d6000fd5b505050506040513d601f19601f82011682018060405250810190610bf29190611a8f565b610c3e5760405162461bcd60e51b815260206004820152601d60248201527f6275696c74696e3a20696e73756666696369656e742062616c616e63650000006044820152606401610597565b6005546040516337dde9b560e21b81526001600160a01b038481166004830152602482018490529091169063df77a6d490604401600060405180830381600087803b158015610c8c57600080fd5b505af1158015610ca0573d6000803e3d6000fd5b505050505b816001600160a01b0316836001600160a01b03167fddf252ad1be2c89b69c2b068fc378daa952ba7f163c4a11628f55a4df523b3ef83604051610cea91815260200190565b60405180910390a3505050565b610d018133610e5a565b50565b610d0e8282610eb3565b60008281526003602052604090206106139082610f39565b610d308282610f4e565b60008281526003602052604090206106139082610fb5565b606060ff8314610d6257610d5b83610fca565b9050610444565b818054610d6e90611ab1565b80601f0160208091040260200160405190810160405280929190818152602001828054610d9a90611ab1565b8015610de75780601f10610dbc57610100808354040283529160200191610de7565b820191906000526020600020905b815481529060010190602001808311610dca57829003601f168201915b50505050509050610444565b60006108748383611009565b6000610444610e0c611033565b8360405161190160f01b8152600281019290925260228201526042902090565b6000806000610e3b858561115e565b91509150610e48816111a3565b509392505050565b6000610444825490565b610e64828261087b565b61069257610e71816112ed565b610e7c8360206112ff565b604051602001610e8d929190611aeb565b60408051601f198184030181529082905262461bcd60e51b825261059791600401611743565b610ebd828261087b565b6106925760008281526002602090815260408083206001600160a01b03851684529091529020805460ff19166001179055610ef53390565b6001600160a01b0316816001600160a01b0316837f2f8788117e7eff1d82e926ec794901d17c78024a50270940304540a733656f0d60405160405180910390a45050565b6000610874836001600160a01b03841661149b565b610f58828261087b565b156106925760008281526002602090815260408083206001600160a01b0385168085529252808320805460ff1916905551339285917ff6391f5c32d9c69d2a47ea670b442974b53935d1edc7fd64eb21e047a839171b9190a45050565b6000610874836001600160a01b0384166114ea565b60606000610fd7836115dd565b604080516020808252818301909252919250600091906020820181803683375050509182525060208101929092525090565b600082600001828154811061102057611020611b60565b9060005260206000200154905092915050565b6000306001600160a01b037f00000000000000000000000000000000000000000000000000000000000000001614801561108c57507f000000000000000000000000000000000000000000000000000000000000000046145b156110b657507f000000000000000000000000000000000000000000000000000000000000000090565b610523604080517f8b73c3c69bb8fe3d512ecc4cf759cc79239f7b179b0ffacaa9a75d522b39400f60208201527f0000000000000000000000000000000000000000000000000000000000000000918101919091527f000000000000000000000000000000000000000000000000000000000000000060608201524660808201523060a082015260009060c00160405160208183030381529060405280519060200120905090565b60008082516041036111945760208301516040840151606085015160001a61118887828585611605565b9450945050505061119c565b506000905060025b9250929050565b60008160048111156111b7576111b7611b76565b036111bf5750565b60018160048111156111d3576111d3611b76565b036112205760405162461bcd60e51b815260206004820152601860248201527f45434453413a20696e76616c6964207369676e617475726500000000000000006044820152606401610597565b600281600481111561123457611234611b76565b036112815760405162461bcd60e51b815260206004820152601f60248201527f45434453413a20696e76616c6964207369676e6174757265206c656e677468006044820152606401610597565b600381600481111561129557611295611b76565b03610d015760405162461bcd60e51b815260206004820152602260248201527f45434453413a20696e76616c6964207369676e6174757265202773272076616c604482015261756560f01b6064820152608401610597565b60606104446001600160a01b03831660145b6060600061130e836002611b8c565b611319906002611ba3565b67ffffffffffffffff811115611331576113316118eb565b6040519080825280601f01601f19166020018201604052801561135b576020820181803683370190505b509050600360fc1b8160008151811061137657611376611b60565b60200101906001600160f81b031916908160001a905350600f60fb1b816001815181106113a5576113a5611b60565b60200101906001600160f81b031916908160001a90535060006113c9846002611b8c565b6113d4906001611ba3565b90505b600181111561144c576f181899199a1a9b1b9c1cb0b131b232b360811b85600f166010811061140857611408611b60565b1a60f81b82828151811061141e5761141e611b60565b60200101906001600160f81b031916908160001a90535060049490941c9361144581611bb6565b90506113d7565b5083156108745760405162461bcd60e51b815260206004820181905260248201527f537472696e67733a20686578206c656e67746820696e73756666696369656e746044820152606401610597565b60008181526001830160205260408120546114e257508154600181810184556000848152602080822090930184905584548482528286019093526040902091909155610444565b506000610444565b600081815260018301602052604081205480156115d357600061150e600183611a40565b855490915060009061152290600190611a40565b905081811461158757600086600001828154811061154257611542611b60565b906000526020600020015490508087600001848154811061156557611565611b60565b6000918252602080832090910192909255918252600188019052604090208390555b855486908061159857611598611bcd565b600190038181906000526020600020016000905590558560010160008681526020019081526020016000206000905560019350505050610444565b6000915050610444565b600060ff8216601f81111561044457604051632cd44ac360e21b815260040160405180910390fd5b6000807f7fffffffffffffffffffffffffffffff5d576e7357a4501ddfe92f46681b20a083111561163c57506000905060036116c0565b6040805160008082526020820180845289905260ff881692820192909252606081018690526080810185905260019060a0016020604051602081039080840390855afa158015611690573d6000803e3d6000fd5b5050604051601f1901519150506001600160a01b0381166116b9576000600192509250506116c0565b9150600090505b94509492505050565b6000602082840312156116db57600080fd5b81356001600160e01b03198116811461087457600080fd5b60005b8381101561170e5781810151838201526020016116f6565b50506000910152565b6000815180845261172f8160208601602086016116f3565b601f01601f19169290920160200192915050565b6020815260006108746020830184611717565b80356001600160a01b03811681146106dc57600080fd5b6000806040838503121561178057600080fd5b61178983611756565b946020939093013593505050565b6000806000606084860312156117ac57600080fd5b6117b584611756565b92506117c360208501611756565b9150604084013590509250925092565b6000602082840312156117e557600080fd5b5035919050565b600080604083850312156117ff57600080fd5b8235915061180f60208401611756565b90509250929050565b60006020828403121561182a57600080fd5b61087482611756565b60ff60f81b881681526000602060e08184015261185360e084018a611717565b8381036040850152611865818a611717565b606085018990526001600160a01b038816608086015260a0850187905284810360c0860152855180825283870192509083019060005b818110156118b75783518352928401929184019160010161189b565b50909c9b505050505050505050505050565b600080604083850312156118dc57600080fd5b50508035926020909101359150565b634e487b7160e01b600052604160045260246000fd5b600080600080600060a0868803121561191957600080fd5b61192286611756565b945061193060208701611756565b93506040860135925060608601359150608086013567ffffffffffffffff8082111561195b57600080fd5b818801915088601f83011261196f57600080fd5b813581811115611981576119816118eb565b604051601f8201601f19908116603f011681019083821181831017156119a9576119a96118eb565b816040528281528b60208487010111156119c257600080fd5b8260208601602083013760006020848301015280955050505050509295509295909350565b600080604083850312156119fa57600080fd5b611a0383611756565b915061180f60208401611756565b600060208284031215611a2357600080fd5b5051919050565b634e487b7160e01b600052601160045260246000fd5b8181038181111561044457610444611a2a565b6020808252600990820152683337b93134b23232b760b91b604082015260600190565b600060018201611a8857611a88611a2a565b5060010190565b600060208284031215611aa157600080fd5b8151801515811461087457600080fd5b600181811c90821680611ac557607f821691505b602082108103611ae557634e487b7160e01b600052602260045260246000fd5b50919050565b7f416363657373436f6e74726f6c3a206163636f756e7420000000000000000000815260008351611b238160178501602088016116f3565b7001034b99036b4b9b9b4b733903937b6329607d1b6017918401918201528351611b548160288401602088016116f3565b01602801949350505050565b634e487b7160e01b600052603260045260246000fd5b634e487b7160e01b600052602160045260246000fd5b808202811582820484141761044457610444611a2a565b8082018082111561044457610444611a2a565b600081611bc557611bc5611a2a565b506000190190565b634e487b7160e01b600052603160045260246000fdfea26469706673582212202fcf4261bf41b16eec3a56a1e40eea8f4a8b2ce9342e71b634cc15336833a5b464736f6c63430008130033",
  "linkReferences": {},
  "deployedLinkReferences": {}
}