{
  "_format": "hh-sol-artifact-1",
  "contractName": "ERC20MintablePauseableUpgradeable",
  "sourceName": "contracts/erc20/ERC20MintablePauseableUpgradeable.sol",
  "abi": [
    {
      "anonymous": false,
      "inputs": [
        {
          "indexed": true,
          "internalType": "address",
          "name": "owner",
          "type": "address"
        },
        {
          "indexed": true,
          "internalType": "address",
          "name": "spender",
          "type": "address"
        },
        {
          "indexed": false,
          "internalType": "uint256",
          "name": "value",
          "type": "uint256"
        }
      ],
      "name": "Approval",
      "type": "event"
    },
    {
      "anonymous": false,
      "inputs": [],
      "name": "EIP712DomainChanged",
      "type": "event"
    },
    {
      "anonymous": false,
      "inputs": [
        {
          "indexed": false,
          "internalType": "uint8",
          "name": "version",
          "type": "uint8"
        }
      ],
      "name": "Initialized",
      "type": "event"
    },
    {
      "anonymous": false,
      "inputs": [
        {
          "indexed": false,
          "internalType": "address",
          "name": "account",
          "type": "address"
        }
      ],
      "name": "Paused",
      "type": "event"
    },
    {
      "anonymous": false,
      "inputs": [
        {
          "indexed": true,
          "internalType": "bytes32",
          "name": "role",
          "type": "bytes32"
        },
        {
          "indexed": true,
          "internalType": "bytes32",
          "name": "previousAdminRole",
          "type": "bytes32"
        },
        {
          "indexed": true,
          "internalType": "bytes32",
          "name": "newAdminRole",
          "type": "bytes32"
        }
      ],
      "name": "RoleAdminChanged",
      "type": "event"
    },
    {
      "anonymous": false,
      "inputs": [
        {
          "indexed": true,
          "internalType": "bytes32",
          "name": "role",
          "type": "bytes32"
        },
        {
          "indexed": true,
          "internalType": "address",
          "name": "account",
          "type": "address"
        },
        {
          "indexed": true,
          "internalType": "address",
          "name": "sender",
          "type": "address"
        }
      ],
      "name": "RoleGranted",
      "type": "event"
    },
    {
      "anonymous": false,
      "inputs": [
        {
          "indexed": true,
          "internalType": "bytes32",
          "name": "role",
          "type": "bytes32"
        },
        {
          "indexed": true,
          "internalType": "address",
          "name": "account",
          "type": "address"
        },
        {
          "indexed": true,
          "internalType": "address",
          "name": "sender",
          "type": "address"
        }
      ],
      "name": "RoleRevoked",
      "type": "event"
    },
    {
      "anonymous": false,
      "inputs": [
        {
          "indexed": true,
          "internalType": "address",
          "name": "from",
          "type": "address"
        },
        {
          "indexed": true,
          "internalType": "address",
          "name": "to",
          "type": "address"
        },
        {
          "indexed": false,
          "internalType": "uint256",
          "name": "value",
          "type": "uint256"
        }
      ],
      "name": "Transfer",
      "type": "event"
    },
    {
      "anonymous": false,
      "inputs": [
        {
          "indexed": false,
          "internalType": "address",
          "name": "account",
          "type": "address"
        }
      ],
      "name": "Unpaused",
      "type": "event"
    },
    {
      "inputs": [],
      "name": "DEFAULT_ADMIN_ROLE",
      "outputs": [
        {
          "internalType": "bytes32",
          "name": "",
          "type": "bytes32"
        }
      ],
      "stateMutability": "view",
      "type": "function"
    },
    {
      "inputs": [],
      "name": "MINTER_ROLE",
      "outputs": [
        {
          "internalType": "bytes32",
          "name": "",
          "type": "bytes32"
        }
      ],
      "stateMutability": "view",
      "type": "function"
    },
    {
      "inputs": [],
      "name": "PERMIT_TYPEHASH",
      "outputs": [
        {
          "internalType": "bytes32",
          "name": "",
          "type": "bytes32"
        }
      ],
      "stateMutability": "view",
      "type": "function"
    },
    {
      "inputs": [
        {
          "internalType": "address",
          "name": "owner",
          "type": "address"
        },
        {
          "internalType": "address",
          "name": "spender",
          "type": "address"
        }
      ],
      "name": "allowance",
      "outputs": [
        {
          "internalType": "uint256",
          "name": "",
          "type": "uint256"
        }
      ],
      "stateMutability": "view",
      "type": "function"
    },
    {
      "inputs": [
        {
          "internalType": "address",
          "name": "spender",
          "type": "address"
        },
        {
          "internalType": "uint256",
          "name": "amount",
          "type": "uint256"
        }
      ],
      "name": "approve",
      "outputs": [
        {
          "internalType": "bool",
          "name": "",
          "type": "bool"
        }
      ],
      "stateMutability": "nonpayable",
      "type": "function"
    },
    {
      "inputs": [
        {
          "internalType": "address",
          "name": "account",
          "type": "address"
        }
      ],
      "name": "balanceOf",
      "outputs": [
        {
          "internalType": "uint256",
          "name": "",
          "type": "uint256"
        }
      ],
      "stateMutability": "view",
      "type": "function"
    },
    {
      "inputs": [
        {
          "internalType": "uint256",
          "name": "amount",
          "type": "uint256"
        }
      ],
      "name": "burn",
      "outputs": [],
      "stateMutability": "nonpayable",
      "type": "function"
    },
    {
      "inputs": [
        {
          "internalType": "address",
          "name": "account",
          "type": "address"
        },
        {
          "internalType": "uint256",
          "name": "amount",
          "type": "uint256"
        }
      ],
      "name": "burnFrom",
      "outputs": [],
      "stateMutability": "nonpayable",
      "type": "function"
    },
    {
      "inputs": [],
      "name": "cap",
      "outputs": [
        {
          "internalType": "uint256",
          "name": "",
          "type": "uint256"
        }
      ],
      "stateMutability": "view",
      "type": "function"
    },
    {
      "inputs": [],
      "name": "decimals",
      "outputs": [
        {
          "internalType": "uint8",
          "name": "",
          "type": "uint8"
        }
      ],
      "stateMutability": "view",
      "type": "function"
    },
    {
      "inputs": [
        {
          "internalType": "address",
          "name": "spender",
          "type": "address"
        },
        {
          "internalType": "uint256",
          "name": "subtractedValue",
          "type": "uint256"
        }
      ],
      "name": "decreaseAllowance",
      "outputs": [
        {
          "internalType": "bool",
          "name": "",
          "type": "bool"
        }
      ],
      "stateMutability": "nonpayable",
      "type": "function"
    },
    {
      "inputs": [],
      "name": "eip712Domain",
      "outputs": [
        {
          "internalType": "bytes1",
          "name": "fields",
          "type": "bytes1"
        },
        {
          "internalType": "string",
          "name": "name",
          "type": "string"
        },
        {
          "internalType": "string",
          "name": "version",
          "type": "string"
        },
        {
          "internalType": "uint256",
          "name": "chainId",
          "type": "uint256"
        },
        {
          "internalType": "address",
          "name": "verifyingContract",
          "type": "address"
        },
        {
          "internalType": "bytes32",
          "name": "salt",
          "type": "bytes32"
        },
        {
          "internalType": "uint256[]",
          "name": "extensions",
          "type": "uint256[]"
        }
      ],
      "stateMutability": "view",
      "type": "function"
    },
    {
      "inputs": [
        {
          "internalType": "address",
          "name": "account",
          "type": "address"
        }
      ],
      "name": "getBlackList",
      "outputs": [
        {
          "internalType": "bool",
          "name": "",
          "type": "bool"
        }
      ],
      "stateMutability": "view",
      "type": "function"
    },
    {
      "inputs": [
        {
          "internalType": "bytes32",
          "name": "role",
          "type": "bytes32"
        }
      ],
      "name": "getRoleAdmin",
      "outputs": [
        {
          "internalType": "bytes32",
          "name": "",
          "type": "bytes32"
        }
      ],
      "stateMutability": "view",
      "type": "function"
    },
    {
      "inputs": [
        {
          "internalType": "bytes32",
          "name": "role",
          "type": "bytes32"
        },
        {
          "internalType": "uint256",
          "name": "index",
          "type": "uint256"
        }
      ],
      "name": "getRoleMember",
      "outputs": [
        {
          "internalType": "address",
          "name": "",
          "type": "address"
        }
      ],
      "stateMutability": "view",
      "type": "function"
    },
    {
      "inputs": [
        {
          "internalType": "bytes32",
          "name": "role",
          "type": "bytes32"
        }
      ],
      "name": "getRoleMemberCount",
      "outputs": [
        {
          "internalType": "uint256",
          "name": "",
          "type": "uint256"
        }
      ],
      "stateMutability": "view",
      "type": "function"
    },
    {
      "inputs": [
        {
          "internalType": "bytes32",
          "name": "role",
          "type": "bytes32"
        },
        {
          "internalType": "address",
          "name": "account",
          "type": "address"
        }
      ],
      "name": "grantRole",
      "outputs": [],
      "stateMutability": "nonpayable",
      "type": "function"
    },
    {
      "inputs": [
        {
          "internalType": "bytes32",
          "name": "role",
          "type": "bytes32"
        },
        {
          "internalType": "address",
          "name": "account",
          "type": "address"
        }
      ],
      "name": "hasRole",
      "outputs": [
        {
          "internalType": "bool",
          "name": "",
          "type": "bool"
        }
      ],
      "stateMutability": "view",
      "type": "function"
    },
    {
      "inputs": [],
      "name": "implementation",
      "outputs": [
        {
          "internalType": "address",
          "name": "",
          "type": "address"
        }
      ],
      "stateMutability": "view",
      "type": "function"
    },
    {
      "inputs": [
        {
          "internalType": "address",
          "name": "spender",
          "type": "address"
        },
        {
          "internalType": "uint256",
          "name": "addedValue",
          "type": "uint256"
        }
      ],
      "name": "increaseAllowance",
      "outputs": [
        {
          "internalType": "bool",
          "name": "",
          "type": "bool"
        }
      ],
      "stateMutability": "nonpayable",
      "type": "function"
    },
    {
      "inputs": [
        {
          "internalType": "string",
          "name": "name_",
          "type": "string"
        },
        {
          "internalType": "string",
          "name": "symbol_",
          "type": "string"
        },
        {
          "internalType": "uint256",
          "name": "initialSupply",
          "type": "uint256"
        },
        {
          "internalType": "address",
          "name": "admin",
          "type": "address"
        }
      ],
      "name": "initialize",
      "outputs": [],
      "stateMutability": "nonpayable",
      "type": "function"
    },
    {
      "inputs": [
        {
          "internalType": "address",
          "name": "to",
          "type": "address"
        },
        {
          "internalType": "uint256",
          "name": "amount",
          "type": "uint256"
        }
      ],
      "name": "mint",
      "outputs": [],
      "stateMutability": "nonpayable",
      "type": "function"
    },
    {
      "inputs": [],
      "name": "name",
      "outputs": [
        {
          "internalType": "string",
          "name": "",
          "type": "string"
        }
      ],
      "stateMutability": "view",
      "type": "function"
    },
    {
      "inputs": [
        {
          "internalType": "address",
          "name": "",
          "type": "address"
        }
      ],
      "name": "nonces",
      "outputs": [
        {
          "internalType": "uint256",
          "name": "",
          "type": "uint256"
        }
      ],
      "stateMutability": "view",
      "type": "function"
    },
    {
      "inputs": [],
      "name": "pause",
      "outputs": [],
      "stateMutability": "nonpayable",
      "type": "function"
    },
    {
      "inputs": [],
      "name": "paused",
      "outputs": [
        {
          "internalType": "bool",
          "name": "",
          "type": "bool"
        }
      ],
      "stateMutability": "view",
      "type": "function"
    },
    {
      "inputs": [
        {
          "internalType": "address",
          "name": "owner",
          "type": "address"
        },
        {
          "internalType": "address",
          "name": "spender",
          "type": "address"
        },
        {
          "internalType": "uint256",
          "name": "value",
          "type": "uint256"
        },
        {
          "internalType": "uint256",
          "name": "deadline",
          "type": "uint256"
        },
        {
          "internalType": "bytes",
          "name": "signature",
          "type": "bytes"
        }
      ],
      "name": "permit",
      "outputs": [],
      "stateMutability": "nonpayable",
      "type": "function"
    },
    {
      "inputs": [
        {
          "internalType": "bytes32",
          "name": "role",
          "type": "bytes32"
        },
        {
          "internalType": "address",
          "name": "account",
          "type": "address"
        }
      ],
      "name": "renounceRole",
      "outputs": [],
      "stateMutability": "nonpayable",
      "type": "function"
    },
    {
      "inputs": [
        {
          "internalType": "bytes32",
          "name": "role",
          "type": "bytes32"
        },
        {
          "internalType": "address",
          "name": "account",
          "type": "address"
        }
      ],
      "name": "revokeRole",
      "outputs": [],
      "stateMutability": "nonpayable",
      "type": "function"
    },
    {
      "inputs": [
        {
          "internalType": "address",
          "name": "account",
          "type": "address"
        }
      ],
      "name": "setBlackList",
      "outputs": [],
      "stateMutability": "nonpayable",
      "type": "function"
    },
    {
      "inputs": [
        {
          "internalType": "uint256",
          "name": "cap_",
          "type": "uint256"
        }
      ],
      "name": "setCap",
      "outputs": [],
      "stateMutability": "nonpayable",
      "type": "function"
    },
    {
      "inputs": [
        {
          "internalType": "bytes4",
          "name": "interfaceId",
          "type": "bytes4"
        }
      ],
      "name": "supportsInterface",
      "outputs": [
        {
          "internalType": "bool",
          "name": "",
          "type": "bool"
        }
      ],
      "stateMutability": "view",
      "type": "function"
    },
    {
      "inputs": [],
      "name": "symbol",
      "outputs": [
        {
          "internalType": "string",
          "name": "",
          "type": "string"
        }
      ],
      "stateMutability": "view",
      "type": "function"
    },
    {
      "inputs": [],
      "name": "totalSupply",
      "outputs": [
        {
          "internalType": "uint256",
          "name": "",
          "type": "uint256"
        }
      ],
      "stateMutability": "view",
      "type": "function"
    },
    {
      "inputs": [
        {
          "internalType": "address",
          "name": "to",
          "type": "address"
        },
        {
          "internalType": "uint256",
          "name": "amount",
          "type": "uint256"
        }
      ],
      "name": "transfer",
      "outputs": [
        {
          "internalType": "bool",
          "name": "",
          "type": "bool"
        }
      ],
      "stateMutability": "nonpayable",
      "type": "function"
    },
    {
      "inputs": [
        {
          "internalType": "address",
          "name": "from",
          "type": "address"
        },
        {
          "internalType": "address",
          "name": "to",
          "type": "address"
        },
        {
          "internalType": "uint256",
          "name": "amount",
          "type": "uint256"
        }
      ],
      "name": "transferFrom",
      "outputs": [
        {
          "internalType": "bool",
          "name": "",
          "type": "bool"
        }
      ],
      "stateMutability": "nonpayable",
      "type": "function"
    },
    {
      "inputs": [],
      "name": "unpause",
      "outputs": [],
      "stateMutability": "nonpayable",
      "type": "function"
    }
  ],
  "bytecode": "0x608060405234801561001057600080fd5b5061265b806100206000396000f3fe608060405234801561001057600080fd5b50600436106102275760003560e01c80635c975abb1161013057806395d89b41116100b8578063bd3a13f61161007c578063bd3a13f6146104cc578063ca15c873146104df578063d5391393146104f2578063d547741f14610519578063dd62ed3e1461052c57600080fd5b806395d89b41146104835780639fd5a6cf1461048b578063a217fddf1461049e578063a457c2d7146104a6578063a9059cbb146104b957600080fd5b80637ecebe00116100ff5780637ecebe00146104195780638456cb591461043a57806384b0196e146104425780639010d07c1461045d57806391d148541461047057600080fd5b80635c975abb146103bf57806370a08231146103ca57806372700241146103f357806379cc67901461040657600080fd5b8063355274ea116101b35780633fbdc67d116101825780633fbdc67d1461034757806340c10f191461035a57806342966c681461036d57806347786d37146103805780635c60da1b1461039357600080fd5b8063355274ea1461031057806336568abe14610319578063395093511461032c5780633f4ba83a1461033f57600080fd5b806323b872dd116101fa57806323b872dd1461028e578063248a9ca3146102a15780632f2ff15d146102c557806330adf81f146102da578063313ce5671461030157600080fd5b806301ffc9a71461022c57806306fdde0314610254578063095ea7b31461026957806318160ddd1461027c575b600080fd5b61023f61023a366004611f39565b61053f565b60405190151581526020015b60405180910390f35b61025c61056a565b60405161024b9190611fb3565b61023f610277366004611fdd565b6105fc565b6035545b60405190815260200161024b565b61023f61029c366004612007565b610614565b6102806102af366004612043565b6000908152610161602052604090206001015490565b6102d86102d336600461205c565b610638565b005b6102807f6e71edae12b1b97f4d1f60370fef10105fa2faae0126114a169c64845d6126c981565b6040516012815260200161024b565b6101c554610280565b6102d861032736600461205c565b610663565b61023f61033a366004611fdd565b6106e6565b6102d8610708565b61023f610355366004612088565b610739565b6102d8610368366004611fdd565b610785565b6102d861037b366004612043565b610893565b6102d861038e366004612043565b6108a0565b6101c6546103a7906001600160a01b031681565b6040516001600160a01b03909116815260200161024b565b60655460ff1661023f565b6102806103d8366004612088565b6001600160a01b031660009081526033602052604090205490565b6102d8610401366004612088565b6108cd565b6102d8610414366004611fdd565b61091e565b610280610427366004612088565b6101c86020526000908152604090205481565b6102d8610933565b61044a610962565b60405161024b97969594939291906120a3565b6103a761046b366004612139565b610a00565b61023f61047e36600461205c565b610a20565b61025c610a4c565b6102d86104993660046121e7565b610a5b565b610280600081565b61023f6104b4366004611fdd565b610b8e565b61023f6104c7366004611fdd565b610c09565b6102d86104da36600461228d565b610c17565b6102806104ed366004612043565b610db5565b6102807f9f2df0fed2c77648de5860a4cc508cd0818c85b8b8a1ab4ceeef8d981c8956a681565b6102d861052736600461205c565b610dcd565b61028061053a36600461230b565b610df3565b60006001600160e01b03198216635a05180f60e01b1480610564575061056482610e1e565b92915050565b60606036805461057990612335565b80601f01602080910402602001604051908101604052809291908181526020018280546105a590612335565b80156105f25780601f106105c7576101008083540402835291602001916105f2565b820191906000526020600020905b8154815290600101906020018083116105d557829003601f168201915b5050505050905090565b60003361060a818585610e53565b5060019392505050565b600033610622858285610f77565b61062d858585610ff1565b506001949350505050565b60008281526101616020526040902060010154610654816111a7565b61065e83836111b1565b505050565b6001600160a01b03811633146106d85760405162461bcd60e51b815260206004820152602f60248201527f416363657373436f6e74726f6c3a2063616e206f6e6c792072656e6f756e636560448201526e103937b632b9903337b91039b2b63360891b60648201526084015b60405180910390fd5b6106e282826111d4565b5050565b60003361060a8185856106f98383610df3565b6107039190612385565b610e53565b610713600033610a20565b61072f5760405162461bcd60e51b81526004016106cf90612398565b6107376111f7565b565b60006107458133610a20565b6107615760405162461bcd60e51b81526004016106cf90612398565b506001600160a01b03811660009081526101c7602052604090205460ff165b919050565b6107af7f9f2df0fed2c77648de5860a4cc508cd0818c85b8b8a1ab4ceeef8d981c8956a633610a20565b61081a5760405162461bcd60e51b815260206004820152603660248201527f45524332305072657365744d696e7465725061757365723a206d7573742068616044820152751d99481b5a5b9d195c881c9bdb19481d1bc81b5a5b9d60521b60648201526084016106cf565b6101c55415610889576101c5548161083160355490565b61083b9190612385565b11156108895760405162461bcd60e51b815260206004820152601960248201527f45524332304361707065643a206361702065786365656465640000000000000060448201526064016106cf565b6106e28282611249565b61089d3382611316565b50565b6108ab600033610a20565b6108c75760405162461bcd60e51b81526004016106cf90612398565b6101c555565b6108d8600033610a20565b6108f45760405162461bcd60e51b81526004016106cf90612398565b6001600160a01b031660009081526101c760205260409020805460ff19811660ff90911615179055565b610929823383610f77565b6106e28282611316565b61093e600033610a20565b61095a5760405162461bcd60e51b81526004016106cf90612398565b610737611456565b60006060806000806000606060fb546000801b148015610982575060fc54155b6109c65760405162461bcd60e51b81526020600482015260156024820152741152540dcc4c8e88155b9a5b9a5d1a585b1a5e9959605a1b60448201526064016106cf565b6109ce611493565b6109d66114a2565b60408051600080825260208201909252600f60f81b9b939a50919850469750309650945092509050565b600082815261019360205260408120610a1990836114b1565b9392505050565b6000918252610161602090815260408084206001600160a01b0393909316845291905290205460ff1690565b60606037805461057990612335565b6001600160a01b03851660009081526101c86020526040812080547f6e71edae12b1b97f4d1f60370fef10105fa2faae0126114a169c64845d6126c9918891889188919086610aa9836123bb565b909155506040805160208101969096526001600160a01b0394851690860152929091166060840152608083015260a082015260c0810184905260e0016040516020818303038152906040528051906020012090506000610b08826114bd565b90506000610b1682856114ea565b9050806001600160a01b0316886001600160a01b031614610b795760405162461bcd60e51b815260206004820152601960248201527f5065726d69743a20696e76616c6964207369676e61747572650000000000000060448201526064016106cf565b610b84888888610e53565b5050505050505050565b60003381610b9c8286610df3565b905083811015610bfc5760405162461bcd60e51b815260206004820152602560248201527f45524332303a2064656372656173656420616c6c6f77616e63652062656c6f77604482015264207a65726f60d81b60648201526084016106cf565b61062d8286868403610e53565b60003361060a818585610ff1565b600054610100900460ff1615808015610c375750600054600160ff909116105b80610c515750303b158015610c51575060005460ff166001145b610cb45760405162461bcd60e51b815260206004820152602e60248201527f496e697469616c697a61626c653a20636f6e747261637420697320616c72656160448201526d191e481a5b9a5d1a585b1a5e995960921b60648201526084016106cf565b6000805460ff191660011790558015610cd7576000805461ff0019166101001790555b610ce1858561150e565b610d296040518060400160405280600b81526020016a2832b936b4ba2a37b5b2b760a91b815250604051806040016040528060038152602001620312e360ec1b81525061153f565b610d34600083611570565b610d5e7f9f2df0fed2c77648de5860a4cc508cd0818c85b8b8a1ab4ceeef8d981c8956a683611570565b610d688284611249565b8015610dae576000805461ff0019169055604051600181527f7f26b83ff96e1f2b6a682f133852f6798a09c465da95921460cefb38474024989060200160405180910390a15b5050505050565b6000818152610193602052604081206105649061157a565b60008281526101616020526040902060010154610de9816111a7565b61065e83836111d4565b6001600160a01b03918216600090815260346020908152604080832093909416825291909152205490565b60006001600160e01b03198216637965db0b60e01b148061056457506301ffc9a760e01b6001600160e01b0319831614610564565b6001600160a01b038316610eb55760405162461bcd60e51b8152602060048201526024808201527f45524332303a20617070726f76652066726f6d20746865207a65726f206164646044820152637265737360e01b60648201526084016106cf565b6001600160a01b038216610f165760405162461bcd60e51b815260206004820152602260248201527f45524332303a20617070726f766520746f20746865207a65726f206164647265604482015261737360f01b60648201526084016106cf565b6001600160a01b0383811660008181526034602090815260408083209487168084529482529182902085905590518481527f8c5be1e5ebec7d5bd14f71427d1e84f3dd0314c0f7b2291e5b200ac8c7c3b925910160405180910390a3505050565b6000610f838484610df3565b90506000198114610feb5781811015610fde5760405162461bcd60e51b815260206004820152601d60248201527f45524332303a20696e73756666696369656e7420616c6c6f77616e636500000060448201526064016106cf565b610feb8484848403610e53565b50505050565b6001600160a01b0383166110555760405162461bcd60e51b815260206004820152602560248201527f45524332303a207472616e736665722066726f6d20746865207a65726f206164604482015264647265737360d81b60648201526084016106cf565b6001600160a01b0382166110b75760405162461bcd60e51b815260206004820152602360248201527f45524332303a207472616e7366657220746f20746865207a65726f206164647260448201526265737360e81b60648201526084016106cf565b6110c2838383611584565b6001600160a01b0383166000908152603360205260409020548181101561113a5760405162461bcd60e51b815260206004820152602660248201527f45524332303a207472616e7366657220616d6f756e7420657863656564732062604482015265616c616e636560d01b60648201526084016106cf565b6001600160a01b0380851660008181526033602052604080822086860390559286168082529083902080548601905591517fddf252ad1be2c89b69c2b068fc378daa952ba7f163c4a11628f55a4df523b3ef9061119a9086815260200190565b60405180910390a3610feb565b61089d81336115c9565b6111bb8282611622565b60008281526101936020526040902061065e90826116a9565b6111de82826116be565b60008281526101936020526040902061065e9082611726565b6111ff61173b565b6065805460ff191690557f5db9ee0a495bf2e6ff9c91a7834c1ba4fdd244a5e8aa4e537bd38aeae4b073aa335b6040516001600160a01b03909116815260200160405180910390a1565b6001600160a01b03821661129f5760405162461bcd60e51b815260206004820152601f60248201527f45524332303a206d696e7420746f20746865207a65726f20616464726573730060448201526064016106cf565b6112ab60008383611584565b80603560008282546112bd9190612385565b90915550506001600160a01b0382166000818152603360209081526040808320805486019055518481527fddf252ad1be2c89b69c2b068fc378daa952ba7f163c4a11628f55a4df523b3ef910160405180910390a35050565b6001600160a01b0382166113765760405162461bcd60e51b815260206004820152602160248201527f45524332303a206275726e2066726f6d20746865207a65726f206164647265736044820152607360f81b60648201526084016106cf565b61138282600083611584565b6001600160a01b038216600090815260336020526040902054818110156113f65760405162461bcd60e51b815260206004820152602260248201527f45524332303a206275726e20616d6f756e7420657863656564732062616c616e604482015261636560f01b60648201526084016106cf565b6001600160a01b03831660008181526033602090815260408083208686039055603580548790039055518581529192917fddf252ad1be2c89b69c2b068fc378daa952ba7f163c4a11628f55a4df523b3ef910160405180910390a3505050565b61145e611784565b6065805460ff191660011790557f62e78cea01bee320cd4e420270b5ea74000d11b0c9f74754ebdbfc544b05a25861122c3390565b606060fd805461057990612335565b606060fe805461057990612335565b6000610a1983836117ca565b60006105646114ca6117f4565b8360405161190160f01b8152600281019290925260228201526042902090565b60008060006114f98585611803565b9150915061150681611848565b509392505050565b600054610100900460ff166115355760405162461bcd60e51b81526004016106cf906123d4565b6106e28282611992565b600054610100900460ff166115665760405162461bcd60e51b81526004016106cf906123d4565b6106e282826119d2565b6106e282826111b1565b6000610564825490565b6001600160a01b03831660009081526101c7602052604090205460ff16156115be5760405162461bcd60e51b81526004016106cf90612398565b61065e838383611a21565b6115d38282610a20565b6106e2576115e081611a87565b6115eb836020611a99565b6040516020016115fc92919061241f565b60408051601f198184030181529082905262461bcd60e51b82526106cf91600401611fb3565b61162c8282610a20565b6106e2576000828152610161602090815260408083206001600160a01b03851684529091529020805460ff191660011790556116653390565b6001600160a01b0316816001600160a01b0316837f2f8788117e7eff1d82e926ec794901d17c78024a50270940304540a733656f0d60405160405180910390a45050565b6000610a19836001600160a01b038416611c35565b6116c88282610a20565b156106e2576000828152610161602090815260408083206001600160a01b0385168085529252808320805460ff1916905551339285917ff6391f5c32d9c69d2a47ea670b442974b53935d1edc7fd64eb21e047a839171b9190a45050565b6000610a19836001600160a01b038416611c84565b60655460ff166107375760405162461bcd60e51b815260206004820152601460248201527314185d5cd8589b194e881b9bdd081c185d5cd95960621b60448201526064016106cf565b60655460ff16156107375760405162461bcd60e51b815260206004820152601060248201526f14185d5cd8589b194e881c185d5cd95960821b60448201526064016106cf565b60008260000182815481106117e1576117e1612494565b9060005260206000200154905092915050565b60006117fe611d77565b905090565b60008082516041036118395760208301516040840151606085015160001a61182d87828585611deb565b94509450505050611841565b506000905060025b9250929050565b600081600481111561185c5761185c6124aa565b036118645750565b6001816004811115611878576118786124aa565b036118c55760405162461bcd60e51b815260206004820152601860248201527f45434453413a20696e76616c6964207369676e6174757265000000000000000060448201526064016106cf565b60028160048111156118d9576118d96124aa565b036119265760405162461bcd60e51b815260206004820152601f60248201527f45434453413a20696e76616c6964207369676e6174757265206c656e6774680060448201526064016106cf565b600381600481111561193a5761193a6124aa565b0361089d5760405162461bcd60e51b815260206004820152602260248201527f45434453413a20696e76616c6964207369676e6174757265202773272076616c604482015261756560f01b60648201526084016106cf565b600054610100900460ff166119b95760405162461bcd60e51b81526004016106cf906123d4565b60366119c5838261250e565b50603761065e828261250e565b600054610100900460ff166119f95760405162461bcd60e51b81526004016106cf906123d4565b60fd611a05838261250e565b5060fe611a12828261250e565b5050600060fb81905560fc5550565b60655460ff161561065e5760405162461bcd60e51b815260206004820152602a60248201527f45524332305061757361626c653a20746f6b656e207472616e736665722077686044820152691a5b19481c185d5cd95960b21b60648201526084016106cf565b60606105646001600160a01b03831660145b60606000611aa88360026125ce565b611ab3906002612385565b67ffffffffffffffff811115611acb57611acb61215b565b6040519080825280601f01601f191660200182016040528015611af5576020820181803683370190505b509050600360fc1b81600081518110611b1057611b10612494565b60200101906001600160f81b031916908160001a905350600f60fb1b81600181518110611b3f57611b3f612494565b60200101906001600160f81b031916908160001a9053506000611b638460026125ce565b611b6e906001612385565b90505b6001811115611be6576f181899199a1a9b1b9c1cb0b131b232b360811b85600f1660108110611ba257611ba2612494565b1a60f81b828281518110611bb857611bb8612494565b60200101906001600160f81b031916908160001a90535060049490941c93611bdf816125e5565b9050611b71565b508315610a195760405162461bcd60e51b815260206004820181905260248201527f537472696e67733a20686578206c656e67746820696e73756666696369656e7460448201526064016106cf565b6000818152600183016020526040812054611c7c57508154600181810184556000848152602080822090930184905584548482528286019093526040902091909155610564565b506000610564565b60008181526001830160205260408120548015611d6d576000611ca86001836125fc565b8554909150600090611cbc906001906125fc565b9050818114611d21576000866000018281548110611cdc57611cdc612494565b9060005260206000200154905080876000018481548110611cff57611cff612494565b6000918252602080832090910192909255918252600188019052604090208390555b8554869080611d3257611d3261260f565b600190038181906000526020600020016000905590558560010160008681526020019081526020016000206000905560019350505050610564565b6000915050610564565b60007f8b73c3c69bb8fe3d512ecc4cf759cc79239f7b179b0ffacaa9a75d522b39400f611da2611eaf565b611daa611f08565b60408051602081019490945283019190915260608201524660808201523060a082015260c00160405160208183030381529060405280519060200120905090565b6000807f7fffffffffffffffffffffffffffffff5d576e7357a4501ddfe92f46681b20a0831115611e225750600090506003611ea6565b6040805160008082526020820180845289905260ff881692820192909252606081018690526080810185905260019060a0016020604051602081039080840390855afa158015611e76573d6000803e3d6000fd5b5050604051601f1901519150506001600160a01b038116611e9f57600060019250925050611ea6565b9150600090505b94509492505050565b600080611eba611493565b805190915015611ed1578051602090910120919050565b60fb548015611ee05792915050565b7fc5d2460186f7233c927e7db2dcc703c0e500b653ca82273b7bfad8045d85a4709250505090565b600080611f136114a2565b805190915015611f2a578051602090910120919050565b60fc548015611ee05792915050565b600060208284031215611f4b57600080fd5b81356001600160e01b031981168114610a1957600080fd5b60005b83811015611f7e578181015183820152602001611f66565b50506000910152565b60008151808452611f9f816020860160208601611f63565b601f01601f19169290920160200192915050565b602081526000610a196020830184611f87565b80356001600160a01b038116811461078057600080fd5b60008060408385031215611ff057600080fd5b611ff983611fc6565b946020939093013593505050565b60008060006060848603121561201c57600080fd5b61202584611fc6565b925061203360208501611fc6565b9150604084013590509250925092565b60006020828403121561205557600080fd5b5035919050565b6000806040838503121561206f57600080fd5b8235915061207f60208401611fc6565b90509250929050565b60006020828403121561209a57600080fd5b610a1982611fc6565b60ff60f81b881681526000602060e0818401526120c360e084018a611f87565b83810360408501526120d5818a611f87565b606085018990526001600160a01b038816608086015260a0850187905284810360c0860152855180825283870192509083019060005b818110156121275783518352928401929184019160010161210b565b50909c9b505050505050505050505050565b6000806040838503121561214c57600080fd5b50508035926020909101359150565b634e487b7160e01b600052604160045260246000fd5b600067ffffffffffffffff8084111561218c5761218c61215b565b604051601f8501601f19908116603f011681019082821181831017156121b4576121b461215b565b816040528093508581528686860111156121cd57600080fd5b858560208301376000602087830101525050509392505050565b600080600080600060a086880312156121ff57600080fd5b61220886611fc6565b945061221660208701611fc6565b93506040860135925060608601359150608086013567ffffffffffffffff81111561224057600080fd5b8601601f8101881361225157600080fd5b61226088823560208401612171565b9150509295509295909350565b600082601f83011261227e57600080fd5b610a1983833560208501612171565b600080600080608085870312156122a357600080fd5b843567ffffffffffffffff808211156122bb57600080fd5b6122c78883890161226d565b955060208701359150808211156122dd57600080fd5b506122ea8782880161226d565b9350506040850135915061230060608601611fc6565b905092959194509250565b6000806040838503121561231e57600080fd5b61232783611fc6565b915061207f60208401611fc6565b600181811c9082168061234957607f821691505b60208210810361236957634e487b7160e01b600052602260045260246000fd5b50919050565b634e487b7160e01b600052601160045260246000fd5b808201808211156105645761056461236f565b6020808252600990820152683337b93134b23232b760b91b604082015260600190565b6000600182016123cd576123cd61236f565b5060010190565b6020808252602b908201527f496e697469616c697a61626c653a20636f6e7472616374206973206e6f74206960408201526a6e697469616c697a696e6760a81b606082015260800190565b7f416363657373436f6e74726f6c3a206163636f756e7420000000000000000000815260008351612457816017850160208801611f63565b7001034b99036b4b9b9b4b733903937b6329607d1b6017918401918201528351612488816028840160208801611f63565b01602801949350505050565b634e487b7160e01b600052603260045260246000fd5b634e487b7160e01b600052602160045260246000fd5b601f82111561065e57600081815260208120601f850160051c810160208610156124e75750805b601f850160051c820191505b81811015612506578281556001016124f3565b505050505050565b815167ffffffffffffffff8111156125285761252861215b565b61253c816125368454612335565b846124c0565b602080601f83116001811461257157600084156125595750858301515b600019600386901b1c1916600185901b178555612506565b600085815260208120601f198616915b828110156125a057888601518255948401946001909101908401612581565b50858210156125be5787850151600019600388901b60f8161c191681555b5050505050600190811b01905550565b80820281158282048414176105645761056461236f565b6000816125f4576125f461236f565b506000190190565b818103818111156105645761056461236f565b634e487b7160e01b600052603160045260246000fdfea26469706673582212208815ba3c8e0dac044f508991f884e574c6e3202f5f5a64358d47ed3b98d192ab64736f6c63430008130033",
  "linkReferences": {},
  "deployedLinkReferences": {}
}